{
	"Solidity_Basics/SolSyntax.sol": {
		"SolSyntax": {
			"abi": [
				{
					"inputs": [],
					"name": "isTime",
					"outputs": [
						{
							"internalType": "bool",
							"name": "",
							"type": "bool"
						}
					],
					"stateMutability": "view",
					"type": "function"
				},
				{
					"inputs": [],
					"name": "makefalse",
					"outputs": [],
					"stateMutability": "nonpayable",
					"type": "function"
				}
			],
			"devdoc": {
				"kind": "dev",
				"methods": {},
				"version": 1
			},
			"evm": {
				"assembly": "    /* \"Solidity_Basics/SolSyntax.sol\":60:214  contract SolSyntax{... */\n  mstore(0x40, 0x80)\n    /* \"Solidity_Basics/SolSyntax.sol\":117:125  24 hours */\n  0x015180\n    /* \"Solidity_Basics/SolSyntax.sol\":107:113  1 days */\n  dup1\n    /* \"Solidity_Basics/SolSyntax.sol\":107:125  1 days == 24 hours */\n  eq\n    /* \"Solidity_Basics/SolSyntax.sol\":85:126  bool public isTime = (1 days == 24 hours) */\n  0x00\n  dup1\n  0x0100\n  exp\n  dup2\n  sload\n  dup2\n  0xff\n  mul\n  not\n  and\n  swap1\n  dup4\n  iszero\n  iszero\n  mul\n  or\n  swap1\n  sstore\n  pop\n    /* \"Solidity_Basics/SolSyntax.sol\":60:214  contract SolSyntax{... */\n  callvalue\n  dup1\n  iszero\n  tag_1\n  jumpi\n  0x00\n  dup1\n  revert\ntag_1:\n  pop\n  dataSize(sub_0)\n  dup1\n  dataOffset(sub_0)\n  0x00\n  codecopy\n  0x00\n  return\nstop\n\nsub_0: assembly {\n        /* \"Solidity_Basics/SolSyntax.sol\":60:214  contract SolSyntax{... */\n      mstore(0x40, 0x80)\n      callvalue\n      dup1\n      iszero\n      tag_1\n      jumpi\n      0x00\n      dup1\n      revert\n    tag_1:\n      pop\n      jumpi(tag_2, lt(calldatasize, 0x04))\n      shr(0xe0, calldataload(0x00))\n      dup1\n      0x195e7892\n      eq\n      tag_3\n      jumpi\n      dup1\n      0x405eae91\n      eq\n      tag_4\n      jumpi\n    tag_2:\n      0x00\n      dup1\n      revert\n        /* \"Solidity_Basics/SolSyntax.sol\":135:211  function makefalse() public {... */\n    tag_3:\n      tag_5\n      tag_6\n      jump\t// in\n    tag_5:\n      stop\n        /* \"Solidity_Basics/SolSyntax.sol\":85:126  bool public isTime = (1 days == 24 hours) */\n    tag_4:\n      tag_7\n      tag_8\n      jump\t// in\n    tag_7:\n      mload(0x40)\n      tag_9\n      swap2\n      swap1\n      tag_10\n      jump\t// in\n    tag_9:\n      mload(0x40)\n      dup1\n      swap2\n      sub\n      swap1\n      return\n        /* \"Solidity_Basics/SolSyntax.sol\":135:211  function makefalse() public {... */\n    tag_6:\n        /* \"Solidity_Basics/SolSyntax.sol\":194:202  25 hours */\n      0x015f90\n        /* \"Solidity_Basics/SolSyntax.sol\":184:190  1 days */\n      0x015180\n        /* \"Solidity_Basics/SolSyntax.sol\":184:202  1 days == 25 hours */\n      eq\n        /* \"Solidity_Basics/SolSyntax.sol\":174:180  isTime */\n      0x00\n      dup1\n        /* \"Solidity_Basics/SolSyntax.sol\":174:203  isTime = (1 days == 25 hours) */\n      0x0100\n      exp\n      dup2\n      sload\n      dup2\n      0xff\n      mul\n      not\n      and\n      swap1\n      dup4\n      iszero\n      iszero\n      mul\n      or\n      swap1\n      sstore\n      pop\n        /* \"Solidity_Basics/SolSyntax.sol\":135:211  function makefalse() public {... */\n      jump\t// out\n        /* \"Solidity_Basics/SolSyntax.sol\":85:126  bool public isTime = (1 days == 24 hours) */\n    tag_8:\n      0x00\n      dup1\n      sload\n      swap1\n      0x0100\n      exp\n      swap1\n      div\n      0xff\n      and\n      dup2\n      jump\t// out\n        /* \"#utility.yul\":7:97   */\n    tag_12:\n        /* \"#utility.yul\":41:48   */\n      0x00\n        /* \"#utility.yul\":84:89   */\n      dup2\n        /* \"#utility.yul\":77:90   */\n      iszero\n        /* \"#utility.yul\":70:91   */\n      iszero\n        /* \"#utility.yul\":59:91   */\n      swap1\n      pop\n        /* \"#utility.yul\":7:97   */\n      swap2\n      swap1\n      pop\n      jump\t// out\n        /* \"#utility.yul\":103:212   */\n    tag_13:\n        /* \"#utility.yul\":184:205   */\n      tag_17\n        /* \"#utility.yul\":199:204   */\n      dup2\n        /* \"#utility.yul\":184:205   */\n      tag_12\n      jump\t// in\n    tag_17:\n        /* \"#utility.yul\":179:182   */\n      dup3\n        /* \"#utility.yul\":172:206   */\n      mstore\n        /* \"#utility.yul\":103:212   */\n      pop\n      pop\n      jump\t// out\n        /* \"#utility.yul\":218:428   */\n    tag_10:\n        /* \"#utility.yul\":305:309   */\n      0x00\n        /* \"#utility.yul\":343:345   */\n      0x20\n        /* \"#utility.yul\":332:341   */\n      dup3\n        /* \"#utility.yul\":328:346   */\n      add\n        /* \"#utility.yul\":320:346   */\n      swap1\n      pop\n        /* \"#utility.yul\":356:421   */\n      tag_19\n        /* \"#utility.yul\":418:419   */\n      0x00\n        /* \"#utility.yul\":407:416   */\n      dup4\n        /* \"#utility.yul\":403:420   */\n      add\n        /* \"#utility.yul\":394:400   */\n      dup5\n        /* \"#utility.yul\":356:421   */\n      tag_13\n      jump\t// in\n    tag_19:\n        /* \"#utility.yul\":218:428   */\n      swap3\n      swap2\n      pop\n      pop\n      jump\t// out\n\n    auxdata: 0xa2646970667358221220541a4f2c08a0387be4750cbe14bec93608e7f65fb7270e8ca7cd4435c21fb72b64736f6c63430008110033\n}\n",
				"bytecode": {
					"linkReferences": {},
					"object": "60806040526201518080146000806101000a81548160ff02191690831515021790555034801561002e57600080fd5b5060f58061003d6000396000f3fe6080604052348015600f57600080fd5b506004361060325760003560e01c8063195e7892146037578063405eae9114603f575b600080fd5b603d6059565b005b6045607c565b6040516050919060a6565b60405180910390f35b62015f9062015180146000806101000a81548160ff021916908315150217905550565b60008054906101000a900460ff1681565b60008115159050919050565b60a081608d565b82525050565b600060208201905060b960008301846099565b9291505056fea2646970667358221220541a4f2c08a0387be4750cbe14bec93608e7f65fb7270e8ca7cd4435c21fb72b64736f6c63430008110033",
					"opcodes": "PUSH1 0x80 PUSH1 0x40 MSTORE PUSH3 0x15180 DUP1 EQ PUSH1 0x0 DUP1 PUSH2 0x100 EXP DUP2 SLOAD DUP2 PUSH1 0xFF MUL NOT AND SWAP1 DUP4 ISZERO ISZERO MUL OR SWAP1 SSTORE POP CALLVALUE DUP1 ISZERO PUSH2 0x2E JUMPI PUSH1 0x0 DUP1 REVERT JUMPDEST POP PUSH1 0xF5 DUP1 PUSH2 0x3D PUSH1 0x0 CODECOPY PUSH1 0x0 RETURN INVALID PUSH1 0x80 PUSH1 0x40 MSTORE CALLVALUE DUP1 ISZERO PUSH1 0xF JUMPI PUSH1 0x0 DUP1 REVERT JUMPDEST POP PUSH1 0x4 CALLDATASIZE LT PUSH1 0x32 JUMPI PUSH1 0x0 CALLDATALOAD PUSH1 0xE0 SHR DUP1 PUSH4 0x195E7892 EQ PUSH1 0x37 JUMPI DUP1 PUSH4 0x405EAE91 EQ PUSH1 0x3F JUMPI JUMPDEST PUSH1 0x0 DUP1 REVERT JUMPDEST PUSH1 0x3D PUSH1 0x59 JUMP JUMPDEST STOP JUMPDEST PUSH1 0x45 PUSH1 0x7C JUMP JUMPDEST PUSH1 0x40 MLOAD PUSH1 0x50 SWAP2 SWAP1 PUSH1 0xA6 JUMP JUMPDEST PUSH1 0x40 MLOAD DUP1 SWAP2 SUB SWAP1 RETURN JUMPDEST PUSH3 0x15F90 PUSH3 0x15180 EQ PUSH1 0x0 DUP1 PUSH2 0x100 EXP DUP2 SLOAD DUP2 PUSH1 0xFF MUL NOT AND SWAP1 DUP4 ISZERO ISZERO MUL OR SWAP1 SSTORE POP JUMP JUMPDEST PUSH1 0x0 DUP1 SLOAD SWAP1 PUSH2 0x100 EXP SWAP1 DIV PUSH1 0xFF AND DUP2 JUMP JUMPDEST PUSH1 0x0 DUP2 ISZERO ISZERO SWAP1 POP SWAP2 SWAP1 POP JUMP JUMPDEST PUSH1 0xA0 DUP2 PUSH1 0x8D JUMP JUMPDEST DUP3 MSTORE POP POP JUMP JUMPDEST PUSH1 0x0 PUSH1 0x20 DUP3 ADD SWAP1 POP PUSH1 0xB9 PUSH1 0x0 DUP4 ADD DUP5 PUSH1 0x99 JUMP JUMPDEST SWAP3 SWAP2 POP POP JUMP INVALID LOG2 PUSH5 0x6970667358 0x22 SLT KECCAK256 SLOAD BYTE 0x4F 0x2C ADDMOD LOG0 CODESIZE PUSH28 0xE4750CBE14BEC93608E7F65FB7270E8CA7CD4435C21FB72B64736F6C PUSH4 0x43000811 STOP CALLER "
				},
				"gasEstimates": {
					"creation": {
						"codeDepositCost": "49000",
						"executionCost": "24372",
						"totalCost": "73372"
					},
					"external": {
						"isTime()": "2468",
						"makefalse()": "24395"
					}
				},
				"methodIdentifiers": {
					"isTime()": "405eae91",
					"makefalse()": "195e7892"
				}
			},
			"storageLayout": {
				"storage": [
					{
						"astId": 7,
						"contract": "Solidity_Basics/SolSyntax.sol:SolSyntax",
						"label": "isTime",
						"offset": 0,
						"slot": "0",
						"type": "t_bool"
					}
				],
				"types": {
					"t_bool": {
						"encoding": "inplace",
						"label": "bool",
						"numberOfBytes": "1"
					}
				}
			},
			"userdoc": {
				"kind": "user",
				"methods": {},
				"version": 1
			}
		}
	}
}