{
	"Contracts/StorageFactory.sol": {
		"StorageFactory": {
			"abi": [
				{
					"inputs": [],
					"name": "simpleStorage",
					"outputs": [
						{
							"internalType": "contract SimpleStorage",
							"name": "",
							"type": "address"
						}
					],
					"stateMutability": "view",
					"type": "function"
				}
			],
			"devdoc": {
				"kind": "dev",
				"methods": {},
				"version": 1
			},
			"evm": {
				"assembly": "    /* \"Contracts/StorageFactory.sol\":99:167  contract StorageFactory{\r... */\n  mstore(0x40, 0x80)\n  callvalue\n  dup1\n  iszero\n  tag_1\n  jumpi\n  0x00\n  dup1\n  revert\ntag_1:\n  pop\n  dataSize(sub_0)\n  dup1\n  dataOffset(sub_0)\n  0x00\n  codecopy\n  0x00\n  return\nstop\n\nsub_0: assembly {\n        /* \"Contracts/StorageFactory.sol\":99:167  contract StorageFactory{\r... */\n      mstore(0x40, 0x80)\n      callvalue\n      dup1\n      iszero\n      tag_1\n      jumpi\n      0x00\n      dup1\n      revert\n    tag_1:\n      pop\n      jumpi(tag_2, lt(calldatasize, 0x04))\n      shr(0xe0, calldataload(0x00))\n      dup1\n      0x6be0d6bf\n      eq\n      tag_3\n      jumpi\n    tag_2:\n      0x00\n      dup1\n      revert\n        /* \"Contracts/StorageFactory.sol\":129:163  SimpleStorage public simpleStorage */\n    tag_3:\n      tag_4\n      tag_5\n      jump\t// in\n    tag_4:\n      mload(0x40)\n      tag_6\n      swap2\n      swap1\n      tag_7\n      jump\t// in\n    tag_6:\n      mload(0x40)\n      dup1\n      swap2\n      sub\n      swap1\n      return\n    tag_5:\n      0x00\n      dup1\n      sload\n      swap1\n      0x0100\n      exp\n      swap1\n      div\n      0xffffffffffffffffffffffffffffffffffffffff\n      and\n      dup2\n      jump\t// out\n        /* \"#utility.yul\":7:178   */\n    tag_9:\n        /* \"#utility.yul\":114:171   */\n      tag_11\n        /* \"#utility.yul\":165:170   */\n      dup2\n        /* \"#utility.yul\":114:171   */\n      tag_12\n      jump\t// in\n    tag_11:\n        /* \"#utility.yul\":109:112   */\n      dup3\n        /* \"#utility.yul\":102:172   */\n      mstore\n        /* \"#utility.yul\":7:178   */\n      pop\n      pop\n      jump\t// out\n        /* \"#utility.yul\":184:446   */\n    tag_7:\n        /* \"#utility.yul\":297:301   */\n      0x00\n        /* \"#utility.yul\":335:337   */\n      0x20\n        /* \"#utility.yul\":324:333   */\n      dup3\n        /* \"#utility.yul\":320:338   */\n      add\n        /* \"#utility.yul\":312:338   */\n      swap1\n      pop\n        /* \"#utility.yul\":348:439   */\n      tag_14\n        /* \"#utility.yul\":436:437   */\n      0x00\n        /* \"#utility.yul\":425:434   */\n      dup4\n        /* \"#utility.yul\":421:438   */\n      add\n        /* \"#utility.yul\":412:418   */\n      dup5\n        /* \"#utility.yul\":348:439   */\n      tag_9\n      jump\t// in\n    tag_14:\n        /* \"#utility.yul\":184:446   */\n      swap3\n      swap2\n      pop\n      pop\n      jump\t// out\n        /* \"#utility.yul\":452:578   */\n    tag_15:\n        /* \"#utility.yul\":489:496   */\n      0x00\n        /* \"#utility.yul\":529:571   */\n      0xffffffffffffffffffffffffffffffffffffffff\n        /* \"#utility.yul\":522:527   */\n      dup3\n        /* \"#utility.yul\":518:572   */\n      and\n        /* \"#utility.yul\":507:572   */\n      swap1\n      pop\n        /* \"#utility.yul\":452:578   */\n      swap2\n      swap1\n      pop\n      jump\t// out\n        /* \"#utility.yul\":584:730   */\n    tag_12:\n        /* \"#utility.yul\":654:663   */\n      0x00\n        /* \"#utility.yul\":687:724   */\n      tag_18\n        /* \"#utility.yul\":718:723   */\n      dup3\n        /* \"#utility.yul\":687:724   */\n      tag_19\n      jump\t// in\n    tag_18:\n        /* \"#utility.yul\":674:724   */\n      swap1\n      pop\n        /* \"#utility.yul\":584:730   */\n      swap2\n      swap1\n      pop\n      jump\t// out\n        /* \"#utility.yul\":736:862   */\n    tag_19:\n        /* \"#utility.yul\":786:795   */\n      0x00\n        /* \"#utility.yul\":819:856   */\n      tag_21\n        /* \"#utility.yul\":850:855   */\n      dup3\n        /* \"#utility.yul\":819:856   */\n      tag_22\n      jump\t// in\n    tag_21:\n        /* \"#utility.yul\":806:856   */\n      swap1\n      pop\n        /* \"#utility.yul\":736:862   */\n      swap2\n      swap1\n      pop\n      jump\t// out\n        /* \"#utility.yul\":868:981   */\n    tag_22:\n        /* \"#utility.yul\":918:927   */\n      0x00\n        /* \"#utility.yul\":951:975   */\n      tag_24\n        /* \"#utility.yul\":969:974   */\n      dup3\n        /* \"#utility.yul\":951:975   */\n      tag_15\n      jump\t// in\n    tag_24:\n        /* \"#utility.yul\":938:975   */\n      swap1\n      pop\n        /* \"#utility.yul\":868:981   */\n      swap2\n      swap1\n      pop\n      jump\t// out\n\n    auxdata: 0xa2646970667358221220a5edd0714b2a08f54498c1452d3aaa67f2f25c77db6ad2a33897ca05f845694764736f6c63430008070033\n}\n",
				"bytecode": {
					"linkReferences": {},
					"object": "608060405234801561001057600080fd5b50610117806100206000396000f3fe6080604052348015600f57600080fd5b506004361060285760003560e01c80636be0d6bf14602d575b600080fd5b60336047565b604051603e91906078565b60405180910390f35b60008054906101000a900473ffffffffffffffffffffffffffffffffffffffff1681565b60728160b1565b82525050565b6000602082019050608b6000830184606b565b92915050565b600073ffffffffffffffffffffffffffffffffffffffff82169050919050565b600060ba8260c1565b9050919050565b600060ca8260d1565b9050919050565b600060da826091565b905091905056fea2646970667358221220a5edd0714b2a08f54498c1452d3aaa67f2f25c77db6ad2a33897ca05f845694764736f6c63430008070033",
					"opcodes": "PUSH1 0x80 PUSH1 0x40 MSTORE CALLVALUE DUP1 ISZERO PUSH2 0x10 JUMPI PUSH1 0x0 DUP1 REVERT JUMPDEST POP PUSH2 0x117 DUP1 PUSH2 0x20 PUSH1 0x0 CODECOPY PUSH1 0x0 RETURN INVALID PUSH1 0x80 PUSH1 0x40 MSTORE CALLVALUE DUP1 ISZERO PUSH1 0xF JUMPI PUSH1 0x0 DUP1 REVERT JUMPDEST POP PUSH1 0x4 CALLDATASIZE LT PUSH1 0x28 JUMPI PUSH1 0x0 CALLDATALOAD PUSH1 0xE0 SHR DUP1 PUSH4 0x6BE0D6BF EQ PUSH1 0x2D JUMPI JUMPDEST PUSH1 0x0 DUP1 REVERT JUMPDEST PUSH1 0x33 PUSH1 0x47 JUMP JUMPDEST PUSH1 0x40 MLOAD PUSH1 0x3E SWAP2 SWAP1 PUSH1 0x78 JUMP JUMPDEST PUSH1 0x40 MLOAD DUP1 SWAP2 SUB SWAP1 RETURN JUMPDEST PUSH1 0x0 DUP1 SLOAD SWAP1 PUSH2 0x100 EXP SWAP1 DIV PUSH20 0xFFFFFFFFFFFFFFFFFFFFFFFFFFFFFFFFFFFFFFFF AND DUP2 JUMP JUMPDEST PUSH1 0x72 DUP2 PUSH1 0xB1 JUMP JUMPDEST DUP3 MSTORE POP POP JUMP JUMPDEST PUSH1 0x0 PUSH1 0x20 DUP3 ADD SWAP1 POP PUSH1 0x8B PUSH1 0x0 DUP4 ADD DUP5 PUSH1 0x6B JUMP JUMPDEST SWAP3 SWAP2 POP POP JUMP JUMPDEST PUSH1 0x0 PUSH20 0xFFFFFFFFFFFFFFFFFFFFFFFFFFFFFFFFFFFFFFFF DUP3 AND SWAP1 POP SWAP2 SWAP1 POP JUMP JUMPDEST PUSH1 0x0 PUSH1 0xBA DUP3 PUSH1 0xC1 JUMP JUMPDEST SWAP1 POP SWAP2 SWAP1 POP JUMP JUMPDEST PUSH1 0x0 PUSH1 0xCA DUP3 PUSH1 0xD1 JUMP JUMPDEST SWAP1 POP SWAP2 SWAP1 POP JUMP JUMPDEST PUSH1 0x0 PUSH1 0xDA DUP3 PUSH1 0x91 JUMP JUMPDEST SWAP1 POP SWAP2 SWAP1 POP JUMP INVALID LOG2 PUSH5 0x6970667358 0x22 SLT KECCAK256 0xA5 0xED 0xD0 PUSH18 0x4B2A08F54498C1452D3AAA67F2F25C77DB6A 0xD2 LOG3 CODESIZE SWAP8 0xCA SDIV 0xF8 GASLIMIT PUSH10 0x4764736F6C6343000807 STOP CALLER "
				},
				"gasEstimates": {
					"creation": {
						"codeDepositCost": "55800",
						"executionCost": "105",
						"totalCost": "55905"
					},
					"external": {
						"simpleStorage()": "2575"
					}
				},
				"methodIdentifiers": {
					"simpleStorage()": "6be0d6bf"
				}
			},
			"storageLayout": {
				"storage": [
					{
						"astId": 64,
						"contract": "Contracts/StorageFactory.sol:StorageFactory",
						"label": "simpleStorage",
						"offset": 0,
						"slot": "0",
						"type": "t_contract(SimpleStorage)58"
					}
				],
				"types": {
					"t_contract(SimpleStorage)58": {
						"encoding": "inplace",
						"label": "contract SimpleStorage",
						"numberOfBytes": "20"
					}
				}
			},
			"userdoc": {
				"kind": "user",
				"methods": {},
				"version": 1
			}
		}
	}
}