{
	"Contracts/StorageFactory.sol": {
		"StorageFactory": {
			"abi": [
				{
					"inputs": [],
					"name": "createSimpleStorage",
					"outputs": [],
					"stateMutability": "nonpayable",
					"type": "function"
				},
				{
					"inputs": [
						{
							"internalType": "uint256",
							"name": "_rollNo",
							"type": "uint256"
						},
						{
							"internalType": "string",
							"name": "_name",
							"type": "string"
						}
					],
					"name": "sfAddStudent",
					"outputs": [],
					"stateMutability": "nonpayable",
					"type": "function"
				},
				{
					"inputs": [
						{
							"internalType": "uint256",
							"name": "_index",
							"type": "uint256"
						}
					],
					"name": "sfGetFavouriteNo",
					"outputs": [
						{
							"internalType": "uint256",
							"name": "",
							"type": "uint256"
						}
					],
					"stateMutability": "view",
					"type": "function"
				},
				{
					"inputs": [
						{
							"internalType": "uint256",
							"name": "_index",
							"type": "uint256"
						},
						{
							"internalType": "uint256",
							"name": "_rollNo",
							"type": "uint256"
						}
					],
					"name": "sfGetStudent",
					"outputs": [
						{
							"internalType": "string",
							"name": "",
							"type": "string"
						}
					],
					"stateMutability": "view",
					"type": "function"
				},
				{
					"inputs": [
						{
							"internalType": "uint256",
							"name": "_favouriteNumber",
							"type": "uint256"
						}
					],
					"name": "sfStore",
					"outputs": [],
					"stateMutability": "nonpayable",
					"type": "function"
				},
				{
					"inputs": [],
					"name": "simpleStorage",
					"outputs": [
						{
							"internalType": "contract SimpleStorage",
							"name": "",
							"type": "address"
						}
					],
					"stateMutability": "view",
					"type": "function"
				},
				{
					"inputs": [
						{
							"internalType": "uint256",
							"name": "",
							"type": "uint256"
						}
					],
					"name": "simpleStorageArray",
					"outputs": [
						{
							"internalType": "contract SimpleStorage",
							"name": "",
							"type": "address"
						}
					],
					"stateMutability": "view",
					"type": "function"
				}
			],
			"devdoc": {
				"kind": "dev",
				"methods": {},
				"version": 1
			},
			"evm": {
				"assembly": "    /* \"Contracts/StorageFactory.sol\":99:920  contract StorageFactory{\r... */\n  mstore(0x40, 0x80)\n  callvalue\n  dup1\n  iszero\n  tag_1\n  jumpi\n  0x00\n  dup1\n  revert\ntag_1:\n  pop\n  dataSize(sub_0)\n  dup1\n  dataOffset(sub_0)\n  0x00\n  codecopy\n  0x00\n  return\nstop\n\nsub_0: assembly {\n        /* \"Contracts/StorageFactory.sol\":99:920  contract StorageFactory{\r... */\n      mstore(0x40, 0x80)\n      callvalue\n      dup1\n      iszero\n      tag_1\n      jumpi\n      0x00\n      dup1\n      revert\n    tag_1:\n      pop\n      jumpi(tag_2, lt(calldatasize, 0x04))\n      shr(0xe0, calldataload(0x00))\n      dup1\n      0x6be0d6bf\n      gt\n      tag_10\n      jumpi\n      dup1\n      0x6be0d6bf\n      eq\n      tag_6\n      jumpi\n      dup1\n      0x7574ede8\n      eq\n      tag_7\n      jumpi\n      dup1\n      0x83eab6a2\n      eq\n      tag_8\n      jumpi\n      dup1\n      0xdeae2adc\n      eq\n      tag_9\n      jumpi\n      jump(tag_2)\n    tag_10:\n      dup1\n      0x40d66b3b\n      eq\n      tag_3\n      jumpi\n      dup1\n      0x4bffb6be\n      eq\n      tag_4\n      jumpi\n      dup1\n      0x64591bf1\n      eq\n      tag_5\n      jumpi\n    tag_2:\n      0x00\n      dup1\n      revert\n        /* \"Contracts/StorageFactory.sol\":220:361  function createSimpleStorage() public {\r... */\n    tag_3:\n      tag_11\n      tag_12\n      jump\t// in\n    tag_11:\n      stop\n        /* \"Contracts/StorageFactory.sol\":783:917  function sfGetFavouriteNo(uint256 _index) public view returns(uint256) {\r... */\n    tag_4:\n      tag_13\n      0x04\n      dup1\n      calldatasize\n      sub\n      dup2\n      add\n      swap1\n      tag_14\n      swap2\n      swap1\n      tag_15\n      jump\t// in\n    tag_14:\n      tag_16\n      jump\t// in\n    tag_13:\n      mload(0x40)\n      tag_17\n      swap2\n      swap1\n      tag_18\n      jump\t// in\n    tag_17:\n      mload(0x40)\n      dup1\n      swap2\n      sub\n      swap1\n      return\n        /* \"Contracts/StorageFactory.sol\":170:211  SimpleStorage[] public simpleStorageArray */\n    tag_5:\n      tag_19\n      0x04\n      dup1\n      calldatasize\n      sub\n      dup2\n      add\n      swap1\n      tag_20\n      swap2\n      swap1\n      tag_15\n      jump\t// in\n    tag_20:\n      tag_21\n      jump\t// in\n    tag_19:\n      mload(0x40)\n      tag_22\n      swap2\n      swap1\n      tag_23\n      jump\t// in\n    tag_22:\n      mload(0x40)\n      dup1\n      swap2\n      sub\n      swap1\n      return\n        /* \"Contracts/StorageFactory.sol\":129:163  SimpleStorage public simpleStorage */\n    tag_6:\n      tag_24\n      tag_25\n      jump\t// in\n    tag_24:\n      mload(0x40)\n      tag_26\n      swap2\n      swap1\n      tag_23\n      jump\t// in\n    tag_26:\n      mload(0x40)\n      dup1\n      swap2\n      sub\n      swap1\n      return\n        /* \"Contracts/StorageFactory.sol\":369:494  function sfAddStudent(uint256 _rollNo, string memory _name) public{\r... */\n    tag_7:\n      tag_27\n      0x04\n      dup1\n      calldatasize\n      sub\n      dup2\n      add\n      swap1\n      tag_28\n      swap2\n      swap1\n      tag_29\n      jump\t// in\n    tag_28:\n      tag_30\n      jump\t// in\n    tag_27:\n      stop\n        /* \"Contracts/StorageFactory.sol\":669:775  function sfStore(uint256 _favouriteNumber) public {\r... */\n    tag_8:\n      tag_31\n      0x04\n      dup1\n      calldatasize\n      sub\n      dup2\n      add\n      swap1\n      tag_32\n      swap2\n      swap1\n      tag_15\n      jump\t// in\n    tag_32:\n      tag_33\n      jump\t// in\n    tag_31:\n      stop\n        /* \"Contracts/StorageFactory.sol\":500:661  function sfGetStudent(uint256 _index, uint256 _rollNo) public view returns(string memory){\r... */\n    tag_9:\n      tag_34\n      0x04\n      dup1\n      calldatasize\n      sub\n      dup2\n      add\n      swap1\n      tag_35\n      swap2\n      swap1\n      tag_36\n      jump\t// in\n    tag_35:\n      tag_37\n      jump\t// in\n    tag_34:\n      mload(0x40)\n      tag_38\n      swap2\n      swap1\n      tag_39\n      jump\t// in\n    tag_38:\n      mload(0x40)\n      dup1\n      swap2\n      sub\n      swap1\n      return\n        /* \"Contracts/StorageFactory.sol\":220:361  function createSimpleStorage() public {\r... */\n    tag_12:\n        /* \"Contracts/StorageFactory.sol\":285:304  new SimpleStorage() */\n      mload(0x40)\n      tag_41\n      swap1\n      tag_42\n      jump\t// in\n    tag_41:\n      mload(0x40)\n      dup1\n      swap2\n      sub\n      swap1\n      0x00\n      create\n      dup1\n      iszero\n      dup1\n      iszero\n      tag_43\n      jumpi\n      returndatasize\n      0x00\n      dup1\n      returndatacopy\n      revert(0x00, returndatasize)\n    tag_43:\n      pop\n        /* \"Contracts/StorageFactory.sol\":269:282  simpleStorage */\n      0x00\n      dup1\n        /* \"Contracts/StorageFactory.sol\":269:304  simpleStorage = new SimpleStorage() */\n      0x0100\n      exp\n      dup2\n      sload\n      dup2\n      0xffffffffffffffffffffffffffffffffffffffff\n      mul\n      not\n      and\n      swap1\n      dup4\n      0xffffffffffffffffffffffffffffffffffffffff\n      and\n      mul\n      or\n      swap1\n      sstore\n      pop\n        /* \"Contracts/StorageFactory.sol\":315:333  simpleStorageArray */\n      0x01\n        /* \"Contracts/StorageFactory.sol\":339:352  simpleStorage */\n      0x00\n      dup1\n      sload\n      swap1\n      0x0100\n      exp\n      swap1\n      div\n      0xffffffffffffffffffffffffffffffffffffffff\n      and\n        /* \"Contracts/StorageFactory.sol\":315:353  simpleStorageArray.push(simpleStorage) */\n      swap1\n      dup1\n      0x01\n      dup2\n      sload\n      add\n      dup1\n      dup3\n      sstore\n      dup1\n      swap2\n      pop\n      pop\n      0x01\n      swap1\n      sub\n      swap1\n      0x00\n      mstore\n      keccak256(0x00, 0x20)\n      add\n      0x00\n      swap1\n      swap2\n      swap1\n      swap2\n      swap1\n      swap2\n      0x0100\n      exp\n      dup2\n      sload\n      dup2\n      0xffffffffffffffffffffffffffffffffffffffff\n      mul\n      not\n      and\n      swap1\n      dup4\n      0xffffffffffffffffffffffffffffffffffffffff\n      and\n      mul\n      or\n      swap1\n      sstore\n      pop\n        /* \"Contracts/StorageFactory.sol\":220:361  function createSimpleStorage() public {\r... */\n      jump\t// out\n        /* \"Contracts/StorageFactory.sol\":783:917  function sfGetFavouriteNo(uint256 _index) public view returns(uint256) {\r... */\n    tag_16:\n        /* \"Contracts/StorageFactory.sol\":845:852  uint256 */\n      0x00\n        /* \"Contracts/StorageFactory.sol\":872:890  simpleStorageArray */\n      0x01\n        /* \"Contracts/StorageFactory.sol\":891:897  _index */\n      dup3\n        /* \"Contracts/StorageFactory.sol\":872:898  simpleStorageArray[_index] */\n      dup2\n      sload\n      dup2\n      lt\n      tag_46\n      jumpi\n      tag_47\n      tag_48\n      jump\t// in\n    tag_47:\n    tag_46:\n      swap1\n      0x00\n      mstore\n      keccak256(0x00, 0x20)\n      add\n      0x00\n      swap1\n      sload\n      swap1\n      0x0100\n      exp\n      swap1\n      div\n      0xffffffffffffffffffffffffffffffffffffffff\n      and\n        /* \"Contracts/StorageFactory.sol\":872:907  simpleStorageArray[_index].retrieve */\n      0xffffffffffffffffffffffffffffffffffffffff\n      and\n      0x2e64cec1\n        /* \"Contracts/StorageFactory.sol\":872:909  simpleStorageArray[_index].retrieve() */\n      mload(0x40)\n      dup2\n      0xffffffff\n      and\n      0xe0\n      shl\n      dup2\n      mstore\n      0x04\n      add\n      0x20\n      mload(0x40)\n      dup1\n      dup4\n      sub\n      dup2\n      dup7\n      dup1\n      extcodesize\n      iszero\n      dup1\n      iszero\n      tag_50\n      jumpi\n      0x00\n      dup1\n      revert\n    tag_50:\n      pop\n      gas\n      staticcall\n      iszero\n      dup1\n      iszero\n      tag_52\n      jumpi\n      returndatasize\n      0x00\n      dup1\n      returndatacopy\n      revert(0x00, returndatasize)\n    tag_52:\n      pop\n      pop\n      pop\n      pop\n      mload(0x40)\n      returndatasize\n      not(0x1f)\n      0x1f\n      dup3\n      add\n      and\n      dup3\n      add\n      dup1\n      0x40\n      mstore\n      pop\n      dup2\n      add\n      swap1\n      tag_53\n      swap2\n      swap1\n      tag_54\n      jump\t// in\n    tag_53:\n        /* \"Contracts/StorageFactory.sol\":865:909  return simpleStorageArray[_index].retrieve() */\n      swap1\n      pop\n        /* \"Contracts/StorageFactory.sol\":783:917  function sfGetFavouriteNo(uint256 _index) public view returns(uint256) {\r... */\n      swap2\n      swap1\n      pop\n      jump\t// out\n        /* \"Contracts/StorageFactory.sol\":170:211  SimpleStorage[] public simpleStorageArray */\n    tag_21:\n      0x01\n      dup2\n      dup2\n      sload\n      dup2\n      lt\n      tag_55\n      jumpi\n      0x00\n      dup1\n      revert\n    tag_55:\n      swap1\n      0x00\n      mstore\n      keccak256(0x00, 0x20)\n      add\n      0x00\n      swap2\n      pop\n      sload\n      swap1\n      0x0100\n      exp\n      swap1\n      div\n      0xffffffffffffffffffffffffffffffffffffffff\n      and\n      dup2\n      jump\t// out\n        /* \"Contracts/StorageFactory.sol\":129:163  SimpleStorage public simpleStorage */\n    tag_25:\n      0x00\n      dup1\n      sload\n      swap1\n      0x0100\n      exp\n      swap1\n      div\n      0xffffffffffffffffffffffffffffffffffffffff\n      and\n      dup2\n      jump\t// out\n        /* \"Contracts/StorageFactory.sol\":369:494  function sfAddStudent(uint256 _rollNo, string memory _name) public{\r... */\n    tag_30:\n        /* \"Contracts/StorageFactory.sol\":446:459  simpleStorage */\n      0x00\n      dup1\n      sload\n      swap1\n      0x0100\n      exp\n      swap1\n      div\n      0xffffffffffffffffffffffffffffffffffffffff\n      and\n        /* \"Contracts/StorageFactory.sol\":446:470  simpleStorage.addStudent */\n      0xffffffffffffffffffffffffffffffffffffffff\n      and\n      0x0e5eeef7\n        /* \"Contracts/StorageFactory.sol\":471:476  _name */\n      dup3\n        /* \"Contracts/StorageFactory.sol\":478:485  _rollNo */\n      dup5\n        /* \"Contracts/StorageFactory.sol\":446:486  simpleStorage.addStudent(_name, _rollNo) */\n      mload(0x40)\n      dup4\n      0xffffffff\n      and\n      0xe0\n      shl\n      dup2\n      mstore\n      0x04\n      add\n      tag_58\n      swap3\n      swap2\n      swap1\n      tag_59\n      jump\t// in\n    tag_58:\n      0x00\n      mload(0x40)\n      dup1\n      dup4\n      sub\n      dup2\n      0x00\n      dup8\n      dup1\n      extcodesize\n      iszero\n      dup1\n      iszero\n      tag_60\n      jumpi\n      0x00\n      dup1\n      revert\n    tag_60:\n      pop\n      gas\n      call\n      iszero\n      dup1\n      iszero\n      tag_62\n      jumpi\n      returndatasize\n      0x00\n      dup1\n      returndatacopy\n      revert(0x00, returndatasize)\n    tag_62:\n      pop\n      pop\n      pop\n      pop\n        /* \"Contracts/StorageFactory.sol\":369:494  function sfAddStudent(uint256 _rollNo, string memory _name) public{\r... */\n      pop\n      pop\n      jump\t// out\n        /* \"Contracts/StorageFactory.sol\":669:775  function sfStore(uint256 _favouriteNumber) public {\r... */\n    tag_33:\n        /* \"Contracts/StorageFactory.sol\":730:743  simpleStorage */\n      0x00\n      dup1\n      sload\n      swap1\n      0x0100\n      exp\n      swap1\n      div\n      0xffffffffffffffffffffffffffffffffffffffff\n      and\n        /* \"Contracts/StorageFactory.sol\":730:749  simpleStorage.store */\n      0xffffffffffffffffffffffffffffffffffffffff\n      and\n      0x6057361d\n        /* \"Contracts/StorageFactory.sol\":750:766  _favouriteNumber */\n      dup3\n        /* \"Contracts/StorageFactory.sol\":730:767  simpleStorage.store(_favouriteNumber) */\n      mload(0x40)\n      dup3\n      0xffffffff\n      and\n      0xe0\n      shl\n      dup2\n      mstore\n      0x04\n      add\n      tag_64\n      swap2\n      swap1\n      tag_18\n      jump\t// in\n    tag_64:\n      0x00\n      mload(0x40)\n      dup1\n      dup4\n      sub\n      dup2\n      0x00\n      dup8\n      dup1\n      extcodesize\n      iszero\n      dup1\n      iszero\n      tag_65\n      jumpi\n      0x00\n      dup1\n      revert\n    tag_65:\n      pop\n      gas\n      call\n      iszero\n      dup1\n      iszero\n      tag_67\n      jumpi\n      returndatasize\n      0x00\n      dup1\n      returndatacopy\n      revert(0x00, returndatasize)\n    tag_67:\n      pop\n      pop\n      pop\n      pop\n        /* \"Contracts/StorageFactory.sol\":669:775  function sfStore(uint256 _favouriteNumber) public {\r... */\n      pop\n      jump\t// out\n        /* \"Contracts/StorageFactory.sol\":500:661  function sfGetStudent(uint256 _index, uint256 _rollNo) public view returns(string memory){\r... */\n    tag_37:\n        /* \"Contracts/StorageFactory.sol\":575:588  string memory */\n      0x60\n        /* \"Contracts/StorageFactory.sol\":607:625  simpleStorageArray */\n      0x01\n        /* \"Contracts/StorageFactory.sol\":626:632  _index */\n      dup4\n        /* \"Contracts/StorageFactory.sol\":607:633  simpleStorageArray[_index] */\n      dup2\n      sload\n      dup2\n      lt\n      tag_69\n      jumpi\n      tag_70\n      tag_48\n      jump\t// in\n    tag_70:\n    tag_69:\n      swap1\n      0x00\n      mstore\n      keccak256(0x00, 0x20)\n      add\n      0x00\n      swap1\n      sload\n      swap1\n      0x0100\n      exp\n      swap1\n      div\n      0xffffffffffffffffffffffffffffffffffffffff\n      and\n        /* \"Contracts/StorageFactory.sol\":607:644  simpleStorageArray[_index].getStudent */\n      0xffffffffffffffffffffffffffffffffffffffff\n      and\n      0x642f9163\n        /* \"Contracts/StorageFactory.sol\":645:652  _rollNo */\n      dup4\n        /* \"Contracts/StorageFactory.sol\":607:653  simpleStorageArray[_index].getStudent(_rollNo) */\n      mload(0x40)\n      dup3\n      0xffffffff\n      and\n      0xe0\n      shl\n      dup2\n      mstore\n      0x04\n      add\n      tag_72\n      swap2\n      swap1\n      tag_18\n      jump\t// in\n    tag_72:\n      0x00\n      mload(0x40)\n      dup1\n      dup4\n      sub\n      dup2\n      dup7\n      dup1\n      extcodesize\n      iszero\n      dup1\n      iszero\n      tag_73\n      jumpi\n      0x00\n      dup1\n      revert\n    tag_73:\n      pop\n      gas\n      staticcall\n      iszero\n      dup1\n      iszero\n      tag_75\n      jumpi\n      returndatasize\n      0x00\n      dup1\n      returndatacopy\n      revert(0x00, returndatasize)\n    tag_75:\n      pop\n      pop\n      pop\n      pop\n      mload(0x40)\n      returndatasize\n      0x00\n      dup3\n      returndatacopy\n      returndatasize\n      not(0x1f)\n      0x1f\n      dup3\n      add\n      and\n      dup3\n      add\n      dup1\n      0x40\n      mstore\n      pop\n      dup2\n      add\n      swap1\n      tag_76\n      swap2\n      swap1\n      tag_77\n      jump\t// in\n    tag_76:\n        /* \"Contracts/StorageFactory.sol\":600:653  return simpleStorageArray[_index].getStudent(_rollNo) */\n      swap1\n      pop\n        /* \"Contracts/StorageFactory.sol\":500:661  function sfGetStudent(uint256 _index, uint256 _rollNo) public view returns(string memory){\r... */\n      swap3\n      swap2\n      pop\n      pop\n      jump\t// out\n    tag_42:\n      dataSize(sub_0)\n      dup1\n      dataOffset(sub_0)\n      dup4\n      codecopy\n      add\n      swap1\n      jump\t// out\n        /* \"#utility.yul\":7:419   */\n    tag_79:\n        /* \"#utility.yul\":85:90   */\n      0x00\n        /* \"#utility.yul\":110:176   */\n      tag_81\n        /* \"#utility.yul\":126:175   */\n      tag_82\n        /* \"#utility.yul\":168:174   */\n      dup5\n        /* \"#utility.yul\":126:175   */\n      tag_83\n      jump\t// in\n    tag_82:\n        /* \"#utility.yul\":110:176   */\n      tag_84\n      jump\t// in\n    tag_81:\n        /* \"#utility.yul\":101:176   */\n      swap1\n      pop\n        /* \"#utility.yul\":199:205   */\n      dup3\n        /* \"#utility.yul\":192:197   */\n      dup2\n        /* \"#utility.yul\":185:206   */\n      mstore\n        /* \"#utility.yul\":237:241   */\n      0x20\n        /* \"#utility.yul\":230:235   */\n      dup2\n        /* \"#utility.yul\":226:242   */\n      add\n        /* \"#utility.yul\":275:278   */\n      dup5\n        /* \"#utility.yul\":266:272   */\n      dup5\n        /* \"#utility.yul\":261:264   */\n      dup5\n        /* \"#utility.yul\":257:273   */\n      add\n        /* \"#utility.yul\":254:279   */\n      gt\n        /* \"#utility.yul\":251:363   */\n      iszero\n      tag_85\n      jumpi\n        /* \"#utility.yul\":282:361   */\n      tag_86\n      tag_87\n      jump\t// in\n    tag_86:\n        /* \"#utility.yul\":251:363   */\n    tag_85:\n        /* \"#utility.yul\":372:413   */\n      tag_88\n        /* \"#utility.yul\":406:412   */\n      dup5\n        /* \"#utility.yul\":401:404   */\n      dup3\n        /* \"#utility.yul\":396:399   */\n      dup6\n        /* \"#utility.yul\":372:413   */\n      tag_89\n      jump\t// in\n    tag_88:\n        /* \"#utility.yul\":91:419   */\n      pop\n        /* \"#utility.yul\":7:419   */\n      swap4\n      swap3\n      pop\n      pop\n      pop\n      jump\t// out\n        /* \"#utility.yul\":425:846   */\n    tag_90:\n        /* \"#utility.yul\":514:519   */\n      0x00\n        /* \"#utility.yul\":539:605   */\n      tag_92\n        /* \"#utility.yul\":555:604   */\n      tag_93\n        /* \"#utility.yul\":597:603   */\n      dup5\n        /* \"#utility.yul\":555:604   */\n      tag_83\n      jump\t// in\n    tag_93:\n        /* \"#utility.yul\":539:605   */\n      tag_84\n      jump\t// in\n    tag_92:\n        /* \"#utility.yul\":530:605   */\n      swap1\n      pop\n        /* \"#utility.yul\":628:634   */\n      dup3\n        /* \"#utility.yul\":621:626   */\n      dup2\n        /* \"#utility.yul\":614:635   */\n      mstore\n        /* \"#utility.yul\":666:670   */\n      0x20\n        /* \"#utility.yul\":659:664   */\n      dup2\n        /* \"#utility.yul\":655:671   */\n      add\n        /* \"#utility.yul\":704:707   */\n      dup5\n        /* \"#utility.yul\":695:701   */\n      dup5\n        /* \"#utility.yul\":690:693   */\n      dup5\n        /* \"#utility.yul\":686:702   */\n      add\n        /* \"#utility.yul\":683:708   */\n      gt\n        /* \"#utility.yul\":680:792   */\n      iszero\n      tag_94\n      jumpi\n        /* \"#utility.yul\":711:790   */\n      tag_95\n      tag_87\n      jump\t// in\n    tag_95:\n        /* \"#utility.yul\":680:792   */\n    tag_94:\n        /* \"#utility.yul\":801:840   */\n      tag_96\n        /* \"#utility.yul\":833:839   */\n      dup5\n        /* \"#utility.yul\":828:831   */\n      dup3\n        /* \"#utility.yul\":823:826   */\n      dup6\n        /* \"#utility.yul\":801:840   */\n      tag_97\n      jump\t// in\n    tag_96:\n        /* \"#utility.yul\":520:846   */\n      pop\n        /* \"#utility.yul\":425:846   */\n      swap4\n      swap3\n      pop\n      pop\n      pop\n      jump\t// out\n        /* \"#utility.yul\":866:1206   */\n    tag_98:\n        /* \"#utility.yul\":922:927   */\n      0x00\n        /* \"#utility.yul\":971:974   */\n      dup3\n        /* \"#utility.yul\":964:968   */\n      0x1f\n        /* \"#utility.yul\":956:962   */\n      dup4\n        /* \"#utility.yul\":952:969   */\n      add\n        /* \"#utility.yul\":948:975   */\n      slt\n        /* \"#utility.yul\":938:1060   */\n      tag_100\n      jumpi\n        /* \"#utility.yul\":979:1058   */\n      tag_101\n      tag_102\n      jump\t// in\n    tag_101:\n        /* \"#utility.yul\":938:1060   */\n    tag_100:\n        /* \"#utility.yul\":1096:1102   */\n      dup2\n        /* \"#utility.yul\":1083:1103   */\n      calldataload\n        /* \"#utility.yul\":1121:1200   */\n      tag_103\n        /* \"#utility.yul\":1196:1199   */\n      dup5\n        /* \"#utility.yul\":1188:1194   */\n      dup3\n        /* \"#utility.yul\":1181:1185   */\n      0x20\n        /* \"#utility.yul\":1173:1179   */\n      dup7\n        /* \"#utility.yul\":1169:1186   */\n      add\n        /* \"#utility.yul\":1121:1200   */\n      tag_79\n      jump\t// in\n    tag_103:\n        /* \"#utility.yul\":1112:1200   */\n      swap2\n      pop\n        /* \"#utility.yul\":928:1206   */\n      pop\n        /* \"#utility.yul\":866:1206   */\n      swap3\n      swap2\n      pop\n      pop\n      jump\t// out\n        /* \"#utility.yul\":1226:1581   */\n    tag_104:\n        /* \"#utility.yul\":1293:1298   */\n      0x00\n        /* \"#utility.yul\":1342:1345   */\n      dup3\n        /* \"#utility.yul\":1335:1339   */\n      0x1f\n        /* \"#utility.yul\":1327:1333   */\n      dup4\n        /* \"#utility.yul\":1323:1340   */\n      add\n        /* \"#utility.yul\":1319:1346   */\n      slt\n        /* \"#utility.yul\":1309:1431   */\n      tag_106\n      jumpi\n        /* \"#utility.yul\":1350:1429   */\n      tag_107\n      tag_102\n      jump\t// in\n    tag_107:\n        /* \"#utility.yul\":1309:1431   */\n    tag_106:\n        /* \"#utility.yul\":1460:1466   */\n      dup2\n        /* \"#utility.yul\":1454:1467   */\n      mload\n        /* \"#utility.yul\":1485:1575   */\n      tag_108\n        /* \"#utility.yul\":1571:1574   */\n      dup5\n        /* \"#utility.yul\":1563:1569   */\n      dup3\n        /* \"#utility.yul\":1556:1560   */\n      0x20\n        /* \"#utility.yul\":1548:1554   */\n      dup7\n        /* \"#utility.yul\":1544:1561   */\n      add\n        /* \"#utility.yul\":1485:1575   */\n      tag_90\n      jump\t// in\n    tag_108:\n        /* \"#utility.yul\":1476:1575   */\n      swap2\n      pop\n        /* \"#utility.yul\":1299:1581   */\n      pop\n        /* \"#utility.yul\":1226:1581   */\n      swap3\n      swap2\n      pop\n      pop\n      jump\t// out\n        /* \"#utility.yul\":1587:1726   */\n    tag_109:\n        /* \"#utility.yul\":1633:1638   */\n      0x00\n        /* \"#utility.yul\":1671:1677   */\n      dup2\n        /* \"#utility.yul\":1658:1678   */\n      calldataload\n        /* \"#utility.yul\":1649:1678   */\n      swap1\n      pop\n        /* \"#utility.yul\":1687:1720   */\n      tag_111\n        /* \"#utility.yul\":1714:1719   */\n      dup2\n        /* \"#utility.yul\":1687:1720   */\n      tag_112\n      jump\t// in\n    tag_111:\n        /* \"#utility.yul\":1587:1726   */\n      swap3\n      swap2\n      pop\n      pop\n      jump\t// out\n        /* \"#utility.yul\":1732:1875   */\n    tag_113:\n        /* \"#utility.yul\":1789:1794   */\n      0x00\n        /* \"#utility.yul\":1820:1826   */\n      dup2\n        /* \"#utility.yul\":1814:1827   */\n      mload\n        /* \"#utility.yul\":1805:1827   */\n      swap1\n      pop\n        /* \"#utility.yul\":1836:1869   */\n      tag_115\n        /* \"#utility.yul\":1863:1868   */\n      dup2\n        /* \"#utility.yul\":1836:1869   */\n      tag_112\n      jump\t// in\n    tag_115:\n        /* \"#utility.yul\":1732:1875   */\n      swap3\n      swap2\n      pop\n      pop\n      jump\t// out\n        /* \"#utility.yul\":1881:2405   */\n    tag_77:\n        /* \"#utility.yul\":1961:1967   */\n      0x00\n        /* \"#utility.yul\":2010:2012   */\n      0x20\n        /* \"#utility.yul\":1998:2007   */\n      dup3\n        /* \"#utility.yul\":1989:1996   */\n      dup5\n        /* \"#utility.yul\":1985:2008   */\n      sub\n        /* \"#utility.yul\":1981:2013   */\n      slt\n        /* \"#utility.yul\":1978:2097   */\n      iszero\n      tag_117\n      jumpi\n        /* \"#utility.yul\":2016:2095   */\n      tag_118\n      tag_119\n      jump\t// in\n    tag_118:\n        /* \"#utility.yul\":1978:2097   */\n    tag_117:\n        /* \"#utility.yul\":2157:2158   */\n      0x00\n        /* \"#utility.yul\":2146:2155   */\n      dup3\n        /* \"#utility.yul\":2142:2159   */\n      add\n        /* \"#utility.yul\":2136:2160   */\n      mload\n        /* \"#utility.yul\":2187:2205   */\n      0xffffffffffffffff\n        /* \"#utility.yul\":2179:2185   */\n      dup2\n        /* \"#utility.yul\":2176:2206   */\n      gt\n        /* \"#utility.yul\":2173:2290   */\n      iszero\n      tag_120\n      jumpi\n        /* \"#utility.yul\":2209:2288   */\n      tag_121\n      tag_122\n      jump\t// in\n    tag_121:\n        /* \"#utility.yul\":2173:2290   */\n    tag_120:\n        /* \"#utility.yul\":2314:2388   */\n      tag_123\n        /* \"#utility.yul\":2380:2387   */\n      dup5\n        /* \"#utility.yul\":2371:2377   */\n      dup3\n        /* \"#utility.yul\":2360:2369   */\n      dup6\n        /* \"#utility.yul\":2356:2378   */\n      add\n        /* \"#utility.yul\":2314:2388   */\n      tag_104\n      jump\t// in\n    tag_123:\n        /* \"#utility.yul\":2304:2388   */\n      swap2\n      pop\n        /* \"#utility.yul\":2107:2398   */\n      pop\n        /* \"#utility.yul\":1881:2405   */\n      swap3\n      swap2\n      pop\n      pop\n      jump\t// out\n        /* \"#utility.yul\":2411:2740   */\n    tag_15:\n        /* \"#utility.yul\":2470:2476   */\n      0x00\n        /* \"#utility.yul\":2519:2521   */\n      0x20\n        /* \"#utility.yul\":2507:2516   */\n      dup3\n        /* \"#utility.yul\":2498:2505   */\n      dup5\n        /* \"#utility.yul\":2494:2517   */\n      sub\n        /* \"#utility.yul\":2490:2522   */\n      slt\n        /* \"#utility.yul\":2487:2606   */\n      iszero\n      tag_125\n      jumpi\n        /* \"#utility.yul\":2525:2604   */\n      tag_126\n      tag_119\n      jump\t// in\n    tag_126:\n        /* \"#utility.yul\":2487:2606   */\n    tag_125:\n        /* \"#utility.yul\":2645:2646   */\n      0x00\n        /* \"#utility.yul\":2670:2723   */\n      tag_127\n        /* \"#utility.yul\":2715:2722   */\n      dup5\n        /* \"#utility.yul\":2706:2712   */\n      dup3\n        /* \"#utility.yul\":2695:2704   */\n      dup6\n        /* \"#utility.yul\":2691:2713   */\n      add\n        /* \"#utility.yul\":2670:2723   */\n      tag_109\n      jump\t// in\n    tag_127:\n        /* \"#utility.yul\":2660:2723   */\n      swap2\n      pop\n        /* \"#utility.yul\":2616:2733   */\n      pop\n        /* \"#utility.yul\":2411:2740   */\n      swap3\n      swap2\n      pop\n      pop\n      jump\t// out\n        /* \"#utility.yul\":2746:3097   */\n    tag_54:\n        /* \"#utility.yul\":2816:2822   */\n      0x00\n        /* \"#utility.yul\":2865:2867   */\n      0x20\n        /* \"#utility.yul\":2853:2862   */\n      dup3\n        /* \"#utility.yul\":2844:2851   */\n      dup5\n        /* \"#utility.yul\":2840:2863   */\n      sub\n        /* \"#utility.yul\":2836:2868   */\n      slt\n        /* \"#utility.yul\":2833:2952   */\n      iszero\n      tag_129\n      jumpi\n        /* \"#utility.yul\":2871:2950   */\n      tag_130\n      tag_119\n      jump\t// in\n    tag_130:\n        /* \"#utility.yul\":2833:2952   */\n    tag_129:\n        /* \"#utility.yul\":2991:2992   */\n      0x00\n        /* \"#utility.yul\":3016:3080   */\n      tag_131\n        /* \"#utility.yul\":3072:3079   */\n      dup5\n        /* \"#utility.yul\":3063:3069   */\n      dup3\n        /* \"#utility.yul\":3052:3061   */\n      dup6\n        /* \"#utility.yul\":3048:3070   */\n      add\n        /* \"#utility.yul\":3016:3080   */\n      tag_113\n      jump\t// in\n    tag_131:\n        /* \"#utility.yul\":3006:3080   */\n      swap2\n      pop\n        /* \"#utility.yul\":2962:3090   */\n      pop\n        /* \"#utility.yul\":2746:3097   */\n      swap3\n      swap2\n      pop\n      pop\n      jump\t// out\n        /* \"#utility.yul\":3103:3757   */\n    tag_29:\n        /* \"#utility.yul\":3181:3187   */\n      0x00\n        /* \"#utility.yul\":3189:3195   */\n      dup1\n        /* \"#utility.yul\":3238:3240   */\n      0x40\n        /* \"#utility.yul\":3226:3235   */\n      dup4\n        /* \"#utility.yul\":3217:3224   */\n      dup6\n        /* \"#utility.yul\":3213:3236   */\n      sub\n        /* \"#utility.yul\":3209:3241   */\n      slt\n        /* \"#utility.yul\":3206:3325   */\n      iszero\n      tag_133\n      jumpi\n        /* \"#utility.yul\":3244:3323   */\n      tag_134\n      tag_119\n      jump\t// in\n    tag_134:\n        /* \"#utility.yul\":3206:3325   */\n    tag_133:\n        /* \"#utility.yul\":3364:3365   */\n      0x00\n        /* \"#utility.yul\":3389:3442   */\n      tag_135\n        /* \"#utility.yul\":3434:3441   */\n      dup6\n        /* \"#utility.yul\":3425:3431   */\n      dup3\n        /* \"#utility.yul\":3414:3423   */\n      dup7\n        /* \"#utility.yul\":3410:3432   */\n      add\n        /* \"#utility.yul\":3389:3442   */\n      tag_109\n      jump\t// in\n    tag_135:\n        /* \"#utility.yul\":3379:3442   */\n      swap3\n      pop\n        /* \"#utility.yul\":3335:3452   */\n      pop\n        /* \"#utility.yul\":3519:3521   */\n      0x20\n        /* \"#utility.yul\":3508:3517   */\n      dup4\n        /* \"#utility.yul\":3504:3522   */\n      add\n        /* \"#utility.yul\":3491:3523   */\n      calldataload\n        /* \"#utility.yul\":3550:3568   */\n      0xffffffffffffffff\n        /* \"#utility.yul\":3542:3548   */\n      dup2\n        /* \"#utility.yul\":3539:3569   */\n      gt\n        /* \"#utility.yul\":3536:3653   */\n      iszero\n      tag_136\n      jumpi\n        /* \"#utility.yul\":3572:3651   */\n      tag_137\n      tag_122\n      jump\t// in\n    tag_137:\n        /* \"#utility.yul\":3536:3653   */\n    tag_136:\n        /* \"#utility.yul\":3677:3740   */\n      tag_138\n        /* \"#utility.yul\":3732:3739   */\n      dup6\n        /* \"#utility.yul\":3723:3729   */\n      dup3\n        /* \"#utility.yul\":3712:3721   */\n      dup7\n        /* \"#utility.yul\":3708:3730   */\n      add\n        /* \"#utility.yul\":3677:3740   */\n      tag_98\n      jump\t// in\n    tag_138:\n        /* \"#utility.yul\":3667:3740   */\n      swap2\n      pop\n        /* \"#utility.yul\":3462:3750   */\n      pop\n        /* \"#utility.yul\":3103:3757   */\n      swap3\n      pop\n      swap3\n      swap1\n      pop\n      jump\t// out\n        /* \"#utility.yul\":3763:4237   */\n    tag_36:\n        /* \"#utility.yul\":3831:3837   */\n      0x00\n        /* \"#utility.yul\":3839:3845   */\n      dup1\n        /* \"#utility.yul\":3888:3890   */\n      0x40\n        /* \"#utility.yul\":3876:3885   */\n      dup4\n        /* \"#utility.yul\":3867:3874   */\n      dup6\n        /* \"#utility.yul\":3863:3886   */\n      sub\n        /* \"#utility.yul\":3859:3891   */\n      slt\n        /* \"#utility.yul\":3856:3975   */\n      iszero\n      tag_140\n      jumpi\n        /* \"#utility.yul\":3894:3973   */\n      tag_141\n      tag_119\n      jump\t// in\n    tag_141:\n        /* \"#utility.yul\":3856:3975   */\n    tag_140:\n        /* \"#utility.yul\":4014:4015   */\n      0x00\n        /* \"#utility.yul\":4039:4092   */\n      tag_142\n        /* \"#utility.yul\":4084:4091   */\n      dup6\n        /* \"#utility.yul\":4075:4081   */\n      dup3\n        /* \"#utility.yul\":4064:4073   */\n      dup7\n        /* \"#utility.yul\":4060:4082   */\n      add\n        /* \"#utility.yul\":4039:4092   */\n      tag_109\n      jump\t// in\n    tag_142:\n        /* \"#utility.yul\":4029:4092   */\n      swap3\n      pop\n        /* \"#utility.yul\":3985:4102   */\n      pop\n        /* \"#utility.yul\":4141:4143   */\n      0x20\n        /* \"#utility.yul\":4167:4220   */\n      tag_143\n        /* \"#utility.yul\":4212:4219   */\n      dup6\n        /* \"#utility.yul\":4203:4209   */\n      dup3\n        /* \"#utility.yul\":4192:4201   */\n      dup7\n        /* \"#utility.yul\":4188:4210   */\n      add\n        /* \"#utility.yul\":4167:4220   */\n      tag_109\n      jump\t// in\n    tag_143:\n        /* \"#utility.yul\":4157:4220   */\n      swap2\n      pop\n        /* \"#utility.yul\":4112:4230   */\n      pop\n        /* \"#utility.yul\":3763:4237   */\n      swap3\n      pop\n      swap3\n      swap1\n      pop\n      jump\t// out\n        /* \"#utility.yul\":4243:4414   */\n    tag_144:\n        /* \"#utility.yul\":4350:4407   */\n      tag_146\n        /* \"#utility.yul\":4401:4406   */\n      dup2\n        /* \"#utility.yul\":4350:4407   */\n      tag_147\n      jump\t// in\n    tag_146:\n        /* \"#utility.yul\":4345:4348   */\n      dup3\n        /* \"#utility.yul\":4338:4408   */\n      mstore\n        /* \"#utility.yul\":4243:4414   */\n      pop\n      pop\n      jump\t// out\n        /* \"#utility.yul\":4420:4784   */\n    tag_148:\n        /* \"#utility.yul\":4508:4511   */\n      0x00\n        /* \"#utility.yul\":4536:4575   */\n      tag_150\n        /* \"#utility.yul\":4569:4574   */\n      dup3\n        /* \"#utility.yul\":4536:4575   */\n      tag_151\n      jump\t// in\n    tag_150:\n        /* \"#utility.yul\":4591:4662   */\n      tag_152\n        /* \"#utility.yul\":4655:4661   */\n      dup2\n        /* \"#utility.yul\":4650:4653   */\n      dup6\n        /* \"#utility.yul\":4591:4662   */\n      tag_153\n      jump\t// in\n    tag_152:\n        /* \"#utility.yul\":4584:4662   */\n      swap4\n      pop\n        /* \"#utility.yul\":4671:4723   */\n      tag_154\n        /* \"#utility.yul\":4716:4722   */\n      dup2\n        /* \"#utility.yul\":4711:4714   */\n      dup6\n        /* \"#utility.yul\":4704:4708   */\n      0x20\n        /* \"#utility.yul\":4697:4702   */\n      dup7\n        /* \"#utility.yul\":4693:4709   */\n      add\n        /* \"#utility.yul\":4671:4723   */\n      tag_97\n      jump\t// in\n    tag_154:\n        /* \"#utility.yul\":4748:4777   */\n      tag_155\n        /* \"#utility.yul\":4770:4776   */\n      dup2\n        /* \"#utility.yul\":4748:4777   */\n      tag_156\n      jump\t// in\n    tag_155:\n        /* \"#utility.yul\":4743:4746   */\n      dup5\n        /* \"#utility.yul\":4739:4778   */\n      add\n        /* \"#utility.yul\":4732:4778   */\n      swap2\n      pop\n        /* \"#utility.yul\":4512:4784   */\n      pop\n        /* \"#utility.yul\":4420:4784   */\n      swap3\n      swap2\n      pop\n      pop\n      jump\t// out\n        /* \"#utility.yul\":4790:4908   */\n    tag_157:\n        /* \"#utility.yul\":4877:4901   */\n      tag_159\n        /* \"#utility.yul\":4895:4900   */\n      dup2\n        /* \"#utility.yul\":4877:4901   */\n      tag_160\n      jump\t// in\n    tag_159:\n        /* \"#utility.yul\":4872:4875   */\n      dup3\n        /* \"#utility.yul\":4865:4902   */\n      mstore\n        /* \"#utility.yul\":4790:4908   */\n      pop\n      pop\n      jump\t// out\n        /* \"#utility.yul\":4914:5176   */\n    tag_23:\n        /* \"#utility.yul\":5027:5031   */\n      0x00\n        /* \"#utility.yul\":5065:5067   */\n      0x20\n        /* \"#utility.yul\":5054:5063   */\n      dup3\n        /* \"#utility.yul\":5050:5068   */\n      add\n        /* \"#utility.yul\":5042:5068   */\n      swap1\n      pop\n        /* \"#utility.yul\":5078:5169   */\n      tag_162\n        /* \"#utility.yul\":5166:5167   */\n      0x00\n        /* \"#utility.yul\":5155:5164   */\n      dup4\n        /* \"#utility.yul\":5151:5168   */\n      add\n        /* \"#utility.yul\":5142:5148   */\n      dup5\n        /* \"#utility.yul\":5078:5169   */\n      tag_144\n      jump\t// in\n    tag_162:\n        /* \"#utility.yul\":4914:5176   */\n      swap3\n      swap2\n      pop\n      pop\n      jump\t// out\n        /* \"#utility.yul\":5182:5495   */\n    tag_39:\n        /* \"#utility.yul\":5295:5299   */\n      0x00\n        /* \"#utility.yul\":5333:5335   */\n      0x20\n        /* \"#utility.yul\":5322:5331   */\n      dup3\n        /* \"#utility.yul\":5318:5336   */\n      add\n        /* \"#utility.yul\":5310:5336   */\n      swap1\n      pop\n        /* \"#utility.yul\":5382:5391   */\n      dup2\n        /* \"#utility.yul\":5376:5380   */\n      dup2\n        /* \"#utility.yul\":5372:5392   */\n      sub\n        /* \"#utility.yul\":5368:5369   */\n      0x00\n        /* \"#utility.yul\":5357:5366   */\n      dup4\n        /* \"#utility.yul\":5353:5370   */\n      add\n        /* \"#utility.yul\":5346:5393   */\n      mstore\n        /* \"#utility.yul\":5410:5488   */\n      tag_164\n        /* \"#utility.yul\":5483:5487   */\n      dup2\n        /* \"#utility.yul\":5474:5480   */\n      dup5\n        /* \"#utility.yul\":5410:5488   */\n      tag_148\n      jump\t// in\n    tag_164:\n        /* \"#utility.yul\":5402:5488   */\n      swap1\n      pop\n        /* \"#utility.yul\":5182:5495   */\n      swap3\n      swap2\n      pop\n      pop\n      jump\t// out\n        /* \"#utility.yul\":5501:5924   */\n    tag_59:\n        /* \"#utility.yul\":5642:5646   */\n      0x00\n        /* \"#utility.yul\":5680:5682   */\n      0x40\n        /* \"#utility.yul\":5669:5678   */\n      dup3\n        /* \"#utility.yul\":5665:5683   */\n      add\n        /* \"#utility.yul\":5657:5683   */\n      swap1\n      pop\n        /* \"#utility.yul\":5729:5738   */\n      dup2\n        /* \"#utility.yul\":5723:5727   */\n      dup2\n        /* \"#utility.yul\":5719:5739   */\n      sub\n        /* \"#utility.yul\":5715:5716   */\n      0x00\n        /* \"#utility.yul\":5704:5713   */\n      dup4\n        /* \"#utility.yul\":5700:5717   */\n      add\n        /* \"#utility.yul\":5693:5740   */\n      mstore\n        /* \"#utility.yul\":5757:5835   */\n      tag_166\n        /* \"#utility.yul\":5830:5834   */\n      dup2\n        /* \"#utility.yul\":5821:5827   */\n      dup6\n        /* \"#utility.yul\":5757:5835   */\n      tag_148\n      jump\t// in\n    tag_166:\n        /* \"#utility.yul\":5749:5835   */\n      swap1\n      pop\n        /* \"#utility.yul\":5845:5917   */\n      tag_167\n        /* \"#utility.yul\":5913:5915   */\n      0x20\n        /* \"#utility.yul\":5902:5911   */\n      dup4\n        /* \"#utility.yul\":5898:5916   */\n      add\n        /* \"#utility.yul\":5889:5895   */\n      dup5\n        /* \"#utility.yul\":5845:5917   */\n      tag_157\n      jump\t// in\n    tag_167:\n        /* \"#utility.yul\":5501:5924   */\n      swap4\n      swap3\n      pop\n      pop\n      pop\n      jump\t// out\n        /* \"#utility.yul\":5930:6152   */\n    tag_18:\n        /* \"#utility.yul\":6023:6027   */\n      0x00\n        /* \"#utility.yul\":6061:6063   */\n      0x20\n        /* \"#utility.yul\":6050:6059   */\n      dup3\n        /* \"#utility.yul\":6046:6064   */\n      add\n        /* \"#utility.yul\":6038:6064   */\n      swap1\n      pop\n        /* \"#utility.yul\":6074:6145   */\n      tag_169\n        /* \"#utility.yul\":6142:6143   */\n      0x00\n        /* \"#utility.yul\":6131:6140   */\n      dup4\n        /* \"#utility.yul\":6127:6144   */\n      add\n        /* \"#utility.yul\":6118:6124   */\n      dup5\n        /* \"#utility.yul\":6074:6145   */\n      tag_157\n      jump\t// in\n    tag_169:\n        /* \"#utility.yul\":5930:6152   */\n      swap3\n      swap2\n      pop\n      pop\n      jump\t// out\n        /* \"#utility.yul\":6158:6287   */\n    tag_84:\n        /* \"#utility.yul\":6192:6198   */\n      0x00\n        /* \"#utility.yul\":6219:6239   */\n      tag_171\n      tag_172\n      jump\t// in\n    tag_171:\n        /* \"#utility.yul\":6209:6239   */\n      swap1\n      pop\n        /* \"#utility.yul\":6248:6281   */\n      tag_173\n        /* \"#utility.yul\":6276:6280   */\n      dup3\n        /* \"#utility.yul\":6268:6274   */\n      dup3\n        /* \"#utility.yul\":6248:6281   */\n      tag_174\n      jump\t// in\n    tag_173:\n        /* \"#utility.yul\":6158:6287   */\n      swap2\n      swap1\n      pop\n      jump\t// out\n        /* \"#utility.yul\":6293:6368   */\n    tag_172:\n        /* \"#utility.yul\":6326:6332   */\n      0x00\n        /* \"#utility.yul\":6359:6361   */\n      0x40\n        /* \"#utility.yul\":6353:6362   */\n      mload\n        /* \"#utility.yul\":6343:6362   */\n      swap1\n      pop\n        /* \"#utility.yul\":6293:6368   */\n      swap1\n      jump\t// out\n        /* \"#utility.yul\":6374:6682   */\n    tag_83:\n        /* \"#utility.yul\":6436:6440   */\n      0x00\n        /* \"#utility.yul\":6526:6544   */\n      0xffffffffffffffff\n        /* \"#utility.yul\":6518:6524   */\n      dup3\n        /* \"#utility.yul\":6515:6545   */\n      gt\n        /* \"#utility.yul\":6512:6568   */\n      iszero\n      tag_177\n      jumpi\n        /* \"#utility.yul\":6548:6566   */\n      tag_178\n      tag_179\n      jump\t// in\n    tag_178:\n        /* \"#utility.yul\":6512:6568   */\n    tag_177:\n        /* \"#utility.yul\":6586:6615   */\n      tag_180\n        /* \"#utility.yul\":6608:6614   */\n      dup3\n        /* \"#utility.yul\":6586:6615   */\n      tag_156\n      jump\t// in\n    tag_180:\n        /* \"#utility.yul\":6578:6615   */\n      swap1\n      pop\n        /* \"#utility.yul\":6670:6674   */\n      0x20\n        /* \"#utility.yul\":6664:6668   */\n      dup2\n        /* \"#utility.yul\":6660:6675   */\n      add\n        /* \"#utility.yul\":6652:6675   */\n      swap1\n      pop\n        /* \"#utility.yul\":6374:6682   */\n      swap2\n      swap1\n      pop\n      jump\t// out\n        /* \"#utility.yul\":6688:6787   */\n    tag_151:\n        /* \"#utility.yul\":6740:6746   */\n      0x00\n        /* \"#utility.yul\":6774:6779   */\n      dup2\n        /* \"#utility.yul\":6768:6780   */\n      mload\n        /* \"#utility.yul\":6758:6780   */\n      swap1\n      pop\n        /* \"#utility.yul\":6688:6787   */\n      swap2\n      swap1\n      pop\n      jump\t// out\n        /* \"#utility.yul\":6793:6962   */\n    tag_153:\n        /* \"#utility.yul\":6877:6888   */\n      0x00\n        /* \"#utility.yul\":6911:6917   */\n      dup3\n        /* \"#utility.yul\":6906:6909   */\n      dup3\n        /* \"#utility.yul\":6899:6918   */\n      mstore\n        /* \"#utility.yul\":6951:6955   */\n      0x20\n        /* \"#utility.yul\":6946:6949   */\n      dup3\n        /* \"#utility.yul\":6942:6956   */\n      add\n        /* \"#utility.yul\":6927:6956   */\n      swap1\n      pop\n        /* \"#utility.yul\":6793:6962   */\n      swap3\n      swap2\n      pop\n      pop\n      jump\t// out\n        /* \"#utility.yul\":6968:7094   */\n    tag_183:\n        /* \"#utility.yul\":7005:7012   */\n      0x00\n        /* \"#utility.yul\":7045:7087   */\n      0xffffffffffffffffffffffffffffffffffffffff\n        /* \"#utility.yul\":7038:7043   */\n      dup3\n        /* \"#utility.yul\":7034:7088   */\n      and\n        /* \"#utility.yul\":7023:7088   */\n      swap1\n      pop\n        /* \"#utility.yul\":6968:7094   */\n      swap2\n      swap1\n      pop\n      jump\t// out\n        /* \"#utility.yul\":7100:7177   */\n    tag_160:\n        /* \"#utility.yul\":7137:7144   */\n      0x00\n        /* \"#utility.yul\":7166:7171   */\n      dup2\n        /* \"#utility.yul\":7155:7171   */\n      swap1\n      pop\n        /* \"#utility.yul\":7100:7177   */\n      swap2\n      swap1\n      pop\n      jump\t// out\n        /* \"#utility.yul\":7183:7329   */\n    tag_147:\n        /* \"#utility.yul\":7253:7262   */\n      0x00\n        /* \"#utility.yul\":7286:7323   */\n      tag_187\n        /* \"#utility.yul\":7317:7322   */\n      dup3\n        /* \"#utility.yul\":7286:7323   */\n      tag_188\n      jump\t// in\n    tag_187:\n        /* \"#utility.yul\":7273:7323   */\n      swap1\n      pop\n        /* \"#utility.yul\":7183:7329   */\n      swap2\n      swap1\n      pop\n      jump\t// out\n        /* \"#utility.yul\":7335:7461   */\n    tag_188:\n        /* \"#utility.yul\":7385:7394   */\n      0x00\n        /* \"#utility.yul\":7418:7455   */\n      tag_190\n        /* \"#utility.yul\":7449:7454   */\n      dup3\n        /* \"#utility.yul\":7418:7455   */\n      tag_191\n      jump\t// in\n    tag_190:\n        /* \"#utility.yul\":7405:7455   */\n      swap1\n      pop\n        /* \"#utility.yul\":7335:7461   */\n      swap2\n      swap1\n      pop\n      jump\t// out\n        /* \"#utility.yul\":7467:7580   */\n    tag_191:\n        /* \"#utility.yul\":7517:7526   */\n      0x00\n        /* \"#utility.yul\":7550:7574   */\n      tag_193\n        /* \"#utility.yul\":7568:7573   */\n      dup3\n        /* \"#utility.yul\":7550:7574   */\n      tag_183\n      jump\t// in\n    tag_193:\n        /* \"#utility.yul\":7537:7574   */\n      swap1\n      pop\n        /* \"#utility.yul\":7467:7580   */\n      swap2\n      swap1\n      pop\n      jump\t// out\n        /* \"#utility.yul\":7586:7740   */\n    tag_89:\n        /* \"#utility.yul\":7670:7676   */\n      dup3\n        /* \"#utility.yul\":7665:7668   */\n      dup2\n        /* \"#utility.yul\":7660:7663   */\n      dup4\n        /* \"#utility.yul\":7647:7677   */\n      calldatacopy\n        /* \"#utility.yul\":7732:7733   */\n      0x00\n        /* \"#utility.yul\":7723:7729   */\n      dup4\n        /* \"#utility.yul\":7718:7721   */\n      dup4\n        /* \"#utility.yul\":7714:7730   */\n      add\n        /* \"#utility.yul\":7707:7734   */\n      mstore\n        /* \"#utility.yul\":7586:7740   */\n      pop\n      pop\n      pop\n      jump\t// out\n        /* \"#utility.yul\":7746:8053   */\n    tag_97:\n        /* \"#utility.yul\":7814:7815   */\n      0x00\n        /* \"#utility.yul\":7824:7937   */\n    tag_196:\n        /* \"#utility.yul\":7838:7844   */\n      dup4\n        /* \"#utility.yul\":7835:7836   */\n      dup2\n        /* \"#utility.yul\":7832:7845   */\n      lt\n        /* \"#utility.yul\":7824:7937   */\n      iszero\n      tag_198\n      jumpi\n        /* \"#utility.yul\":7923:7924   */\n      dup1\n        /* \"#utility.yul\":7918:7921   */\n      dup3\n        /* \"#utility.yul\":7914:7925   */\n      add\n        /* \"#utility.yul\":7908:7926   */\n      mload\n        /* \"#utility.yul\":7904:7905   */\n      dup2\n        /* \"#utility.yul\":7899:7902   */\n      dup5\n        /* \"#utility.yul\":7895:7906   */\n      add\n        /* \"#utility.yul\":7888:7927   */\n      mstore\n        /* \"#utility.yul\":7860:7862   */\n      0x20\n        /* \"#utility.yul\":7857:7858   */\n      dup2\n        /* \"#utility.yul\":7853:7863   */\n      add\n        /* \"#utility.yul\":7848:7863   */\n      swap1\n      pop\n        /* \"#utility.yul\":7824:7937   */\n      jump(tag_196)\n    tag_198:\n        /* \"#utility.yul\":7955:7961   */\n      dup4\n        /* \"#utility.yul\":7952:7953   */\n      dup2\n        /* \"#utility.yul\":7949:7962   */\n      gt\n        /* \"#utility.yul\":7946:8047   */\n      iszero\n      tag_199\n      jumpi\n        /* \"#utility.yul\":8035:8036   */\n      0x00\n        /* \"#utility.yul\":8026:8032   */\n      dup5\n        /* \"#utility.yul\":8021:8024   */\n      dup5\n        /* \"#utility.yul\":8017:8033   */\n      add\n        /* \"#utility.yul\":8010:8037   */\n      mstore\n        /* \"#utility.yul\":7946:8047   */\n    tag_199:\n        /* \"#utility.yul\":7795:8053   */\n      pop\n        /* \"#utility.yul\":7746:8053   */\n      pop\n      pop\n      pop\n      jump\t// out\n        /* \"#utility.yul\":8059:8340   */\n    tag_174:\n        /* \"#utility.yul\":8142:8169   */\n      tag_201\n        /* \"#utility.yul\":8164:8168   */\n      dup3\n        /* \"#utility.yul\":8142:8169   */\n      tag_156\n      jump\t// in\n    tag_201:\n        /* \"#utility.yul\":8134:8140   */\n      dup2\n        /* \"#utility.yul\":8130:8170   */\n      add\n        /* \"#utility.yul\":8272:8278   */\n      dup2\n        /* \"#utility.yul\":8260:8270   */\n      dup2\n        /* \"#utility.yul\":8257:8279   */\n      lt\n        /* \"#utility.yul\":8236:8254   */\n      0xffffffffffffffff\n        /* \"#utility.yul\":8224:8234   */\n      dup3\n        /* \"#utility.yul\":8221:8255   */\n      gt\n        /* \"#utility.yul\":8218:8280   */\n      or\n        /* \"#utility.yul\":8215:8303   */\n      iszero\n      tag_202\n      jumpi\n        /* \"#utility.yul\":8283:8301   */\n      tag_203\n      tag_179\n      jump\t// in\n    tag_203:\n        /* \"#utility.yul\":8215:8303   */\n    tag_202:\n        /* \"#utility.yul\":8323:8333   */\n      dup1\n        /* \"#utility.yul\":8319:8321   */\n      0x40\n        /* \"#utility.yul\":8312:8334   */\n      mstore\n        /* \"#utility.yul\":8102:8340   */\n      pop\n        /* \"#utility.yul\":8059:8340   */\n      pop\n      pop\n      jump\t// out\n        /* \"#utility.yul\":8346:8526   */\n    tag_48:\n        /* \"#utility.yul\":8394:8471   */\n      0x4e487b7100000000000000000000000000000000000000000000000000000000\n        /* \"#utility.yul\":8391:8392   */\n      0x00\n        /* \"#utility.yul\":8384:8472   */\n      mstore\n        /* \"#utility.yul\":8491:8495   */\n      0x32\n        /* \"#utility.yul\":8488:8489   */\n      0x04\n        /* \"#utility.yul\":8481:8496   */\n      mstore\n        /* \"#utility.yul\":8515:8519   */\n      0x24\n        /* \"#utility.yul\":8512:8513   */\n      0x00\n        /* \"#utility.yul\":8505:8520   */\n      revert\n        /* \"#utility.yul\":8532:8712   */\n    tag_179:\n        /* \"#utility.yul\":8580:8657   */\n      0x4e487b7100000000000000000000000000000000000000000000000000000000\n        /* \"#utility.yul\":8577:8578   */\n      0x00\n        /* \"#utility.yul\":8570:8658   */\n      mstore\n        /* \"#utility.yul\":8677:8681   */\n      0x41\n        /* \"#utility.yul\":8674:8675   */\n      0x04\n        /* \"#utility.yul\":8667:8682   */\n      mstore\n        /* \"#utility.yul\":8701:8705   */\n      0x24\n        /* \"#utility.yul\":8698:8699   */\n      0x00\n        /* \"#utility.yul\":8691:8706   */\n      revert\n        /* \"#utility.yul\":8718:8835   */\n    tag_102:\n        /* \"#utility.yul\":8827:8828   */\n      0x00\n        /* \"#utility.yul\":8824:8825   */\n      dup1\n        /* \"#utility.yul\":8817:8829   */\n      revert\n        /* \"#utility.yul\":8841:8958   */\n    tag_87:\n        /* \"#utility.yul\":8950:8951   */\n      0x00\n        /* \"#utility.yul\":8947:8948   */\n      dup1\n        /* \"#utility.yul\":8940:8952   */\n      revert\n        /* \"#utility.yul\":8964:9081   */\n    tag_122:\n        /* \"#utility.yul\":9073:9074   */\n      0x00\n        /* \"#utility.yul\":9070:9071   */\n      dup1\n        /* \"#utility.yul\":9063:9075   */\n      revert\n        /* \"#utility.yul\":9087:9204   */\n    tag_119:\n        /* \"#utility.yul\":9196:9197   */\n      0x00\n        /* \"#utility.yul\":9193:9194   */\n      dup1\n        /* \"#utility.yul\":9186:9198   */\n      revert\n        /* \"#utility.yul\":9210:9312   */\n    tag_156:\n        /* \"#utility.yul\":9251:9257   */\n      0x00\n        /* \"#utility.yul\":9302:9304   */\n      0x1f\n        /* \"#utility.yul\":9298:9305   */\n      not\n        /* \"#utility.yul\":9293:9295   */\n      0x1f\n        /* \"#utility.yul\":9286:9291   */\n      dup4\n        /* \"#utility.yul\":9282:9296   */\n      add\n        /* \"#utility.yul\":9278:9306   */\n      and\n        /* \"#utility.yul\":9268:9306   */\n      swap1\n      pop\n        /* \"#utility.yul\":9210:9312   */\n      swap2\n      swap1\n      pop\n      jump\t// out\n        /* \"#utility.yul\":9318:9440   */\n    tag_112:\n        /* \"#utility.yul\":9391:9415   */\n      tag_212\n        /* \"#utility.yul\":9409:9414   */\n      dup2\n        /* \"#utility.yul\":9391:9415   */\n      tag_160\n      jump\t// in\n    tag_212:\n        /* \"#utility.yul\":9384:9389   */\n      dup2\n        /* \"#utility.yul\":9381:9416   */\n      eq\n        /* \"#utility.yul\":9371:9434   */\n      tag_213\n      jumpi\n        /* \"#utility.yul\":9430:9431   */\n      0x00\n        /* \"#utility.yul\":9427:9428   */\n      dup1\n        /* \"#utility.yul\":9420:9432   */\n      revert\n        /* \"#utility.yul\":9371:9434   */\n    tag_213:\n        /* \"#utility.yul\":9318:9440   */\n      pop\n      jump\t// out\n    stop\n\n    sub_0: assembly {\n            /* \"Contracts/SimpleStorage.sol\":62:789  contract SimpleStorage{\r... */\n          mstore(0x40, 0x80)\n          callvalue\n          dup1\n          iszero\n          tag_1\n          jumpi\n          0x00\n          dup1\n          revert\n        tag_1:\n          pop\n          dataSize(sub_0)\n          dup1\n          dataOffset(sub_0)\n          0x00\n          codecopy\n          0x00\n          return\n        stop\n\n        sub_0: assembly {\n                /* \"Contracts/SimpleStorage.sol\":62:789  contract SimpleStorage{\r... */\n              mstore(0x40, 0x80)\n              callvalue\n              dup1\n              iszero\n              tag_1\n              jumpi\n              0x00\n              dup1\n              revert\n            tag_1:\n              pop\n              jumpi(tag_2, lt(calldatasize, 0x04))\n              shr(0xe0, calldataload(0x00))\n              dup1\n              0x0e5eeef7\n              eq\n              tag_3\n              jumpi\n              dup1\n              0x2e64cec1\n              eq\n              tag_4\n              jumpi\n              dup1\n              0x5457b83f\n              eq\n              tag_5\n              jumpi\n              dup1\n              0x6057361d\n              eq\n              tag_6\n              jumpi\n              dup1\n              0x642f9163\n              eq\n              tag_7\n              jumpi\n            tag_2:\n              0x00\n              dup1\n              revert\n                /* \"Contracts/SimpleStorage.sol\":285:449  function addStudent(string memory _name, uint256 _rollNo) public{\r... */\n            tag_3:\n              tag_8\n              0x04\n              dup1\n              calldatasize\n              sub\n              dup2\n              add\n              swap1\n              tag_9\n              swap2\n              swap1\n              tag_10\n              jump\t// in\n            tag_9:\n              tag_11\n              jump\t// in\n            tag_8:\n              stop\n                /* \"Contracts/SimpleStorage.sol\":566:655  function retrieve() public view returns(uint256){\r... */\n            tag_4:\n              tag_12\n              tag_13\n              jump\t// in\n            tag_12:\n              mload(0x40)\n              tag_14\n              swap2\n              swap1\n              tag_15\n              jump\t// in\n            tag_14:\n              mload(0x40)\n              dup1\n              swap2\n              sub\n              swap1\n              return\n                /* \"Contracts/SimpleStorage.sol\":227:276  mapping(uint256 => string) public rollNoToNameMap */\n            tag_5:\n              tag_16\n              0x04\n              dup1\n              calldatasize\n              sub\n              dup2\n              add\n              swap1\n              tag_17\n              swap2\n              swap1\n              tag_18\n              jump\t// in\n            tag_17:\n              tag_19\n              jump\t// in\n            tag_16:\n              mload(0x40)\n              tag_20\n              swap2\n              swap1\n              tag_21\n              jump\t// in\n            tag_20:\n              mload(0x40)\n              dup1\n              swap2\n              sub\n              swap1\n              return\n                /* \"Contracts/SimpleStorage.sol\":457:558  function store(uint256 _favouriteNumber) public {\r... */\n            tag_6:\n              tag_22\n              0x04\n              dup1\n              calldatasize\n              sub\n              dup2\n              add\n              swap1\n              tag_23\n              swap2\n              swap1\n              tag_18\n              jump\t// in\n            tag_23:\n              tag_24\n              jump\t// in\n            tag_22:\n              stop\n                /* \"Contracts/SimpleStorage.sol\":663:784  function getStudent(uint256 _rollNo) public view returns(string memory){\r... */\n            tag_7:\n              tag_25\n              0x04\n              dup1\n              calldatasize\n              sub\n              dup2\n              add\n              swap1\n              tag_26\n              swap2\n              swap1\n              tag_18\n              jump\t// in\n            tag_26:\n              tag_27\n              jump\t// in\n            tag_25:\n              mload(0x40)\n              tag_28\n              swap2\n              swap1\n              tag_21\n              jump\t// in\n            tag_28:\n              mload(0x40)\n              dup1\n              swap2\n              sub\n              swap1\n              return\n                /* \"Contracts/SimpleStorage.sol\":285:449  function addStudent(string memory _name, uint256 _rollNo) public{\r... */\n            tag_11:\n                /* \"Contracts/SimpleStorage.sol\":360:368  students */\n              0x01\n                /* \"Contracts/SimpleStorage.sol\":374:397  Student(_rollNo, _name) */\n              mload(0x40)\n              dup1\n              0x40\n              add\n              0x40\n              mstore\n              dup1\n                /* \"Contracts/SimpleStorage.sol\":382:389  _rollNo */\n              dup4\n                /* \"Contracts/SimpleStorage.sol\":374:397  Student(_rollNo, _name) */\n              dup2\n              mstore\n              0x20\n              add\n                /* \"Contracts/SimpleStorage.sol\":391:396  _name */\n              dup5\n                /* \"Contracts/SimpleStorage.sol\":374:397  Student(_rollNo, _name) */\n              dup2\n              mstore\n              pop\n                /* \"Contracts/SimpleStorage.sol\":360:398  students.push(Student(_rollNo, _name)) */\n              swap1\n              dup1\n              0x01\n              dup2\n              sload\n              add\n              dup1\n              dup3\n              sstore\n              dup1\n              swap2\n              pop\n              pop\n              0x01\n              swap1\n              sub\n              swap1\n              0x00\n              mstore\n              keccak256(0x00, 0x20)\n              swap1\n              0x02\n              mul\n              add\n              0x00\n              swap1\n              swap2\n              swap1\n              swap2\n              swap1\n              swap2\n              pop\n              0x00\n              dup3\n              add\n              mload\n              dup2\n              0x00\n              add\n              sstore\n              0x20\n              dup3\n              add\n              mload\n              dup2\n              0x01\n              add\n              swap1\n              dup1\n              mload\n              swap1\n              0x20\n              add\n              swap1\n              tag_31\n              swap3\n              swap2\n              swap1\n              tag_32\n              jump\t// in\n            tag_31:\n              pop\n              pop\n              pop\n                /* \"Contracts/SimpleStorage.sol\":436:441  _name */\n              dup2\n                /* \"Contracts/SimpleStorage.sol\":409:424  rollNoToNameMap */\n              0x02\n                /* \"Contracts/SimpleStorage.sol\":409:433  rollNoToNameMap[_rollNo] */\n              0x00\n                /* \"Contracts/SimpleStorage.sol\":425:432  _rollNo */\n              dup4\n                /* \"Contracts/SimpleStorage.sol\":409:433  rollNoToNameMap[_rollNo] */\n              dup2\n              mstore\n              0x20\n              add\n              swap1\n              dup2\n              mstore\n              0x20\n              add\n              0x00\n              keccak256\n                /* \"Contracts/SimpleStorage.sol\":409:441  rollNoToNameMap[_rollNo] = _name */\n              swap1\n              dup1\n              mload\n              swap1\n              0x20\n              add\n              swap1\n              tag_33\n              swap3\n              swap2\n              swap1\n              tag_32\n              jump\t// in\n            tag_33:\n              pop\n                /* \"Contracts/SimpleStorage.sol\":285:449  function addStudent(string memory _name, uint256 _rollNo) public{\r... */\n              pop\n              pop\n              jump\t// out\n                /* \"Contracts/SimpleStorage.sol\":566:655  function retrieve() public view returns(uint256){\r... */\n            tag_13:\n                /* \"Contracts/SimpleStorage.sol\":606:613  uint256 */\n              0x00\n                /* \"Contracts/SimpleStorage.sol\":632:647  favouriteNumber */\n              dup1\n              sload\n                /* \"Contracts/SimpleStorage.sol\":625:647  return favouriteNumber */\n              swap1\n              pop\n                /* \"Contracts/SimpleStorage.sol\":566:655  function retrieve() public view returns(uint256){\r... */\n              swap1\n              jump\t// out\n                /* \"Contracts/SimpleStorage.sol\":227:276  mapping(uint256 => string) public rollNoToNameMap */\n            tag_19:\n              mstore(0x20, 0x02)\n              dup1\n              0x00\n              mstore\n              keccak256(0x00, 0x40)\n              0x00\n              swap2\n              pop\n              swap1\n              pop\n              dup1\n              sload\n              tag_35\n              swap1\n              tag_36\n              jump\t// in\n            tag_35:\n              dup1\n              0x1f\n              add\n              0x20\n              dup1\n              swap2\n              div\n              mul\n              0x20\n              add\n              mload(0x40)\n              swap1\n              dup2\n              add\n              0x40\n              mstore\n              dup1\n              swap3\n              swap2\n              swap1\n              dup2\n              dup2\n              mstore\n              0x20\n              add\n              dup3\n              dup1\n              sload\n              tag_37\n              swap1\n              tag_36\n              jump\t// in\n            tag_37:\n              dup1\n              iszero\n              tag_38\n              jumpi\n              dup1\n              0x1f\n              lt\n              tag_39\n              jumpi\n              0x0100\n              dup1\n              dup4\n              sload\n              div\n              mul\n              dup4\n              mstore\n              swap2\n              0x20\n              add\n              swap2\n              jump(tag_38)\n            tag_39:\n              dup3\n              add\n              swap2\n              swap1\n              0x00\n              mstore\n              keccak256(0x00, 0x20)\n              swap1\n            tag_40:\n              dup2\n              sload\n              dup2\n              mstore\n              swap1\n              0x01\n              add\n              swap1\n              0x20\n              add\n              dup1\n              dup4\n              gt\n              tag_40\n              jumpi\n              dup3\n              swap1\n              sub\n              0x1f\n              and\n              dup3\n              add\n              swap2\n            tag_38:\n              pop\n              pop\n              pop\n              pop\n              pop\n              dup2\n              jump\t// out\n                /* \"Contracts/SimpleStorage.sol\":457:558  function store(uint256 _favouriteNumber) public {\r... */\n            tag_24:\n                /* \"Contracts/SimpleStorage.sol\":534:550  _favouriteNumber */\n              dup1\n                /* \"Contracts/SimpleStorage.sol\":516:531  favouriteNumber */\n              0x00\n                /* \"Contracts/SimpleStorage.sol\":516:550  favouriteNumber = _favouriteNumber */\n              dup2\n              swap1\n              sstore\n              pop\n                /* \"Contracts/SimpleStorage.sol\":457:558  function store(uint256 _favouriteNumber) public {\r... */\n              pop\n              jump\t// out\n                /* \"Contracts/SimpleStorage.sol\":663:784  function getStudent(uint256 _rollNo) public view returns(string memory){\r... */\n            tag_27:\n                /* \"Contracts/SimpleStorage.sol\":720:733  string memory */\n              0x60\n                /* \"Contracts/SimpleStorage.sol\":752:767  rollNoToNameMap */\n              0x02\n                /* \"Contracts/SimpleStorage.sol\":752:776  rollNoToNameMap[_rollNo] */\n              0x00\n                /* \"Contracts/SimpleStorage.sol\":768:775  _rollNo */\n              dup4\n                /* \"Contracts/SimpleStorage.sol\":752:776  rollNoToNameMap[_rollNo] */\n              dup2\n              mstore\n              0x20\n              add\n              swap1\n              dup2\n              mstore\n              0x20\n              add\n              0x00\n              keccak256\n                /* \"Contracts/SimpleStorage.sol\":745:776  return rollNoToNameMap[_rollNo] */\n              dup1\n              sload\n              tag_43\n              swap1\n              tag_36\n              jump\t// in\n            tag_43:\n              dup1\n              0x1f\n              add\n              0x20\n              dup1\n              swap2\n              div\n              mul\n              0x20\n              add\n              mload(0x40)\n              swap1\n              dup2\n              add\n              0x40\n              mstore\n              dup1\n              swap3\n              swap2\n              swap1\n              dup2\n              dup2\n              mstore\n              0x20\n              add\n              dup3\n              dup1\n              sload\n              tag_44\n              swap1\n              tag_36\n              jump\t// in\n            tag_44:\n              dup1\n              iszero\n              tag_45\n              jumpi\n              dup1\n              0x1f\n              lt\n              tag_46\n              jumpi\n              0x0100\n              dup1\n              dup4\n              sload\n              div\n              mul\n              dup4\n              mstore\n              swap2\n              0x20\n              add\n              swap2\n              jump(tag_45)\n            tag_46:\n              dup3\n              add\n              swap2\n              swap1\n              0x00\n              mstore\n              keccak256(0x00, 0x20)\n              swap1\n            tag_47:\n              dup2\n              sload\n              dup2\n              mstore\n              swap1\n              0x01\n              add\n              swap1\n              0x20\n              add\n              dup1\n              dup4\n              gt\n              tag_47\n              jumpi\n              dup3\n              swap1\n              sub\n              0x1f\n              and\n              dup3\n              add\n              swap2\n            tag_45:\n              pop\n              pop\n              pop\n              pop\n              pop\n              swap1\n              pop\n                /* \"Contracts/SimpleStorage.sol\":663:784  function getStudent(uint256 _rollNo) public view returns(string memory){\r... */\n              swap2\n              swap1\n              pop\n              jump\t// out\n            tag_32:\n              dup3\n              dup1\n              sload\n              tag_48\n              swap1\n              tag_36\n              jump\t// in\n            tag_48:\n              swap1\n              0x00\n              mstore\n              keccak256(0x00, 0x20)\n              swap1\n              0x1f\n              add\n              0x20\n              swap1\n              div\n              dup2\n              add\n              swap3\n              dup3\n              tag_50\n              jumpi\n              0x00\n              dup6\n              sstore\n              jump(tag_49)\n            tag_50:\n              dup3\n              0x1f\n              lt\n              tag_51\n              jumpi\n              dup1\n              mload\n              not(0xff)\n              and\n              dup4\n              dup1\n              add\n              or\n              dup6\n              sstore\n              jump(tag_49)\n            tag_51:\n              dup3\n              dup1\n              add\n              0x01\n              add\n              dup6\n              sstore\n              dup3\n              iszero\n              tag_49\n              jumpi\n              swap2\n              dup3\n              add\n            tag_52:\n              dup3\n              dup2\n              gt\n              iszero\n              tag_53\n              jumpi\n              dup3\n              mload\n              dup3\n              sstore\n              swap2\n              0x20\n              add\n              swap2\n              swap1\n              0x01\n              add\n              swap1\n              jump(tag_52)\n            tag_53:\n            tag_49:\n              pop\n              swap1\n              pop\n              tag_54\n              swap2\n              swap1\n              tag_55\n              jump\t// in\n            tag_54:\n              pop\n              swap1\n              jump\t// out\n            tag_55:\n            tag_56:\n              dup1\n              dup3\n              gt\n              iszero\n              tag_57\n              jumpi\n              0x00\n              dup2\n              0x00\n              swap1\n              sstore\n              pop\n              0x01\n              add\n              jump(tag_56)\n            tag_57:\n              pop\n              swap1\n              jump\t// out\n                /* \"#utility.yul\":7:419   */\n            tag_59:\n                /* \"#utility.yul\":85:90   */\n              0x00\n                /* \"#utility.yul\":110:176   */\n              tag_61\n                /* \"#utility.yul\":126:175   */\n              tag_62\n                /* \"#utility.yul\":168:174   */\n              dup5\n                /* \"#utility.yul\":126:175   */\n              tag_63\n              jump\t// in\n            tag_62:\n                /* \"#utility.yul\":110:176   */\n              tag_64\n              jump\t// in\n            tag_61:\n                /* \"#utility.yul\":101:176   */\n              swap1\n              pop\n                /* \"#utility.yul\":199:205   */\n              dup3\n                /* \"#utility.yul\":192:197   */\n              dup2\n                /* \"#utility.yul\":185:206   */\n              mstore\n                /* \"#utility.yul\":237:241   */\n              0x20\n                /* \"#utility.yul\":230:235   */\n              dup2\n                /* \"#utility.yul\":226:242   */\n              add\n                /* \"#utility.yul\":275:278   */\n              dup5\n                /* \"#utility.yul\":266:272   */\n              dup5\n                /* \"#utility.yul\":261:264   */\n              dup5\n                /* \"#utility.yul\":257:273   */\n              add\n                /* \"#utility.yul\":254:279   */\n              gt\n                /* \"#utility.yul\":251:363   */\n              iszero\n              tag_65\n              jumpi\n                /* \"#utility.yul\":282:361   */\n              tag_66\n              tag_67\n              jump\t// in\n            tag_66:\n                /* \"#utility.yul\":251:363   */\n            tag_65:\n                /* \"#utility.yul\":372:413   */\n              tag_68\n                /* \"#utility.yul\":406:412   */\n              dup5\n                /* \"#utility.yul\":401:404   */\n              dup3\n                /* \"#utility.yul\":396:399   */\n              dup6\n                /* \"#utility.yul\":372:413   */\n              tag_69\n              jump\t// in\n            tag_68:\n                /* \"#utility.yul\":91:419   */\n              pop\n                /* \"#utility.yul\":7:419   */\n              swap4\n              swap3\n              pop\n              pop\n              pop\n              jump\t// out\n                /* \"#utility.yul\":439:779   */\n            tag_70:\n                /* \"#utility.yul\":495:500   */\n              0x00\n                /* \"#utility.yul\":544:547   */\n              dup3\n                /* \"#utility.yul\":537:541   */\n              0x1f\n                /* \"#utility.yul\":529:535   */\n              dup4\n                /* \"#utility.yul\":525:542   */\n              add\n                /* \"#utility.yul\":521:548   */\n              slt\n                /* \"#utility.yul\":511:633   */\n              tag_72\n              jumpi\n                /* \"#utility.yul\":552:631   */\n              tag_73\n              tag_74\n              jump\t// in\n            tag_73:\n                /* \"#utility.yul\":511:633   */\n            tag_72:\n                /* \"#utility.yul\":669:675   */\n              dup2\n                /* \"#utility.yul\":656:676   */\n              calldataload\n                /* \"#utility.yul\":694:773   */\n              tag_75\n                /* \"#utility.yul\":769:772   */\n              dup5\n                /* \"#utility.yul\":761:767   */\n              dup3\n                /* \"#utility.yul\":754:758   */\n              0x20\n                /* \"#utility.yul\":746:752   */\n              dup7\n                /* \"#utility.yul\":742:759   */\n              add\n                /* \"#utility.yul\":694:773   */\n              tag_59\n              jump\t// in\n            tag_75:\n                /* \"#utility.yul\":685:773   */\n              swap2\n              pop\n                /* \"#utility.yul\":501:779   */\n              pop\n                /* \"#utility.yul\":439:779   */\n              swap3\n              swap2\n              pop\n              pop\n              jump\t// out\n                /* \"#utility.yul\":785:924   */\n            tag_76:\n                /* \"#utility.yul\":831:836   */\n              0x00\n                /* \"#utility.yul\":869:875   */\n              dup2\n                /* \"#utility.yul\":856:876   */\n              calldataload\n                /* \"#utility.yul\":847:876   */\n              swap1\n              pop\n                /* \"#utility.yul\":885:918   */\n              tag_78\n                /* \"#utility.yul\":912:917   */\n              dup2\n                /* \"#utility.yul\":885:918   */\n              tag_79\n              jump\t// in\n            tag_78:\n                /* \"#utility.yul\":785:924   */\n              swap3\n              swap2\n              pop\n              pop\n              jump\t// out\n                /* \"#utility.yul\":930:1584   */\n            tag_10:\n                /* \"#utility.yul\":1008:1014   */\n              0x00\n                /* \"#utility.yul\":1016:1022   */\n              dup1\n                /* \"#utility.yul\":1065:1067   */\n              0x40\n                /* \"#utility.yul\":1053:1062   */\n              dup4\n                /* \"#utility.yul\":1044:1051   */\n              dup6\n                /* \"#utility.yul\":1040:1063   */\n              sub\n                /* \"#utility.yul\":1036:1068   */\n              slt\n                /* \"#utility.yul\":1033:1152   */\n              iszero\n              tag_81\n              jumpi\n                /* \"#utility.yul\":1071:1150   */\n              tag_82\n              tag_83\n              jump\t// in\n            tag_82:\n                /* \"#utility.yul\":1033:1152   */\n            tag_81:\n                /* \"#utility.yul\":1219:1220   */\n              0x00\n                /* \"#utility.yul\":1208:1217   */\n              dup4\n                /* \"#utility.yul\":1204:1221   */\n              add\n                /* \"#utility.yul\":1191:1222   */\n              calldataload\n                /* \"#utility.yul\":1249:1267   */\n              0xffffffffffffffff\n                /* \"#utility.yul\":1241:1247   */\n              dup2\n                /* \"#utility.yul\":1238:1268   */\n              gt\n                /* \"#utility.yul\":1235:1352   */\n              iszero\n              tag_84\n              jumpi\n                /* \"#utility.yul\":1271:1350   */\n              tag_85\n              tag_86\n              jump\t// in\n            tag_85:\n                /* \"#utility.yul\":1235:1352   */\n            tag_84:\n                /* \"#utility.yul\":1376:1439   */\n              tag_87\n                /* \"#utility.yul\":1431:1438   */\n              dup6\n                /* \"#utility.yul\":1422:1428   */\n              dup3\n                /* \"#utility.yul\":1411:1420   */\n              dup7\n                /* \"#utility.yul\":1407:1429   */\n              add\n                /* \"#utility.yul\":1376:1439   */\n              tag_70\n              jump\t// in\n            tag_87:\n                /* \"#utility.yul\":1366:1439   */\n              swap3\n              pop\n                /* \"#utility.yul\":1162:1449   */\n              pop\n                /* \"#utility.yul\":1488:1490   */\n              0x20\n                /* \"#utility.yul\":1514:1567   */\n              tag_88\n                /* \"#utility.yul\":1559:1566   */\n              dup6\n                /* \"#utility.yul\":1550:1556   */\n              dup3\n                /* \"#utility.yul\":1539:1548   */\n              dup7\n                /* \"#utility.yul\":1535:1557   */\n              add\n                /* \"#utility.yul\":1514:1567   */\n              tag_76\n              jump\t// in\n            tag_88:\n                /* \"#utility.yul\":1504:1567   */\n              swap2\n              pop\n                /* \"#utility.yul\":1459:1577   */\n              pop\n                /* \"#utility.yul\":930:1584   */\n              swap3\n              pop\n              swap3\n              swap1\n              pop\n              jump\t// out\n                /* \"#utility.yul\":1590:1919   */\n            tag_18:\n                /* \"#utility.yul\":1649:1655   */\n              0x00\n                /* \"#utility.yul\":1698:1700   */\n              0x20\n                /* \"#utility.yul\":1686:1695   */\n              dup3\n                /* \"#utility.yul\":1677:1684   */\n              dup5\n                /* \"#utility.yul\":1673:1696   */\n              sub\n                /* \"#utility.yul\":1669:1701   */\n              slt\n                /* \"#utility.yul\":1666:1785   */\n              iszero\n              tag_90\n              jumpi\n                /* \"#utility.yul\":1704:1783   */\n              tag_91\n              tag_83\n              jump\t// in\n            tag_91:\n                /* \"#utility.yul\":1666:1785   */\n            tag_90:\n                /* \"#utility.yul\":1824:1825   */\n              0x00\n                /* \"#utility.yul\":1849:1902   */\n              tag_92\n                /* \"#utility.yul\":1894:1901   */\n              dup5\n                /* \"#utility.yul\":1885:1891   */\n              dup3\n                /* \"#utility.yul\":1874:1883   */\n              dup6\n                /* \"#utility.yul\":1870:1892   */\n              add\n                /* \"#utility.yul\":1849:1902   */\n              tag_76\n              jump\t// in\n            tag_92:\n                /* \"#utility.yul\":1839:1902   */\n              swap2\n              pop\n                /* \"#utility.yul\":1795:1912   */\n              pop\n                /* \"#utility.yul\":1590:1919   */\n              swap3\n              swap2\n              pop\n              pop\n              jump\t// out\n                /* \"#utility.yul\":1925:2289   */\n            tag_93:\n                /* \"#utility.yul\":2013:2016   */\n              0x00\n                /* \"#utility.yul\":2041:2080   */\n              tag_95\n                /* \"#utility.yul\":2074:2079   */\n              dup3\n                /* \"#utility.yul\":2041:2080   */\n              tag_96\n              jump\t// in\n            tag_95:\n                /* \"#utility.yul\":2096:2167   */\n              tag_97\n                /* \"#utility.yul\":2160:2166   */\n              dup2\n                /* \"#utility.yul\":2155:2158   */\n              dup6\n                /* \"#utility.yul\":2096:2167   */\n              tag_98\n              jump\t// in\n            tag_97:\n                /* \"#utility.yul\":2089:2167   */\n              swap4\n              pop\n                /* \"#utility.yul\":2176:2228   */\n              tag_99\n                /* \"#utility.yul\":2221:2227   */\n              dup2\n                /* \"#utility.yul\":2216:2219   */\n              dup6\n                /* \"#utility.yul\":2209:2213   */\n              0x20\n                /* \"#utility.yul\":2202:2207   */\n              dup7\n                /* \"#utility.yul\":2198:2214   */\n              add\n                /* \"#utility.yul\":2176:2228   */\n              tag_100\n              jump\t// in\n            tag_99:\n                /* \"#utility.yul\":2253:2282   */\n              tag_101\n                /* \"#utility.yul\":2275:2281   */\n              dup2\n                /* \"#utility.yul\":2253:2282   */\n              tag_102\n              jump\t// in\n            tag_101:\n                /* \"#utility.yul\":2248:2251   */\n              dup5\n                /* \"#utility.yul\":2244:2283   */\n              add\n                /* \"#utility.yul\":2237:2283   */\n              swap2\n              pop\n                /* \"#utility.yul\":2017:2289   */\n              pop\n                /* \"#utility.yul\":1925:2289   */\n              swap3\n              swap2\n              pop\n              pop\n              jump\t// out\n                /* \"#utility.yul\":2295:2413   */\n            tag_103:\n                /* \"#utility.yul\":2382:2406   */\n              tag_105\n                /* \"#utility.yul\":2400:2405   */\n              dup2\n                /* \"#utility.yul\":2382:2406   */\n              tag_106\n              jump\t// in\n            tag_105:\n                /* \"#utility.yul\":2377:2380   */\n              dup3\n                /* \"#utility.yul\":2370:2407   */\n              mstore\n                /* \"#utility.yul\":2295:2413   */\n              pop\n              pop\n              jump\t// out\n                /* \"#utility.yul\":2419:2732   */\n            tag_21:\n                /* \"#utility.yul\":2532:2536   */\n              0x00\n                /* \"#utility.yul\":2570:2572   */\n              0x20\n                /* \"#utility.yul\":2559:2568   */\n              dup3\n                /* \"#utility.yul\":2555:2573   */\n              add\n                /* \"#utility.yul\":2547:2573   */\n              swap1\n              pop\n                /* \"#utility.yul\":2619:2628   */\n              dup2\n                /* \"#utility.yul\":2613:2617   */\n              dup2\n                /* \"#utility.yul\":2609:2629   */\n              sub\n                /* \"#utility.yul\":2605:2606   */\n              0x00\n                /* \"#utility.yul\":2594:2603   */\n              dup4\n                /* \"#utility.yul\":2590:2607   */\n              add\n                /* \"#utility.yul\":2583:2630   */\n              mstore\n                /* \"#utility.yul\":2647:2725   */\n              tag_108\n                /* \"#utility.yul\":2720:2724   */\n              dup2\n                /* \"#utility.yul\":2711:2717   */\n              dup5\n                /* \"#utility.yul\":2647:2725   */\n              tag_93\n              jump\t// in\n            tag_108:\n                /* \"#utility.yul\":2639:2725   */\n              swap1\n              pop\n                /* \"#utility.yul\":2419:2732   */\n              swap3\n              swap2\n              pop\n              pop\n              jump\t// out\n                /* \"#utility.yul\":2738:2960   */\n            tag_15:\n                /* \"#utility.yul\":2831:2835   */\n              0x00\n                /* \"#utility.yul\":2869:2871   */\n              0x20\n                /* \"#utility.yul\":2858:2867   */\n              dup3\n                /* \"#utility.yul\":2854:2872   */\n              add\n                /* \"#utility.yul\":2846:2872   */\n              swap1\n              pop\n                /* \"#utility.yul\":2882:2953   */\n              tag_110\n                /* \"#utility.yul\":2950:2951   */\n              0x00\n                /* \"#utility.yul\":2939:2948   */\n              dup4\n                /* \"#utility.yul\":2935:2952   */\n              add\n                /* \"#utility.yul\":2926:2932   */\n              dup5\n                /* \"#utility.yul\":2882:2953   */\n              tag_103\n              jump\t// in\n            tag_110:\n                /* \"#utility.yul\":2738:2960   */\n              swap3\n              swap2\n              pop\n              pop\n              jump\t// out\n                /* \"#utility.yul\":2966:3095   */\n            tag_64:\n                /* \"#utility.yul\":3000:3006   */\n              0x00\n                /* \"#utility.yul\":3027:3047   */\n              tag_112\n              tag_113\n              jump\t// in\n            tag_112:\n                /* \"#utility.yul\":3017:3047   */\n              swap1\n              pop\n                /* \"#utility.yul\":3056:3089   */\n              tag_114\n                /* \"#utility.yul\":3084:3088   */\n              dup3\n                /* \"#utility.yul\":3076:3082   */\n              dup3\n                /* \"#utility.yul\":3056:3089   */\n              tag_115\n              jump\t// in\n            tag_114:\n                /* \"#utility.yul\":2966:3095   */\n              swap2\n              swap1\n              pop\n              jump\t// out\n                /* \"#utility.yul\":3101:3176   */\n            tag_113:\n                /* \"#utility.yul\":3134:3140   */\n              0x00\n                /* \"#utility.yul\":3167:3169   */\n              0x40\n                /* \"#utility.yul\":3161:3170   */\n              mload\n                /* \"#utility.yul\":3151:3170   */\n              swap1\n              pop\n                /* \"#utility.yul\":3101:3176   */\n              swap1\n              jump\t// out\n                /* \"#utility.yul\":3182:3490   */\n            tag_63:\n                /* \"#utility.yul\":3244:3248   */\n              0x00\n                /* \"#utility.yul\":3334:3352   */\n              0xffffffffffffffff\n                /* \"#utility.yul\":3326:3332   */\n              dup3\n                /* \"#utility.yul\":3323:3353   */\n              gt\n                /* \"#utility.yul\":3320:3376   */\n              iszero\n              tag_118\n              jumpi\n                /* \"#utility.yul\":3356:3374   */\n              tag_119\n              tag_120\n              jump\t// in\n            tag_119:\n                /* \"#utility.yul\":3320:3376   */\n            tag_118:\n                /* \"#utility.yul\":3394:3423   */\n              tag_121\n                /* \"#utility.yul\":3416:3422   */\n              dup3\n                /* \"#utility.yul\":3394:3423   */\n              tag_102\n              jump\t// in\n            tag_121:\n                /* \"#utility.yul\":3386:3423   */\n              swap1\n              pop\n                /* \"#utility.yul\":3478:3482   */\n              0x20\n                /* \"#utility.yul\":3472:3476   */\n              dup2\n                /* \"#utility.yul\":3468:3483   */\n              add\n                /* \"#utility.yul\":3460:3483   */\n              swap1\n              pop\n                /* \"#utility.yul\":3182:3490   */\n              swap2\n              swap1\n              pop\n              jump\t// out\n                /* \"#utility.yul\":3496:3595   */\n            tag_96:\n                /* \"#utility.yul\":3548:3554   */\n              0x00\n                /* \"#utility.yul\":3582:3587   */\n              dup2\n                /* \"#utility.yul\":3576:3588   */\n              mload\n                /* \"#utility.yul\":3566:3588   */\n              swap1\n              pop\n                /* \"#utility.yul\":3496:3595   */\n              swap2\n              swap1\n              pop\n              jump\t// out\n                /* \"#utility.yul\":3601:3770   */\n            tag_98:\n                /* \"#utility.yul\":3685:3696   */\n              0x00\n                /* \"#utility.yul\":3719:3725   */\n              dup3\n                /* \"#utility.yul\":3714:3717   */\n              dup3\n                /* \"#utility.yul\":3707:3726   */\n              mstore\n                /* \"#utility.yul\":3759:3763   */\n              0x20\n                /* \"#utility.yul\":3754:3757   */\n              dup3\n                /* \"#utility.yul\":3750:3764   */\n              add\n                /* \"#utility.yul\":3735:3764   */\n              swap1\n              pop\n                /* \"#utility.yul\":3601:3770   */\n              swap3\n              swap2\n              pop\n              pop\n              jump\t// out\n                /* \"#utility.yul\":3776:3853   */\n            tag_106:\n                /* \"#utility.yul\":3813:3820   */\n              0x00\n                /* \"#utility.yul\":3842:3847   */\n              dup2\n                /* \"#utility.yul\":3831:3847   */\n              swap1\n              pop\n                /* \"#utility.yul\":3776:3853   */\n              swap2\n              swap1\n              pop\n              jump\t// out\n                /* \"#utility.yul\":3859:4013   */\n            tag_69:\n                /* \"#utility.yul\":3943:3949   */\n              dup3\n                /* \"#utility.yul\":3938:3941   */\n              dup2\n                /* \"#utility.yul\":3933:3936   */\n              dup4\n                /* \"#utility.yul\":3920:3950   */\n              calldatacopy\n                /* \"#utility.yul\":4005:4006   */\n              0x00\n                /* \"#utility.yul\":3996:4002   */\n              dup4\n                /* \"#utility.yul\":3991:3994   */\n              dup4\n                /* \"#utility.yul\":3987:4003   */\n              add\n                /* \"#utility.yul\":3980:4007   */\n              mstore\n                /* \"#utility.yul\":3859:4013   */\n              pop\n              pop\n              pop\n              jump\t// out\n                /* \"#utility.yul\":4019:4326   */\n            tag_100:\n                /* \"#utility.yul\":4087:4088   */\n              0x00\n                /* \"#utility.yul\":4097:4210   */\n            tag_127:\n                /* \"#utility.yul\":4111:4117   */\n              dup4\n                /* \"#utility.yul\":4108:4109   */\n              dup2\n                /* \"#utility.yul\":4105:4118   */\n              lt\n                /* \"#utility.yul\":4097:4210   */\n              iszero\n              tag_129\n              jumpi\n                /* \"#utility.yul\":4196:4197   */\n              dup1\n                /* \"#utility.yul\":4191:4194   */\n              dup3\n                /* \"#utility.yul\":4187:4198   */\n              add\n                /* \"#utility.yul\":4181:4199   */\n              mload\n                /* \"#utility.yul\":4177:4178   */\n              dup2\n                /* \"#utility.yul\":4172:4175   */\n              dup5\n                /* \"#utility.yul\":4168:4179   */\n              add\n                /* \"#utility.yul\":4161:4200   */\n              mstore\n                /* \"#utility.yul\":4133:4135   */\n              0x20\n                /* \"#utility.yul\":4130:4131   */\n              dup2\n                /* \"#utility.yul\":4126:4136   */\n              add\n                /* \"#utility.yul\":4121:4136   */\n              swap1\n              pop\n                /* \"#utility.yul\":4097:4210   */\n              jump(tag_127)\n            tag_129:\n                /* \"#utility.yul\":4228:4234   */\n              dup4\n                /* \"#utility.yul\":4225:4226   */\n              dup2\n                /* \"#utility.yul\":4222:4235   */\n              gt\n                /* \"#utility.yul\":4219:4320   */\n              iszero\n              tag_130\n              jumpi\n                /* \"#utility.yul\":4308:4309   */\n              0x00\n                /* \"#utility.yul\":4299:4305   */\n              dup5\n                /* \"#utility.yul\":4294:4297   */\n              dup5\n                /* \"#utility.yul\":4290:4306   */\n              add\n                /* \"#utility.yul\":4283:4310   */\n              mstore\n                /* \"#utility.yul\":4219:4320   */\n            tag_130:\n                /* \"#utility.yul\":4068:4326   */\n              pop\n                /* \"#utility.yul\":4019:4326   */\n              pop\n              pop\n              pop\n              jump\t// out\n                /* \"#utility.yul\":4332:4652   */\n            tag_36:\n                /* \"#utility.yul\":4376:4382   */\n              0x00\n                /* \"#utility.yul\":4413:4414   */\n              0x02\n                /* \"#utility.yul\":4407:4411   */\n              dup3\n                /* \"#utility.yul\":4403:4415   */\n              div\n                /* \"#utility.yul\":4393:4415   */\n              swap1\n              pop\n                /* \"#utility.yul\":4460:4461   */\n              0x01\n                /* \"#utility.yul\":4454:4458   */\n              dup3\n                /* \"#utility.yul\":4450:4462   */\n              and\n                /* \"#utility.yul\":4481:4499   */\n              dup1\n                /* \"#utility.yul\":4471:4552   */\n              tag_132\n              jumpi\n                /* \"#utility.yul\":4537:4541   */\n              0x7f\n                /* \"#utility.yul\":4529:4535   */\n              dup3\n                /* \"#utility.yul\":4525:4542   */\n              and\n                /* \"#utility.yul\":4515:4542   */\n              swap2\n              pop\n                /* \"#utility.yul\":4471:4552   */\n            tag_132:\n                /* \"#utility.yul\":4599:4601   */\n              0x20\n                /* \"#utility.yul\":4591:4597   */\n              dup3\n                /* \"#utility.yul\":4588:4602   */\n              lt\n                /* \"#utility.yul\":4568:4586   */\n              dup2\n                /* \"#utility.yul\":4565:4603   */\n              eq\n                /* \"#utility.yul\":4562:4646   */\n              iszero\n              tag_133\n              jumpi\n                /* \"#utility.yul\":4618:4636   */\n              tag_134\n              tag_135\n              jump\t// in\n            tag_134:\n                /* \"#utility.yul\":4562:4646   */\n            tag_133:\n                /* \"#utility.yul\":4383:4652   */\n              pop\n                /* \"#utility.yul\":4332:4652   */\n              swap2\n              swap1\n              pop\n              jump\t// out\n                /* \"#utility.yul\":4658:4939   */\n            tag_115:\n                /* \"#utility.yul\":4741:4768   */\n              tag_137\n                /* \"#utility.yul\":4763:4767   */\n              dup3\n                /* \"#utility.yul\":4741:4768   */\n              tag_102\n              jump\t// in\n            tag_137:\n                /* \"#utility.yul\":4733:4739   */\n              dup2\n                /* \"#utility.yul\":4729:4769   */\n              add\n                /* \"#utility.yul\":4871:4877   */\n              dup2\n                /* \"#utility.yul\":4859:4869   */\n              dup2\n                /* \"#utility.yul\":4856:4878   */\n              lt\n                /* \"#utility.yul\":4835:4853   */\n              0xffffffffffffffff\n                /* \"#utility.yul\":4823:4833   */\n              dup3\n                /* \"#utility.yul\":4820:4854   */\n              gt\n                /* \"#utility.yul\":4817:4879   */\n              or\n                /* \"#utility.yul\":4814:4902   */\n              iszero\n              tag_138\n              jumpi\n                /* \"#utility.yul\":4882:4900   */\n              tag_139\n              tag_120\n              jump\t// in\n            tag_139:\n                /* \"#utility.yul\":4814:4902   */\n            tag_138:\n                /* \"#utility.yul\":4922:4932   */\n              dup1\n                /* \"#utility.yul\":4918:4920   */\n              0x40\n                /* \"#utility.yul\":4911:4933   */\n              mstore\n                /* \"#utility.yul\":4701:4939   */\n              pop\n                /* \"#utility.yul\":4658:4939   */\n              pop\n              pop\n              jump\t// out\n                /* \"#utility.yul\":4945:5125   */\n            tag_135:\n                /* \"#utility.yul\":4993:5070   */\n              0x4e487b7100000000000000000000000000000000000000000000000000000000\n                /* \"#utility.yul\":4990:4991   */\n              0x00\n                /* \"#utility.yul\":4983:5071   */\n              mstore\n                /* \"#utility.yul\":5090:5094   */\n              0x22\n                /* \"#utility.yul\":5087:5088   */\n              0x04\n                /* \"#utility.yul\":5080:5095   */\n              mstore\n                /* \"#utility.yul\":5114:5118   */\n              0x24\n                /* \"#utility.yul\":5111:5112   */\n              0x00\n                /* \"#utility.yul\":5104:5119   */\n              revert\n                /* \"#utility.yul\":5131:5311   */\n            tag_120:\n                /* \"#utility.yul\":5179:5256   */\n              0x4e487b7100000000000000000000000000000000000000000000000000000000\n                /* \"#utility.yul\":5176:5177   */\n              0x00\n                /* \"#utility.yul\":5169:5257   */\n              mstore\n                /* \"#utility.yul\":5276:5280   */\n              0x41\n                /* \"#utility.yul\":5273:5274   */\n              0x04\n                /* \"#utility.yul\":5266:5281   */\n              mstore\n                /* \"#utility.yul\":5300:5304   */\n              0x24\n                /* \"#utility.yul\":5297:5298   */\n              0x00\n                /* \"#utility.yul\":5290:5305   */\n              revert\n                /* \"#utility.yul\":5317:5434   */\n            tag_74:\n                /* \"#utility.yul\":5426:5427   */\n              0x00\n                /* \"#utility.yul\":5423:5424   */\n              dup1\n                /* \"#utility.yul\":5416:5428   */\n              revert\n                /* \"#utility.yul\":5440:5557   */\n            tag_67:\n                /* \"#utility.yul\":5549:5550   */\n              0x00\n                /* \"#utility.yul\":5546:5547   */\n              dup1\n                /* \"#utility.yul\":5539:5551   */\n              revert\n                /* \"#utility.yul\":5563:5680   */\n            tag_86:\n                /* \"#utility.yul\":5672:5673   */\n              0x00\n                /* \"#utility.yul\":5669:5670   */\n              dup1\n                /* \"#utility.yul\":5662:5674   */\n              revert\n                /* \"#utility.yul\":5686:5803   */\n            tag_83:\n                /* \"#utility.yul\":5795:5796   */\n              0x00\n                /* \"#utility.yul\":5792:5793   */\n              dup1\n                /* \"#utility.yul\":5785:5797   */\n              revert\n                /* \"#utility.yul\":5809:5911   */\n            tag_102:\n                /* \"#utility.yul\":5850:5856   */\n              0x00\n                /* \"#utility.yul\":5901:5903   */\n              0x1f\n                /* \"#utility.yul\":5897:5904   */\n              not\n                /* \"#utility.yul\":5892:5894   */\n              0x1f\n                /* \"#utility.yul\":5885:5890   */\n              dup4\n                /* \"#utility.yul\":5881:5895   */\n              add\n                /* \"#utility.yul\":5877:5905   */\n              and\n                /* \"#utility.yul\":5867:5905   */\n              swap1\n              pop\n                /* \"#utility.yul\":5809:5911   */\n              swap2\n              swap1\n              pop\n              jump\t// out\n                /* \"#utility.yul\":5917:6039   */\n            tag_79:\n                /* \"#utility.yul\":5990:6014   */\n              tag_148\n                /* \"#utility.yul\":6008:6013   */\n              dup2\n                /* \"#utility.yul\":5990:6014   */\n              tag_106\n              jump\t// in\n            tag_148:\n                /* \"#utility.yul\":5983:5988   */\n              dup2\n                /* \"#utility.yul\":5980:6015   */\n              eq\n                /* \"#utility.yul\":5970:6033   */\n              tag_149\n              jumpi\n                /* \"#utility.yul\":6029:6030   */\n              0x00\n                /* \"#utility.yul\":6026:6027   */\n              dup1\n                /* \"#utility.yul\":6019:6031   */\n              revert\n                /* \"#utility.yul\":5970:6033   */\n            tag_149:\n                /* \"#utility.yul\":5917:6039   */\n              pop\n              jump\t// out\n\n            auxdata: 0xa2646970667358221220522b2bd761d420a7b2edb41d58941c03ed6c3d09ed2353e63132412d96f80f6c64736f6c63430008070033\n        }\n    }\n\n    auxdata: 0xa26469706673582212202ba97f92254e0297c01d760edf34fd8eb2408947eac091fbe9eefa4542e944b064736f6c63430008070033\n}\n",
				"bytecode": {
					"linkReferences": {},
					"object": "608060405234801561001057600080fd5b5061120c806100206000396000f3fe608060405234801561001057600080fd5b506004361061007d5760003560e01c80636be0d6bf1161005b5780636be0d6bf146100ec5780637574ede81461010a57806383eab6a214610126578063deae2adc146101425761007d565b806340d66b3b146100825780634bffb6be1461008c57806364591bf1146100bc575b600080fd5b61008a610172565b005b6100a660048036038101906100a191906106dc565b61025f565b6040516100b39190610896565b60405180910390f35b6100d660048036038101906100d191906106dc565b610324565b6040516100e39190610829565b60405180910390f35b6100f4610363565b6040516101019190610829565b60405180910390f35b610124600480360381019061011f9190610736565b610387565b005b610140600480360381019061013b91906106dc565b610418565b005b61015c60048036038101906101579190610792565b6104a6565b6040516101699190610844565b60405180910390f35b60405161017e9061057c565b604051809103906000f08015801561019a573d6000803e3d6000fd5b506000806101000a81548173ffffffffffffffffffffffffffffffffffffffff021916908373ffffffffffffffffffffffffffffffffffffffff160217905550600160008054906101000a900473ffffffffffffffffffffffffffffffffffffffff169080600181540180825580915050600190039060005260206000200160009091909190916101000a81548173ffffffffffffffffffffffffffffffffffffffff021916908373ffffffffffffffffffffffffffffffffffffffff160217905550565b600060018281548110610275576102746109f6565b5b9060005260206000200160009054906101000a900473ffffffffffffffffffffffffffffffffffffffff1673ffffffffffffffffffffffffffffffffffffffff16632e64cec16040518163ffffffff1660e01b815260040160206040518083038186803b1580156102e557600080fd5b505afa1580156102f9573d6000803e3d6000fd5b505050506040513d601f19601f8201168201806040525081019061031d9190610709565b9050919050565b6001818154811061033457600080fd5b906000526020600020016000915054906101000a900473ffffffffffffffffffffffffffffffffffffffff1681565b60008054906101000a900473ffffffffffffffffffffffffffffffffffffffff1681565b60008054906101000a900473ffffffffffffffffffffffffffffffffffffffff1673ffffffffffffffffffffffffffffffffffffffff16630e5eeef782846040518363ffffffff1660e01b81526004016103e2929190610866565b600060405180830381600087803b1580156103fc57600080fd5b505af1158015610410573d6000803e3d6000fd5b505050505050565b60008054906101000a900473ffffffffffffffffffffffffffffffffffffffff1673ffffffffffffffffffffffffffffffffffffffff16636057361d826040518263ffffffff1660e01b81526004016104719190610896565b600060405180830381600087803b15801561048b57600080fd5b505af115801561049f573d6000803e3d6000fd5b5050505050565b6060600183815481106104bc576104bb6109f6565b5b9060005260206000200160009054906101000a900473ffffffffffffffffffffffffffffffffffffffff1673ffffffffffffffffffffffffffffffffffffffff1663642f9163836040518263ffffffff1660e01b815260040161051f9190610896565b60006040518083038186803b15801561053757600080fd5b505afa15801561054b573d6000803e3d6000fd5b505050506040513d6000823e3d601f19601f820116820180604052508101906105749190610693565b905092915050565b61074680610a9183390190565b600061059c610597846108d6565b6108b1565b9050828152602081018484840111156105b8576105b7610a59565b5b6105c3848285610983565b509392505050565b60006105de6105d9846108d6565b6108b1565b9050828152602081018484840111156105fa576105f9610a59565b5b610605848285610992565b509392505050565b600082601f83011261062257610621610a54565b5b8135610632848260208601610589565b91505092915050565b600082601f8301126106505761064f610a54565b5b81516106608482602086016105cb565b91505092915050565b60008135905061067881610a79565b92915050565b60008151905061068d81610a79565b92915050565b6000602082840312156106a9576106a8610a63565b5b600082015167ffffffffffffffff8111156106c7576106c6610a5e565b5b6106d38482850161063b565b91505092915050565b6000602082840312156106f2576106f1610a63565b5b600061070084828501610669565b91505092915050565b60006020828403121561071f5761071e610a63565b5b600061072d8482850161067e565b91505092915050565b6000806040838503121561074d5761074c610a63565b5b600061075b85828601610669565b925050602083013567ffffffffffffffff81111561077c5761077b610a5e565b5b6107888582860161060d565b9150509250929050565b600080604083850312156107a9576107a8610a63565b5b60006107b785828601610669565b92505060206107c885828601610669565b9150509250929050565b6107db8161094d565b82525050565b60006107ec82610907565b6107f68185610912565b9350610806818560208601610992565b61080f81610a68565b840191505092915050565b61082381610943565b82525050565b600060208201905061083e60008301846107d2565b92915050565b6000602082019050818103600083015261085e81846107e1565b905092915050565b6000604082019050818103600083015261088081856107e1565b905061088f602083018461081a565b9392505050565b60006020820190506108ab600083018461081a565b92915050565b60006108bb6108cc565b90506108c782826109c5565b919050565b6000604051905090565b600067ffffffffffffffff8211156108f1576108f0610a25565b5b6108fa82610a68565b9050602081019050919050565b600081519050919050565b600082825260208201905092915050565b600073ffffffffffffffffffffffffffffffffffffffff82169050919050565b6000819050919050565b60006109588261095f565b9050919050565b600061096a82610971565b9050919050565b600061097c82610923565b9050919050565b82818337600083830152505050565b60005b838110156109b0578082015181840152602081019050610995565b838111156109bf576000848401525b50505050565b6109ce82610a68565b810181811067ffffffffffffffff821117156109ed576109ec610a25565b5b80604052505050565b7f4e487b7100000000000000000000000000000000000000000000000000000000600052603260045260246000fd5b7f4e487b7100000000000000000000000000000000000000000000000000000000600052604160045260246000fd5b600080fd5b600080fd5b600080fd5b600080fd5b6000601f19601f8301169050919050565b610a8281610943565b8114610a8d57600080fd5b5056fe608060405234801561001057600080fd5b50610726806100206000396000f3fe608060405234801561001057600080fd5b50600436106100575760003560e01c80630e5eeef71461005c5780632e64cec1146100785780635457b83f146100965780636057361d146100c6578063642f9163146100e2575b600080fd5b61007660048036038101906100719190610427565b610112565b005b6100806101a7565b60405161008d919061051a565b60405180910390f35b6100b060048036038101906100ab9190610483565b6101b0565b6040516100bd91906104f8565b60405180910390f35b6100e060048036038101906100db9190610483565b610250565b005b6100fc60048036038101906100f79190610483565b61025a565b60405161010991906104f8565b60405180910390f35b600160405180604001604052808381526020018481525090806001815401808255809150506001900390600052602060002090600202016000909190919091506000820151816000015560208201518160010190805190602001906101789291906102ff565b505050816002600083815260200190815260200160002090805190602001906101a29291906102ff565b505050565b60008054905090565b600260205280600052604060002060009150905080546101cf906105f3565b80601f01602080910402602001604051908101604052809291908181526020018280546101fb906105f3565b80156102485780601f1061021d57610100808354040283529160200191610248565b820191906000526020600020905b81548152906001019060200180831161022b57829003601f168201915b505050505081565b8060008190555050565b606060026000838152602001908152602001600020805461027a906105f3565b80601f01602080910402602001604051908101604052809291908181526020018280546102a6906105f3565b80156102f35780601f106102c8576101008083540402835291602001916102f3565b820191906000526020600020905b8154815290600101906020018083116102d657829003601f168201915b50505050509050919050565b82805461030b906105f3565b90600052602060002090601f01602090048101928261032d5760008555610374565b82601f1061034657805160ff1916838001178555610374565b82800160010185558215610374579182015b82811115610373578251825591602001919060010190610358565b5b5090506103819190610385565b5090565b5b8082111561039e576000816000905550600101610386565b5090565b60006103b56103b08461055a565b610535565b9050828152602081018484840111156103d1576103d06106b9565b5b6103dc8482856105b1565b509392505050565b600082601f8301126103f9576103f86106b4565b5b81356104098482602086016103a2565b91505092915050565b600081359050610421816106d9565b92915050565b6000806040838503121561043e5761043d6106c3565b5b600083013567ffffffffffffffff81111561045c5761045b6106be565b5b610468858286016103e4565b925050602061047985828601610412565b9150509250929050565b600060208284031215610499576104986106c3565b5b60006104a784828501610412565b91505092915050565b60006104bb8261058b565b6104c58185610596565b93506104d58185602086016105c0565b6104de816106c8565b840191505092915050565b6104f2816105a7565b82525050565b6000602082019050818103600083015261051281846104b0565b905092915050565b600060208201905061052f60008301846104e9565b92915050565b600061053f610550565b905061054b8282610625565b919050565b6000604051905090565b600067ffffffffffffffff82111561057557610574610685565b5b61057e826106c8565b9050602081019050919050565b600081519050919050565b600082825260208201905092915050565b6000819050919050565b82818337600083830152505050565b60005b838110156105de5780820151818401526020810190506105c3565b838111156105ed576000848401525b50505050565b6000600282049050600182168061060b57607f821691505b6020821081141561061f5761061e610656565b5b50919050565b61062e826106c8565b810181811067ffffffffffffffff8211171561064d5761064c610685565b5b80604052505050565b7f4e487b7100000000000000000000000000000000000000000000000000000000600052602260045260246000fd5b7f4e487b7100000000000000000000000000000000000000000000000000000000600052604160045260246000fd5b600080fd5b600080fd5b600080fd5b600080fd5b6000601f19601f8301169050919050565b6106e2816105a7565b81146106ed57600080fd5b5056fea2646970667358221220522b2bd761d420a7b2edb41d58941c03ed6c3d09ed2353e63132412d96f80f6c64736f6c63430008070033a26469706673582212202ba97f92254e0297c01d760edf34fd8eb2408947eac091fbe9eefa4542e944b064736f6c63430008070033",
					"opcodes": "PUSH1 0x80 PUSH1 0x40 MSTORE CALLVALUE DUP1 ISZERO PUSH2 0x10 JUMPI PUSH1 0x0 DUP1 REVERT JUMPDEST POP PUSH2 0x120C DUP1 PUSH2 0x20 PUSH1 0x0 CODECOPY PUSH1 0x0 RETURN INVALID PUSH1 0x80 PUSH1 0x40 MSTORE CALLVALUE DUP1 ISZERO PUSH2 0x10 JUMPI PUSH1 0x0 DUP1 REVERT JUMPDEST POP PUSH1 0x4 CALLDATASIZE LT PUSH2 0x7D JUMPI PUSH1 0x0 CALLDATALOAD PUSH1 0xE0 SHR DUP1 PUSH4 0x6BE0D6BF GT PUSH2 0x5B JUMPI DUP1 PUSH4 0x6BE0D6BF EQ PUSH2 0xEC JUMPI DUP1 PUSH4 0x7574EDE8 EQ PUSH2 0x10A JUMPI DUP1 PUSH4 0x83EAB6A2 EQ PUSH2 0x126 JUMPI DUP1 PUSH4 0xDEAE2ADC EQ PUSH2 0x142 JUMPI PUSH2 0x7D JUMP JUMPDEST DUP1 PUSH4 0x40D66B3B EQ PUSH2 0x82 JUMPI DUP1 PUSH4 0x4BFFB6BE EQ PUSH2 0x8C JUMPI DUP1 PUSH4 0x64591BF1 EQ PUSH2 0xBC JUMPI JUMPDEST PUSH1 0x0 DUP1 REVERT JUMPDEST PUSH2 0x8A PUSH2 0x172 JUMP JUMPDEST STOP JUMPDEST PUSH2 0xA6 PUSH1 0x4 DUP1 CALLDATASIZE SUB DUP2 ADD SWAP1 PUSH2 0xA1 SWAP2 SWAP1 PUSH2 0x6DC JUMP JUMPDEST PUSH2 0x25F JUMP JUMPDEST PUSH1 0x40 MLOAD PUSH2 0xB3 SWAP2 SWAP1 PUSH2 0x896 JUMP JUMPDEST PUSH1 0x40 MLOAD DUP1 SWAP2 SUB SWAP1 RETURN JUMPDEST PUSH2 0xD6 PUSH1 0x4 DUP1 CALLDATASIZE SUB DUP2 ADD SWAP1 PUSH2 0xD1 SWAP2 SWAP1 PUSH2 0x6DC JUMP JUMPDEST PUSH2 0x324 JUMP JUMPDEST PUSH1 0x40 MLOAD PUSH2 0xE3 SWAP2 SWAP1 PUSH2 0x829 JUMP JUMPDEST PUSH1 0x40 MLOAD DUP1 SWAP2 SUB SWAP1 RETURN JUMPDEST PUSH2 0xF4 PUSH2 0x363 JUMP JUMPDEST PUSH1 0x40 MLOAD PUSH2 0x101 SWAP2 SWAP1 PUSH2 0x829 JUMP JUMPDEST PUSH1 0x40 MLOAD DUP1 SWAP2 SUB SWAP1 RETURN JUMPDEST PUSH2 0x124 PUSH1 0x4 DUP1 CALLDATASIZE SUB DUP2 ADD SWAP1 PUSH2 0x11F SWAP2 SWAP1 PUSH2 0x736 JUMP JUMPDEST PUSH2 0x387 JUMP JUMPDEST STOP JUMPDEST PUSH2 0x140 PUSH1 0x4 DUP1 CALLDATASIZE SUB DUP2 ADD SWAP1 PUSH2 0x13B SWAP2 SWAP1 PUSH2 0x6DC JUMP JUMPDEST PUSH2 0x418 JUMP JUMPDEST STOP JUMPDEST PUSH2 0x15C PUSH1 0x4 DUP1 CALLDATASIZE SUB DUP2 ADD SWAP1 PUSH2 0x157 SWAP2 SWAP1 PUSH2 0x792 JUMP JUMPDEST PUSH2 0x4A6 JUMP JUMPDEST PUSH1 0x40 MLOAD PUSH2 0x169 SWAP2 SWAP1 PUSH2 0x844 JUMP JUMPDEST PUSH1 0x40 MLOAD DUP1 SWAP2 SUB SWAP1 RETURN JUMPDEST PUSH1 0x40 MLOAD PUSH2 0x17E SWAP1 PUSH2 0x57C JUMP JUMPDEST PUSH1 0x40 MLOAD DUP1 SWAP2 SUB SWAP1 PUSH1 0x0 CREATE DUP1 ISZERO DUP1 ISZERO PUSH2 0x19A JUMPI RETURNDATASIZE PUSH1 0x0 DUP1 RETURNDATACOPY RETURNDATASIZE PUSH1 0x0 REVERT JUMPDEST POP PUSH1 0x0 DUP1 PUSH2 0x100 EXP DUP2 SLOAD DUP2 PUSH20 0xFFFFFFFFFFFFFFFFFFFFFFFFFFFFFFFFFFFFFFFF MUL NOT AND SWAP1 DUP4 PUSH20 0xFFFFFFFFFFFFFFFFFFFFFFFFFFFFFFFFFFFFFFFF AND MUL OR SWAP1 SSTORE POP PUSH1 0x1 PUSH1 0x0 DUP1 SLOAD SWAP1 PUSH2 0x100 EXP SWAP1 DIV PUSH20 0xFFFFFFFFFFFFFFFFFFFFFFFFFFFFFFFFFFFFFFFF AND SWAP1 DUP1 PUSH1 0x1 DUP2 SLOAD ADD DUP1 DUP3 SSTORE DUP1 SWAP2 POP POP PUSH1 0x1 SWAP1 SUB SWAP1 PUSH1 0x0 MSTORE PUSH1 0x20 PUSH1 0x0 KECCAK256 ADD PUSH1 0x0 SWAP1 SWAP2 SWAP1 SWAP2 SWAP1 SWAP2 PUSH2 0x100 EXP DUP2 SLOAD DUP2 PUSH20 0xFFFFFFFFFFFFFFFFFFFFFFFFFFFFFFFFFFFFFFFF MUL NOT AND SWAP1 DUP4 PUSH20 0xFFFFFFFFFFFFFFFFFFFFFFFFFFFFFFFFFFFFFFFF AND MUL OR SWAP1 SSTORE POP JUMP JUMPDEST PUSH1 0x0 PUSH1 0x1 DUP3 DUP2 SLOAD DUP2 LT PUSH2 0x275 JUMPI PUSH2 0x274 PUSH2 0x9F6 JUMP JUMPDEST JUMPDEST SWAP1 PUSH1 0x0 MSTORE PUSH1 0x20 PUSH1 0x0 KECCAK256 ADD PUSH1 0x0 SWAP1 SLOAD SWAP1 PUSH2 0x100 EXP SWAP1 DIV PUSH20 0xFFFFFFFFFFFFFFFFFFFFFFFFFFFFFFFFFFFFFFFF AND PUSH20 0xFFFFFFFFFFFFFFFFFFFFFFFFFFFFFFFFFFFFFFFF AND PUSH4 0x2E64CEC1 PUSH1 0x40 MLOAD DUP2 PUSH4 0xFFFFFFFF AND PUSH1 0xE0 SHL DUP2 MSTORE PUSH1 0x4 ADD PUSH1 0x20 PUSH1 0x40 MLOAD DUP1 DUP4 SUB DUP2 DUP7 DUP1 EXTCODESIZE ISZERO DUP1 ISZERO PUSH2 0x2E5 JUMPI PUSH1 0x0 DUP1 REVERT JUMPDEST POP GAS STATICCALL ISZERO DUP1 ISZERO PUSH2 0x2F9 JUMPI RETURNDATASIZE PUSH1 0x0 DUP1 RETURNDATACOPY RETURNDATASIZE PUSH1 0x0 REVERT JUMPDEST POP POP POP POP PUSH1 0x40 MLOAD RETURNDATASIZE PUSH1 0x1F NOT PUSH1 0x1F DUP3 ADD AND DUP3 ADD DUP1 PUSH1 0x40 MSTORE POP DUP2 ADD SWAP1 PUSH2 0x31D SWAP2 SWAP1 PUSH2 0x709 JUMP JUMPDEST SWAP1 POP SWAP2 SWAP1 POP JUMP JUMPDEST PUSH1 0x1 DUP2 DUP2 SLOAD DUP2 LT PUSH2 0x334 JUMPI PUSH1 0x0 DUP1 REVERT JUMPDEST SWAP1 PUSH1 0x0 MSTORE PUSH1 0x20 PUSH1 0x0 KECCAK256 ADD PUSH1 0x0 SWAP2 POP SLOAD SWAP1 PUSH2 0x100 EXP SWAP1 DIV PUSH20 0xFFFFFFFFFFFFFFFFFFFFFFFFFFFFFFFFFFFFFFFF AND DUP2 JUMP JUMPDEST PUSH1 0x0 DUP1 SLOAD SWAP1 PUSH2 0x100 EXP SWAP1 DIV PUSH20 0xFFFFFFFFFFFFFFFFFFFFFFFFFFFFFFFFFFFFFFFF AND DUP2 JUMP JUMPDEST PUSH1 0x0 DUP1 SLOAD SWAP1 PUSH2 0x100 EXP SWAP1 DIV PUSH20 0xFFFFFFFFFFFFFFFFFFFFFFFFFFFFFFFFFFFFFFFF AND PUSH20 0xFFFFFFFFFFFFFFFFFFFFFFFFFFFFFFFFFFFFFFFF AND PUSH4 0xE5EEEF7 DUP3 DUP5 PUSH1 0x40 MLOAD DUP4 PUSH4 0xFFFFFFFF AND PUSH1 0xE0 SHL DUP2 MSTORE PUSH1 0x4 ADD PUSH2 0x3E2 SWAP3 SWAP2 SWAP1 PUSH2 0x866 JUMP JUMPDEST PUSH1 0x0 PUSH1 0x40 MLOAD DUP1 DUP4 SUB DUP2 PUSH1 0x0 DUP8 DUP1 EXTCODESIZE ISZERO DUP1 ISZERO PUSH2 0x3FC JUMPI PUSH1 0x0 DUP1 REVERT JUMPDEST POP GAS CALL ISZERO DUP1 ISZERO PUSH2 0x410 JUMPI RETURNDATASIZE PUSH1 0x0 DUP1 RETURNDATACOPY RETURNDATASIZE PUSH1 0x0 REVERT JUMPDEST POP POP POP POP POP POP JUMP JUMPDEST PUSH1 0x0 DUP1 SLOAD SWAP1 PUSH2 0x100 EXP SWAP1 DIV PUSH20 0xFFFFFFFFFFFFFFFFFFFFFFFFFFFFFFFFFFFFFFFF AND PUSH20 0xFFFFFFFFFFFFFFFFFFFFFFFFFFFFFFFFFFFFFFFF AND PUSH4 0x6057361D DUP3 PUSH1 0x40 MLOAD DUP3 PUSH4 0xFFFFFFFF AND PUSH1 0xE0 SHL DUP2 MSTORE PUSH1 0x4 ADD PUSH2 0x471 SWAP2 SWAP1 PUSH2 0x896 JUMP JUMPDEST PUSH1 0x0 PUSH1 0x40 MLOAD DUP1 DUP4 SUB DUP2 PUSH1 0x0 DUP8 DUP1 EXTCODESIZE ISZERO DUP1 ISZERO PUSH2 0x48B JUMPI PUSH1 0x0 DUP1 REVERT JUMPDEST POP GAS CALL ISZERO DUP1 ISZERO PUSH2 0x49F JUMPI RETURNDATASIZE PUSH1 0x0 DUP1 RETURNDATACOPY RETURNDATASIZE PUSH1 0x0 REVERT JUMPDEST POP POP POP POP POP JUMP JUMPDEST PUSH1 0x60 PUSH1 0x1 DUP4 DUP2 SLOAD DUP2 LT PUSH2 0x4BC JUMPI PUSH2 0x4BB PUSH2 0x9F6 JUMP JUMPDEST JUMPDEST SWAP1 PUSH1 0x0 MSTORE PUSH1 0x20 PUSH1 0x0 KECCAK256 ADD PUSH1 0x0 SWAP1 SLOAD SWAP1 PUSH2 0x100 EXP SWAP1 DIV PUSH20 0xFFFFFFFFFFFFFFFFFFFFFFFFFFFFFFFFFFFFFFFF AND PUSH20 0xFFFFFFFFFFFFFFFFFFFFFFFFFFFFFFFFFFFFFFFF AND PUSH4 0x642F9163 DUP4 PUSH1 0x40 MLOAD DUP3 PUSH4 0xFFFFFFFF AND PUSH1 0xE0 SHL DUP2 MSTORE PUSH1 0x4 ADD PUSH2 0x51F SWAP2 SWAP1 PUSH2 0x896 JUMP JUMPDEST PUSH1 0x0 PUSH1 0x40 MLOAD DUP1 DUP4 SUB DUP2 DUP7 DUP1 EXTCODESIZE ISZERO DUP1 ISZERO PUSH2 0x537 JUMPI PUSH1 0x0 DUP1 REVERT JUMPDEST POP GAS STATICCALL ISZERO DUP1 ISZERO PUSH2 0x54B JUMPI RETURNDATASIZE PUSH1 0x0 DUP1 RETURNDATACOPY RETURNDATASIZE PUSH1 0x0 REVERT JUMPDEST POP POP POP POP PUSH1 0x40 MLOAD RETURNDATASIZE PUSH1 0x0 DUP3 RETURNDATACOPY RETURNDATASIZE PUSH1 0x1F NOT PUSH1 0x1F DUP3 ADD AND DUP3 ADD DUP1 PUSH1 0x40 MSTORE POP DUP2 ADD SWAP1 PUSH2 0x574 SWAP2 SWAP1 PUSH2 0x693 JUMP JUMPDEST SWAP1 POP SWAP3 SWAP2 POP POP JUMP JUMPDEST PUSH2 0x746 DUP1 PUSH2 0xA91 DUP4 CODECOPY ADD SWAP1 JUMP JUMPDEST PUSH1 0x0 PUSH2 0x59C PUSH2 0x597 DUP5 PUSH2 0x8D6 JUMP JUMPDEST PUSH2 0x8B1 JUMP JUMPDEST SWAP1 POP DUP3 DUP2 MSTORE PUSH1 0x20 DUP2 ADD DUP5 DUP5 DUP5 ADD GT ISZERO PUSH2 0x5B8 JUMPI PUSH2 0x5B7 PUSH2 0xA59 JUMP JUMPDEST JUMPDEST PUSH2 0x5C3 DUP5 DUP3 DUP6 PUSH2 0x983 JUMP JUMPDEST POP SWAP4 SWAP3 POP POP POP JUMP JUMPDEST PUSH1 0x0 PUSH2 0x5DE PUSH2 0x5D9 DUP5 PUSH2 0x8D6 JUMP JUMPDEST PUSH2 0x8B1 JUMP JUMPDEST SWAP1 POP DUP3 DUP2 MSTORE PUSH1 0x20 DUP2 ADD DUP5 DUP5 DUP5 ADD GT ISZERO PUSH2 0x5FA JUMPI PUSH2 0x5F9 PUSH2 0xA59 JUMP JUMPDEST JUMPDEST PUSH2 0x605 DUP5 DUP3 DUP6 PUSH2 0x992 JUMP JUMPDEST POP SWAP4 SWAP3 POP POP POP JUMP JUMPDEST PUSH1 0x0 DUP3 PUSH1 0x1F DUP4 ADD SLT PUSH2 0x622 JUMPI PUSH2 0x621 PUSH2 0xA54 JUMP JUMPDEST JUMPDEST DUP2 CALLDATALOAD PUSH2 0x632 DUP5 DUP3 PUSH1 0x20 DUP7 ADD PUSH2 0x589 JUMP JUMPDEST SWAP2 POP POP SWAP3 SWAP2 POP POP JUMP JUMPDEST PUSH1 0x0 DUP3 PUSH1 0x1F DUP4 ADD SLT PUSH2 0x650 JUMPI PUSH2 0x64F PUSH2 0xA54 JUMP JUMPDEST JUMPDEST DUP2 MLOAD PUSH2 0x660 DUP5 DUP3 PUSH1 0x20 DUP7 ADD PUSH2 0x5CB JUMP JUMPDEST SWAP2 POP POP SWAP3 SWAP2 POP POP JUMP JUMPDEST PUSH1 0x0 DUP2 CALLDATALOAD SWAP1 POP PUSH2 0x678 DUP2 PUSH2 0xA79 JUMP JUMPDEST SWAP3 SWAP2 POP POP JUMP JUMPDEST PUSH1 0x0 DUP2 MLOAD SWAP1 POP PUSH2 0x68D DUP2 PUSH2 0xA79 JUMP JUMPDEST SWAP3 SWAP2 POP POP JUMP JUMPDEST PUSH1 0x0 PUSH1 0x20 DUP3 DUP5 SUB SLT ISZERO PUSH2 0x6A9 JUMPI PUSH2 0x6A8 PUSH2 0xA63 JUMP JUMPDEST JUMPDEST PUSH1 0x0 DUP3 ADD MLOAD PUSH8 0xFFFFFFFFFFFFFFFF DUP2 GT ISZERO PUSH2 0x6C7 JUMPI PUSH2 0x6C6 PUSH2 0xA5E JUMP JUMPDEST JUMPDEST PUSH2 0x6D3 DUP5 DUP3 DUP6 ADD PUSH2 0x63B JUMP JUMPDEST SWAP2 POP POP SWAP3 SWAP2 POP POP JUMP JUMPDEST PUSH1 0x0 PUSH1 0x20 DUP3 DUP5 SUB SLT ISZERO PUSH2 0x6F2 JUMPI PUSH2 0x6F1 PUSH2 0xA63 JUMP JUMPDEST JUMPDEST PUSH1 0x0 PUSH2 0x700 DUP5 DUP3 DUP6 ADD PUSH2 0x669 JUMP JUMPDEST SWAP2 POP POP SWAP3 SWAP2 POP POP JUMP JUMPDEST PUSH1 0x0 PUSH1 0x20 DUP3 DUP5 SUB SLT ISZERO PUSH2 0x71F JUMPI PUSH2 0x71E PUSH2 0xA63 JUMP JUMPDEST JUMPDEST PUSH1 0x0 PUSH2 0x72D DUP5 DUP3 DUP6 ADD PUSH2 0x67E JUMP JUMPDEST SWAP2 POP POP SWAP3 SWAP2 POP POP JUMP JUMPDEST PUSH1 0x0 DUP1 PUSH1 0x40 DUP4 DUP6 SUB SLT ISZERO PUSH2 0x74D JUMPI PUSH2 0x74C PUSH2 0xA63 JUMP JUMPDEST JUMPDEST PUSH1 0x0 PUSH2 0x75B DUP6 DUP3 DUP7 ADD PUSH2 0x669 JUMP JUMPDEST SWAP3 POP POP PUSH1 0x20 DUP4 ADD CALLDATALOAD PUSH8 0xFFFFFFFFFFFFFFFF DUP2 GT ISZERO PUSH2 0x77C JUMPI PUSH2 0x77B PUSH2 0xA5E JUMP JUMPDEST JUMPDEST PUSH2 0x788 DUP6 DUP3 DUP7 ADD PUSH2 0x60D JUMP JUMPDEST SWAP2 POP POP SWAP3 POP SWAP3 SWAP1 POP JUMP JUMPDEST PUSH1 0x0 DUP1 PUSH1 0x40 DUP4 DUP6 SUB SLT ISZERO PUSH2 0x7A9 JUMPI PUSH2 0x7A8 PUSH2 0xA63 JUMP JUMPDEST JUMPDEST PUSH1 0x0 PUSH2 0x7B7 DUP6 DUP3 DUP7 ADD PUSH2 0x669 JUMP JUMPDEST SWAP3 POP POP PUSH1 0x20 PUSH2 0x7C8 DUP6 DUP3 DUP7 ADD PUSH2 0x669 JUMP JUMPDEST SWAP2 POP POP SWAP3 POP SWAP3 SWAP1 POP JUMP JUMPDEST PUSH2 0x7DB DUP2 PUSH2 0x94D JUMP JUMPDEST DUP3 MSTORE POP POP JUMP JUMPDEST PUSH1 0x0 PUSH2 0x7EC DUP3 PUSH2 0x907 JUMP JUMPDEST PUSH2 0x7F6 DUP2 DUP6 PUSH2 0x912 JUMP JUMPDEST SWAP4 POP PUSH2 0x806 DUP2 DUP6 PUSH1 0x20 DUP7 ADD PUSH2 0x992 JUMP JUMPDEST PUSH2 0x80F DUP2 PUSH2 0xA68 JUMP JUMPDEST DUP5 ADD SWAP2 POP POP SWAP3 SWAP2 POP POP JUMP JUMPDEST PUSH2 0x823 DUP2 PUSH2 0x943 JUMP JUMPDEST DUP3 MSTORE POP POP JUMP JUMPDEST PUSH1 0x0 PUSH1 0x20 DUP3 ADD SWAP1 POP PUSH2 0x83E PUSH1 0x0 DUP4 ADD DUP5 PUSH2 0x7D2 JUMP JUMPDEST SWAP3 SWAP2 POP POP JUMP JUMPDEST PUSH1 0x0 PUSH1 0x20 DUP3 ADD SWAP1 POP DUP2 DUP2 SUB PUSH1 0x0 DUP4 ADD MSTORE PUSH2 0x85E DUP2 DUP5 PUSH2 0x7E1 JUMP JUMPDEST SWAP1 POP SWAP3 SWAP2 POP POP JUMP JUMPDEST PUSH1 0x0 PUSH1 0x40 DUP3 ADD SWAP1 POP DUP2 DUP2 SUB PUSH1 0x0 DUP4 ADD MSTORE PUSH2 0x880 DUP2 DUP6 PUSH2 0x7E1 JUMP JUMPDEST SWAP1 POP PUSH2 0x88F PUSH1 0x20 DUP4 ADD DUP5 PUSH2 0x81A JUMP JUMPDEST SWAP4 SWAP3 POP POP POP JUMP JUMPDEST PUSH1 0x0 PUSH1 0x20 DUP3 ADD SWAP1 POP PUSH2 0x8AB PUSH1 0x0 DUP4 ADD DUP5 PUSH2 0x81A JUMP JUMPDEST SWAP3 SWAP2 POP POP JUMP JUMPDEST PUSH1 0x0 PUSH2 0x8BB PUSH2 0x8CC JUMP JUMPDEST SWAP1 POP PUSH2 0x8C7 DUP3 DUP3 PUSH2 0x9C5 JUMP JUMPDEST SWAP2 SWAP1 POP JUMP JUMPDEST PUSH1 0x0 PUSH1 0x40 MLOAD SWAP1 POP SWAP1 JUMP JUMPDEST PUSH1 0x0 PUSH8 0xFFFFFFFFFFFFFFFF DUP3 GT ISZERO PUSH2 0x8F1 JUMPI PUSH2 0x8F0 PUSH2 0xA25 JUMP JUMPDEST JUMPDEST PUSH2 0x8FA DUP3 PUSH2 0xA68 JUMP JUMPDEST SWAP1 POP PUSH1 0x20 DUP2 ADD SWAP1 POP SWAP2 SWAP1 POP JUMP JUMPDEST PUSH1 0x0 DUP2 MLOAD SWAP1 POP SWAP2 SWAP1 POP JUMP JUMPDEST PUSH1 0x0 DUP3 DUP3 MSTORE PUSH1 0x20 DUP3 ADD SWAP1 POP SWAP3 SWAP2 POP POP JUMP JUMPDEST PUSH1 0x0 PUSH20 0xFFFFFFFFFFFFFFFFFFFFFFFFFFFFFFFFFFFFFFFF DUP3 AND SWAP1 POP SWAP2 SWAP1 POP JUMP JUMPDEST PUSH1 0x0 DUP2 SWAP1 POP SWAP2 SWAP1 POP JUMP JUMPDEST PUSH1 0x0 PUSH2 0x958 DUP3 PUSH2 0x95F JUMP JUMPDEST SWAP1 POP SWAP2 SWAP1 POP JUMP JUMPDEST PUSH1 0x0 PUSH2 0x96A DUP3 PUSH2 0x971 JUMP JUMPDEST SWAP1 POP SWAP2 SWAP1 POP JUMP JUMPDEST PUSH1 0x0 PUSH2 0x97C DUP3 PUSH2 0x923 JUMP JUMPDEST SWAP1 POP SWAP2 SWAP1 POP JUMP JUMPDEST DUP3 DUP2 DUP4 CALLDATACOPY PUSH1 0x0 DUP4 DUP4 ADD MSTORE POP POP POP JUMP JUMPDEST PUSH1 0x0 JUMPDEST DUP4 DUP2 LT ISZERO PUSH2 0x9B0 JUMPI DUP1 DUP3 ADD MLOAD DUP2 DUP5 ADD MSTORE PUSH1 0x20 DUP2 ADD SWAP1 POP PUSH2 0x995 JUMP JUMPDEST DUP4 DUP2 GT ISZERO PUSH2 0x9BF JUMPI PUSH1 0x0 DUP5 DUP5 ADD MSTORE JUMPDEST POP POP POP POP JUMP JUMPDEST PUSH2 0x9CE DUP3 PUSH2 0xA68 JUMP JUMPDEST DUP2 ADD DUP2 DUP2 LT PUSH8 0xFFFFFFFFFFFFFFFF DUP3 GT OR ISZERO PUSH2 0x9ED JUMPI PUSH2 0x9EC PUSH2 0xA25 JUMP JUMPDEST JUMPDEST DUP1 PUSH1 0x40 MSTORE POP POP POP JUMP JUMPDEST PUSH32 0x4E487B7100000000000000000000000000000000000000000000000000000000 PUSH1 0x0 MSTORE PUSH1 0x32 PUSH1 0x4 MSTORE PUSH1 0x24 PUSH1 0x0 REVERT JUMPDEST PUSH32 0x4E487B7100000000000000000000000000000000000000000000000000000000 PUSH1 0x0 MSTORE PUSH1 0x41 PUSH1 0x4 MSTORE PUSH1 0x24 PUSH1 0x0 REVERT JUMPDEST PUSH1 0x0 DUP1 REVERT JUMPDEST PUSH1 0x0 DUP1 REVERT JUMPDEST PUSH1 0x0 DUP1 REVERT JUMPDEST PUSH1 0x0 DUP1 REVERT JUMPDEST PUSH1 0x0 PUSH1 0x1F NOT PUSH1 0x1F DUP4 ADD AND SWAP1 POP SWAP2 SWAP1 POP JUMP JUMPDEST PUSH2 0xA82 DUP2 PUSH2 0x943 JUMP JUMPDEST DUP2 EQ PUSH2 0xA8D JUMPI PUSH1 0x0 DUP1 REVERT JUMPDEST POP JUMP INVALID PUSH1 0x80 PUSH1 0x40 MSTORE CALLVALUE DUP1 ISZERO PUSH2 0x10 JUMPI PUSH1 0x0 DUP1 REVERT JUMPDEST POP PUSH2 0x726 DUP1 PUSH2 0x20 PUSH1 0x0 CODECOPY PUSH1 0x0 RETURN INVALID PUSH1 0x80 PUSH1 0x40 MSTORE CALLVALUE DUP1 ISZERO PUSH2 0x10 JUMPI PUSH1 0x0 DUP1 REVERT JUMPDEST POP PUSH1 0x4 CALLDATASIZE LT PUSH2 0x57 JUMPI PUSH1 0x0 CALLDATALOAD PUSH1 0xE0 SHR DUP1 PUSH4 0xE5EEEF7 EQ PUSH2 0x5C JUMPI DUP1 PUSH4 0x2E64CEC1 EQ PUSH2 0x78 JUMPI DUP1 PUSH4 0x5457B83F EQ PUSH2 0x96 JUMPI DUP1 PUSH4 0x6057361D EQ PUSH2 0xC6 JUMPI DUP1 PUSH4 0x642F9163 EQ PUSH2 0xE2 JUMPI JUMPDEST PUSH1 0x0 DUP1 REVERT JUMPDEST PUSH2 0x76 PUSH1 0x4 DUP1 CALLDATASIZE SUB DUP2 ADD SWAP1 PUSH2 0x71 SWAP2 SWAP1 PUSH2 0x427 JUMP JUMPDEST PUSH2 0x112 JUMP JUMPDEST STOP JUMPDEST PUSH2 0x80 PUSH2 0x1A7 JUMP JUMPDEST PUSH1 0x40 MLOAD PUSH2 0x8D SWAP2 SWAP1 PUSH2 0x51A JUMP JUMPDEST PUSH1 0x40 MLOAD DUP1 SWAP2 SUB SWAP1 RETURN JUMPDEST PUSH2 0xB0 PUSH1 0x4 DUP1 CALLDATASIZE SUB DUP2 ADD SWAP1 PUSH2 0xAB SWAP2 SWAP1 PUSH2 0x483 JUMP JUMPDEST PUSH2 0x1B0 JUMP JUMPDEST PUSH1 0x40 MLOAD PUSH2 0xBD SWAP2 SWAP1 PUSH2 0x4F8 JUMP JUMPDEST PUSH1 0x40 MLOAD DUP1 SWAP2 SUB SWAP1 RETURN JUMPDEST PUSH2 0xE0 PUSH1 0x4 DUP1 CALLDATASIZE SUB DUP2 ADD SWAP1 PUSH2 0xDB SWAP2 SWAP1 PUSH2 0x483 JUMP JUMPDEST PUSH2 0x250 JUMP JUMPDEST STOP JUMPDEST PUSH2 0xFC PUSH1 0x4 DUP1 CALLDATASIZE SUB DUP2 ADD SWAP1 PUSH2 0xF7 SWAP2 SWAP1 PUSH2 0x483 JUMP JUMPDEST PUSH2 0x25A JUMP JUMPDEST PUSH1 0x40 MLOAD PUSH2 0x109 SWAP2 SWAP1 PUSH2 0x4F8 JUMP JUMPDEST PUSH1 0x40 MLOAD DUP1 SWAP2 SUB SWAP1 RETURN JUMPDEST PUSH1 0x1 PUSH1 0x40 MLOAD DUP1 PUSH1 0x40 ADD PUSH1 0x40 MSTORE DUP1 DUP4 DUP2 MSTORE PUSH1 0x20 ADD DUP5 DUP2 MSTORE POP SWAP1 DUP1 PUSH1 0x1 DUP2 SLOAD ADD DUP1 DUP3 SSTORE DUP1 SWAP2 POP POP PUSH1 0x1 SWAP1 SUB SWAP1 PUSH1 0x0 MSTORE PUSH1 0x20 PUSH1 0x0 KECCAK256 SWAP1 PUSH1 0x2 MUL ADD PUSH1 0x0 SWAP1 SWAP2 SWAP1 SWAP2 SWAP1 SWAP2 POP PUSH1 0x0 DUP3 ADD MLOAD DUP2 PUSH1 0x0 ADD SSTORE PUSH1 0x20 DUP3 ADD MLOAD DUP2 PUSH1 0x1 ADD SWAP1 DUP1 MLOAD SWAP1 PUSH1 0x20 ADD SWAP1 PUSH2 0x178 SWAP3 SWAP2 SWAP1 PUSH2 0x2FF JUMP JUMPDEST POP POP POP DUP2 PUSH1 0x2 PUSH1 0x0 DUP4 DUP2 MSTORE PUSH1 0x20 ADD SWAP1 DUP2 MSTORE PUSH1 0x20 ADD PUSH1 0x0 KECCAK256 SWAP1 DUP1 MLOAD SWAP1 PUSH1 0x20 ADD SWAP1 PUSH2 0x1A2 SWAP3 SWAP2 SWAP1 PUSH2 0x2FF JUMP JUMPDEST POP POP POP JUMP JUMPDEST PUSH1 0x0 DUP1 SLOAD SWAP1 POP SWAP1 JUMP JUMPDEST PUSH1 0x2 PUSH1 0x20 MSTORE DUP1 PUSH1 0x0 MSTORE PUSH1 0x40 PUSH1 0x0 KECCAK256 PUSH1 0x0 SWAP2 POP SWAP1 POP DUP1 SLOAD PUSH2 0x1CF SWAP1 PUSH2 0x5F3 JUMP JUMPDEST DUP1 PUSH1 0x1F ADD PUSH1 0x20 DUP1 SWAP2 DIV MUL PUSH1 0x20 ADD PUSH1 0x40 MLOAD SWAP1 DUP2 ADD PUSH1 0x40 MSTORE DUP1 SWAP3 SWAP2 SWAP1 DUP2 DUP2 MSTORE PUSH1 0x20 ADD DUP3 DUP1 SLOAD PUSH2 0x1FB SWAP1 PUSH2 0x5F3 JUMP JUMPDEST DUP1 ISZERO PUSH2 0x248 JUMPI DUP1 PUSH1 0x1F LT PUSH2 0x21D JUMPI PUSH2 0x100 DUP1 DUP4 SLOAD DIV MUL DUP4 MSTORE SWAP2 PUSH1 0x20 ADD SWAP2 PUSH2 0x248 JUMP JUMPDEST DUP3 ADD SWAP2 SWAP1 PUSH1 0x0 MSTORE PUSH1 0x20 PUSH1 0x0 KECCAK256 SWAP1 JUMPDEST DUP2 SLOAD DUP2 MSTORE SWAP1 PUSH1 0x1 ADD SWAP1 PUSH1 0x20 ADD DUP1 DUP4 GT PUSH2 0x22B JUMPI DUP3 SWAP1 SUB PUSH1 0x1F AND DUP3 ADD SWAP2 JUMPDEST POP POP POP POP POP DUP2 JUMP JUMPDEST DUP1 PUSH1 0x0 DUP2 SWAP1 SSTORE POP POP JUMP JUMPDEST PUSH1 0x60 PUSH1 0x2 PUSH1 0x0 DUP4 DUP2 MSTORE PUSH1 0x20 ADD SWAP1 DUP2 MSTORE PUSH1 0x20 ADD PUSH1 0x0 KECCAK256 DUP1 SLOAD PUSH2 0x27A SWAP1 PUSH2 0x5F3 JUMP JUMPDEST DUP1 PUSH1 0x1F ADD PUSH1 0x20 DUP1 SWAP2 DIV MUL PUSH1 0x20 ADD PUSH1 0x40 MLOAD SWAP1 DUP2 ADD PUSH1 0x40 MSTORE DUP1 SWAP3 SWAP2 SWAP1 DUP2 DUP2 MSTORE PUSH1 0x20 ADD DUP3 DUP1 SLOAD PUSH2 0x2A6 SWAP1 PUSH2 0x5F3 JUMP JUMPDEST DUP1 ISZERO PUSH2 0x2F3 JUMPI DUP1 PUSH1 0x1F LT PUSH2 0x2C8 JUMPI PUSH2 0x100 DUP1 DUP4 SLOAD DIV MUL DUP4 MSTORE SWAP2 PUSH1 0x20 ADD SWAP2 PUSH2 0x2F3 JUMP JUMPDEST DUP3 ADD SWAP2 SWAP1 PUSH1 0x0 MSTORE PUSH1 0x20 PUSH1 0x0 KECCAK256 SWAP1 JUMPDEST DUP2 SLOAD DUP2 MSTORE SWAP1 PUSH1 0x1 ADD SWAP1 PUSH1 0x20 ADD DUP1 DUP4 GT PUSH2 0x2D6 JUMPI DUP3 SWAP1 SUB PUSH1 0x1F AND DUP3 ADD SWAP2 JUMPDEST POP POP POP POP POP SWAP1 POP SWAP2 SWAP1 POP JUMP JUMPDEST DUP3 DUP1 SLOAD PUSH2 0x30B SWAP1 PUSH2 0x5F3 JUMP JUMPDEST SWAP1 PUSH1 0x0 MSTORE PUSH1 0x20 PUSH1 0x0 KECCAK256 SWAP1 PUSH1 0x1F ADD PUSH1 0x20 SWAP1 DIV DUP2 ADD SWAP3 DUP3 PUSH2 0x32D JUMPI PUSH1 0x0 DUP6 SSTORE PUSH2 0x374 JUMP JUMPDEST DUP3 PUSH1 0x1F LT PUSH2 0x346 JUMPI DUP1 MLOAD PUSH1 0xFF NOT AND DUP4 DUP1 ADD OR DUP6 SSTORE PUSH2 0x374 JUMP JUMPDEST DUP3 DUP1 ADD PUSH1 0x1 ADD DUP6 SSTORE DUP3 ISZERO PUSH2 0x374 JUMPI SWAP2 DUP3 ADD JUMPDEST DUP3 DUP2 GT ISZERO PUSH2 0x373 JUMPI DUP3 MLOAD DUP3 SSTORE SWAP2 PUSH1 0x20 ADD SWAP2 SWAP1 PUSH1 0x1 ADD SWAP1 PUSH2 0x358 JUMP JUMPDEST JUMPDEST POP SWAP1 POP PUSH2 0x381 SWAP2 SWAP1 PUSH2 0x385 JUMP JUMPDEST POP SWAP1 JUMP JUMPDEST JUMPDEST DUP1 DUP3 GT ISZERO PUSH2 0x39E JUMPI PUSH1 0x0 DUP2 PUSH1 0x0 SWAP1 SSTORE POP PUSH1 0x1 ADD PUSH2 0x386 JUMP JUMPDEST POP SWAP1 JUMP JUMPDEST PUSH1 0x0 PUSH2 0x3B5 PUSH2 0x3B0 DUP5 PUSH2 0x55A JUMP JUMPDEST PUSH2 0x535 JUMP JUMPDEST SWAP1 POP DUP3 DUP2 MSTORE PUSH1 0x20 DUP2 ADD DUP5 DUP5 DUP5 ADD GT ISZERO PUSH2 0x3D1 JUMPI PUSH2 0x3D0 PUSH2 0x6B9 JUMP JUMPDEST JUMPDEST PUSH2 0x3DC DUP5 DUP3 DUP6 PUSH2 0x5B1 JUMP JUMPDEST POP SWAP4 SWAP3 POP POP POP JUMP JUMPDEST PUSH1 0x0 DUP3 PUSH1 0x1F DUP4 ADD SLT PUSH2 0x3F9 JUMPI PUSH2 0x3F8 PUSH2 0x6B4 JUMP JUMPDEST JUMPDEST DUP2 CALLDATALOAD PUSH2 0x409 DUP5 DUP3 PUSH1 0x20 DUP7 ADD PUSH2 0x3A2 JUMP JUMPDEST SWAP2 POP POP SWAP3 SWAP2 POP POP JUMP JUMPDEST PUSH1 0x0 DUP2 CALLDATALOAD SWAP1 POP PUSH2 0x421 DUP2 PUSH2 0x6D9 JUMP JUMPDEST SWAP3 SWAP2 POP POP JUMP JUMPDEST PUSH1 0x0 DUP1 PUSH1 0x40 DUP4 DUP6 SUB SLT ISZERO PUSH2 0x43E JUMPI PUSH2 0x43D PUSH2 0x6C3 JUMP JUMPDEST JUMPDEST PUSH1 0x0 DUP4 ADD CALLDATALOAD PUSH8 0xFFFFFFFFFFFFFFFF DUP2 GT ISZERO PUSH2 0x45C JUMPI PUSH2 0x45B PUSH2 0x6BE JUMP JUMPDEST JUMPDEST PUSH2 0x468 DUP6 DUP3 DUP7 ADD PUSH2 0x3E4 JUMP JUMPDEST SWAP3 POP POP PUSH1 0x20 PUSH2 0x479 DUP6 DUP3 DUP7 ADD PUSH2 0x412 JUMP JUMPDEST SWAP2 POP POP SWAP3 POP SWAP3 SWAP1 POP JUMP JUMPDEST PUSH1 0x0 PUSH1 0x20 DUP3 DUP5 SUB SLT ISZERO PUSH2 0x499 JUMPI PUSH2 0x498 PUSH2 0x6C3 JUMP JUMPDEST JUMPDEST PUSH1 0x0 PUSH2 0x4A7 DUP5 DUP3 DUP6 ADD PUSH2 0x412 JUMP JUMPDEST SWAP2 POP POP SWAP3 SWAP2 POP POP JUMP JUMPDEST PUSH1 0x0 PUSH2 0x4BB DUP3 PUSH2 0x58B JUMP JUMPDEST PUSH2 0x4C5 DUP2 DUP6 PUSH2 0x596 JUMP JUMPDEST SWAP4 POP PUSH2 0x4D5 DUP2 DUP6 PUSH1 0x20 DUP7 ADD PUSH2 0x5C0 JUMP JUMPDEST PUSH2 0x4DE DUP2 PUSH2 0x6C8 JUMP JUMPDEST DUP5 ADD SWAP2 POP POP SWAP3 SWAP2 POP POP JUMP JUMPDEST PUSH2 0x4F2 DUP2 PUSH2 0x5A7 JUMP JUMPDEST DUP3 MSTORE POP POP JUMP JUMPDEST PUSH1 0x0 PUSH1 0x20 DUP3 ADD SWAP1 POP DUP2 DUP2 SUB PUSH1 0x0 DUP4 ADD MSTORE PUSH2 0x512 DUP2 DUP5 PUSH2 0x4B0 JUMP JUMPDEST SWAP1 POP SWAP3 SWAP2 POP POP JUMP JUMPDEST PUSH1 0x0 PUSH1 0x20 DUP3 ADD SWAP1 POP PUSH2 0x52F PUSH1 0x0 DUP4 ADD DUP5 PUSH2 0x4E9 JUMP JUMPDEST SWAP3 SWAP2 POP POP JUMP JUMPDEST PUSH1 0x0 PUSH2 0x53F PUSH2 0x550 JUMP JUMPDEST SWAP1 POP PUSH2 0x54B DUP3 DUP3 PUSH2 0x625 JUMP JUMPDEST SWAP2 SWAP1 POP JUMP JUMPDEST PUSH1 0x0 PUSH1 0x40 MLOAD SWAP1 POP SWAP1 JUMP JUMPDEST PUSH1 0x0 PUSH8 0xFFFFFFFFFFFFFFFF DUP3 GT ISZERO PUSH2 0x575 JUMPI PUSH2 0x574 PUSH2 0x685 JUMP JUMPDEST JUMPDEST PUSH2 0x57E DUP3 PUSH2 0x6C8 JUMP JUMPDEST SWAP1 POP PUSH1 0x20 DUP2 ADD SWAP1 POP SWAP2 SWAP1 POP JUMP JUMPDEST PUSH1 0x0 DUP2 MLOAD SWAP1 POP SWAP2 SWAP1 POP JUMP JUMPDEST PUSH1 0x0 DUP3 DUP3 MSTORE PUSH1 0x20 DUP3 ADD SWAP1 POP SWAP3 SWAP2 POP POP JUMP JUMPDEST PUSH1 0x0 DUP2 SWAP1 POP SWAP2 SWAP1 POP JUMP JUMPDEST DUP3 DUP2 DUP4 CALLDATACOPY PUSH1 0x0 DUP4 DUP4 ADD MSTORE POP POP POP JUMP JUMPDEST PUSH1 0x0 JUMPDEST DUP4 DUP2 LT ISZERO PUSH2 0x5DE JUMPI DUP1 DUP3 ADD MLOAD DUP2 DUP5 ADD MSTORE PUSH1 0x20 DUP2 ADD SWAP1 POP PUSH2 0x5C3 JUMP JUMPDEST DUP4 DUP2 GT ISZERO PUSH2 0x5ED JUMPI PUSH1 0x0 DUP5 DUP5 ADD MSTORE JUMPDEST POP POP POP POP JUMP JUMPDEST PUSH1 0x0 PUSH1 0x2 DUP3 DIV SWAP1 POP PUSH1 0x1 DUP3 AND DUP1 PUSH2 0x60B JUMPI PUSH1 0x7F DUP3 AND SWAP2 POP JUMPDEST PUSH1 0x20 DUP3 LT DUP2 EQ ISZERO PUSH2 0x61F JUMPI PUSH2 0x61E PUSH2 0x656 JUMP JUMPDEST JUMPDEST POP SWAP2 SWAP1 POP JUMP JUMPDEST PUSH2 0x62E DUP3 PUSH2 0x6C8 JUMP JUMPDEST DUP2 ADD DUP2 DUP2 LT PUSH8 0xFFFFFFFFFFFFFFFF DUP3 GT OR ISZERO PUSH2 0x64D JUMPI PUSH2 0x64C PUSH2 0x685 JUMP JUMPDEST JUMPDEST DUP1 PUSH1 0x40 MSTORE POP POP POP JUMP JUMPDEST PUSH32 0x4E487B7100000000000000000000000000000000000000000000000000000000 PUSH1 0x0 MSTORE PUSH1 0x22 PUSH1 0x4 MSTORE PUSH1 0x24 PUSH1 0x0 REVERT JUMPDEST PUSH32 0x4E487B7100000000000000000000000000000000000000000000000000000000 PUSH1 0x0 MSTORE PUSH1 0x41 PUSH1 0x4 MSTORE PUSH1 0x24 PUSH1 0x0 REVERT JUMPDEST PUSH1 0x0 DUP1 REVERT JUMPDEST PUSH1 0x0 DUP1 REVERT JUMPDEST PUSH1 0x0 DUP1 REVERT JUMPDEST PUSH1 0x0 DUP1 REVERT JUMPDEST PUSH1 0x0 PUSH1 0x1F NOT PUSH1 0x1F DUP4 ADD AND SWAP1 POP SWAP2 SWAP1 POP JUMP JUMPDEST PUSH2 0x6E2 DUP2 PUSH2 0x5A7 JUMP JUMPDEST DUP2 EQ PUSH2 0x6ED JUMPI PUSH1 0x0 DUP1 REVERT JUMPDEST POP JUMP INVALID LOG2 PUSH5 0x6970667358 0x22 SLT KECCAK256 MSTORE 0x2B 0x2B 0xD7 PUSH2 0xD420 0xA7 0xB2 0xED 0xB4 SAR PC SWAP5 SHR SUB 0xED PUSH13 0x3D09ED2353E63132412D96F80F PUSH13 0x64736F6C63430008070033A264 PUSH10 0x706673582212202BA97F SWAP3 0x25 0x4E MUL SWAP8 0xC0 SAR PUSH23 0xEDF34FD8EB2408947EAC091FBE9EEFA4542E944B06473 PUSH16 0x6C634300080700330000000000000000 "
				},
				"gasEstimates": {
					"creation": {
						"codeDepositCost": "924000",
						"executionCost": "962",
						"totalCost": "924962"
					},
					"external": {
						"createSimpleStorage()": "infinite",
						"sfAddStudent(uint256,string)": "infinite",
						"sfGetFavouriteNo(uint256)": "infinite",
						"sfGetStudent(uint256,uint256)": "infinite",
						"sfStore(uint256)": "infinite",
						"simpleStorage()": "2597",
						"simpleStorageArray(uint256)": "5087"
					}
				},
				"methodIdentifiers": {
					"createSimpleStorage()": "40d66b3b",
					"sfAddStudent(uint256,string)": "7574ede8",
					"sfGetFavouriteNo(uint256)": "4bffb6be",
					"sfGetStudent(uint256,uint256)": "deae2adc",
					"sfStore(uint256)": "83eab6a2",
					"simpleStorage()": "6be0d6bf",
					"simpleStorageArray(uint256)": "64591bf1"
				}
			},
			"storageLayout": {
				"storage": [
					{
						"astId": 76,
						"contract": "Contracts/StorageFactory.sol:StorageFactory",
						"label": "simpleStorage",
						"offset": 0,
						"slot": "0",
						"type": "t_contract(SimpleStorage)70"
					},
					{
						"astId": 80,
						"contract": "Contracts/StorageFactory.sol:StorageFactory",
						"label": "simpleStorageArray",
						"offset": 0,
						"slot": "1",
						"type": "t_array(t_contract(SimpleStorage)70)dyn_storage"
					}
				],
				"types": {
					"t_array(t_contract(SimpleStorage)70)dyn_storage": {
						"base": "t_contract(SimpleStorage)70",
						"encoding": "dynamic_array",
						"label": "contract SimpleStorage[]",
						"numberOfBytes": "32"
					},
					"t_contract(SimpleStorage)70": {
						"encoding": "inplace",
						"label": "contract SimpleStorage",
						"numberOfBytes": "20"
					}
				}
			},
			"userdoc": {
				"kind": "user",
				"methods": {},
				"version": 1
			}
		}
	}
}