{
	"Contracts/FundMe.sol": {
		"FundMe": {
			"abi": [
				{
					"inputs": [],
					"name": "fund",
					"outputs": [],
					"stateMutability": "payable",
					"type": "function"
				},
				{
					"inputs": [
						{
							"internalType": "uint256",
							"name": "ethAmount",
							"type": "uint256"
						}
					],
					"name": "getConversionRate",
					"outputs": [
						{
							"internalType": "uint256",
							"name": "",
							"type": "uint256"
						}
					],
					"stateMutability": "view",
					"type": "function"
				},
				{
					"inputs": [],
					"name": "getPrice",
					"outputs": [
						{
							"internalType": "uint256",
							"name": "",
							"type": "uint256"
						}
					],
					"stateMutability": "view",
					"type": "function"
				},
				{
					"inputs": [],
					"name": "getVersion",
					"outputs": [
						{
							"internalType": "uint256",
							"name": "",
							"type": "uint256"
						}
					],
					"stateMutability": "view",
					"type": "function"
				}
			],
			"devdoc": {
				"kind": "dev",
				"methods": {},
				"version": 1
			},
			"evm": {
				"assembly": "    /* \"Contracts/FundMe.sol\":143:1019  contract FundMe{\r... */\n  mstore(0x40, 0x80)\n    /* \"Contracts/FundMe.sol\":233:275  0xD4a33860578De61DBAbDc8BFdb98FD742fA7028e */\n  0xd4a33860578de61dbabdc8bfdb98fd742fa7028e\n    /* \"Contracts/FundMe.sol\":165:276  AggregatorV3Interface aggregatorV3Interface = AggregatorV3Interface(0xD4a33860578De61DBAbDc8BFdb98FD742fA7028e) */\n  0x00\n  dup1\n  0x0100\n  exp\n  dup2\n  sload\n  dup2\n  0xffffffffffffffffffffffffffffffffffffffff\n  mul\n  not\n  and\n  swap1\n  dup4\n  0xffffffffffffffffffffffffffffffffffffffff\n  and\n  mul\n  or\n  swap1\n  sstore\n  pop\n    /* \"Contracts/FundMe.sol\":306:315  50 * 1e10 */\n  0x746a528800\n    /* \"Contracts/FundMe.sol\":283:315  uint256  limitAmount = 50 * 1e10 */\n  0x01\n  sstore\n    /* \"Contracts/FundMe.sol\":143:1019  contract FundMe{\r... */\n  callvalue\n  dup1\n  iszero\n  tag_1\n  jumpi\n  0x00\n  dup1\n  revert\ntag_1:\n  pop\n  dataSize(sub_0)\n  dup1\n  dataOffset(sub_0)\n  0x00\n  codecopy\n  0x00\n  return\nstop\n\nsub_0: assembly {\n        /* \"Contracts/FundMe.sol\":143:1019  contract FundMe{\r... */\n      mstore(0x40, 0x80)\n      jumpi(tag_1, lt(calldatasize, 0x04))\n      shr(0xe0, calldataload(0x00))\n      dup1\n      0x0d8e6e2c\n      eq\n      tag_2\n      jumpi\n      dup1\n      0x6e5b6b28\n      eq\n      tag_3\n      jumpi\n      dup1\n      0x98d5fdca\n      eq\n      tag_4\n      jumpi\n      dup1\n      0xb60d4288\n      eq\n      tag_5\n      jumpi\n    tag_1:\n      0x00\n      dup1\n      revert\n        /* \"Contracts/FundMe.sol\":857:964  function getVersion() public view returns(uint256){\r... */\n    tag_2:\n      callvalue\n      dup1\n      iszero\n      tag_6\n      jumpi\n      0x00\n      dup1\n      revert\n    tag_6:\n      pop\n      tag_7\n      tag_8\n      jump\t// in\n    tag_7:\n      mload(0x40)\n      tag_9\n      swap2\n      swap1\n      tag_10\n      jump\t// in\n    tag_9:\n      mload(0x40)\n      dup1\n      swap2\n      sub\n      swap1\n      return\n        /* \"Contracts/FundMe.sol\":632:849  function getConversionRate(uint256 ethAmount) public view returns(uint256){\r... */\n    tag_3:\n      callvalue\n      dup1\n      iszero\n      tag_11\n      jumpi\n      0x00\n      dup1\n      revert\n    tag_11:\n      pop\n      tag_12\n      0x04\n      dup1\n      calldatasize\n      sub\n      dup2\n      add\n      swap1\n      tag_13\n      swap2\n      swap1\n      tag_14\n      jump\t// in\n    tag_13:\n      tag_15\n      jump\t// in\n    tag_12:\n      mload(0x40)\n      tag_16\n      swap2\n      swap1\n      tag_10\n      jump\t// in\n    tag_16:\n      mload(0x40)\n      dup1\n      swap2\n      sub\n      swap1\n      return\n        /* \"Contracts/FundMe.sol\":456:624  function getPrice() public view returns(uint256) {\r... */\n    tag_4:\n      callvalue\n      dup1\n      iszero\n      tag_17\n      jumpi\n      0x00\n      dup1\n      revert\n    tag_17:\n      pop\n      tag_18\n      tag_19\n      jump\t// in\n    tag_18:\n      mload(0x40)\n      tag_20\n      swap2\n      swap1\n      tag_10\n      jump\t// in\n    tag_20:\n      mload(0x40)\n      dup1\n      swap2\n      sub\n      swap1\n      return\n        /* \"Contracts/FundMe.sol\":324:448  function fund() public payable {\r... */\n    tag_5:\n      tag_21\n      tag_22\n      jump\t// in\n    tag_21:\n      stop\n        /* \"Contracts/FundMe.sol\":857:964  function getVersion() public view returns(uint256){\r... */\n    tag_8:\n        /* \"Contracts/FundMe.sol\":899:906  uint256 */\n      0x00\n        /* \"Contracts/FundMe.sol\":925:946  aggregatorV3Interface */\n      dup1\n      0x00\n      swap1\n      sload\n      swap1\n      0x0100\n      exp\n      swap1\n      div\n      0xffffffffffffffffffffffffffffffffffffffff\n      and\n        /* \"Contracts/FundMe.sol\":925:954  aggregatorV3Interface.version */\n      0xffffffffffffffffffffffffffffffffffffffff\n      and\n      0x54fd4d50\n        /* \"Contracts/FundMe.sol\":925:956  aggregatorV3Interface.version() */\n      mload(0x40)\n      dup2\n      0xffffffff\n      and\n      0xe0\n      shl\n      dup2\n      mstore\n      0x04\n      add\n      0x20\n      mload(0x40)\n      dup1\n      dup4\n      sub\n      dup2\n      dup7\n      dup1\n      extcodesize\n      iszero\n      dup1\n      iszero\n      tag_24\n      jumpi\n      0x00\n      dup1\n      revert\n    tag_24:\n      pop\n      gas\n      staticcall\n      iszero\n      dup1\n      iszero\n      tag_26\n      jumpi\n      returndatasize\n      0x00\n      dup1\n      returndatacopy\n      revert(0x00, returndatasize)\n    tag_26:\n      pop\n      pop\n      pop\n      pop\n      mload(0x40)\n      returndatasize\n      not(0x1f)\n      0x1f\n      dup3\n      add\n      and\n      dup3\n      add\n      dup1\n      0x40\n      mstore\n      pop\n      dup2\n      add\n      swap1\n      tag_27\n      swap2\n      swap1\n      tag_28\n      jump\t// in\n    tag_27:\n        /* \"Contracts/FundMe.sol\":918:956  return aggregatorV3Interface.version() */\n      swap1\n      pop\n        /* \"Contracts/FundMe.sol\":857:964  function getVersion() public view returns(uint256){\r... */\n      swap1\n      jump\t// out\n        /* \"Contracts/FundMe.sol\":632:849  function getConversionRate(uint256 ethAmount) public view returns(uint256){\r... */\n    tag_15:\n        /* \"Contracts/FundMe.sol\":698:705  uint256 */\n      0x00\n        /* \"Contracts/FundMe.sol\":717:733  uint256 ethPrice */\n      dup1\n        /* \"Contracts/FundMe.sol\":736:746  getPrice() */\n      tag_30\n        /* \"Contracts/FundMe.sol\":736:744  getPrice */\n      tag_19\n        /* \"Contracts/FundMe.sol\":736:746  getPrice() */\n      jump\t// in\n    tag_30:\n        /* \"Contracts/FundMe.sol\":717:746  uint256 ethPrice = getPrice() */\n      swap1\n      pop\n        /* \"Contracts/FundMe.sol\":757:779  uint256 convertedPrice */\n      0x00\n        /* \"Contracts/FundMe.sol\":805:809  1e18 */\n      0x0de0b6b3a7640000\n        /* \"Contracts/FundMe.sol\":794:803  ethAmount */\n      dup5\n        /* \"Contracts/FundMe.sol\":783:791  ethPrice */\n      dup4\n        /* \"Contracts/FundMe.sol\":783:803  ethPrice * ethAmount */\n      tag_31\n      swap2\n      swap1\n      tag_32\n      jump\t// in\n    tag_31:\n        /* \"Contracts/FundMe.sol\":782:809  (ethPrice * ethAmount)/1e18 */\n      tag_33\n      swap2\n      swap1\n      tag_34\n      jump\t// in\n    tag_33:\n        /* \"Contracts/FundMe.sol\":757:809  uint256 convertedPrice = (ethPrice * ethAmount)/1e18 */\n      swap1\n      pop\n        /* \"Contracts/FundMe.sol\":827:841  convertedPrice */\n      dup1\n        /* \"Contracts/FundMe.sol\":820:841  return convertedPrice */\n      swap3\n      pop\n      pop\n      pop\n        /* \"Contracts/FundMe.sol\":632:849  function getConversionRate(uint256 ethAmount) public view returns(uint256){\r... */\n      swap2\n      swap1\n      pop\n      jump\t// out\n        /* \"Contracts/FundMe.sol\":456:624  function getPrice() public view returns(uint256) {\r... */\n    tag_19:\n        /* \"Contracts/FundMe.sol\":496:503  uint256 */\n      0x00\n        /* \"Contracts/FundMe.sol\":519:531  int256 price */\n      dup1\n        /* \"Contracts/FundMe.sol\":538:559  aggregatorV3Interface */\n      0x00\n      dup1\n      sload\n      swap1\n      0x0100\n      exp\n      swap1\n      div\n      0xffffffffffffffffffffffffffffffffffffffff\n      and\n        /* \"Contracts/FundMe.sol\":538:575  aggregatorV3Interface.latestRoundData */\n      0xffffffffffffffffffffffffffffffffffffffff\n      and\n      0xfeaf968c\n        /* \"Contracts/FundMe.sol\":538:577  aggregatorV3Interface.latestRoundData() */\n      mload(0x40)\n      dup2\n      0xffffffff\n      and\n      0xe0\n      shl\n      dup2\n      mstore\n      0x04\n      add\n      0xa0\n      mload(0x40)\n      dup1\n      dup4\n      sub\n      dup2\n      dup7\n      dup1\n      extcodesize\n      iszero\n      dup1\n      iszero\n      tag_36\n      jumpi\n      0x00\n      dup1\n      revert\n    tag_36:\n      pop\n      gas\n      staticcall\n      iszero\n      dup1\n      iszero\n      tag_38\n      jumpi\n      returndatasize\n      0x00\n      dup1\n      returndatacopy\n      revert(0x00, returndatasize)\n    tag_38:\n      pop\n      pop\n      pop\n      pop\n      mload(0x40)\n      returndatasize\n      not(0x1f)\n      0x1f\n      dup3\n      add\n      and\n      dup3\n      add\n      dup1\n      0x40\n      mstore\n      pop\n      dup2\n      add\n      swap1\n      tag_39\n      swap2\n      swap1\n      tag_40\n      jump\t// in\n    tag_39:\n        /* \"Contracts/FundMe.sol\":516:577  (, int256 price,,,) = aggregatorV3Interface.latestRoundData() */\n      pop\n      pop\n      pop\n      swap2\n      pop\n      pop\n        /* \"Contracts/FundMe.sol\":611:615  1e10 */\n      0x02540be400\n        /* \"Contracts/FundMe.sol\":603:608  price */\n      dup2\n        /* \"Contracts/FundMe.sol\":603:615  price * 1e10 */\n      tag_41\n      swap2\n      swap1\n      tag_42\n      jump\t// in\n    tag_41:\n        /* \"Contracts/FundMe.sol\":588:616  return uint256(price * 1e10) */\n      swap2\n      pop\n      pop\n        /* \"Contracts/FundMe.sol\":456:624  function getPrice() public view returns(uint256) {\r... */\n      swap1\n      jump\t// out\n        /* \"Contracts/FundMe.sol\":324:448  function fund() public payable {\r... */\n    tag_22:\n        /* \"Contracts/FundMe.sol\":406:417  limitAmount */\n      sload(0x01)\n        /* \"Contracts/FundMe.sol\":374:402  getConversionRate(msg.value) */\n      tag_44\n        /* \"Contracts/FundMe.sol\":392:401  msg.value */\n      callvalue\n        /* \"Contracts/FundMe.sol\":374:391  getConversionRate */\n      tag_15\n        /* \"Contracts/FundMe.sol\":374:402  getConversionRate(msg.value) */\n      jump\t// in\n    tag_44:\n        /* \"Contracts/FundMe.sol\":374:417  getConversionRate(msg.value) >= limitAmount */\n      lt\n      iszero\n        /* \"Contracts/FundMe.sol\":366:440  require(getConversionRate(msg.value) >= limitAmount, \"Didn't send enough\") */\n      tag_45\n      jumpi\n      mload(0x40)\n      0x08c379a000000000000000000000000000000000000000000000000000000000\n      dup2\n      mstore\n      0x04\n      add\n      tag_46\n      swap1\n      tag_47\n      jump\t// in\n    tag_46:\n      mload(0x40)\n      dup1\n      swap2\n      sub\n      swap1\n      revert\n    tag_45:\n        /* \"Contracts/FundMe.sol\":324:448  function fund() public payable {\r... */\n      jump\t// out\n        /* \"#utility.yul\":7:148   */\n    tag_49:\n        /* \"#utility.yul\":63:68   */\n      0x00\n        /* \"#utility.yul\":94:100   */\n      dup2\n        /* \"#utility.yul\":88:101   */\n      mload\n        /* \"#utility.yul\":79:101   */\n      swap1\n      pop\n        /* \"#utility.yul\":110:142   */\n      tag_51\n        /* \"#utility.yul\":136:141   */\n      dup2\n        /* \"#utility.yul\":110:142   */\n      tag_52\n      jump\t// in\n    tag_51:\n        /* \"#utility.yul\":7:148   */\n      swap3\n      swap2\n      pop\n      pop\n      jump\t// out\n        /* \"#utility.yul\":154:293   */\n    tag_53:\n        /* \"#utility.yul\":200:205   */\n      0x00\n        /* \"#utility.yul\":238:244   */\n      dup2\n        /* \"#utility.yul\":225:245   */\n      calldataload\n        /* \"#utility.yul\":216:245   */\n      swap1\n      pop\n        /* \"#utility.yul\":254:287   */\n      tag_55\n        /* \"#utility.yul\":281:286   */\n      dup2\n        /* \"#utility.yul\":254:287   */\n      tag_56\n      jump\t// in\n    tag_55:\n        /* \"#utility.yul\":154:293   */\n      swap3\n      swap2\n      pop\n      pop\n      jump\t// out\n        /* \"#utility.yul\":299:442   */\n    tag_57:\n        /* \"#utility.yul\":356:361   */\n      0x00\n        /* \"#utility.yul\":387:393   */\n      dup2\n        /* \"#utility.yul\":381:394   */\n      mload\n        /* \"#utility.yul\":372:394   */\n      swap1\n      pop\n        /* \"#utility.yul\":403:436   */\n      tag_59\n        /* \"#utility.yul\":430:435   */\n      dup2\n        /* \"#utility.yul\":403:436   */\n      tag_56\n      jump\t// in\n    tag_59:\n        /* \"#utility.yul\":299:442   */\n      swap3\n      swap2\n      pop\n      pop\n      jump\t// out\n        /* \"#utility.yul\":448:589   */\n    tag_60:\n        /* \"#utility.yul\":504:509   */\n      0x00\n        /* \"#utility.yul\":535:541   */\n      dup2\n        /* \"#utility.yul\":529:542   */\n      mload\n        /* \"#utility.yul\":520:542   */\n      swap1\n      pop\n        /* \"#utility.yul\":551:583   */\n      tag_62\n        /* \"#utility.yul\":577:582   */\n      dup2\n        /* \"#utility.yul\":551:583   */\n      tag_63\n      jump\t// in\n    tag_62:\n        /* \"#utility.yul\":448:589   */\n      swap3\n      swap2\n      pop\n      pop\n      jump\t// out\n        /* \"#utility.yul\":595:924   */\n    tag_14:\n        /* \"#utility.yul\":654:660   */\n      0x00\n        /* \"#utility.yul\":703:705   */\n      0x20\n        /* \"#utility.yul\":691:700   */\n      dup3\n        /* \"#utility.yul\":682:689   */\n      dup5\n        /* \"#utility.yul\":678:701   */\n      sub\n        /* \"#utility.yul\":674:706   */\n      slt\n        /* \"#utility.yul\":671:790   */\n      iszero\n      tag_65\n      jumpi\n        /* \"#utility.yul\":709:788   */\n      tag_66\n      tag_67\n      jump\t// in\n    tag_66:\n        /* \"#utility.yul\":671:790   */\n    tag_65:\n        /* \"#utility.yul\":829:830   */\n      0x00\n        /* \"#utility.yul\":854:907   */\n      tag_68\n        /* \"#utility.yul\":899:906   */\n      dup5\n        /* \"#utility.yul\":890:896   */\n      dup3\n        /* \"#utility.yul\":879:888   */\n      dup6\n        /* \"#utility.yul\":875:897   */\n      add\n        /* \"#utility.yul\":854:907   */\n      tag_53\n      jump\t// in\n    tag_68:\n        /* \"#utility.yul\":844:907   */\n      swap2\n      pop\n        /* \"#utility.yul\":800:917   */\n      pop\n        /* \"#utility.yul\":595:924   */\n      swap3\n      swap2\n      pop\n      pop\n      jump\t// out\n        /* \"#utility.yul\":930:1281   */\n    tag_28:\n        /* \"#utility.yul\":1000:1006   */\n      0x00\n        /* \"#utility.yul\":1049:1051   */\n      0x20\n        /* \"#utility.yul\":1037:1046   */\n      dup3\n        /* \"#utility.yul\":1028:1035   */\n      dup5\n        /* \"#utility.yul\":1024:1047   */\n      sub\n        /* \"#utility.yul\":1020:1052   */\n      slt\n        /* \"#utility.yul\":1017:1136   */\n      iszero\n      tag_70\n      jumpi\n        /* \"#utility.yul\":1055:1134   */\n      tag_71\n      tag_67\n      jump\t// in\n    tag_71:\n        /* \"#utility.yul\":1017:1136   */\n    tag_70:\n        /* \"#utility.yul\":1175:1176   */\n      0x00\n        /* \"#utility.yul\":1200:1264   */\n      tag_72\n        /* \"#utility.yul\":1256:1263   */\n      dup5\n        /* \"#utility.yul\":1247:1253   */\n      dup3\n        /* \"#utility.yul\":1236:1245   */\n      dup6\n        /* \"#utility.yul\":1232:1254   */\n      add\n        /* \"#utility.yul\":1200:1264   */\n      tag_57\n      jump\t// in\n    tag_72:\n        /* \"#utility.yul\":1190:1264   */\n      swap2\n      pop\n        /* \"#utility.yul\":1146:1274   */\n      pop\n        /* \"#utility.yul\":930:1281   */\n      swap3\n      swap2\n      pop\n      pop\n      jump\t// out\n        /* \"#utility.yul\":1287:2258   */\n    tag_40:\n        /* \"#utility.yul\":1390:1396   */\n      0x00\n        /* \"#utility.yul\":1398:1404   */\n      dup1\n        /* \"#utility.yul\":1406:1412   */\n      0x00\n        /* \"#utility.yul\":1414:1420   */\n      dup1\n        /* \"#utility.yul\":1422:1428   */\n      0x00\n        /* \"#utility.yul\":1471:1474   */\n      0xa0\n        /* \"#utility.yul\":1459:1468   */\n      dup7\n        /* \"#utility.yul\":1450:1457   */\n      dup9\n        /* \"#utility.yul\":1446:1469   */\n      sub\n        /* \"#utility.yul\":1442:1475   */\n      slt\n        /* \"#utility.yul\":1439:1559   */\n      iszero\n      tag_74\n      jumpi\n        /* \"#utility.yul\":1478:1557   */\n      tag_75\n      tag_67\n      jump\t// in\n    tag_75:\n        /* \"#utility.yul\":1439:1559   */\n    tag_74:\n        /* \"#utility.yul\":1598:1599   */\n      0x00\n        /* \"#utility.yul\":1623:1686   */\n      tag_76\n        /* \"#utility.yul\":1678:1685   */\n      dup9\n        /* \"#utility.yul\":1669:1675   */\n      dup3\n        /* \"#utility.yul\":1658:1667   */\n      dup10\n        /* \"#utility.yul\":1654:1676   */\n      add\n        /* \"#utility.yul\":1623:1686   */\n      tag_60\n      jump\t// in\n    tag_76:\n        /* \"#utility.yul\":1613:1686   */\n      swap6\n      pop\n        /* \"#utility.yul\":1569:1696   */\n      pop\n        /* \"#utility.yul\":1735:1737   */\n      0x20\n        /* \"#utility.yul\":1761:1824   */\n      tag_77\n        /* \"#utility.yul\":1816:1823   */\n      dup9\n        /* \"#utility.yul\":1807:1813   */\n      dup3\n        /* \"#utility.yul\":1796:1805   */\n      dup10\n        /* \"#utility.yul\":1792:1814   */\n      add\n        /* \"#utility.yul\":1761:1824   */\n      tag_49\n      jump\t// in\n    tag_77:\n        /* \"#utility.yul\":1751:1824   */\n      swap5\n      pop\n        /* \"#utility.yul\":1706:1834   */\n      pop\n        /* \"#utility.yul\":1873:1875   */\n      0x40\n        /* \"#utility.yul\":1899:1963   */\n      tag_78\n        /* \"#utility.yul\":1955:1962   */\n      dup9\n        /* \"#utility.yul\":1946:1952   */\n      dup3\n        /* \"#utility.yul\":1935:1944   */\n      dup10\n        /* \"#utility.yul\":1931:1953   */\n      add\n        /* \"#utility.yul\":1899:1963   */\n      tag_57\n      jump\t// in\n    tag_78:\n        /* \"#utility.yul\":1889:1963   */\n      swap4\n      pop\n        /* \"#utility.yul\":1844:1973   */\n      pop\n        /* \"#utility.yul\":2012:2014   */\n      0x60\n        /* \"#utility.yul\":2038:2102   */\n      tag_79\n        /* \"#utility.yul\":2094:2101   */\n      dup9\n        /* \"#utility.yul\":2085:2091   */\n      dup3\n        /* \"#utility.yul\":2074:2083   */\n      dup10\n        /* \"#utility.yul\":2070:2092   */\n      add\n        /* \"#utility.yul\":2038:2102   */\n      tag_57\n      jump\t// in\n    tag_79:\n        /* \"#utility.yul\":2028:2102   */\n      swap3\n      pop\n        /* \"#utility.yul\":1983:2112   */\n      pop\n        /* \"#utility.yul\":2151:2154   */\n      0x80\n        /* \"#utility.yul\":2178:2241   */\n      tag_80\n        /* \"#utility.yul\":2233:2240   */\n      dup9\n        /* \"#utility.yul\":2224:2230   */\n      dup3\n        /* \"#utility.yul\":2213:2222   */\n      dup10\n        /* \"#utility.yul\":2209:2231   */\n      add\n        /* \"#utility.yul\":2178:2241   */\n      tag_60\n      jump\t// in\n    tag_80:\n        /* \"#utility.yul\":2168:2241   */\n      swap2\n      pop\n        /* \"#utility.yul\":2122:2251   */\n      pop\n        /* \"#utility.yul\":1287:2258   */\n      swap3\n      swap6\n      pop\n      swap3\n      swap6\n      swap1\n      swap4\n      pop\n      jump\t// out\n        /* \"#utility.yul\":2264:2630   */\n    tag_81:\n        /* \"#utility.yul\":2406:2409   */\n      0x00\n        /* \"#utility.yul\":2427:2494   */\n      tag_83\n        /* \"#utility.yul\":2491:2493   */\n      0x12\n        /* \"#utility.yul\":2486:2489   */\n      dup4\n        /* \"#utility.yul\":2427:2494   */\n      tag_84\n      jump\t// in\n    tag_83:\n        /* \"#utility.yul\":2420:2494   */\n      swap2\n      pop\n        /* \"#utility.yul\":2503:2596   */\n      tag_85\n        /* \"#utility.yul\":2592:2595   */\n      dup3\n        /* \"#utility.yul\":2503:2596   */\n      tag_86\n      jump\t// in\n    tag_85:\n        /* \"#utility.yul\":2621:2623   */\n      0x20\n        /* \"#utility.yul\":2616:2619   */\n      dup3\n        /* \"#utility.yul\":2612:2624   */\n      add\n        /* \"#utility.yul\":2605:2624   */\n      swap1\n      pop\n        /* \"#utility.yul\":2264:2630   */\n      swap2\n      swap1\n      pop\n      jump\t// out\n        /* \"#utility.yul\":2636:2754   */\n    tag_87:\n        /* \"#utility.yul\":2723:2747   */\n      tag_89\n        /* \"#utility.yul\":2741:2746   */\n      dup2\n        /* \"#utility.yul\":2723:2747   */\n      tag_90\n      jump\t// in\n    tag_89:\n        /* \"#utility.yul\":2718:2721   */\n      dup3\n        /* \"#utility.yul\":2711:2748   */\n      mstore\n        /* \"#utility.yul\":2636:2754   */\n      pop\n      pop\n      jump\t// out\n        /* \"#utility.yul\":2760:3179   */\n    tag_47:\n        /* \"#utility.yul\":2926:2930   */\n      0x00\n        /* \"#utility.yul\":2964:2966   */\n      0x20\n        /* \"#utility.yul\":2953:2962   */\n      dup3\n        /* \"#utility.yul\":2949:2967   */\n      add\n        /* \"#utility.yul\":2941:2967   */\n      swap1\n      pop\n        /* \"#utility.yul\":3013:3022   */\n      dup2\n        /* \"#utility.yul\":3007:3011   */\n      dup2\n        /* \"#utility.yul\":3003:3023   */\n      sub\n        /* \"#utility.yul\":2999:3000   */\n      0x00\n        /* \"#utility.yul\":2988:2997   */\n      dup4\n        /* \"#utility.yul\":2984:3001   */\n      add\n        /* \"#utility.yul\":2977:3024   */\n      mstore\n        /* \"#utility.yul\":3041:3172   */\n      tag_92\n        /* \"#utility.yul\":3167:3171   */\n      dup2\n        /* \"#utility.yul\":3041:3172   */\n      tag_81\n      jump\t// in\n    tag_92:\n        /* \"#utility.yul\":3033:3172   */\n      swap1\n      pop\n        /* \"#utility.yul\":2760:3179   */\n      swap2\n      swap1\n      pop\n      jump\t// out\n        /* \"#utility.yul\":3185:3407   */\n    tag_10:\n        /* \"#utility.yul\":3278:3282   */\n      0x00\n        /* \"#utility.yul\":3316:3318   */\n      0x20\n        /* \"#utility.yul\":3305:3314   */\n      dup3\n        /* \"#utility.yul\":3301:3319   */\n      add\n        /* \"#utility.yul\":3293:3319   */\n      swap1\n      pop\n        /* \"#utility.yul\":3329:3400   */\n      tag_94\n        /* \"#utility.yul\":3397:3398   */\n      0x00\n        /* \"#utility.yul\":3386:3395   */\n      dup4\n        /* \"#utility.yul\":3382:3399   */\n      add\n        /* \"#utility.yul\":3373:3379   */\n      dup5\n        /* \"#utility.yul\":3329:3400   */\n      tag_87\n      jump\t// in\n    tag_94:\n        /* \"#utility.yul\":3185:3407   */\n      swap3\n      swap2\n      pop\n      pop\n      jump\t// out\n        /* \"#utility.yul\":3494:3663   */\n    tag_84:\n        /* \"#utility.yul\":3578:3589   */\n      0x00\n        /* \"#utility.yul\":3612:3618   */\n      dup3\n        /* \"#utility.yul\":3607:3610   */\n      dup3\n        /* \"#utility.yul\":3600:3619   */\n      mstore\n        /* \"#utility.yul\":3652:3656   */\n      0x20\n        /* \"#utility.yul\":3647:3650   */\n      dup3\n        /* \"#utility.yul\":3643:3657   */\n      add\n        /* \"#utility.yul\":3628:3657   */\n      swap1\n      pop\n        /* \"#utility.yul\":3494:3663   */\n      swap3\n      swap2\n      pop\n      pop\n      jump\t// out\n        /* \"#utility.yul\":3669:3854   */\n    tag_34:\n        /* \"#utility.yul\":3709:3710   */\n      0x00\n        /* \"#utility.yul\":3726:3746   */\n      tag_99\n        /* \"#utility.yul\":3744:3745   */\n      dup3\n        /* \"#utility.yul\":3726:3746   */\n      tag_90\n      jump\t// in\n    tag_99:\n        /* \"#utility.yul\":3721:3746   */\n      swap2\n      pop\n        /* \"#utility.yul\":3760:3780   */\n      tag_100\n        /* \"#utility.yul\":3778:3779   */\n      dup4\n        /* \"#utility.yul\":3760:3780   */\n      tag_90\n      jump\t// in\n    tag_100:\n        /* \"#utility.yul\":3755:3780   */\n      swap3\n      pop\n        /* \"#utility.yul\":3799:3800   */\n      dup3\n        /* \"#utility.yul\":3789:3824   */\n      tag_101\n      jumpi\n        /* \"#utility.yul\":3804:3822   */\n      tag_102\n      tag_103\n      jump\t// in\n    tag_102:\n        /* \"#utility.yul\":3789:3824   */\n    tag_101:\n        /* \"#utility.yul\":3846:3847   */\n      dup3\n        /* \"#utility.yul\":3843:3844   */\n      dup3\n        /* \"#utility.yul\":3839:3848   */\n      div\n        /* \"#utility.yul\":3834:3848   */\n      swap1\n      pop\n        /* \"#utility.yul\":3669:3854   */\n      swap3\n      swap2\n      pop\n      pop\n      jump\t// out\n        /* \"#utility.yul\":3860:4851   */\n    tag_42:\n        /* \"#utility.yul\":3899:3906   */\n      0x00\n        /* \"#utility.yul\":3922:3941   */\n      tag_105\n        /* \"#utility.yul\":3939:3940   */\n      dup3\n        /* \"#utility.yul\":3922:3941   */\n      tag_106\n      jump\t// in\n    tag_105:\n        /* \"#utility.yul\":3917:3941   */\n      swap2\n      pop\n        /* \"#utility.yul\":3955:3974   */\n      tag_107\n        /* \"#utility.yul\":3972:3973   */\n      dup4\n        /* \"#utility.yul\":3955:3974   */\n      tag_106\n      jump\t// in\n    tag_107:\n        /* \"#utility.yul\":3950:3974   */\n      swap3\n      pop\n        /* \"#utility.yul\":4156:4157   */\n      dup3\n        /* \"#utility.yul\":4088:4154   */\n      0x7fffffffffffffffffffffffffffffffffffffffffffffffffffffffffffffff\n        /* \"#utility.yul\":4084:4158   */\n      div\n        /* \"#utility.yul\":4081:4082   */\n      dup3\n        /* \"#utility.yul\":4078:4159   */\n      gt\n        /* \"#utility.yul\":4073:4074   */\n      0x00\n        /* \"#utility.yul\":4070:4071   */\n      dup5\n        /* \"#utility.yul\":4066:4075   */\n      sgt\n        /* \"#utility.yul\":4062:4063   */\n      0x00\n        /* \"#utility.yul\":4059:4060   */\n      dup5\n        /* \"#utility.yul\":4055:4064   */\n      sgt\n        /* \"#utility.yul\":4051:4076   */\n      and\n        /* \"#utility.yul\":4047:4160   */\n      and\n        /* \"#utility.yul\":4044:4183   */\n      iszero\n      tag_108\n      jumpi\n        /* \"#utility.yul\":4163:4181   */\n      tag_109\n      tag_110\n      jump\t// in\n    tag_109:\n        /* \"#utility.yul\":4044:4183   */\n    tag_108:\n        /* \"#utility.yul\":4367:4368   */\n      dup2\n        /* \"#utility.yul\":4299:4365   */\n      0x8000000000000000000000000000000000000000000000000000000000000000\n        /* \"#utility.yul\":4294:4369   */\n      sdiv\n        /* \"#utility.yul\":4291:4292   */\n      dup4\n        /* \"#utility.yul\":4287:4370   */\n      slt\n        /* \"#utility.yul\":4282:4283   */\n      0x00\n        /* \"#utility.yul\":4279:4280   */\n      dup5\n        /* \"#utility.yul\":4275:4284   */\n      slt\n        /* \"#utility.yul\":4271:4272   */\n      0x00\n        /* \"#utility.yul\":4268:4269   */\n      dup5\n        /* \"#utility.yul\":4264:4273   */\n      sgt\n        /* \"#utility.yul\":4260:4285   */\n      and\n        /* \"#utility.yul\":4256:4371   */\n      and\n        /* \"#utility.yul\":4253:4394   */\n      iszero\n      tag_111\n      jumpi\n        /* \"#utility.yul\":4374:4392   */\n      tag_112\n      tag_110\n      jump\t// in\n    tag_112:\n        /* \"#utility.yul\":4253:4394   */\n    tag_111:\n        /* \"#utility.yul\":4578:4579   */\n      dup3\n        /* \"#utility.yul\":4510:4576   */\n      0x8000000000000000000000000000000000000000000000000000000000000000\n        /* \"#utility.yul\":4505:4580   */\n      sdiv\n        /* \"#utility.yul\":4502:4503   */\n      dup3\n        /* \"#utility.yul\":4498:4581   */\n      slt\n        /* \"#utility.yul\":4493:4494   */\n      0x00\n        /* \"#utility.yul\":4490:4491   */\n      dup5\n        /* \"#utility.yul\":4486:4495   */\n      sgt\n        /* \"#utility.yul\":4482:4483   */\n      0x00\n        /* \"#utility.yul\":4479:4480   */\n      dup5\n        /* \"#utility.yul\":4475:4484   */\n      slt\n        /* \"#utility.yul\":4471:4496   */\n      and\n        /* \"#utility.yul\":4467:4582   */\n      and\n        /* \"#utility.yul\":4464:4605   */\n      iszero\n      tag_113\n      jumpi\n        /* \"#utility.yul\":4585:4603   */\n      tag_114\n      tag_110\n      jump\t// in\n    tag_114:\n        /* \"#utility.yul\":4464:4605   */\n    tag_113:\n        /* \"#utility.yul\":4788:4789   */\n      dup3\n        /* \"#utility.yul\":4720:4786   */\n      0x7fffffffffffffffffffffffffffffffffffffffffffffffffffffffffffffff\n        /* \"#utility.yul\":4715:4790   */\n      sdiv\n        /* \"#utility.yul\":4712:4713   */\n      dup3\n        /* \"#utility.yul\":4708:4791   */\n      slt\n        /* \"#utility.yul\":4703:4704   */\n      0x00\n        /* \"#utility.yul\":4700:4701   */\n      dup5\n        /* \"#utility.yul\":4696:4705   */\n      slt\n        /* \"#utility.yul\":4692:4693   */\n      0x00\n        /* \"#utility.yul\":4689:4690   */\n      dup5\n        /* \"#utility.yul\":4685:4694   */\n      slt\n        /* \"#utility.yul\":4681:4706   */\n      and\n        /* \"#utility.yul\":4677:4792   */\n      and\n        /* \"#utility.yul\":4674:4815   */\n      iszero\n      tag_115\n      jumpi\n        /* \"#utility.yul\":4795:4813   */\n      tag_116\n      tag_110\n      jump\t// in\n    tag_116:\n        /* \"#utility.yul\":4674:4815   */\n    tag_115:\n        /* \"#utility.yul\":4843:4844   */\n      dup3\n        /* \"#utility.yul\":4840:4841   */\n      dup3\n        /* \"#utility.yul\":4836:4845   */\n      mul\n        /* \"#utility.yul\":4825:4845   */\n      swap1\n      pop\n        /* \"#utility.yul\":3860:4851   */\n      swap3\n      swap2\n      pop\n      pop\n      jump\t// out\n        /* \"#utility.yul\":4857:5205   */\n    tag_32:\n        /* \"#utility.yul\":4897:4904   */\n      0x00\n        /* \"#utility.yul\":4920:4940   */\n      tag_118\n        /* \"#utility.yul\":4938:4939   */\n      dup3\n        /* \"#utility.yul\":4920:4940   */\n      tag_90\n      jump\t// in\n    tag_118:\n        /* \"#utility.yul\":4915:4940   */\n      swap2\n      pop\n        /* \"#utility.yul\":4954:4974   */\n      tag_119\n        /* \"#utility.yul\":4972:4973   */\n      dup4\n        /* \"#utility.yul\":4954:4974   */\n      tag_90\n      jump\t// in\n    tag_119:\n        /* \"#utility.yul\":4949:4974   */\n      swap3\n      pop\n        /* \"#utility.yul\":5142:5143   */\n      dup2\n        /* \"#utility.yul\":5074:5140   */\n      0xffffffffffffffffffffffffffffffffffffffffffffffffffffffffffffffff\n        /* \"#utility.yul\":5070:5144   */\n      div\n        /* \"#utility.yul\":5067:5068   */\n      dup4\n        /* \"#utility.yul\":5064:5145   */\n      gt\n        /* \"#utility.yul\":5059:5060   */\n      dup3\n        /* \"#utility.yul\":5052:5061   */\n      iszero\n        /* \"#utility.yul\":5045:5062   */\n      iszero\n        /* \"#utility.yul\":5041:5146   */\n      and\n        /* \"#utility.yul\":5038:5169   */\n      iszero\n      tag_120\n      jumpi\n        /* \"#utility.yul\":5149:5167   */\n      tag_121\n      tag_110\n      jump\t// in\n    tag_121:\n        /* \"#utility.yul\":5038:5169   */\n    tag_120:\n        /* \"#utility.yul\":5197:5198   */\n      dup3\n        /* \"#utility.yul\":5194:5195   */\n      dup3\n        /* \"#utility.yul\":5190:5199   */\n      mul\n        /* \"#utility.yul\":5179:5199   */\n      swap1\n      pop\n        /* \"#utility.yul\":4857:5205   */\n      swap3\n      swap2\n      pop\n      pop\n      jump\t// out\n        /* \"#utility.yul\":5211:5287   */\n    tag_106:\n        /* \"#utility.yul\":5247:5254   */\n      0x00\n        /* \"#utility.yul\":5276:5281   */\n      dup2\n        /* \"#utility.yul\":5265:5281   */\n      swap1\n      pop\n        /* \"#utility.yul\":5211:5287   */\n      swap2\n      swap1\n      pop\n      jump\t// out\n        /* \"#utility.yul\":5293:5370   */\n    tag_90:\n        /* \"#utility.yul\":5330:5337   */\n      0x00\n        /* \"#utility.yul\":5359:5364   */\n      dup2\n        /* \"#utility.yul\":5348:5364   */\n      swap1\n      pop\n        /* \"#utility.yul\":5293:5370   */\n      swap2\n      swap1\n      pop\n      jump\t// out\n        /* \"#utility.yul\":5376:5481   */\n    tag_124:\n        /* \"#utility.yul\":5412:5419   */\n      0x00\n        /* \"#utility.yul\":5452:5474   */\n      0xffffffffffffffffffff\n        /* \"#utility.yul\":5445:5450   */\n      dup3\n        /* \"#utility.yul\":5441:5475   */\n      and\n        /* \"#utility.yul\":5430:5475   */\n      swap1\n      pop\n        /* \"#utility.yul\":5376:5481   */\n      swap2\n      swap1\n      pop\n      jump\t// out\n        /* \"#utility.yul\":5487:5667   */\n    tag_110:\n        /* \"#utility.yul\":5535:5612   */\n      0x4e487b7100000000000000000000000000000000000000000000000000000000\n        /* \"#utility.yul\":5532:5533   */\n      0x00\n        /* \"#utility.yul\":5525:5613   */\n      mstore\n        /* \"#utility.yul\":5632:5636   */\n      0x11\n        /* \"#utility.yul\":5629:5630   */\n      0x04\n        /* \"#utility.yul\":5622:5637   */\n      mstore\n        /* \"#utility.yul\":5656:5660   */\n      0x24\n        /* \"#utility.yul\":5653:5654   */\n      0x00\n        /* \"#utility.yul\":5646:5661   */\n      revert\n        /* \"#utility.yul\":5673:5853   */\n    tag_103:\n        /* \"#utility.yul\":5721:5798   */\n      0x4e487b7100000000000000000000000000000000000000000000000000000000\n        /* \"#utility.yul\":5718:5719   */\n      0x00\n        /* \"#utility.yul\":5711:5799   */\n      mstore\n        /* \"#utility.yul\":5818:5822   */\n      0x12\n        /* \"#utility.yul\":5815:5816   */\n      0x04\n        /* \"#utility.yul\":5808:5823   */\n      mstore\n        /* \"#utility.yul\":5842:5846   */\n      0x24\n        /* \"#utility.yul\":5839:5840   */\n      0x00\n        /* \"#utility.yul\":5832:5847   */\n      revert\n        /* \"#utility.yul\":5982:6099   */\n    tag_67:\n        /* \"#utility.yul\":6091:6092   */\n      0x00\n        /* \"#utility.yul\":6088:6089   */\n      dup1\n        /* \"#utility.yul\":6081:6093   */\n      revert\n        /* \"#utility.yul\":6105:6273   */\n    tag_86:\n        /* \"#utility.yul\":6245:6265   */\n      0x4469646e27742073656e6420656e6f7567680000000000000000000000000000\n        /* \"#utility.yul\":6241:6242   */\n      0x00\n        /* \"#utility.yul\":6233:6239   */\n      dup3\n        /* \"#utility.yul\":6229:6243   */\n      add\n        /* \"#utility.yul\":6222:6266   */\n      mstore\n        /* \"#utility.yul\":6105:6273   */\n      pop\n      jump\t// out\n        /* \"#utility.yul\":6279:6399   */\n    tag_52:\n        /* \"#utility.yul\":6351:6374   */\n      tag_133\n        /* \"#utility.yul\":6368:6373   */\n      dup2\n        /* \"#utility.yul\":6351:6374   */\n      tag_106\n      jump\t// in\n    tag_133:\n        /* \"#utility.yul\":6344:6349   */\n      dup2\n        /* \"#utility.yul\":6341:6375   */\n      eq\n        /* \"#utility.yul\":6331:6393   */\n      tag_134\n      jumpi\n        /* \"#utility.yul\":6389:6390   */\n      0x00\n        /* \"#utility.yul\":6386:6387   */\n      dup1\n        /* \"#utility.yul\":6379:6391   */\n      revert\n        /* \"#utility.yul\":6331:6393   */\n    tag_134:\n        /* \"#utility.yul\":6279:6399   */\n      pop\n      jump\t// out\n        /* \"#utility.yul\":6405:6527   */\n    tag_56:\n        /* \"#utility.yul\":6478:6502   */\n      tag_136\n        /* \"#utility.yul\":6496:6501   */\n      dup2\n        /* \"#utility.yul\":6478:6502   */\n      tag_90\n      jump\t// in\n    tag_136:\n        /* \"#utility.yul\":6471:6476   */\n      dup2\n        /* \"#utility.yul\":6468:6503   */\n      eq\n        /* \"#utility.yul\":6458:6521   */\n      tag_137\n      jumpi\n        /* \"#utility.yul\":6517:6518   */\n      0x00\n        /* \"#utility.yul\":6514:6515   */\n      dup1\n        /* \"#utility.yul\":6507:6519   */\n      revert\n        /* \"#utility.yul\":6458:6521   */\n    tag_137:\n        /* \"#utility.yul\":6405:6527   */\n      pop\n      jump\t// out\n        /* \"#utility.yul\":6533:6653   */\n    tag_63:\n        /* \"#utility.yul\":6605:6628   */\n      tag_139\n        /* \"#utility.yul\":6622:6627   */\n      dup2\n        /* \"#utility.yul\":6605:6628   */\n      tag_124\n      jump\t// in\n    tag_139:\n        /* \"#utility.yul\":6598:6603   */\n      dup2\n        /* \"#utility.yul\":6595:6629   */\n      eq\n        /* \"#utility.yul\":6585:6647   */\n      tag_140\n      jumpi\n        /* \"#utility.yul\":6643:6644   */\n      0x00\n        /* \"#utility.yul\":6640:6641   */\n      dup1\n        /* \"#utility.yul\":6633:6645   */\n      revert\n        /* \"#utility.yul\":6585:6647   */\n    tag_140:\n        /* \"#utility.yul\":6533:6653   */\n      pop\n      jump\t// out\n\n    auxdata: 0xa264697066735822122039ee0d7679dc86df47d3bc22a39370910ed7396583f2327057cdcf5e5015f55d64736f6c63430008070033\n}\n",
				"bytecode": {
					"linkReferences": {},
					"object": "608060405273d4a33860578de61dbabdc8bfdb98fd742fa7028e6000806101000a81548173ffffffffffffffffffffffffffffffffffffffff021916908373ffffffffffffffffffffffffffffffffffffffff16021790555064746a52880060015534801561006d57600080fd5b506107488061007d6000396000f3fe60806040526004361061003f5760003560e01c80630d8e6e2c146100445780636e5b6b281461006f57806398d5fdca146100ac578063b60d4288146100d7575b600080fd5b34801561005057600080fd5b506100596100e1565b6040516100669190610449565b60405180910390f35b34801561007b57600080fd5b5061009660048036038101906100919190610322565b610187565b6040516100a39190610449565b60405180910390f35b3480156100b857600080fd5b506100c16101c1565b6040516100ce9190610449565b60405180910390f35b6100df61027f565b005b60008060009054906101000a900473ffffffffffffffffffffffffffffffffffffffff1673ffffffffffffffffffffffffffffffffffffffff166354fd4d506040518163ffffffff1660e01b815260040160206040518083038186803b15801561014a57600080fd5b505afa15801561015e573d6000803e3d6000fd5b505050506040513d601f19601f82011682018060405250810190610182919061034f565b905090565b6000806101926101c1565b90506000670de0b6b3a764000084836101ab91906105bd565b6101b59190610475565b90508092505050919050565b60008060008054906101000a900473ffffffffffffffffffffffffffffffffffffffff1673ffffffffffffffffffffffffffffffffffffffff1663feaf968c6040518163ffffffff1660e01b815260040160a06040518083038186803b15801561022a57600080fd5b505afa15801561023e573d6000803e3d6000fd5b505050506040513d601f19601f82011682018060405250810190610262919061037c565b5050509150506402540be4008161027991906104a6565b91505090565b60015461028b34610187565b10156102cc576040517f08c379a00000000000000000000000000000000000000000000000000000000081526004016102c390610429565b60405180910390fd5b565b6000815190506102dd816106cd565b92915050565b6000813590506102f2816106e4565b92915050565b600081519050610307816106e4565b92915050565b60008151905061031c816106fb565b92915050565b6000602082840312156103385761033761069f565b5b6000610346848285016102e3565b91505092915050565b6000602082840312156103655761036461069f565b5b6000610373848285016102f8565b91505092915050565b600080600080600060a086880312156103985761039761069f565b5b60006103a68882890161030d565b95505060206103b7888289016102ce565b94505060406103c8888289016102f8565b93505060606103d9888289016102f8565b92505060806103ea8882890161030d565b9150509295509295909350565b6000610404601283610464565b915061040f826106a4565b602082019050919050565b61042381610621565b82525050565b60006020820190508181036000830152610442816103f7565b9050919050565b600060208201905061045e600083018461041a565b92915050565b600082825260208201905092915050565b600061048082610621565b915061048b83610621565b92508261049b5761049a610670565b5b828204905092915050565b60006104b182610617565b91506104bc83610617565b9250827f7fffffffffffffffffffffffffffffffffffffffffffffffffffffffffffffff04821160008413600084131616156104fb576104fa610641565b5b817f8000000000000000000000000000000000000000000000000000000000000000058312600084126000841316161561053857610537610641565b5b827f8000000000000000000000000000000000000000000000000000000000000000058212600084136000841216161561057557610574610641565b5b827f7fffffffffffffffffffffffffffffffffffffffffffffffffffffffffffffff05821260008412600084121616156105b2576105b1610641565b5b828202905092915050565b60006105c882610621565b91506105d383610621565b9250817fffffffffffffffffffffffffffffffffffffffffffffffffffffffffffffffff048311821515161561060c5761060b610641565b5b828202905092915050565b6000819050919050565b6000819050919050565b600069ffffffffffffffffffff82169050919050565b7f4e487b7100000000000000000000000000000000000000000000000000000000600052601160045260246000fd5b7f4e487b7100000000000000000000000000000000000000000000000000000000600052601260045260246000fd5b600080fd5b7f4469646e27742073656e6420656e6f7567680000000000000000000000000000600082015250565b6106d681610617565b81146106e157600080fd5b50565b6106ed81610621565b81146106f857600080fd5b50565b6107048161062b565b811461070f57600080fd5b5056fea264697066735822122039ee0d7679dc86df47d3bc22a39370910ed7396583f2327057cdcf5e5015f55d64736f6c63430008070033",
					"opcodes": "PUSH1 0x80 PUSH1 0x40 MSTORE PUSH20 0xD4A33860578DE61DBABDC8BFDB98FD742FA7028E PUSH1 0x0 DUP1 PUSH2 0x100 EXP DUP2 SLOAD DUP2 PUSH20 0xFFFFFFFFFFFFFFFFFFFFFFFFFFFFFFFFFFFFFFFF MUL NOT AND SWAP1 DUP4 PUSH20 0xFFFFFFFFFFFFFFFFFFFFFFFFFFFFFFFFFFFFFFFF AND MUL OR SWAP1 SSTORE POP PUSH5 0x746A528800 PUSH1 0x1 SSTORE CALLVALUE DUP1 ISZERO PUSH2 0x6D JUMPI PUSH1 0x0 DUP1 REVERT JUMPDEST POP PUSH2 0x748 DUP1 PUSH2 0x7D PUSH1 0x0 CODECOPY PUSH1 0x0 RETURN INVALID PUSH1 0x80 PUSH1 0x40 MSTORE PUSH1 0x4 CALLDATASIZE LT PUSH2 0x3F JUMPI PUSH1 0x0 CALLDATALOAD PUSH1 0xE0 SHR DUP1 PUSH4 0xD8E6E2C EQ PUSH2 0x44 JUMPI DUP1 PUSH4 0x6E5B6B28 EQ PUSH2 0x6F JUMPI DUP1 PUSH4 0x98D5FDCA EQ PUSH2 0xAC JUMPI DUP1 PUSH4 0xB60D4288 EQ PUSH2 0xD7 JUMPI JUMPDEST PUSH1 0x0 DUP1 REVERT JUMPDEST CALLVALUE DUP1 ISZERO PUSH2 0x50 JUMPI PUSH1 0x0 DUP1 REVERT JUMPDEST POP PUSH2 0x59 PUSH2 0xE1 JUMP JUMPDEST PUSH1 0x40 MLOAD PUSH2 0x66 SWAP2 SWAP1 PUSH2 0x449 JUMP JUMPDEST PUSH1 0x40 MLOAD DUP1 SWAP2 SUB SWAP1 RETURN JUMPDEST CALLVALUE DUP1 ISZERO PUSH2 0x7B JUMPI PUSH1 0x0 DUP1 REVERT JUMPDEST POP PUSH2 0x96 PUSH1 0x4 DUP1 CALLDATASIZE SUB DUP2 ADD SWAP1 PUSH2 0x91 SWAP2 SWAP1 PUSH2 0x322 JUMP JUMPDEST PUSH2 0x187 JUMP JUMPDEST PUSH1 0x40 MLOAD PUSH2 0xA3 SWAP2 SWAP1 PUSH2 0x449 JUMP JUMPDEST PUSH1 0x40 MLOAD DUP1 SWAP2 SUB SWAP1 RETURN JUMPDEST CALLVALUE DUP1 ISZERO PUSH2 0xB8 JUMPI PUSH1 0x0 DUP1 REVERT JUMPDEST POP PUSH2 0xC1 PUSH2 0x1C1 JUMP JUMPDEST PUSH1 0x40 MLOAD PUSH2 0xCE SWAP2 SWAP1 PUSH2 0x449 JUMP JUMPDEST PUSH1 0x40 MLOAD DUP1 SWAP2 SUB SWAP1 RETURN JUMPDEST PUSH2 0xDF PUSH2 0x27F JUMP JUMPDEST STOP JUMPDEST PUSH1 0x0 DUP1 PUSH1 0x0 SWAP1 SLOAD SWAP1 PUSH2 0x100 EXP SWAP1 DIV PUSH20 0xFFFFFFFFFFFFFFFFFFFFFFFFFFFFFFFFFFFFFFFF AND PUSH20 0xFFFFFFFFFFFFFFFFFFFFFFFFFFFFFFFFFFFFFFFF AND PUSH4 0x54FD4D50 PUSH1 0x40 MLOAD DUP2 PUSH4 0xFFFFFFFF AND PUSH1 0xE0 SHL DUP2 MSTORE PUSH1 0x4 ADD PUSH1 0x20 PUSH1 0x40 MLOAD DUP1 DUP4 SUB DUP2 DUP7 DUP1 EXTCODESIZE ISZERO DUP1 ISZERO PUSH2 0x14A JUMPI PUSH1 0x0 DUP1 REVERT JUMPDEST POP GAS STATICCALL ISZERO DUP1 ISZERO PUSH2 0x15E JUMPI RETURNDATASIZE PUSH1 0x0 DUP1 RETURNDATACOPY RETURNDATASIZE PUSH1 0x0 REVERT JUMPDEST POP POP POP POP PUSH1 0x40 MLOAD RETURNDATASIZE PUSH1 0x1F NOT PUSH1 0x1F DUP3 ADD AND DUP3 ADD DUP1 PUSH1 0x40 MSTORE POP DUP2 ADD SWAP1 PUSH2 0x182 SWAP2 SWAP1 PUSH2 0x34F JUMP JUMPDEST SWAP1 POP SWAP1 JUMP JUMPDEST PUSH1 0x0 DUP1 PUSH2 0x192 PUSH2 0x1C1 JUMP JUMPDEST SWAP1 POP PUSH1 0x0 PUSH8 0xDE0B6B3A7640000 DUP5 DUP4 PUSH2 0x1AB SWAP2 SWAP1 PUSH2 0x5BD JUMP JUMPDEST PUSH2 0x1B5 SWAP2 SWAP1 PUSH2 0x475 JUMP JUMPDEST SWAP1 POP DUP1 SWAP3 POP POP POP SWAP2 SWAP1 POP JUMP JUMPDEST PUSH1 0x0 DUP1 PUSH1 0x0 DUP1 SLOAD SWAP1 PUSH2 0x100 EXP SWAP1 DIV PUSH20 0xFFFFFFFFFFFFFFFFFFFFFFFFFFFFFFFFFFFFFFFF AND PUSH20 0xFFFFFFFFFFFFFFFFFFFFFFFFFFFFFFFFFFFFFFFF AND PUSH4 0xFEAF968C PUSH1 0x40 MLOAD DUP2 PUSH4 0xFFFFFFFF AND PUSH1 0xE0 SHL DUP2 MSTORE PUSH1 0x4 ADD PUSH1 0xA0 PUSH1 0x40 MLOAD DUP1 DUP4 SUB DUP2 DUP7 DUP1 EXTCODESIZE ISZERO DUP1 ISZERO PUSH2 0x22A JUMPI PUSH1 0x0 DUP1 REVERT JUMPDEST POP GAS STATICCALL ISZERO DUP1 ISZERO PUSH2 0x23E JUMPI RETURNDATASIZE PUSH1 0x0 DUP1 RETURNDATACOPY RETURNDATASIZE PUSH1 0x0 REVERT JUMPDEST POP POP POP POP PUSH1 0x40 MLOAD RETURNDATASIZE PUSH1 0x1F NOT PUSH1 0x1F DUP3 ADD AND DUP3 ADD DUP1 PUSH1 0x40 MSTORE POP DUP2 ADD SWAP1 PUSH2 0x262 SWAP2 SWAP1 PUSH2 0x37C JUMP JUMPDEST POP POP POP SWAP2 POP POP PUSH5 0x2540BE400 DUP2 PUSH2 0x279 SWAP2 SWAP1 PUSH2 0x4A6 JUMP JUMPDEST SWAP2 POP POP SWAP1 JUMP JUMPDEST PUSH1 0x1 SLOAD PUSH2 0x28B CALLVALUE PUSH2 0x187 JUMP JUMPDEST LT ISZERO PUSH2 0x2CC JUMPI PUSH1 0x40 MLOAD PUSH32 0x8C379A000000000000000000000000000000000000000000000000000000000 DUP2 MSTORE PUSH1 0x4 ADD PUSH2 0x2C3 SWAP1 PUSH2 0x429 JUMP JUMPDEST PUSH1 0x40 MLOAD DUP1 SWAP2 SUB SWAP1 REVERT JUMPDEST JUMP JUMPDEST PUSH1 0x0 DUP2 MLOAD SWAP1 POP PUSH2 0x2DD DUP2 PUSH2 0x6CD JUMP JUMPDEST SWAP3 SWAP2 POP POP JUMP JUMPDEST PUSH1 0x0 DUP2 CALLDATALOAD SWAP1 POP PUSH2 0x2F2 DUP2 PUSH2 0x6E4 JUMP JUMPDEST SWAP3 SWAP2 POP POP JUMP JUMPDEST PUSH1 0x0 DUP2 MLOAD SWAP1 POP PUSH2 0x307 DUP2 PUSH2 0x6E4 JUMP JUMPDEST SWAP3 SWAP2 POP POP JUMP JUMPDEST PUSH1 0x0 DUP2 MLOAD SWAP1 POP PUSH2 0x31C DUP2 PUSH2 0x6FB JUMP JUMPDEST SWAP3 SWAP2 POP POP JUMP JUMPDEST PUSH1 0x0 PUSH1 0x20 DUP3 DUP5 SUB SLT ISZERO PUSH2 0x338 JUMPI PUSH2 0x337 PUSH2 0x69F JUMP JUMPDEST JUMPDEST PUSH1 0x0 PUSH2 0x346 DUP5 DUP3 DUP6 ADD PUSH2 0x2E3 JUMP JUMPDEST SWAP2 POP POP SWAP3 SWAP2 POP POP JUMP JUMPDEST PUSH1 0x0 PUSH1 0x20 DUP3 DUP5 SUB SLT ISZERO PUSH2 0x365 JUMPI PUSH2 0x364 PUSH2 0x69F JUMP JUMPDEST JUMPDEST PUSH1 0x0 PUSH2 0x373 DUP5 DUP3 DUP6 ADD PUSH2 0x2F8 JUMP JUMPDEST SWAP2 POP POP SWAP3 SWAP2 POP POP JUMP JUMPDEST PUSH1 0x0 DUP1 PUSH1 0x0 DUP1 PUSH1 0x0 PUSH1 0xA0 DUP7 DUP9 SUB SLT ISZERO PUSH2 0x398 JUMPI PUSH2 0x397 PUSH2 0x69F JUMP JUMPDEST JUMPDEST PUSH1 0x0 PUSH2 0x3A6 DUP9 DUP3 DUP10 ADD PUSH2 0x30D JUMP JUMPDEST SWAP6 POP POP PUSH1 0x20 PUSH2 0x3B7 DUP9 DUP3 DUP10 ADD PUSH2 0x2CE JUMP JUMPDEST SWAP5 POP POP PUSH1 0x40 PUSH2 0x3C8 DUP9 DUP3 DUP10 ADD PUSH2 0x2F8 JUMP JUMPDEST SWAP4 POP POP PUSH1 0x60 PUSH2 0x3D9 DUP9 DUP3 DUP10 ADD PUSH2 0x2F8 JUMP JUMPDEST SWAP3 POP POP PUSH1 0x80 PUSH2 0x3EA DUP9 DUP3 DUP10 ADD PUSH2 0x30D JUMP JUMPDEST SWAP2 POP POP SWAP3 SWAP6 POP SWAP3 SWAP6 SWAP1 SWAP4 POP JUMP JUMPDEST PUSH1 0x0 PUSH2 0x404 PUSH1 0x12 DUP4 PUSH2 0x464 JUMP JUMPDEST SWAP2 POP PUSH2 0x40F DUP3 PUSH2 0x6A4 JUMP JUMPDEST PUSH1 0x20 DUP3 ADD SWAP1 POP SWAP2 SWAP1 POP JUMP JUMPDEST PUSH2 0x423 DUP2 PUSH2 0x621 JUMP JUMPDEST DUP3 MSTORE POP POP JUMP JUMPDEST PUSH1 0x0 PUSH1 0x20 DUP3 ADD SWAP1 POP DUP2 DUP2 SUB PUSH1 0x0 DUP4 ADD MSTORE PUSH2 0x442 DUP2 PUSH2 0x3F7 JUMP JUMPDEST SWAP1 POP SWAP2 SWAP1 POP JUMP JUMPDEST PUSH1 0x0 PUSH1 0x20 DUP3 ADD SWAP1 POP PUSH2 0x45E PUSH1 0x0 DUP4 ADD DUP5 PUSH2 0x41A JUMP JUMPDEST SWAP3 SWAP2 POP POP JUMP JUMPDEST PUSH1 0x0 DUP3 DUP3 MSTORE PUSH1 0x20 DUP3 ADD SWAP1 POP SWAP3 SWAP2 POP POP JUMP JUMPDEST PUSH1 0x0 PUSH2 0x480 DUP3 PUSH2 0x621 JUMP JUMPDEST SWAP2 POP PUSH2 0x48B DUP4 PUSH2 0x621 JUMP JUMPDEST SWAP3 POP DUP3 PUSH2 0x49B JUMPI PUSH2 0x49A PUSH2 0x670 JUMP JUMPDEST JUMPDEST DUP3 DUP3 DIV SWAP1 POP SWAP3 SWAP2 POP POP JUMP JUMPDEST PUSH1 0x0 PUSH2 0x4B1 DUP3 PUSH2 0x617 JUMP JUMPDEST SWAP2 POP PUSH2 0x4BC DUP4 PUSH2 0x617 JUMP JUMPDEST SWAP3 POP DUP3 PUSH32 0x7FFFFFFFFFFFFFFFFFFFFFFFFFFFFFFFFFFFFFFFFFFFFFFFFFFFFFFFFFFFFFFF DIV DUP3 GT PUSH1 0x0 DUP5 SGT PUSH1 0x0 DUP5 SGT AND AND ISZERO PUSH2 0x4FB JUMPI PUSH2 0x4FA PUSH2 0x641 JUMP JUMPDEST JUMPDEST DUP2 PUSH32 0x8000000000000000000000000000000000000000000000000000000000000000 SDIV DUP4 SLT PUSH1 0x0 DUP5 SLT PUSH1 0x0 DUP5 SGT AND AND ISZERO PUSH2 0x538 JUMPI PUSH2 0x537 PUSH2 0x641 JUMP JUMPDEST JUMPDEST DUP3 PUSH32 0x8000000000000000000000000000000000000000000000000000000000000000 SDIV DUP3 SLT PUSH1 0x0 DUP5 SGT PUSH1 0x0 DUP5 SLT AND AND ISZERO PUSH2 0x575 JUMPI PUSH2 0x574 PUSH2 0x641 JUMP JUMPDEST JUMPDEST DUP3 PUSH32 0x7FFFFFFFFFFFFFFFFFFFFFFFFFFFFFFFFFFFFFFFFFFFFFFFFFFFFFFFFFFFFFFF SDIV DUP3 SLT PUSH1 0x0 DUP5 SLT PUSH1 0x0 DUP5 SLT AND AND ISZERO PUSH2 0x5B2 JUMPI PUSH2 0x5B1 PUSH2 0x641 JUMP JUMPDEST JUMPDEST DUP3 DUP3 MUL SWAP1 POP SWAP3 SWAP2 POP POP JUMP JUMPDEST PUSH1 0x0 PUSH2 0x5C8 DUP3 PUSH2 0x621 JUMP JUMPDEST SWAP2 POP PUSH2 0x5D3 DUP4 PUSH2 0x621 JUMP JUMPDEST SWAP3 POP DUP2 PUSH32 0xFFFFFFFFFFFFFFFFFFFFFFFFFFFFFFFFFFFFFFFFFFFFFFFFFFFFFFFFFFFFFFFF DIV DUP4 GT DUP3 ISZERO ISZERO AND ISZERO PUSH2 0x60C JUMPI PUSH2 0x60B PUSH2 0x641 JUMP JUMPDEST JUMPDEST DUP3 DUP3 MUL SWAP1 POP SWAP3 SWAP2 POP POP JUMP JUMPDEST PUSH1 0x0 DUP2 SWAP1 POP SWAP2 SWAP1 POP JUMP JUMPDEST PUSH1 0x0 DUP2 SWAP1 POP SWAP2 SWAP1 POP JUMP JUMPDEST PUSH1 0x0 PUSH10 0xFFFFFFFFFFFFFFFFFFFF DUP3 AND SWAP1 POP SWAP2 SWAP1 POP JUMP JUMPDEST PUSH32 0x4E487B7100000000000000000000000000000000000000000000000000000000 PUSH1 0x0 MSTORE PUSH1 0x11 PUSH1 0x4 MSTORE PUSH1 0x24 PUSH1 0x0 REVERT JUMPDEST PUSH32 0x4E487B7100000000000000000000000000000000000000000000000000000000 PUSH1 0x0 MSTORE PUSH1 0x12 PUSH1 0x4 MSTORE PUSH1 0x24 PUSH1 0x0 REVERT JUMPDEST PUSH1 0x0 DUP1 REVERT JUMPDEST PUSH32 0x4469646E27742073656E6420656E6F7567680000000000000000000000000000 PUSH1 0x0 DUP3 ADD MSTORE POP JUMP JUMPDEST PUSH2 0x6D6 DUP2 PUSH2 0x617 JUMP JUMPDEST DUP2 EQ PUSH2 0x6E1 JUMPI PUSH1 0x0 DUP1 REVERT JUMPDEST POP JUMP JUMPDEST PUSH2 0x6ED DUP2 PUSH2 0x621 JUMP JUMPDEST DUP2 EQ PUSH2 0x6F8 JUMPI PUSH1 0x0 DUP1 REVERT JUMPDEST POP JUMP JUMPDEST PUSH2 0x704 DUP2 PUSH2 0x62B JUMP JUMPDEST DUP2 EQ PUSH2 0x70F JUMPI PUSH1 0x0 DUP1 REVERT JUMPDEST POP JUMP INVALID LOG2 PUSH5 0x6970667358 0x22 SLT KECCAK256 CODECOPY 0xEE 0xD PUSH23 0x79DC86DF47D3BC22A39370910ED7396583F2327057CDCF 0x5E POP ISZERO CREATE2 0x5D PUSH5 0x736F6C6343 STOP ADDMOD SMOD STOP CALLER "
				},
				"gasEstimates": {
					"creation": {
						"codeDepositCost": "372800",
						"executionCost": "46784",
						"totalCost": "419584"
					},
					"external": {
						"fund()": "infinite",
						"getConversionRate(uint256)": "infinite",
						"getPrice()": "infinite",
						"getVersion()": "infinite"
					}
				},
				"methodIdentifiers": {
					"fund()": "b60d4288",
					"getConversionRate(uint256)": "6e5b6b28",
					"getPrice()": "98d5fdca",
					"getVersion()": "0d8e6e2c"
				}
			},
			"storageLayout": {
				"storage": [
					{
						"astId": 54,
						"contract": "Contracts/FundMe.sol:FundMe",
						"label": "aggregatorV3Interface",
						"offset": 0,
						"slot": "0",
						"type": "t_contract(AggregatorV3Interface)45"
					},
					{
						"astId": 59,
						"contract": "Contracts/FundMe.sol:FundMe",
						"label": "limitAmount",
						"offset": 0,
						"slot": "1",
						"type": "t_uint256"
					}
				],
				"types": {
					"t_contract(AggregatorV3Interface)45": {
						"encoding": "inplace",
						"label": "contract AggregatorV3Interface",
						"numberOfBytes": "20"
					},
					"t_uint256": {
						"encoding": "inplace",
						"label": "uint256",
						"numberOfBytes": "32"
					}
				}
			},
			"userdoc": {
				"kind": "user",
				"methods": {},
				"version": 1
			}
		}
	}
}