{
	"Contracts/StorageFactory.sol": {
		"StorageFactory": {
			"abi": [
				{
					"inputs": [],
					"name": "createSimpleStorage",
					"outputs": [],
					"stateMutability": "nonpayable",
					"type": "function"
				},
				{
					"inputs": [
						{
							"internalType": "uint256",
							"name": "_rollNo",
							"type": "uint256"
						},
						{
							"internalType": "string",
							"name": "_name",
							"type": "string"
						}
					],
					"name": "sfAddStudent",
					"outputs": [],
					"stateMutability": "nonpayable",
					"type": "function"
				},
				{
					"inputs": [
						{
							"internalType": "uint256",
							"name": "_index",
							"type": "uint256"
						}
					],
					"name": "sfGetFavouriteNo",
					"outputs": [
						{
							"internalType": "uint256",
							"name": "",
							"type": "uint256"
						}
					],
					"stateMutability": "view",
					"type": "function"
				},
				{
					"inputs": [
						{
							"internalType": "uint256",
							"name": "_favouriteNumber",
							"type": "uint256"
						}
					],
					"name": "sfStore",
					"outputs": [],
					"stateMutability": "nonpayable",
					"type": "function"
				},
				{
					"inputs": [],
					"name": "simpleStorage",
					"outputs": [
						{
							"internalType": "contract SimpleStorage",
							"name": "",
							"type": "address"
						}
					],
					"stateMutability": "view",
					"type": "function"
				},
				{
					"inputs": [
						{
							"internalType": "uint256",
							"name": "",
							"type": "uint256"
						}
					],
					"name": "simpleStorageArray",
					"outputs": [
						{
							"internalType": "contract SimpleStorage",
							"name": "",
							"type": "address"
						}
					],
					"stateMutability": "view",
					"type": "function"
				}
			],
			"devdoc": {
				"kind": "dev",
				"methods": {},
				"version": 1
			},
			"evm": {
				"assembly": "    /* \"Contracts/StorageFactory.sol\":99:753  contract StorageFactory{\r... */\n  mstore(0x40, 0x80)\n  callvalue\n  dup1\n  iszero\n  tag_1\n  jumpi\n  0x00\n  dup1\n  revert\ntag_1:\n  pop\n  dataSize(sub_0)\n  dup1\n  dataOffset(sub_0)\n  0x00\n  codecopy\n  0x00\n  return\nstop\n\nsub_0: assembly {\n        /* \"Contracts/StorageFactory.sol\":99:753  contract StorageFactory{\r... */\n      mstore(0x40, 0x80)\n      callvalue\n      dup1\n      iszero\n      tag_1\n      jumpi\n      0x00\n      dup1\n      revert\n    tag_1:\n      pop\n      jumpi(tag_2, lt(calldatasize, 0x04))\n      shr(0xe0, calldataload(0x00))\n      dup1\n      0x40d66b3b\n      eq\n      tag_3\n      jumpi\n      dup1\n      0x4bffb6be\n      eq\n      tag_4\n      jumpi\n      dup1\n      0x64591bf1\n      eq\n      tag_5\n      jumpi\n      dup1\n      0x6be0d6bf\n      eq\n      tag_6\n      jumpi\n      dup1\n      0x7574ede8\n      eq\n      tag_7\n      jumpi\n      dup1\n      0x83eab6a2\n      eq\n      tag_8\n      jumpi\n    tag_2:\n      0x00\n      dup1\n      revert\n        /* \"Contracts/StorageFactory.sol\":220:361  function createSimpleStorage() public {\r... */\n    tag_3:\n      tag_9\n      tag_10\n      jump\t// in\n    tag_9:\n      stop\n        /* \"Contracts/StorageFactory.sol\":616:750  function sfGetFavouriteNo(uint256 _index) public view returns(uint256) {\r... */\n    tag_4:\n      tag_11\n      0x04\n      dup1\n      calldatasize\n      sub\n      dup2\n      add\n      swap1\n      tag_12\n      swap2\n      swap1\n      tag_13\n      jump\t// in\n    tag_12:\n      tag_14\n      jump\t// in\n    tag_11:\n      mload(0x40)\n      tag_15\n      swap2\n      swap1\n      tag_16\n      jump\t// in\n    tag_15:\n      mload(0x40)\n      dup1\n      swap2\n      sub\n      swap1\n      return\n        /* \"Contracts/StorageFactory.sol\":170:211  SimpleStorage[] public simpleStorageArray */\n    tag_5:\n      tag_17\n      0x04\n      dup1\n      calldatasize\n      sub\n      dup2\n      add\n      swap1\n      tag_18\n      swap2\n      swap1\n      tag_13\n      jump\t// in\n    tag_18:\n      tag_19\n      jump\t// in\n    tag_17:\n      mload(0x40)\n      tag_20\n      swap2\n      swap1\n      tag_21\n      jump\t// in\n    tag_20:\n      mload(0x40)\n      dup1\n      swap2\n      sub\n      swap1\n      return\n        /* \"Contracts/StorageFactory.sol\":129:163  SimpleStorage public simpleStorage */\n    tag_6:\n      tag_22\n      tag_23\n      jump\t// in\n    tag_22:\n      mload(0x40)\n      tag_24\n      swap2\n      swap1\n      tag_21\n      jump\t// in\n    tag_24:\n      mload(0x40)\n      dup1\n      swap2\n      sub\n      swap1\n      return\n        /* \"Contracts/StorageFactory.sol\":369:494  function sfAddStudent(uint256 _rollNo, string memory _name) public{\r... */\n    tag_7:\n      tag_25\n      0x04\n      dup1\n      calldatasize\n      sub\n      dup2\n      add\n      swap1\n      tag_26\n      swap2\n      swap1\n      tag_27\n      jump\t// in\n    tag_26:\n      tag_28\n      jump\t// in\n    tag_25:\n      stop\n        /* \"Contracts/StorageFactory.sol\":502:608  function sfStore(uint256 _favouriteNumber) public {\r... */\n    tag_8:\n      tag_29\n      0x04\n      dup1\n      calldatasize\n      sub\n      dup2\n      add\n      swap1\n      tag_30\n      swap2\n      swap1\n      tag_13\n      jump\t// in\n    tag_30:\n      tag_31\n      jump\t// in\n    tag_29:\n      stop\n        /* \"Contracts/StorageFactory.sol\":220:361  function createSimpleStorage() public {\r... */\n    tag_10:\n        /* \"Contracts/StorageFactory.sol\":285:304  new SimpleStorage() */\n      mload(0x40)\n      tag_33\n      swap1\n      tag_34\n      jump\t// in\n    tag_33:\n      mload(0x40)\n      dup1\n      swap2\n      sub\n      swap1\n      0x00\n      create\n      dup1\n      iszero\n      dup1\n      iszero\n      tag_35\n      jumpi\n      returndatasize\n      0x00\n      dup1\n      returndatacopy\n      revert(0x00, returndatasize)\n    tag_35:\n      pop\n        /* \"Contracts/StorageFactory.sol\":269:282  simpleStorage */\n      0x00\n      dup1\n        /* \"Contracts/StorageFactory.sol\":269:304  simpleStorage = new SimpleStorage() */\n      0x0100\n      exp\n      dup2\n      sload\n      dup2\n      0xffffffffffffffffffffffffffffffffffffffff\n      mul\n      not\n      and\n      swap1\n      dup4\n      0xffffffffffffffffffffffffffffffffffffffff\n      and\n      mul\n      or\n      swap1\n      sstore\n      pop\n        /* \"Contracts/StorageFactory.sol\":315:333  simpleStorageArray */\n      0x01\n        /* \"Contracts/StorageFactory.sol\":339:352  simpleStorage */\n      0x00\n      dup1\n      sload\n      swap1\n      0x0100\n      exp\n      swap1\n      div\n      0xffffffffffffffffffffffffffffffffffffffff\n      and\n        /* \"Contracts/StorageFactory.sol\":315:353  simpleStorageArray.push(simpleStorage) */\n      swap1\n      dup1\n      0x01\n      dup2\n      sload\n      add\n      dup1\n      dup3\n      sstore\n      dup1\n      swap2\n      pop\n      pop\n      0x01\n      swap1\n      sub\n      swap1\n      0x00\n      mstore\n      keccak256(0x00, 0x20)\n      add\n      0x00\n      swap1\n      swap2\n      swap1\n      swap2\n      swap1\n      swap2\n      0x0100\n      exp\n      dup2\n      sload\n      dup2\n      0xffffffffffffffffffffffffffffffffffffffff\n      mul\n      not\n      and\n      swap1\n      dup4\n      0xffffffffffffffffffffffffffffffffffffffff\n      and\n      mul\n      or\n      swap1\n      sstore\n      pop\n        /* \"Contracts/StorageFactory.sol\":220:361  function createSimpleStorage() public {\r... */\n      jump\t// out\n        /* \"Contracts/StorageFactory.sol\":616:750  function sfGetFavouriteNo(uint256 _index) public view returns(uint256) {\r... */\n    tag_14:\n        /* \"Contracts/StorageFactory.sol\":678:685  uint256 */\n      0x00\n        /* \"Contracts/StorageFactory.sol\":705:723  simpleStorageArray */\n      0x01\n        /* \"Contracts/StorageFactory.sol\":724:730  _index */\n      dup3\n        /* \"Contracts/StorageFactory.sol\":705:731  simpleStorageArray[_index] */\n      dup2\n      sload\n      dup2\n      lt\n      tag_38\n      jumpi\n      tag_39\n      tag_40\n      jump\t// in\n    tag_39:\n    tag_38:\n      swap1\n      0x00\n      mstore\n      keccak256(0x00, 0x20)\n      add\n      0x00\n      swap1\n      sload\n      swap1\n      0x0100\n      exp\n      swap1\n      div\n      0xffffffffffffffffffffffffffffffffffffffff\n      and\n        /* \"Contracts/StorageFactory.sol\":705:740  simpleStorageArray[_index].retrieve */\n      0xffffffffffffffffffffffffffffffffffffffff\n      and\n      0x2e64cec1\n        /* \"Contracts/StorageFactory.sol\":705:742  simpleStorageArray[_index].retrieve() */\n      mload(0x40)\n      dup2\n      0xffffffff\n      and\n      0xe0\n      shl\n      dup2\n      mstore\n      0x04\n      add\n      0x20\n      mload(0x40)\n      dup1\n      dup4\n      sub\n      dup2\n      dup7\n      dup1\n      extcodesize\n      iszero\n      dup1\n      iszero\n      tag_42\n      jumpi\n      0x00\n      dup1\n      revert\n    tag_42:\n      pop\n      gas\n      staticcall\n      iszero\n      dup1\n      iszero\n      tag_44\n      jumpi\n      returndatasize\n      0x00\n      dup1\n      returndatacopy\n      revert(0x00, returndatasize)\n    tag_44:\n      pop\n      pop\n      pop\n      pop\n      mload(0x40)\n      returndatasize\n      not(0x1f)\n      0x1f\n      dup3\n      add\n      and\n      dup3\n      add\n      dup1\n      0x40\n      mstore\n      pop\n      dup2\n      add\n      swap1\n      tag_45\n      swap2\n      swap1\n      tag_46\n      jump\t// in\n    tag_45:\n        /* \"Contracts/StorageFactory.sol\":698:742  return simpleStorageArray[_index].retrieve() */\n      swap1\n      pop\n        /* \"Contracts/StorageFactory.sol\":616:750  function sfGetFavouriteNo(uint256 _index) public view returns(uint256) {\r... */\n      swap2\n      swap1\n      pop\n      jump\t// out\n        /* \"Contracts/StorageFactory.sol\":170:211  SimpleStorage[] public simpleStorageArray */\n    tag_19:\n      0x01\n      dup2\n      dup2\n      sload\n      dup2\n      lt\n      tag_47\n      jumpi\n      0x00\n      dup1\n      revert\n    tag_47:\n      swap1\n      0x00\n      mstore\n      keccak256(0x00, 0x20)\n      add\n      0x00\n      swap2\n      pop\n      sload\n      swap1\n      0x0100\n      exp\n      swap1\n      div\n      0xffffffffffffffffffffffffffffffffffffffff\n      and\n      dup2\n      jump\t// out\n        /* \"Contracts/StorageFactory.sol\":129:163  SimpleStorage public simpleStorage */\n    tag_23:\n      0x00\n      dup1\n      sload\n      swap1\n      0x0100\n      exp\n      swap1\n      div\n      0xffffffffffffffffffffffffffffffffffffffff\n      and\n      dup2\n      jump\t// out\n        /* \"Contracts/StorageFactory.sol\":369:494  function sfAddStudent(uint256 _rollNo, string memory _name) public{\r... */\n    tag_28:\n        /* \"Contracts/StorageFactory.sol\":446:459  simpleStorage */\n      0x00\n      dup1\n      sload\n      swap1\n      0x0100\n      exp\n      swap1\n      div\n      0xffffffffffffffffffffffffffffffffffffffff\n      and\n        /* \"Contracts/StorageFactory.sol\":446:470  simpleStorage.addStudent */\n      0xffffffffffffffffffffffffffffffffffffffff\n      and\n      0x0e5eeef7\n        /* \"Contracts/StorageFactory.sol\":471:476  _name */\n      dup3\n        /* \"Contracts/StorageFactory.sol\":478:485  _rollNo */\n      dup5\n        /* \"Contracts/StorageFactory.sol\":446:486  simpleStorage.addStudent(_name, _rollNo) */\n      mload(0x40)\n      dup4\n      0xffffffff\n      and\n      0xe0\n      shl\n      dup2\n      mstore\n      0x04\n      add\n      tag_50\n      swap3\n      swap2\n      swap1\n      tag_51\n      jump\t// in\n    tag_50:\n      0x00\n      mload(0x40)\n      dup1\n      dup4\n      sub\n      dup2\n      0x00\n      dup8\n      dup1\n      extcodesize\n      iszero\n      dup1\n      iszero\n      tag_52\n      jumpi\n      0x00\n      dup1\n      revert\n    tag_52:\n      pop\n      gas\n      call\n      iszero\n      dup1\n      iszero\n      tag_54\n      jumpi\n      returndatasize\n      0x00\n      dup1\n      returndatacopy\n      revert(0x00, returndatasize)\n    tag_54:\n      pop\n      pop\n      pop\n      pop\n        /* \"Contracts/StorageFactory.sol\":369:494  function sfAddStudent(uint256 _rollNo, string memory _name) public{\r... */\n      pop\n      pop\n      jump\t// out\n        /* \"Contracts/StorageFactory.sol\":502:608  function sfStore(uint256 _favouriteNumber) public {\r... */\n    tag_31:\n        /* \"Contracts/StorageFactory.sol\":563:576  simpleStorage */\n      0x00\n      dup1\n      sload\n      swap1\n      0x0100\n      exp\n      swap1\n      div\n      0xffffffffffffffffffffffffffffffffffffffff\n      and\n        /* \"Contracts/StorageFactory.sol\":563:582  simpleStorage.store */\n      0xffffffffffffffffffffffffffffffffffffffff\n      and\n      0x6057361d\n        /* \"Contracts/StorageFactory.sol\":583:599  _favouriteNumber */\n      dup3\n        /* \"Contracts/StorageFactory.sol\":563:600  simpleStorage.store(_favouriteNumber) */\n      mload(0x40)\n      dup3\n      0xffffffff\n      and\n      0xe0\n      shl\n      dup2\n      mstore\n      0x04\n      add\n      tag_56\n      swap2\n      swap1\n      tag_16\n      jump\t// in\n    tag_56:\n      0x00\n      mload(0x40)\n      dup1\n      dup4\n      sub\n      dup2\n      0x00\n      dup8\n      dup1\n      extcodesize\n      iszero\n      dup1\n      iszero\n      tag_57\n      jumpi\n      0x00\n      dup1\n      revert\n    tag_57:\n      pop\n      gas\n      call\n      iszero\n      dup1\n      iszero\n      tag_59\n      jumpi\n      returndatasize\n      0x00\n      dup1\n      returndatacopy\n      revert(0x00, returndatasize)\n    tag_59:\n      pop\n      pop\n      pop\n      pop\n        /* \"Contracts/StorageFactory.sol\":502:608  function sfStore(uint256 _favouriteNumber) public {\r... */\n      pop\n      jump\t// out\n    tag_34:\n      dataSize(sub_0)\n      dup1\n      dataOffset(sub_0)\n      dup4\n      codecopy\n      add\n      swap1\n      jump\t// out\n        /* \"#utility.yul\":7:419   */\n    tag_61:\n        /* \"#utility.yul\":85:90   */\n      0x00\n        /* \"#utility.yul\":110:176   */\n      tag_63\n        /* \"#utility.yul\":126:175   */\n      tag_64\n        /* \"#utility.yul\":168:174   */\n      dup5\n        /* \"#utility.yul\":126:175   */\n      tag_65\n      jump\t// in\n    tag_64:\n        /* \"#utility.yul\":110:176   */\n      tag_66\n      jump\t// in\n    tag_63:\n        /* \"#utility.yul\":101:176   */\n      swap1\n      pop\n        /* \"#utility.yul\":199:205   */\n      dup3\n        /* \"#utility.yul\":192:197   */\n      dup2\n        /* \"#utility.yul\":185:206   */\n      mstore\n        /* \"#utility.yul\":237:241   */\n      0x20\n        /* \"#utility.yul\":230:235   */\n      dup2\n        /* \"#utility.yul\":226:242   */\n      add\n        /* \"#utility.yul\":275:278   */\n      dup5\n        /* \"#utility.yul\":266:272   */\n      dup5\n        /* \"#utility.yul\":261:264   */\n      dup5\n        /* \"#utility.yul\":257:273   */\n      add\n        /* \"#utility.yul\":254:279   */\n      gt\n        /* \"#utility.yul\":251:363   */\n      iszero\n      tag_67\n      jumpi\n        /* \"#utility.yul\":282:361   */\n      tag_68\n      tag_69\n      jump\t// in\n    tag_68:\n        /* \"#utility.yul\":251:363   */\n    tag_67:\n        /* \"#utility.yul\":372:413   */\n      tag_70\n        /* \"#utility.yul\":406:412   */\n      dup5\n        /* \"#utility.yul\":401:404   */\n      dup3\n        /* \"#utility.yul\":396:399   */\n      dup6\n        /* \"#utility.yul\":372:413   */\n      tag_71\n      jump\t// in\n    tag_70:\n        /* \"#utility.yul\":91:419   */\n      pop\n        /* \"#utility.yul\":7:419   */\n      swap4\n      swap3\n      pop\n      pop\n      pop\n      jump\t// out\n        /* \"#utility.yul\":439:779   */\n    tag_72:\n        /* \"#utility.yul\":495:500   */\n      0x00\n        /* \"#utility.yul\":544:547   */\n      dup3\n        /* \"#utility.yul\":537:541   */\n      0x1f\n        /* \"#utility.yul\":529:535   */\n      dup4\n        /* \"#utility.yul\":525:542   */\n      add\n        /* \"#utility.yul\":521:548   */\n      slt\n        /* \"#utility.yul\":511:633   */\n      tag_74\n      jumpi\n        /* \"#utility.yul\":552:631   */\n      tag_75\n      tag_76\n      jump\t// in\n    tag_75:\n        /* \"#utility.yul\":511:633   */\n    tag_74:\n        /* \"#utility.yul\":669:675   */\n      dup2\n        /* \"#utility.yul\":656:676   */\n      calldataload\n        /* \"#utility.yul\":694:773   */\n      tag_77\n        /* \"#utility.yul\":769:772   */\n      dup5\n        /* \"#utility.yul\":761:767   */\n      dup3\n        /* \"#utility.yul\":754:758   */\n      0x20\n        /* \"#utility.yul\":746:752   */\n      dup7\n        /* \"#utility.yul\":742:759   */\n      add\n        /* \"#utility.yul\":694:773   */\n      tag_61\n      jump\t// in\n    tag_77:\n        /* \"#utility.yul\":685:773   */\n      swap2\n      pop\n        /* \"#utility.yul\":501:779   */\n      pop\n        /* \"#utility.yul\":439:779   */\n      swap3\n      swap2\n      pop\n      pop\n      jump\t// out\n        /* \"#utility.yul\":785:924   */\n    tag_78:\n        /* \"#utility.yul\":831:836   */\n      0x00\n        /* \"#utility.yul\":869:875   */\n      dup2\n        /* \"#utility.yul\":856:876   */\n      calldataload\n        /* \"#utility.yul\":847:876   */\n      swap1\n      pop\n        /* \"#utility.yul\":885:918   */\n      tag_80\n        /* \"#utility.yul\":912:917   */\n      dup2\n        /* \"#utility.yul\":885:918   */\n      tag_81\n      jump\t// in\n    tag_80:\n        /* \"#utility.yul\":785:924   */\n      swap3\n      swap2\n      pop\n      pop\n      jump\t// out\n        /* \"#utility.yul\":930:1073   */\n    tag_82:\n        /* \"#utility.yul\":987:992   */\n      0x00\n        /* \"#utility.yul\":1018:1024   */\n      dup2\n        /* \"#utility.yul\":1012:1025   */\n      mload\n        /* \"#utility.yul\":1003:1025   */\n      swap1\n      pop\n        /* \"#utility.yul\":1034:1067   */\n      tag_84\n        /* \"#utility.yul\":1061:1066   */\n      dup2\n        /* \"#utility.yul\":1034:1067   */\n      tag_81\n      jump\t// in\n    tag_84:\n        /* \"#utility.yul\":930:1073   */\n      swap3\n      swap2\n      pop\n      pop\n      jump\t// out\n        /* \"#utility.yul\":1079:1408   */\n    tag_13:\n        /* \"#utility.yul\":1138:1144   */\n      0x00\n        /* \"#utility.yul\":1187:1189   */\n      0x20\n        /* \"#utility.yul\":1175:1184   */\n      dup3\n        /* \"#utility.yul\":1166:1173   */\n      dup5\n        /* \"#utility.yul\":1162:1185   */\n      sub\n        /* \"#utility.yul\":1158:1190   */\n      slt\n        /* \"#utility.yul\":1155:1274   */\n      iszero\n      tag_86\n      jumpi\n        /* \"#utility.yul\":1193:1272   */\n      tag_87\n      tag_88\n      jump\t// in\n    tag_87:\n        /* \"#utility.yul\":1155:1274   */\n    tag_86:\n        /* \"#utility.yul\":1313:1314   */\n      0x00\n        /* \"#utility.yul\":1338:1391   */\n      tag_89\n        /* \"#utility.yul\":1383:1390   */\n      dup5\n        /* \"#utility.yul\":1374:1380   */\n      dup3\n        /* \"#utility.yul\":1363:1372   */\n      dup6\n        /* \"#utility.yul\":1359:1381   */\n      add\n        /* \"#utility.yul\":1338:1391   */\n      tag_78\n      jump\t// in\n    tag_89:\n        /* \"#utility.yul\":1328:1391   */\n      swap2\n      pop\n        /* \"#utility.yul\":1284:1401   */\n      pop\n        /* \"#utility.yul\":1079:1408   */\n      swap3\n      swap2\n      pop\n      pop\n      jump\t// out\n        /* \"#utility.yul\":1414:1765   */\n    tag_46:\n        /* \"#utility.yul\":1484:1490   */\n      0x00\n        /* \"#utility.yul\":1533:1535   */\n      0x20\n        /* \"#utility.yul\":1521:1530   */\n      dup3\n        /* \"#utility.yul\":1512:1519   */\n      dup5\n        /* \"#utility.yul\":1508:1531   */\n      sub\n        /* \"#utility.yul\":1504:1536   */\n      slt\n        /* \"#utility.yul\":1501:1620   */\n      iszero\n      tag_91\n      jumpi\n        /* \"#utility.yul\":1539:1618   */\n      tag_92\n      tag_88\n      jump\t// in\n    tag_92:\n        /* \"#utility.yul\":1501:1620   */\n    tag_91:\n        /* \"#utility.yul\":1659:1660   */\n      0x00\n        /* \"#utility.yul\":1684:1748   */\n      tag_93\n        /* \"#utility.yul\":1740:1747   */\n      dup5\n        /* \"#utility.yul\":1731:1737   */\n      dup3\n        /* \"#utility.yul\":1720:1729   */\n      dup6\n        /* \"#utility.yul\":1716:1738   */\n      add\n        /* \"#utility.yul\":1684:1748   */\n      tag_82\n      jump\t// in\n    tag_93:\n        /* \"#utility.yul\":1674:1748   */\n      swap2\n      pop\n        /* \"#utility.yul\":1630:1758   */\n      pop\n        /* \"#utility.yul\":1414:1765   */\n      swap3\n      swap2\n      pop\n      pop\n      jump\t// out\n        /* \"#utility.yul\":1771:2425   */\n    tag_27:\n        /* \"#utility.yul\":1849:1855   */\n      0x00\n        /* \"#utility.yul\":1857:1863   */\n      dup1\n        /* \"#utility.yul\":1906:1908   */\n      0x40\n        /* \"#utility.yul\":1894:1903   */\n      dup4\n        /* \"#utility.yul\":1885:1892   */\n      dup6\n        /* \"#utility.yul\":1881:1904   */\n      sub\n        /* \"#utility.yul\":1877:1909   */\n      slt\n        /* \"#utility.yul\":1874:1993   */\n      iszero\n      tag_95\n      jumpi\n        /* \"#utility.yul\":1912:1991   */\n      tag_96\n      tag_88\n      jump\t// in\n    tag_96:\n        /* \"#utility.yul\":1874:1993   */\n    tag_95:\n        /* \"#utility.yul\":2032:2033   */\n      0x00\n        /* \"#utility.yul\":2057:2110   */\n      tag_97\n        /* \"#utility.yul\":2102:2109   */\n      dup6\n        /* \"#utility.yul\":2093:2099   */\n      dup3\n        /* \"#utility.yul\":2082:2091   */\n      dup7\n        /* \"#utility.yul\":2078:2100   */\n      add\n        /* \"#utility.yul\":2057:2110   */\n      tag_78\n      jump\t// in\n    tag_97:\n        /* \"#utility.yul\":2047:2110   */\n      swap3\n      pop\n        /* \"#utility.yul\":2003:2120   */\n      pop\n        /* \"#utility.yul\":2187:2189   */\n      0x20\n        /* \"#utility.yul\":2176:2185   */\n      dup4\n        /* \"#utility.yul\":2172:2190   */\n      add\n        /* \"#utility.yul\":2159:2191   */\n      calldataload\n        /* \"#utility.yul\":2218:2236   */\n      0xffffffffffffffff\n        /* \"#utility.yul\":2210:2216   */\n      dup2\n        /* \"#utility.yul\":2207:2237   */\n      gt\n        /* \"#utility.yul\":2204:2321   */\n      iszero\n      tag_98\n      jumpi\n        /* \"#utility.yul\":2240:2319   */\n      tag_99\n      tag_100\n      jump\t// in\n    tag_99:\n        /* \"#utility.yul\":2204:2321   */\n    tag_98:\n        /* \"#utility.yul\":2345:2408   */\n      tag_101\n        /* \"#utility.yul\":2400:2407   */\n      dup6\n        /* \"#utility.yul\":2391:2397   */\n      dup3\n        /* \"#utility.yul\":2380:2389   */\n      dup7\n        /* \"#utility.yul\":2376:2398   */\n      add\n        /* \"#utility.yul\":2345:2408   */\n      tag_72\n      jump\t// in\n    tag_101:\n        /* \"#utility.yul\":2335:2408   */\n      swap2\n      pop\n        /* \"#utility.yul\":2130:2418   */\n      pop\n        /* \"#utility.yul\":1771:2425   */\n      swap3\n      pop\n      swap3\n      swap1\n      pop\n      jump\t// out\n        /* \"#utility.yul\":2431:2602   */\n    tag_102:\n        /* \"#utility.yul\":2538:2595   */\n      tag_104\n        /* \"#utility.yul\":2589:2594   */\n      dup2\n        /* \"#utility.yul\":2538:2595   */\n      tag_105\n      jump\t// in\n    tag_104:\n        /* \"#utility.yul\":2533:2536   */\n      dup3\n        /* \"#utility.yul\":2526:2596   */\n      mstore\n        /* \"#utility.yul\":2431:2602   */\n      pop\n      pop\n      jump\t// out\n        /* \"#utility.yul\":2608:2972   */\n    tag_106:\n        /* \"#utility.yul\":2696:2699   */\n      0x00\n        /* \"#utility.yul\":2724:2763   */\n      tag_108\n        /* \"#utility.yul\":2757:2762   */\n      dup3\n        /* \"#utility.yul\":2724:2763   */\n      tag_109\n      jump\t// in\n    tag_108:\n        /* \"#utility.yul\":2779:2850   */\n      tag_110\n        /* \"#utility.yul\":2843:2849   */\n      dup2\n        /* \"#utility.yul\":2838:2841   */\n      dup6\n        /* \"#utility.yul\":2779:2850   */\n      tag_111\n      jump\t// in\n    tag_110:\n        /* \"#utility.yul\":2772:2850   */\n      swap4\n      pop\n        /* \"#utility.yul\":2859:2911   */\n      tag_112\n        /* \"#utility.yul\":2904:2910   */\n      dup2\n        /* \"#utility.yul\":2899:2902   */\n      dup6\n        /* \"#utility.yul\":2892:2896   */\n      0x20\n        /* \"#utility.yul\":2885:2890   */\n      dup7\n        /* \"#utility.yul\":2881:2897   */\n      add\n        /* \"#utility.yul\":2859:2911   */\n      tag_113\n      jump\t// in\n    tag_112:\n        /* \"#utility.yul\":2936:2965   */\n      tag_114\n        /* \"#utility.yul\":2958:2964   */\n      dup2\n        /* \"#utility.yul\":2936:2965   */\n      tag_115\n      jump\t// in\n    tag_114:\n        /* \"#utility.yul\":2931:2934   */\n      dup5\n        /* \"#utility.yul\":2927:2966   */\n      add\n        /* \"#utility.yul\":2920:2966   */\n      swap2\n      pop\n        /* \"#utility.yul\":2700:2972   */\n      pop\n        /* \"#utility.yul\":2608:2972   */\n      swap3\n      swap2\n      pop\n      pop\n      jump\t// out\n        /* \"#utility.yul\":2978:3096   */\n    tag_116:\n        /* \"#utility.yul\":3065:3089   */\n      tag_118\n        /* \"#utility.yul\":3083:3088   */\n      dup2\n        /* \"#utility.yul\":3065:3089   */\n      tag_119\n      jump\t// in\n    tag_118:\n        /* \"#utility.yul\":3060:3063   */\n      dup3\n        /* \"#utility.yul\":3053:3090   */\n      mstore\n        /* \"#utility.yul\":2978:3096   */\n      pop\n      pop\n      jump\t// out\n        /* \"#utility.yul\":3102:3364   */\n    tag_21:\n        /* \"#utility.yul\":3215:3219   */\n      0x00\n        /* \"#utility.yul\":3253:3255   */\n      0x20\n        /* \"#utility.yul\":3242:3251   */\n      dup3\n        /* \"#utility.yul\":3238:3256   */\n      add\n        /* \"#utility.yul\":3230:3256   */\n      swap1\n      pop\n        /* \"#utility.yul\":3266:3357   */\n      tag_121\n        /* \"#utility.yul\":3354:3355   */\n      0x00\n        /* \"#utility.yul\":3343:3352   */\n      dup4\n        /* \"#utility.yul\":3339:3356   */\n      add\n        /* \"#utility.yul\":3330:3336   */\n      dup5\n        /* \"#utility.yul\":3266:3357   */\n      tag_102\n      jump\t// in\n    tag_121:\n        /* \"#utility.yul\":3102:3364   */\n      swap3\n      swap2\n      pop\n      pop\n      jump\t// out\n        /* \"#utility.yul\":3370:3793   */\n    tag_51:\n        /* \"#utility.yul\":3511:3515   */\n      0x00\n        /* \"#utility.yul\":3549:3551   */\n      0x40\n        /* \"#utility.yul\":3538:3547   */\n      dup3\n        /* \"#utility.yul\":3534:3552   */\n      add\n        /* \"#utility.yul\":3526:3552   */\n      swap1\n      pop\n        /* \"#utility.yul\":3598:3607   */\n      dup2\n        /* \"#utility.yul\":3592:3596   */\n      dup2\n        /* \"#utility.yul\":3588:3608   */\n      sub\n        /* \"#utility.yul\":3584:3585   */\n      0x00\n        /* \"#utility.yul\":3573:3582   */\n      dup4\n        /* \"#utility.yul\":3569:3586   */\n      add\n        /* \"#utility.yul\":3562:3609   */\n      mstore\n        /* \"#utility.yul\":3626:3704   */\n      tag_123\n        /* \"#utility.yul\":3699:3703   */\n      dup2\n        /* \"#utility.yul\":3690:3696   */\n      dup6\n        /* \"#utility.yul\":3626:3704   */\n      tag_106\n      jump\t// in\n    tag_123:\n        /* \"#utility.yul\":3618:3704   */\n      swap1\n      pop\n        /* \"#utility.yul\":3714:3786   */\n      tag_124\n        /* \"#utility.yul\":3782:3784   */\n      0x20\n        /* \"#utility.yul\":3771:3780   */\n      dup4\n        /* \"#utility.yul\":3767:3785   */\n      add\n        /* \"#utility.yul\":3758:3764   */\n      dup5\n        /* \"#utility.yul\":3714:3786   */\n      tag_116\n      jump\t// in\n    tag_124:\n        /* \"#utility.yul\":3370:3793   */\n      swap4\n      swap3\n      pop\n      pop\n      pop\n      jump\t// out\n        /* \"#utility.yul\":3799:4021   */\n    tag_16:\n        /* \"#utility.yul\":3892:3896   */\n      0x00\n        /* \"#utility.yul\":3930:3932   */\n      0x20\n        /* \"#utility.yul\":3919:3928   */\n      dup3\n        /* \"#utility.yul\":3915:3933   */\n      add\n        /* \"#utility.yul\":3907:3933   */\n      swap1\n      pop\n        /* \"#utility.yul\":3943:4014   */\n      tag_126\n        /* \"#utility.yul\":4011:4012   */\n      0x00\n        /* \"#utility.yul\":4000:4009   */\n      dup4\n        /* \"#utility.yul\":3996:4013   */\n      add\n        /* \"#utility.yul\":3987:3993   */\n      dup5\n        /* \"#utility.yul\":3943:4014   */\n      tag_116\n      jump\t// in\n    tag_126:\n        /* \"#utility.yul\":3799:4021   */\n      swap3\n      swap2\n      pop\n      pop\n      jump\t// out\n        /* \"#utility.yul\":4027:4156   */\n    tag_66:\n        /* \"#utility.yul\":4061:4067   */\n      0x00\n        /* \"#utility.yul\":4088:4108   */\n      tag_128\n      tag_129\n      jump\t// in\n    tag_128:\n        /* \"#utility.yul\":4078:4108   */\n      swap1\n      pop\n        /* \"#utility.yul\":4117:4150   */\n      tag_130\n        /* \"#utility.yul\":4145:4149   */\n      dup3\n        /* \"#utility.yul\":4137:4143   */\n      dup3\n        /* \"#utility.yul\":4117:4150   */\n      tag_131\n      jump\t// in\n    tag_130:\n        /* \"#utility.yul\":4027:4156   */\n      swap2\n      swap1\n      pop\n      jump\t// out\n        /* \"#utility.yul\":4162:4237   */\n    tag_129:\n        /* \"#utility.yul\":4195:4201   */\n      0x00\n        /* \"#utility.yul\":4228:4230   */\n      0x40\n        /* \"#utility.yul\":4222:4231   */\n      mload\n        /* \"#utility.yul\":4212:4231   */\n      swap1\n      pop\n        /* \"#utility.yul\":4162:4237   */\n      swap1\n      jump\t// out\n        /* \"#utility.yul\":4243:4551   */\n    tag_65:\n        /* \"#utility.yul\":4305:4309   */\n      0x00\n        /* \"#utility.yul\":4395:4413   */\n      0xffffffffffffffff\n        /* \"#utility.yul\":4387:4393   */\n      dup3\n        /* \"#utility.yul\":4384:4414   */\n      gt\n        /* \"#utility.yul\":4381:4437   */\n      iszero\n      tag_134\n      jumpi\n        /* \"#utility.yul\":4417:4435   */\n      tag_135\n      tag_136\n      jump\t// in\n    tag_135:\n        /* \"#utility.yul\":4381:4437   */\n    tag_134:\n        /* \"#utility.yul\":4455:4484   */\n      tag_137\n        /* \"#utility.yul\":4477:4483   */\n      dup3\n        /* \"#utility.yul\":4455:4484   */\n      tag_115\n      jump\t// in\n    tag_137:\n        /* \"#utility.yul\":4447:4484   */\n      swap1\n      pop\n        /* \"#utility.yul\":4539:4543   */\n      0x20\n        /* \"#utility.yul\":4533:4537   */\n      dup2\n        /* \"#utility.yul\":4529:4544   */\n      add\n        /* \"#utility.yul\":4521:4544   */\n      swap1\n      pop\n        /* \"#utility.yul\":4243:4551   */\n      swap2\n      swap1\n      pop\n      jump\t// out\n        /* \"#utility.yul\":4557:4656   */\n    tag_109:\n        /* \"#utility.yul\":4609:4615   */\n      0x00\n        /* \"#utility.yul\":4643:4648   */\n      dup2\n        /* \"#utility.yul\":4637:4649   */\n      mload\n        /* \"#utility.yul\":4627:4649   */\n      swap1\n      pop\n        /* \"#utility.yul\":4557:4656   */\n      swap2\n      swap1\n      pop\n      jump\t// out\n        /* \"#utility.yul\":4662:4831   */\n    tag_111:\n        /* \"#utility.yul\":4746:4757   */\n      0x00\n        /* \"#utility.yul\":4780:4786   */\n      dup3\n        /* \"#utility.yul\":4775:4778   */\n      dup3\n        /* \"#utility.yul\":4768:4787   */\n      mstore\n        /* \"#utility.yul\":4820:4824   */\n      0x20\n        /* \"#utility.yul\":4815:4818   */\n      dup3\n        /* \"#utility.yul\":4811:4825   */\n      add\n        /* \"#utility.yul\":4796:4825   */\n      swap1\n      pop\n        /* \"#utility.yul\":4662:4831   */\n      swap3\n      swap2\n      pop\n      pop\n      jump\t// out\n        /* \"#utility.yul\":4837:4963   */\n    tag_140:\n        /* \"#utility.yul\":4874:4881   */\n      0x00\n        /* \"#utility.yul\":4914:4956   */\n      0xffffffffffffffffffffffffffffffffffffffff\n        /* \"#utility.yul\":4907:4912   */\n      dup3\n        /* \"#utility.yul\":4903:4957   */\n      and\n        /* \"#utility.yul\":4892:4957   */\n      swap1\n      pop\n        /* \"#utility.yul\":4837:4963   */\n      swap2\n      swap1\n      pop\n      jump\t// out\n        /* \"#utility.yul\":4969:5046   */\n    tag_119:\n        /* \"#utility.yul\":5006:5013   */\n      0x00\n        /* \"#utility.yul\":5035:5040   */\n      dup2\n        /* \"#utility.yul\":5024:5040   */\n      swap1\n      pop\n        /* \"#utility.yul\":4969:5046   */\n      swap2\n      swap1\n      pop\n      jump\t// out\n        /* \"#utility.yul\":5052:5198   */\n    tag_105:\n        /* \"#utility.yul\":5122:5131   */\n      0x00\n        /* \"#utility.yul\":5155:5192   */\n      tag_144\n        /* \"#utility.yul\":5186:5191   */\n      dup3\n        /* \"#utility.yul\":5155:5192   */\n      tag_145\n      jump\t// in\n    tag_144:\n        /* \"#utility.yul\":5142:5192   */\n      swap1\n      pop\n        /* \"#utility.yul\":5052:5198   */\n      swap2\n      swap1\n      pop\n      jump\t// out\n        /* \"#utility.yul\":5204:5330   */\n    tag_145:\n        /* \"#utility.yul\":5254:5263   */\n      0x00\n        /* \"#utility.yul\":5287:5324   */\n      tag_147\n        /* \"#utility.yul\":5318:5323   */\n      dup3\n        /* \"#utility.yul\":5287:5324   */\n      tag_148\n      jump\t// in\n    tag_147:\n        /* \"#utility.yul\":5274:5324   */\n      swap1\n      pop\n        /* \"#utility.yul\":5204:5330   */\n      swap2\n      swap1\n      pop\n      jump\t// out\n        /* \"#utility.yul\":5336:5449   */\n    tag_148:\n        /* \"#utility.yul\":5386:5395   */\n      0x00\n        /* \"#utility.yul\":5419:5443   */\n      tag_150\n        /* \"#utility.yul\":5437:5442   */\n      dup3\n        /* \"#utility.yul\":5419:5443   */\n      tag_140\n      jump\t// in\n    tag_150:\n        /* \"#utility.yul\":5406:5443   */\n      swap1\n      pop\n        /* \"#utility.yul\":5336:5449   */\n      swap2\n      swap1\n      pop\n      jump\t// out\n        /* \"#utility.yul\":5455:5609   */\n    tag_71:\n        /* \"#utility.yul\":5539:5545   */\n      dup3\n        /* \"#utility.yul\":5534:5537   */\n      dup2\n        /* \"#utility.yul\":5529:5532   */\n      dup4\n        /* \"#utility.yul\":5516:5546   */\n      calldatacopy\n        /* \"#utility.yul\":5601:5602   */\n      0x00\n        /* \"#utility.yul\":5592:5598   */\n      dup4\n        /* \"#utility.yul\":5587:5590   */\n      dup4\n        /* \"#utility.yul\":5583:5599   */\n      add\n        /* \"#utility.yul\":5576:5603   */\n      mstore\n        /* \"#utility.yul\":5455:5609   */\n      pop\n      pop\n      pop\n      jump\t// out\n        /* \"#utility.yul\":5615:5922   */\n    tag_113:\n        /* \"#utility.yul\":5683:5684   */\n      0x00\n        /* \"#utility.yul\":5693:5806   */\n    tag_153:\n        /* \"#utility.yul\":5707:5713   */\n      dup4\n        /* \"#utility.yul\":5704:5705   */\n      dup2\n        /* \"#utility.yul\":5701:5714   */\n      lt\n        /* \"#utility.yul\":5693:5806   */\n      iszero\n      tag_155\n      jumpi\n        /* \"#utility.yul\":5792:5793   */\n      dup1\n        /* \"#utility.yul\":5787:5790   */\n      dup3\n        /* \"#utility.yul\":5783:5794   */\n      add\n        /* \"#utility.yul\":5777:5795   */\n      mload\n        /* \"#utility.yul\":5773:5774   */\n      dup2\n        /* \"#utility.yul\":5768:5771   */\n      dup5\n        /* \"#utility.yul\":5764:5775   */\n      add\n        /* \"#utility.yul\":5757:5796   */\n      mstore\n        /* \"#utility.yul\":5729:5731   */\n      0x20\n        /* \"#utility.yul\":5726:5727   */\n      dup2\n        /* \"#utility.yul\":5722:5732   */\n      add\n        /* \"#utility.yul\":5717:5732   */\n      swap1\n      pop\n        /* \"#utility.yul\":5693:5806   */\n      jump(tag_153)\n    tag_155:\n        /* \"#utility.yul\":5824:5830   */\n      dup4\n        /* \"#utility.yul\":5821:5822   */\n      dup2\n        /* \"#utility.yul\":5818:5831   */\n      gt\n        /* \"#utility.yul\":5815:5916   */\n      iszero\n      tag_156\n      jumpi\n        /* \"#utility.yul\":5904:5905   */\n      0x00\n        /* \"#utility.yul\":5895:5901   */\n      dup5\n        /* \"#utility.yul\":5890:5893   */\n      dup5\n        /* \"#utility.yul\":5886:5902   */\n      add\n        /* \"#utility.yul\":5879:5906   */\n      mstore\n        /* \"#utility.yul\":5815:5916   */\n    tag_156:\n        /* \"#utility.yul\":5664:5922   */\n      pop\n        /* \"#utility.yul\":5615:5922   */\n      pop\n      pop\n      pop\n      jump\t// out\n        /* \"#utility.yul\":5928:6209   */\n    tag_131:\n        /* \"#utility.yul\":6011:6038   */\n      tag_158\n        /* \"#utility.yul\":6033:6037   */\n      dup3\n        /* \"#utility.yul\":6011:6038   */\n      tag_115\n      jump\t// in\n    tag_158:\n        /* \"#utility.yul\":6003:6009   */\n      dup2\n        /* \"#utility.yul\":5999:6039   */\n      add\n        /* \"#utility.yul\":6141:6147   */\n      dup2\n        /* \"#utility.yul\":6129:6139   */\n      dup2\n        /* \"#utility.yul\":6126:6148   */\n      lt\n        /* \"#utility.yul\":6105:6123   */\n      0xffffffffffffffff\n        /* \"#utility.yul\":6093:6103   */\n      dup3\n        /* \"#utility.yul\":6090:6124   */\n      gt\n        /* \"#utility.yul\":6087:6149   */\n      or\n        /* \"#utility.yul\":6084:6172   */\n      iszero\n      tag_159\n      jumpi\n        /* \"#utility.yul\":6152:6170   */\n      tag_160\n      tag_136\n      jump\t// in\n    tag_160:\n        /* \"#utility.yul\":6084:6172   */\n    tag_159:\n        /* \"#utility.yul\":6192:6202   */\n      dup1\n        /* \"#utility.yul\":6188:6190   */\n      0x40\n        /* \"#utility.yul\":6181:6203   */\n      mstore\n        /* \"#utility.yul\":5971:6209   */\n      pop\n        /* \"#utility.yul\":5928:6209   */\n      pop\n      pop\n      jump\t// out\n        /* \"#utility.yul\":6215:6395   */\n    tag_40:\n        /* \"#utility.yul\":6263:6340   */\n      0x4e487b7100000000000000000000000000000000000000000000000000000000\n        /* \"#utility.yul\":6260:6261   */\n      0x00\n        /* \"#utility.yul\":6253:6341   */\n      mstore\n        /* \"#utility.yul\":6360:6364   */\n      0x32\n        /* \"#utility.yul\":6357:6358   */\n      0x04\n        /* \"#utility.yul\":6350:6365   */\n      mstore\n        /* \"#utility.yul\":6384:6388   */\n      0x24\n        /* \"#utility.yul\":6381:6382   */\n      0x00\n        /* \"#utility.yul\":6374:6389   */\n      revert\n        /* \"#utility.yul\":6401:6581   */\n    tag_136:\n        /* \"#utility.yul\":6449:6526   */\n      0x4e487b7100000000000000000000000000000000000000000000000000000000\n        /* \"#utility.yul\":6446:6447   */\n      0x00\n        /* \"#utility.yul\":6439:6527   */\n      mstore\n        /* \"#utility.yul\":6546:6550   */\n      0x41\n        /* \"#utility.yul\":6543:6544   */\n      0x04\n        /* \"#utility.yul\":6536:6551   */\n      mstore\n        /* \"#utility.yul\":6570:6574   */\n      0x24\n        /* \"#utility.yul\":6567:6568   */\n      0x00\n        /* \"#utility.yul\":6560:6575   */\n      revert\n        /* \"#utility.yul\":6587:6704   */\n    tag_76:\n        /* \"#utility.yul\":6696:6697   */\n      0x00\n        /* \"#utility.yul\":6693:6694   */\n      dup1\n        /* \"#utility.yul\":6686:6698   */\n      revert\n        /* \"#utility.yul\":6710:6827   */\n    tag_69:\n        /* \"#utility.yul\":6819:6820   */\n      0x00\n        /* \"#utility.yul\":6816:6817   */\n      dup1\n        /* \"#utility.yul\":6809:6821   */\n      revert\n        /* \"#utility.yul\":6833:6950   */\n    tag_100:\n        /* \"#utility.yul\":6942:6943   */\n      0x00\n        /* \"#utility.yul\":6939:6940   */\n      dup1\n        /* \"#utility.yul\":6932:6944   */\n      revert\n        /* \"#utility.yul\":6956:7073   */\n    tag_88:\n        /* \"#utility.yul\":7065:7066   */\n      0x00\n        /* \"#utility.yul\":7062:7063   */\n      dup1\n        /* \"#utility.yul\":7055:7067   */\n      revert\n        /* \"#utility.yul\":7079:7181   */\n    tag_115:\n        /* \"#utility.yul\":7120:7126   */\n      0x00\n        /* \"#utility.yul\":7171:7173   */\n      0x1f\n        /* \"#utility.yul\":7167:7174   */\n      not\n        /* \"#utility.yul\":7162:7164   */\n      0x1f\n        /* \"#utility.yul\":7155:7160   */\n      dup4\n        /* \"#utility.yul\":7151:7165   */\n      add\n        /* \"#utility.yul\":7147:7175   */\n      and\n        /* \"#utility.yul\":7137:7175   */\n      swap1\n      pop\n        /* \"#utility.yul\":7079:7181   */\n      swap2\n      swap1\n      pop\n      jump\t// out\n        /* \"#utility.yul\":7187:7309   */\n    tag_81:\n        /* \"#utility.yul\":7260:7284   */\n      tag_169\n        /* \"#utility.yul\":7278:7283   */\n      dup2\n        /* \"#utility.yul\":7260:7284   */\n      tag_119\n      jump\t// in\n    tag_169:\n        /* \"#utility.yul\":7253:7258   */\n      dup2\n        /* \"#utility.yul\":7250:7285   */\n      eq\n        /* \"#utility.yul\":7240:7303   */\n      tag_170\n      jumpi\n        /* \"#utility.yul\":7299:7300   */\n      0x00\n        /* \"#utility.yul\":7296:7297   */\n      dup1\n        /* \"#utility.yul\":7289:7301   */\n      revert\n        /* \"#utility.yul\":7240:7303   */\n    tag_170:\n        /* \"#utility.yul\":7187:7309   */\n      pop\n      jump\t// out\n    stop\n\n    sub_0: assembly {\n            /* \"Contracts/SimpleStorage.sol\":62:667  contract SimpleStorage{\r... */\n          mstore(0x40, 0x80)\n          callvalue\n          dup1\n          iszero\n          tag_1\n          jumpi\n          0x00\n          dup1\n          revert\n        tag_1:\n          pop\n          dataSize(sub_0)\n          dup1\n          dataOffset(sub_0)\n          0x00\n          codecopy\n          0x00\n          return\n        stop\n\n        sub_0: assembly {\n                /* \"Contracts/SimpleStorage.sol\":62:667  contract SimpleStorage{\r... */\n              mstore(0x40, 0x80)\n              callvalue\n              dup1\n              iszero\n              tag_1\n              jumpi\n              0x00\n              dup1\n              revert\n            tag_1:\n              pop\n              jumpi(tag_2, lt(calldatasize, 0x04))\n              shr(0xe0, calldataload(0x00))\n              dup1\n              0x06ead22e\n              eq\n              tag_3\n              jumpi\n              dup1\n              0x0e5eeef7\n              eq\n              tag_4\n              jumpi\n              dup1\n              0x2e64cec1\n              eq\n              tag_5\n              jumpi\n              dup1\n              0x5457b83f\n              eq\n              tag_6\n              jumpi\n              dup1\n              0x6057361d\n              eq\n              tag_7\n              jumpi\n            tag_2:\n              0x00\n              dup1\n              revert\n                /* \"Contracts/SimpleStorage.sol\":202:227  Student[] public students */\n            tag_3:\n              tag_8\n              0x04\n              dup1\n              calldatasize\n              sub\n              dup2\n              add\n              swap1\n              tag_9\n              swap2\n              swap1\n              tag_10\n              jump\t// in\n            tag_9:\n              tag_11\n              jump\t// in\n            tag_8:\n              mload(0x40)\n              tag_12\n              swap3\n              swap2\n              swap1\n              tag_13\n              jump\t// in\n            tag_12:\n              mload(0x40)\n              dup1\n              swap2\n              sub\n              swap1\n              return\n                /* \"Contracts/SimpleStorage.sol\":292:456  function addStudent(string memory _name, uint256 _rollNo) public{\r... */\n            tag_4:\n              tag_14\n              0x04\n              dup1\n              calldatasize\n              sub\n              dup2\n              add\n              swap1\n              tag_15\n              swap2\n              swap1\n              tag_16\n              jump\t// in\n            tag_15:\n              tag_17\n              jump\t// in\n            tag_14:\n              stop\n                /* \"Contracts/SimpleStorage.sol\":573:662  function retrieve() public view returns(uint256){\r... */\n            tag_5:\n              tag_18\n              tag_19\n              jump\t// in\n            tag_18:\n              mload(0x40)\n              tag_20\n              swap2\n              swap1\n              tag_21\n              jump\t// in\n            tag_20:\n              mload(0x40)\n              dup1\n              swap2\n              sub\n              swap1\n              return\n                /* \"Contracts/SimpleStorage.sol\":234:283  mapping(uint256 => string) public rollNoToNameMap */\n            tag_6:\n              tag_22\n              0x04\n              dup1\n              calldatasize\n              sub\n              dup2\n              add\n              swap1\n              tag_23\n              swap2\n              swap1\n              tag_10\n              jump\t// in\n            tag_23:\n              tag_24\n              jump\t// in\n            tag_22:\n              mload(0x40)\n              tag_25\n              swap2\n              swap1\n              tag_26\n              jump\t// in\n            tag_25:\n              mload(0x40)\n              dup1\n              swap2\n              sub\n              swap1\n              return\n                /* \"Contracts/SimpleStorage.sol\":464:565  function store(uint256 _favouriteNumber) public {\r... */\n            tag_7:\n              tag_27\n              0x04\n              dup1\n              calldatasize\n              sub\n              dup2\n              add\n              swap1\n              tag_28\n              swap2\n              swap1\n              tag_10\n              jump\t// in\n            tag_28:\n              tag_29\n              jump\t// in\n            tag_27:\n              stop\n                /* \"Contracts/SimpleStorage.sol\":202:227  Student[] public students */\n            tag_11:\n              0x01\n              dup2\n              dup2\n              sload\n              dup2\n              lt\n              tag_30\n              jumpi\n              0x00\n              dup1\n              revert\n            tag_30:\n              swap1\n              0x00\n              mstore\n              keccak256(0x00, 0x20)\n              swap1\n              0x02\n              mul\n              add\n              0x00\n              swap2\n              pop\n              swap1\n              pop\n              dup1\n              0x00\n              add\n              sload\n              swap1\n              dup1\n              0x01\n              add\n              dup1\n              sload\n              tag_32\n              swap1\n              tag_33\n              jump\t// in\n            tag_32:\n              dup1\n              0x1f\n              add\n              0x20\n              dup1\n              swap2\n              div\n              mul\n              0x20\n              add\n              mload(0x40)\n              swap1\n              dup2\n              add\n              0x40\n              mstore\n              dup1\n              swap3\n              swap2\n              swap1\n              dup2\n              dup2\n              mstore\n              0x20\n              add\n              dup3\n              dup1\n              sload\n              tag_34\n              swap1\n              tag_33\n              jump\t// in\n            tag_34:\n              dup1\n              iszero\n              tag_35\n              jumpi\n              dup1\n              0x1f\n              lt\n              tag_36\n              jumpi\n              0x0100\n              dup1\n              dup4\n              sload\n              div\n              mul\n              dup4\n              mstore\n              swap2\n              0x20\n              add\n              swap2\n              jump(tag_35)\n            tag_36:\n              dup3\n              add\n              swap2\n              swap1\n              0x00\n              mstore\n              keccak256(0x00, 0x20)\n              swap1\n            tag_37:\n              dup2\n              sload\n              dup2\n              mstore\n              swap1\n              0x01\n              add\n              swap1\n              0x20\n              add\n              dup1\n              dup4\n              gt\n              tag_37\n              jumpi\n              dup3\n              swap1\n              sub\n              0x1f\n              and\n              dup3\n              add\n              swap2\n            tag_35:\n              pop\n              pop\n              pop\n              pop\n              pop\n              swap1\n              pop\n              dup3\n              jump\t// out\n                /* \"Contracts/SimpleStorage.sol\":292:456  function addStudent(string memory _name, uint256 _rollNo) public{\r... */\n            tag_17:\n                /* \"Contracts/SimpleStorage.sol\":367:375  students */\n              0x01\n                /* \"Contracts/SimpleStorage.sol\":381:404  Student(_rollNo, _name) */\n              mload(0x40)\n              dup1\n              0x40\n              add\n              0x40\n              mstore\n              dup1\n                /* \"Contracts/SimpleStorage.sol\":389:396  _rollNo */\n              dup4\n                /* \"Contracts/SimpleStorage.sol\":381:404  Student(_rollNo, _name) */\n              dup2\n              mstore\n              0x20\n              add\n                /* \"Contracts/SimpleStorage.sol\":398:403  _name */\n              dup5\n                /* \"Contracts/SimpleStorage.sol\":381:404  Student(_rollNo, _name) */\n              dup2\n              mstore\n              pop\n                /* \"Contracts/SimpleStorage.sol\":367:405  students.push(Student(_rollNo, _name)) */\n              swap1\n              dup1\n              0x01\n              dup2\n              sload\n              add\n              dup1\n              dup3\n              sstore\n              dup1\n              swap2\n              pop\n              pop\n              0x01\n              swap1\n              sub\n              swap1\n              0x00\n              mstore\n              keccak256(0x00, 0x20)\n              swap1\n              0x02\n              mul\n              add\n              0x00\n              swap1\n              swap2\n              swap1\n              swap2\n              swap1\n              swap2\n              pop\n              0x00\n              dup3\n              add\n              mload\n              dup2\n              0x00\n              add\n              sstore\n              0x20\n              dup3\n              add\n              mload\n              dup2\n              0x01\n              add\n              swap1\n              dup1\n              mload\n              swap1\n              0x20\n              add\n              swap1\n              tag_40\n              swap3\n              swap2\n              swap1\n              tag_41\n              jump\t// in\n            tag_40:\n              pop\n              pop\n              pop\n                /* \"Contracts/SimpleStorage.sol\":443:448  _name */\n              dup2\n                /* \"Contracts/SimpleStorage.sol\":416:431  rollNoToNameMap */\n              0x02\n                /* \"Contracts/SimpleStorage.sol\":416:440  rollNoToNameMap[_rollNo] */\n              0x00\n                /* \"Contracts/SimpleStorage.sol\":432:439  _rollNo */\n              dup4\n                /* \"Contracts/SimpleStorage.sol\":416:440  rollNoToNameMap[_rollNo] */\n              dup2\n              mstore\n              0x20\n              add\n              swap1\n              dup2\n              mstore\n              0x20\n              add\n              0x00\n              keccak256\n                /* \"Contracts/SimpleStorage.sol\":416:448  rollNoToNameMap[_rollNo] = _name */\n              swap1\n              dup1\n              mload\n              swap1\n              0x20\n              add\n              swap1\n              tag_42\n              swap3\n              swap2\n              swap1\n              tag_41\n              jump\t// in\n            tag_42:\n              pop\n                /* \"Contracts/SimpleStorage.sol\":292:456  function addStudent(string memory _name, uint256 _rollNo) public{\r... */\n              pop\n              pop\n              jump\t// out\n                /* \"Contracts/SimpleStorage.sol\":573:662  function retrieve() public view returns(uint256){\r... */\n            tag_19:\n                /* \"Contracts/SimpleStorage.sol\":613:620  uint256 */\n              0x00\n                /* \"Contracts/SimpleStorage.sol\":639:654  favouriteNumber */\n              dup1\n              sload\n                /* \"Contracts/SimpleStorage.sol\":632:654  return favouriteNumber */\n              swap1\n              pop\n                /* \"Contracts/SimpleStorage.sol\":573:662  function retrieve() public view returns(uint256){\r... */\n              swap1\n              jump\t// out\n                /* \"Contracts/SimpleStorage.sol\":234:283  mapping(uint256 => string) public rollNoToNameMap */\n            tag_24:\n              mstore(0x20, 0x02)\n              dup1\n              0x00\n              mstore\n              keccak256(0x00, 0x40)\n              0x00\n              swap2\n              pop\n              swap1\n              pop\n              dup1\n              sload\n              tag_44\n              swap1\n              tag_33\n              jump\t// in\n            tag_44:\n              dup1\n              0x1f\n              add\n              0x20\n              dup1\n              swap2\n              div\n              mul\n              0x20\n              add\n              mload(0x40)\n              swap1\n              dup2\n              add\n              0x40\n              mstore\n              dup1\n              swap3\n              swap2\n              swap1\n              dup2\n              dup2\n              mstore\n              0x20\n              add\n              dup3\n              dup1\n              sload\n              tag_45\n              swap1\n              tag_33\n              jump\t// in\n            tag_45:\n              dup1\n              iszero\n              tag_46\n              jumpi\n              dup1\n              0x1f\n              lt\n              tag_47\n              jumpi\n              0x0100\n              dup1\n              dup4\n              sload\n              div\n              mul\n              dup4\n              mstore\n              swap2\n              0x20\n              add\n              swap2\n              jump(tag_46)\n            tag_47:\n              dup3\n              add\n              swap2\n              swap1\n              0x00\n              mstore\n              keccak256(0x00, 0x20)\n              swap1\n            tag_48:\n              dup2\n              sload\n              dup2\n              mstore\n              swap1\n              0x01\n              add\n              swap1\n              0x20\n              add\n              dup1\n              dup4\n              gt\n              tag_48\n              jumpi\n              dup3\n              swap1\n              sub\n              0x1f\n              and\n              dup3\n              add\n              swap2\n            tag_46:\n              pop\n              pop\n              pop\n              pop\n              pop\n              dup2\n              jump\t// out\n                /* \"Contracts/SimpleStorage.sol\":464:565  function store(uint256 _favouriteNumber) public {\r... */\n            tag_29:\n                /* \"Contracts/SimpleStorage.sol\":541:557  _favouriteNumber */\n              dup1\n                /* \"Contracts/SimpleStorage.sol\":523:538  favouriteNumber */\n              0x00\n                /* \"Contracts/SimpleStorage.sol\":523:557  favouriteNumber = _favouriteNumber */\n              dup2\n              swap1\n              sstore\n              pop\n                /* \"Contracts/SimpleStorage.sol\":464:565  function store(uint256 _favouriteNumber) public {\r... */\n              pop\n              jump\t// out\n            tag_41:\n              dup3\n              dup1\n              sload\n              tag_50\n              swap1\n              tag_33\n              jump\t// in\n            tag_50:\n              swap1\n              0x00\n              mstore\n              keccak256(0x00, 0x20)\n              swap1\n              0x1f\n              add\n              0x20\n              swap1\n              div\n              dup2\n              add\n              swap3\n              dup3\n              tag_52\n              jumpi\n              0x00\n              dup6\n              sstore\n              jump(tag_51)\n            tag_52:\n              dup3\n              0x1f\n              lt\n              tag_53\n              jumpi\n              dup1\n              mload\n              not(0xff)\n              and\n              dup4\n              dup1\n              add\n              or\n              dup6\n              sstore\n              jump(tag_51)\n            tag_53:\n              dup3\n              dup1\n              add\n              0x01\n              add\n              dup6\n              sstore\n              dup3\n              iszero\n              tag_51\n              jumpi\n              swap2\n              dup3\n              add\n            tag_54:\n              dup3\n              dup2\n              gt\n              iszero\n              tag_55\n              jumpi\n              dup3\n              mload\n              dup3\n              sstore\n              swap2\n              0x20\n              add\n              swap2\n              swap1\n              0x01\n              add\n              swap1\n              jump(tag_54)\n            tag_55:\n            tag_51:\n              pop\n              swap1\n              pop\n              tag_56\n              swap2\n              swap1\n              tag_57\n              jump\t// in\n            tag_56:\n              pop\n              swap1\n              jump\t// out\n            tag_57:\n            tag_58:\n              dup1\n              dup3\n              gt\n              iszero\n              tag_59\n              jumpi\n              0x00\n              dup2\n              0x00\n              swap1\n              sstore\n              pop\n              0x01\n              add\n              jump(tag_58)\n            tag_59:\n              pop\n              swap1\n              jump\t// out\n                /* \"#utility.yul\":7:419   */\n            tag_61:\n                /* \"#utility.yul\":85:90   */\n              0x00\n                /* \"#utility.yul\":110:176   */\n              tag_63\n                /* \"#utility.yul\":126:175   */\n              tag_64\n                /* \"#utility.yul\":168:174   */\n              dup5\n                /* \"#utility.yul\":126:175   */\n              tag_65\n              jump\t// in\n            tag_64:\n                /* \"#utility.yul\":110:176   */\n              tag_66\n              jump\t// in\n            tag_63:\n                /* \"#utility.yul\":101:176   */\n              swap1\n              pop\n                /* \"#utility.yul\":199:205   */\n              dup3\n                /* \"#utility.yul\":192:197   */\n              dup2\n                /* \"#utility.yul\":185:206   */\n              mstore\n                /* \"#utility.yul\":237:241   */\n              0x20\n                /* \"#utility.yul\":230:235   */\n              dup2\n                /* \"#utility.yul\":226:242   */\n              add\n                /* \"#utility.yul\":275:278   */\n              dup5\n                /* \"#utility.yul\":266:272   */\n              dup5\n                /* \"#utility.yul\":261:264   */\n              dup5\n                /* \"#utility.yul\":257:273   */\n              add\n                /* \"#utility.yul\":254:279   */\n              gt\n                /* \"#utility.yul\":251:363   */\n              iszero\n              tag_67\n              jumpi\n                /* \"#utility.yul\":282:361   */\n              tag_68\n              tag_69\n              jump\t// in\n            tag_68:\n                /* \"#utility.yul\":251:363   */\n            tag_67:\n                /* \"#utility.yul\":372:413   */\n              tag_70\n                /* \"#utility.yul\":406:412   */\n              dup5\n                /* \"#utility.yul\":401:404   */\n              dup3\n                /* \"#utility.yul\":396:399   */\n              dup6\n                /* \"#utility.yul\":372:413   */\n              tag_71\n              jump\t// in\n            tag_70:\n                /* \"#utility.yul\":91:419   */\n              pop\n                /* \"#utility.yul\":7:419   */\n              swap4\n              swap3\n              pop\n              pop\n              pop\n              jump\t// out\n                /* \"#utility.yul\":439:779   */\n            tag_72:\n                /* \"#utility.yul\":495:500   */\n              0x00\n                /* \"#utility.yul\":544:547   */\n              dup3\n                /* \"#utility.yul\":537:541   */\n              0x1f\n                /* \"#utility.yul\":529:535   */\n              dup4\n                /* \"#utility.yul\":525:542   */\n              add\n                /* \"#utility.yul\":521:548   */\n              slt\n                /* \"#utility.yul\":511:633   */\n              tag_74\n              jumpi\n                /* \"#utility.yul\":552:631   */\n              tag_75\n              tag_76\n              jump\t// in\n            tag_75:\n                /* \"#utility.yul\":511:633   */\n            tag_74:\n                /* \"#utility.yul\":669:675   */\n              dup2\n                /* \"#utility.yul\":656:676   */\n              calldataload\n                /* \"#utility.yul\":694:773   */\n              tag_77\n                /* \"#utility.yul\":769:772   */\n              dup5\n                /* \"#utility.yul\":761:767   */\n              dup3\n                /* \"#utility.yul\":754:758   */\n              0x20\n                /* \"#utility.yul\":746:752   */\n              dup7\n                /* \"#utility.yul\":742:759   */\n              add\n                /* \"#utility.yul\":694:773   */\n              tag_61\n              jump\t// in\n            tag_77:\n                /* \"#utility.yul\":685:773   */\n              swap2\n              pop\n                /* \"#utility.yul\":501:779   */\n              pop\n                /* \"#utility.yul\":439:779   */\n              swap3\n              swap2\n              pop\n              pop\n              jump\t// out\n                /* \"#utility.yul\":785:924   */\n            tag_78:\n                /* \"#utility.yul\":831:836   */\n              0x00\n                /* \"#utility.yul\":869:875   */\n              dup2\n                /* \"#utility.yul\":856:876   */\n              calldataload\n                /* \"#utility.yul\":847:876   */\n              swap1\n              pop\n                /* \"#utility.yul\":885:918   */\n              tag_80\n                /* \"#utility.yul\":912:917   */\n              dup2\n                /* \"#utility.yul\":885:918   */\n              tag_81\n              jump\t// in\n            tag_80:\n                /* \"#utility.yul\":785:924   */\n              swap3\n              swap2\n              pop\n              pop\n              jump\t// out\n                /* \"#utility.yul\":930:1584   */\n            tag_16:\n                /* \"#utility.yul\":1008:1014   */\n              0x00\n                /* \"#utility.yul\":1016:1022   */\n              dup1\n                /* \"#utility.yul\":1065:1067   */\n              0x40\n                /* \"#utility.yul\":1053:1062   */\n              dup4\n                /* \"#utility.yul\":1044:1051   */\n              dup6\n                /* \"#utility.yul\":1040:1063   */\n              sub\n                /* \"#utility.yul\":1036:1068   */\n              slt\n                /* \"#utility.yul\":1033:1152   */\n              iszero\n              tag_83\n              jumpi\n                /* \"#utility.yul\":1071:1150   */\n              tag_84\n              tag_85\n              jump\t// in\n            tag_84:\n                /* \"#utility.yul\":1033:1152   */\n            tag_83:\n                /* \"#utility.yul\":1219:1220   */\n              0x00\n                /* \"#utility.yul\":1208:1217   */\n              dup4\n                /* \"#utility.yul\":1204:1221   */\n              add\n                /* \"#utility.yul\":1191:1222   */\n              calldataload\n                /* \"#utility.yul\":1249:1267   */\n              0xffffffffffffffff\n                /* \"#utility.yul\":1241:1247   */\n              dup2\n                /* \"#utility.yul\":1238:1268   */\n              gt\n                /* \"#utility.yul\":1235:1352   */\n              iszero\n              tag_86\n              jumpi\n                /* \"#utility.yul\":1271:1350   */\n              tag_87\n              tag_88\n              jump\t// in\n            tag_87:\n                /* \"#utility.yul\":1235:1352   */\n            tag_86:\n                /* \"#utility.yul\":1376:1439   */\n              tag_89\n                /* \"#utility.yul\":1431:1438   */\n              dup6\n                /* \"#utility.yul\":1422:1428   */\n              dup3\n                /* \"#utility.yul\":1411:1420   */\n              dup7\n                /* \"#utility.yul\":1407:1429   */\n              add\n                /* \"#utility.yul\":1376:1439   */\n              tag_72\n              jump\t// in\n            tag_89:\n                /* \"#utility.yul\":1366:1439   */\n              swap3\n              pop\n                /* \"#utility.yul\":1162:1449   */\n              pop\n                /* \"#utility.yul\":1488:1490   */\n              0x20\n                /* \"#utility.yul\":1514:1567   */\n              tag_90\n                /* \"#utility.yul\":1559:1566   */\n              dup6\n                /* \"#utility.yul\":1550:1556   */\n              dup3\n                /* \"#utility.yul\":1539:1548   */\n              dup7\n                /* \"#utility.yul\":1535:1557   */\n              add\n                /* \"#utility.yul\":1514:1567   */\n              tag_78\n              jump\t// in\n            tag_90:\n                /* \"#utility.yul\":1504:1567   */\n              swap2\n              pop\n                /* \"#utility.yul\":1459:1577   */\n              pop\n                /* \"#utility.yul\":930:1584   */\n              swap3\n              pop\n              swap3\n              swap1\n              pop\n              jump\t// out\n                /* \"#utility.yul\":1590:1919   */\n            tag_10:\n                /* \"#utility.yul\":1649:1655   */\n              0x00\n                /* \"#utility.yul\":1698:1700   */\n              0x20\n                /* \"#utility.yul\":1686:1695   */\n              dup3\n                /* \"#utility.yul\":1677:1684   */\n              dup5\n                /* \"#utility.yul\":1673:1696   */\n              sub\n                /* \"#utility.yul\":1669:1701   */\n              slt\n                /* \"#utility.yul\":1666:1785   */\n              iszero\n              tag_92\n              jumpi\n                /* \"#utility.yul\":1704:1783   */\n              tag_93\n              tag_85\n              jump\t// in\n            tag_93:\n                /* \"#utility.yul\":1666:1785   */\n            tag_92:\n                /* \"#utility.yul\":1824:1825   */\n              0x00\n                /* \"#utility.yul\":1849:1902   */\n              tag_94\n                /* \"#utility.yul\":1894:1901   */\n              dup5\n                /* \"#utility.yul\":1885:1891   */\n              dup3\n                /* \"#utility.yul\":1874:1883   */\n              dup6\n                /* \"#utility.yul\":1870:1892   */\n              add\n                /* \"#utility.yul\":1849:1902   */\n              tag_78\n              jump\t// in\n            tag_94:\n                /* \"#utility.yul\":1839:1902   */\n              swap2\n              pop\n                /* \"#utility.yul\":1795:1912   */\n              pop\n                /* \"#utility.yul\":1590:1919   */\n              swap3\n              swap2\n              pop\n              pop\n              jump\t// out\n                /* \"#utility.yul\":1925:2289   */\n            tag_95:\n                /* \"#utility.yul\":2013:2016   */\n              0x00\n                /* \"#utility.yul\":2041:2080   */\n              tag_97\n                /* \"#utility.yul\":2074:2079   */\n              dup3\n                /* \"#utility.yul\":2041:2080   */\n              tag_98\n              jump\t// in\n            tag_97:\n                /* \"#utility.yul\":2096:2167   */\n              tag_99\n                /* \"#utility.yul\":2160:2166   */\n              dup2\n                /* \"#utility.yul\":2155:2158   */\n              dup6\n                /* \"#utility.yul\":2096:2167   */\n              tag_100\n              jump\t// in\n            tag_99:\n                /* \"#utility.yul\":2089:2167   */\n              swap4\n              pop\n                /* \"#utility.yul\":2176:2228   */\n              tag_101\n                /* \"#utility.yul\":2221:2227   */\n              dup2\n                /* \"#utility.yul\":2216:2219   */\n              dup6\n                /* \"#utility.yul\":2209:2213   */\n              0x20\n                /* \"#utility.yul\":2202:2207   */\n              dup7\n                /* \"#utility.yul\":2198:2214   */\n              add\n                /* \"#utility.yul\":2176:2228   */\n              tag_102\n              jump\t// in\n            tag_101:\n                /* \"#utility.yul\":2253:2282   */\n              tag_103\n                /* \"#utility.yul\":2275:2281   */\n              dup2\n                /* \"#utility.yul\":2253:2282   */\n              tag_104\n              jump\t// in\n            tag_103:\n                /* \"#utility.yul\":2248:2251   */\n              dup5\n                /* \"#utility.yul\":2244:2283   */\n              add\n                /* \"#utility.yul\":2237:2283   */\n              swap2\n              pop\n                /* \"#utility.yul\":2017:2289   */\n              pop\n                /* \"#utility.yul\":1925:2289   */\n              swap3\n              swap2\n              pop\n              pop\n              jump\t// out\n                /* \"#utility.yul\":2295:2413   */\n            tag_105:\n                /* \"#utility.yul\":2382:2406   */\n              tag_107\n                /* \"#utility.yul\":2400:2405   */\n              dup2\n                /* \"#utility.yul\":2382:2406   */\n              tag_108\n              jump\t// in\n            tag_107:\n                /* \"#utility.yul\":2377:2380   */\n              dup3\n                /* \"#utility.yul\":2370:2407   */\n              mstore\n                /* \"#utility.yul\":2295:2413   */\n              pop\n              pop\n              jump\t// out\n                /* \"#utility.yul\":2419:2732   */\n            tag_26:\n                /* \"#utility.yul\":2532:2536   */\n              0x00\n                /* \"#utility.yul\":2570:2572   */\n              0x20\n                /* \"#utility.yul\":2559:2568   */\n              dup3\n                /* \"#utility.yul\":2555:2573   */\n              add\n                /* \"#utility.yul\":2547:2573   */\n              swap1\n              pop\n                /* \"#utility.yul\":2619:2628   */\n              dup2\n                /* \"#utility.yul\":2613:2617   */\n              dup2\n                /* \"#utility.yul\":2609:2629   */\n              sub\n                /* \"#utility.yul\":2605:2606   */\n              0x00\n                /* \"#utility.yul\":2594:2603   */\n              dup4\n                /* \"#utility.yul\":2590:2607   */\n              add\n                /* \"#utility.yul\":2583:2630   */\n              mstore\n                /* \"#utility.yul\":2647:2725   */\n              tag_110\n                /* \"#utility.yul\":2720:2724   */\n              dup2\n                /* \"#utility.yul\":2711:2717   */\n              dup5\n                /* \"#utility.yul\":2647:2725   */\n              tag_95\n              jump\t// in\n            tag_110:\n                /* \"#utility.yul\":2639:2725   */\n              swap1\n              pop\n                /* \"#utility.yul\":2419:2732   */\n              swap3\n              swap2\n              pop\n              pop\n              jump\t// out\n                /* \"#utility.yul\":2738:2960   */\n            tag_21:\n                /* \"#utility.yul\":2831:2835   */\n              0x00\n                /* \"#utility.yul\":2869:2871   */\n              0x20\n                /* \"#utility.yul\":2858:2867   */\n              dup3\n                /* \"#utility.yul\":2854:2872   */\n              add\n                /* \"#utility.yul\":2846:2872   */\n              swap1\n              pop\n                /* \"#utility.yul\":2882:2953   */\n              tag_112\n                /* \"#utility.yul\":2950:2951   */\n              0x00\n                /* \"#utility.yul\":2939:2948   */\n              dup4\n                /* \"#utility.yul\":2935:2952   */\n              add\n                /* \"#utility.yul\":2926:2932   */\n              dup5\n                /* \"#utility.yul\":2882:2953   */\n              tag_105\n              jump\t// in\n            tag_112:\n                /* \"#utility.yul\":2738:2960   */\n              swap3\n              swap2\n              pop\n              pop\n              jump\t// out\n                /* \"#utility.yul\":2966:3389   */\n            tag_13:\n                /* \"#utility.yul\":3107:3111   */\n              0x00\n                /* \"#utility.yul\":3145:3147   */\n              0x40\n                /* \"#utility.yul\":3134:3143   */\n              dup3\n                /* \"#utility.yul\":3130:3148   */\n              add\n                /* \"#utility.yul\":3122:3148   */\n              swap1\n              pop\n                /* \"#utility.yul\":3158:3229   */\n              tag_114\n                /* \"#utility.yul\":3226:3227   */\n              0x00\n                /* \"#utility.yul\":3215:3224   */\n              dup4\n                /* \"#utility.yul\":3211:3228   */\n              add\n                /* \"#utility.yul\":3202:3208   */\n              dup6\n                /* \"#utility.yul\":3158:3229   */\n              tag_105\n              jump\t// in\n            tag_114:\n                /* \"#utility.yul\":3276:3285   */\n              dup2\n                /* \"#utility.yul\":3270:3274   */\n              dup2\n                /* \"#utility.yul\":3266:3286   */\n              sub\n                /* \"#utility.yul\":3261:3263   */\n              0x20\n                /* \"#utility.yul\":3250:3259   */\n              dup4\n                /* \"#utility.yul\":3246:3264   */\n              add\n                /* \"#utility.yul\":3239:3287   */\n              mstore\n                /* \"#utility.yul\":3304:3382   */\n              tag_115\n                /* \"#utility.yul\":3377:3381   */\n              dup2\n                /* \"#utility.yul\":3368:3374   */\n              dup5\n                /* \"#utility.yul\":3304:3382   */\n              tag_95\n              jump\t// in\n            tag_115:\n                /* \"#utility.yul\":3296:3382   */\n              swap1\n              pop\n                /* \"#utility.yul\":2966:3389   */\n              swap4\n              swap3\n              pop\n              pop\n              pop\n              jump\t// out\n                /* \"#utility.yul\":3395:3524   */\n            tag_66:\n                /* \"#utility.yul\":3429:3435   */\n              0x00\n                /* \"#utility.yul\":3456:3476   */\n              tag_117\n              tag_118\n              jump\t// in\n            tag_117:\n                /* \"#utility.yul\":3446:3476   */\n              swap1\n              pop\n                /* \"#utility.yul\":3485:3518   */\n              tag_119\n                /* \"#utility.yul\":3513:3517   */\n              dup3\n                /* \"#utility.yul\":3505:3511   */\n              dup3\n                /* \"#utility.yul\":3485:3518   */\n              tag_120\n              jump\t// in\n            tag_119:\n                /* \"#utility.yul\":3395:3524   */\n              swap2\n              swap1\n              pop\n              jump\t// out\n                /* \"#utility.yul\":3530:3605   */\n            tag_118:\n                /* \"#utility.yul\":3563:3569   */\n              0x00\n                /* \"#utility.yul\":3596:3598   */\n              0x40\n                /* \"#utility.yul\":3590:3599   */\n              mload\n                /* \"#utility.yul\":3580:3599   */\n              swap1\n              pop\n                /* \"#utility.yul\":3530:3605   */\n              swap1\n              jump\t// out\n                /* \"#utility.yul\":3611:3919   */\n            tag_65:\n                /* \"#utility.yul\":3673:3677   */\n              0x00\n                /* \"#utility.yul\":3763:3781   */\n              0xffffffffffffffff\n                /* \"#utility.yul\":3755:3761   */\n              dup3\n                /* \"#utility.yul\":3752:3782   */\n              gt\n                /* \"#utility.yul\":3749:3805   */\n              iszero\n              tag_123\n              jumpi\n                /* \"#utility.yul\":3785:3803   */\n              tag_124\n              tag_125\n              jump\t// in\n            tag_124:\n                /* \"#utility.yul\":3749:3805   */\n            tag_123:\n                /* \"#utility.yul\":3823:3852   */\n              tag_126\n                /* \"#utility.yul\":3845:3851   */\n              dup3\n                /* \"#utility.yul\":3823:3852   */\n              tag_104\n              jump\t// in\n            tag_126:\n                /* \"#utility.yul\":3815:3852   */\n              swap1\n              pop\n                /* \"#utility.yul\":3907:3911   */\n              0x20\n                /* \"#utility.yul\":3901:3905   */\n              dup2\n                /* \"#utility.yul\":3897:3912   */\n              add\n                /* \"#utility.yul\":3889:3912   */\n              swap1\n              pop\n                /* \"#utility.yul\":3611:3919   */\n              swap2\n              swap1\n              pop\n              jump\t// out\n                /* \"#utility.yul\":3925:4024   */\n            tag_98:\n                /* \"#utility.yul\":3977:3983   */\n              0x00\n                /* \"#utility.yul\":4011:4016   */\n              dup2\n                /* \"#utility.yul\":4005:4017   */\n              mload\n                /* \"#utility.yul\":3995:4017   */\n              swap1\n              pop\n                /* \"#utility.yul\":3925:4024   */\n              swap2\n              swap1\n              pop\n              jump\t// out\n                /* \"#utility.yul\":4030:4199   */\n            tag_100:\n                /* \"#utility.yul\":4114:4125   */\n              0x00\n                /* \"#utility.yul\":4148:4154   */\n              dup3\n                /* \"#utility.yul\":4143:4146   */\n              dup3\n                /* \"#utility.yul\":4136:4155   */\n              mstore\n                /* \"#utility.yul\":4188:4192   */\n              0x20\n                /* \"#utility.yul\":4183:4186   */\n              dup3\n                /* \"#utility.yul\":4179:4193   */\n              add\n                /* \"#utility.yul\":4164:4193   */\n              swap1\n              pop\n                /* \"#utility.yul\":4030:4199   */\n              swap3\n              swap2\n              pop\n              pop\n              jump\t// out\n                /* \"#utility.yul\":4205:4282   */\n            tag_108:\n                /* \"#utility.yul\":4242:4249   */\n              0x00\n                /* \"#utility.yul\":4271:4276   */\n              dup2\n                /* \"#utility.yul\":4260:4276   */\n              swap1\n              pop\n                /* \"#utility.yul\":4205:4282   */\n              swap2\n              swap1\n              pop\n              jump\t// out\n                /* \"#utility.yul\":4288:4442   */\n            tag_71:\n                /* \"#utility.yul\":4372:4378   */\n              dup3\n                /* \"#utility.yul\":4367:4370   */\n              dup2\n                /* \"#utility.yul\":4362:4365   */\n              dup4\n                /* \"#utility.yul\":4349:4379   */\n              calldatacopy\n                /* \"#utility.yul\":4434:4435   */\n              0x00\n                /* \"#utility.yul\":4425:4431   */\n              dup4\n                /* \"#utility.yul\":4420:4423   */\n              dup4\n                /* \"#utility.yul\":4416:4432   */\n              add\n                /* \"#utility.yul\":4409:4436   */\n              mstore\n                /* \"#utility.yul\":4288:4442   */\n              pop\n              pop\n              pop\n              jump\t// out\n                /* \"#utility.yul\":4448:4755   */\n            tag_102:\n                /* \"#utility.yul\":4516:4517   */\n              0x00\n                /* \"#utility.yul\":4526:4639   */\n            tag_132:\n                /* \"#utility.yul\":4540:4546   */\n              dup4\n                /* \"#utility.yul\":4537:4538   */\n              dup2\n                /* \"#utility.yul\":4534:4547   */\n              lt\n                /* \"#utility.yul\":4526:4639   */\n              iszero\n              tag_134\n              jumpi\n                /* \"#utility.yul\":4625:4626   */\n              dup1\n                /* \"#utility.yul\":4620:4623   */\n              dup3\n                /* \"#utility.yul\":4616:4627   */\n              add\n                /* \"#utility.yul\":4610:4628   */\n              mload\n                /* \"#utility.yul\":4606:4607   */\n              dup2\n                /* \"#utility.yul\":4601:4604   */\n              dup5\n                /* \"#utility.yul\":4597:4608   */\n              add\n                /* \"#utility.yul\":4590:4629   */\n              mstore\n                /* \"#utility.yul\":4562:4564   */\n              0x20\n                /* \"#utility.yul\":4559:4560   */\n              dup2\n                /* \"#utility.yul\":4555:4565   */\n              add\n                /* \"#utility.yul\":4550:4565   */\n              swap1\n              pop\n                /* \"#utility.yul\":4526:4639   */\n              jump(tag_132)\n            tag_134:\n                /* \"#utility.yul\":4657:4663   */\n              dup4\n                /* \"#utility.yul\":4654:4655   */\n              dup2\n                /* \"#utility.yul\":4651:4664   */\n              gt\n                /* \"#utility.yul\":4648:4749   */\n              iszero\n              tag_135\n              jumpi\n                /* \"#utility.yul\":4737:4738   */\n              0x00\n                /* \"#utility.yul\":4728:4734   */\n              dup5\n                /* \"#utility.yul\":4723:4726   */\n              dup5\n                /* \"#utility.yul\":4719:4735   */\n              add\n                /* \"#utility.yul\":4712:4739   */\n              mstore\n                /* \"#utility.yul\":4648:4749   */\n            tag_135:\n                /* \"#utility.yul\":4497:4755   */\n              pop\n                /* \"#utility.yul\":4448:4755   */\n              pop\n              pop\n              pop\n              jump\t// out\n                /* \"#utility.yul\":4761:5081   */\n            tag_33:\n                /* \"#utility.yul\":4805:4811   */\n              0x00\n                /* \"#utility.yul\":4842:4843   */\n              0x02\n                /* \"#utility.yul\":4836:4840   */\n              dup3\n                /* \"#utility.yul\":4832:4844   */\n              div\n                /* \"#utility.yul\":4822:4844   */\n              swap1\n              pop\n                /* \"#utility.yul\":4889:4890   */\n              0x01\n                /* \"#utility.yul\":4883:4887   */\n              dup3\n                /* \"#utility.yul\":4879:4891   */\n              and\n                /* \"#utility.yul\":4910:4928   */\n              dup1\n                /* \"#utility.yul\":4900:4981   */\n              tag_137\n              jumpi\n                /* \"#utility.yul\":4966:4970   */\n              0x7f\n                /* \"#utility.yul\":4958:4964   */\n              dup3\n                /* \"#utility.yul\":4954:4971   */\n              and\n                /* \"#utility.yul\":4944:4971   */\n              swap2\n              pop\n                /* \"#utility.yul\":4900:4981   */\n            tag_137:\n                /* \"#utility.yul\":5028:5030   */\n              0x20\n                /* \"#utility.yul\":5020:5026   */\n              dup3\n                /* \"#utility.yul\":5017:5031   */\n              lt\n                /* \"#utility.yul\":4997:5015   */\n              dup2\n                /* \"#utility.yul\":4994:5032   */\n              eq\n                /* \"#utility.yul\":4991:5075   */\n              iszero\n              tag_138\n              jumpi\n                /* \"#utility.yul\":5047:5065   */\n              tag_139\n              tag_140\n              jump\t// in\n            tag_139:\n                /* \"#utility.yul\":4991:5075   */\n            tag_138:\n                /* \"#utility.yul\":4812:5081   */\n              pop\n                /* \"#utility.yul\":4761:5081   */\n              swap2\n              swap1\n              pop\n              jump\t// out\n                /* \"#utility.yul\":5087:5368   */\n            tag_120:\n                /* \"#utility.yul\":5170:5197   */\n              tag_142\n                /* \"#utility.yul\":5192:5196   */\n              dup3\n                /* \"#utility.yul\":5170:5197   */\n              tag_104\n              jump\t// in\n            tag_142:\n                /* \"#utility.yul\":5162:5168   */\n              dup2\n                /* \"#utility.yul\":5158:5198   */\n              add\n                /* \"#utility.yul\":5300:5306   */\n              dup2\n                /* \"#utility.yul\":5288:5298   */\n              dup2\n                /* \"#utility.yul\":5285:5307   */\n              lt\n                /* \"#utility.yul\":5264:5282   */\n              0xffffffffffffffff\n                /* \"#utility.yul\":5252:5262   */\n              dup3\n                /* \"#utility.yul\":5249:5283   */\n              gt\n                /* \"#utility.yul\":5246:5308   */\n              or\n                /* \"#utility.yul\":5243:5331   */\n              iszero\n              tag_143\n              jumpi\n                /* \"#utility.yul\":5311:5329   */\n              tag_144\n              tag_125\n              jump\t// in\n            tag_144:\n                /* \"#utility.yul\":5243:5331   */\n            tag_143:\n                /* \"#utility.yul\":5351:5361   */\n              dup1\n                /* \"#utility.yul\":5347:5349   */\n              0x40\n                /* \"#utility.yul\":5340:5362   */\n              mstore\n                /* \"#utility.yul\":5130:5368   */\n              pop\n                /* \"#utility.yul\":5087:5368   */\n              pop\n              pop\n              jump\t// out\n                /* \"#utility.yul\":5374:5554   */\n            tag_140:\n                /* \"#utility.yul\":5422:5499   */\n              0x4e487b7100000000000000000000000000000000000000000000000000000000\n                /* \"#utility.yul\":5419:5420   */\n              0x00\n                /* \"#utility.yul\":5412:5500   */\n              mstore\n                /* \"#utility.yul\":5519:5523   */\n              0x22\n                /* \"#utility.yul\":5516:5517   */\n              0x04\n                /* \"#utility.yul\":5509:5524   */\n              mstore\n                /* \"#utility.yul\":5543:5547   */\n              0x24\n                /* \"#utility.yul\":5540:5541   */\n              0x00\n                /* \"#utility.yul\":5533:5548   */\n              revert\n                /* \"#utility.yul\":5560:5740   */\n            tag_125:\n                /* \"#utility.yul\":5608:5685   */\n              0x4e487b7100000000000000000000000000000000000000000000000000000000\n                /* \"#utility.yul\":5605:5606   */\n              0x00\n                /* \"#utility.yul\":5598:5686   */\n              mstore\n                /* \"#utility.yul\":5705:5709   */\n              0x41\n                /* \"#utility.yul\":5702:5703   */\n              0x04\n                /* \"#utility.yul\":5695:5710   */\n              mstore\n                /* \"#utility.yul\":5729:5733   */\n              0x24\n                /* \"#utility.yul\":5726:5727   */\n              0x00\n                /* \"#utility.yul\":5719:5734   */\n              revert\n                /* \"#utility.yul\":5746:5863   */\n            tag_76:\n                /* \"#utility.yul\":5855:5856   */\n              0x00\n                /* \"#utility.yul\":5852:5853   */\n              dup1\n                /* \"#utility.yul\":5845:5857   */\n              revert\n                /* \"#utility.yul\":5869:5986   */\n            tag_69:\n                /* \"#utility.yul\":5978:5979   */\n              0x00\n                /* \"#utility.yul\":5975:5976   */\n              dup1\n                /* \"#utility.yul\":5968:5980   */\n              revert\n                /* \"#utility.yul\":5992:6109   */\n            tag_88:\n                /* \"#utility.yul\":6101:6102   */\n              0x00\n                /* \"#utility.yul\":6098:6099   */\n              dup1\n                /* \"#utility.yul\":6091:6103   */\n              revert\n                /* \"#utility.yul\":6115:6232   */\n            tag_85:\n                /* \"#utility.yul\":6224:6225   */\n              0x00\n                /* \"#utility.yul\":6221:6222   */\n              dup1\n                /* \"#utility.yul\":6214:6226   */\n              revert\n                /* \"#utility.yul\":6238:6340   */\n            tag_104:\n                /* \"#utility.yul\":6279:6285   */\n              0x00\n                /* \"#utility.yul\":6330:6332   */\n              0x1f\n                /* \"#utility.yul\":6326:6333   */\n              not\n                /* \"#utility.yul\":6321:6323   */\n              0x1f\n                /* \"#utility.yul\":6314:6319   */\n              dup4\n                /* \"#utility.yul\":6310:6324   */\n              add\n                /* \"#utility.yul\":6306:6334   */\n              and\n                /* \"#utility.yul\":6296:6334   */\n              swap1\n              pop\n                /* \"#utility.yul\":6238:6340   */\n              swap2\n              swap1\n              pop\n              jump\t// out\n                /* \"#utility.yul\":6346:6468   */\n            tag_81:\n                /* \"#utility.yul\":6419:6443   */\n              tag_153\n                /* \"#utility.yul\":6437:6442   */\n              dup2\n                /* \"#utility.yul\":6419:6443   */\n              tag_108\n              jump\t// in\n            tag_153:\n                /* \"#utility.yul\":6412:6417   */\n              dup2\n                /* \"#utility.yul\":6409:6444   */\n              eq\n                /* \"#utility.yul\":6399:6462   */\n              tag_154\n              jumpi\n                /* \"#utility.yul\":6458:6459   */\n              0x00\n                /* \"#utility.yul\":6455:6456   */\n              dup1\n                /* \"#utility.yul\":6448:6460   */\n              revert\n                /* \"#utility.yul\":6399:6462   */\n            tag_154:\n                /* \"#utility.yul\":6346:6468   */\n              pop\n              jump\t// out\n\n            auxdata: 0xa26469706673582212209cf31dc21160fd18ae377ffc91419ed5e1e76d70ee6825bce5d29eb4f3e8112764736f6c63430008070033\n        }\n    }\n\n    auxdata: 0xa26469706673582212203831c446ba48198c993a0a2e2aa1f836fa15e2079e73b4b9f170991b661a927d64736f6c63430008070033\n}\n",
				"bytecode": {
					"linkReferences": {},
					"object": "608060405234801561001057600080fd5b50611018806100206000396000f3fe608060405234801561001057600080fd5b50600436106100625760003560e01c806340d66b3b146100675780634bffb6be1461007157806364591bf1146100a15780636be0d6bf146100d15780637574ede8146100ef57806383eab6a21461010b575b600080fd5b61006f610127565b005b61008b60048036038101906100869190610502565b610214565b604051610098919061065a565b60405180910390f35b6100bb60048036038101906100b69190610502565b6102d9565b6040516100c8919061060f565b60405180910390f35b6100d9610318565b6040516100e6919061060f565b60405180910390f35b6101096004803603810190610104919061055c565b61033c565b005b61012560048036038101906101209190610502565b6103cd565b005b6040516101339061045b565b604051809103906000f08015801561014f573d6000803e3d6000fd5b506000806101000a81548173ffffffffffffffffffffffffffffffffffffffff021916908373ffffffffffffffffffffffffffffffffffffffff160217905550600160008054906101000a900473ffffffffffffffffffffffffffffffffffffffff169080600181540180825580915050600190039060005260206000200160009091909190916101000a81548173ffffffffffffffffffffffffffffffffffffffff021916908373ffffffffffffffffffffffffffffffffffffffff160217905550565b60006001828154811061022a576102296107ba565b5b9060005260206000200160009054906101000a900473ffffffffffffffffffffffffffffffffffffffff1673ffffffffffffffffffffffffffffffffffffffff16632e64cec16040518163ffffffff1660e01b815260040160206040518083038186803b15801561029a57600080fd5b505afa1580156102ae573d6000803e3d6000fd5b505050506040513d601f19601f820116820180604052508101906102d2919061052f565b9050919050565b600181815481106102e957600080fd5b906000526020600020016000915054906101000a900473ffffffffffffffffffffffffffffffffffffffff1681565b60008054906101000a900473ffffffffffffffffffffffffffffffffffffffff1681565b60008054906101000a900473ffffffffffffffffffffffffffffffffffffffff1673ffffffffffffffffffffffffffffffffffffffff16630e5eeef782846040518363ffffffff1660e01b815260040161039792919061062a565b600060405180830381600087803b1580156103b157600080fd5b505af11580156103c5573d6000803e3d6000fd5b505050505050565b60008054906101000a900473ffffffffffffffffffffffffffffffffffffffff1673ffffffffffffffffffffffffffffffffffffffff16636057361d826040518263ffffffff1660e01b8152600401610426919061065a565b600060405180830381600087803b15801561044057600080fd5b505af1158015610454573d6000803e3d6000fd5b5050505050565b61078e8061085583390190565b600061047b6104768461069a565b610675565b9050828152602081018484840111156104975761049661081d565b5b6104a2848285610747565b509392505050565b600082601f8301126104bf576104be610818565b5b81356104cf848260208601610468565b91505092915050565b6000813590506104e78161083d565b92915050565b6000815190506104fc8161083d565b92915050565b60006020828403121561051857610517610827565b5b6000610526848285016104d8565b91505092915050565b60006020828403121561054557610544610827565b5b6000610553848285016104ed565b91505092915050565b6000806040838503121561057357610572610827565b5b6000610581858286016104d8565b925050602083013567ffffffffffffffff8111156105a2576105a1610822565b5b6105ae858286016104aa565b9150509250929050565b6105c181610711565b82525050565b60006105d2826106cb565b6105dc81856106d6565b93506105ec818560208601610756565b6105f58161082c565b840191505092915050565b61060981610707565b82525050565b600060208201905061062460008301846105b8565b92915050565b6000604082019050818103600083015261064481856105c7565b90506106536020830184610600565b9392505050565b600060208201905061066f6000830184610600565b92915050565b600061067f610690565b905061068b8282610789565b919050565b6000604051905090565b600067ffffffffffffffff8211156106b5576106b46107e9565b5b6106be8261082c565b9050602081019050919050565b600081519050919050565b600082825260208201905092915050565b600073ffffffffffffffffffffffffffffffffffffffff82169050919050565b6000819050919050565b600061071c82610723565b9050919050565b600061072e82610735565b9050919050565b6000610740826106e7565b9050919050565b82818337600083830152505050565b60005b83811015610774578082015181840152602081019050610759565b83811115610783576000848401525b50505050565b6107928261082c565b810181811067ffffffffffffffff821117156107b1576107b06107e9565b5b80604052505050565b7f4e487b7100000000000000000000000000000000000000000000000000000000600052603260045260246000fd5b7f4e487b7100000000000000000000000000000000000000000000000000000000600052604160045260246000fd5b600080fd5b600080fd5b600080fd5b600080fd5b6000601f19601f8301169050919050565b61084681610707565b811461085157600080fd5b5056fe608060405234801561001057600080fd5b5061076e806100206000396000f3fe608060405234801561001057600080fd5b50600436106100575760003560e01c806306ead22e1461005c5780630e5eeef71461008d5780632e64cec1146100a95780635457b83f146100c75780636057361d146100f7575b600080fd5b6100766004803603810190610071919061049b565b610113565b60405161008492919061054d565b60405180910390f35b6100a760048036038101906100a2919061043f565b6101cf565b005b6100b1610264565b6040516100be9190610532565b60405180910390f35b6100e160048036038101906100dc919061049b565b61026d565b6040516100ee9190610510565b60405180910390f35b610111600480360381019061010c919061049b565b61030d565b005b6001818154811061012357600080fd5b906000526020600020906002020160009150905080600001549080600101805461014c9061063b565b80601f01602080910402602001604051908101604052809291908181526020018280546101789061063b565b80156101c55780601f1061019a576101008083540402835291602001916101c5565b820191906000526020600020905b8154815290600101906020018083116101a857829003601f168201915b5050505050905082565b60016040518060400160405280838152602001848152509080600181540180825580915050600190039060005260206000209060020201600090919091909150600082015181600001556020820151816001019080519060200190610235929190610317565b5050508160026000838152602001908152602001600020908051906020019061025f929190610317565b505050565b60008054905090565b6002602052806000526040600020600091509050805461028c9061063b565b80601f01602080910402602001604051908101604052809291908181526020018280546102b89061063b565b80156103055780601f106102da57610100808354040283529160200191610305565b820191906000526020600020905b8154815290600101906020018083116102e857829003601f168201915b505050505081565b8060008190555050565b8280546103239061063b565b90600052602060002090601f016020900481019282610345576000855561038c565b82601f1061035e57805160ff191683800117855561038c565b8280016001018555821561038c579182015b8281111561038b578251825591602001919060010190610370565b5b509050610399919061039d565b5090565b5b808211156103b657600081600090555060010161039e565b5090565b60006103cd6103c8846105a2565b61057d565b9050828152602081018484840111156103e9576103e8610701565b5b6103f48482856105f9565b509392505050565b600082601f830112610411576104106106fc565b5b81356104218482602086016103ba565b91505092915050565b60008135905061043981610721565b92915050565b600080604083850312156104565761045561070b565b5b600083013567ffffffffffffffff81111561047457610473610706565b5b610480858286016103fc565b92505060206104918582860161042a565b9150509250929050565b6000602082840312156104b1576104b061070b565b5b60006104bf8482850161042a565b91505092915050565b60006104d3826105d3565b6104dd81856105de565b93506104ed818560208601610608565b6104f681610710565b840191505092915050565b61050a816105ef565b82525050565b6000602082019050818103600083015261052a81846104c8565b905092915050565b60006020820190506105476000830184610501565b92915050565b60006040820190506105626000830185610501565b818103602083015261057481846104c8565b90509392505050565b6000610587610598565b9050610593828261066d565b919050565b6000604051905090565b600067ffffffffffffffff8211156105bd576105bc6106cd565b5b6105c682610710565b9050602081019050919050565b600081519050919050565b600082825260208201905092915050565b6000819050919050565b82818337600083830152505050565b60005b8381101561062657808201518184015260208101905061060b565b83811115610635576000848401525b50505050565b6000600282049050600182168061065357607f821691505b602082108114156106675761066661069e565b5b50919050565b61067682610710565b810181811067ffffffffffffffff82111715610695576106946106cd565b5b80604052505050565b7f4e487b7100000000000000000000000000000000000000000000000000000000600052602260045260246000fd5b7f4e487b7100000000000000000000000000000000000000000000000000000000600052604160045260246000fd5b600080fd5b600080fd5b600080fd5b600080fd5b6000601f19601f8301169050919050565b61072a816105ef565b811461073557600080fd5b5056fea26469706673582212209cf31dc21160fd18ae377ffc91419ed5e1e76d70ee6825bce5d29eb4f3e8112764736f6c63430008070033a26469706673582212203831c446ba48198c993a0a2e2aa1f836fa15e2079e73b4b9f170991b661a927d64736f6c63430008070033",
					"opcodes": "PUSH1 0x80 PUSH1 0x40 MSTORE CALLVALUE DUP1 ISZERO PUSH2 0x10 JUMPI PUSH1 0x0 DUP1 REVERT JUMPDEST POP PUSH2 0x1018 DUP1 PUSH2 0x20 PUSH1 0x0 CODECOPY PUSH1 0x0 RETURN INVALID PUSH1 0x80 PUSH1 0x40 MSTORE CALLVALUE DUP1 ISZERO PUSH2 0x10 JUMPI PUSH1 0x0 DUP1 REVERT JUMPDEST POP PUSH1 0x4 CALLDATASIZE LT PUSH2 0x62 JUMPI PUSH1 0x0 CALLDATALOAD PUSH1 0xE0 SHR DUP1 PUSH4 0x40D66B3B EQ PUSH2 0x67 JUMPI DUP1 PUSH4 0x4BFFB6BE EQ PUSH2 0x71 JUMPI DUP1 PUSH4 0x64591BF1 EQ PUSH2 0xA1 JUMPI DUP1 PUSH4 0x6BE0D6BF EQ PUSH2 0xD1 JUMPI DUP1 PUSH4 0x7574EDE8 EQ PUSH2 0xEF JUMPI DUP1 PUSH4 0x83EAB6A2 EQ PUSH2 0x10B JUMPI JUMPDEST PUSH1 0x0 DUP1 REVERT JUMPDEST PUSH2 0x6F PUSH2 0x127 JUMP JUMPDEST STOP JUMPDEST PUSH2 0x8B PUSH1 0x4 DUP1 CALLDATASIZE SUB DUP2 ADD SWAP1 PUSH2 0x86 SWAP2 SWAP1 PUSH2 0x502 JUMP JUMPDEST PUSH2 0x214 JUMP JUMPDEST PUSH1 0x40 MLOAD PUSH2 0x98 SWAP2 SWAP1 PUSH2 0x65A JUMP JUMPDEST PUSH1 0x40 MLOAD DUP1 SWAP2 SUB SWAP1 RETURN JUMPDEST PUSH2 0xBB PUSH1 0x4 DUP1 CALLDATASIZE SUB DUP2 ADD SWAP1 PUSH2 0xB6 SWAP2 SWAP1 PUSH2 0x502 JUMP JUMPDEST PUSH2 0x2D9 JUMP JUMPDEST PUSH1 0x40 MLOAD PUSH2 0xC8 SWAP2 SWAP1 PUSH2 0x60F JUMP JUMPDEST PUSH1 0x40 MLOAD DUP1 SWAP2 SUB SWAP1 RETURN JUMPDEST PUSH2 0xD9 PUSH2 0x318 JUMP JUMPDEST PUSH1 0x40 MLOAD PUSH2 0xE6 SWAP2 SWAP1 PUSH2 0x60F JUMP JUMPDEST PUSH1 0x40 MLOAD DUP1 SWAP2 SUB SWAP1 RETURN JUMPDEST PUSH2 0x109 PUSH1 0x4 DUP1 CALLDATASIZE SUB DUP2 ADD SWAP1 PUSH2 0x104 SWAP2 SWAP1 PUSH2 0x55C JUMP JUMPDEST PUSH2 0x33C JUMP JUMPDEST STOP JUMPDEST PUSH2 0x125 PUSH1 0x4 DUP1 CALLDATASIZE SUB DUP2 ADD SWAP1 PUSH2 0x120 SWAP2 SWAP1 PUSH2 0x502 JUMP JUMPDEST PUSH2 0x3CD JUMP JUMPDEST STOP JUMPDEST PUSH1 0x40 MLOAD PUSH2 0x133 SWAP1 PUSH2 0x45B JUMP JUMPDEST PUSH1 0x40 MLOAD DUP1 SWAP2 SUB SWAP1 PUSH1 0x0 CREATE DUP1 ISZERO DUP1 ISZERO PUSH2 0x14F JUMPI RETURNDATASIZE PUSH1 0x0 DUP1 RETURNDATACOPY RETURNDATASIZE PUSH1 0x0 REVERT JUMPDEST POP PUSH1 0x0 DUP1 PUSH2 0x100 EXP DUP2 SLOAD DUP2 PUSH20 0xFFFFFFFFFFFFFFFFFFFFFFFFFFFFFFFFFFFFFFFF MUL NOT AND SWAP1 DUP4 PUSH20 0xFFFFFFFFFFFFFFFFFFFFFFFFFFFFFFFFFFFFFFFF AND MUL OR SWAP1 SSTORE POP PUSH1 0x1 PUSH1 0x0 DUP1 SLOAD SWAP1 PUSH2 0x100 EXP SWAP1 DIV PUSH20 0xFFFFFFFFFFFFFFFFFFFFFFFFFFFFFFFFFFFFFFFF AND SWAP1 DUP1 PUSH1 0x1 DUP2 SLOAD ADD DUP1 DUP3 SSTORE DUP1 SWAP2 POP POP PUSH1 0x1 SWAP1 SUB SWAP1 PUSH1 0x0 MSTORE PUSH1 0x20 PUSH1 0x0 KECCAK256 ADD PUSH1 0x0 SWAP1 SWAP2 SWAP1 SWAP2 SWAP1 SWAP2 PUSH2 0x100 EXP DUP2 SLOAD DUP2 PUSH20 0xFFFFFFFFFFFFFFFFFFFFFFFFFFFFFFFFFFFFFFFF MUL NOT AND SWAP1 DUP4 PUSH20 0xFFFFFFFFFFFFFFFFFFFFFFFFFFFFFFFFFFFFFFFF AND MUL OR SWAP1 SSTORE POP JUMP JUMPDEST PUSH1 0x0 PUSH1 0x1 DUP3 DUP2 SLOAD DUP2 LT PUSH2 0x22A JUMPI PUSH2 0x229 PUSH2 0x7BA JUMP JUMPDEST JUMPDEST SWAP1 PUSH1 0x0 MSTORE PUSH1 0x20 PUSH1 0x0 KECCAK256 ADD PUSH1 0x0 SWAP1 SLOAD SWAP1 PUSH2 0x100 EXP SWAP1 DIV PUSH20 0xFFFFFFFFFFFFFFFFFFFFFFFFFFFFFFFFFFFFFFFF AND PUSH20 0xFFFFFFFFFFFFFFFFFFFFFFFFFFFFFFFFFFFFFFFF AND PUSH4 0x2E64CEC1 PUSH1 0x40 MLOAD DUP2 PUSH4 0xFFFFFFFF AND PUSH1 0xE0 SHL DUP2 MSTORE PUSH1 0x4 ADD PUSH1 0x20 PUSH1 0x40 MLOAD DUP1 DUP4 SUB DUP2 DUP7 DUP1 EXTCODESIZE ISZERO DUP1 ISZERO PUSH2 0x29A JUMPI PUSH1 0x0 DUP1 REVERT JUMPDEST POP GAS STATICCALL ISZERO DUP1 ISZERO PUSH2 0x2AE JUMPI RETURNDATASIZE PUSH1 0x0 DUP1 RETURNDATACOPY RETURNDATASIZE PUSH1 0x0 REVERT JUMPDEST POP POP POP POP PUSH1 0x40 MLOAD RETURNDATASIZE PUSH1 0x1F NOT PUSH1 0x1F DUP3 ADD AND DUP3 ADD DUP1 PUSH1 0x40 MSTORE POP DUP2 ADD SWAP1 PUSH2 0x2D2 SWAP2 SWAP1 PUSH2 0x52F JUMP JUMPDEST SWAP1 POP SWAP2 SWAP1 POP JUMP JUMPDEST PUSH1 0x1 DUP2 DUP2 SLOAD DUP2 LT PUSH2 0x2E9 JUMPI PUSH1 0x0 DUP1 REVERT JUMPDEST SWAP1 PUSH1 0x0 MSTORE PUSH1 0x20 PUSH1 0x0 KECCAK256 ADD PUSH1 0x0 SWAP2 POP SLOAD SWAP1 PUSH2 0x100 EXP SWAP1 DIV PUSH20 0xFFFFFFFFFFFFFFFFFFFFFFFFFFFFFFFFFFFFFFFF AND DUP2 JUMP JUMPDEST PUSH1 0x0 DUP1 SLOAD SWAP1 PUSH2 0x100 EXP SWAP1 DIV PUSH20 0xFFFFFFFFFFFFFFFFFFFFFFFFFFFFFFFFFFFFFFFF AND DUP2 JUMP JUMPDEST PUSH1 0x0 DUP1 SLOAD SWAP1 PUSH2 0x100 EXP SWAP1 DIV PUSH20 0xFFFFFFFFFFFFFFFFFFFFFFFFFFFFFFFFFFFFFFFF AND PUSH20 0xFFFFFFFFFFFFFFFFFFFFFFFFFFFFFFFFFFFFFFFF AND PUSH4 0xE5EEEF7 DUP3 DUP5 PUSH1 0x40 MLOAD DUP4 PUSH4 0xFFFFFFFF AND PUSH1 0xE0 SHL DUP2 MSTORE PUSH1 0x4 ADD PUSH2 0x397 SWAP3 SWAP2 SWAP1 PUSH2 0x62A JUMP JUMPDEST PUSH1 0x0 PUSH1 0x40 MLOAD DUP1 DUP4 SUB DUP2 PUSH1 0x0 DUP8 DUP1 EXTCODESIZE ISZERO DUP1 ISZERO PUSH2 0x3B1 JUMPI PUSH1 0x0 DUP1 REVERT JUMPDEST POP GAS CALL ISZERO DUP1 ISZERO PUSH2 0x3C5 JUMPI RETURNDATASIZE PUSH1 0x0 DUP1 RETURNDATACOPY RETURNDATASIZE PUSH1 0x0 REVERT JUMPDEST POP POP POP POP POP POP JUMP JUMPDEST PUSH1 0x0 DUP1 SLOAD SWAP1 PUSH2 0x100 EXP SWAP1 DIV PUSH20 0xFFFFFFFFFFFFFFFFFFFFFFFFFFFFFFFFFFFFFFFF AND PUSH20 0xFFFFFFFFFFFFFFFFFFFFFFFFFFFFFFFFFFFFFFFF AND PUSH4 0x6057361D DUP3 PUSH1 0x40 MLOAD DUP3 PUSH4 0xFFFFFFFF AND PUSH1 0xE0 SHL DUP2 MSTORE PUSH1 0x4 ADD PUSH2 0x426 SWAP2 SWAP1 PUSH2 0x65A JUMP JUMPDEST PUSH1 0x0 PUSH1 0x40 MLOAD DUP1 DUP4 SUB DUP2 PUSH1 0x0 DUP8 DUP1 EXTCODESIZE ISZERO DUP1 ISZERO PUSH2 0x440 JUMPI PUSH1 0x0 DUP1 REVERT JUMPDEST POP GAS CALL ISZERO DUP1 ISZERO PUSH2 0x454 JUMPI RETURNDATASIZE PUSH1 0x0 DUP1 RETURNDATACOPY RETURNDATASIZE PUSH1 0x0 REVERT JUMPDEST POP POP POP POP POP JUMP JUMPDEST PUSH2 0x78E DUP1 PUSH2 0x855 DUP4 CODECOPY ADD SWAP1 JUMP JUMPDEST PUSH1 0x0 PUSH2 0x47B PUSH2 0x476 DUP5 PUSH2 0x69A JUMP JUMPDEST PUSH2 0x675 JUMP JUMPDEST SWAP1 POP DUP3 DUP2 MSTORE PUSH1 0x20 DUP2 ADD DUP5 DUP5 DUP5 ADD GT ISZERO PUSH2 0x497 JUMPI PUSH2 0x496 PUSH2 0x81D JUMP JUMPDEST JUMPDEST PUSH2 0x4A2 DUP5 DUP3 DUP6 PUSH2 0x747 JUMP JUMPDEST POP SWAP4 SWAP3 POP POP POP JUMP JUMPDEST PUSH1 0x0 DUP3 PUSH1 0x1F DUP4 ADD SLT PUSH2 0x4BF JUMPI PUSH2 0x4BE PUSH2 0x818 JUMP JUMPDEST JUMPDEST DUP2 CALLDATALOAD PUSH2 0x4CF DUP5 DUP3 PUSH1 0x20 DUP7 ADD PUSH2 0x468 JUMP JUMPDEST SWAP2 POP POP SWAP3 SWAP2 POP POP JUMP JUMPDEST PUSH1 0x0 DUP2 CALLDATALOAD SWAP1 POP PUSH2 0x4E7 DUP2 PUSH2 0x83D JUMP JUMPDEST SWAP3 SWAP2 POP POP JUMP JUMPDEST PUSH1 0x0 DUP2 MLOAD SWAP1 POP PUSH2 0x4FC DUP2 PUSH2 0x83D JUMP JUMPDEST SWAP3 SWAP2 POP POP JUMP JUMPDEST PUSH1 0x0 PUSH1 0x20 DUP3 DUP5 SUB SLT ISZERO PUSH2 0x518 JUMPI PUSH2 0x517 PUSH2 0x827 JUMP JUMPDEST JUMPDEST PUSH1 0x0 PUSH2 0x526 DUP5 DUP3 DUP6 ADD PUSH2 0x4D8 JUMP JUMPDEST SWAP2 POP POP SWAP3 SWAP2 POP POP JUMP JUMPDEST PUSH1 0x0 PUSH1 0x20 DUP3 DUP5 SUB SLT ISZERO PUSH2 0x545 JUMPI PUSH2 0x544 PUSH2 0x827 JUMP JUMPDEST JUMPDEST PUSH1 0x0 PUSH2 0x553 DUP5 DUP3 DUP6 ADD PUSH2 0x4ED JUMP JUMPDEST SWAP2 POP POP SWAP3 SWAP2 POP POP JUMP JUMPDEST PUSH1 0x0 DUP1 PUSH1 0x40 DUP4 DUP6 SUB SLT ISZERO PUSH2 0x573 JUMPI PUSH2 0x572 PUSH2 0x827 JUMP JUMPDEST JUMPDEST PUSH1 0x0 PUSH2 0x581 DUP6 DUP3 DUP7 ADD PUSH2 0x4D8 JUMP JUMPDEST SWAP3 POP POP PUSH1 0x20 DUP4 ADD CALLDATALOAD PUSH8 0xFFFFFFFFFFFFFFFF DUP2 GT ISZERO PUSH2 0x5A2 JUMPI PUSH2 0x5A1 PUSH2 0x822 JUMP JUMPDEST JUMPDEST PUSH2 0x5AE DUP6 DUP3 DUP7 ADD PUSH2 0x4AA JUMP JUMPDEST SWAP2 POP POP SWAP3 POP SWAP3 SWAP1 POP JUMP JUMPDEST PUSH2 0x5C1 DUP2 PUSH2 0x711 JUMP JUMPDEST DUP3 MSTORE POP POP JUMP JUMPDEST PUSH1 0x0 PUSH2 0x5D2 DUP3 PUSH2 0x6CB JUMP JUMPDEST PUSH2 0x5DC DUP2 DUP6 PUSH2 0x6D6 JUMP JUMPDEST SWAP4 POP PUSH2 0x5EC DUP2 DUP6 PUSH1 0x20 DUP7 ADD PUSH2 0x756 JUMP JUMPDEST PUSH2 0x5F5 DUP2 PUSH2 0x82C JUMP JUMPDEST DUP5 ADD SWAP2 POP POP SWAP3 SWAP2 POP POP JUMP JUMPDEST PUSH2 0x609 DUP2 PUSH2 0x707 JUMP JUMPDEST DUP3 MSTORE POP POP JUMP JUMPDEST PUSH1 0x0 PUSH1 0x20 DUP3 ADD SWAP1 POP PUSH2 0x624 PUSH1 0x0 DUP4 ADD DUP5 PUSH2 0x5B8 JUMP JUMPDEST SWAP3 SWAP2 POP POP JUMP JUMPDEST PUSH1 0x0 PUSH1 0x40 DUP3 ADD SWAP1 POP DUP2 DUP2 SUB PUSH1 0x0 DUP4 ADD MSTORE PUSH2 0x644 DUP2 DUP6 PUSH2 0x5C7 JUMP JUMPDEST SWAP1 POP PUSH2 0x653 PUSH1 0x20 DUP4 ADD DUP5 PUSH2 0x600 JUMP JUMPDEST SWAP4 SWAP3 POP POP POP JUMP JUMPDEST PUSH1 0x0 PUSH1 0x20 DUP3 ADD SWAP1 POP PUSH2 0x66F PUSH1 0x0 DUP4 ADD DUP5 PUSH2 0x600 JUMP JUMPDEST SWAP3 SWAP2 POP POP JUMP JUMPDEST PUSH1 0x0 PUSH2 0x67F PUSH2 0x690 JUMP JUMPDEST SWAP1 POP PUSH2 0x68B DUP3 DUP3 PUSH2 0x789 JUMP JUMPDEST SWAP2 SWAP1 POP JUMP JUMPDEST PUSH1 0x0 PUSH1 0x40 MLOAD SWAP1 POP SWAP1 JUMP JUMPDEST PUSH1 0x0 PUSH8 0xFFFFFFFFFFFFFFFF DUP3 GT ISZERO PUSH2 0x6B5 JUMPI PUSH2 0x6B4 PUSH2 0x7E9 JUMP JUMPDEST JUMPDEST PUSH2 0x6BE DUP3 PUSH2 0x82C JUMP JUMPDEST SWAP1 POP PUSH1 0x20 DUP2 ADD SWAP1 POP SWAP2 SWAP1 POP JUMP JUMPDEST PUSH1 0x0 DUP2 MLOAD SWAP1 POP SWAP2 SWAP1 POP JUMP JUMPDEST PUSH1 0x0 DUP3 DUP3 MSTORE PUSH1 0x20 DUP3 ADD SWAP1 POP SWAP3 SWAP2 POP POP JUMP JUMPDEST PUSH1 0x0 PUSH20 0xFFFFFFFFFFFFFFFFFFFFFFFFFFFFFFFFFFFFFFFF DUP3 AND SWAP1 POP SWAP2 SWAP1 POP JUMP JUMPDEST PUSH1 0x0 DUP2 SWAP1 POP SWAP2 SWAP1 POP JUMP JUMPDEST PUSH1 0x0 PUSH2 0x71C DUP3 PUSH2 0x723 JUMP JUMPDEST SWAP1 POP SWAP2 SWAP1 POP JUMP JUMPDEST PUSH1 0x0 PUSH2 0x72E DUP3 PUSH2 0x735 JUMP JUMPDEST SWAP1 POP SWAP2 SWAP1 POP JUMP JUMPDEST PUSH1 0x0 PUSH2 0x740 DUP3 PUSH2 0x6E7 JUMP JUMPDEST SWAP1 POP SWAP2 SWAP1 POP JUMP JUMPDEST DUP3 DUP2 DUP4 CALLDATACOPY PUSH1 0x0 DUP4 DUP4 ADD MSTORE POP POP POP JUMP JUMPDEST PUSH1 0x0 JUMPDEST DUP4 DUP2 LT ISZERO PUSH2 0x774 JUMPI DUP1 DUP3 ADD MLOAD DUP2 DUP5 ADD MSTORE PUSH1 0x20 DUP2 ADD SWAP1 POP PUSH2 0x759 JUMP JUMPDEST DUP4 DUP2 GT ISZERO PUSH2 0x783 JUMPI PUSH1 0x0 DUP5 DUP5 ADD MSTORE JUMPDEST POP POP POP POP JUMP JUMPDEST PUSH2 0x792 DUP3 PUSH2 0x82C JUMP JUMPDEST DUP2 ADD DUP2 DUP2 LT PUSH8 0xFFFFFFFFFFFFFFFF DUP3 GT OR ISZERO PUSH2 0x7B1 JUMPI PUSH2 0x7B0 PUSH2 0x7E9 JUMP JUMPDEST JUMPDEST DUP1 PUSH1 0x40 MSTORE POP POP POP JUMP JUMPDEST PUSH32 0x4E487B7100000000000000000000000000000000000000000000000000000000 PUSH1 0x0 MSTORE PUSH1 0x32 PUSH1 0x4 MSTORE PUSH1 0x24 PUSH1 0x0 REVERT JUMPDEST PUSH32 0x4E487B7100000000000000000000000000000000000000000000000000000000 PUSH1 0x0 MSTORE PUSH1 0x41 PUSH1 0x4 MSTORE PUSH1 0x24 PUSH1 0x0 REVERT JUMPDEST PUSH1 0x0 DUP1 REVERT JUMPDEST PUSH1 0x0 DUP1 REVERT JUMPDEST PUSH1 0x0 DUP1 REVERT JUMPDEST PUSH1 0x0 DUP1 REVERT JUMPDEST PUSH1 0x0 PUSH1 0x1F NOT PUSH1 0x1F DUP4 ADD AND SWAP1 POP SWAP2 SWAP1 POP JUMP JUMPDEST PUSH2 0x846 DUP2 PUSH2 0x707 JUMP JUMPDEST DUP2 EQ PUSH2 0x851 JUMPI PUSH1 0x0 DUP1 REVERT JUMPDEST POP JUMP INVALID PUSH1 0x80 PUSH1 0x40 MSTORE CALLVALUE DUP1 ISZERO PUSH2 0x10 JUMPI PUSH1 0x0 DUP1 REVERT JUMPDEST POP PUSH2 0x76E DUP1 PUSH2 0x20 PUSH1 0x0 CODECOPY PUSH1 0x0 RETURN INVALID PUSH1 0x80 PUSH1 0x40 MSTORE CALLVALUE DUP1 ISZERO PUSH2 0x10 JUMPI PUSH1 0x0 DUP1 REVERT JUMPDEST POP PUSH1 0x4 CALLDATASIZE LT PUSH2 0x57 JUMPI PUSH1 0x0 CALLDATALOAD PUSH1 0xE0 SHR DUP1 PUSH4 0x6EAD22E EQ PUSH2 0x5C JUMPI DUP1 PUSH4 0xE5EEEF7 EQ PUSH2 0x8D JUMPI DUP1 PUSH4 0x2E64CEC1 EQ PUSH2 0xA9 JUMPI DUP1 PUSH4 0x5457B83F EQ PUSH2 0xC7 JUMPI DUP1 PUSH4 0x6057361D EQ PUSH2 0xF7 JUMPI JUMPDEST PUSH1 0x0 DUP1 REVERT JUMPDEST PUSH2 0x76 PUSH1 0x4 DUP1 CALLDATASIZE SUB DUP2 ADD SWAP1 PUSH2 0x71 SWAP2 SWAP1 PUSH2 0x49B JUMP JUMPDEST PUSH2 0x113 JUMP JUMPDEST PUSH1 0x40 MLOAD PUSH2 0x84 SWAP3 SWAP2 SWAP1 PUSH2 0x54D JUMP JUMPDEST PUSH1 0x40 MLOAD DUP1 SWAP2 SUB SWAP1 RETURN JUMPDEST PUSH2 0xA7 PUSH1 0x4 DUP1 CALLDATASIZE SUB DUP2 ADD SWAP1 PUSH2 0xA2 SWAP2 SWAP1 PUSH2 0x43F JUMP JUMPDEST PUSH2 0x1CF JUMP JUMPDEST STOP JUMPDEST PUSH2 0xB1 PUSH2 0x264 JUMP JUMPDEST PUSH1 0x40 MLOAD PUSH2 0xBE SWAP2 SWAP1 PUSH2 0x532 JUMP JUMPDEST PUSH1 0x40 MLOAD DUP1 SWAP2 SUB SWAP1 RETURN JUMPDEST PUSH2 0xE1 PUSH1 0x4 DUP1 CALLDATASIZE SUB DUP2 ADD SWAP1 PUSH2 0xDC SWAP2 SWAP1 PUSH2 0x49B JUMP JUMPDEST PUSH2 0x26D JUMP JUMPDEST PUSH1 0x40 MLOAD PUSH2 0xEE SWAP2 SWAP1 PUSH2 0x510 JUMP JUMPDEST PUSH1 0x40 MLOAD DUP1 SWAP2 SUB SWAP1 RETURN JUMPDEST PUSH2 0x111 PUSH1 0x4 DUP1 CALLDATASIZE SUB DUP2 ADD SWAP1 PUSH2 0x10C SWAP2 SWAP1 PUSH2 0x49B JUMP JUMPDEST PUSH2 0x30D JUMP JUMPDEST STOP JUMPDEST PUSH1 0x1 DUP2 DUP2 SLOAD DUP2 LT PUSH2 0x123 JUMPI PUSH1 0x0 DUP1 REVERT JUMPDEST SWAP1 PUSH1 0x0 MSTORE PUSH1 0x20 PUSH1 0x0 KECCAK256 SWAP1 PUSH1 0x2 MUL ADD PUSH1 0x0 SWAP2 POP SWAP1 POP DUP1 PUSH1 0x0 ADD SLOAD SWAP1 DUP1 PUSH1 0x1 ADD DUP1 SLOAD PUSH2 0x14C SWAP1 PUSH2 0x63B JUMP JUMPDEST DUP1 PUSH1 0x1F ADD PUSH1 0x20 DUP1 SWAP2 DIV MUL PUSH1 0x20 ADD PUSH1 0x40 MLOAD SWAP1 DUP2 ADD PUSH1 0x40 MSTORE DUP1 SWAP3 SWAP2 SWAP1 DUP2 DUP2 MSTORE PUSH1 0x20 ADD DUP3 DUP1 SLOAD PUSH2 0x178 SWAP1 PUSH2 0x63B JUMP JUMPDEST DUP1 ISZERO PUSH2 0x1C5 JUMPI DUP1 PUSH1 0x1F LT PUSH2 0x19A JUMPI PUSH2 0x100 DUP1 DUP4 SLOAD DIV MUL DUP4 MSTORE SWAP2 PUSH1 0x20 ADD SWAP2 PUSH2 0x1C5 JUMP JUMPDEST DUP3 ADD SWAP2 SWAP1 PUSH1 0x0 MSTORE PUSH1 0x20 PUSH1 0x0 KECCAK256 SWAP1 JUMPDEST DUP2 SLOAD DUP2 MSTORE SWAP1 PUSH1 0x1 ADD SWAP1 PUSH1 0x20 ADD DUP1 DUP4 GT PUSH2 0x1A8 JUMPI DUP3 SWAP1 SUB PUSH1 0x1F AND DUP3 ADD SWAP2 JUMPDEST POP POP POP POP POP SWAP1 POP DUP3 JUMP JUMPDEST PUSH1 0x1 PUSH1 0x40 MLOAD DUP1 PUSH1 0x40 ADD PUSH1 0x40 MSTORE DUP1 DUP4 DUP2 MSTORE PUSH1 0x20 ADD DUP5 DUP2 MSTORE POP SWAP1 DUP1 PUSH1 0x1 DUP2 SLOAD ADD DUP1 DUP3 SSTORE DUP1 SWAP2 POP POP PUSH1 0x1 SWAP1 SUB SWAP1 PUSH1 0x0 MSTORE PUSH1 0x20 PUSH1 0x0 KECCAK256 SWAP1 PUSH1 0x2 MUL ADD PUSH1 0x0 SWAP1 SWAP2 SWAP1 SWAP2 SWAP1 SWAP2 POP PUSH1 0x0 DUP3 ADD MLOAD DUP2 PUSH1 0x0 ADD SSTORE PUSH1 0x20 DUP3 ADD MLOAD DUP2 PUSH1 0x1 ADD SWAP1 DUP1 MLOAD SWAP1 PUSH1 0x20 ADD SWAP1 PUSH2 0x235 SWAP3 SWAP2 SWAP1 PUSH2 0x317 JUMP JUMPDEST POP POP POP DUP2 PUSH1 0x2 PUSH1 0x0 DUP4 DUP2 MSTORE PUSH1 0x20 ADD SWAP1 DUP2 MSTORE PUSH1 0x20 ADD PUSH1 0x0 KECCAK256 SWAP1 DUP1 MLOAD SWAP1 PUSH1 0x20 ADD SWAP1 PUSH2 0x25F SWAP3 SWAP2 SWAP1 PUSH2 0x317 JUMP JUMPDEST POP POP POP JUMP JUMPDEST PUSH1 0x0 DUP1 SLOAD SWAP1 POP SWAP1 JUMP JUMPDEST PUSH1 0x2 PUSH1 0x20 MSTORE DUP1 PUSH1 0x0 MSTORE PUSH1 0x40 PUSH1 0x0 KECCAK256 PUSH1 0x0 SWAP2 POP SWAP1 POP DUP1 SLOAD PUSH2 0x28C SWAP1 PUSH2 0x63B JUMP JUMPDEST DUP1 PUSH1 0x1F ADD PUSH1 0x20 DUP1 SWAP2 DIV MUL PUSH1 0x20 ADD PUSH1 0x40 MLOAD SWAP1 DUP2 ADD PUSH1 0x40 MSTORE DUP1 SWAP3 SWAP2 SWAP1 DUP2 DUP2 MSTORE PUSH1 0x20 ADD DUP3 DUP1 SLOAD PUSH2 0x2B8 SWAP1 PUSH2 0x63B JUMP JUMPDEST DUP1 ISZERO PUSH2 0x305 JUMPI DUP1 PUSH1 0x1F LT PUSH2 0x2DA JUMPI PUSH2 0x100 DUP1 DUP4 SLOAD DIV MUL DUP4 MSTORE SWAP2 PUSH1 0x20 ADD SWAP2 PUSH2 0x305 JUMP JUMPDEST DUP3 ADD SWAP2 SWAP1 PUSH1 0x0 MSTORE PUSH1 0x20 PUSH1 0x0 KECCAK256 SWAP1 JUMPDEST DUP2 SLOAD DUP2 MSTORE SWAP1 PUSH1 0x1 ADD SWAP1 PUSH1 0x20 ADD DUP1 DUP4 GT PUSH2 0x2E8 JUMPI DUP3 SWAP1 SUB PUSH1 0x1F AND DUP3 ADD SWAP2 JUMPDEST POP POP POP POP POP DUP2 JUMP JUMPDEST DUP1 PUSH1 0x0 DUP2 SWAP1 SSTORE POP POP JUMP JUMPDEST DUP3 DUP1 SLOAD PUSH2 0x323 SWAP1 PUSH2 0x63B JUMP JUMPDEST SWAP1 PUSH1 0x0 MSTORE PUSH1 0x20 PUSH1 0x0 KECCAK256 SWAP1 PUSH1 0x1F ADD PUSH1 0x20 SWAP1 DIV DUP2 ADD SWAP3 DUP3 PUSH2 0x345 JUMPI PUSH1 0x0 DUP6 SSTORE PUSH2 0x38C JUMP JUMPDEST DUP3 PUSH1 0x1F LT PUSH2 0x35E JUMPI DUP1 MLOAD PUSH1 0xFF NOT AND DUP4 DUP1 ADD OR DUP6 SSTORE PUSH2 0x38C JUMP JUMPDEST DUP3 DUP1 ADD PUSH1 0x1 ADD DUP6 SSTORE DUP3 ISZERO PUSH2 0x38C JUMPI SWAP2 DUP3 ADD JUMPDEST DUP3 DUP2 GT ISZERO PUSH2 0x38B JUMPI DUP3 MLOAD DUP3 SSTORE SWAP2 PUSH1 0x20 ADD SWAP2 SWAP1 PUSH1 0x1 ADD SWAP1 PUSH2 0x370 JUMP JUMPDEST JUMPDEST POP SWAP1 POP PUSH2 0x399 SWAP2 SWAP1 PUSH2 0x39D JUMP JUMPDEST POP SWAP1 JUMP JUMPDEST JUMPDEST DUP1 DUP3 GT ISZERO PUSH2 0x3B6 JUMPI PUSH1 0x0 DUP2 PUSH1 0x0 SWAP1 SSTORE POP PUSH1 0x1 ADD PUSH2 0x39E JUMP JUMPDEST POP SWAP1 JUMP JUMPDEST PUSH1 0x0 PUSH2 0x3CD PUSH2 0x3C8 DUP5 PUSH2 0x5A2 JUMP JUMPDEST PUSH2 0x57D JUMP JUMPDEST SWAP1 POP DUP3 DUP2 MSTORE PUSH1 0x20 DUP2 ADD DUP5 DUP5 DUP5 ADD GT ISZERO PUSH2 0x3E9 JUMPI PUSH2 0x3E8 PUSH2 0x701 JUMP JUMPDEST JUMPDEST PUSH2 0x3F4 DUP5 DUP3 DUP6 PUSH2 0x5F9 JUMP JUMPDEST POP SWAP4 SWAP3 POP POP POP JUMP JUMPDEST PUSH1 0x0 DUP3 PUSH1 0x1F DUP4 ADD SLT PUSH2 0x411 JUMPI PUSH2 0x410 PUSH2 0x6FC JUMP JUMPDEST JUMPDEST DUP2 CALLDATALOAD PUSH2 0x421 DUP5 DUP3 PUSH1 0x20 DUP7 ADD PUSH2 0x3BA JUMP JUMPDEST SWAP2 POP POP SWAP3 SWAP2 POP POP JUMP JUMPDEST PUSH1 0x0 DUP2 CALLDATALOAD SWAP1 POP PUSH2 0x439 DUP2 PUSH2 0x721 JUMP JUMPDEST SWAP3 SWAP2 POP POP JUMP JUMPDEST PUSH1 0x0 DUP1 PUSH1 0x40 DUP4 DUP6 SUB SLT ISZERO PUSH2 0x456 JUMPI PUSH2 0x455 PUSH2 0x70B JUMP JUMPDEST JUMPDEST PUSH1 0x0 DUP4 ADD CALLDATALOAD PUSH8 0xFFFFFFFFFFFFFFFF DUP2 GT ISZERO PUSH2 0x474 JUMPI PUSH2 0x473 PUSH2 0x706 JUMP JUMPDEST JUMPDEST PUSH2 0x480 DUP6 DUP3 DUP7 ADD PUSH2 0x3FC JUMP JUMPDEST SWAP3 POP POP PUSH1 0x20 PUSH2 0x491 DUP6 DUP3 DUP7 ADD PUSH2 0x42A JUMP JUMPDEST SWAP2 POP POP SWAP3 POP SWAP3 SWAP1 POP JUMP JUMPDEST PUSH1 0x0 PUSH1 0x20 DUP3 DUP5 SUB SLT ISZERO PUSH2 0x4B1 JUMPI PUSH2 0x4B0 PUSH2 0x70B JUMP JUMPDEST JUMPDEST PUSH1 0x0 PUSH2 0x4BF DUP5 DUP3 DUP6 ADD PUSH2 0x42A JUMP JUMPDEST SWAP2 POP POP SWAP3 SWAP2 POP POP JUMP JUMPDEST PUSH1 0x0 PUSH2 0x4D3 DUP3 PUSH2 0x5D3 JUMP JUMPDEST PUSH2 0x4DD DUP2 DUP6 PUSH2 0x5DE JUMP JUMPDEST SWAP4 POP PUSH2 0x4ED DUP2 DUP6 PUSH1 0x20 DUP7 ADD PUSH2 0x608 JUMP JUMPDEST PUSH2 0x4F6 DUP2 PUSH2 0x710 JUMP JUMPDEST DUP5 ADD SWAP2 POP POP SWAP3 SWAP2 POP POP JUMP JUMPDEST PUSH2 0x50A DUP2 PUSH2 0x5EF JUMP JUMPDEST DUP3 MSTORE POP POP JUMP JUMPDEST PUSH1 0x0 PUSH1 0x20 DUP3 ADD SWAP1 POP DUP2 DUP2 SUB PUSH1 0x0 DUP4 ADD MSTORE PUSH2 0x52A DUP2 DUP5 PUSH2 0x4C8 JUMP JUMPDEST SWAP1 POP SWAP3 SWAP2 POP POP JUMP JUMPDEST PUSH1 0x0 PUSH1 0x20 DUP3 ADD SWAP1 POP PUSH2 0x547 PUSH1 0x0 DUP4 ADD DUP5 PUSH2 0x501 JUMP JUMPDEST SWAP3 SWAP2 POP POP JUMP JUMPDEST PUSH1 0x0 PUSH1 0x40 DUP3 ADD SWAP1 POP PUSH2 0x562 PUSH1 0x0 DUP4 ADD DUP6 PUSH2 0x501 JUMP JUMPDEST DUP2 DUP2 SUB PUSH1 0x20 DUP4 ADD MSTORE PUSH2 0x574 DUP2 DUP5 PUSH2 0x4C8 JUMP JUMPDEST SWAP1 POP SWAP4 SWAP3 POP POP POP JUMP JUMPDEST PUSH1 0x0 PUSH2 0x587 PUSH2 0x598 JUMP JUMPDEST SWAP1 POP PUSH2 0x593 DUP3 DUP3 PUSH2 0x66D JUMP JUMPDEST SWAP2 SWAP1 POP JUMP JUMPDEST PUSH1 0x0 PUSH1 0x40 MLOAD SWAP1 POP SWAP1 JUMP JUMPDEST PUSH1 0x0 PUSH8 0xFFFFFFFFFFFFFFFF DUP3 GT ISZERO PUSH2 0x5BD JUMPI PUSH2 0x5BC PUSH2 0x6CD JUMP JUMPDEST JUMPDEST PUSH2 0x5C6 DUP3 PUSH2 0x710 JUMP JUMPDEST SWAP1 POP PUSH1 0x20 DUP2 ADD SWAP1 POP SWAP2 SWAP1 POP JUMP JUMPDEST PUSH1 0x0 DUP2 MLOAD SWAP1 POP SWAP2 SWAP1 POP JUMP JUMPDEST PUSH1 0x0 DUP3 DUP3 MSTORE PUSH1 0x20 DUP3 ADD SWAP1 POP SWAP3 SWAP2 POP POP JUMP JUMPDEST PUSH1 0x0 DUP2 SWAP1 POP SWAP2 SWAP1 POP JUMP JUMPDEST DUP3 DUP2 DUP4 CALLDATACOPY PUSH1 0x0 DUP4 DUP4 ADD MSTORE POP POP POP JUMP JUMPDEST PUSH1 0x0 JUMPDEST DUP4 DUP2 LT ISZERO PUSH2 0x626 JUMPI DUP1 DUP3 ADD MLOAD DUP2 DUP5 ADD MSTORE PUSH1 0x20 DUP2 ADD SWAP1 POP PUSH2 0x60B JUMP JUMPDEST DUP4 DUP2 GT ISZERO PUSH2 0x635 JUMPI PUSH1 0x0 DUP5 DUP5 ADD MSTORE JUMPDEST POP POP POP POP JUMP JUMPDEST PUSH1 0x0 PUSH1 0x2 DUP3 DIV SWAP1 POP PUSH1 0x1 DUP3 AND DUP1 PUSH2 0x653 JUMPI PUSH1 0x7F DUP3 AND SWAP2 POP JUMPDEST PUSH1 0x20 DUP3 LT DUP2 EQ ISZERO PUSH2 0x667 JUMPI PUSH2 0x666 PUSH2 0x69E JUMP JUMPDEST JUMPDEST POP SWAP2 SWAP1 POP JUMP JUMPDEST PUSH2 0x676 DUP3 PUSH2 0x710 JUMP JUMPDEST DUP2 ADD DUP2 DUP2 LT PUSH8 0xFFFFFFFFFFFFFFFF DUP3 GT OR ISZERO PUSH2 0x695 JUMPI PUSH2 0x694 PUSH2 0x6CD JUMP JUMPDEST JUMPDEST DUP1 PUSH1 0x40 MSTORE POP POP POP JUMP JUMPDEST PUSH32 0x4E487B7100000000000000000000000000000000000000000000000000000000 PUSH1 0x0 MSTORE PUSH1 0x22 PUSH1 0x4 MSTORE PUSH1 0x24 PUSH1 0x0 REVERT JUMPDEST PUSH32 0x4E487B7100000000000000000000000000000000000000000000000000000000 PUSH1 0x0 MSTORE PUSH1 0x41 PUSH1 0x4 MSTORE PUSH1 0x24 PUSH1 0x0 REVERT JUMPDEST PUSH1 0x0 DUP1 REVERT JUMPDEST PUSH1 0x0 DUP1 REVERT JUMPDEST PUSH1 0x0 DUP1 REVERT JUMPDEST PUSH1 0x0 DUP1 REVERT JUMPDEST PUSH1 0x0 PUSH1 0x1F NOT PUSH1 0x1F DUP4 ADD AND SWAP1 POP SWAP2 SWAP1 POP JUMP JUMPDEST PUSH2 0x72A DUP2 PUSH2 0x5EF JUMP JUMPDEST DUP2 EQ PUSH2 0x735 JUMPI PUSH1 0x0 DUP1 REVERT JUMPDEST POP JUMP INVALID LOG2 PUSH5 0x6970667358 0x22 SLT KECCAK256 SWAP13 RETURN SAR 0xC2 GT PUSH1 0xFD XOR 0xAE CALLDATACOPY PUSH32 0xFC91419ED5E1E76D70EE6825BCE5D29EB4F3E8112764736F6C63430008070033 LOG2 PUSH5 0x6970667358 0x22 SLT KECCAK256 CODESIZE BALANCE 0xC4 CHAINID 0xBA BASEFEE NOT DUP13 SWAP10 GASPRICE EXP 0x2E 0x2A LOG1 0xF8 CALLDATASIZE STATICCALL ISZERO 0xE2 SMOD SWAP15 PUSH20 0xB4B9F170991B661A927D64736F6C634300080700 CALLER "
				},
				"gasEstimates": {
					"creation": {
						"codeDepositCost": "824000",
						"executionCost": "857",
						"totalCost": "824857"
					},
					"external": {
						"createSimpleStorage()": "infinite",
						"sfAddStudent(uint256,string)": "infinite",
						"sfGetFavouriteNo(uint256)": "infinite",
						"sfStore(uint256)": "infinite",
						"simpleStorage()": "2641",
						"simpleStorageArray(uint256)": "5064"
					}
				},
				"methodIdentifiers": {
					"createSimpleStorage()": "40d66b3b",
					"sfAddStudent(uint256,string)": "7574ede8",
					"sfGetFavouriteNo(uint256)": "4bffb6be",
					"sfStore(uint256)": "83eab6a2",
					"simpleStorage()": "6be0d6bf",
					"simpleStorageArray(uint256)": "64591bf1"
				}
			},
			"storageLayout": {
				"storage": [
					{
						"astId": 64,
						"contract": "Contracts/StorageFactory.sol:StorageFactory",
						"label": "simpleStorage",
						"offset": 0,
						"slot": "0",
						"type": "t_contract(SimpleStorage)58"
					},
					{
						"astId": 68,
						"contract": "Contracts/StorageFactory.sol:StorageFactory",
						"label": "simpleStorageArray",
						"offset": 0,
						"slot": "1",
						"type": "t_array(t_contract(SimpleStorage)58)dyn_storage"
					}
				],
				"types": {
					"t_array(t_contract(SimpleStorage)58)dyn_storage": {
						"base": "t_contract(SimpleStorage)58",
						"encoding": "dynamic_array",
						"label": "contract SimpleStorage[]",
						"numberOfBytes": "32"
					},
					"t_contract(SimpleStorage)58": {
						"encoding": "inplace",
						"label": "contract SimpleStorage",
						"numberOfBytes": "20"
					}
				}
			},
			"userdoc": {
				"kind": "user",
				"methods": {},
				"version": 1
			}
		}
	}
}