{
	"Contracts/FundMe.sol": {
		"FundMe": {
			"abi": [
				{
					"inputs": [],
					"name": "fund",
					"outputs": [],
					"stateMutability": "payable",
					"type": "function"
				},
				{
					"inputs": [],
					"name": "getPrice",
					"outputs": [
						{
							"internalType": "int256",
							"name": "",
							"type": "int256"
						}
					],
					"stateMutability": "view",
					"type": "function"
				},
				{
					"inputs": [],
					"name": "getVersion",
					"outputs": [
						{
							"internalType": "uint256",
							"name": "",
							"type": "uint256"
						}
					],
					"stateMutability": "view",
					"type": "function"
				}
			],
			"devdoc": {
				"kind": "dev",
				"methods": {},
				"version": 1
			},
			"evm": {
				"assembly": "    /* \"Contracts/FundMe.sol\":143:706  contract FundMe{\r... */\n  mstore(0x40, 0x80)\n    /* \"Contracts/FundMe.sol\":233:275  0xD4a33860578De61DBAbDc8BFdb98FD742fA7028e */\n  0xd4a33860578de61dbabdc8bfdb98fd742fa7028e\n    /* \"Contracts/FundMe.sol\":165:276  AggregatorV3Interface aggregatorV3Interface = AggregatorV3Interface(0xD4a33860578De61DBAbDc8BFdb98FD742fA7028e) */\n  0x00\n  dup1\n  0x0100\n  exp\n  dup2\n  sload\n  dup2\n  0xffffffffffffffffffffffffffffffffffffffff\n  mul\n  not\n  and\n  swap1\n  dup4\n  0xffffffffffffffffffffffffffffffffffffffff\n  and\n  mul\n  or\n  swap1\n  sstore\n  pop\n    /* \"Contracts/FundMe.sol\":143:706  contract FundMe{\r... */\n  callvalue\n  dup1\n  iszero\n  tag_1\n  jumpi\n  0x00\n  dup1\n  revert\ntag_1:\n  pop\n  dataSize(sub_0)\n  dup1\n  dataOffset(sub_0)\n  0x00\n  codecopy\n  0x00\n  return\nstop\n\nsub_0: assembly {\n        /* \"Contracts/FundMe.sol\":143:706  contract FundMe{\r... */\n      mstore(0x40, 0x80)\n      jumpi(tag_1, lt(calldatasize, 0x04))\n      shr(0xe0, calldataload(0x00))\n      dup1\n      0x0d8e6e2c\n      eq\n      tag_2\n      jumpi\n      dup1\n      0x98d5fdca\n      eq\n      tag_3\n      jumpi\n      dup1\n      0xb60d4288\n      eq\n      tag_4\n      jumpi\n    tag_1:\n      0x00\n      dup1\n      revert\n        /* \"Contracts/FundMe.sol\":544:651  function getVersion() public view returns(uint256){\r... */\n    tag_2:\n      callvalue\n      dup1\n      iszero\n      tag_5\n      jumpi\n      0x00\n      dup1\n      revert\n    tag_5:\n      pop\n      tag_6\n      tag_7\n      jump\t// in\n    tag_6:\n      mload(0x40)\n      tag_8\n      swap2\n      swap1\n      tag_9\n      jump\t// in\n    tag_8:\n      mload(0x40)\n      dup1\n      swap2\n      sub\n      swap1\n      return\n        /* \"Contracts/FundMe.sol\":391:536  function getPrice() public view returns(int) {\r... */\n    tag_3:\n      callvalue\n      dup1\n      iszero\n      tag_10\n      jumpi\n      0x00\n      dup1\n      revert\n    tag_10:\n      pop\n      tag_11\n      tag_12\n      jump\t// in\n    tag_11:\n      mload(0x40)\n      tag_13\n      swap2\n      swap1\n      tag_14\n      jump\t// in\n    tag_13:\n      mload(0x40)\n      dup1\n      swap2\n      sub\n      swap1\n      return\n        /* \"Contracts/FundMe.sol\":285:383  function fund() public payable {\r... */\n    tag_4:\n      tag_15\n      tag_16\n      jump\t// in\n    tag_15:\n      stop\n        /* \"Contracts/FundMe.sol\":544:651  function getVersion() public view returns(uint256){\r... */\n    tag_7:\n        /* \"Contracts/FundMe.sol\":586:593  uint256 */\n      0x00\n        /* \"Contracts/FundMe.sol\":612:633  aggregatorV3Interface */\n      dup1\n      0x00\n      swap1\n      sload\n      swap1\n      0x0100\n      exp\n      swap1\n      div\n      0xffffffffffffffffffffffffffffffffffffffff\n      and\n        /* \"Contracts/FundMe.sol\":612:641  aggregatorV3Interface.version */\n      0xffffffffffffffffffffffffffffffffffffffff\n      and\n      0x54fd4d50\n        /* \"Contracts/FundMe.sol\":612:643  aggregatorV3Interface.version() */\n      mload(0x40)\n      dup2\n      0xffffffff\n      and\n      0xe0\n      shl\n      dup2\n      mstore\n      0x04\n      add\n      0x20\n      mload(0x40)\n      dup1\n      dup4\n      sub\n      dup2\n      dup7\n      dup1\n      extcodesize\n      iszero\n      dup1\n      iszero\n      tag_18\n      jumpi\n      0x00\n      dup1\n      revert\n    tag_18:\n      pop\n      gas\n      staticcall\n      iszero\n      dup1\n      iszero\n      tag_20\n      jumpi\n      returndatasize\n      0x00\n      dup1\n      returndatacopy\n      revert(0x00, returndatasize)\n    tag_20:\n      pop\n      pop\n      pop\n      pop\n      mload(0x40)\n      returndatasize\n      not(0x1f)\n      0x1f\n      dup3\n      add\n      and\n      dup3\n      add\n      dup1\n      0x40\n      mstore\n      pop\n      dup2\n      add\n      swap1\n      tag_21\n      swap2\n      swap1\n      tag_22\n      jump\t// in\n    tag_21:\n        /* \"Contracts/FundMe.sol\":605:643  return aggregatorV3Interface.version() */\n      swap1\n      pop\n        /* \"Contracts/FundMe.sol\":544:651  function getVersion() public view returns(uint256){\r... */\n      swap1\n      jump\t// out\n        /* \"Contracts/FundMe.sol\":391:536  function getPrice() public view returns(int) {\r... */\n    tag_12:\n        /* \"Contracts/FundMe.sol\":431:434  int */\n      0x00\n        /* \"Contracts/FundMe.sol\":450:459  int price */\n      dup1\n        /* \"Contracts/FundMe.sol\":466:487  aggregatorV3Interface */\n      0x00\n      dup1\n      sload\n      swap1\n      0x0100\n      exp\n      swap1\n      div\n      0xffffffffffffffffffffffffffffffffffffffff\n      and\n        /* \"Contracts/FundMe.sol\":466:503  aggregatorV3Interface.latestRoundData */\n      0xffffffffffffffffffffffffffffffffffffffff\n      and\n      0xfeaf968c\n        /* \"Contracts/FundMe.sol\":466:505  aggregatorV3Interface.latestRoundData() */\n      mload(0x40)\n      dup2\n      0xffffffff\n      and\n      0xe0\n      shl\n      dup2\n      mstore\n      0x04\n      add\n      0xa0\n      mload(0x40)\n      dup1\n      dup4\n      sub\n      dup2\n      dup7\n      dup1\n      extcodesize\n      iszero\n      dup1\n      iszero\n      tag_24\n      jumpi\n      0x00\n      dup1\n      revert\n    tag_24:\n      pop\n      gas\n      staticcall\n      iszero\n      dup1\n      iszero\n      tag_26\n      jumpi\n      returndatasize\n      0x00\n      dup1\n      returndatacopy\n      revert(0x00, returndatasize)\n    tag_26:\n      pop\n      pop\n      pop\n      pop\n      mload(0x40)\n      returndatasize\n      not(0x1f)\n      0x1f\n      dup3\n      add\n      and\n      dup3\n      add\n      dup1\n      0x40\n      mstore\n      pop\n      dup2\n      add\n      swap1\n      tag_27\n      swap2\n      swap1\n      tag_28\n      jump\t// in\n    tag_27:\n        /* \"Contracts/FundMe.sol\":447:505  (, int price,,,) = aggregatorV3Interface.latestRoundData() */\n      pop\n      pop\n      pop\n      swap2\n      pop\n      pop\n        /* \"Contracts/FundMe.sol\":523:528  price */\n      dup1\n        /* \"Contracts/FundMe.sol\":516:528  return price */\n      swap2\n      pop\n      pop\n        /* \"Contracts/FundMe.sol\":391:536  function getPrice() public view returns(int) {\r... */\n      swap1\n      jump\t// out\n        /* \"Contracts/FundMe.sol\":285:383  function fund() public payable {\r... */\n    tag_16:\n        /* \"Contracts/FundMe.sol\":348:352  1e18 */\n      0x0de0b6b3a7640000\n        /* \"Contracts/FundMe.sol\":335:344  msg.value */\n      callvalue\n        /* \"Contracts/FundMe.sol\":335:352  msg.value >= 1e18 */\n      lt\n      iszero\n        /* \"Contracts/FundMe.sol\":327:375  require(msg.value >= 1e18, \"Didn't send enough\") */\n      tag_30\n      jumpi\n      mload(0x40)\n      0x08c379a000000000000000000000000000000000000000000000000000000000\n      dup2\n      mstore\n      0x04\n      add\n      tag_31\n      swap1\n      tag_32\n      jump\t// in\n    tag_31:\n      mload(0x40)\n      dup1\n      swap2\n      sub\n      swap1\n      revert\n    tag_30:\n        /* \"Contracts/FundMe.sol\":285:383  function fund() public payable {\r... */\n      jump\t// out\n        /* \"#utility.yul\":7:148   */\n    tag_34:\n        /* \"#utility.yul\":63:68   */\n      0x00\n        /* \"#utility.yul\":94:100   */\n      dup2\n        /* \"#utility.yul\":88:101   */\n      mload\n        /* \"#utility.yul\":79:101   */\n      swap1\n      pop\n        /* \"#utility.yul\":110:142   */\n      tag_36\n        /* \"#utility.yul\":136:141   */\n      dup2\n        /* \"#utility.yul\":110:142   */\n      tag_37\n      jump\t// in\n    tag_36:\n        /* \"#utility.yul\":7:148   */\n      swap3\n      swap2\n      pop\n      pop\n      jump\t// out\n        /* \"#utility.yul\":154:297   */\n    tag_38:\n        /* \"#utility.yul\":211:216   */\n      0x00\n        /* \"#utility.yul\":242:248   */\n      dup2\n        /* \"#utility.yul\":236:249   */\n      mload\n        /* \"#utility.yul\":227:249   */\n      swap1\n      pop\n        /* \"#utility.yul\":258:291   */\n      tag_40\n        /* \"#utility.yul\":285:290   */\n      dup2\n        /* \"#utility.yul\":258:291   */\n      tag_41\n      jump\t// in\n    tag_40:\n        /* \"#utility.yul\":154:297   */\n      swap3\n      swap2\n      pop\n      pop\n      jump\t// out\n        /* \"#utility.yul\":303:444   */\n    tag_42:\n        /* \"#utility.yul\":359:364   */\n      0x00\n        /* \"#utility.yul\":390:396   */\n      dup2\n        /* \"#utility.yul\":384:397   */\n      mload\n        /* \"#utility.yul\":375:397   */\n      swap1\n      pop\n        /* \"#utility.yul\":406:438   */\n      tag_44\n        /* \"#utility.yul\":432:437   */\n      dup2\n        /* \"#utility.yul\":406:438   */\n      tag_45\n      jump\t// in\n    tag_44:\n        /* \"#utility.yul\":303:444   */\n      swap3\n      swap2\n      pop\n      pop\n      jump\t// out\n        /* \"#utility.yul\":450:801   */\n    tag_22:\n        /* \"#utility.yul\":520:526   */\n      0x00\n        /* \"#utility.yul\":569:571   */\n      0x20\n        /* \"#utility.yul\":557:566   */\n      dup3\n        /* \"#utility.yul\":548:555   */\n      dup5\n        /* \"#utility.yul\":544:567   */\n      sub\n        /* \"#utility.yul\":540:572   */\n      slt\n        /* \"#utility.yul\":537:656   */\n      iszero\n      tag_47\n      jumpi\n        /* \"#utility.yul\":575:654   */\n      tag_48\n      tag_49\n      jump\t// in\n    tag_48:\n        /* \"#utility.yul\":537:656   */\n    tag_47:\n        /* \"#utility.yul\":695:696   */\n      0x00\n        /* \"#utility.yul\":720:784   */\n      tag_50\n        /* \"#utility.yul\":776:783   */\n      dup5\n        /* \"#utility.yul\":767:773   */\n      dup3\n        /* \"#utility.yul\":756:765   */\n      dup6\n        /* \"#utility.yul\":752:774   */\n      add\n        /* \"#utility.yul\":720:784   */\n      tag_38\n      jump\t// in\n    tag_50:\n        /* \"#utility.yul\":710:784   */\n      swap2\n      pop\n        /* \"#utility.yul\":666:794   */\n      pop\n        /* \"#utility.yul\":450:801   */\n      swap3\n      swap2\n      pop\n      pop\n      jump\t// out\n        /* \"#utility.yul\":807:1778   */\n    tag_28:\n        /* \"#utility.yul\":910:916   */\n      0x00\n        /* \"#utility.yul\":918:924   */\n      dup1\n        /* \"#utility.yul\":926:932   */\n      0x00\n        /* \"#utility.yul\":934:940   */\n      dup1\n        /* \"#utility.yul\":942:948   */\n      0x00\n        /* \"#utility.yul\":991:994   */\n      0xa0\n        /* \"#utility.yul\":979:988   */\n      dup7\n        /* \"#utility.yul\":970:977   */\n      dup9\n        /* \"#utility.yul\":966:989   */\n      sub\n        /* \"#utility.yul\":962:995   */\n      slt\n        /* \"#utility.yul\":959:1079   */\n      iszero\n      tag_52\n      jumpi\n        /* \"#utility.yul\":998:1077   */\n      tag_53\n      tag_49\n      jump\t// in\n    tag_53:\n        /* \"#utility.yul\":959:1079   */\n    tag_52:\n        /* \"#utility.yul\":1118:1119   */\n      0x00\n        /* \"#utility.yul\":1143:1206   */\n      tag_54\n        /* \"#utility.yul\":1198:1205   */\n      dup9\n        /* \"#utility.yul\":1189:1195   */\n      dup3\n        /* \"#utility.yul\":1178:1187   */\n      dup10\n        /* \"#utility.yul\":1174:1196   */\n      add\n        /* \"#utility.yul\":1143:1206   */\n      tag_42\n      jump\t// in\n    tag_54:\n        /* \"#utility.yul\":1133:1206   */\n      swap6\n      pop\n        /* \"#utility.yul\":1089:1216   */\n      pop\n        /* \"#utility.yul\":1255:1257   */\n      0x20\n        /* \"#utility.yul\":1281:1344   */\n      tag_55\n        /* \"#utility.yul\":1336:1343   */\n      dup9\n        /* \"#utility.yul\":1327:1333   */\n      dup3\n        /* \"#utility.yul\":1316:1325   */\n      dup10\n        /* \"#utility.yul\":1312:1334   */\n      add\n        /* \"#utility.yul\":1281:1344   */\n      tag_34\n      jump\t// in\n    tag_55:\n        /* \"#utility.yul\":1271:1344   */\n      swap5\n      pop\n        /* \"#utility.yul\":1226:1354   */\n      pop\n        /* \"#utility.yul\":1393:1395   */\n      0x40\n        /* \"#utility.yul\":1419:1483   */\n      tag_56\n        /* \"#utility.yul\":1475:1482   */\n      dup9\n        /* \"#utility.yul\":1466:1472   */\n      dup3\n        /* \"#utility.yul\":1455:1464   */\n      dup10\n        /* \"#utility.yul\":1451:1473   */\n      add\n        /* \"#utility.yul\":1419:1483   */\n      tag_38\n      jump\t// in\n    tag_56:\n        /* \"#utility.yul\":1409:1483   */\n      swap4\n      pop\n        /* \"#utility.yul\":1364:1493   */\n      pop\n        /* \"#utility.yul\":1532:1534   */\n      0x60\n        /* \"#utility.yul\":1558:1622   */\n      tag_57\n        /* \"#utility.yul\":1614:1621   */\n      dup9\n        /* \"#utility.yul\":1605:1611   */\n      dup3\n        /* \"#utility.yul\":1594:1603   */\n      dup10\n        /* \"#utility.yul\":1590:1612   */\n      add\n        /* \"#utility.yul\":1558:1622   */\n      tag_38\n      jump\t// in\n    tag_57:\n        /* \"#utility.yul\":1548:1622   */\n      swap3\n      pop\n        /* \"#utility.yul\":1503:1632   */\n      pop\n        /* \"#utility.yul\":1671:1674   */\n      0x80\n        /* \"#utility.yul\":1698:1761   */\n      tag_58\n        /* \"#utility.yul\":1753:1760   */\n      dup9\n        /* \"#utility.yul\":1744:1750   */\n      dup3\n        /* \"#utility.yul\":1733:1742   */\n      dup10\n        /* \"#utility.yul\":1729:1751   */\n      add\n        /* \"#utility.yul\":1698:1761   */\n      tag_42\n      jump\t// in\n    tag_58:\n        /* \"#utility.yul\":1688:1761   */\n      swap2\n      pop\n        /* \"#utility.yul\":1642:1771   */\n      pop\n        /* \"#utility.yul\":807:1778   */\n      swap3\n      swap6\n      pop\n      swap3\n      swap6\n      swap1\n      swap4\n      pop\n      jump\t// out\n        /* \"#utility.yul\":1784:1899   */\n    tag_59:\n        /* \"#utility.yul\":1869:1892   */\n      tag_61\n        /* \"#utility.yul\":1886:1891   */\n      dup2\n        /* \"#utility.yul\":1869:1892   */\n      tag_62\n      jump\t// in\n    tag_61:\n        /* \"#utility.yul\":1864:1867   */\n      dup3\n        /* \"#utility.yul\":1857:1893   */\n      mstore\n        /* \"#utility.yul\":1784:1899   */\n      pop\n      pop\n      jump\t// out\n        /* \"#utility.yul\":1905:2271   */\n    tag_63:\n        /* \"#utility.yul\":2047:2050   */\n      0x00\n        /* \"#utility.yul\":2068:2135   */\n      tag_65\n        /* \"#utility.yul\":2132:2134   */\n      0x12\n        /* \"#utility.yul\":2127:2130   */\n      dup4\n        /* \"#utility.yul\":2068:2135   */\n      tag_66\n      jump\t// in\n    tag_65:\n        /* \"#utility.yul\":2061:2135   */\n      swap2\n      pop\n        /* \"#utility.yul\":2144:2237   */\n      tag_67\n        /* \"#utility.yul\":2233:2236   */\n      dup3\n        /* \"#utility.yul\":2144:2237   */\n      tag_68\n      jump\t// in\n    tag_67:\n        /* \"#utility.yul\":2262:2264   */\n      0x20\n        /* \"#utility.yul\":2257:2260   */\n      dup3\n        /* \"#utility.yul\":2253:2265   */\n      add\n        /* \"#utility.yul\":2246:2265   */\n      swap1\n      pop\n        /* \"#utility.yul\":1905:2271   */\n      swap2\n      swap1\n      pop\n      jump\t// out\n        /* \"#utility.yul\":2277:2395   */\n    tag_69:\n        /* \"#utility.yul\":2364:2388   */\n      tag_71\n        /* \"#utility.yul\":2382:2387   */\n      dup2\n        /* \"#utility.yul\":2364:2388   */\n      tag_72\n      jump\t// in\n    tag_71:\n        /* \"#utility.yul\":2359:2362   */\n      dup3\n        /* \"#utility.yul\":2352:2389   */\n      mstore\n        /* \"#utility.yul\":2277:2395   */\n      pop\n      pop\n      jump\t// out\n        /* \"#utility.yul\":2401:2619   */\n    tag_14:\n        /* \"#utility.yul\":2492:2496   */\n      0x00\n        /* \"#utility.yul\":2530:2532   */\n      0x20\n        /* \"#utility.yul\":2519:2528   */\n      dup3\n        /* \"#utility.yul\":2515:2533   */\n      add\n        /* \"#utility.yul\":2507:2533   */\n      swap1\n      pop\n        /* \"#utility.yul\":2543:2612   */\n      tag_74\n        /* \"#utility.yul\":2609:2610   */\n      0x00\n        /* \"#utility.yul\":2598:2607   */\n      dup4\n        /* \"#utility.yul\":2594:2611   */\n      add\n        /* \"#utility.yul\":2585:2591   */\n      dup5\n        /* \"#utility.yul\":2543:2612   */\n      tag_59\n      jump\t// in\n    tag_74:\n        /* \"#utility.yul\":2401:2619   */\n      swap3\n      swap2\n      pop\n      pop\n      jump\t// out\n        /* \"#utility.yul\":2625:3044   */\n    tag_32:\n        /* \"#utility.yul\":2791:2795   */\n      0x00\n        /* \"#utility.yul\":2829:2831   */\n      0x20\n        /* \"#utility.yul\":2818:2827   */\n      dup3\n        /* \"#utility.yul\":2814:2832   */\n      add\n        /* \"#utility.yul\":2806:2832   */\n      swap1\n      pop\n        /* \"#utility.yul\":2878:2887   */\n      dup2\n        /* \"#utility.yul\":2872:2876   */\n      dup2\n        /* \"#utility.yul\":2868:2888   */\n      sub\n        /* \"#utility.yul\":2864:2865   */\n      0x00\n        /* \"#utility.yul\":2853:2862   */\n      dup4\n        /* \"#utility.yul\":2849:2866   */\n      add\n        /* \"#utility.yul\":2842:2889   */\n      mstore\n        /* \"#utility.yul\":2906:3037   */\n      tag_76\n        /* \"#utility.yul\":3032:3036   */\n      dup2\n        /* \"#utility.yul\":2906:3037   */\n      tag_63\n      jump\t// in\n    tag_76:\n        /* \"#utility.yul\":2898:3037   */\n      swap1\n      pop\n        /* \"#utility.yul\":2625:3044   */\n      swap2\n      swap1\n      pop\n      jump\t// out\n        /* \"#utility.yul\":3050:3272   */\n    tag_9:\n        /* \"#utility.yul\":3143:3147   */\n      0x00\n        /* \"#utility.yul\":3181:3183   */\n      0x20\n        /* \"#utility.yul\":3170:3179   */\n      dup3\n        /* \"#utility.yul\":3166:3184   */\n      add\n        /* \"#utility.yul\":3158:3184   */\n      swap1\n      pop\n        /* \"#utility.yul\":3194:3265   */\n      tag_78\n        /* \"#utility.yul\":3262:3263   */\n      0x00\n        /* \"#utility.yul\":3251:3260   */\n      dup4\n        /* \"#utility.yul\":3247:3264   */\n      add\n        /* \"#utility.yul\":3238:3244   */\n      dup5\n        /* \"#utility.yul\":3194:3265   */\n      tag_69\n      jump\t// in\n    tag_78:\n        /* \"#utility.yul\":3050:3272   */\n      swap3\n      swap2\n      pop\n      pop\n      jump\t// out\n        /* \"#utility.yul\":3359:3528   */\n    tag_66:\n        /* \"#utility.yul\":3443:3454   */\n      0x00\n        /* \"#utility.yul\":3477:3483   */\n      dup3\n        /* \"#utility.yul\":3472:3475   */\n      dup3\n        /* \"#utility.yul\":3465:3484   */\n      mstore\n        /* \"#utility.yul\":3517:3521   */\n      0x20\n        /* \"#utility.yul\":3512:3515   */\n      dup3\n        /* \"#utility.yul\":3508:3522   */\n      add\n        /* \"#utility.yul\":3493:3522   */\n      swap1\n      pop\n        /* \"#utility.yul\":3359:3528   */\n      swap3\n      swap2\n      pop\n      pop\n      jump\t// out\n        /* \"#utility.yul\":3534:3610   */\n    tag_62:\n        /* \"#utility.yul\":3570:3577   */\n      0x00\n        /* \"#utility.yul\":3599:3604   */\n      dup2\n        /* \"#utility.yul\":3588:3604   */\n      swap1\n      pop\n        /* \"#utility.yul\":3534:3610   */\n      swap2\n      swap1\n      pop\n      jump\t// out\n        /* \"#utility.yul\":3616:3693   */\n    tag_72:\n        /* \"#utility.yul\":3653:3660   */\n      0x00\n        /* \"#utility.yul\":3682:3687   */\n      dup2\n        /* \"#utility.yul\":3671:3687   */\n      swap1\n      pop\n        /* \"#utility.yul\":3616:3693   */\n      swap2\n      swap1\n      pop\n      jump\t// out\n        /* \"#utility.yul\":3699:3804   */\n    tag_84:\n        /* \"#utility.yul\":3735:3742   */\n      0x00\n        /* \"#utility.yul\":3775:3797   */\n      0xffffffffffffffffffff\n        /* \"#utility.yul\":3768:3773   */\n      dup3\n        /* \"#utility.yul\":3764:3798   */\n      and\n        /* \"#utility.yul\":3753:3798   */\n      swap1\n      pop\n        /* \"#utility.yul\":3699:3804   */\n      swap2\n      swap1\n      pop\n      jump\t// out\n        /* \"#utility.yul\":3933:4050   */\n    tag_49:\n        /* \"#utility.yul\":4042:4043   */\n      0x00\n        /* \"#utility.yul\":4039:4040   */\n      dup1\n        /* \"#utility.yul\":4032:4044   */\n      revert\n        /* \"#utility.yul\":4056:4224   */\n    tag_68:\n        /* \"#utility.yul\":4196:4216   */\n      0x4469646e27742073656e6420656e6f7567680000000000000000000000000000\n        /* \"#utility.yul\":4192:4193   */\n      0x00\n        /* \"#utility.yul\":4184:4190   */\n      dup3\n        /* \"#utility.yul\":4180:4194   */\n      add\n        /* \"#utility.yul\":4173:4217   */\n      mstore\n        /* \"#utility.yul\":4056:4224   */\n      pop\n      jump\t// out\n        /* \"#utility.yul\":4230:4350   */\n    tag_37:\n        /* \"#utility.yul\":4302:4325   */\n      tag_91\n        /* \"#utility.yul\":4319:4324   */\n      dup2\n        /* \"#utility.yul\":4302:4325   */\n      tag_62\n      jump\t// in\n    tag_91:\n        /* \"#utility.yul\":4295:4300   */\n      dup2\n        /* \"#utility.yul\":4292:4326   */\n      eq\n        /* \"#utility.yul\":4282:4344   */\n      tag_92\n      jumpi\n        /* \"#utility.yul\":4340:4341   */\n      0x00\n        /* \"#utility.yul\":4337:4338   */\n      dup1\n        /* \"#utility.yul\":4330:4342   */\n      revert\n        /* \"#utility.yul\":4282:4344   */\n    tag_92:\n        /* \"#utility.yul\":4230:4350   */\n      pop\n      jump\t// out\n        /* \"#utility.yul\":4356:4478   */\n    tag_41:\n        /* \"#utility.yul\":4429:4453   */\n      tag_94\n        /* \"#utility.yul\":4447:4452   */\n      dup2\n        /* \"#utility.yul\":4429:4453   */\n      tag_72\n      jump\t// in\n    tag_94:\n        /* \"#utility.yul\":4422:4427   */\n      dup2\n        /* \"#utility.yul\":4419:4454   */\n      eq\n        /* \"#utility.yul\":4409:4472   */\n      tag_95\n      jumpi\n        /* \"#utility.yul\":4468:4469   */\n      0x00\n        /* \"#utility.yul\":4465:4466   */\n      dup1\n        /* \"#utility.yul\":4458:4470   */\n      revert\n        /* \"#utility.yul\":4409:4472   */\n    tag_95:\n        /* \"#utility.yul\":4356:4478   */\n      pop\n      jump\t// out\n        /* \"#utility.yul\":4484:4604   */\n    tag_45:\n        /* \"#utility.yul\":4556:4579   */\n      tag_97\n        /* \"#utility.yul\":4573:4578   */\n      dup2\n        /* \"#utility.yul\":4556:4579   */\n      tag_84\n      jump\t// in\n    tag_97:\n        /* \"#utility.yul\":4549:4554   */\n      dup2\n        /* \"#utility.yul\":4546:4580   */\n      eq\n        /* \"#utility.yul\":4536:4598   */\n      tag_98\n      jumpi\n        /* \"#utility.yul\":4594:4595   */\n      0x00\n        /* \"#utility.yul\":4591:4592   */\n      dup1\n        /* \"#utility.yul\":4584:4596   */\n      revert\n        /* \"#utility.yul\":4536:4598   */\n    tag_98:\n        /* \"#utility.yul\":4484:4604   */\n      pop\n      jump\t// out\n\n    auxdata: 0xa2646970667358221220525cbcd5a0755b4ba5ef5cde159fea2d3434de162dcb287f1f11f8ee41987e7f64736f6c63430008070033\n}\n",
				"bytecode": {
					"linkReferences": {},
					"object": "608060405273d4a33860578de61dbabdc8bfdb98fd742fa7028e6000806101000a81548173ffffffffffffffffffffffffffffffffffffffff021916908373ffffffffffffffffffffffffffffffffffffffff16021790555034801561006457600080fd5b5061049c806100746000396000f3fe6080604052600436106100345760003560e01c80630d8e6e2c1461003957806398d5fdca14610064578063b60d42881461008f575b600080fd5b34801561004557600080fd5b5061004e610099565b60405161005b919061039d565b60405180910390f35b34801561007057600080fd5b5061007961013f565b6040516100869190610362565b60405180910390f35b6100976101ed565b005b60008060009054906101000a900473ffffffffffffffffffffffffffffffffffffffff1673ffffffffffffffffffffffffffffffffffffffff166354fd4d506040518163ffffffff1660e01b815260040160206040518083038186803b15801561010257600080fd5b505afa158015610116573d6000803e3d6000fd5b505050506040513d601f19601f8201168201806040525081019061013a9190610279565b905090565b60008060008054906101000a900473ffffffffffffffffffffffffffffffffffffffff1673ffffffffffffffffffffffffffffffffffffffff1663feaf968c6040518163ffffffff1660e01b815260040160a06040518083038186803b1580156101a857600080fd5b505afa1580156101bc573d6000803e3d6000fd5b505050506040513d601f19601f820116820180604052508101906101e091906102a6565b5050509150508091505090565b670de0b6b3a7640000341015610238576040517f08c379a000000000000000000000000000000000000000000000000000000000815260040161022f9061037d565b60405180910390fd5b565b60008151905061024981610421565b92915050565b60008151905061025e81610438565b92915050565b6000815190506102738161044f565b92915050565b60006020828403121561028f5761028e6103f3565b5b600061029d8482850161024f565b91505092915050565b600080600080600060a086880312156102c2576102c16103f3565b5b60006102d088828901610264565b95505060206102e18882890161023a565b94505060406102f28882890161024f565b93505060606103038882890161024f565b925050608061031488828901610264565b9150509295509295909350565b61032a816103c9565b82525050565b600061033d6012836103b8565b9150610348826103f8565b602082019050919050565b61035c816103d3565b82525050565b60006020820190506103776000830184610321565b92915050565b6000602082019050818103600083015261039681610330565b9050919050565b60006020820190506103b26000830184610353565b92915050565b600082825260208201905092915050565b6000819050919050565b6000819050919050565b600069ffffffffffffffffffff82169050919050565b600080fd5b7f4469646e27742073656e6420656e6f7567680000000000000000000000000000600082015250565b61042a816103c9565b811461043557600080fd5b50565b610441816103d3565b811461044c57600080fd5b50565b610458816103dd565b811461046357600080fd5b5056fea2646970667358221220525cbcd5a0755b4ba5ef5cde159fea2d3434de162dcb287f1f11f8ee41987e7f64736f6c63430008070033",
					"opcodes": "PUSH1 0x80 PUSH1 0x40 MSTORE PUSH20 0xD4A33860578DE61DBABDC8BFDB98FD742FA7028E PUSH1 0x0 DUP1 PUSH2 0x100 EXP DUP2 SLOAD DUP2 PUSH20 0xFFFFFFFFFFFFFFFFFFFFFFFFFFFFFFFFFFFFFFFF MUL NOT AND SWAP1 DUP4 PUSH20 0xFFFFFFFFFFFFFFFFFFFFFFFFFFFFFFFFFFFFFFFF AND MUL OR SWAP1 SSTORE POP CALLVALUE DUP1 ISZERO PUSH2 0x64 JUMPI PUSH1 0x0 DUP1 REVERT JUMPDEST POP PUSH2 0x49C DUP1 PUSH2 0x74 PUSH1 0x0 CODECOPY PUSH1 0x0 RETURN INVALID PUSH1 0x80 PUSH1 0x40 MSTORE PUSH1 0x4 CALLDATASIZE LT PUSH2 0x34 JUMPI PUSH1 0x0 CALLDATALOAD PUSH1 0xE0 SHR DUP1 PUSH4 0xD8E6E2C EQ PUSH2 0x39 JUMPI DUP1 PUSH4 0x98D5FDCA EQ PUSH2 0x64 JUMPI DUP1 PUSH4 0xB60D4288 EQ PUSH2 0x8F JUMPI JUMPDEST PUSH1 0x0 DUP1 REVERT JUMPDEST CALLVALUE DUP1 ISZERO PUSH2 0x45 JUMPI PUSH1 0x0 DUP1 REVERT JUMPDEST POP PUSH2 0x4E PUSH2 0x99 JUMP JUMPDEST PUSH1 0x40 MLOAD PUSH2 0x5B SWAP2 SWAP1 PUSH2 0x39D JUMP JUMPDEST PUSH1 0x40 MLOAD DUP1 SWAP2 SUB SWAP1 RETURN JUMPDEST CALLVALUE DUP1 ISZERO PUSH2 0x70 JUMPI PUSH1 0x0 DUP1 REVERT JUMPDEST POP PUSH2 0x79 PUSH2 0x13F JUMP JUMPDEST PUSH1 0x40 MLOAD PUSH2 0x86 SWAP2 SWAP1 PUSH2 0x362 JUMP JUMPDEST PUSH1 0x40 MLOAD DUP1 SWAP2 SUB SWAP1 RETURN JUMPDEST PUSH2 0x97 PUSH2 0x1ED JUMP JUMPDEST STOP JUMPDEST PUSH1 0x0 DUP1 PUSH1 0x0 SWAP1 SLOAD SWAP1 PUSH2 0x100 EXP SWAP1 DIV PUSH20 0xFFFFFFFFFFFFFFFFFFFFFFFFFFFFFFFFFFFFFFFF AND PUSH20 0xFFFFFFFFFFFFFFFFFFFFFFFFFFFFFFFFFFFFFFFF AND PUSH4 0x54FD4D50 PUSH1 0x40 MLOAD DUP2 PUSH4 0xFFFFFFFF AND PUSH1 0xE0 SHL DUP2 MSTORE PUSH1 0x4 ADD PUSH1 0x20 PUSH1 0x40 MLOAD DUP1 DUP4 SUB DUP2 DUP7 DUP1 EXTCODESIZE ISZERO DUP1 ISZERO PUSH2 0x102 JUMPI PUSH1 0x0 DUP1 REVERT JUMPDEST POP GAS STATICCALL ISZERO DUP1 ISZERO PUSH2 0x116 JUMPI RETURNDATASIZE PUSH1 0x0 DUP1 RETURNDATACOPY RETURNDATASIZE PUSH1 0x0 REVERT JUMPDEST POP POP POP POP PUSH1 0x40 MLOAD RETURNDATASIZE PUSH1 0x1F NOT PUSH1 0x1F DUP3 ADD AND DUP3 ADD DUP1 PUSH1 0x40 MSTORE POP DUP2 ADD SWAP1 PUSH2 0x13A SWAP2 SWAP1 PUSH2 0x279 JUMP JUMPDEST SWAP1 POP SWAP1 JUMP JUMPDEST PUSH1 0x0 DUP1 PUSH1 0x0 DUP1 SLOAD SWAP1 PUSH2 0x100 EXP SWAP1 DIV PUSH20 0xFFFFFFFFFFFFFFFFFFFFFFFFFFFFFFFFFFFFFFFF AND PUSH20 0xFFFFFFFFFFFFFFFFFFFFFFFFFFFFFFFFFFFFFFFF AND PUSH4 0xFEAF968C PUSH1 0x40 MLOAD DUP2 PUSH4 0xFFFFFFFF AND PUSH1 0xE0 SHL DUP2 MSTORE PUSH1 0x4 ADD PUSH1 0xA0 PUSH1 0x40 MLOAD DUP1 DUP4 SUB DUP2 DUP7 DUP1 EXTCODESIZE ISZERO DUP1 ISZERO PUSH2 0x1A8 JUMPI PUSH1 0x0 DUP1 REVERT JUMPDEST POP GAS STATICCALL ISZERO DUP1 ISZERO PUSH2 0x1BC JUMPI RETURNDATASIZE PUSH1 0x0 DUP1 RETURNDATACOPY RETURNDATASIZE PUSH1 0x0 REVERT JUMPDEST POP POP POP POP PUSH1 0x40 MLOAD RETURNDATASIZE PUSH1 0x1F NOT PUSH1 0x1F DUP3 ADD AND DUP3 ADD DUP1 PUSH1 0x40 MSTORE POP DUP2 ADD SWAP1 PUSH2 0x1E0 SWAP2 SWAP1 PUSH2 0x2A6 JUMP JUMPDEST POP POP POP SWAP2 POP POP DUP1 SWAP2 POP POP SWAP1 JUMP JUMPDEST PUSH8 0xDE0B6B3A7640000 CALLVALUE LT ISZERO PUSH2 0x238 JUMPI PUSH1 0x40 MLOAD PUSH32 0x8C379A000000000000000000000000000000000000000000000000000000000 DUP2 MSTORE PUSH1 0x4 ADD PUSH2 0x22F SWAP1 PUSH2 0x37D JUMP JUMPDEST PUSH1 0x40 MLOAD DUP1 SWAP2 SUB SWAP1 REVERT JUMPDEST JUMP JUMPDEST PUSH1 0x0 DUP2 MLOAD SWAP1 POP PUSH2 0x249 DUP2 PUSH2 0x421 JUMP JUMPDEST SWAP3 SWAP2 POP POP JUMP JUMPDEST PUSH1 0x0 DUP2 MLOAD SWAP1 POP PUSH2 0x25E DUP2 PUSH2 0x438 JUMP JUMPDEST SWAP3 SWAP2 POP POP JUMP JUMPDEST PUSH1 0x0 DUP2 MLOAD SWAP1 POP PUSH2 0x273 DUP2 PUSH2 0x44F JUMP JUMPDEST SWAP3 SWAP2 POP POP JUMP JUMPDEST PUSH1 0x0 PUSH1 0x20 DUP3 DUP5 SUB SLT ISZERO PUSH2 0x28F JUMPI PUSH2 0x28E PUSH2 0x3F3 JUMP JUMPDEST JUMPDEST PUSH1 0x0 PUSH2 0x29D DUP5 DUP3 DUP6 ADD PUSH2 0x24F JUMP JUMPDEST SWAP2 POP POP SWAP3 SWAP2 POP POP JUMP JUMPDEST PUSH1 0x0 DUP1 PUSH1 0x0 DUP1 PUSH1 0x0 PUSH1 0xA0 DUP7 DUP9 SUB SLT ISZERO PUSH2 0x2C2 JUMPI PUSH2 0x2C1 PUSH2 0x3F3 JUMP JUMPDEST JUMPDEST PUSH1 0x0 PUSH2 0x2D0 DUP9 DUP3 DUP10 ADD PUSH2 0x264 JUMP JUMPDEST SWAP6 POP POP PUSH1 0x20 PUSH2 0x2E1 DUP9 DUP3 DUP10 ADD PUSH2 0x23A JUMP JUMPDEST SWAP5 POP POP PUSH1 0x40 PUSH2 0x2F2 DUP9 DUP3 DUP10 ADD PUSH2 0x24F JUMP JUMPDEST SWAP4 POP POP PUSH1 0x60 PUSH2 0x303 DUP9 DUP3 DUP10 ADD PUSH2 0x24F JUMP JUMPDEST SWAP3 POP POP PUSH1 0x80 PUSH2 0x314 DUP9 DUP3 DUP10 ADD PUSH2 0x264 JUMP JUMPDEST SWAP2 POP POP SWAP3 SWAP6 POP SWAP3 SWAP6 SWAP1 SWAP4 POP JUMP JUMPDEST PUSH2 0x32A DUP2 PUSH2 0x3C9 JUMP JUMPDEST DUP3 MSTORE POP POP JUMP JUMPDEST PUSH1 0x0 PUSH2 0x33D PUSH1 0x12 DUP4 PUSH2 0x3B8 JUMP JUMPDEST SWAP2 POP PUSH2 0x348 DUP3 PUSH2 0x3F8 JUMP JUMPDEST PUSH1 0x20 DUP3 ADD SWAP1 POP SWAP2 SWAP1 POP JUMP JUMPDEST PUSH2 0x35C DUP2 PUSH2 0x3D3 JUMP JUMPDEST DUP3 MSTORE POP POP JUMP JUMPDEST PUSH1 0x0 PUSH1 0x20 DUP3 ADD SWAP1 POP PUSH2 0x377 PUSH1 0x0 DUP4 ADD DUP5 PUSH2 0x321 JUMP JUMPDEST SWAP3 SWAP2 POP POP JUMP JUMPDEST PUSH1 0x0 PUSH1 0x20 DUP3 ADD SWAP1 POP DUP2 DUP2 SUB PUSH1 0x0 DUP4 ADD MSTORE PUSH2 0x396 DUP2 PUSH2 0x330 JUMP JUMPDEST SWAP1 POP SWAP2 SWAP1 POP JUMP JUMPDEST PUSH1 0x0 PUSH1 0x20 DUP3 ADD SWAP1 POP PUSH2 0x3B2 PUSH1 0x0 DUP4 ADD DUP5 PUSH2 0x353 JUMP JUMPDEST SWAP3 SWAP2 POP POP JUMP JUMPDEST PUSH1 0x0 DUP3 DUP3 MSTORE PUSH1 0x20 DUP3 ADD SWAP1 POP SWAP3 SWAP2 POP POP JUMP JUMPDEST PUSH1 0x0 DUP2 SWAP1 POP SWAP2 SWAP1 POP JUMP JUMPDEST PUSH1 0x0 DUP2 SWAP1 POP SWAP2 SWAP1 POP JUMP JUMPDEST PUSH1 0x0 PUSH10 0xFFFFFFFFFFFFFFFFFFFF DUP3 AND SWAP1 POP SWAP2 SWAP1 POP JUMP JUMPDEST PUSH1 0x0 DUP1 REVERT JUMPDEST PUSH32 0x4469646E27742073656E6420656E6F7567680000000000000000000000000000 PUSH1 0x0 DUP3 ADD MSTORE POP JUMP JUMPDEST PUSH2 0x42A DUP2 PUSH2 0x3C9 JUMP JUMPDEST DUP2 EQ PUSH2 0x435 JUMPI PUSH1 0x0 DUP1 REVERT JUMPDEST POP JUMP JUMPDEST PUSH2 0x441 DUP2 PUSH2 0x3D3 JUMP JUMPDEST DUP2 EQ PUSH2 0x44C JUMPI PUSH1 0x0 DUP1 REVERT JUMPDEST POP JUMP JUMPDEST PUSH2 0x458 DUP2 PUSH2 0x3DD JUMP JUMPDEST DUP2 EQ PUSH2 0x463 JUMPI PUSH1 0x0 DUP1 REVERT JUMPDEST POP JUMP INVALID LOG2 PUSH5 0x6970667358 0x22 SLT KECCAK256 MSTORE 0x5C 0xBC 0xD5 LOG0 PUSH22 0x5B4BA5EF5CDE159FEA2D3434DE162DCB287F1F11F8EE COINBASE SWAP9 PUSH31 0x7F64736F6C6343000807003300000000000000000000000000000000000000 "
				},
				"gasEstimates": {
					"creation": {
						"codeDepositCost": "236000",
						"executionCost": "24542",
						"totalCost": "260542"
					},
					"external": {
						"fund()": "456",
						"getPrice()": "infinite",
						"getVersion()": "infinite"
					}
				},
				"methodIdentifiers": {
					"fund()": "b60d4288",
					"getPrice()": "98d5fdca",
					"getVersion()": "0d8e6e2c"
				}
			},
			"storageLayout": {
				"storage": [
					{
						"astId": 54,
						"contract": "Contracts/FundMe.sol:FundMe",
						"label": "aggregatorV3Interface",
						"offset": 0,
						"slot": "0",
						"type": "t_contract(AggregatorV3Interface)45"
					}
				],
				"types": {
					"t_contract(AggregatorV3Interface)45": {
						"encoding": "inplace",
						"label": "contract AggregatorV3Interface",
						"numberOfBytes": "20"
					}
				}
			},
			"userdoc": {
				"kind": "user",
				"methods": {},
				"version": 1
			}
		}
	}
}