{
	"Contracts/SimpleStorage.sol": {
		"SimpleStorage": {
			"abi": [
				{
					"inputs": [
						{
							"internalType": "string",
							"name": "_name",
							"type": "string"
						},
						{
							"internalType": "uint256",
							"name": "_rollNo",
							"type": "uint256"
						}
					],
					"name": "addStudent",
					"outputs": [],
					"stateMutability": "nonpayable",
					"type": "function"
				},
				{
					"inputs": [],
					"name": "retrieve",
					"outputs": [
						{
							"internalType": "uint256",
							"name": "",
							"type": "uint256"
						}
					],
					"stateMutability": "view",
					"type": "function"
				},
				{
					"inputs": [
						{
							"internalType": "uint256",
							"name": "",
							"type": "uint256"
						}
					],
					"name": "rollNoToNameMap",
					"outputs": [
						{
							"internalType": "string",
							"name": "",
							"type": "string"
						}
					],
					"stateMutability": "view",
					"type": "function"
				},
				{
					"inputs": [
						{
							"internalType": "uint256",
							"name": "_favouriteNumber",
							"type": "uint256"
						}
					],
					"name": "store",
					"outputs": [],
					"stateMutability": "nonpayable",
					"type": "function"
				},
				{
					"inputs": [
						{
							"internalType": "uint256",
							"name": "",
							"type": "uint256"
						}
					],
					"name": "students",
					"outputs": [
						{
							"internalType": "uint256",
							"name": "rollNo",
							"type": "uint256"
						},
						{
							"internalType": "string",
							"name": "name",
							"type": "string"
						}
					],
					"stateMutability": "view",
					"type": "function"
				}
			],
			"devdoc": {
				"kind": "dev",
				"methods": {},
				"version": 1
			},
			"evm": {
				"assembly": "    /* \"Contracts/SimpleStorage.sol\":62:634  contract SimpleStorage{\r... */\n  mstore(0x40, 0x80)\n  callvalue\n  dup1\n  iszero\n  tag_1\n  jumpi\n  0x00\n  dup1\n  revert\ntag_1:\n  pop\n  dataSize(sub_0)\n  dup1\n  dataOffset(sub_0)\n  0x00\n  codecopy\n  0x00\n  return\nstop\n\nsub_0: assembly {\n        /* \"Contracts/SimpleStorage.sol\":62:634  contract SimpleStorage{\r... */\n      mstore(0x40, 0x80)\n      callvalue\n      dup1\n      iszero\n      tag_1\n      jumpi\n      0x00\n      dup1\n      revert\n    tag_1:\n      pop\n      jumpi(tag_2, lt(calldatasize, 0x04))\n      shr(0xe0, calldataload(0x00))\n      dup1\n      0x06ead22e\n      eq\n      tag_3\n      jumpi\n      dup1\n      0x0e5eeef7\n      eq\n      tag_4\n      jumpi\n      dup1\n      0x2e64cec1\n      eq\n      tag_5\n      jumpi\n      dup1\n      0x5457b83f\n      eq\n      tag_6\n      jumpi\n      dup1\n      0x6057361d\n      eq\n      tag_7\n      jumpi\n    tag_2:\n      0x00\n      dup1\n      revert\n        /* \"Contracts/SimpleStorage.sol\":202:227  Student[] public students */\n    tag_3:\n      tag_8\n      0x04\n      dup1\n      calldatasize\n      sub\n      dup2\n      add\n      swap1\n      tag_9\n      swap2\n      swap1\n      tag_10\n      jump\t// in\n    tag_9:\n      tag_11\n      jump\t// in\n    tag_8:\n      mload(0x40)\n      tag_12\n      swap3\n      swap2\n      swap1\n      tag_13\n      jump\t// in\n    tag_12:\n      mload(0x40)\n      dup1\n      swap2\n      sub\n      swap1\n      return\n        /* \"Contracts/SimpleStorage.sol\":292:423  function addStudent(string memory _name, uint256 _rollNo) public{\r... */\n    tag_4:\n      tag_14\n      0x04\n      dup1\n      calldatasize\n      sub\n      dup2\n      add\n      swap1\n      tag_15\n      swap2\n      swap1\n      tag_16\n      jump\t// in\n    tag_15:\n      tag_17\n      jump\t// in\n    tag_14:\n      stop\n        /* \"Contracts/SimpleStorage.sol\":540:629  function retrieve() public view returns(uint256){\r... */\n    tag_5:\n      tag_18\n      tag_19\n      jump\t// in\n    tag_18:\n      mload(0x40)\n      tag_20\n      swap2\n      swap1\n      tag_21\n      jump\t// in\n    tag_20:\n      mload(0x40)\n      dup1\n      swap2\n      sub\n      swap1\n      return\n        /* \"Contracts/SimpleStorage.sol\":234:283  mapping(uint256 => string) public rollNoToNameMap */\n    tag_6:\n      tag_22\n      0x04\n      dup1\n      calldatasize\n      sub\n      dup2\n      add\n      swap1\n      tag_23\n      swap2\n      swap1\n      tag_10\n      jump\t// in\n    tag_23:\n      tag_24\n      jump\t// in\n    tag_22:\n      mload(0x40)\n      tag_25\n      swap2\n      swap1\n      tag_26\n      jump\t// in\n    tag_25:\n      mload(0x40)\n      dup1\n      swap2\n      sub\n      swap1\n      return\n        /* \"Contracts/SimpleStorage.sol\":431:532  function store(uint256 _favouriteNumber) public {\r... */\n    tag_7:\n      tag_27\n      0x04\n      dup1\n      calldatasize\n      sub\n      dup2\n      add\n      swap1\n      tag_28\n      swap2\n      swap1\n      tag_10\n      jump\t// in\n    tag_28:\n      tag_29\n      jump\t// in\n    tag_27:\n      stop\n        /* \"Contracts/SimpleStorage.sol\":202:227  Student[] public students */\n    tag_11:\n      0x01\n      dup2\n      dup2\n      sload\n      dup2\n      lt\n      tag_30\n      jumpi\n      0x00\n      dup1\n      revert\n    tag_30:\n      swap1\n      0x00\n      mstore\n      keccak256(0x00, 0x20)\n      swap1\n      0x02\n      mul\n      add\n      0x00\n      swap2\n      pop\n      swap1\n      pop\n      dup1\n      0x00\n      add\n      sload\n      swap1\n      dup1\n      0x01\n      add\n      dup1\n      sload\n      tag_32\n      swap1\n      tag_33\n      jump\t// in\n    tag_32:\n      dup1\n      0x1f\n      add\n      0x20\n      dup1\n      swap2\n      div\n      mul\n      0x20\n      add\n      mload(0x40)\n      swap1\n      dup2\n      add\n      0x40\n      mstore\n      dup1\n      swap3\n      swap2\n      swap1\n      dup2\n      dup2\n      mstore\n      0x20\n      add\n      dup3\n      dup1\n      sload\n      tag_34\n      swap1\n      tag_33\n      jump\t// in\n    tag_34:\n      dup1\n      iszero\n      tag_35\n      jumpi\n      dup1\n      0x1f\n      lt\n      tag_36\n      jumpi\n      0x0100\n      dup1\n      dup4\n      sload\n      div\n      mul\n      dup4\n      mstore\n      swap2\n      0x20\n      add\n      swap2\n      jump(tag_35)\n    tag_36:\n      dup3\n      add\n      swap2\n      swap1\n      0x00\n      mstore\n      keccak256(0x00, 0x20)\n      swap1\n    tag_37:\n      dup2\n      sload\n      dup2\n      mstore\n      swap1\n      0x01\n      add\n      swap1\n      0x20\n      add\n      dup1\n      dup4\n      gt\n      tag_37\n      jumpi\n      dup3\n      swap1\n      sub\n      0x1f\n      and\n      dup3\n      add\n      swap2\n    tag_35:\n      pop\n      pop\n      pop\n      pop\n      pop\n      swap1\n      pop\n      dup3\n      jump\t// out\n        /* \"Contracts/SimpleStorage.sol\":292:423  function addStudent(string memory _name, uint256 _rollNo) public{\r... */\n    tag_17:\n        /* \"Contracts/SimpleStorage.sol\":367:375  students */\n      0x01\n        /* \"Contracts/SimpleStorage.sol\":381:404  Student(_rollNo, _name) */\n      mload(0x40)\n      dup1\n      0x40\n      add\n      0x40\n      mstore\n      dup1\n        /* \"Contracts/SimpleStorage.sol\":389:396  _rollNo */\n      dup4\n        /* \"Contracts/SimpleStorage.sol\":381:404  Student(_rollNo, _name) */\n      dup2\n      mstore\n      0x20\n      add\n        /* \"Contracts/SimpleStorage.sol\":398:403  _name */\n      dup5\n        /* \"Contracts/SimpleStorage.sol\":381:404  Student(_rollNo, _name) */\n      dup2\n      mstore\n      pop\n        /* \"Contracts/SimpleStorage.sol\":367:405  students.push(Student(_rollNo, _name)) */\n      swap1\n      dup1\n      0x01\n      dup2\n      sload\n      add\n      dup1\n      dup3\n      sstore\n      dup1\n      swap2\n      pop\n      pop\n      0x01\n      swap1\n      sub\n      swap1\n      0x00\n      mstore\n      keccak256(0x00, 0x20)\n      swap1\n      0x02\n      mul\n      add\n      0x00\n      swap1\n      swap2\n      swap1\n      swap2\n      swap1\n      swap2\n      pop\n      0x00\n      dup3\n      add\n      mload\n      dup2\n      0x00\n      add\n      sstore\n      0x20\n      dup3\n      add\n      mload\n      dup2\n      0x01\n      add\n      swap1\n      dup1\n      mload\n      swap1\n      0x20\n      add\n      swap1\n      tag_40\n      swap3\n      swap2\n      swap1\n      tag_41\n      jump\t// in\n    tag_40:\n      pop\n      pop\n      pop\n        /* \"Contracts/SimpleStorage.sol\":292:423  function addStudent(string memory _name, uint256 _rollNo) public{\r... */\n      pop\n      pop\n      jump\t// out\n        /* \"Contracts/SimpleStorage.sol\":540:629  function retrieve() public view returns(uint256){\r... */\n    tag_19:\n        /* \"Contracts/SimpleStorage.sol\":580:587  uint256 */\n      0x00\n        /* \"Contracts/SimpleStorage.sol\":606:621  favouriteNumber */\n      dup1\n      sload\n        /* \"Contracts/SimpleStorage.sol\":599:621  return favouriteNumber */\n      swap1\n      pop\n        /* \"Contracts/SimpleStorage.sol\":540:629  function retrieve() public view returns(uint256){\r... */\n      swap1\n      jump\t// out\n        /* \"Contracts/SimpleStorage.sol\":234:283  mapping(uint256 => string) public rollNoToNameMap */\n    tag_24:\n      mstore(0x20, 0x02)\n      dup1\n      0x00\n      mstore\n      keccak256(0x00, 0x40)\n      0x00\n      swap2\n      pop\n      swap1\n      pop\n      dup1\n      sload\n      tag_43\n      swap1\n      tag_33\n      jump\t// in\n    tag_43:\n      dup1\n      0x1f\n      add\n      0x20\n      dup1\n      swap2\n      div\n      mul\n      0x20\n      add\n      mload(0x40)\n      swap1\n      dup2\n      add\n      0x40\n      mstore\n      dup1\n      swap3\n      swap2\n      swap1\n      dup2\n      dup2\n      mstore\n      0x20\n      add\n      dup3\n      dup1\n      sload\n      tag_44\n      swap1\n      tag_33\n      jump\t// in\n    tag_44:\n      dup1\n      iszero\n      tag_45\n      jumpi\n      dup1\n      0x1f\n      lt\n      tag_46\n      jumpi\n      0x0100\n      dup1\n      dup4\n      sload\n      div\n      mul\n      dup4\n      mstore\n      swap2\n      0x20\n      add\n      swap2\n      jump(tag_45)\n    tag_46:\n      dup3\n      add\n      swap2\n      swap1\n      0x00\n      mstore\n      keccak256(0x00, 0x20)\n      swap1\n    tag_47:\n      dup2\n      sload\n      dup2\n      mstore\n      swap1\n      0x01\n      add\n      swap1\n      0x20\n      add\n      dup1\n      dup4\n      gt\n      tag_47\n      jumpi\n      dup3\n      swap1\n      sub\n      0x1f\n      and\n      dup3\n      add\n      swap2\n    tag_45:\n      pop\n      pop\n      pop\n      pop\n      pop\n      dup2\n      jump\t// out\n        /* \"Contracts/SimpleStorage.sol\":431:532  function store(uint256 _favouriteNumber) public {\r... */\n    tag_29:\n        /* \"Contracts/SimpleStorage.sol\":508:524  _favouriteNumber */\n      dup1\n        /* \"Contracts/SimpleStorage.sol\":490:505  favouriteNumber */\n      0x00\n        /* \"Contracts/SimpleStorage.sol\":490:524  favouriteNumber = _favouriteNumber */\n      dup2\n      swap1\n      sstore\n      pop\n        /* \"Contracts/SimpleStorage.sol\":431:532  function store(uint256 _favouriteNumber) public {\r... */\n      pop\n      jump\t// out\n    tag_41:\n      dup3\n      dup1\n      sload\n      tag_49\n      swap1\n      tag_33\n      jump\t// in\n    tag_49:\n      swap1\n      0x00\n      mstore\n      keccak256(0x00, 0x20)\n      swap1\n      0x1f\n      add\n      0x20\n      swap1\n      div\n      dup2\n      add\n      swap3\n      dup3\n      tag_51\n      jumpi\n      0x00\n      dup6\n      sstore\n      jump(tag_50)\n    tag_51:\n      dup3\n      0x1f\n      lt\n      tag_52\n      jumpi\n      dup1\n      mload\n      not(0xff)\n      and\n      dup4\n      dup1\n      add\n      or\n      dup6\n      sstore\n      jump(tag_50)\n    tag_52:\n      dup3\n      dup1\n      add\n      0x01\n      add\n      dup6\n      sstore\n      dup3\n      iszero\n      tag_50\n      jumpi\n      swap2\n      dup3\n      add\n    tag_53:\n      dup3\n      dup2\n      gt\n      iszero\n      tag_54\n      jumpi\n      dup3\n      mload\n      dup3\n      sstore\n      swap2\n      0x20\n      add\n      swap2\n      swap1\n      0x01\n      add\n      swap1\n      jump(tag_53)\n    tag_54:\n    tag_50:\n      pop\n      swap1\n      pop\n      tag_55\n      swap2\n      swap1\n      tag_56\n      jump\t// in\n    tag_55:\n      pop\n      swap1\n      jump\t// out\n    tag_56:\n    tag_57:\n      dup1\n      dup3\n      gt\n      iszero\n      tag_58\n      jumpi\n      0x00\n      dup2\n      0x00\n      swap1\n      sstore\n      pop\n      0x01\n      add\n      jump(tag_57)\n    tag_58:\n      pop\n      swap1\n      jump\t// out\n        /* \"#utility.yul\":7:419   */\n    tag_60:\n        /* \"#utility.yul\":85:90   */\n      0x00\n        /* \"#utility.yul\":110:176   */\n      tag_62\n        /* \"#utility.yul\":126:175   */\n      tag_63\n        /* \"#utility.yul\":168:174   */\n      dup5\n        /* \"#utility.yul\":126:175   */\n      tag_64\n      jump\t// in\n    tag_63:\n        /* \"#utility.yul\":110:176   */\n      tag_65\n      jump\t// in\n    tag_62:\n        /* \"#utility.yul\":101:176   */\n      swap1\n      pop\n        /* \"#utility.yul\":199:205   */\n      dup3\n        /* \"#utility.yul\":192:197   */\n      dup2\n        /* \"#utility.yul\":185:206   */\n      mstore\n        /* \"#utility.yul\":237:241   */\n      0x20\n        /* \"#utility.yul\":230:235   */\n      dup2\n        /* \"#utility.yul\":226:242   */\n      add\n        /* \"#utility.yul\":275:278   */\n      dup5\n        /* \"#utility.yul\":266:272   */\n      dup5\n        /* \"#utility.yul\":261:264   */\n      dup5\n        /* \"#utility.yul\":257:273   */\n      add\n        /* \"#utility.yul\":254:279   */\n      gt\n        /* \"#utility.yul\":251:363   */\n      iszero\n      tag_66\n      jumpi\n        /* \"#utility.yul\":282:361   */\n      tag_67\n      tag_68\n      jump\t// in\n    tag_67:\n        /* \"#utility.yul\":251:363   */\n    tag_66:\n        /* \"#utility.yul\":372:413   */\n      tag_69\n        /* \"#utility.yul\":406:412   */\n      dup5\n        /* \"#utility.yul\":401:404   */\n      dup3\n        /* \"#utility.yul\":396:399   */\n      dup6\n        /* \"#utility.yul\":372:413   */\n      tag_70\n      jump\t// in\n    tag_69:\n        /* \"#utility.yul\":91:419   */\n      pop\n        /* \"#utility.yul\":7:419   */\n      swap4\n      swap3\n      pop\n      pop\n      pop\n      jump\t// out\n        /* \"#utility.yul\":439:779   */\n    tag_71:\n        /* \"#utility.yul\":495:500   */\n      0x00\n        /* \"#utility.yul\":544:547   */\n      dup3\n        /* \"#utility.yul\":537:541   */\n      0x1f\n        /* \"#utility.yul\":529:535   */\n      dup4\n        /* \"#utility.yul\":525:542   */\n      add\n        /* \"#utility.yul\":521:548   */\n      slt\n        /* \"#utility.yul\":511:633   */\n      tag_73\n      jumpi\n        /* \"#utility.yul\":552:631   */\n      tag_74\n      tag_75\n      jump\t// in\n    tag_74:\n        /* \"#utility.yul\":511:633   */\n    tag_73:\n        /* \"#utility.yul\":669:675   */\n      dup2\n        /* \"#utility.yul\":656:676   */\n      calldataload\n        /* \"#utility.yul\":694:773   */\n      tag_76\n        /* \"#utility.yul\":769:772   */\n      dup5\n        /* \"#utility.yul\":761:767   */\n      dup3\n        /* \"#utility.yul\":754:758   */\n      0x20\n        /* \"#utility.yul\":746:752   */\n      dup7\n        /* \"#utility.yul\":742:759   */\n      add\n        /* \"#utility.yul\":694:773   */\n      tag_60\n      jump\t// in\n    tag_76:\n        /* \"#utility.yul\":685:773   */\n      swap2\n      pop\n        /* \"#utility.yul\":501:779   */\n      pop\n        /* \"#utility.yul\":439:779   */\n      swap3\n      swap2\n      pop\n      pop\n      jump\t// out\n        /* \"#utility.yul\":785:924   */\n    tag_77:\n        /* \"#utility.yul\":831:836   */\n      0x00\n        /* \"#utility.yul\":869:875   */\n      dup2\n        /* \"#utility.yul\":856:876   */\n      calldataload\n        /* \"#utility.yul\":847:876   */\n      swap1\n      pop\n        /* \"#utility.yul\":885:918   */\n      tag_79\n        /* \"#utility.yul\":912:917   */\n      dup2\n        /* \"#utility.yul\":885:918   */\n      tag_80\n      jump\t// in\n    tag_79:\n        /* \"#utility.yul\":785:924   */\n      swap3\n      swap2\n      pop\n      pop\n      jump\t// out\n        /* \"#utility.yul\":930:1584   */\n    tag_16:\n        /* \"#utility.yul\":1008:1014   */\n      0x00\n        /* \"#utility.yul\":1016:1022   */\n      dup1\n        /* \"#utility.yul\":1065:1067   */\n      0x40\n        /* \"#utility.yul\":1053:1062   */\n      dup4\n        /* \"#utility.yul\":1044:1051   */\n      dup6\n        /* \"#utility.yul\":1040:1063   */\n      sub\n        /* \"#utility.yul\":1036:1068   */\n      slt\n        /* \"#utility.yul\":1033:1152   */\n      iszero\n      tag_82\n      jumpi\n        /* \"#utility.yul\":1071:1150   */\n      tag_83\n      tag_84\n      jump\t// in\n    tag_83:\n        /* \"#utility.yul\":1033:1152   */\n    tag_82:\n        /* \"#utility.yul\":1219:1220   */\n      0x00\n        /* \"#utility.yul\":1208:1217   */\n      dup4\n        /* \"#utility.yul\":1204:1221   */\n      add\n        /* \"#utility.yul\":1191:1222   */\n      calldataload\n        /* \"#utility.yul\":1249:1267   */\n      0xffffffffffffffff\n        /* \"#utility.yul\":1241:1247   */\n      dup2\n        /* \"#utility.yul\":1238:1268   */\n      gt\n        /* \"#utility.yul\":1235:1352   */\n      iszero\n      tag_85\n      jumpi\n        /* \"#utility.yul\":1271:1350   */\n      tag_86\n      tag_87\n      jump\t// in\n    tag_86:\n        /* \"#utility.yul\":1235:1352   */\n    tag_85:\n        /* \"#utility.yul\":1376:1439   */\n      tag_88\n        /* \"#utility.yul\":1431:1438   */\n      dup6\n        /* \"#utility.yul\":1422:1428   */\n      dup3\n        /* \"#utility.yul\":1411:1420   */\n      dup7\n        /* \"#utility.yul\":1407:1429   */\n      add\n        /* \"#utility.yul\":1376:1439   */\n      tag_71\n      jump\t// in\n    tag_88:\n        /* \"#utility.yul\":1366:1439   */\n      swap3\n      pop\n        /* \"#utility.yul\":1162:1449   */\n      pop\n        /* \"#utility.yul\":1488:1490   */\n      0x20\n        /* \"#utility.yul\":1514:1567   */\n      tag_89\n        /* \"#utility.yul\":1559:1566   */\n      dup6\n        /* \"#utility.yul\":1550:1556   */\n      dup3\n        /* \"#utility.yul\":1539:1548   */\n      dup7\n        /* \"#utility.yul\":1535:1557   */\n      add\n        /* \"#utility.yul\":1514:1567   */\n      tag_77\n      jump\t// in\n    tag_89:\n        /* \"#utility.yul\":1504:1567   */\n      swap2\n      pop\n        /* \"#utility.yul\":1459:1577   */\n      pop\n        /* \"#utility.yul\":930:1584   */\n      swap3\n      pop\n      swap3\n      swap1\n      pop\n      jump\t// out\n        /* \"#utility.yul\":1590:1919   */\n    tag_10:\n        /* \"#utility.yul\":1649:1655   */\n      0x00\n        /* \"#utility.yul\":1698:1700   */\n      0x20\n        /* \"#utility.yul\":1686:1695   */\n      dup3\n        /* \"#utility.yul\":1677:1684   */\n      dup5\n        /* \"#utility.yul\":1673:1696   */\n      sub\n        /* \"#utility.yul\":1669:1701   */\n      slt\n        /* \"#utility.yul\":1666:1785   */\n      iszero\n      tag_91\n      jumpi\n        /* \"#utility.yul\":1704:1783   */\n      tag_92\n      tag_84\n      jump\t// in\n    tag_92:\n        /* \"#utility.yul\":1666:1785   */\n    tag_91:\n        /* \"#utility.yul\":1824:1825   */\n      0x00\n        /* \"#utility.yul\":1849:1902   */\n      tag_93\n        /* \"#utility.yul\":1894:1901   */\n      dup5\n        /* \"#utility.yul\":1885:1891   */\n      dup3\n        /* \"#utility.yul\":1874:1883   */\n      dup6\n        /* \"#utility.yul\":1870:1892   */\n      add\n        /* \"#utility.yul\":1849:1902   */\n      tag_77\n      jump\t// in\n    tag_93:\n        /* \"#utility.yul\":1839:1902   */\n      swap2\n      pop\n        /* \"#utility.yul\":1795:1912   */\n      pop\n        /* \"#utility.yul\":1590:1919   */\n      swap3\n      swap2\n      pop\n      pop\n      jump\t// out\n        /* \"#utility.yul\":1925:2289   */\n    tag_94:\n        /* \"#utility.yul\":2013:2016   */\n      0x00\n        /* \"#utility.yul\":2041:2080   */\n      tag_96\n        /* \"#utility.yul\":2074:2079   */\n      dup3\n        /* \"#utility.yul\":2041:2080   */\n      tag_97\n      jump\t// in\n    tag_96:\n        /* \"#utility.yul\":2096:2167   */\n      tag_98\n        /* \"#utility.yul\":2160:2166   */\n      dup2\n        /* \"#utility.yul\":2155:2158   */\n      dup6\n        /* \"#utility.yul\":2096:2167   */\n      tag_99\n      jump\t// in\n    tag_98:\n        /* \"#utility.yul\":2089:2167   */\n      swap4\n      pop\n        /* \"#utility.yul\":2176:2228   */\n      tag_100\n        /* \"#utility.yul\":2221:2227   */\n      dup2\n        /* \"#utility.yul\":2216:2219   */\n      dup6\n        /* \"#utility.yul\":2209:2213   */\n      0x20\n        /* \"#utility.yul\":2202:2207   */\n      dup7\n        /* \"#utility.yul\":2198:2214   */\n      add\n        /* \"#utility.yul\":2176:2228   */\n      tag_101\n      jump\t// in\n    tag_100:\n        /* \"#utility.yul\":2253:2282   */\n      tag_102\n        /* \"#utility.yul\":2275:2281   */\n      dup2\n        /* \"#utility.yul\":2253:2282   */\n      tag_103\n      jump\t// in\n    tag_102:\n        /* \"#utility.yul\":2248:2251   */\n      dup5\n        /* \"#utility.yul\":2244:2283   */\n      add\n        /* \"#utility.yul\":2237:2283   */\n      swap2\n      pop\n        /* \"#utility.yul\":2017:2289   */\n      pop\n        /* \"#utility.yul\":1925:2289   */\n      swap3\n      swap2\n      pop\n      pop\n      jump\t// out\n        /* \"#utility.yul\":2295:2413   */\n    tag_104:\n        /* \"#utility.yul\":2382:2406   */\n      tag_106\n        /* \"#utility.yul\":2400:2405   */\n      dup2\n        /* \"#utility.yul\":2382:2406   */\n      tag_107\n      jump\t// in\n    tag_106:\n        /* \"#utility.yul\":2377:2380   */\n      dup3\n        /* \"#utility.yul\":2370:2407   */\n      mstore\n        /* \"#utility.yul\":2295:2413   */\n      pop\n      pop\n      jump\t// out\n        /* \"#utility.yul\":2419:2732   */\n    tag_26:\n        /* \"#utility.yul\":2532:2536   */\n      0x00\n        /* \"#utility.yul\":2570:2572   */\n      0x20\n        /* \"#utility.yul\":2559:2568   */\n      dup3\n        /* \"#utility.yul\":2555:2573   */\n      add\n        /* \"#utility.yul\":2547:2573   */\n      swap1\n      pop\n        /* \"#utility.yul\":2619:2628   */\n      dup2\n        /* \"#utility.yul\":2613:2617   */\n      dup2\n        /* \"#utility.yul\":2609:2629   */\n      sub\n        /* \"#utility.yul\":2605:2606   */\n      0x00\n        /* \"#utility.yul\":2594:2603   */\n      dup4\n        /* \"#utility.yul\":2590:2607   */\n      add\n        /* \"#utility.yul\":2583:2630   */\n      mstore\n        /* \"#utility.yul\":2647:2725   */\n      tag_109\n        /* \"#utility.yul\":2720:2724   */\n      dup2\n        /* \"#utility.yul\":2711:2717   */\n      dup5\n        /* \"#utility.yul\":2647:2725   */\n      tag_94\n      jump\t// in\n    tag_109:\n        /* \"#utility.yul\":2639:2725   */\n      swap1\n      pop\n        /* \"#utility.yul\":2419:2732   */\n      swap3\n      swap2\n      pop\n      pop\n      jump\t// out\n        /* \"#utility.yul\":2738:2960   */\n    tag_21:\n        /* \"#utility.yul\":2831:2835   */\n      0x00\n        /* \"#utility.yul\":2869:2871   */\n      0x20\n        /* \"#utility.yul\":2858:2867   */\n      dup3\n        /* \"#utility.yul\":2854:2872   */\n      add\n        /* \"#utility.yul\":2846:2872   */\n      swap1\n      pop\n        /* \"#utility.yul\":2882:2953   */\n      tag_111\n        /* \"#utility.yul\":2950:2951   */\n      0x00\n        /* \"#utility.yul\":2939:2948   */\n      dup4\n        /* \"#utility.yul\":2935:2952   */\n      add\n        /* \"#utility.yul\":2926:2932   */\n      dup5\n        /* \"#utility.yul\":2882:2953   */\n      tag_104\n      jump\t// in\n    tag_111:\n        /* \"#utility.yul\":2738:2960   */\n      swap3\n      swap2\n      pop\n      pop\n      jump\t// out\n        /* \"#utility.yul\":2966:3389   */\n    tag_13:\n        /* \"#utility.yul\":3107:3111   */\n      0x00\n        /* \"#utility.yul\":3145:3147   */\n      0x40\n        /* \"#utility.yul\":3134:3143   */\n      dup3\n        /* \"#utility.yul\":3130:3148   */\n      add\n        /* \"#utility.yul\":3122:3148   */\n      swap1\n      pop\n        /* \"#utility.yul\":3158:3229   */\n      tag_113\n        /* \"#utility.yul\":3226:3227   */\n      0x00\n        /* \"#utility.yul\":3215:3224   */\n      dup4\n        /* \"#utility.yul\":3211:3228   */\n      add\n        /* \"#utility.yul\":3202:3208   */\n      dup6\n        /* \"#utility.yul\":3158:3229   */\n      tag_104\n      jump\t// in\n    tag_113:\n        /* \"#utility.yul\":3276:3285   */\n      dup2\n        /* \"#utility.yul\":3270:3274   */\n      dup2\n        /* \"#utility.yul\":3266:3286   */\n      sub\n        /* \"#utility.yul\":3261:3263   */\n      0x20\n        /* \"#utility.yul\":3250:3259   */\n      dup4\n        /* \"#utility.yul\":3246:3264   */\n      add\n        /* \"#utility.yul\":3239:3287   */\n      mstore\n        /* \"#utility.yul\":3304:3382   */\n      tag_114\n        /* \"#utility.yul\":3377:3381   */\n      dup2\n        /* \"#utility.yul\":3368:3374   */\n      dup5\n        /* \"#utility.yul\":3304:3382   */\n      tag_94\n      jump\t// in\n    tag_114:\n        /* \"#utility.yul\":3296:3382   */\n      swap1\n      pop\n        /* \"#utility.yul\":2966:3389   */\n      swap4\n      swap3\n      pop\n      pop\n      pop\n      jump\t// out\n        /* \"#utility.yul\":3395:3524   */\n    tag_65:\n        /* \"#utility.yul\":3429:3435   */\n      0x00\n        /* \"#utility.yul\":3456:3476   */\n      tag_116\n      tag_117\n      jump\t// in\n    tag_116:\n        /* \"#utility.yul\":3446:3476   */\n      swap1\n      pop\n        /* \"#utility.yul\":3485:3518   */\n      tag_118\n        /* \"#utility.yul\":3513:3517   */\n      dup3\n        /* \"#utility.yul\":3505:3511   */\n      dup3\n        /* \"#utility.yul\":3485:3518   */\n      tag_119\n      jump\t// in\n    tag_118:\n        /* \"#utility.yul\":3395:3524   */\n      swap2\n      swap1\n      pop\n      jump\t// out\n        /* \"#utility.yul\":3530:3605   */\n    tag_117:\n        /* \"#utility.yul\":3563:3569   */\n      0x00\n        /* \"#utility.yul\":3596:3598   */\n      0x40\n        /* \"#utility.yul\":3590:3599   */\n      mload\n        /* \"#utility.yul\":3580:3599   */\n      swap1\n      pop\n        /* \"#utility.yul\":3530:3605   */\n      swap1\n      jump\t// out\n        /* \"#utility.yul\":3611:3919   */\n    tag_64:\n        /* \"#utility.yul\":3673:3677   */\n      0x00\n        /* \"#utility.yul\":3763:3781   */\n      0xffffffffffffffff\n        /* \"#utility.yul\":3755:3761   */\n      dup3\n        /* \"#utility.yul\":3752:3782   */\n      gt\n        /* \"#utility.yul\":3749:3805   */\n      iszero\n      tag_122\n      jumpi\n        /* \"#utility.yul\":3785:3803   */\n      tag_123\n      tag_124\n      jump\t// in\n    tag_123:\n        /* \"#utility.yul\":3749:3805   */\n    tag_122:\n        /* \"#utility.yul\":3823:3852   */\n      tag_125\n        /* \"#utility.yul\":3845:3851   */\n      dup3\n        /* \"#utility.yul\":3823:3852   */\n      tag_103\n      jump\t// in\n    tag_125:\n        /* \"#utility.yul\":3815:3852   */\n      swap1\n      pop\n        /* \"#utility.yul\":3907:3911   */\n      0x20\n        /* \"#utility.yul\":3901:3905   */\n      dup2\n        /* \"#utility.yul\":3897:3912   */\n      add\n        /* \"#utility.yul\":3889:3912   */\n      swap1\n      pop\n        /* \"#utility.yul\":3611:3919   */\n      swap2\n      swap1\n      pop\n      jump\t// out\n        /* \"#utility.yul\":3925:4024   */\n    tag_97:\n        /* \"#utility.yul\":3977:3983   */\n      0x00\n        /* \"#utility.yul\":4011:4016   */\n      dup2\n        /* \"#utility.yul\":4005:4017   */\n      mload\n        /* \"#utility.yul\":3995:4017   */\n      swap1\n      pop\n        /* \"#utility.yul\":3925:4024   */\n      swap2\n      swap1\n      pop\n      jump\t// out\n        /* \"#utility.yul\":4030:4199   */\n    tag_99:\n        /* \"#utility.yul\":4114:4125   */\n      0x00\n        /* \"#utility.yul\":4148:4154   */\n      dup3\n        /* \"#utility.yul\":4143:4146   */\n      dup3\n        /* \"#utility.yul\":4136:4155   */\n      mstore\n        /* \"#utility.yul\":4188:4192   */\n      0x20\n        /* \"#utility.yul\":4183:4186   */\n      dup3\n        /* \"#utility.yul\":4179:4193   */\n      add\n        /* \"#utility.yul\":4164:4193   */\n      swap1\n      pop\n        /* \"#utility.yul\":4030:4199   */\n      swap3\n      swap2\n      pop\n      pop\n      jump\t// out\n        /* \"#utility.yul\":4205:4282   */\n    tag_107:\n        /* \"#utility.yul\":4242:4249   */\n      0x00\n        /* \"#utility.yul\":4271:4276   */\n      dup2\n        /* \"#utility.yul\":4260:4276   */\n      swap1\n      pop\n        /* \"#utility.yul\":4205:4282   */\n      swap2\n      swap1\n      pop\n      jump\t// out\n        /* \"#utility.yul\":4288:4442   */\n    tag_70:\n        /* \"#utility.yul\":4372:4378   */\n      dup3\n        /* \"#utility.yul\":4367:4370   */\n      dup2\n        /* \"#utility.yul\":4362:4365   */\n      dup4\n        /* \"#utility.yul\":4349:4379   */\n      calldatacopy\n        /* \"#utility.yul\":4434:4435   */\n      0x00\n        /* \"#utility.yul\":4425:4431   */\n      dup4\n        /* \"#utility.yul\":4420:4423   */\n      dup4\n        /* \"#utility.yul\":4416:4432   */\n      add\n        /* \"#utility.yul\":4409:4436   */\n      mstore\n        /* \"#utility.yul\":4288:4442   */\n      pop\n      pop\n      pop\n      jump\t// out\n        /* \"#utility.yul\":4448:4755   */\n    tag_101:\n        /* \"#utility.yul\":4516:4517   */\n      0x00\n        /* \"#utility.yul\":4526:4639   */\n    tag_131:\n        /* \"#utility.yul\":4540:4546   */\n      dup4\n        /* \"#utility.yul\":4537:4538   */\n      dup2\n        /* \"#utility.yul\":4534:4547   */\n      lt\n        /* \"#utility.yul\":4526:4639   */\n      iszero\n      tag_133\n      jumpi\n        /* \"#utility.yul\":4625:4626   */\n      dup1\n        /* \"#utility.yul\":4620:4623   */\n      dup3\n        /* \"#utility.yul\":4616:4627   */\n      add\n        /* \"#utility.yul\":4610:4628   */\n      mload\n        /* \"#utility.yul\":4606:4607   */\n      dup2\n        /* \"#utility.yul\":4601:4604   */\n      dup5\n        /* \"#utility.yul\":4597:4608   */\n      add\n        /* \"#utility.yul\":4590:4629   */\n      mstore\n        /* \"#utility.yul\":4562:4564   */\n      0x20\n        /* \"#utility.yul\":4559:4560   */\n      dup2\n        /* \"#utility.yul\":4555:4565   */\n      add\n        /* \"#utility.yul\":4550:4565   */\n      swap1\n      pop\n        /* \"#utility.yul\":4526:4639   */\n      jump(tag_131)\n    tag_133:\n        /* \"#utility.yul\":4657:4663   */\n      dup4\n        /* \"#utility.yul\":4654:4655   */\n      dup2\n        /* \"#utility.yul\":4651:4664   */\n      gt\n        /* \"#utility.yul\":4648:4749   */\n      iszero\n      tag_134\n      jumpi\n        /* \"#utility.yul\":4737:4738   */\n      0x00\n        /* \"#utility.yul\":4728:4734   */\n      dup5\n        /* \"#utility.yul\":4723:4726   */\n      dup5\n        /* \"#utility.yul\":4719:4735   */\n      add\n        /* \"#utility.yul\":4712:4739   */\n      mstore\n        /* \"#utility.yul\":4648:4749   */\n    tag_134:\n        /* \"#utility.yul\":4497:4755   */\n      pop\n        /* \"#utility.yul\":4448:4755   */\n      pop\n      pop\n      pop\n      jump\t// out\n        /* \"#utility.yul\":4761:5081   */\n    tag_33:\n        /* \"#utility.yul\":4805:4811   */\n      0x00\n        /* \"#utility.yul\":4842:4843   */\n      0x02\n        /* \"#utility.yul\":4836:4840   */\n      dup3\n        /* \"#utility.yul\":4832:4844   */\n      div\n        /* \"#utility.yul\":4822:4844   */\n      swap1\n      pop\n        /* \"#utility.yul\":4889:4890   */\n      0x01\n        /* \"#utility.yul\":4883:4887   */\n      dup3\n        /* \"#utility.yul\":4879:4891   */\n      and\n        /* \"#utility.yul\":4910:4928   */\n      dup1\n        /* \"#utility.yul\":4900:4981   */\n      tag_136\n      jumpi\n        /* \"#utility.yul\":4966:4970   */\n      0x7f\n        /* \"#utility.yul\":4958:4964   */\n      dup3\n        /* \"#utility.yul\":4954:4971   */\n      and\n        /* \"#utility.yul\":4944:4971   */\n      swap2\n      pop\n        /* \"#utility.yul\":4900:4981   */\n    tag_136:\n        /* \"#utility.yul\":5028:5030   */\n      0x20\n        /* \"#utility.yul\":5020:5026   */\n      dup3\n        /* \"#utility.yul\":5017:5031   */\n      lt\n        /* \"#utility.yul\":4997:5015   */\n      dup2\n        /* \"#utility.yul\":4994:5032   */\n      eq\n        /* \"#utility.yul\":4991:5075   */\n      iszero\n      tag_137\n      jumpi\n        /* \"#utility.yul\":5047:5065   */\n      tag_138\n      tag_139\n      jump\t// in\n    tag_138:\n        /* \"#utility.yul\":4991:5075   */\n    tag_137:\n        /* \"#utility.yul\":4812:5081   */\n      pop\n        /* \"#utility.yul\":4761:5081   */\n      swap2\n      swap1\n      pop\n      jump\t// out\n        /* \"#utility.yul\":5087:5368   */\n    tag_119:\n        /* \"#utility.yul\":5170:5197   */\n      tag_141\n        /* \"#utility.yul\":5192:5196   */\n      dup3\n        /* \"#utility.yul\":5170:5197   */\n      tag_103\n      jump\t// in\n    tag_141:\n        /* \"#utility.yul\":5162:5168   */\n      dup2\n        /* \"#utility.yul\":5158:5198   */\n      add\n        /* \"#utility.yul\":5300:5306   */\n      dup2\n        /* \"#utility.yul\":5288:5298   */\n      dup2\n        /* \"#utility.yul\":5285:5307   */\n      lt\n        /* \"#utility.yul\":5264:5282   */\n      0xffffffffffffffff\n        /* \"#utility.yul\":5252:5262   */\n      dup3\n        /* \"#utility.yul\":5249:5283   */\n      gt\n        /* \"#utility.yul\":5246:5308   */\n      or\n        /* \"#utility.yul\":5243:5331   */\n      iszero\n      tag_142\n      jumpi\n        /* \"#utility.yul\":5311:5329   */\n      tag_143\n      tag_124\n      jump\t// in\n    tag_143:\n        /* \"#utility.yul\":5243:5331   */\n    tag_142:\n        /* \"#utility.yul\":5351:5361   */\n      dup1\n        /* \"#utility.yul\":5347:5349   */\n      0x40\n        /* \"#utility.yul\":5340:5362   */\n      mstore\n        /* \"#utility.yul\":5130:5368   */\n      pop\n        /* \"#utility.yul\":5087:5368   */\n      pop\n      pop\n      jump\t// out\n        /* \"#utility.yul\":5374:5554   */\n    tag_139:\n        /* \"#utility.yul\":5422:5499   */\n      0x4e487b7100000000000000000000000000000000000000000000000000000000\n        /* \"#utility.yul\":5419:5420   */\n      0x00\n        /* \"#utility.yul\":5412:5500   */\n      mstore\n        /* \"#utility.yul\":5519:5523   */\n      0x22\n        /* \"#utility.yul\":5516:5517   */\n      0x04\n        /* \"#utility.yul\":5509:5524   */\n      mstore\n        /* \"#utility.yul\":5543:5547   */\n      0x24\n        /* \"#utility.yul\":5540:5541   */\n      0x00\n        /* \"#utility.yul\":5533:5548   */\n      revert\n        /* \"#utility.yul\":5560:5740   */\n    tag_124:\n        /* \"#utility.yul\":5608:5685   */\n      0x4e487b7100000000000000000000000000000000000000000000000000000000\n        /* \"#utility.yul\":5605:5606   */\n      0x00\n        /* \"#utility.yul\":5598:5686   */\n      mstore\n        /* \"#utility.yul\":5705:5709   */\n      0x41\n        /* \"#utility.yul\":5702:5703   */\n      0x04\n        /* \"#utility.yul\":5695:5710   */\n      mstore\n        /* \"#utility.yul\":5729:5733   */\n      0x24\n        /* \"#utility.yul\":5726:5727   */\n      0x00\n        /* \"#utility.yul\":5719:5734   */\n      revert\n        /* \"#utility.yul\":5746:5863   */\n    tag_75:\n        /* \"#utility.yul\":5855:5856   */\n      0x00\n        /* \"#utility.yul\":5852:5853   */\n      dup1\n        /* \"#utility.yul\":5845:5857   */\n      revert\n        /* \"#utility.yul\":5869:5986   */\n    tag_68:\n        /* \"#utility.yul\":5978:5979   */\n      0x00\n        /* \"#utility.yul\":5975:5976   */\n      dup1\n        /* \"#utility.yul\":5968:5980   */\n      revert\n        /* \"#utility.yul\":5992:6109   */\n    tag_87:\n        /* \"#utility.yul\":6101:6102   */\n      0x00\n        /* \"#utility.yul\":6098:6099   */\n      dup1\n        /* \"#utility.yul\":6091:6103   */\n      revert\n        /* \"#utility.yul\":6115:6232   */\n    tag_84:\n        /* \"#utility.yul\":6224:6225   */\n      0x00\n        /* \"#utility.yul\":6221:6222   */\n      dup1\n        /* \"#utility.yul\":6214:6226   */\n      revert\n        /* \"#utility.yul\":6238:6340   */\n    tag_103:\n        /* \"#utility.yul\":6279:6285   */\n      0x00\n        /* \"#utility.yul\":6330:6332   */\n      0x1f\n        /* \"#utility.yul\":6326:6333   */\n      not\n        /* \"#utility.yul\":6321:6323   */\n      0x1f\n        /* \"#utility.yul\":6314:6319   */\n      dup4\n        /* \"#utility.yul\":6310:6324   */\n      add\n        /* \"#utility.yul\":6306:6334   */\n      and\n        /* \"#utility.yul\":6296:6334   */\n      swap1\n      pop\n        /* \"#utility.yul\":6238:6340   */\n      swap2\n      swap1\n      pop\n      jump\t// out\n        /* \"#utility.yul\":6346:6468   */\n    tag_80:\n        /* \"#utility.yul\":6419:6443   */\n      tag_152\n        /* \"#utility.yul\":6437:6442   */\n      dup2\n        /* \"#utility.yul\":6419:6443   */\n      tag_107\n      jump\t// in\n    tag_152:\n        /* \"#utility.yul\":6412:6417   */\n      dup2\n        /* \"#utility.yul\":6409:6444   */\n      eq\n        /* \"#utility.yul\":6399:6462   */\n      tag_153\n      jumpi\n        /* \"#utility.yul\":6458:6459   */\n      0x00\n        /* \"#utility.yul\":6455:6456   */\n      dup1\n        /* \"#utility.yul\":6448:6460   */\n      revert\n        /* \"#utility.yul\":6399:6462   */\n    tag_153:\n        /* \"#utility.yul\":6346:6468   */\n      pop\n      jump\t// out\n\n    auxdata: 0xa2646970667358221220cf996f9427396192dd488208feacb95823a7a97aa0b1f6b3c0f98a9629f8eeda64736f6c63430008070033\n}\n",
				"bytecode": {
					"linkReferences": {},
					"object": "608060405234801561001057600080fd5b50610746806100206000396000f3fe608060405234801561001057600080fd5b50600436106100575760003560e01c806306ead22e1461005c5780630e5eeef71461008d5780632e64cec1146100a95780635457b83f146100c75780636057361d146100f7575b600080fd5b61007660048036038101906100719190610473565b610113565b604051610084929190610525565b60405180910390f35b6100a760048036038101906100a29190610417565b6101cf565b005b6100b161023c565b6040516100be919061050a565b60405180910390f35b6100e160048036038101906100dc9190610473565b610245565b6040516100ee91906104e8565b60405180910390f35b610111600480360381019061010c9190610473565b6102e5565b005b6001818154811061012357600080fd5b906000526020600020906002020160009150905080600001549080600101805461014c90610613565b80601f016020809104026020016040519081016040528092919081815260200182805461017890610613565b80156101c55780601f1061019a576101008083540402835291602001916101c5565b820191906000526020600020905b8154815290600101906020018083116101a857829003601f168201915b5050505050905082565b600160405180604001604052808381526020018481525090806001815401808255809150506001900390600052602060002090600202016000909190919091506000820151816000015560208201518160010190805190602001906102359291906102ef565b5050505050565b60008054905090565b6002602052806000526040600020600091509050805461026490610613565b80601f016020809104026020016040519081016040528092919081815260200182805461029090610613565b80156102dd5780601f106102b2576101008083540402835291602001916102dd565b820191906000526020600020905b8154815290600101906020018083116102c057829003601f168201915b505050505081565b8060008190555050565b8280546102fb90610613565b90600052602060002090601f01602090048101928261031d5760008555610364565b82601f1061033657805160ff1916838001178555610364565b82800160010185558215610364579182015b82811115610363578251825591602001919060010190610348565b5b5090506103719190610375565b5090565b5b8082111561038e576000816000905550600101610376565b5090565b60006103a56103a08461057a565b610555565b9050828152602081018484840111156103c1576103c06106d9565b5b6103cc8482856105d1565b509392505050565b600082601f8301126103e9576103e86106d4565b5b81356103f9848260208601610392565b91505092915050565b600081359050610411816106f9565b92915050565b6000806040838503121561042e5761042d6106e3565b5b600083013567ffffffffffffffff81111561044c5761044b6106de565b5b610458858286016103d4565b925050602061046985828601610402565b9150509250929050565b600060208284031215610489576104886106e3565b5b600061049784828501610402565b91505092915050565b60006104ab826105ab565b6104b581856105b6565b93506104c58185602086016105e0565b6104ce816106e8565b840191505092915050565b6104e2816105c7565b82525050565b6000602082019050818103600083015261050281846104a0565b905092915050565b600060208201905061051f60008301846104d9565b92915050565b600060408201905061053a60008301856104d9565b818103602083015261054c81846104a0565b90509392505050565b600061055f610570565b905061056b8282610645565b919050565b6000604051905090565b600067ffffffffffffffff821115610595576105946106a5565b5b61059e826106e8565b9050602081019050919050565b600081519050919050565b600082825260208201905092915050565b6000819050919050565b82818337600083830152505050565b60005b838110156105fe5780820151818401526020810190506105e3565b8381111561060d576000848401525b50505050565b6000600282049050600182168061062b57607f821691505b6020821081141561063f5761063e610676565b5b50919050565b61064e826106e8565b810181811067ffffffffffffffff8211171561066d5761066c6106a5565b5b80604052505050565b7f4e487b7100000000000000000000000000000000000000000000000000000000600052602260045260246000fd5b7f4e487b7100000000000000000000000000000000000000000000000000000000600052604160045260246000fd5b600080fd5b600080fd5b600080fd5b600080fd5b6000601f19601f8301169050919050565b610702816105c7565b811461070d57600080fd5b5056fea2646970667358221220cf996f9427396192dd488208feacb95823a7a97aa0b1f6b3c0f98a9629f8eeda64736f6c63430008070033",
					"opcodes": "PUSH1 0x80 PUSH1 0x40 MSTORE CALLVALUE DUP1 ISZERO PUSH2 0x10 JUMPI PUSH1 0x0 DUP1 REVERT JUMPDEST POP PUSH2 0x746 DUP1 PUSH2 0x20 PUSH1 0x0 CODECOPY PUSH1 0x0 RETURN INVALID PUSH1 0x80 PUSH1 0x40 MSTORE CALLVALUE DUP1 ISZERO PUSH2 0x10 JUMPI PUSH1 0x0 DUP1 REVERT JUMPDEST POP PUSH1 0x4 CALLDATASIZE LT PUSH2 0x57 JUMPI PUSH1 0x0 CALLDATALOAD PUSH1 0xE0 SHR DUP1 PUSH4 0x6EAD22E EQ PUSH2 0x5C JUMPI DUP1 PUSH4 0xE5EEEF7 EQ PUSH2 0x8D JUMPI DUP1 PUSH4 0x2E64CEC1 EQ PUSH2 0xA9 JUMPI DUP1 PUSH4 0x5457B83F EQ PUSH2 0xC7 JUMPI DUP1 PUSH4 0x6057361D EQ PUSH2 0xF7 JUMPI JUMPDEST PUSH1 0x0 DUP1 REVERT JUMPDEST PUSH2 0x76 PUSH1 0x4 DUP1 CALLDATASIZE SUB DUP2 ADD SWAP1 PUSH2 0x71 SWAP2 SWAP1 PUSH2 0x473 JUMP JUMPDEST PUSH2 0x113 JUMP JUMPDEST PUSH1 0x40 MLOAD PUSH2 0x84 SWAP3 SWAP2 SWAP1 PUSH2 0x525 JUMP JUMPDEST PUSH1 0x40 MLOAD DUP1 SWAP2 SUB SWAP1 RETURN JUMPDEST PUSH2 0xA7 PUSH1 0x4 DUP1 CALLDATASIZE SUB DUP2 ADD SWAP1 PUSH2 0xA2 SWAP2 SWAP1 PUSH2 0x417 JUMP JUMPDEST PUSH2 0x1CF JUMP JUMPDEST STOP JUMPDEST PUSH2 0xB1 PUSH2 0x23C JUMP JUMPDEST PUSH1 0x40 MLOAD PUSH2 0xBE SWAP2 SWAP1 PUSH2 0x50A JUMP JUMPDEST PUSH1 0x40 MLOAD DUP1 SWAP2 SUB SWAP1 RETURN JUMPDEST PUSH2 0xE1 PUSH1 0x4 DUP1 CALLDATASIZE SUB DUP2 ADD SWAP1 PUSH2 0xDC SWAP2 SWAP1 PUSH2 0x473 JUMP JUMPDEST PUSH2 0x245 JUMP JUMPDEST PUSH1 0x40 MLOAD PUSH2 0xEE SWAP2 SWAP1 PUSH2 0x4E8 JUMP JUMPDEST PUSH1 0x40 MLOAD DUP1 SWAP2 SUB SWAP1 RETURN JUMPDEST PUSH2 0x111 PUSH1 0x4 DUP1 CALLDATASIZE SUB DUP2 ADD SWAP1 PUSH2 0x10C SWAP2 SWAP1 PUSH2 0x473 JUMP JUMPDEST PUSH2 0x2E5 JUMP JUMPDEST STOP JUMPDEST PUSH1 0x1 DUP2 DUP2 SLOAD DUP2 LT PUSH2 0x123 JUMPI PUSH1 0x0 DUP1 REVERT JUMPDEST SWAP1 PUSH1 0x0 MSTORE PUSH1 0x20 PUSH1 0x0 KECCAK256 SWAP1 PUSH1 0x2 MUL ADD PUSH1 0x0 SWAP2 POP SWAP1 POP DUP1 PUSH1 0x0 ADD SLOAD SWAP1 DUP1 PUSH1 0x1 ADD DUP1 SLOAD PUSH2 0x14C SWAP1 PUSH2 0x613 JUMP JUMPDEST DUP1 PUSH1 0x1F ADD PUSH1 0x20 DUP1 SWAP2 DIV MUL PUSH1 0x20 ADD PUSH1 0x40 MLOAD SWAP1 DUP2 ADD PUSH1 0x40 MSTORE DUP1 SWAP3 SWAP2 SWAP1 DUP2 DUP2 MSTORE PUSH1 0x20 ADD DUP3 DUP1 SLOAD PUSH2 0x178 SWAP1 PUSH2 0x613 JUMP JUMPDEST DUP1 ISZERO PUSH2 0x1C5 JUMPI DUP1 PUSH1 0x1F LT PUSH2 0x19A JUMPI PUSH2 0x100 DUP1 DUP4 SLOAD DIV MUL DUP4 MSTORE SWAP2 PUSH1 0x20 ADD SWAP2 PUSH2 0x1C5 JUMP JUMPDEST DUP3 ADD SWAP2 SWAP1 PUSH1 0x0 MSTORE PUSH1 0x20 PUSH1 0x0 KECCAK256 SWAP1 JUMPDEST DUP2 SLOAD DUP2 MSTORE SWAP1 PUSH1 0x1 ADD SWAP1 PUSH1 0x20 ADD DUP1 DUP4 GT PUSH2 0x1A8 JUMPI DUP3 SWAP1 SUB PUSH1 0x1F AND DUP3 ADD SWAP2 JUMPDEST POP POP POP POP POP SWAP1 POP DUP3 JUMP JUMPDEST PUSH1 0x1 PUSH1 0x40 MLOAD DUP1 PUSH1 0x40 ADD PUSH1 0x40 MSTORE DUP1 DUP4 DUP2 MSTORE PUSH1 0x20 ADD DUP5 DUP2 MSTORE POP SWAP1 DUP1 PUSH1 0x1 DUP2 SLOAD ADD DUP1 DUP3 SSTORE DUP1 SWAP2 POP POP PUSH1 0x1 SWAP1 SUB SWAP1 PUSH1 0x0 MSTORE PUSH1 0x20 PUSH1 0x0 KECCAK256 SWAP1 PUSH1 0x2 MUL ADD PUSH1 0x0 SWAP1 SWAP2 SWAP1 SWAP2 SWAP1 SWAP2 POP PUSH1 0x0 DUP3 ADD MLOAD DUP2 PUSH1 0x0 ADD SSTORE PUSH1 0x20 DUP3 ADD MLOAD DUP2 PUSH1 0x1 ADD SWAP1 DUP1 MLOAD SWAP1 PUSH1 0x20 ADD SWAP1 PUSH2 0x235 SWAP3 SWAP2 SWAP1 PUSH2 0x2EF JUMP JUMPDEST POP POP POP POP POP JUMP JUMPDEST PUSH1 0x0 DUP1 SLOAD SWAP1 POP SWAP1 JUMP JUMPDEST PUSH1 0x2 PUSH1 0x20 MSTORE DUP1 PUSH1 0x0 MSTORE PUSH1 0x40 PUSH1 0x0 KECCAK256 PUSH1 0x0 SWAP2 POP SWAP1 POP DUP1 SLOAD PUSH2 0x264 SWAP1 PUSH2 0x613 JUMP JUMPDEST DUP1 PUSH1 0x1F ADD PUSH1 0x20 DUP1 SWAP2 DIV MUL PUSH1 0x20 ADD PUSH1 0x40 MLOAD SWAP1 DUP2 ADD PUSH1 0x40 MSTORE DUP1 SWAP3 SWAP2 SWAP1 DUP2 DUP2 MSTORE PUSH1 0x20 ADD DUP3 DUP1 SLOAD PUSH2 0x290 SWAP1 PUSH2 0x613 JUMP JUMPDEST DUP1 ISZERO PUSH2 0x2DD JUMPI DUP1 PUSH1 0x1F LT PUSH2 0x2B2 JUMPI PUSH2 0x100 DUP1 DUP4 SLOAD DIV MUL DUP4 MSTORE SWAP2 PUSH1 0x20 ADD SWAP2 PUSH2 0x2DD JUMP JUMPDEST DUP3 ADD SWAP2 SWAP1 PUSH1 0x0 MSTORE PUSH1 0x20 PUSH1 0x0 KECCAK256 SWAP1 JUMPDEST DUP2 SLOAD DUP2 MSTORE SWAP1 PUSH1 0x1 ADD SWAP1 PUSH1 0x20 ADD DUP1 DUP4 GT PUSH2 0x2C0 JUMPI DUP3 SWAP1 SUB PUSH1 0x1F AND DUP3 ADD SWAP2 JUMPDEST POP POP POP POP POP DUP2 JUMP JUMPDEST DUP1 PUSH1 0x0 DUP2 SWAP1 SSTORE POP POP JUMP JUMPDEST DUP3 DUP1 SLOAD PUSH2 0x2FB SWAP1 PUSH2 0x613 JUMP JUMPDEST SWAP1 PUSH1 0x0 MSTORE PUSH1 0x20 PUSH1 0x0 KECCAK256 SWAP1 PUSH1 0x1F ADD PUSH1 0x20 SWAP1 DIV DUP2 ADD SWAP3 DUP3 PUSH2 0x31D JUMPI PUSH1 0x0 DUP6 SSTORE PUSH2 0x364 JUMP JUMPDEST DUP3 PUSH1 0x1F LT PUSH2 0x336 JUMPI DUP1 MLOAD PUSH1 0xFF NOT AND DUP4 DUP1 ADD OR DUP6 SSTORE PUSH2 0x364 JUMP JUMPDEST DUP3 DUP1 ADD PUSH1 0x1 ADD DUP6 SSTORE DUP3 ISZERO PUSH2 0x364 JUMPI SWAP2 DUP3 ADD JUMPDEST DUP3 DUP2 GT ISZERO PUSH2 0x363 JUMPI DUP3 MLOAD DUP3 SSTORE SWAP2 PUSH1 0x20 ADD SWAP2 SWAP1 PUSH1 0x1 ADD SWAP1 PUSH2 0x348 JUMP JUMPDEST JUMPDEST POP SWAP1 POP PUSH2 0x371 SWAP2 SWAP1 PUSH2 0x375 JUMP JUMPDEST POP SWAP1 JUMP JUMPDEST JUMPDEST DUP1 DUP3 GT ISZERO PUSH2 0x38E JUMPI PUSH1 0x0 DUP2 PUSH1 0x0 SWAP1 SSTORE POP PUSH1 0x1 ADD PUSH2 0x376 JUMP JUMPDEST POP SWAP1 JUMP JUMPDEST PUSH1 0x0 PUSH2 0x3A5 PUSH2 0x3A0 DUP5 PUSH2 0x57A JUMP JUMPDEST PUSH2 0x555 JUMP JUMPDEST SWAP1 POP DUP3 DUP2 MSTORE PUSH1 0x20 DUP2 ADD DUP5 DUP5 DUP5 ADD GT ISZERO PUSH2 0x3C1 JUMPI PUSH2 0x3C0 PUSH2 0x6D9 JUMP JUMPDEST JUMPDEST PUSH2 0x3CC DUP5 DUP3 DUP6 PUSH2 0x5D1 JUMP JUMPDEST POP SWAP4 SWAP3 POP POP POP JUMP JUMPDEST PUSH1 0x0 DUP3 PUSH1 0x1F DUP4 ADD SLT PUSH2 0x3E9 JUMPI PUSH2 0x3E8 PUSH2 0x6D4 JUMP JUMPDEST JUMPDEST DUP2 CALLDATALOAD PUSH2 0x3F9 DUP5 DUP3 PUSH1 0x20 DUP7 ADD PUSH2 0x392 JUMP JUMPDEST SWAP2 POP POP SWAP3 SWAP2 POP POP JUMP JUMPDEST PUSH1 0x0 DUP2 CALLDATALOAD SWAP1 POP PUSH2 0x411 DUP2 PUSH2 0x6F9 JUMP JUMPDEST SWAP3 SWAP2 POP POP JUMP JUMPDEST PUSH1 0x0 DUP1 PUSH1 0x40 DUP4 DUP6 SUB SLT ISZERO PUSH2 0x42E JUMPI PUSH2 0x42D PUSH2 0x6E3 JUMP JUMPDEST JUMPDEST PUSH1 0x0 DUP4 ADD CALLDATALOAD PUSH8 0xFFFFFFFFFFFFFFFF DUP2 GT ISZERO PUSH2 0x44C JUMPI PUSH2 0x44B PUSH2 0x6DE JUMP JUMPDEST JUMPDEST PUSH2 0x458 DUP6 DUP3 DUP7 ADD PUSH2 0x3D4 JUMP JUMPDEST SWAP3 POP POP PUSH1 0x20 PUSH2 0x469 DUP6 DUP3 DUP7 ADD PUSH2 0x402 JUMP JUMPDEST SWAP2 POP POP SWAP3 POP SWAP3 SWAP1 POP JUMP JUMPDEST PUSH1 0x0 PUSH1 0x20 DUP3 DUP5 SUB SLT ISZERO PUSH2 0x489 JUMPI PUSH2 0x488 PUSH2 0x6E3 JUMP JUMPDEST JUMPDEST PUSH1 0x0 PUSH2 0x497 DUP5 DUP3 DUP6 ADD PUSH2 0x402 JUMP JUMPDEST SWAP2 POP POP SWAP3 SWAP2 POP POP JUMP JUMPDEST PUSH1 0x0 PUSH2 0x4AB DUP3 PUSH2 0x5AB JUMP JUMPDEST PUSH2 0x4B5 DUP2 DUP6 PUSH2 0x5B6 JUMP JUMPDEST SWAP4 POP PUSH2 0x4C5 DUP2 DUP6 PUSH1 0x20 DUP7 ADD PUSH2 0x5E0 JUMP JUMPDEST PUSH2 0x4CE DUP2 PUSH2 0x6E8 JUMP JUMPDEST DUP5 ADD SWAP2 POP POP SWAP3 SWAP2 POP POP JUMP JUMPDEST PUSH2 0x4E2 DUP2 PUSH2 0x5C7 JUMP JUMPDEST DUP3 MSTORE POP POP JUMP JUMPDEST PUSH1 0x0 PUSH1 0x20 DUP3 ADD SWAP1 POP DUP2 DUP2 SUB PUSH1 0x0 DUP4 ADD MSTORE PUSH2 0x502 DUP2 DUP5 PUSH2 0x4A0 JUMP JUMPDEST SWAP1 POP SWAP3 SWAP2 POP POP JUMP JUMPDEST PUSH1 0x0 PUSH1 0x20 DUP3 ADD SWAP1 POP PUSH2 0x51F PUSH1 0x0 DUP4 ADD DUP5 PUSH2 0x4D9 JUMP JUMPDEST SWAP3 SWAP2 POP POP JUMP JUMPDEST PUSH1 0x0 PUSH1 0x40 DUP3 ADD SWAP1 POP PUSH2 0x53A PUSH1 0x0 DUP4 ADD DUP6 PUSH2 0x4D9 JUMP JUMPDEST DUP2 DUP2 SUB PUSH1 0x20 DUP4 ADD MSTORE PUSH2 0x54C DUP2 DUP5 PUSH2 0x4A0 JUMP JUMPDEST SWAP1 POP SWAP4 SWAP3 POP POP POP JUMP JUMPDEST PUSH1 0x0 PUSH2 0x55F PUSH2 0x570 JUMP JUMPDEST SWAP1 POP PUSH2 0x56B DUP3 DUP3 PUSH2 0x645 JUMP JUMPDEST SWAP2 SWAP1 POP JUMP JUMPDEST PUSH1 0x0 PUSH1 0x40 MLOAD SWAP1 POP SWAP1 JUMP JUMPDEST PUSH1 0x0 PUSH8 0xFFFFFFFFFFFFFFFF DUP3 GT ISZERO PUSH2 0x595 JUMPI PUSH2 0x594 PUSH2 0x6A5 JUMP JUMPDEST JUMPDEST PUSH2 0x59E DUP3 PUSH2 0x6E8 JUMP JUMPDEST SWAP1 POP PUSH1 0x20 DUP2 ADD SWAP1 POP SWAP2 SWAP1 POP JUMP JUMPDEST PUSH1 0x0 DUP2 MLOAD SWAP1 POP SWAP2 SWAP1 POP JUMP JUMPDEST PUSH1 0x0 DUP3 DUP3 MSTORE PUSH1 0x20 DUP3 ADD SWAP1 POP SWAP3 SWAP2 POP POP JUMP JUMPDEST PUSH1 0x0 DUP2 SWAP1 POP SWAP2 SWAP1 POP JUMP JUMPDEST DUP3 DUP2 DUP4 CALLDATACOPY PUSH1 0x0 DUP4 DUP4 ADD MSTORE POP POP POP JUMP JUMPDEST PUSH1 0x0 JUMPDEST DUP4 DUP2 LT ISZERO PUSH2 0x5FE JUMPI DUP1 DUP3 ADD MLOAD DUP2 DUP5 ADD MSTORE PUSH1 0x20 DUP2 ADD SWAP1 POP PUSH2 0x5E3 JUMP JUMPDEST DUP4 DUP2 GT ISZERO PUSH2 0x60D JUMPI PUSH1 0x0 DUP5 DUP5 ADD MSTORE JUMPDEST POP POP POP POP JUMP JUMPDEST PUSH1 0x0 PUSH1 0x2 DUP3 DIV SWAP1 POP PUSH1 0x1 DUP3 AND DUP1 PUSH2 0x62B JUMPI PUSH1 0x7F DUP3 AND SWAP2 POP JUMPDEST PUSH1 0x20 DUP3 LT DUP2 EQ ISZERO PUSH2 0x63F JUMPI PUSH2 0x63E PUSH2 0x676 JUMP JUMPDEST JUMPDEST POP SWAP2 SWAP1 POP JUMP JUMPDEST PUSH2 0x64E DUP3 PUSH2 0x6E8 JUMP JUMPDEST DUP2 ADD DUP2 DUP2 LT PUSH8 0xFFFFFFFFFFFFFFFF DUP3 GT OR ISZERO PUSH2 0x66D JUMPI PUSH2 0x66C PUSH2 0x6A5 JUMP JUMPDEST JUMPDEST DUP1 PUSH1 0x40 MSTORE POP POP POP JUMP JUMPDEST PUSH32 0x4E487B7100000000000000000000000000000000000000000000000000000000 PUSH1 0x0 MSTORE PUSH1 0x22 PUSH1 0x4 MSTORE PUSH1 0x24 PUSH1 0x0 REVERT JUMPDEST PUSH32 0x4E487B7100000000000000000000000000000000000000000000000000000000 PUSH1 0x0 MSTORE PUSH1 0x41 PUSH1 0x4 MSTORE PUSH1 0x24 PUSH1 0x0 REVERT JUMPDEST PUSH1 0x0 DUP1 REVERT JUMPDEST PUSH1 0x0 DUP1 REVERT JUMPDEST PUSH1 0x0 DUP1 REVERT JUMPDEST PUSH1 0x0 DUP1 REVERT JUMPDEST PUSH1 0x0 PUSH1 0x1F NOT PUSH1 0x1F DUP4 ADD AND SWAP1 POP SWAP2 SWAP1 POP JUMP JUMPDEST PUSH2 0x702 DUP2 PUSH2 0x5C7 JUMP JUMPDEST DUP2 EQ PUSH2 0x70D JUMPI PUSH1 0x0 DUP1 REVERT JUMPDEST POP JUMP INVALID LOG2 PUSH5 0x6970667358 0x22 SLT KECCAK256 0xCF SWAP10 PUSH16 0x9427396192DD488208FEACB95823A7A9 PUSH27 0xA0B1F6B3C0F98A9629F8EEDA64736F6C6343000807003300000000 "
				},
				"gasEstimates": {
					"creation": {
						"codeDepositCost": "372400",
						"executionCost": "411",
						"totalCost": "372811"
					},
					"external": {
						"addStudent(string,uint256)": "infinite",
						"retrieve()": "2459",
						"rollNoToNameMap(uint256)": "infinite",
						"store(uint256)": "22586",
						"students(uint256)": "infinite"
					}
				},
				"methodIdentifiers": {
					"addStudent(string,uint256)": "0e5eeef7",
					"retrieve()": "2e64cec1",
					"rollNoToNameMap(uint256)": "5457b83f",
					"store(uint256)": "6057361d",
					"students(uint256)": "06ead22e"
				}
			},
			"storageLayout": {
				"storage": [
					{
						"astId": 3,
						"contract": "Contracts/SimpleStorage.sol:SimpleStorage",
						"label": "favouriteNumber",
						"offset": 0,
						"slot": "0",
						"type": "t_uint256"
					},
					{
						"astId": 12,
						"contract": "Contracts/SimpleStorage.sol:SimpleStorage",
						"label": "students",
						"offset": 0,
						"slot": "1",
						"type": "t_array(t_struct(Student)8_storage)dyn_storage"
					},
					{
						"astId": 16,
						"contract": "Contracts/SimpleStorage.sol:SimpleStorage",
						"label": "rollNoToNameMap",
						"offset": 0,
						"slot": "2",
						"type": "t_mapping(t_uint256,t_string_storage)"
					}
				],
				"types": {
					"t_array(t_struct(Student)8_storage)dyn_storage": {
						"base": "t_struct(Student)8_storage",
						"encoding": "dynamic_array",
						"label": "struct SimpleStorage.Student[]",
						"numberOfBytes": "32"
					},
					"t_mapping(t_uint256,t_string_storage)": {
						"encoding": "mapping",
						"key": "t_uint256",
						"label": "mapping(uint256 => string)",
						"numberOfBytes": "32",
						"value": "t_string_storage"
					},
					"t_string_storage": {
						"encoding": "bytes",
						"label": "string",
						"numberOfBytes": "32"
					},
					"t_struct(Student)8_storage": {
						"encoding": "inplace",
						"label": "struct SimpleStorage.Student",
						"members": [
							{
								"astId": 5,
								"contract": "Contracts/SimpleStorage.sol:SimpleStorage",
								"label": "rollNo",
								"offset": 0,
								"slot": "0",
								"type": "t_uint256"
							},
							{
								"astId": 7,
								"contract": "Contracts/SimpleStorage.sol:SimpleStorage",
								"label": "name",
								"offset": 0,
								"slot": "1",
								"type": "t_string_storage"
							}
						],
						"numberOfBytes": "64"
					},
					"t_uint256": {
						"encoding": "inplace",
						"label": "uint256",
						"numberOfBytes": "32"
					}
				}
			},
			"userdoc": {
				"kind": "user",
				"methods": {},
				"version": 1
			}
		}
	}
}