{
	"Contracts/FundMe.sol": {
		"FundMe": {
			"abi": [
				{
					"inputs": [],
					"name": "fund",
					"outputs": [],
					"stateMutability": "payable",
					"type": "function"
				},
				{
					"inputs": [
						{
							"internalType": "uint256",
							"name": "ethAmount",
							"type": "uint256"
						}
					],
					"name": "getConversionRate",
					"outputs": [
						{
							"internalType": "uint256",
							"name": "",
							"type": "uint256"
						}
					],
					"stateMutability": "nonpayable",
					"type": "function"
				},
				{
					"inputs": [],
					"name": "getPrice",
					"outputs": [
						{
							"internalType": "uint256",
							"name": "",
							"type": "uint256"
						}
					],
					"stateMutability": "view",
					"type": "function"
				},
				{
					"inputs": [],
					"name": "getVersion",
					"outputs": [
						{
							"internalType": "uint256",
							"name": "",
							"type": "uint256"
						}
					],
					"stateMutability": "view",
					"type": "function"
				}
			],
			"devdoc": {
				"kind": "dev",
				"methods": {},
				"version": 1
			},
			"evm": {
				"assembly": "    /* \"Contracts/FundMe.sol\":143:816  contract FundMe{\r... */\n  mstore(0x40, 0x80)\n    /* \"Contracts/FundMe.sol\":233:275  0xD4a33860578De61DBAbDc8BFdb98FD742fA7028e */\n  0xd4a33860578de61dbabdc8bfdb98fd742fa7028e\n    /* \"Contracts/FundMe.sol\":165:276  AggregatorV3Interface aggregatorV3Interface = AggregatorV3Interface(0xD4a33860578De61DBAbDc8BFdb98FD742fA7028e) */\n  0x00\n  dup1\n  0x0100\n  exp\n  dup2\n  sload\n  dup2\n  0xffffffffffffffffffffffffffffffffffffffff\n  mul\n  not\n  and\n  swap1\n  dup4\n  0xffffffffffffffffffffffffffffffffffffffff\n  and\n  mul\n  or\n  swap1\n  sstore\n  pop\n    /* \"Contracts/FundMe.sol\":143:816  contract FundMe{\r... */\n  callvalue\n  dup1\n  iszero\n  tag_1\n  jumpi\n  0x00\n  dup1\n  revert\ntag_1:\n  pop\n  dataSize(sub_0)\n  dup1\n  dataOffset(sub_0)\n  0x00\n  codecopy\n  0x00\n  return\nstop\n\nsub_0: assembly {\n        /* \"Contracts/FundMe.sol\":143:816  contract FundMe{\r... */\n      mstore(0x40, 0x80)\n      jumpi(tag_1, lt(calldatasize, 0x04))\n      shr(0xe0, calldataload(0x00))\n      dup1\n      0x0d8e6e2c\n      eq\n      tag_2\n      jumpi\n      dup1\n      0x6e5b6b28\n      eq\n      tag_3\n      jumpi\n      dup1\n      0x98d5fdca\n      eq\n      tag_4\n      jumpi\n      dup1\n      0xb60d4288\n      eq\n      tag_5\n      jumpi\n    tag_1:\n      0x00\n      dup1\n      revert\n        /* \"Contracts/FundMe.sol\":654:761  function getVersion() public view returns(uint256){\r... */\n    tag_2:\n      callvalue\n      dup1\n      iszero\n      tag_6\n      jumpi\n      0x00\n      dup1\n      revert\n    tag_6:\n      pop\n      tag_7\n      tag_8\n      jump\t// in\n    tag_7:\n      mload(0x40)\n      tag_9\n      swap2\n      swap1\n      tag_10\n      jump\t// in\n    tag_9:\n      mload(0x40)\n      dup1\n      swap2\n      sub\n      swap1\n      return\n        /* \"Contracts/FundMe.sol\":567:646  function getConversionRate(uint256 ethAmount) public returns(uint256){\r... */\n    tag_3:\n      callvalue\n      dup1\n      iszero\n      tag_11\n      jumpi\n      0x00\n      dup1\n      revert\n    tag_11:\n      pop\n      tag_12\n      0x04\n      dup1\n      calldatasize\n      sub\n      dup2\n      add\n      swap1\n      tag_13\n      swap2\n      swap1\n      tag_14\n      jump\t// in\n    tag_13:\n      tag_15\n      jump\t// in\n    tag_12:\n      mload(0x40)\n      tag_16\n      swap2\n      swap1\n      tag_10\n      jump\t// in\n    tag_16:\n      mload(0x40)\n      dup1\n      swap2\n      sub\n      swap1\n      return\n        /* \"Contracts/FundMe.sol\":391:559  function getPrice() public view returns(uint256) {\r... */\n    tag_4:\n      callvalue\n      dup1\n      iszero\n      tag_17\n      jumpi\n      0x00\n      dup1\n      revert\n    tag_17:\n      pop\n      tag_18\n      tag_19\n      jump\t// in\n    tag_18:\n      mload(0x40)\n      tag_20\n      swap2\n      swap1\n      tag_10\n      jump\t// in\n    tag_20:\n      mload(0x40)\n      dup1\n      swap2\n      sub\n      swap1\n      return\n        /* \"Contracts/FundMe.sol\":285:383  function fund() public payable {\r... */\n    tag_5:\n      tag_21\n      tag_22\n      jump\t// in\n    tag_21:\n      stop\n        /* \"Contracts/FundMe.sol\":654:761  function getVersion() public view returns(uint256){\r... */\n    tag_8:\n        /* \"Contracts/FundMe.sol\":696:703  uint256 */\n      0x00\n        /* \"Contracts/FundMe.sol\":722:743  aggregatorV3Interface */\n      dup1\n      0x00\n      swap1\n      sload\n      swap1\n      0x0100\n      exp\n      swap1\n      div\n      0xffffffffffffffffffffffffffffffffffffffff\n      and\n        /* \"Contracts/FundMe.sol\":722:751  aggregatorV3Interface.version */\n      0xffffffffffffffffffffffffffffffffffffffff\n      and\n      0x54fd4d50\n        /* \"Contracts/FundMe.sol\":722:753  aggregatorV3Interface.version() */\n      mload(0x40)\n      dup2\n      0xffffffff\n      and\n      0xe0\n      shl\n      dup2\n      mstore\n      0x04\n      add\n      0x20\n      mload(0x40)\n      dup1\n      dup4\n      sub\n      dup2\n      dup7\n      dup1\n      extcodesize\n      iszero\n      dup1\n      iszero\n      tag_24\n      jumpi\n      0x00\n      dup1\n      revert\n    tag_24:\n      pop\n      gas\n      staticcall\n      iszero\n      dup1\n      iszero\n      tag_26\n      jumpi\n      returndatasize\n      0x00\n      dup1\n      returndatacopy\n      revert(0x00, returndatasize)\n    tag_26:\n      pop\n      pop\n      pop\n      pop\n      mload(0x40)\n      returndatasize\n      not(0x1f)\n      0x1f\n      dup3\n      add\n      and\n      dup3\n      add\n      dup1\n      0x40\n      mstore\n      pop\n      dup2\n      add\n      swap1\n      tag_27\n      swap2\n      swap1\n      tag_28\n      jump\t// in\n    tag_27:\n        /* \"Contracts/FundMe.sol\":715:753  return aggregatorV3Interface.version() */\n      swap1\n      pop\n        /* \"Contracts/FundMe.sol\":654:761  function getVersion() public view returns(uint256){\r... */\n      swap1\n      jump\t// out\n        /* \"Contracts/FundMe.sol\":567:646  function getConversionRate(uint256 ethAmount) public returns(uint256){\r... */\n    tag_15:\n        /* \"Contracts/FundMe.sol\":628:635  uint256 */\n      0x00\n        /* \"Contracts/FundMe.sol\":567:646  function getConversionRate(uint256 ethAmount) public returns(uint256){\r... */\n      swap2\n      swap1\n      pop\n      jump\t// out\n        /* \"Contracts/FundMe.sol\":391:559  function getPrice() public view returns(uint256) {\r... */\n    tag_19:\n        /* \"Contracts/FundMe.sol\":431:438  uint256 */\n      0x00\n        /* \"Contracts/FundMe.sol\":454:466  int256 price */\n      dup1\n        /* \"Contracts/FundMe.sol\":473:494  aggregatorV3Interface */\n      0x00\n      dup1\n      sload\n      swap1\n      0x0100\n      exp\n      swap1\n      div\n      0xffffffffffffffffffffffffffffffffffffffff\n      and\n        /* \"Contracts/FundMe.sol\":473:510  aggregatorV3Interface.latestRoundData */\n      0xffffffffffffffffffffffffffffffffffffffff\n      and\n      0xfeaf968c\n        /* \"Contracts/FundMe.sol\":473:512  aggregatorV3Interface.latestRoundData() */\n      mload(0x40)\n      dup2\n      0xffffffff\n      and\n      0xe0\n      shl\n      dup2\n      mstore\n      0x04\n      add\n      0xa0\n      mload(0x40)\n      dup1\n      dup4\n      sub\n      dup2\n      dup7\n      dup1\n      extcodesize\n      iszero\n      dup1\n      iszero\n      tag_31\n      jumpi\n      0x00\n      dup1\n      revert\n    tag_31:\n      pop\n      gas\n      staticcall\n      iszero\n      dup1\n      iszero\n      tag_33\n      jumpi\n      returndatasize\n      0x00\n      dup1\n      returndatacopy\n      revert(0x00, returndatasize)\n    tag_33:\n      pop\n      pop\n      pop\n      pop\n      mload(0x40)\n      returndatasize\n      not(0x1f)\n      0x1f\n      dup3\n      add\n      and\n      dup3\n      add\n      dup1\n      0x40\n      mstore\n      pop\n      dup2\n      add\n      swap1\n      tag_34\n      swap2\n      swap1\n      tag_35\n      jump\t// in\n    tag_34:\n        /* \"Contracts/FundMe.sol\":451:512  (, int256 price,,,) = aggregatorV3Interface.latestRoundData() */\n      pop\n      pop\n      pop\n      swap2\n      pop\n      pop\n        /* \"Contracts/FundMe.sol\":546:550  1e10 */\n      0x02540be400\n        /* \"Contracts/FundMe.sol\":538:543  price */\n      dup2\n        /* \"Contracts/FundMe.sol\":538:550  price * 1e10 */\n      tag_36\n      swap2\n      swap1\n      tag_37\n      jump\t// in\n    tag_36:\n        /* \"Contracts/FundMe.sol\":523:551  return uint256(price * 1e10) */\n      swap2\n      pop\n      pop\n        /* \"Contracts/FundMe.sol\":391:559  function getPrice() public view returns(uint256) {\r... */\n      swap1\n      jump\t// out\n        /* \"Contracts/FundMe.sol\":285:383  function fund() public payable {\r... */\n    tag_22:\n        /* \"Contracts/FundMe.sol\":348:352  1e18 */\n      0x0de0b6b3a7640000\n        /* \"Contracts/FundMe.sol\":335:344  msg.value */\n      callvalue\n        /* \"Contracts/FundMe.sol\":335:352  msg.value >= 1e18 */\n      lt\n      iszero\n        /* \"Contracts/FundMe.sol\":327:375  require(msg.value >= 1e18, \"Didn't send enough\") */\n      tag_39\n      jumpi\n      mload(0x40)\n      0x08c379a000000000000000000000000000000000000000000000000000000000\n      dup2\n      mstore\n      0x04\n      add\n      tag_40\n      swap1\n      tag_41\n      jump\t// in\n    tag_40:\n      mload(0x40)\n      dup1\n      swap2\n      sub\n      swap1\n      revert\n    tag_39:\n        /* \"Contracts/FundMe.sol\":285:383  function fund() public payable {\r... */\n      jump\t// out\n        /* \"#utility.yul\":7:148   */\n    tag_43:\n        /* \"#utility.yul\":63:68   */\n      0x00\n        /* \"#utility.yul\":94:100   */\n      dup2\n        /* \"#utility.yul\":88:101   */\n      mload\n        /* \"#utility.yul\":79:101   */\n      swap1\n      pop\n        /* \"#utility.yul\":110:142   */\n      tag_45\n        /* \"#utility.yul\":136:141   */\n      dup2\n        /* \"#utility.yul\":110:142   */\n      tag_46\n      jump\t// in\n    tag_45:\n        /* \"#utility.yul\":7:148   */\n      swap3\n      swap2\n      pop\n      pop\n      jump\t// out\n        /* \"#utility.yul\":154:293   */\n    tag_47:\n        /* \"#utility.yul\":200:205   */\n      0x00\n        /* \"#utility.yul\":238:244   */\n      dup2\n        /* \"#utility.yul\":225:245   */\n      calldataload\n        /* \"#utility.yul\":216:245   */\n      swap1\n      pop\n        /* \"#utility.yul\":254:287   */\n      tag_49\n        /* \"#utility.yul\":281:286   */\n      dup2\n        /* \"#utility.yul\":254:287   */\n      tag_50\n      jump\t// in\n    tag_49:\n        /* \"#utility.yul\":154:293   */\n      swap3\n      swap2\n      pop\n      pop\n      jump\t// out\n        /* \"#utility.yul\":299:442   */\n    tag_51:\n        /* \"#utility.yul\":356:361   */\n      0x00\n        /* \"#utility.yul\":387:393   */\n      dup2\n        /* \"#utility.yul\":381:394   */\n      mload\n        /* \"#utility.yul\":372:394   */\n      swap1\n      pop\n        /* \"#utility.yul\":403:436   */\n      tag_53\n        /* \"#utility.yul\":430:435   */\n      dup2\n        /* \"#utility.yul\":403:436   */\n      tag_50\n      jump\t// in\n    tag_53:\n        /* \"#utility.yul\":299:442   */\n      swap3\n      swap2\n      pop\n      pop\n      jump\t// out\n        /* \"#utility.yul\":448:589   */\n    tag_54:\n        /* \"#utility.yul\":504:509   */\n      0x00\n        /* \"#utility.yul\":535:541   */\n      dup2\n        /* \"#utility.yul\":529:542   */\n      mload\n        /* \"#utility.yul\":520:542   */\n      swap1\n      pop\n        /* \"#utility.yul\":551:583   */\n      tag_56\n        /* \"#utility.yul\":577:582   */\n      dup2\n        /* \"#utility.yul\":551:583   */\n      tag_57\n      jump\t// in\n    tag_56:\n        /* \"#utility.yul\":448:589   */\n      swap3\n      swap2\n      pop\n      pop\n      jump\t// out\n        /* \"#utility.yul\":595:924   */\n    tag_14:\n        /* \"#utility.yul\":654:660   */\n      0x00\n        /* \"#utility.yul\":703:705   */\n      0x20\n        /* \"#utility.yul\":691:700   */\n      dup3\n        /* \"#utility.yul\":682:689   */\n      dup5\n        /* \"#utility.yul\":678:701   */\n      sub\n        /* \"#utility.yul\":674:706   */\n      slt\n        /* \"#utility.yul\":671:790   */\n      iszero\n      tag_59\n      jumpi\n        /* \"#utility.yul\":709:788   */\n      tag_60\n      tag_61\n      jump\t// in\n    tag_60:\n        /* \"#utility.yul\":671:790   */\n    tag_59:\n        /* \"#utility.yul\":829:830   */\n      0x00\n        /* \"#utility.yul\":854:907   */\n      tag_62\n        /* \"#utility.yul\":899:906   */\n      dup5\n        /* \"#utility.yul\":890:896   */\n      dup3\n        /* \"#utility.yul\":879:888   */\n      dup6\n        /* \"#utility.yul\":875:897   */\n      add\n        /* \"#utility.yul\":854:907   */\n      tag_47\n      jump\t// in\n    tag_62:\n        /* \"#utility.yul\":844:907   */\n      swap2\n      pop\n        /* \"#utility.yul\":800:917   */\n      pop\n        /* \"#utility.yul\":595:924   */\n      swap3\n      swap2\n      pop\n      pop\n      jump\t// out\n        /* \"#utility.yul\":930:1281   */\n    tag_28:\n        /* \"#utility.yul\":1000:1006   */\n      0x00\n        /* \"#utility.yul\":1049:1051   */\n      0x20\n        /* \"#utility.yul\":1037:1046   */\n      dup3\n        /* \"#utility.yul\":1028:1035   */\n      dup5\n        /* \"#utility.yul\":1024:1047   */\n      sub\n        /* \"#utility.yul\":1020:1052   */\n      slt\n        /* \"#utility.yul\":1017:1136   */\n      iszero\n      tag_64\n      jumpi\n        /* \"#utility.yul\":1055:1134   */\n      tag_65\n      tag_61\n      jump\t// in\n    tag_65:\n        /* \"#utility.yul\":1017:1136   */\n    tag_64:\n        /* \"#utility.yul\":1175:1176   */\n      0x00\n        /* \"#utility.yul\":1200:1264   */\n      tag_66\n        /* \"#utility.yul\":1256:1263   */\n      dup5\n        /* \"#utility.yul\":1247:1253   */\n      dup3\n        /* \"#utility.yul\":1236:1245   */\n      dup6\n        /* \"#utility.yul\":1232:1254   */\n      add\n        /* \"#utility.yul\":1200:1264   */\n      tag_51\n      jump\t// in\n    tag_66:\n        /* \"#utility.yul\":1190:1264   */\n      swap2\n      pop\n        /* \"#utility.yul\":1146:1274   */\n      pop\n        /* \"#utility.yul\":930:1281   */\n      swap3\n      swap2\n      pop\n      pop\n      jump\t// out\n        /* \"#utility.yul\":1287:2258   */\n    tag_35:\n        /* \"#utility.yul\":1390:1396   */\n      0x00\n        /* \"#utility.yul\":1398:1404   */\n      dup1\n        /* \"#utility.yul\":1406:1412   */\n      0x00\n        /* \"#utility.yul\":1414:1420   */\n      dup1\n        /* \"#utility.yul\":1422:1428   */\n      0x00\n        /* \"#utility.yul\":1471:1474   */\n      0xa0\n        /* \"#utility.yul\":1459:1468   */\n      dup7\n        /* \"#utility.yul\":1450:1457   */\n      dup9\n        /* \"#utility.yul\":1446:1469   */\n      sub\n        /* \"#utility.yul\":1442:1475   */\n      slt\n        /* \"#utility.yul\":1439:1559   */\n      iszero\n      tag_68\n      jumpi\n        /* \"#utility.yul\":1478:1557   */\n      tag_69\n      tag_61\n      jump\t// in\n    tag_69:\n        /* \"#utility.yul\":1439:1559   */\n    tag_68:\n        /* \"#utility.yul\":1598:1599   */\n      0x00\n        /* \"#utility.yul\":1623:1686   */\n      tag_70\n        /* \"#utility.yul\":1678:1685   */\n      dup9\n        /* \"#utility.yul\":1669:1675   */\n      dup3\n        /* \"#utility.yul\":1658:1667   */\n      dup10\n        /* \"#utility.yul\":1654:1676   */\n      add\n        /* \"#utility.yul\":1623:1686   */\n      tag_54\n      jump\t// in\n    tag_70:\n        /* \"#utility.yul\":1613:1686   */\n      swap6\n      pop\n        /* \"#utility.yul\":1569:1696   */\n      pop\n        /* \"#utility.yul\":1735:1737   */\n      0x20\n        /* \"#utility.yul\":1761:1824   */\n      tag_71\n        /* \"#utility.yul\":1816:1823   */\n      dup9\n        /* \"#utility.yul\":1807:1813   */\n      dup3\n        /* \"#utility.yul\":1796:1805   */\n      dup10\n        /* \"#utility.yul\":1792:1814   */\n      add\n        /* \"#utility.yul\":1761:1824   */\n      tag_43\n      jump\t// in\n    tag_71:\n        /* \"#utility.yul\":1751:1824   */\n      swap5\n      pop\n        /* \"#utility.yul\":1706:1834   */\n      pop\n        /* \"#utility.yul\":1873:1875   */\n      0x40\n        /* \"#utility.yul\":1899:1963   */\n      tag_72\n        /* \"#utility.yul\":1955:1962   */\n      dup9\n        /* \"#utility.yul\":1946:1952   */\n      dup3\n        /* \"#utility.yul\":1935:1944   */\n      dup10\n        /* \"#utility.yul\":1931:1953   */\n      add\n        /* \"#utility.yul\":1899:1963   */\n      tag_51\n      jump\t// in\n    tag_72:\n        /* \"#utility.yul\":1889:1963   */\n      swap4\n      pop\n        /* \"#utility.yul\":1844:1973   */\n      pop\n        /* \"#utility.yul\":2012:2014   */\n      0x60\n        /* \"#utility.yul\":2038:2102   */\n      tag_73\n        /* \"#utility.yul\":2094:2101   */\n      dup9\n        /* \"#utility.yul\":2085:2091   */\n      dup3\n        /* \"#utility.yul\":2074:2083   */\n      dup10\n        /* \"#utility.yul\":2070:2092   */\n      add\n        /* \"#utility.yul\":2038:2102   */\n      tag_51\n      jump\t// in\n    tag_73:\n        /* \"#utility.yul\":2028:2102   */\n      swap3\n      pop\n        /* \"#utility.yul\":1983:2112   */\n      pop\n        /* \"#utility.yul\":2151:2154   */\n      0x80\n        /* \"#utility.yul\":2178:2241   */\n      tag_74\n        /* \"#utility.yul\":2233:2240   */\n      dup9\n        /* \"#utility.yul\":2224:2230   */\n      dup3\n        /* \"#utility.yul\":2213:2222   */\n      dup10\n        /* \"#utility.yul\":2209:2231   */\n      add\n        /* \"#utility.yul\":2178:2241   */\n      tag_54\n      jump\t// in\n    tag_74:\n        /* \"#utility.yul\":2168:2241   */\n      swap2\n      pop\n        /* \"#utility.yul\":2122:2251   */\n      pop\n        /* \"#utility.yul\":1287:2258   */\n      swap3\n      swap6\n      pop\n      swap3\n      swap6\n      swap1\n      swap4\n      pop\n      jump\t// out\n        /* \"#utility.yul\":2264:2630   */\n    tag_75:\n        /* \"#utility.yul\":2406:2409   */\n      0x00\n        /* \"#utility.yul\":2427:2494   */\n      tag_77\n        /* \"#utility.yul\":2491:2493   */\n      0x12\n        /* \"#utility.yul\":2486:2489   */\n      dup4\n        /* \"#utility.yul\":2427:2494   */\n      tag_78\n      jump\t// in\n    tag_77:\n        /* \"#utility.yul\":2420:2494   */\n      swap2\n      pop\n        /* \"#utility.yul\":2503:2596   */\n      tag_79\n        /* \"#utility.yul\":2592:2595   */\n      dup3\n        /* \"#utility.yul\":2503:2596   */\n      tag_80\n      jump\t// in\n    tag_79:\n        /* \"#utility.yul\":2621:2623   */\n      0x20\n        /* \"#utility.yul\":2616:2619   */\n      dup3\n        /* \"#utility.yul\":2612:2624   */\n      add\n        /* \"#utility.yul\":2605:2624   */\n      swap1\n      pop\n        /* \"#utility.yul\":2264:2630   */\n      swap2\n      swap1\n      pop\n      jump\t// out\n        /* \"#utility.yul\":2636:2754   */\n    tag_81:\n        /* \"#utility.yul\":2723:2747   */\n      tag_83\n        /* \"#utility.yul\":2741:2746   */\n      dup2\n        /* \"#utility.yul\":2723:2747   */\n      tag_84\n      jump\t// in\n    tag_83:\n        /* \"#utility.yul\":2718:2721   */\n      dup3\n        /* \"#utility.yul\":2711:2748   */\n      mstore\n        /* \"#utility.yul\":2636:2754   */\n      pop\n      pop\n      jump\t// out\n        /* \"#utility.yul\":2760:3179   */\n    tag_41:\n        /* \"#utility.yul\":2926:2930   */\n      0x00\n        /* \"#utility.yul\":2964:2966   */\n      0x20\n        /* \"#utility.yul\":2953:2962   */\n      dup3\n        /* \"#utility.yul\":2949:2967   */\n      add\n        /* \"#utility.yul\":2941:2967   */\n      swap1\n      pop\n        /* \"#utility.yul\":3013:3022   */\n      dup2\n        /* \"#utility.yul\":3007:3011   */\n      dup2\n        /* \"#utility.yul\":3003:3023   */\n      sub\n        /* \"#utility.yul\":2999:3000   */\n      0x00\n        /* \"#utility.yul\":2988:2997   */\n      dup4\n        /* \"#utility.yul\":2984:3001   */\n      add\n        /* \"#utility.yul\":2977:3024   */\n      mstore\n        /* \"#utility.yul\":3041:3172   */\n      tag_86\n        /* \"#utility.yul\":3167:3171   */\n      dup2\n        /* \"#utility.yul\":3041:3172   */\n      tag_75\n      jump\t// in\n    tag_86:\n        /* \"#utility.yul\":3033:3172   */\n      swap1\n      pop\n        /* \"#utility.yul\":2760:3179   */\n      swap2\n      swap1\n      pop\n      jump\t// out\n        /* \"#utility.yul\":3185:3407   */\n    tag_10:\n        /* \"#utility.yul\":3278:3282   */\n      0x00\n        /* \"#utility.yul\":3316:3318   */\n      0x20\n        /* \"#utility.yul\":3305:3314   */\n      dup3\n        /* \"#utility.yul\":3301:3319   */\n      add\n        /* \"#utility.yul\":3293:3319   */\n      swap1\n      pop\n        /* \"#utility.yul\":3329:3400   */\n      tag_88\n        /* \"#utility.yul\":3397:3398   */\n      0x00\n        /* \"#utility.yul\":3386:3395   */\n      dup4\n        /* \"#utility.yul\":3382:3399   */\n      add\n        /* \"#utility.yul\":3373:3379   */\n      dup5\n        /* \"#utility.yul\":3329:3400   */\n      tag_81\n      jump\t// in\n    tag_88:\n        /* \"#utility.yul\":3185:3407   */\n      swap3\n      swap2\n      pop\n      pop\n      jump\t// out\n        /* \"#utility.yul\":3494:3663   */\n    tag_78:\n        /* \"#utility.yul\":3578:3589   */\n      0x00\n        /* \"#utility.yul\":3612:3618   */\n      dup3\n        /* \"#utility.yul\":3607:3610   */\n      dup3\n        /* \"#utility.yul\":3600:3619   */\n      mstore\n        /* \"#utility.yul\":3652:3656   */\n      0x20\n        /* \"#utility.yul\":3647:3650   */\n      dup3\n        /* \"#utility.yul\":3643:3657   */\n      add\n        /* \"#utility.yul\":3628:3657   */\n      swap1\n      pop\n        /* \"#utility.yul\":3494:3663   */\n      swap3\n      swap2\n      pop\n      pop\n      jump\t// out\n        /* \"#utility.yul\":3669:4660   */\n    tag_37:\n        /* \"#utility.yul\":3708:3715   */\n      0x00\n        /* \"#utility.yul\":3731:3750   */\n      tag_93\n        /* \"#utility.yul\":3748:3749   */\n      dup3\n        /* \"#utility.yul\":3731:3750   */\n      tag_94\n      jump\t// in\n    tag_93:\n        /* \"#utility.yul\":3726:3750   */\n      swap2\n      pop\n        /* \"#utility.yul\":3764:3783   */\n      tag_95\n        /* \"#utility.yul\":3781:3782   */\n      dup4\n        /* \"#utility.yul\":3764:3783   */\n      tag_94\n      jump\t// in\n    tag_95:\n        /* \"#utility.yul\":3759:3783   */\n      swap3\n      pop\n        /* \"#utility.yul\":3965:3966   */\n      dup3\n        /* \"#utility.yul\":3897:3963   */\n      0x7fffffffffffffffffffffffffffffffffffffffffffffffffffffffffffffff\n        /* \"#utility.yul\":3893:3967   */\n      div\n        /* \"#utility.yul\":3890:3891   */\n      dup3\n        /* \"#utility.yul\":3887:3968   */\n      gt\n        /* \"#utility.yul\":3882:3883   */\n      0x00\n        /* \"#utility.yul\":3879:3880   */\n      dup5\n        /* \"#utility.yul\":3875:3884   */\n      sgt\n        /* \"#utility.yul\":3871:3872   */\n      0x00\n        /* \"#utility.yul\":3868:3869   */\n      dup5\n        /* \"#utility.yul\":3864:3873   */\n      sgt\n        /* \"#utility.yul\":3860:3885   */\n      and\n        /* \"#utility.yul\":3856:3969   */\n      and\n        /* \"#utility.yul\":3853:3992   */\n      iszero\n      tag_96\n      jumpi\n        /* \"#utility.yul\":3972:3990   */\n      tag_97\n      tag_98\n      jump\t// in\n    tag_97:\n        /* \"#utility.yul\":3853:3992   */\n    tag_96:\n        /* \"#utility.yul\":4176:4177   */\n      dup2\n        /* \"#utility.yul\":4108:4174   */\n      0x8000000000000000000000000000000000000000000000000000000000000000\n        /* \"#utility.yul\":4103:4178   */\n      sdiv\n        /* \"#utility.yul\":4100:4101   */\n      dup4\n        /* \"#utility.yul\":4096:4179   */\n      slt\n        /* \"#utility.yul\":4091:4092   */\n      0x00\n        /* \"#utility.yul\":4088:4089   */\n      dup5\n        /* \"#utility.yul\":4084:4093   */\n      slt\n        /* \"#utility.yul\":4080:4081   */\n      0x00\n        /* \"#utility.yul\":4077:4078   */\n      dup5\n        /* \"#utility.yul\":4073:4082   */\n      sgt\n        /* \"#utility.yul\":4069:4094   */\n      and\n        /* \"#utility.yul\":4065:4180   */\n      and\n        /* \"#utility.yul\":4062:4203   */\n      iszero\n      tag_99\n      jumpi\n        /* \"#utility.yul\":4183:4201   */\n      tag_100\n      tag_98\n      jump\t// in\n    tag_100:\n        /* \"#utility.yul\":4062:4203   */\n    tag_99:\n        /* \"#utility.yul\":4387:4388   */\n      dup3\n        /* \"#utility.yul\":4319:4385   */\n      0x8000000000000000000000000000000000000000000000000000000000000000\n        /* \"#utility.yul\":4314:4389   */\n      sdiv\n        /* \"#utility.yul\":4311:4312   */\n      dup3\n        /* \"#utility.yul\":4307:4390   */\n      slt\n        /* \"#utility.yul\":4302:4303   */\n      0x00\n        /* \"#utility.yul\":4299:4300   */\n      dup5\n        /* \"#utility.yul\":4295:4304   */\n      sgt\n        /* \"#utility.yul\":4291:4292   */\n      0x00\n        /* \"#utility.yul\":4288:4289   */\n      dup5\n        /* \"#utility.yul\":4284:4293   */\n      slt\n        /* \"#utility.yul\":4280:4305   */\n      and\n        /* \"#utility.yul\":4276:4391   */\n      and\n        /* \"#utility.yul\":4273:4414   */\n      iszero\n      tag_101\n      jumpi\n        /* \"#utility.yul\":4394:4412   */\n      tag_102\n      tag_98\n      jump\t// in\n    tag_102:\n        /* \"#utility.yul\":4273:4414   */\n    tag_101:\n        /* \"#utility.yul\":4597:4598   */\n      dup3\n        /* \"#utility.yul\":4529:4595   */\n      0x7fffffffffffffffffffffffffffffffffffffffffffffffffffffffffffffff\n        /* \"#utility.yul\":4524:4599   */\n      sdiv\n        /* \"#utility.yul\":4521:4522   */\n      dup3\n        /* \"#utility.yul\":4517:4600   */\n      slt\n        /* \"#utility.yul\":4512:4513   */\n      0x00\n        /* \"#utility.yul\":4509:4510   */\n      dup5\n        /* \"#utility.yul\":4505:4514   */\n      slt\n        /* \"#utility.yul\":4501:4502   */\n      0x00\n        /* \"#utility.yul\":4498:4499   */\n      dup5\n        /* \"#utility.yul\":4494:4503   */\n      slt\n        /* \"#utility.yul\":4490:4515   */\n      and\n        /* \"#utility.yul\":4486:4601   */\n      and\n        /* \"#utility.yul\":4483:4624   */\n      iszero\n      tag_103\n      jumpi\n        /* \"#utility.yul\":4604:4622   */\n      tag_104\n      tag_98\n      jump\t// in\n    tag_104:\n        /* \"#utility.yul\":4483:4624   */\n    tag_103:\n        /* \"#utility.yul\":4652:4653   */\n      dup3\n        /* \"#utility.yul\":4649:4650   */\n      dup3\n        /* \"#utility.yul\":4645:4654   */\n      mul\n        /* \"#utility.yul\":4634:4654   */\n      swap1\n      pop\n        /* \"#utility.yul\":3669:4660   */\n      swap3\n      swap2\n      pop\n      pop\n      jump\t// out\n        /* \"#utility.yul\":4666:4742   */\n    tag_94:\n        /* \"#utility.yul\":4702:4709   */\n      0x00\n        /* \"#utility.yul\":4731:4736   */\n      dup2\n        /* \"#utility.yul\":4720:4736   */\n      swap1\n      pop\n        /* \"#utility.yul\":4666:4742   */\n      swap2\n      swap1\n      pop\n      jump\t// out\n        /* \"#utility.yul\":4748:4825   */\n    tag_84:\n        /* \"#utility.yul\":4785:4792   */\n      0x00\n        /* \"#utility.yul\":4814:4819   */\n      dup2\n        /* \"#utility.yul\":4803:4819   */\n      swap1\n      pop\n        /* \"#utility.yul\":4748:4825   */\n      swap2\n      swap1\n      pop\n      jump\t// out\n        /* \"#utility.yul\":4831:4936   */\n    tag_107:\n        /* \"#utility.yul\":4867:4874   */\n      0x00\n        /* \"#utility.yul\":4907:4929   */\n      0xffffffffffffffffffff\n        /* \"#utility.yul\":4900:4905   */\n      dup3\n        /* \"#utility.yul\":4896:4930   */\n      and\n        /* \"#utility.yul\":4885:4930   */\n      swap1\n      pop\n        /* \"#utility.yul\":4831:4936   */\n      swap2\n      swap1\n      pop\n      jump\t// out\n        /* \"#utility.yul\":4942:5122   */\n    tag_98:\n        /* \"#utility.yul\":4990:5067   */\n      0x4e487b7100000000000000000000000000000000000000000000000000000000\n        /* \"#utility.yul\":4987:4988   */\n      0x00\n        /* \"#utility.yul\":4980:5068   */\n      mstore\n        /* \"#utility.yul\":5087:5091   */\n      0x11\n        /* \"#utility.yul\":5084:5085   */\n      0x04\n        /* \"#utility.yul\":5077:5092   */\n      mstore\n        /* \"#utility.yul\":5111:5115   */\n      0x24\n        /* \"#utility.yul\":5108:5109   */\n      0x00\n        /* \"#utility.yul\":5101:5116   */\n      revert\n        /* \"#utility.yul\":5251:5368   */\n    tag_61:\n        /* \"#utility.yul\":5360:5361   */\n      0x00\n        /* \"#utility.yul\":5357:5358   */\n      dup1\n        /* \"#utility.yul\":5350:5362   */\n      revert\n        /* \"#utility.yul\":5374:5542   */\n    tag_80:\n        /* \"#utility.yul\":5514:5534   */\n      0x4469646e27742073656e6420656e6f7567680000000000000000000000000000\n        /* \"#utility.yul\":5510:5511   */\n      0x00\n        /* \"#utility.yul\":5502:5508   */\n      dup3\n        /* \"#utility.yul\":5498:5512   */\n      add\n        /* \"#utility.yul\":5491:5535   */\n      mstore\n        /* \"#utility.yul\":5374:5542   */\n      pop\n      jump\t// out\n        /* \"#utility.yul\":5548:5668   */\n    tag_46:\n        /* \"#utility.yul\":5620:5643   */\n      tag_115\n        /* \"#utility.yul\":5637:5642   */\n      dup2\n        /* \"#utility.yul\":5620:5643   */\n      tag_94\n      jump\t// in\n    tag_115:\n        /* \"#utility.yul\":5613:5618   */\n      dup2\n        /* \"#utility.yul\":5610:5644   */\n      eq\n        /* \"#utility.yul\":5600:5662   */\n      tag_116\n      jumpi\n        /* \"#utility.yul\":5658:5659   */\n      0x00\n        /* \"#utility.yul\":5655:5656   */\n      dup1\n        /* \"#utility.yul\":5648:5660   */\n      revert\n        /* \"#utility.yul\":5600:5662   */\n    tag_116:\n        /* \"#utility.yul\":5548:5668   */\n      pop\n      jump\t// out\n        /* \"#utility.yul\":5674:5796   */\n    tag_50:\n        /* \"#utility.yul\":5747:5771   */\n      tag_118\n        /* \"#utility.yul\":5765:5770   */\n      dup2\n        /* \"#utility.yul\":5747:5771   */\n      tag_84\n      jump\t// in\n    tag_118:\n        /* \"#utility.yul\":5740:5745   */\n      dup2\n        /* \"#utility.yul\":5737:5772   */\n      eq\n        /* \"#utility.yul\":5727:5790   */\n      tag_119\n      jumpi\n        /* \"#utility.yul\":5786:5787   */\n      0x00\n        /* \"#utility.yul\":5783:5784   */\n      dup1\n        /* \"#utility.yul\":5776:5788   */\n      revert\n        /* \"#utility.yul\":5727:5790   */\n    tag_119:\n        /* \"#utility.yul\":5674:5796   */\n      pop\n      jump\t// out\n        /* \"#utility.yul\":5802:5922   */\n    tag_57:\n        /* \"#utility.yul\":5874:5897   */\n      tag_121\n        /* \"#utility.yul\":5891:5896   */\n      dup2\n        /* \"#utility.yul\":5874:5897   */\n      tag_107\n      jump\t// in\n    tag_121:\n        /* \"#utility.yul\":5867:5872   */\n      dup2\n        /* \"#utility.yul\":5864:5898   */\n      eq\n        /* \"#utility.yul\":5854:5916   */\n      tag_122\n      jumpi\n        /* \"#utility.yul\":5912:5913   */\n      0x00\n        /* \"#utility.yul\":5909:5910   */\n      dup1\n        /* \"#utility.yul\":5902:5914   */\n      revert\n        /* \"#utility.yul\":5854:5916   */\n    tag_122:\n        /* \"#utility.yul\":5802:5922   */\n      pop\n      jump\t// out\n\n    auxdata: 0xa2646970667358221220898a6ce9dc353251df3dd39d2b25c6faa52ad8962bef75777a43cd540768dd1d64736f6c63430008070033\n}\n",
				"bytecode": {
					"linkReferences": {},
					"object": "608060405273d4a33860578de61dbabdc8bfdb98fd742fa7028e6000806101000a81548173ffffffffffffffffffffffffffffffffffffffff021916908373ffffffffffffffffffffffffffffffffffffffff16021790555034801561006457600080fd5b50610659806100746000396000f3fe60806040526004361061003f5760003560e01c80630d8e6e2c146100445780636e5b6b281461006f57806398d5fdca146100ac578063b60d4288146100d7575b600080fd5b34801561005057600080fd5b506100596100e1565b6040516100669190610414565b60405180910390f35b34801561007b57600080fd5b50610096600480360381019061009191906102ed565b610187565b6040516100a39190610414565b60405180910390f35b3480156100b857600080fd5b506100c161018e565b6040516100ce9190610414565b60405180910390f35b6100df61024c565b005b60008060009054906101000a900473ffffffffffffffffffffffffffffffffffffffff1673ffffffffffffffffffffffffffffffffffffffff166354fd4d506040518163ffffffff1660e01b815260040160206040518083038186803b15801561014a57600080fd5b505afa15801561015e573d6000803e3d6000fd5b505050506040513d601f19601f82011682018060405250810190610182919061031a565b905090565b6000919050565b60008060008054906101000a900473ffffffffffffffffffffffffffffffffffffffff1673ffffffffffffffffffffffffffffffffffffffff1663feaf968c6040518163ffffffff1660e01b815260040160a06040518083038186803b1580156101f757600080fd5b505afa15801561020b573d6000803e3d6000fd5b505050506040513d601f19601f8201168201806040525081019061022f9190610347565b5050509150506402540be400816102469190610440565b91505090565b670de0b6b3a7640000341015610297576040517f08c379a000000000000000000000000000000000000000000000000000000000815260040161028e906103f4565b60405180910390fd5b565b6000815190506102a8816105de565b92915050565b6000813590506102bd816105f5565b92915050565b6000815190506102d2816105f5565b92915050565b6000815190506102e78161060c565b92915050565b600060208284031215610303576103026105b0565b5b6000610311848285016102ae565b91505092915050565b6000602082840312156103305761032f6105b0565b5b600061033e848285016102c3565b91505092915050565b600080600080600060a08688031215610363576103626105b0565b5b6000610371888289016102d8565b955050602061038288828901610299565b9450506040610393888289016102c3565b93505060606103a4888289016102c3565b92505060806103b5888289016102d8565b9150509295509295909350565b60006103cf60128361042f565b91506103da826105b5565b602082019050919050565b6103ee81610561565b82525050565b6000602082019050818103600083015261040d816103c2565b9050919050565b600060208201905061042960008301846103e5565b92915050565b600082825260208201905092915050565b600061044b82610557565b915061045683610557565b9250827f7fffffffffffffffffffffffffffffffffffffffffffffffffffffffffffffff048211600084136000841316161561049557610494610581565b5b817f800000000000000000000000000000000000000000000000000000000000000005831260008412600084131616156104d2576104d1610581565b5b827f8000000000000000000000000000000000000000000000000000000000000000058212600084136000841216161561050f5761050e610581565b5b827f7fffffffffffffffffffffffffffffffffffffffffffffffffffffffffffffff058212600084126000841216161561054c5761054b610581565b5b828202905092915050565b6000819050919050565b6000819050919050565b600069ffffffffffffffffffff82169050919050565b7f4e487b7100000000000000000000000000000000000000000000000000000000600052601160045260246000fd5b600080fd5b7f4469646e27742073656e6420656e6f7567680000000000000000000000000000600082015250565b6105e781610557565b81146105f257600080fd5b50565b6105fe81610561565b811461060957600080fd5b50565b6106158161056b565b811461062057600080fd5b5056fea2646970667358221220898a6ce9dc353251df3dd39d2b25c6faa52ad8962bef75777a43cd540768dd1d64736f6c63430008070033",
					"opcodes": "PUSH1 0x80 PUSH1 0x40 MSTORE PUSH20 0xD4A33860578DE61DBABDC8BFDB98FD742FA7028E PUSH1 0x0 DUP1 PUSH2 0x100 EXP DUP2 SLOAD DUP2 PUSH20 0xFFFFFFFFFFFFFFFFFFFFFFFFFFFFFFFFFFFFFFFF MUL NOT AND SWAP1 DUP4 PUSH20 0xFFFFFFFFFFFFFFFFFFFFFFFFFFFFFFFFFFFFFFFF AND MUL OR SWAP1 SSTORE POP CALLVALUE DUP1 ISZERO PUSH2 0x64 JUMPI PUSH1 0x0 DUP1 REVERT JUMPDEST POP PUSH2 0x659 DUP1 PUSH2 0x74 PUSH1 0x0 CODECOPY PUSH1 0x0 RETURN INVALID PUSH1 0x80 PUSH1 0x40 MSTORE PUSH1 0x4 CALLDATASIZE LT PUSH2 0x3F JUMPI PUSH1 0x0 CALLDATALOAD PUSH1 0xE0 SHR DUP1 PUSH4 0xD8E6E2C EQ PUSH2 0x44 JUMPI DUP1 PUSH4 0x6E5B6B28 EQ PUSH2 0x6F JUMPI DUP1 PUSH4 0x98D5FDCA EQ PUSH2 0xAC JUMPI DUP1 PUSH4 0xB60D4288 EQ PUSH2 0xD7 JUMPI JUMPDEST PUSH1 0x0 DUP1 REVERT JUMPDEST CALLVALUE DUP1 ISZERO PUSH2 0x50 JUMPI PUSH1 0x0 DUP1 REVERT JUMPDEST POP PUSH2 0x59 PUSH2 0xE1 JUMP JUMPDEST PUSH1 0x40 MLOAD PUSH2 0x66 SWAP2 SWAP1 PUSH2 0x414 JUMP JUMPDEST PUSH1 0x40 MLOAD DUP1 SWAP2 SUB SWAP1 RETURN JUMPDEST CALLVALUE DUP1 ISZERO PUSH2 0x7B JUMPI PUSH1 0x0 DUP1 REVERT JUMPDEST POP PUSH2 0x96 PUSH1 0x4 DUP1 CALLDATASIZE SUB DUP2 ADD SWAP1 PUSH2 0x91 SWAP2 SWAP1 PUSH2 0x2ED JUMP JUMPDEST PUSH2 0x187 JUMP JUMPDEST PUSH1 0x40 MLOAD PUSH2 0xA3 SWAP2 SWAP1 PUSH2 0x414 JUMP JUMPDEST PUSH1 0x40 MLOAD DUP1 SWAP2 SUB SWAP1 RETURN JUMPDEST CALLVALUE DUP1 ISZERO PUSH2 0xB8 JUMPI PUSH1 0x0 DUP1 REVERT JUMPDEST POP PUSH2 0xC1 PUSH2 0x18E JUMP JUMPDEST PUSH1 0x40 MLOAD PUSH2 0xCE SWAP2 SWAP1 PUSH2 0x414 JUMP JUMPDEST PUSH1 0x40 MLOAD DUP1 SWAP2 SUB SWAP1 RETURN JUMPDEST PUSH2 0xDF PUSH2 0x24C JUMP JUMPDEST STOP JUMPDEST PUSH1 0x0 DUP1 PUSH1 0x0 SWAP1 SLOAD SWAP1 PUSH2 0x100 EXP SWAP1 DIV PUSH20 0xFFFFFFFFFFFFFFFFFFFFFFFFFFFFFFFFFFFFFFFF AND PUSH20 0xFFFFFFFFFFFFFFFFFFFFFFFFFFFFFFFFFFFFFFFF AND PUSH4 0x54FD4D50 PUSH1 0x40 MLOAD DUP2 PUSH4 0xFFFFFFFF AND PUSH1 0xE0 SHL DUP2 MSTORE PUSH1 0x4 ADD PUSH1 0x20 PUSH1 0x40 MLOAD DUP1 DUP4 SUB DUP2 DUP7 DUP1 EXTCODESIZE ISZERO DUP1 ISZERO PUSH2 0x14A JUMPI PUSH1 0x0 DUP1 REVERT JUMPDEST POP GAS STATICCALL ISZERO DUP1 ISZERO PUSH2 0x15E JUMPI RETURNDATASIZE PUSH1 0x0 DUP1 RETURNDATACOPY RETURNDATASIZE PUSH1 0x0 REVERT JUMPDEST POP POP POP POP PUSH1 0x40 MLOAD RETURNDATASIZE PUSH1 0x1F NOT PUSH1 0x1F DUP3 ADD AND DUP3 ADD DUP1 PUSH1 0x40 MSTORE POP DUP2 ADD SWAP1 PUSH2 0x182 SWAP2 SWAP1 PUSH2 0x31A JUMP JUMPDEST SWAP1 POP SWAP1 JUMP JUMPDEST PUSH1 0x0 SWAP2 SWAP1 POP JUMP JUMPDEST PUSH1 0x0 DUP1 PUSH1 0x0 DUP1 SLOAD SWAP1 PUSH2 0x100 EXP SWAP1 DIV PUSH20 0xFFFFFFFFFFFFFFFFFFFFFFFFFFFFFFFFFFFFFFFF AND PUSH20 0xFFFFFFFFFFFFFFFFFFFFFFFFFFFFFFFFFFFFFFFF AND PUSH4 0xFEAF968C PUSH1 0x40 MLOAD DUP2 PUSH4 0xFFFFFFFF AND PUSH1 0xE0 SHL DUP2 MSTORE PUSH1 0x4 ADD PUSH1 0xA0 PUSH1 0x40 MLOAD DUP1 DUP4 SUB DUP2 DUP7 DUP1 EXTCODESIZE ISZERO DUP1 ISZERO PUSH2 0x1F7 JUMPI PUSH1 0x0 DUP1 REVERT JUMPDEST POP GAS STATICCALL ISZERO DUP1 ISZERO PUSH2 0x20B JUMPI RETURNDATASIZE PUSH1 0x0 DUP1 RETURNDATACOPY RETURNDATASIZE PUSH1 0x0 REVERT JUMPDEST POP POP POP POP PUSH1 0x40 MLOAD RETURNDATASIZE PUSH1 0x1F NOT PUSH1 0x1F DUP3 ADD AND DUP3 ADD DUP1 PUSH1 0x40 MSTORE POP DUP2 ADD SWAP1 PUSH2 0x22F SWAP2 SWAP1 PUSH2 0x347 JUMP JUMPDEST POP POP POP SWAP2 POP POP PUSH5 0x2540BE400 DUP2 PUSH2 0x246 SWAP2 SWAP1 PUSH2 0x440 JUMP JUMPDEST SWAP2 POP POP SWAP1 JUMP JUMPDEST PUSH8 0xDE0B6B3A7640000 CALLVALUE LT ISZERO PUSH2 0x297 JUMPI PUSH1 0x40 MLOAD PUSH32 0x8C379A000000000000000000000000000000000000000000000000000000000 DUP2 MSTORE PUSH1 0x4 ADD PUSH2 0x28E SWAP1 PUSH2 0x3F4 JUMP JUMPDEST PUSH1 0x40 MLOAD DUP1 SWAP2 SUB SWAP1 REVERT JUMPDEST JUMP JUMPDEST PUSH1 0x0 DUP2 MLOAD SWAP1 POP PUSH2 0x2A8 DUP2 PUSH2 0x5DE JUMP JUMPDEST SWAP3 SWAP2 POP POP JUMP JUMPDEST PUSH1 0x0 DUP2 CALLDATALOAD SWAP1 POP PUSH2 0x2BD DUP2 PUSH2 0x5F5 JUMP JUMPDEST SWAP3 SWAP2 POP POP JUMP JUMPDEST PUSH1 0x0 DUP2 MLOAD SWAP1 POP PUSH2 0x2D2 DUP2 PUSH2 0x5F5 JUMP JUMPDEST SWAP3 SWAP2 POP POP JUMP JUMPDEST PUSH1 0x0 DUP2 MLOAD SWAP1 POP PUSH2 0x2E7 DUP2 PUSH2 0x60C JUMP JUMPDEST SWAP3 SWAP2 POP POP JUMP JUMPDEST PUSH1 0x0 PUSH1 0x20 DUP3 DUP5 SUB SLT ISZERO PUSH2 0x303 JUMPI PUSH2 0x302 PUSH2 0x5B0 JUMP JUMPDEST JUMPDEST PUSH1 0x0 PUSH2 0x311 DUP5 DUP3 DUP6 ADD PUSH2 0x2AE JUMP JUMPDEST SWAP2 POP POP SWAP3 SWAP2 POP POP JUMP JUMPDEST PUSH1 0x0 PUSH1 0x20 DUP3 DUP5 SUB SLT ISZERO PUSH2 0x330 JUMPI PUSH2 0x32F PUSH2 0x5B0 JUMP JUMPDEST JUMPDEST PUSH1 0x0 PUSH2 0x33E DUP5 DUP3 DUP6 ADD PUSH2 0x2C3 JUMP JUMPDEST SWAP2 POP POP SWAP3 SWAP2 POP POP JUMP JUMPDEST PUSH1 0x0 DUP1 PUSH1 0x0 DUP1 PUSH1 0x0 PUSH1 0xA0 DUP7 DUP9 SUB SLT ISZERO PUSH2 0x363 JUMPI PUSH2 0x362 PUSH2 0x5B0 JUMP JUMPDEST JUMPDEST PUSH1 0x0 PUSH2 0x371 DUP9 DUP3 DUP10 ADD PUSH2 0x2D8 JUMP JUMPDEST SWAP6 POP POP PUSH1 0x20 PUSH2 0x382 DUP9 DUP3 DUP10 ADD PUSH2 0x299 JUMP JUMPDEST SWAP5 POP POP PUSH1 0x40 PUSH2 0x393 DUP9 DUP3 DUP10 ADD PUSH2 0x2C3 JUMP JUMPDEST SWAP4 POP POP PUSH1 0x60 PUSH2 0x3A4 DUP9 DUP3 DUP10 ADD PUSH2 0x2C3 JUMP JUMPDEST SWAP3 POP POP PUSH1 0x80 PUSH2 0x3B5 DUP9 DUP3 DUP10 ADD PUSH2 0x2D8 JUMP JUMPDEST SWAP2 POP POP SWAP3 SWAP6 POP SWAP3 SWAP6 SWAP1 SWAP4 POP JUMP JUMPDEST PUSH1 0x0 PUSH2 0x3CF PUSH1 0x12 DUP4 PUSH2 0x42F JUMP JUMPDEST SWAP2 POP PUSH2 0x3DA DUP3 PUSH2 0x5B5 JUMP JUMPDEST PUSH1 0x20 DUP3 ADD SWAP1 POP SWAP2 SWAP1 POP JUMP JUMPDEST PUSH2 0x3EE DUP2 PUSH2 0x561 JUMP JUMPDEST DUP3 MSTORE POP POP JUMP JUMPDEST PUSH1 0x0 PUSH1 0x20 DUP3 ADD SWAP1 POP DUP2 DUP2 SUB PUSH1 0x0 DUP4 ADD MSTORE PUSH2 0x40D DUP2 PUSH2 0x3C2 JUMP JUMPDEST SWAP1 POP SWAP2 SWAP1 POP JUMP JUMPDEST PUSH1 0x0 PUSH1 0x20 DUP3 ADD SWAP1 POP PUSH2 0x429 PUSH1 0x0 DUP4 ADD DUP5 PUSH2 0x3E5 JUMP JUMPDEST SWAP3 SWAP2 POP POP JUMP JUMPDEST PUSH1 0x0 DUP3 DUP3 MSTORE PUSH1 0x20 DUP3 ADD SWAP1 POP SWAP3 SWAP2 POP POP JUMP JUMPDEST PUSH1 0x0 PUSH2 0x44B DUP3 PUSH2 0x557 JUMP JUMPDEST SWAP2 POP PUSH2 0x456 DUP4 PUSH2 0x557 JUMP JUMPDEST SWAP3 POP DUP3 PUSH32 0x7FFFFFFFFFFFFFFFFFFFFFFFFFFFFFFFFFFFFFFFFFFFFFFFFFFFFFFFFFFFFFFF DIV DUP3 GT PUSH1 0x0 DUP5 SGT PUSH1 0x0 DUP5 SGT AND AND ISZERO PUSH2 0x495 JUMPI PUSH2 0x494 PUSH2 0x581 JUMP JUMPDEST JUMPDEST DUP2 PUSH32 0x8000000000000000000000000000000000000000000000000000000000000000 SDIV DUP4 SLT PUSH1 0x0 DUP5 SLT PUSH1 0x0 DUP5 SGT AND AND ISZERO PUSH2 0x4D2 JUMPI PUSH2 0x4D1 PUSH2 0x581 JUMP JUMPDEST JUMPDEST DUP3 PUSH32 0x8000000000000000000000000000000000000000000000000000000000000000 SDIV DUP3 SLT PUSH1 0x0 DUP5 SGT PUSH1 0x0 DUP5 SLT AND AND ISZERO PUSH2 0x50F JUMPI PUSH2 0x50E PUSH2 0x581 JUMP JUMPDEST JUMPDEST DUP3 PUSH32 0x7FFFFFFFFFFFFFFFFFFFFFFFFFFFFFFFFFFFFFFFFFFFFFFFFFFFFFFFFFFFFFFF SDIV DUP3 SLT PUSH1 0x0 DUP5 SLT PUSH1 0x0 DUP5 SLT AND AND ISZERO PUSH2 0x54C JUMPI PUSH2 0x54B PUSH2 0x581 JUMP JUMPDEST JUMPDEST DUP3 DUP3 MUL SWAP1 POP SWAP3 SWAP2 POP POP JUMP JUMPDEST PUSH1 0x0 DUP2 SWAP1 POP SWAP2 SWAP1 POP JUMP JUMPDEST PUSH1 0x0 DUP2 SWAP1 POP SWAP2 SWAP1 POP JUMP JUMPDEST PUSH1 0x0 PUSH10 0xFFFFFFFFFFFFFFFFFFFF DUP3 AND SWAP1 POP SWAP2 SWAP1 POP JUMP JUMPDEST PUSH32 0x4E487B7100000000000000000000000000000000000000000000000000000000 PUSH1 0x0 MSTORE PUSH1 0x11 PUSH1 0x4 MSTORE PUSH1 0x24 PUSH1 0x0 REVERT JUMPDEST PUSH1 0x0 DUP1 REVERT JUMPDEST PUSH32 0x4469646E27742073656E6420656E6F7567680000000000000000000000000000 PUSH1 0x0 DUP3 ADD MSTORE POP JUMP JUMPDEST PUSH2 0x5E7 DUP2 PUSH2 0x557 JUMP JUMPDEST DUP2 EQ PUSH2 0x5F2 JUMPI PUSH1 0x0 DUP1 REVERT JUMPDEST POP JUMP JUMPDEST PUSH2 0x5FE DUP2 PUSH2 0x561 JUMP JUMPDEST DUP2 EQ PUSH2 0x609 JUMPI PUSH1 0x0 DUP1 REVERT JUMPDEST POP JUMP JUMPDEST PUSH2 0x615 DUP2 PUSH2 0x56B JUMP JUMPDEST DUP2 EQ PUSH2 0x620 JUMPI PUSH1 0x0 DUP1 REVERT JUMPDEST POP JUMP INVALID LOG2 PUSH5 0x6970667358 0x22 SLT KECCAK256 DUP10 DUP11 PUSH13 0xE9DC353251DF3DD39D2B25C6FA 0xA5 0x2A 0xD8 SWAP7 0x2B 0xEF PUSH22 0x777A43CD540768DD1D64736F6C634300080700330000 "
				},
				"gasEstimates": {
					"creation": {
						"codeDepositCost": "325000",
						"executionCost": "24629",
						"totalCost": "349629"
					},
					"external": {
						"fund()": "478",
						"getConversionRate(uint256)": "infinite",
						"getPrice()": "infinite",
						"getVersion()": "infinite"
					}
				},
				"methodIdentifiers": {
					"fund()": "b60d4288",
					"getConversionRate(uint256)": "6e5b6b28",
					"getPrice()": "98d5fdca",
					"getVersion()": "0d8e6e2c"
				}
			},
			"storageLayout": {
				"storage": [
					{
						"astId": 54,
						"contract": "Contracts/FundMe.sol:FundMe",
						"label": "aggregatorV3Interface",
						"offset": 0,
						"slot": "0",
						"type": "t_contract(AggregatorV3Interface)45"
					}
				],
				"types": {
					"t_contract(AggregatorV3Interface)45": {
						"encoding": "inplace",
						"label": "contract AggregatorV3Interface",
						"numberOfBytes": "20"
					}
				}
			},
			"userdoc": {
				"kind": "user",
				"methods": {},
				"version": 1
			}
		}
	}
}