{
	"Contracts/FundMe.sol": {
		"FundMe": {
			"abi": [
				{
					"inputs": [],
					"name": "fund",
					"outputs": [],
					"stateMutability": "payable",
					"type": "function"
				},
				{
					"inputs": [
						{
							"internalType": "address",
							"name": "",
							"type": "address"
						}
					],
					"name": "funderAndAmountSent",
					"outputs": [
						{
							"internalType": "uint256",
							"name": "",
							"type": "uint256"
						}
					],
					"stateMutability": "view",
					"type": "function"
				},
				{
					"inputs": [
						{
							"internalType": "uint256",
							"name": "",
							"type": "uint256"
						}
					],
					"name": "funders",
					"outputs": [
						{
							"internalType": "address",
							"name": "",
							"type": "address"
						}
					],
					"stateMutability": "view",
					"type": "function"
				},
				{
					"inputs": [],
					"name": "limitAmount",
					"outputs": [
						{
							"internalType": "uint256",
							"name": "",
							"type": "uint256"
						}
					],
					"stateMutability": "view",
					"type": "function"
				},
				{
					"inputs": [],
					"name": "widthdraw",
					"outputs": [],
					"stateMutability": "nonpayable",
					"type": "function"
				}
			],
			"devdoc": {
				"kind": "dev",
				"methods": {},
				"version": 1
			},
			"evm": {
				"assembly": "    /* \"Contracts/FundMe.sol\":95:883  contract FundMe{\r... */\n  mstore(0x40, 0x80)\n    /* \"Contracts/FundMe.sol\":185:198  50 * 10 ** 18 */\n  0x02b5e3af16b1880000\n    /* \"Contracts/FundMe.sol\":156:198  uint256 public limitAmount = 50 * 10 ** 18 */\n  0x00\n  sstore\n    /* \"Contracts/FundMe.sol\":95:883  contract FundMe{\r... */\n  callvalue\n  dup1\n  iszero\n  tag_1\n  jumpi\n  0x00\n  dup1\n  revert\ntag_1:\n  pop\n  dataSize(sub_0)\n  dup1\n  dataOffset(sub_0)\n  0x00\n  codecopy\n  0x00\n  return\nstop\n\nsub_0: assembly {\n        /* \"Contracts/FundMe.sol\":95:883  contract FundMe{\r... */\n      mstore(0x40, 0x80)\n      jumpi(tag_1, lt(calldatasize, 0x04))\n      shr(0xe0, calldataload(0x00))\n      dup1\n      0x52b50a2a\n      eq\n      tag_2\n      jumpi\n      dup1\n      0x6aba2c86\n      eq\n      tag_3\n      jumpi\n      dup1\n      0x78abafaf\n      eq\n      tag_4\n      jumpi\n      dup1\n      0xb60d4288\n      eq\n      tag_5\n      jumpi\n      dup1\n      0xdc0d3dff\n      eq\n      tag_6\n      jumpi\n    tag_1:\n      0x00\n      dup1\n      revert\n        /* \"Contracts/FundMe.sol\":522:880  function widthdraw() public {\r... */\n    tag_2:\n      callvalue\n      dup1\n      iszero\n      tag_7\n      jumpi\n      0x00\n      dup1\n      revert\n    tag_7:\n      pop\n      tag_8\n      tag_9\n      jump\t// in\n    tag_8:\n      stop\n        /* \"Contracts/FundMe.sol\":236:290  mapping(address => uint256) public funderAndAmountSent */\n    tag_3:\n      callvalue\n      dup1\n      iszero\n      tag_10\n      jumpi\n      0x00\n      dup1\n      revert\n    tag_10:\n      pop\n      tag_11\n      0x04\n      dup1\n      calldatasize\n      sub\n      dup2\n      add\n      swap1\n      tag_12\n      swap2\n      swap1\n      tag_13\n      jump\t// in\n    tag_12:\n      tag_14\n      jump\t// in\n    tag_11:\n      mload(0x40)\n      tag_15\n      swap2\n      swap1\n      tag_16\n      jump\t// in\n    tag_15:\n      mload(0x40)\n      dup1\n      swap2\n      sub\n      swap1\n      return\n        /* \"Contracts/FundMe.sol\":156:198  uint256 public limitAmount = 50 * 10 ** 18 */\n    tag_4:\n      callvalue\n      dup1\n      iszero\n      tag_17\n      jumpi\n      0x00\n      dup1\n      revert\n    tag_17:\n      pop\n      tag_18\n      tag_19\n      jump\t// in\n    tag_18:\n      mload(0x40)\n      tag_20\n      swap2\n      swap1\n      tag_16\n      jump\t// in\n    tag_20:\n      mload(0x40)\n      dup1\n      swap2\n      sub\n      swap1\n      return\n        /* \"Contracts/FundMe.sol\":299:514  function fund() public payable {\r... */\n    tag_5:\n      tag_21\n      tag_22\n      jump\t// in\n    tag_21:\n      stop\n        /* \"Contracts/FundMe.sol\":205:229  address[] public funders */\n    tag_6:\n      callvalue\n      dup1\n      iszero\n      tag_23\n      jumpi\n      0x00\n      dup1\n      revert\n    tag_23:\n      pop\n      tag_24\n      0x04\n      dup1\n      calldatasize\n      sub\n      dup2\n      add\n      swap1\n      tag_25\n      swap2\n      swap1\n      tag_26\n      jump\t// in\n    tag_25:\n      tag_27\n      jump\t// in\n    tag_24:\n      mload(0x40)\n      tag_28\n      swap2\n      swap1\n      tag_29\n      jump\t// in\n    tag_28:\n      mload(0x40)\n      dup1\n      swap2\n      sub\n      swap1\n      return\n        /* \"Contracts/FundMe.sol\":522:880  function widthdraw() public {\r... */\n    tag_9:\n        /* \"Contracts/FundMe.sol\":565:584  uint256 funderIndex */\n      0x00\n        /* \"Contracts/FundMe.sol\":561:743  for(uint256 funderIndex = 0; funderIndex< funders.length; funderIndex++){\r... */\n    tag_31:\n        /* \"Contracts/FundMe.sol\":603:610  funders */\n      0x01\n        /* \"Contracts/FundMe.sol\":603:617  funders.length */\n      dup1\n      sload\n      swap1\n      pop\n        /* \"Contracts/FundMe.sol\":590:601  funderIndex */\n      dup2\n        /* \"Contracts/FundMe.sol\":590:617  funderIndex< funders.length */\n      lt\n        /* \"Contracts/FundMe.sol\":561:743  for(uint256 funderIndex = 0; funderIndex< funders.length; funderIndex++){\r... */\n      iszero\n      tag_32\n      jumpi\n        /* \"Contracts/FundMe.sol\":648:662  address funder */\n      0x00\n        /* \"Contracts/FundMe.sol\":665:672  funders */\n      0x01\n        /* \"Contracts/FundMe.sol\":673:684  funderIndex */\n      dup3\n        /* \"Contracts/FundMe.sol\":665:685  funders[funderIndex] */\n      dup2\n      sload\n      dup2\n      lt\n      tag_34\n      jumpi\n      tag_35\n      tag_36\n      jump\t// in\n    tag_35:\n    tag_34:\n      swap1\n      0x00\n      mstore\n      keccak256(0x00, 0x20)\n      add\n      0x00\n      swap1\n      sload\n      swap1\n      0x0100\n      exp\n      swap1\n      div\n      0xffffffffffffffffffffffffffffffffffffffff\n      and\n        /* \"Contracts/FundMe.sol\":648:685  address funder = funders[funderIndex] */\n      swap1\n      pop\n        /* \"Contracts/FundMe.sol\":730:731  0 */\n      0x00\n        /* \"Contracts/FundMe.sol\":700:719  funderAndAmountSent */\n      0x02\n        /* \"Contracts/FundMe.sol\":700:727  funderAndAmountSent[funder] */\n      0x00\n        /* \"Contracts/FundMe.sol\":720:726  funder */\n      dup4\n        /* \"Contracts/FundMe.sol\":700:727  funderAndAmountSent[funder] */\n      0xffffffffffffffffffffffffffffffffffffffff\n      and\n      0xffffffffffffffffffffffffffffffffffffffff\n      and\n      dup2\n      mstore\n      0x20\n      add\n      swap1\n      dup2\n      mstore\n      0x20\n      add\n      0x00\n      keccak256\n        /* \"Contracts/FundMe.sol\":700:731  funderAndAmountSent[funder] = 0 */\n      dup2\n      swap1\n      sstore\n      pop\n        /* \"Contracts/FundMe.sol\":633:743  {\r... */\n      pop\n        /* \"Contracts/FundMe.sol\":619:632  funderIndex++ */\n      dup1\n      dup1\n      tag_38\n      swap1\n      tag_39\n      jump\t// in\n    tag_38:\n      swap2\n      pop\n      pop\n        /* \"Contracts/FundMe.sol\":561:743  for(uint256 funderIndex = 0; funderIndex< funders.length; funderIndex++){\r... */\n      jump(tag_31)\n    tag_32:\n      pop\n        /* \"Contracts/FundMe.sol\":779:780  0 */\n      0x00\n        /* \"Contracts/FundMe.sol\":765:781  new address[](0) */\n      0xffffffffffffffff\n      dup2\n      gt\n      iszero\n      tag_40\n      jumpi\n      tag_41\n      tag_42\n      jump\t// in\n    tag_41:\n    tag_40:\n      mload(0x40)\n      swap1\n      dup1\n      dup3\n      mstore\n      dup1\n      0x20\n      mul\n      0x20\n      add\n      dup3\n      add\n      0x40\n      mstore\n      dup1\n      iszero\n      tag_43\n      jumpi\n      dup2\n      0x20\n      add\n      0x20\n      dup3\n      mul\n      dup1\n      calldatasize\n      dup4\n      calldatacopy\n      dup1\n      dup3\n      add\n      swap2\n      pop\n      pop\n      swap1\n      pop\n    tag_43:\n      pop\n        /* \"Contracts/FundMe.sol\":755:762  funders */\n      0x01\n        /* \"Contracts/FundMe.sol\":755:781  funders = new address[](0) */\n      swap1\n      dup1\n      mload\n      swap1\n      0x20\n      add\n      swap1\n      tag_44\n      swap3\n      swap2\n      swap1\n      tag_45\n      jump\t// in\n    tag_44:\n      pop\n        /* \"Contracts/FundMe.sol\":793:809  bool callSuccess */\n      0x00\n        /* \"Contracts/FundMe.sol\":822:832  msg.sender */\n      caller\n        /* \"Contracts/FundMe.sol\":814:838  payable(msg.sender).call */\n      0xffffffffffffffffffffffffffffffffffffffff\n      and\n        /* \"Contracts/FundMe.sol\":846:867  address(this).balance */\n      selfbalance\n        /* \"Contracts/FundMe.sol\":814:872  payable(msg.sender).call{value: address(this).balance}(\"\") */\n      mload(0x40)\n      tag_46\n      swap1\n      tag_47\n      jump\t// in\n    tag_46:\n      0x00\n      mload(0x40)\n      dup1\n      dup4\n      sub\n      dup2\n      dup6\n      dup8\n      gas\n      call\n      swap3\n      pop\n      pop\n      pop\n      returndatasize\n      dup1\n      0x00\n      dup2\n      eq\n      tag_50\n      jumpi\n      mload(0x40)\n      swap2\n      pop\n      and(add(returndatasize, 0x3f), not(0x1f))\n      dup3\n      add\n      0x40\n      mstore\n      returndatasize\n      dup3\n      mstore\n      returndatasize\n      0x00\n      0x20\n      dup5\n      add\n      returndatacopy\n      jump(tag_49)\n    tag_50:\n      0x60\n      swap2\n      pop\n    tag_49:\n      pop\n        /* \"Contracts/FundMe.sol\":792:872  (bool callSuccess,) = payable(msg.sender).call{value: address(this).balance}(\"\") */\n      pop\n      swap1\n      pop\n        /* \"Contracts/FundMe.sol\":550:880  {\r... */\n      pop\n        /* \"Contracts/FundMe.sol\":522:880  function widthdraw() public {\r... */\n      jump\t// out\n        /* \"Contracts/FundMe.sol\":236:290  mapping(address => uint256) public funderAndAmountSent */\n    tag_14:\n      mstore(0x20, 0x02)\n      dup1\n      0x00\n      mstore\n      keccak256(0x00, 0x40)\n      0x00\n      swap2\n      pop\n      swap1\n      pop\n      sload\n      dup2\n      jump\t// out\n        /* \"Contracts/FundMe.sol\":156:198  uint256 public limitAmount = 50 * 10 ** 18 */\n    tag_19:\n      sload(0x00)\n      dup2\n      jump\t// out\n        /* \"Contracts/FundMe.sol\":299:514  function fund() public payable {\r... */\n    tag_22:\n        /* \"Contracts/FundMe.sol\":382:393  limitAmount */\n      sload(0x00)\n        /* \"Contracts/FundMe.sol\":349:378  msg.value.getConversionRate() */\n      tag_52\n        /* \"Contracts/FundMe.sol\":349:358  msg.value */\n      callvalue\n        /* \"Contracts/FundMe.sol\":349:376  msg.value.getConversionRate */\n      tag_53\n        /* \"Contracts/FundMe.sol\":349:378  msg.value.getConversionRate() */\n      jump\t// in\n    tag_52:\n        /* \"Contracts/FundMe.sol\":349:393  msg.value.getConversionRate() >= limitAmount */\n      lt\n      iszero\n        /* \"Contracts/FundMe.sol\":341:416  require(msg.value.getConversionRate() >= limitAmount, \"Didn't send enough\") */\n      tag_54\n      jumpi\n      mload(0x40)\n      0x08c379a000000000000000000000000000000000000000000000000000000000\n      dup2\n      mstore\n      0x04\n      add\n      tag_55\n      swap1\n      tag_56\n      jump\t// in\n    tag_55:\n      mload(0x40)\n      dup1\n      swap2\n      sub\n      swap1\n      revert\n    tag_54:\n        /* \"Contracts/FundMe.sol\":427:434  funders */\n      0x01\n        /* \"Contracts/FundMe.sol\":440:450  msg.sender */\n      caller\n        /* \"Contracts/FundMe.sol\":427:451  funders.push(msg.sender) */\n      swap1\n      dup1\n      0x01\n      dup2\n      sload\n      add\n      dup1\n      dup3\n      sstore\n      dup1\n      swap2\n      pop\n      pop\n      0x01\n      swap1\n      sub\n      swap1\n      0x00\n      mstore\n      keccak256(0x00, 0x20)\n      add\n      0x00\n      swap1\n      swap2\n      swap1\n      swap2\n      swap1\n      swap2\n      0x0100\n      exp\n      dup2\n      sload\n      dup2\n      0xffffffffffffffffffffffffffffffffffffffff\n      mul\n      not\n      and\n      swap1\n      dup4\n      0xffffffffffffffffffffffffffffffffffffffff\n      and\n      mul\n      or\n      swap1\n      sstore\n      pop\n        /* \"Contracts/FundMe.sol\":495:504  msg.value */\n      callvalue\n        /* \"Contracts/FundMe.sol\":462:481  funderAndAmountSent */\n      0x02\n        /* \"Contracts/FundMe.sol\":462:493  funderAndAmountSent[msg.sender] */\n      0x00\n        /* \"Contracts/FundMe.sol\":482:492  msg.sender */\n      caller\n        /* \"Contracts/FundMe.sol\":462:493  funderAndAmountSent[msg.sender] */\n      0xffffffffffffffffffffffffffffffffffffffff\n      and\n      0xffffffffffffffffffffffffffffffffffffffff\n      and\n      dup2\n      mstore\n      0x20\n      add\n      swap1\n      dup2\n      mstore\n      0x20\n      add\n      0x00\n      keccak256\n        /* \"Contracts/FundMe.sol\":462:504  funderAndAmountSent[msg.sender] =msg.value */\n      dup2\n      swap1\n      sstore\n      pop\n        /* \"Contracts/FundMe.sol\":299:514  function fund() public payable {\r... */\n      jump\t// out\n        /* \"Contracts/FundMe.sol\":205:229  address[] public funders */\n    tag_27:\n      0x01\n      dup2\n      dup2\n      sload\n      dup2\n      lt\n      tag_58\n      jumpi\n      0x00\n      dup1\n      revert\n    tag_58:\n      swap1\n      0x00\n      mstore\n      keccak256(0x00, 0x20)\n      add\n      0x00\n      swap2\n      pop\n      sload\n      swap1\n      0x0100\n      exp\n      swap1\n      div\n      0xffffffffffffffffffffffffffffffffffffffff\n      and\n      dup2\n      jump\t// out\n        /* \"Contracts/PriceConverter.sol\":474:693  function getConversionRate(uint256 ethAmount) internal view returns(uint256){\r... */\n    tag_53:\n        /* \"Contracts/PriceConverter.sol\":542:549  uint256 */\n      0x00\n        /* \"Contracts/PriceConverter.sol\":561:577  uint256 ethPrice */\n      dup1\n        /* \"Contracts/PriceConverter.sol\":580:590  getPrice() */\n      tag_61\n        /* \"Contracts/PriceConverter.sol\":580:588  getPrice */\n      tag_62\n        /* \"Contracts/PriceConverter.sol\":580:590  getPrice() */\n      jump\t// in\n    tag_61:\n        /* \"Contracts/PriceConverter.sol\":561:590  uint256 ethPrice = getPrice() */\n      swap1\n      pop\n        /* \"Contracts/PriceConverter.sol\":601:623  uint256 convertedPrice */\n      0x00\n        /* \"Contracts/PriceConverter.sol\":649:653  1e18 */\n      0x0de0b6b3a7640000\n        /* \"Contracts/PriceConverter.sol\":638:647  ethAmount */\n      dup5\n        /* \"Contracts/PriceConverter.sol\":627:635  ethPrice */\n      dup4\n        /* \"Contracts/PriceConverter.sol\":627:647  ethPrice * ethAmount */\n      tag_63\n      swap2\n      swap1\n      tag_64\n      jump\t// in\n    tag_63:\n        /* \"Contracts/PriceConverter.sol\":626:653  (ethPrice * ethAmount)/1e18 */\n      tag_65\n      swap2\n      swap1\n      tag_66\n      jump\t// in\n    tag_65:\n        /* \"Contracts/PriceConverter.sol\":601:653  uint256 convertedPrice = (ethPrice * ethAmount)/1e18 */\n      swap1\n      pop\n        /* \"Contracts/PriceConverter.sol\":671:685  convertedPrice */\n      dup1\n        /* \"Contracts/PriceConverter.sol\":664:685  return convertedPrice */\n      swap3\n      pop\n      pop\n      pop\n        /* \"Contracts/PriceConverter.sol\":474:693  function getConversionRate(uint256 ethAmount) internal view returns(uint256){\r... */\n      swap2\n      swap1\n      pop\n      jump\t// out\n        /* \"Contracts/PriceConverter.sol\":172:466  function getPrice() internal view returns(uint256) {\r... */\n    tag_62:\n        /* \"Contracts/PriceConverter.sol\":214:221  uint256 */\n      0x00\n        /* \"Contracts/PriceConverter.sol\":234:277  AggregatorV3Interface aggregatorV3Interface */\n      dup1\n        /* \"Contracts/PriceConverter.sol\":302:344  0xD4a33860578De61DBAbDc8BFdb98FD742fA7028e */\n      0xd4a33860578de61dbabdc8bfdb98fd742fa7028e\n        /* \"Contracts/PriceConverter.sol\":234:345  AggregatorV3Interface aggregatorV3Interface = AggregatorV3Interface(0xD4a33860578De61DBAbDc8BFdb98FD742fA7028e) */\n      swap1\n      pop\n        /* \"Contracts/PriceConverter.sol\":361:373  int256 price */\n      0x00\n        /* \"Contracts/PriceConverter.sol\":380:401  aggregatorV3Interface */\n      dup2\n        /* \"Contracts/PriceConverter.sol\":380:417  aggregatorV3Interface.latestRoundData */\n      0xffffffffffffffffffffffffffffffffffffffff\n      and\n      0xfeaf968c\n        /* \"Contracts/PriceConverter.sol\":380:419  aggregatorV3Interface.latestRoundData() */\n      mload(0x40)\n      dup2\n      0xffffffff\n      and\n      0xe0\n      shl\n      dup2\n      mstore\n      0x04\n      add\n      0xa0\n      mload(0x40)\n      dup1\n      dup4\n      sub\n      dup2\n      dup7\n      dup1\n      extcodesize\n      iszero\n      dup1\n      iszero\n      tag_68\n      jumpi\n      0x00\n      dup1\n      revert\n    tag_68:\n      pop\n      gas\n      staticcall\n      iszero\n      dup1\n      iszero\n      tag_70\n      jumpi\n      returndatasize\n      0x00\n      dup1\n      returndatacopy\n      revert(0x00, returndatasize)\n    tag_70:\n      pop\n      pop\n      pop\n      pop\n      mload(0x40)\n      returndatasize\n      not(0x1f)\n      0x1f\n      dup3\n      add\n      and\n      dup3\n      add\n      dup1\n      0x40\n      mstore\n      pop\n      dup2\n      add\n      swap1\n      tag_71\n      swap2\n      swap1\n      tag_72\n      jump\t// in\n    tag_71:\n        /* \"Contracts/PriceConverter.sol\":358:419  (, int256 price,,,) = aggregatorV3Interface.latestRoundData() */\n      pop\n      pop\n      pop\n      swap2\n      pop\n      pop\n        /* \"Contracts/PriceConverter.sol\":453:457  1e10 */\n      0x02540be400\n        /* \"Contracts/PriceConverter.sol\":445:450  price */\n      dup2\n        /* \"Contracts/PriceConverter.sol\":445:457  price * 1e10 */\n      tag_73\n      swap2\n      swap1\n      tag_74\n      jump\t// in\n    tag_73:\n        /* \"Contracts/PriceConverter.sol\":430:458  return uint256(price * 1e10) */\n      swap3\n      pop\n      pop\n      pop\n        /* \"Contracts/PriceConverter.sol\":172:466  function getPrice() internal view returns(uint256) {\r... */\n      swap1\n      jump\t// out\n    tag_45:\n      dup3\n      dup1\n      sload\n      dup3\n      dup3\n      sstore\n      swap1\n      0x00\n      mstore\n      keccak256(0x00, 0x20)\n      swap1\n      dup2\n      add\n      swap3\n      dup3\n      iszero\n      tag_75\n      jumpi\n      swap2\n      0x20\n      mul\n      dup3\n      add\n    tag_76:\n      dup3\n      dup2\n      gt\n      iszero\n      tag_77\n      jumpi\n      dup3\n      mload\n      dup3\n      exp(0x0100, 0x00)\n      dup2\n      sload\n      dup2\n      0xffffffffffffffffffffffffffffffffffffffff\n      mul\n      not\n      and\n      swap1\n      dup4\n      0xffffffffffffffffffffffffffffffffffffffff\n      and\n      mul\n      or\n      swap1\n      sstore\n      pop\n      swap2\n      0x20\n      add\n      swap2\n      swap1\n      0x01\n      add\n      swap1\n      jump(tag_76)\n    tag_77:\n    tag_75:\n      pop\n      swap1\n      pop\n      tag_78\n      swap2\n      swap1\n      tag_79\n      jump\t// in\n    tag_78:\n      pop\n      swap1\n      jump\t// out\n    tag_79:\n    tag_80:\n      dup1\n      dup3\n      gt\n      iszero\n      tag_81\n      jumpi\n      0x00\n      dup2\n      0x00\n      swap1\n      sstore\n      pop\n      0x01\n      add\n      jump(tag_80)\n    tag_81:\n      pop\n      swap1\n      jump\t// out\n        /* \"#utility.yul\":7:146   */\n    tag_83:\n        /* \"#utility.yul\":53:58   */\n      0x00\n        /* \"#utility.yul\":91:97   */\n      dup2\n        /* \"#utility.yul\":78:98   */\n      calldataload\n        /* \"#utility.yul\":69:98   */\n      swap1\n      pop\n        /* \"#utility.yul\":107:140   */\n      tag_85\n        /* \"#utility.yul\":134:139   */\n      dup2\n        /* \"#utility.yul\":107:140   */\n      tag_86\n      jump\t// in\n    tag_85:\n        /* \"#utility.yul\":7:146   */\n      swap3\n      swap2\n      pop\n      pop\n      jump\t// out\n        /* \"#utility.yul\":152:293   */\n    tag_87:\n        /* \"#utility.yul\":208:213   */\n      0x00\n        /* \"#utility.yul\":239:245   */\n      dup2\n        /* \"#utility.yul\":233:246   */\n      mload\n        /* \"#utility.yul\":224:246   */\n      swap1\n      pop\n        /* \"#utility.yul\":255:287   */\n      tag_89\n        /* \"#utility.yul\":281:286   */\n      dup2\n        /* \"#utility.yul\":255:287   */\n      tag_90\n      jump\t// in\n    tag_89:\n        /* \"#utility.yul\":152:293   */\n      swap3\n      swap2\n      pop\n      pop\n      jump\t// out\n        /* \"#utility.yul\":299:438   */\n    tag_91:\n        /* \"#utility.yul\":345:350   */\n      0x00\n        /* \"#utility.yul\":383:389   */\n      dup2\n        /* \"#utility.yul\":370:390   */\n      calldataload\n        /* \"#utility.yul\":361:390   */\n      swap1\n      pop\n        /* \"#utility.yul\":399:432   */\n      tag_93\n        /* \"#utility.yul\":426:431   */\n      dup2\n        /* \"#utility.yul\":399:432   */\n      tag_94\n      jump\t// in\n    tag_93:\n        /* \"#utility.yul\":299:438   */\n      swap3\n      swap2\n      pop\n      pop\n      jump\t// out\n        /* \"#utility.yul\":444:587   */\n    tag_95:\n        /* \"#utility.yul\":501:506   */\n      0x00\n        /* \"#utility.yul\":532:538   */\n      dup2\n        /* \"#utility.yul\":526:539   */\n      mload\n        /* \"#utility.yul\":517:539   */\n      swap1\n      pop\n        /* \"#utility.yul\":548:581   */\n      tag_97\n        /* \"#utility.yul\":575:580   */\n      dup2\n        /* \"#utility.yul\":548:581   */\n      tag_94\n      jump\t// in\n    tag_97:\n        /* \"#utility.yul\":444:587   */\n      swap3\n      swap2\n      pop\n      pop\n      jump\t// out\n        /* \"#utility.yul\":593:734   */\n    tag_98:\n        /* \"#utility.yul\":649:654   */\n      0x00\n        /* \"#utility.yul\":680:686   */\n      dup2\n        /* \"#utility.yul\":674:687   */\n      mload\n        /* \"#utility.yul\":665:687   */\n      swap1\n      pop\n        /* \"#utility.yul\":696:728   */\n      tag_100\n        /* \"#utility.yul\":722:727   */\n      dup2\n        /* \"#utility.yul\":696:728   */\n      tag_101\n      jump\t// in\n    tag_100:\n        /* \"#utility.yul\":593:734   */\n      swap3\n      swap2\n      pop\n      pop\n      jump\t// out\n        /* \"#utility.yul\":740:1069   */\n    tag_13:\n        /* \"#utility.yul\":799:805   */\n      0x00\n        /* \"#utility.yul\":848:850   */\n      0x20\n        /* \"#utility.yul\":836:845   */\n      dup3\n        /* \"#utility.yul\":827:834   */\n      dup5\n        /* \"#utility.yul\":823:846   */\n      sub\n        /* \"#utility.yul\":819:851   */\n      slt\n        /* \"#utility.yul\":816:935   */\n      iszero\n      tag_103\n      jumpi\n        /* \"#utility.yul\":854:933   */\n      tag_104\n      tag_105\n      jump\t// in\n    tag_104:\n        /* \"#utility.yul\":816:935   */\n    tag_103:\n        /* \"#utility.yul\":974:975   */\n      0x00\n        /* \"#utility.yul\":999:1052   */\n      tag_106\n        /* \"#utility.yul\":1044:1051   */\n      dup5\n        /* \"#utility.yul\":1035:1041   */\n      dup3\n        /* \"#utility.yul\":1024:1033   */\n      dup6\n        /* \"#utility.yul\":1020:1042   */\n      add\n        /* \"#utility.yul\":999:1052   */\n      tag_83\n      jump\t// in\n    tag_106:\n        /* \"#utility.yul\":989:1052   */\n      swap2\n      pop\n        /* \"#utility.yul\":945:1062   */\n      pop\n        /* \"#utility.yul\":740:1069   */\n      swap3\n      swap2\n      pop\n      pop\n      jump\t// out\n        /* \"#utility.yul\":1075:1404   */\n    tag_26:\n        /* \"#utility.yul\":1134:1140   */\n      0x00\n        /* \"#utility.yul\":1183:1185   */\n      0x20\n        /* \"#utility.yul\":1171:1180   */\n      dup3\n        /* \"#utility.yul\":1162:1169   */\n      dup5\n        /* \"#utility.yul\":1158:1181   */\n      sub\n        /* \"#utility.yul\":1154:1186   */\n      slt\n        /* \"#utility.yul\":1151:1270   */\n      iszero\n      tag_108\n      jumpi\n        /* \"#utility.yul\":1189:1268   */\n      tag_109\n      tag_105\n      jump\t// in\n    tag_109:\n        /* \"#utility.yul\":1151:1270   */\n    tag_108:\n        /* \"#utility.yul\":1309:1310   */\n      0x00\n        /* \"#utility.yul\":1334:1387   */\n      tag_110\n        /* \"#utility.yul\":1379:1386   */\n      dup5\n        /* \"#utility.yul\":1370:1376   */\n      dup3\n        /* \"#utility.yul\":1359:1368   */\n      dup6\n        /* \"#utility.yul\":1355:1377   */\n      add\n        /* \"#utility.yul\":1334:1387   */\n      tag_91\n      jump\t// in\n    tag_110:\n        /* \"#utility.yul\":1324:1387   */\n      swap2\n      pop\n        /* \"#utility.yul\":1280:1397   */\n      pop\n        /* \"#utility.yul\":1075:1404   */\n      swap3\n      swap2\n      pop\n      pop\n      jump\t// out\n        /* \"#utility.yul\":1410:2381   */\n    tag_72:\n        /* \"#utility.yul\":1513:1519   */\n      0x00\n        /* \"#utility.yul\":1521:1527   */\n      dup1\n        /* \"#utility.yul\":1529:1535   */\n      0x00\n        /* \"#utility.yul\":1537:1543   */\n      dup1\n        /* \"#utility.yul\":1545:1551   */\n      0x00\n        /* \"#utility.yul\":1594:1597   */\n      0xa0\n        /* \"#utility.yul\":1582:1591   */\n      dup7\n        /* \"#utility.yul\":1573:1580   */\n      dup9\n        /* \"#utility.yul\":1569:1592   */\n      sub\n        /* \"#utility.yul\":1565:1598   */\n      slt\n        /* \"#utility.yul\":1562:1682   */\n      iszero\n      tag_112\n      jumpi\n        /* \"#utility.yul\":1601:1680   */\n      tag_113\n      tag_105\n      jump\t// in\n    tag_113:\n        /* \"#utility.yul\":1562:1682   */\n    tag_112:\n        /* \"#utility.yul\":1721:1722   */\n      0x00\n        /* \"#utility.yul\":1746:1809   */\n      tag_114\n        /* \"#utility.yul\":1801:1808   */\n      dup9\n        /* \"#utility.yul\":1792:1798   */\n      dup3\n        /* \"#utility.yul\":1781:1790   */\n      dup10\n        /* \"#utility.yul\":1777:1799   */\n      add\n        /* \"#utility.yul\":1746:1809   */\n      tag_98\n      jump\t// in\n    tag_114:\n        /* \"#utility.yul\":1736:1809   */\n      swap6\n      pop\n        /* \"#utility.yul\":1692:1819   */\n      pop\n        /* \"#utility.yul\":1858:1860   */\n      0x20\n        /* \"#utility.yul\":1884:1947   */\n      tag_115\n        /* \"#utility.yul\":1939:1946   */\n      dup9\n        /* \"#utility.yul\":1930:1936   */\n      dup3\n        /* \"#utility.yul\":1919:1928   */\n      dup10\n        /* \"#utility.yul\":1915:1937   */\n      add\n        /* \"#utility.yul\":1884:1947   */\n      tag_87\n      jump\t// in\n    tag_115:\n        /* \"#utility.yul\":1874:1947   */\n      swap5\n      pop\n        /* \"#utility.yul\":1829:1957   */\n      pop\n        /* \"#utility.yul\":1996:1998   */\n      0x40\n        /* \"#utility.yul\":2022:2086   */\n      tag_116\n        /* \"#utility.yul\":2078:2085   */\n      dup9\n        /* \"#utility.yul\":2069:2075   */\n      dup3\n        /* \"#utility.yul\":2058:2067   */\n      dup10\n        /* \"#utility.yul\":2054:2076   */\n      add\n        /* \"#utility.yul\":2022:2086   */\n      tag_95\n      jump\t// in\n    tag_116:\n        /* \"#utility.yul\":2012:2086   */\n      swap4\n      pop\n        /* \"#utility.yul\":1967:2096   */\n      pop\n        /* \"#utility.yul\":2135:2137   */\n      0x60\n        /* \"#utility.yul\":2161:2225   */\n      tag_117\n        /* \"#utility.yul\":2217:2224   */\n      dup9\n        /* \"#utility.yul\":2208:2214   */\n      dup3\n        /* \"#utility.yul\":2197:2206   */\n      dup10\n        /* \"#utility.yul\":2193:2215   */\n      add\n        /* \"#utility.yul\":2161:2225   */\n      tag_95\n      jump\t// in\n    tag_117:\n        /* \"#utility.yul\":2151:2225   */\n      swap3\n      pop\n        /* \"#utility.yul\":2106:2235   */\n      pop\n        /* \"#utility.yul\":2274:2277   */\n      0x80\n        /* \"#utility.yul\":2301:2364   */\n      tag_118\n        /* \"#utility.yul\":2356:2363   */\n      dup9\n        /* \"#utility.yul\":2347:2353   */\n      dup3\n        /* \"#utility.yul\":2336:2345   */\n      dup10\n        /* \"#utility.yul\":2332:2354   */\n      add\n        /* \"#utility.yul\":2301:2364   */\n      tag_98\n      jump\t// in\n    tag_118:\n        /* \"#utility.yul\":2291:2364   */\n      swap2\n      pop\n        /* \"#utility.yul\":2245:2374   */\n      pop\n        /* \"#utility.yul\":1410:2381   */\n      swap3\n      swap6\n      pop\n      swap3\n      swap6\n      swap1\n      swap4\n      pop\n      jump\t// out\n        /* \"#utility.yul\":2387:2505   */\n    tag_119:\n        /* \"#utility.yul\":2474:2498   */\n      tag_121\n        /* \"#utility.yul\":2492:2497   */\n      dup2\n        /* \"#utility.yul\":2474:2498   */\n      tag_122\n      jump\t// in\n    tag_121:\n        /* \"#utility.yul\":2469:2472   */\n      dup3\n        /* \"#utility.yul\":2462:2499   */\n      mstore\n        /* \"#utility.yul\":2387:2505   */\n      pop\n      pop\n      jump\t// out\n        /* \"#utility.yul\":2511:2877   */\n    tag_123:\n        /* \"#utility.yul\":2653:2656   */\n      0x00\n        /* \"#utility.yul\":2674:2741   */\n      tag_125\n        /* \"#utility.yul\":2738:2740   */\n      0x12\n        /* \"#utility.yul\":2733:2736   */\n      dup4\n        /* \"#utility.yul\":2674:2741   */\n      tag_126\n      jump\t// in\n    tag_125:\n        /* \"#utility.yul\":2667:2741   */\n      swap2\n      pop\n        /* \"#utility.yul\":2750:2843   */\n      tag_127\n        /* \"#utility.yul\":2839:2842   */\n      dup3\n        /* \"#utility.yul\":2750:2843   */\n      tag_128\n      jump\t// in\n    tag_127:\n        /* \"#utility.yul\":2868:2870   */\n      0x20\n        /* \"#utility.yul\":2863:2866   */\n      dup3\n        /* \"#utility.yul\":2859:2871   */\n      add\n        /* \"#utility.yul\":2852:2871   */\n      swap1\n      pop\n        /* \"#utility.yul\":2511:2877   */\n      swap2\n      swap1\n      pop\n      jump\t// out\n        /* \"#utility.yul\":2883:3281   */\n    tag_129:\n        /* \"#utility.yul\":3042:3045   */\n      0x00\n        /* \"#utility.yul\":3063:3146   */\n      tag_131\n        /* \"#utility.yul\":3144:3145   */\n      0x00\n        /* \"#utility.yul\":3139:3142   */\n      dup4\n        /* \"#utility.yul\":3063:3146   */\n      tag_132\n      jump\t// in\n    tag_131:\n        /* \"#utility.yul\":3056:3146   */\n      swap2\n      pop\n        /* \"#utility.yul\":3155:3248   */\n      tag_133\n        /* \"#utility.yul\":3244:3247   */\n      dup3\n        /* \"#utility.yul\":3155:3248   */\n      tag_134\n      jump\t// in\n    tag_133:\n        /* \"#utility.yul\":3273:3274   */\n      0x00\n        /* \"#utility.yul\":3268:3271   */\n      dup3\n        /* \"#utility.yul\":3264:3275   */\n      add\n        /* \"#utility.yul\":3257:3275   */\n      swap1\n      pop\n        /* \"#utility.yul\":2883:3281   */\n      swap2\n      swap1\n      pop\n      jump\t// out\n        /* \"#utility.yul\":3287:3405   */\n    tag_135:\n        /* \"#utility.yul\":3374:3398   */\n      tag_137\n        /* \"#utility.yul\":3392:3397   */\n      dup2\n        /* \"#utility.yul\":3374:3398   */\n      tag_138\n      jump\t// in\n    tag_137:\n        /* \"#utility.yul\":3369:3372   */\n      dup3\n        /* \"#utility.yul\":3362:3399   */\n      mstore\n        /* \"#utility.yul\":3287:3405   */\n      pop\n      pop\n      jump\t// out\n        /* \"#utility.yul\":3411:3790   */\n    tag_47:\n        /* \"#utility.yul\":3595:3598   */\n      0x00\n        /* \"#utility.yul\":3617:3764   */\n      tag_140\n        /* \"#utility.yul\":3760:3763   */\n      dup3\n        /* \"#utility.yul\":3617:3764   */\n      tag_129\n      jump\t// in\n    tag_140:\n        /* \"#utility.yul\":3610:3764   */\n      swap2\n      pop\n        /* \"#utility.yul\":3781:3784   */\n      dup2\n        /* \"#utility.yul\":3774:3784   */\n      swap1\n      pop\n        /* \"#utility.yul\":3411:3790   */\n      swap2\n      swap1\n      pop\n      jump\t// out\n        /* \"#utility.yul\":3796:4018   */\n    tag_29:\n        /* \"#utility.yul\":3889:3893   */\n      0x00\n        /* \"#utility.yul\":3927:3929   */\n      0x20\n        /* \"#utility.yul\":3916:3925   */\n      dup3\n        /* \"#utility.yul\":3912:3930   */\n      add\n        /* \"#utility.yul\":3904:3930   */\n      swap1\n      pop\n        /* \"#utility.yul\":3940:4011   */\n      tag_142\n        /* \"#utility.yul\":4008:4009   */\n      0x00\n        /* \"#utility.yul\":3997:4006   */\n      dup4\n        /* \"#utility.yul\":3993:4010   */\n      add\n        /* \"#utility.yul\":3984:3990   */\n      dup5\n        /* \"#utility.yul\":3940:4011   */\n      tag_119\n      jump\t// in\n    tag_142:\n        /* \"#utility.yul\":3796:4018   */\n      swap3\n      swap2\n      pop\n      pop\n      jump\t// out\n        /* \"#utility.yul\":4024:4443   */\n    tag_56:\n        /* \"#utility.yul\":4190:4194   */\n      0x00\n        /* \"#utility.yul\":4228:4230   */\n      0x20\n        /* \"#utility.yul\":4217:4226   */\n      dup3\n        /* \"#utility.yul\":4213:4231   */\n      add\n        /* \"#utility.yul\":4205:4231   */\n      swap1\n      pop\n        /* \"#utility.yul\":4277:4286   */\n      dup2\n        /* \"#utility.yul\":4271:4275   */\n      dup2\n        /* \"#utility.yul\":4267:4287   */\n      sub\n        /* \"#utility.yul\":4263:4264   */\n      0x00\n        /* \"#utility.yul\":4252:4261   */\n      dup4\n        /* \"#utility.yul\":4248:4265   */\n      add\n        /* \"#utility.yul\":4241:4288   */\n      mstore\n        /* \"#utility.yul\":4305:4436   */\n      tag_144\n        /* \"#utility.yul\":4431:4435   */\n      dup2\n        /* \"#utility.yul\":4305:4436   */\n      tag_123\n      jump\t// in\n    tag_144:\n        /* \"#utility.yul\":4297:4436   */\n      swap1\n      pop\n        /* \"#utility.yul\":4024:4443   */\n      swap2\n      swap1\n      pop\n      jump\t// out\n        /* \"#utility.yul\":4449:4671   */\n    tag_16:\n        /* \"#utility.yul\":4542:4546   */\n      0x00\n        /* \"#utility.yul\":4580:4582   */\n      0x20\n        /* \"#utility.yul\":4569:4578   */\n      dup3\n        /* \"#utility.yul\":4565:4583   */\n      add\n        /* \"#utility.yul\":4557:4583   */\n      swap1\n      pop\n        /* \"#utility.yul\":4593:4664   */\n      tag_146\n        /* \"#utility.yul\":4661:4662   */\n      0x00\n        /* \"#utility.yul\":4650:4659   */\n      dup4\n        /* \"#utility.yul\":4646:4663   */\n      add\n        /* \"#utility.yul\":4637:4643   */\n      dup5\n        /* \"#utility.yul\":4593:4664   */\n      tag_135\n      jump\t// in\n    tag_146:\n        /* \"#utility.yul\":4449:4671   */\n      swap3\n      swap2\n      pop\n      pop\n      jump\t// out\n        /* \"#utility.yul\":4758:4905   */\n    tag_132:\n        /* \"#utility.yul\":4859:4870   */\n      0x00\n        /* \"#utility.yul\":4896:4899   */\n      dup2\n        /* \"#utility.yul\":4881:4899   */\n      swap1\n      pop\n        /* \"#utility.yul\":4758:4905   */\n      swap3\n      swap2\n      pop\n      pop\n      jump\t// out\n        /* \"#utility.yul\":4911:5080   */\n    tag_126:\n        /* \"#utility.yul\":4995:5006   */\n      0x00\n        /* \"#utility.yul\":5029:5035   */\n      dup3\n        /* \"#utility.yul\":5024:5027   */\n      dup3\n        /* \"#utility.yul\":5017:5036   */\n      mstore\n        /* \"#utility.yul\":5069:5073   */\n      0x20\n        /* \"#utility.yul\":5064:5067   */\n      dup3\n        /* \"#utility.yul\":5060:5074   */\n      add\n        /* \"#utility.yul\":5045:5074   */\n      swap1\n      pop\n        /* \"#utility.yul\":4911:5080   */\n      swap3\n      swap2\n      pop\n      pop\n      jump\t// out\n        /* \"#utility.yul\":5086:5271   */\n    tag_66:\n        /* \"#utility.yul\":5126:5127   */\n      0x00\n        /* \"#utility.yul\":5143:5163   */\n      tag_152\n        /* \"#utility.yul\":5161:5162   */\n      dup3\n        /* \"#utility.yul\":5143:5163   */\n      tag_138\n      jump\t// in\n    tag_152:\n        /* \"#utility.yul\":5138:5163   */\n      swap2\n      pop\n        /* \"#utility.yul\":5177:5197   */\n      tag_153\n        /* \"#utility.yul\":5195:5196   */\n      dup4\n        /* \"#utility.yul\":5177:5197   */\n      tag_138\n      jump\t// in\n    tag_153:\n        /* \"#utility.yul\":5172:5197   */\n      swap3\n      pop\n        /* \"#utility.yul\":5216:5217   */\n      dup3\n        /* \"#utility.yul\":5206:5241   */\n      tag_154\n      jumpi\n        /* \"#utility.yul\":5221:5239   */\n      tag_155\n      tag_156\n      jump\t// in\n    tag_155:\n        /* \"#utility.yul\":5206:5241   */\n    tag_154:\n        /* \"#utility.yul\":5263:5264   */\n      dup3\n        /* \"#utility.yul\":5260:5261   */\n      dup3\n        /* \"#utility.yul\":5256:5265   */\n      div\n        /* \"#utility.yul\":5251:5265   */\n      swap1\n      pop\n        /* \"#utility.yul\":5086:5271   */\n      swap3\n      swap2\n      pop\n      pop\n      jump\t// out\n        /* \"#utility.yul\":5277:6268   */\n    tag_74:\n        /* \"#utility.yul\":5316:5323   */\n      0x00\n        /* \"#utility.yul\":5339:5358   */\n      tag_158\n        /* \"#utility.yul\":5356:5357   */\n      dup3\n        /* \"#utility.yul\":5339:5358   */\n      tag_159\n      jump\t// in\n    tag_158:\n        /* \"#utility.yul\":5334:5358   */\n      swap2\n      pop\n        /* \"#utility.yul\":5372:5391   */\n      tag_160\n        /* \"#utility.yul\":5389:5390   */\n      dup4\n        /* \"#utility.yul\":5372:5391   */\n      tag_159\n      jump\t// in\n    tag_160:\n        /* \"#utility.yul\":5367:5391   */\n      swap3\n      pop\n        /* \"#utility.yul\":5573:5574   */\n      dup3\n        /* \"#utility.yul\":5505:5571   */\n      0x7fffffffffffffffffffffffffffffffffffffffffffffffffffffffffffffff\n        /* \"#utility.yul\":5501:5575   */\n      div\n        /* \"#utility.yul\":5498:5499   */\n      dup3\n        /* \"#utility.yul\":5495:5576   */\n      gt\n        /* \"#utility.yul\":5490:5491   */\n      0x00\n        /* \"#utility.yul\":5487:5488   */\n      dup5\n        /* \"#utility.yul\":5483:5492   */\n      sgt\n        /* \"#utility.yul\":5479:5480   */\n      0x00\n        /* \"#utility.yul\":5476:5477   */\n      dup5\n        /* \"#utility.yul\":5472:5481   */\n      sgt\n        /* \"#utility.yul\":5468:5493   */\n      and\n        /* \"#utility.yul\":5464:5577   */\n      and\n        /* \"#utility.yul\":5461:5600   */\n      iszero\n      tag_161\n      jumpi\n        /* \"#utility.yul\":5580:5598   */\n      tag_162\n      tag_163\n      jump\t// in\n    tag_162:\n        /* \"#utility.yul\":5461:5600   */\n    tag_161:\n        /* \"#utility.yul\":5784:5785   */\n      dup2\n        /* \"#utility.yul\":5716:5782   */\n      0x8000000000000000000000000000000000000000000000000000000000000000\n        /* \"#utility.yul\":5711:5786   */\n      sdiv\n        /* \"#utility.yul\":5708:5709   */\n      dup4\n        /* \"#utility.yul\":5704:5787   */\n      slt\n        /* \"#utility.yul\":5699:5700   */\n      0x00\n        /* \"#utility.yul\":5696:5697   */\n      dup5\n        /* \"#utility.yul\":5692:5701   */\n      slt\n        /* \"#utility.yul\":5688:5689   */\n      0x00\n        /* \"#utility.yul\":5685:5686   */\n      dup5\n        /* \"#utility.yul\":5681:5690   */\n      sgt\n        /* \"#utility.yul\":5677:5702   */\n      and\n        /* \"#utility.yul\":5673:5788   */\n      and\n        /* \"#utility.yul\":5670:5811   */\n      iszero\n      tag_164\n      jumpi\n        /* \"#utility.yul\":5791:5809   */\n      tag_165\n      tag_163\n      jump\t// in\n    tag_165:\n        /* \"#utility.yul\":5670:5811   */\n    tag_164:\n        /* \"#utility.yul\":5995:5996   */\n      dup3\n        /* \"#utility.yul\":5927:5993   */\n      0x8000000000000000000000000000000000000000000000000000000000000000\n        /* \"#utility.yul\":5922:5997   */\n      sdiv\n        /* \"#utility.yul\":5919:5920   */\n      dup3\n        /* \"#utility.yul\":5915:5998   */\n      slt\n        /* \"#utility.yul\":5910:5911   */\n      0x00\n        /* \"#utility.yul\":5907:5908   */\n      dup5\n        /* \"#utility.yul\":5903:5912   */\n      sgt\n        /* \"#utility.yul\":5899:5900   */\n      0x00\n        /* \"#utility.yul\":5896:5897   */\n      dup5\n        /* \"#utility.yul\":5892:5901   */\n      slt\n        /* \"#utility.yul\":5888:5913   */\n      and\n        /* \"#utility.yul\":5884:5999   */\n      and\n        /* \"#utility.yul\":5881:6022   */\n      iszero\n      tag_166\n      jumpi\n        /* \"#utility.yul\":6002:6020   */\n      tag_167\n      tag_163\n      jump\t// in\n    tag_167:\n        /* \"#utility.yul\":5881:6022   */\n    tag_166:\n        /* \"#utility.yul\":6205:6206   */\n      dup3\n        /* \"#utility.yul\":6137:6203   */\n      0x7fffffffffffffffffffffffffffffffffffffffffffffffffffffffffffffff\n        /* \"#utility.yul\":6132:6207   */\n      sdiv\n        /* \"#utility.yul\":6129:6130   */\n      dup3\n        /* \"#utility.yul\":6125:6208   */\n      slt\n        /* \"#utility.yul\":6120:6121   */\n      0x00\n        /* \"#utility.yul\":6117:6118   */\n      dup5\n        /* \"#utility.yul\":6113:6122   */\n      slt\n        /* \"#utility.yul\":6109:6110   */\n      0x00\n        /* \"#utility.yul\":6106:6107   */\n      dup5\n        /* \"#utility.yul\":6102:6111   */\n      slt\n        /* \"#utility.yul\":6098:6123   */\n      and\n        /* \"#utility.yul\":6094:6209   */\n      and\n        /* \"#utility.yul\":6091:6232   */\n      iszero\n      tag_168\n      jumpi\n        /* \"#utility.yul\":6212:6230   */\n      tag_169\n      tag_163\n      jump\t// in\n    tag_169:\n        /* \"#utility.yul\":6091:6232   */\n    tag_168:\n        /* \"#utility.yul\":6260:6261   */\n      dup3\n        /* \"#utility.yul\":6257:6258   */\n      dup3\n        /* \"#utility.yul\":6253:6262   */\n      mul\n        /* \"#utility.yul\":6242:6262   */\n      swap1\n      pop\n        /* \"#utility.yul\":5277:6268   */\n      swap3\n      swap2\n      pop\n      pop\n      jump\t// out\n        /* \"#utility.yul\":6274:6622   */\n    tag_64:\n        /* \"#utility.yul\":6314:6321   */\n      0x00\n        /* \"#utility.yul\":6337:6357   */\n      tag_171\n        /* \"#utility.yul\":6355:6356   */\n      dup3\n        /* \"#utility.yul\":6337:6357   */\n      tag_138\n      jump\t// in\n    tag_171:\n        /* \"#utility.yul\":6332:6357   */\n      swap2\n      pop\n        /* \"#utility.yul\":6371:6391   */\n      tag_172\n        /* \"#utility.yul\":6389:6390   */\n      dup4\n        /* \"#utility.yul\":6371:6391   */\n      tag_138\n      jump\t// in\n    tag_172:\n        /* \"#utility.yul\":6366:6391   */\n      swap3\n      pop\n        /* \"#utility.yul\":6559:6560   */\n      dup2\n        /* \"#utility.yul\":6491:6557   */\n      0xffffffffffffffffffffffffffffffffffffffffffffffffffffffffffffffff\n        /* \"#utility.yul\":6487:6561   */\n      div\n        /* \"#utility.yul\":6484:6485   */\n      dup4\n        /* \"#utility.yul\":6481:6562   */\n      gt\n        /* \"#utility.yul\":6476:6477   */\n      dup3\n        /* \"#utility.yul\":6469:6478   */\n      iszero\n        /* \"#utility.yul\":6462:6479   */\n      iszero\n        /* \"#utility.yul\":6458:6563   */\n      and\n        /* \"#utility.yul\":6455:6586   */\n      iszero\n      tag_173\n      jumpi\n        /* \"#utility.yul\":6566:6584   */\n      tag_174\n      tag_163\n      jump\t// in\n    tag_174:\n        /* \"#utility.yul\":6455:6586   */\n    tag_173:\n        /* \"#utility.yul\":6614:6615   */\n      dup3\n        /* \"#utility.yul\":6611:6612   */\n      dup3\n        /* \"#utility.yul\":6607:6616   */\n      mul\n        /* \"#utility.yul\":6596:6616   */\n      swap1\n      pop\n        /* \"#utility.yul\":6274:6622   */\n      swap3\n      swap2\n      pop\n      pop\n      jump\t// out\n        /* \"#utility.yul\":6628:6724   */\n    tag_122:\n        /* \"#utility.yul\":6665:6672   */\n      0x00\n        /* \"#utility.yul\":6694:6718   */\n      tag_176\n        /* \"#utility.yul\":6712:6717   */\n      dup3\n        /* \"#utility.yul\":6694:6718   */\n      tag_177\n      jump\t// in\n    tag_176:\n        /* \"#utility.yul\":6683:6718   */\n      swap1\n      pop\n        /* \"#utility.yul\":6628:6724   */\n      swap2\n      swap1\n      pop\n      jump\t// out\n        /* \"#utility.yul\":6730:6806   */\n    tag_159:\n        /* \"#utility.yul\":6766:6773   */\n      0x00\n        /* \"#utility.yul\":6795:6800   */\n      dup2\n        /* \"#utility.yul\":6784:6800   */\n      swap1\n      pop\n        /* \"#utility.yul\":6730:6806   */\n      swap2\n      swap1\n      pop\n      jump\t// out\n        /* \"#utility.yul\":6812:6938   */\n    tag_177:\n        /* \"#utility.yul\":6849:6856   */\n      0x00\n        /* \"#utility.yul\":6889:6931   */\n      0xffffffffffffffffffffffffffffffffffffffff\n        /* \"#utility.yul\":6882:6887   */\n      dup3\n        /* \"#utility.yul\":6878:6932   */\n      and\n        /* \"#utility.yul\":6867:6932   */\n      swap1\n      pop\n        /* \"#utility.yul\":6812:6938   */\n      swap2\n      swap1\n      pop\n      jump\t// out\n        /* \"#utility.yul\":6944:7021   */\n    tag_138:\n        /* \"#utility.yul\":6981:6988   */\n      0x00\n        /* \"#utility.yul\":7010:7015   */\n      dup2\n        /* \"#utility.yul\":6999:7015   */\n      swap1\n      pop\n        /* \"#utility.yul\":6944:7021   */\n      swap2\n      swap1\n      pop\n      jump\t// out\n        /* \"#utility.yul\":7027:7132   */\n    tag_181:\n        /* \"#utility.yul\":7063:7070   */\n      0x00\n        /* \"#utility.yul\":7103:7125   */\n      0xffffffffffffffffffff\n        /* \"#utility.yul\":7096:7101   */\n      dup3\n        /* \"#utility.yul\":7092:7126   */\n      and\n        /* \"#utility.yul\":7081:7126   */\n      swap1\n      pop\n        /* \"#utility.yul\":7027:7132   */\n      swap2\n      swap1\n      pop\n      jump\t// out\n        /* \"#utility.yul\":7138:7371   */\n    tag_39:\n        /* \"#utility.yul\":7177:7180   */\n      0x00\n        /* \"#utility.yul\":7200:7224   */\n      tag_184\n        /* \"#utility.yul\":7218:7223   */\n      dup3\n        /* \"#utility.yul\":7200:7224   */\n      tag_138\n      jump\t// in\n    tag_184:\n        /* \"#utility.yul\":7191:7224   */\n      swap2\n      pop\n        /* \"#utility.yul\":7246:7312   */\n      0xffffffffffffffffffffffffffffffffffffffffffffffffffffffffffffffff\n        /* \"#utility.yul\":7239:7244   */\n      dup3\n        /* \"#utility.yul\":7236:7313   */\n      eq\n        /* \"#utility.yul\":7233:7336   */\n      iszero\n      tag_185\n      jumpi\n        /* \"#utility.yul\":7316:7334   */\n      tag_186\n      tag_163\n      jump\t// in\n    tag_186:\n        /* \"#utility.yul\":7233:7336   */\n    tag_185:\n        /* \"#utility.yul\":7363:7364   */\n      0x01\n        /* \"#utility.yul\":7356:7361   */\n      dup3\n        /* \"#utility.yul\":7352:7365   */\n      add\n        /* \"#utility.yul\":7345:7365   */\n      swap1\n      pop\n        /* \"#utility.yul\":7138:7371   */\n      swap2\n      swap1\n      pop\n      jump\t// out\n        /* \"#utility.yul\":7377:7557   */\n    tag_163:\n        /* \"#utility.yul\":7425:7502   */\n      0x4e487b7100000000000000000000000000000000000000000000000000000000\n        /* \"#utility.yul\":7422:7423   */\n      0x00\n        /* \"#utility.yul\":7415:7503   */\n      mstore\n        /* \"#utility.yul\":7522:7526   */\n      0x11\n        /* \"#utility.yul\":7519:7520   */\n      0x04\n        /* \"#utility.yul\":7512:7527   */\n      mstore\n        /* \"#utility.yul\":7546:7550   */\n      0x24\n        /* \"#utility.yul\":7543:7544   */\n      0x00\n        /* \"#utility.yul\":7536:7551   */\n      revert\n        /* \"#utility.yul\":7563:7743   */\n    tag_156:\n        /* \"#utility.yul\":7611:7688   */\n      0x4e487b7100000000000000000000000000000000000000000000000000000000\n        /* \"#utility.yul\":7608:7609   */\n      0x00\n        /* \"#utility.yul\":7601:7689   */\n      mstore\n        /* \"#utility.yul\":7708:7712   */\n      0x12\n        /* \"#utility.yul\":7705:7706   */\n      0x04\n        /* \"#utility.yul\":7698:7713   */\n      mstore\n        /* \"#utility.yul\":7732:7736   */\n      0x24\n        /* \"#utility.yul\":7729:7730   */\n      0x00\n        /* \"#utility.yul\":7722:7737   */\n      revert\n        /* \"#utility.yul\":7749:7929   */\n    tag_36:\n        /* \"#utility.yul\":7797:7874   */\n      0x4e487b7100000000000000000000000000000000000000000000000000000000\n        /* \"#utility.yul\":7794:7795   */\n      0x00\n        /* \"#utility.yul\":7787:7875   */\n      mstore\n        /* \"#utility.yul\":7894:7898   */\n      0x32\n        /* \"#utility.yul\":7891:7892   */\n      0x04\n        /* \"#utility.yul\":7884:7899   */\n      mstore\n        /* \"#utility.yul\":7918:7922   */\n      0x24\n        /* \"#utility.yul\":7915:7916   */\n      0x00\n        /* \"#utility.yul\":7908:7923   */\n      revert\n        /* \"#utility.yul\":7935:8115   */\n    tag_42:\n        /* \"#utility.yul\":7983:8060   */\n      0x4e487b7100000000000000000000000000000000000000000000000000000000\n        /* \"#utility.yul\":7980:7981   */\n      0x00\n        /* \"#utility.yul\":7973:8061   */\n      mstore\n        /* \"#utility.yul\":8080:8084   */\n      0x41\n        /* \"#utility.yul\":8077:8078   */\n      0x04\n        /* \"#utility.yul\":8070:8085   */\n      mstore\n        /* \"#utility.yul\":8104:8108   */\n      0x24\n        /* \"#utility.yul\":8101:8102   */\n      0x00\n        /* \"#utility.yul\":8094:8109   */\n      revert\n        /* \"#utility.yul\":8244:8361   */\n    tag_105:\n        /* \"#utility.yul\":8353:8354   */\n      0x00\n        /* \"#utility.yul\":8350:8351   */\n      dup1\n        /* \"#utility.yul\":8343:8355   */\n      revert\n        /* \"#utility.yul\":8367:8535   */\n    tag_128:\n        /* \"#utility.yul\":8507:8527   */\n      0x4469646e27742073656e6420656e6f7567680000000000000000000000000000\n        /* \"#utility.yul\":8503:8504   */\n      0x00\n        /* \"#utility.yul\":8495:8501   */\n      dup3\n        /* \"#utility.yul\":8491:8505   */\n      add\n        /* \"#utility.yul\":8484:8528   */\n      mstore\n        /* \"#utility.yul\":8367:8535   */\n      pop\n      jump\t// out\n        /* \"#utility.yul\":8541:8655   */\n    tag_134:\n      pop\n      jump\t// out\n        /* \"#utility.yul\":8661:8783   */\n    tag_86:\n        /* \"#utility.yul\":8734:8758   */\n      tag_197\n        /* \"#utility.yul\":8752:8757   */\n      dup2\n        /* \"#utility.yul\":8734:8758   */\n      tag_122\n      jump\t// in\n    tag_197:\n        /* \"#utility.yul\":8727:8732   */\n      dup2\n        /* \"#utility.yul\":8724:8759   */\n      eq\n        /* \"#utility.yul\":8714:8777   */\n      tag_198\n      jumpi\n        /* \"#utility.yul\":8773:8774   */\n      0x00\n        /* \"#utility.yul\":8770:8771   */\n      dup1\n        /* \"#utility.yul\":8763:8775   */\n      revert\n        /* \"#utility.yul\":8714:8777   */\n    tag_198:\n        /* \"#utility.yul\":8661:8783   */\n      pop\n      jump\t// out\n        /* \"#utility.yul\":8789:8909   */\n    tag_90:\n        /* \"#utility.yul\":8861:8884   */\n      tag_200\n        /* \"#utility.yul\":8878:8883   */\n      dup2\n        /* \"#utility.yul\":8861:8884   */\n      tag_159\n      jump\t// in\n    tag_200:\n        /* \"#utility.yul\":8854:8859   */\n      dup2\n        /* \"#utility.yul\":8851:8885   */\n      eq\n        /* \"#utility.yul\":8841:8903   */\n      tag_201\n      jumpi\n        /* \"#utility.yul\":8899:8900   */\n      0x00\n        /* \"#utility.yul\":8896:8897   */\n      dup1\n        /* \"#utility.yul\":8889:8901   */\n      revert\n        /* \"#utility.yul\":8841:8903   */\n    tag_201:\n        /* \"#utility.yul\":8789:8909   */\n      pop\n      jump\t// out\n        /* \"#utility.yul\":8915:9037   */\n    tag_94:\n        /* \"#utility.yul\":8988:9012   */\n      tag_203\n        /* \"#utility.yul\":9006:9011   */\n      dup2\n        /* \"#utility.yul\":8988:9012   */\n      tag_138\n      jump\t// in\n    tag_203:\n        /* \"#utility.yul\":8981:8986   */\n      dup2\n        /* \"#utility.yul\":8978:9013   */\n      eq\n        /* \"#utility.yul\":8968:9031   */\n      tag_204\n      jumpi\n        /* \"#utility.yul\":9027:9028   */\n      0x00\n        /* \"#utility.yul\":9024:9025   */\n      dup1\n        /* \"#utility.yul\":9017:9029   */\n      revert\n        /* \"#utility.yul\":8968:9031   */\n    tag_204:\n        /* \"#utility.yul\":8915:9037   */\n      pop\n      jump\t// out\n        /* \"#utility.yul\":9043:9163   */\n    tag_101:\n        /* \"#utility.yul\":9115:9138   */\n      tag_206\n        /* \"#utility.yul\":9132:9137   */\n      dup2\n        /* \"#utility.yul\":9115:9138   */\n      tag_181\n      jump\t// in\n    tag_206:\n        /* \"#utility.yul\":9108:9113   */\n      dup2\n        /* \"#utility.yul\":9105:9139   */\n      eq\n        /* \"#utility.yul\":9095:9157   */\n      tag_207\n      jumpi\n        /* \"#utility.yul\":9153:9154   */\n      0x00\n        /* \"#utility.yul\":9150:9151   */\n      dup1\n        /* \"#utility.yul\":9143:9155   */\n      revert\n        /* \"#utility.yul\":9095:9157   */\n    tag_207:\n        /* \"#utility.yul\":9043:9163   */\n      pop\n      jump\t// out\n\n    auxdata: 0xa2646970667358221220c06213916e10960ceaaab0151d849524cb95ae9be2b502f324c23b26645b0ad064736f6c63430008070033\n}\n",
				"bytecode": {
					"linkReferences": {},
					"object": "60806040526802b5e3af16b188000060005534801561001d57600080fd5b50610b6c8061002d6000396000f3fe60806040526004361061004a5760003560e01c806352b50a2a1461004f5780636aba2c861461006657806378abafaf146100a3578063b60d4288146100ce578063dc0d3dff146100d8575b600080fd5b34801561005b57600080fd5b50610064610115565b005b34801561007257600080fd5b5061008d600480360381019061008891906105e6565b610291565b60405161009a919061076f565b60405180910390f35b3480156100af57600080fd5b506100b86102a9565b6040516100c5919061076f565b60405180910390f35b6100d66102af565b005b3480156100e457600080fd5b506100ff60048036038101906100fa9190610613565b6103a5565b60405161010c9190610734565b60405180910390f35b60005b6001805490508110156101c15760006001828154811061013b5761013a610a4b565b5b9060005260206000200160009054906101000a900473ffffffffffffffffffffffffffffffffffffffff1690506000600260008373ffffffffffffffffffffffffffffffffffffffff1673ffffffffffffffffffffffffffffffffffffffff168152602001908152602001600020819055505080806101b9906109a4565b915050610118565b50600067ffffffffffffffff8111156101dd576101dc610a7a565b5b60405190808252806020026020018201604052801561020b5781602001602082028036833780820191505090505b50600190805190602001906102219291906104d6565b5060003373ffffffffffffffffffffffffffffffffffffffff16476040516102489061071f565b60006040518083038185875af1925050503d8060008114610285576040519150601f19603f3d011682016040523d82523d6000602084013e61028a565b606091505b5050905050565b60026020528060005260406000206000915090505481565b60005481565b6000546102bb346103e4565b10156102fc576040517f08c379a00000000000000000000000000000000000000000000000000000000081526004016102f39061074f565b60405180910390fd5b6001339080600181540180825580915050600190039060005260206000200160009091909190916101000a81548173ffffffffffffffffffffffffffffffffffffffff021916908373ffffffffffffffffffffffffffffffffffffffff16021790555034600260003373ffffffffffffffffffffffffffffffffffffffff1673ffffffffffffffffffffffffffffffffffffffff16815260200190815260200160002081905550565b600181815481106103b557600080fd5b906000526020600020016000915054906101000a900473ffffffffffffffffffffffffffffffffffffffff1681565b6000806103ef61041e565b90506000670de0b6b3a7640000848361040891906108ee565b61041291906107a6565b90508092505050919050565b60008073d4a33860578de61dbabdc8bfdb98fd742fa7028e905060008173ffffffffffffffffffffffffffffffffffffffff1663feaf968c6040518163ffffffff1660e01b815260040160a06040518083038186803b15801561048057600080fd5b505afa158015610494573d6000803e3d6000fd5b505050506040513d601f19601f820116820180604052508101906104b89190610640565b5050509150506402540be400816104cf91906107d7565b9250505090565b82805482825590600052602060002090810192821561054f579160200282015b8281111561054e5782518260006101000a81548173ffffffffffffffffffffffffffffffffffffffff021916908373ffffffffffffffffffffffffffffffffffffffff160217905550916020019190600101906104f6565b5b50905061055c9190610560565b5090565b5b80821115610579576000816000905550600101610561565b5090565b60008135905061058c81610ada565b92915050565b6000815190506105a181610af1565b92915050565b6000813590506105b681610b08565b92915050565b6000815190506105cb81610b08565b92915050565b6000815190506105e081610b1f565b92915050565b6000602082840312156105fc576105fb610aa9565b5b600061060a8482850161057d565b91505092915050565b60006020828403121561062957610628610aa9565b5b6000610637848285016105a7565b91505092915050565b600080600080600060a0868803121561065c5761065b610aa9565b5b600061066a888289016105d1565b955050602061067b88828901610592565b945050604061068c888289016105bc565b935050606061069d888289016105bc565b92505060806106ae888289016105d1565b9150509295509295909350565b6106c481610948565b82525050565b60006106d7601283610795565b91506106e282610aae565b602082019050919050565b60006106fa60008361078a565b915061070582610ad7565b600082019050919050565b61071981610984565b82525050565b600061072a826106ed565b9150819050919050565b600060208201905061074960008301846106bb565b92915050565b60006020820190508181036000830152610768816106ca565b9050919050565b60006020820190506107846000830184610710565b92915050565b600081905092915050565b600082825260208201905092915050565b60006107b182610984565b91506107bc83610984565b9250826107cc576107cb610a1c565b5b828204905092915050565b60006107e28261095a565b91506107ed8361095a565b9250827f7fffffffffffffffffffffffffffffffffffffffffffffffffffffffffffffff048211600084136000841316161561082c5761082b6109ed565b5b817f80000000000000000000000000000000000000000000000000000000000000000583126000841260008413161615610869576108686109ed565b5b827f800000000000000000000000000000000000000000000000000000000000000005821260008413600084121616156108a6576108a56109ed565b5b827f7fffffffffffffffffffffffffffffffffffffffffffffffffffffffffffffff05821260008412600084121616156108e3576108e26109ed565b5b828202905092915050565b60006108f982610984565b915061090483610984565b9250817fffffffffffffffffffffffffffffffffffffffffffffffffffffffffffffffff048311821515161561093d5761093c6109ed565b5b828202905092915050565b600061095382610964565b9050919050565b6000819050919050565b600073ffffffffffffffffffffffffffffffffffffffff82169050919050565b6000819050919050565b600069ffffffffffffffffffff82169050919050565b60006109af82610984565b91507fffffffffffffffffffffffffffffffffffffffffffffffffffffffffffffffff8214156109e2576109e16109ed565b5b600182019050919050565b7f4e487b7100000000000000000000000000000000000000000000000000000000600052601160045260246000fd5b7f4e487b7100000000000000000000000000000000000000000000000000000000600052601260045260246000fd5b7f4e487b7100000000000000000000000000000000000000000000000000000000600052603260045260246000fd5b7f4e487b7100000000000000000000000000000000000000000000000000000000600052604160045260246000fd5b600080fd5b7f4469646e27742073656e6420656e6f7567680000000000000000000000000000600082015250565b50565b610ae381610948565b8114610aee57600080fd5b50565b610afa8161095a565b8114610b0557600080fd5b50565b610b1181610984565b8114610b1c57600080fd5b50565b610b288161098e565b8114610b3357600080fd5b5056fea2646970667358221220c06213916e10960ceaaab0151d849524cb95ae9be2b502f324c23b26645b0ad064736f6c63430008070033",
					"opcodes": "PUSH1 0x80 PUSH1 0x40 MSTORE PUSH9 0x2B5E3AF16B1880000 PUSH1 0x0 SSTORE CALLVALUE DUP1 ISZERO PUSH2 0x1D JUMPI PUSH1 0x0 DUP1 REVERT JUMPDEST POP PUSH2 0xB6C DUP1 PUSH2 0x2D PUSH1 0x0 CODECOPY PUSH1 0x0 RETURN INVALID PUSH1 0x80 PUSH1 0x40 MSTORE PUSH1 0x4 CALLDATASIZE LT PUSH2 0x4A JUMPI PUSH1 0x0 CALLDATALOAD PUSH1 0xE0 SHR DUP1 PUSH4 0x52B50A2A EQ PUSH2 0x4F JUMPI DUP1 PUSH4 0x6ABA2C86 EQ PUSH2 0x66 JUMPI DUP1 PUSH4 0x78ABAFAF EQ PUSH2 0xA3 JUMPI DUP1 PUSH4 0xB60D4288 EQ PUSH2 0xCE JUMPI DUP1 PUSH4 0xDC0D3DFF EQ PUSH2 0xD8 JUMPI JUMPDEST PUSH1 0x0 DUP1 REVERT JUMPDEST CALLVALUE DUP1 ISZERO PUSH2 0x5B JUMPI PUSH1 0x0 DUP1 REVERT JUMPDEST POP PUSH2 0x64 PUSH2 0x115 JUMP JUMPDEST STOP JUMPDEST CALLVALUE DUP1 ISZERO PUSH2 0x72 JUMPI PUSH1 0x0 DUP1 REVERT JUMPDEST POP PUSH2 0x8D PUSH1 0x4 DUP1 CALLDATASIZE SUB DUP2 ADD SWAP1 PUSH2 0x88 SWAP2 SWAP1 PUSH2 0x5E6 JUMP JUMPDEST PUSH2 0x291 JUMP JUMPDEST PUSH1 0x40 MLOAD PUSH2 0x9A SWAP2 SWAP1 PUSH2 0x76F JUMP JUMPDEST PUSH1 0x40 MLOAD DUP1 SWAP2 SUB SWAP1 RETURN JUMPDEST CALLVALUE DUP1 ISZERO PUSH2 0xAF JUMPI PUSH1 0x0 DUP1 REVERT JUMPDEST POP PUSH2 0xB8 PUSH2 0x2A9 JUMP JUMPDEST PUSH1 0x40 MLOAD PUSH2 0xC5 SWAP2 SWAP1 PUSH2 0x76F JUMP JUMPDEST PUSH1 0x40 MLOAD DUP1 SWAP2 SUB SWAP1 RETURN JUMPDEST PUSH2 0xD6 PUSH2 0x2AF JUMP JUMPDEST STOP JUMPDEST CALLVALUE DUP1 ISZERO PUSH2 0xE4 JUMPI PUSH1 0x0 DUP1 REVERT JUMPDEST POP PUSH2 0xFF PUSH1 0x4 DUP1 CALLDATASIZE SUB DUP2 ADD SWAP1 PUSH2 0xFA SWAP2 SWAP1 PUSH2 0x613 JUMP JUMPDEST PUSH2 0x3A5 JUMP JUMPDEST PUSH1 0x40 MLOAD PUSH2 0x10C SWAP2 SWAP1 PUSH2 0x734 JUMP JUMPDEST PUSH1 0x40 MLOAD DUP1 SWAP2 SUB SWAP1 RETURN JUMPDEST PUSH1 0x0 JUMPDEST PUSH1 0x1 DUP1 SLOAD SWAP1 POP DUP2 LT ISZERO PUSH2 0x1C1 JUMPI PUSH1 0x0 PUSH1 0x1 DUP3 DUP2 SLOAD DUP2 LT PUSH2 0x13B JUMPI PUSH2 0x13A PUSH2 0xA4B JUMP JUMPDEST JUMPDEST SWAP1 PUSH1 0x0 MSTORE PUSH1 0x20 PUSH1 0x0 KECCAK256 ADD PUSH1 0x0 SWAP1 SLOAD SWAP1 PUSH2 0x100 EXP SWAP1 DIV PUSH20 0xFFFFFFFFFFFFFFFFFFFFFFFFFFFFFFFFFFFFFFFF AND SWAP1 POP PUSH1 0x0 PUSH1 0x2 PUSH1 0x0 DUP4 PUSH20 0xFFFFFFFFFFFFFFFFFFFFFFFFFFFFFFFFFFFFFFFF AND PUSH20 0xFFFFFFFFFFFFFFFFFFFFFFFFFFFFFFFFFFFFFFFF AND DUP2 MSTORE PUSH1 0x20 ADD SWAP1 DUP2 MSTORE PUSH1 0x20 ADD PUSH1 0x0 KECCAK256 DUP2 SWAP1 SSTORE POP POP DUP1 DUP1 PUSH2 0x1B9 SWAP1 PUSH2 0x9A4 JUMP JUMPDEST SWAP2 POP POP PUSH2 0x118 JUMP JUMPDEST POP PUSH1 0x0 PUSH8 0xFFFFFFFFFFFFFFFF DUP2 GT ISZERO PUSH2 0x1DD JUMPI PUSH2 0x1DC PUSH2 0xA7A JUMP JUMPDEST JUMPDEST PUSH1 0x40 MLOAD SWAP1 DUP1 DUP3 MSTORE DUP1 PUSH1 0x20 MUL PUSH1 0x20 ADD DUP3 ADD PUSH1 0x40 MSTORE DUP1 ISZERO PUSH2 0x20B JUMPI DUP2 PUSH1 0x20 ADD PUSH1 0x20 DUP3 MUL DUP1 CALLDATASIZE DUP4 CALLDATACOPY DUP1 DUP3 ADD SWAP2 POP POP SWAP1 POP JUMPDEST POP PUSH1 0x1 SWAP1 DUP1 MLOAD SWAP1 PUSH1 0x20 ADD SWAP1 PUSH2 0x221 SWAP3 SWAP2 SWAP1 PUSH2 0x4D6 JUMP JUMPDEST POP PUSH1 0x0 CALLER PUSH20 0xFFFFFFFFFFFFFFFFFFFFFFFFFFFFFFFFFFFFFFFF AND SELFBALANCE PUSH1 0x40 MLOAD PUSH2 0x248 SWAP1 PUSH2 0x71F JUMP JUMPDEST PUSH1 0x0 PUSH1 0x40 MLOAD DUP1 DUP4 SUB DUP2 DUP6 DUP8 GAS CALL SWAP3 POP POP POP RETURNDATASIZE DUP1 PUSH1 0x0 DUP2 EQ PUSH2 0x285 JUMPI PUSH1 0x40 MLOAD SWAP2 POP PUSH1 0x1F NOT PUSH1 0x3F RETURNDATASIZE ADD AND DUP3 ADD PUSH1 0x40 MSTORE RETURNDATASIZE DUP3 MSTORE RETURNDATASIZE PUSH1 0x0 PUSH1 0x20 DUP5 ADD RETURNDATACOPY PUSH2 0x28A JUMP JUMPDEST PUSH1 0x60 SWAP2 POP JUMPDEST POP POP SWAP1 POP POP JUMP JUMPDEST PUSH1 0x2 PUSH1 0x20 MSTORE DUP1 PUSH1 0x0 MSTORE PUSH1 0x40 PUSH1 0x0 KECCAK256 PUSH1 0x0 SWAP2 POP SWAP1 POP SLOAD DUP2 JUMP JUMPDEST PUSH1 0x0 SLOAD DUP2 JUMP JUMPDEST PUSH1 0x0 SLOAD PUSH2 0x2BB CALLVALUE PUSH2 0x3E4 JUMP JUMPDEST LT ISZERO PUSH2 0x2FC JUMPI PUSH1 0x40 MLOAD PUSH32 0x8C379A000000000000000000000000000000000000000000000000000000000 DUP2 MSTORE PUSH1 0x4 ADD PUSH2 0x2F3 SWAP1 PUSH2 0x74F JUMP JUMPDEST PUSH1 0x40 MLOAD DUP1 SWAP2 SUB SWAP1 REVERT JUMPDEST PUSH1 0x1 CALLER SWAP1 DUP1 PUSH1 0x1 DUP2 SLOAD ADD DUP1 DUP3 SSTORE DUP1 SWAP2 POP POP PUSH1 0x1 SWAP1 SUB SWAP1 PUSH1 0x0 MSTORE PUSH1 0x20 PUSH1 0x0 KECCAK256 ADD PUSH1 0x0 SWAP1 SWAP2 SWAP1 SWAP2 SWAP1 SWAP2 PUSH2 0x100 EXP DUP2 SLOAD DUP2 PUSH20 0xFFFFFFFFFFFFFFFFFFFFFFFFFFFFFFFFFFFFFFFF MUL NOT AND SWAP1 DUP4 PUSH20 0xFFFFFFFFFFFFFFFFFFFFFFFFFFFFFFFFFFFFFFFF AND MUL OR SWAP1 SSTORE POP CALLVALUE PUSH1 0x2 PUSH1 0x0 CALLER PUSH20 0xFFFFFFFFFFFFFFFFFFFFFFFFFFFFFFFFFFFFFFFF AND PUSH20 0xFFFFFFFFFFFFFFFFFFFFFFFFFFFFFFFFFFFFFFFF AND DUP2 MSTORE PUSH1 0x20 ADD SWAP1 DUP2 MSTORE PUSH1 0x20 ADD PUSH1 0x0 KECCAK256 DUP2 SWAP1 SSTORE POP JUMP JUMPDEST PUSH1 0x1 DUP2 DUP2 SLOAD DUP2 LT PUSH2 0x3B5 JUMPI PUSH1 0x0 DUP1 REVERT JUMPDEST SWAP1 PUSH1 0x0 MSTORE PUSH1 0x20 PUSH1 0x0 KECCAK256 ADD PUSH1 0x0 SWAP2 POP SLOAD SWAP1 PUSH2 0x100 EXP SWAP1 DIV PUSH20 0xFFFFFFFFFFFFFFFFFFFFFFFFFFFFFFFFFFFFFFFF AND DUP2 JUMP JUMPDEST PUSH1 0x0 DUP1 PUSH2 0x3EF PUSH2 0x41E JUMP JUMPDEST SWAP1 POP PUSH1 0x0 PUSH8 0xDE0B6B3A7640000 DUP5 DUP4 PUSH2 0x408 SWAP2 SWAP1 PUSH2 0x8EE JUMP JUMPDEST PUSH2 0x412 SWAP2 SWAP1 PUSH2 0x7A6 JUMP JUMPDEST SWAP1 POP DUP1 SWAP3 POP POP POP SWAP2 SWAP1 POP JUMP JUMPDEST PUSH1 0x0 DUP1 PUSH20 0xD4A33860578DE61DBABDC8BFDB98FD742FA7028E SWAP1 POP PUSH1 0x0 DUP2 PUSH20 0xFFFFFFFFFFFFFFFFFFFFFFFFFFFFFFFFFFFFFFFF AND PUSH4 0xFEAF968C PUSH1 0x40 MLOAD DUP2 PUSH4 0xFFFFFFFF AND PUSH1 0xE0 SHL DUP2 MSTORE PUSH1 0x4 ADD PUSH1 0xA0 PUSH1 0x40 MLOAD DUP1 DUP4 SUB DUP2 DUP7 DUP1 EXTCODESIZE ISZERO DUP1 ISZERO PUSH2 0x480 JUMPI PUSH1 0x0 DUP1 REVERT JUMPDEST POP GAS STATICCALL ISZERO DUP1 ISZERO PUSH2 0x494 JUMPI RETURNDATASIZE PUSH1 0x0 DUP1 RETURNDATACOPY RETURNDATASIZE PUSH1 0x0 REVERT JUMPDEST POP POP POP POP PUSH1 0x40 MLOAD RETURNDATASIZE PUSH1 0x1F NOT PUSH1 0x1F DUP3 ADD AND DUP3 ADD DUP1 PUSH1 0x40 MSTORE POP DUP2 ADD SWAP1 PUSH2 0x4B8 SWAP2 SWAP1 PUSH2 0x640 JUMP JUMPDEST POP POP POP SWAP2 POP POP PUSH5 0x2540BE400 DUP2 PUSH2 0x4CF SWAP2 SWAP1 PUSH2 0x7D7 JUMP JUMPDEST SWAP3 POP POP POP SWAP1 JUMP JUMPDEST DUP3 DUP1 SLOAD DUP3 DUP3 SSTORE SWAP1 PUSH1 0x0 MSTORE PUSH1 0x20 PUSH1 0x0 KECCAK256 SWAP1 DUP2 ADD SWAP3 DUP3 ISZERO PUSH2 0x54F JUMPI SWAP2 PUSH1 0x20 MUL DUP3 ADD JUMPDEST DUP3 DUP2 GT ISZERO PUSH2 0x54E JUMPI DUP3 MLOAD DUP3 PUSH1 0x0 PUSH2 0x100 EXP DUP2 SLOAD DUP2 PUSH20 0xFFFFFFFFFFFFFFFFFFFFFFFFFFFFFFFFFFFFFFFF MUL NOT AND SWAP1 DUP4 PUSH20 0xFFFFFFFFFFFFFFFFFFFFFFFFFFFFFFFFFFFFFFFF AND MUL OR SWAP1 SSTORE POP SWAP2 PUSH1 0x20 ADD SWAP2 SWAP1 PUSH1 0x1 ADD SWAP1 PUSH2 0x4F6 JUMP JUMPDEST JUMPDEST POP SWAP1 POP PUSH2 0x55C SWAP2 SWAP1 PUSH2 0x560 JUMP JUMPDEST POP SWAP1 JUMP JUMPDEST JUMPDEST DUP1 DUP3 GT ISZERO PUSH2 0x579 JUMPI PUSH1 0x0 DUP2 PUSH1 0x0 SWAP1 SSTORE POP PUSH1 0x1 ADD PUSH2 0x561 JUMP JUMPDEST POP SWAP1 JUMP JUMPDEST PUSH1 0x0 DUP2 CALLDATALOAD SWAP1 POP PUSH2 0x58C DUP2 PUSH2 0xADA JUMP JUMPDEST SWAP3 SWAP2 POP POP JUMP JUMPDEST PUSH1 0x0 DUP2 MLOAD SWAP1 POP PUSH2 0x5A1 DUP2 PUSH2 0xAF1 JUMP JUMPDEST SWAP3 SWAP2 POP POP JUMP JUMPDEST PUSH1 0x0 DUP2 CALLDATALOAD SWAP1 POP PUSH2 0x5B6 DUP2 PUSH2 0xB08 JUMP JUMPDEST SWAP3 SWAP2 POP POP JUMP JUMPDEST PUSH1 0x0 DUP2 MLOAD SWAP1 POP PUSH2 0x5CB DUP2 PUSH2 0xB08 JUMP JUMPDEST SWAP3 SWAP2 POP POP JUMP JUMPDEST PUSH1 0x0 DUP2 MLOAD SWAP1 POP PUSH2 0x5E0 DUP2 PUSH2 0xB1F JUMP JUMPDEST SWAP3 SWAP2 POP POP JUMP JUMPDEST PUSH1 0x0 PUSH1 0x20 DUP3 DUP5 SUB SLT ISZERO PUSH2 0x5FC JUMPI PUSH2 0x5FB PUSH2 0xAA9 JUMP JUMPDEST JUMPDEST PUSH1 0x0 PUSH2 0x60A DUP5 DUP3 DUP6 ADD PUSH2 0x57D JUMP JUMPDEST SWAP2 POP POP SWAP3 SWAP2 POP POP JUMP JUMPDEST PUSH1 0x0 PUSH1 0x20 DUP3 DUP5 SUB SLT ISZERO PUSH2 0x629 JUMPI PUSH2 0x628 PUSH2 0xAA9 JUMP JUMPDEST JUMPDEST PUSH1 0x0 PUSH2 0x637 DUP5 DUP3 DUP6 ADD PUSH2 0x5A7 JUMP JUMPDEST SWAP2 POP POP SWAP3 SWAP2 POP POP JUMP JUMPDEST PUSH1 0x0 DUP1 PUSH1 0x0 DUP1 PUSH1 0x0 PUSH1 0xA0 DUP7 DUP9 SUB SLT ISZERO PUSH2 0x65C JUMPI PUSH2 0x65B PUSH2 0xAA9 JUMP JUMPDEST JUMPDEST PUSH1 0x0 PUSH2 0x66A DUP9 DUP3 DUP10 ADD PUSH2 0x5D1 JUMP JUMPDEST SWAP6 POP POP PUSH1 0x20 PUSH2 0x67B DUP9 DUP3 DUP10 ADD PUSH2 0x592 JUMP JUMPDEST SWAP5 POP POP PUSH1 0x40 PUSH2 0x68C DUP9 DUP3 DUP10 ADD PUSH2 0x5BC JUMP JUMPDEST SWAP4 POP POP PUSH1 0x60 PUSH2 0x69D DUP9 DUP3 DUP10 ADD PUSH2 0x5BC JUMP JUMPDEST SWAP3 POP POP PUSH1 0x80 PUSH2 0x6AE DUP9 DUP3 DUP10 ADD PUSH2 0x5D1 JUMP JUMPDEST SWAP2 POP POP SWAP3 SWAP6 POP SWAP3 SWAP6 SWAP1 SWAP4 POP JUMP JUMPDEST PUSH2 0x6C4 DUP2 PUSH2 0x948 JUMP JUMPDEST DUP3 MSTORE POP POP JUMP JUMPDEST PUSH1 0x0 PUSH2 0x6D7 PUSH1 0x12 DUP4 PUSH2 0x795 JUMP JUMPDEST SWAP2 POP PUSH2 0x6E2 DUP3 PUSH2 0xAAE JUMP JUMPDEST PUSH1 0x20 DUP3 ADD SWAP1 POP SWAP2 SWAP1 POP JUMP JUMPDEST PUSH1 0x0 PUSH2 0x6FA PUSH1 0x0 DUP4 PUSH2 0x78A JUMP JUMPDEST SWAP2 POP PUSH2 0x705 DUP3 PUSH2 0xAD7 JUMP JUMPDEST PUSH1 0x0 DUP3 ADD SWAP1 POP SWAP2 SWAP1 POP JUMP JUMPDEST PUSH2 0x719 DUP2 PUSH2 0x984 JUMP JUMPDEST DUP3 MSTORE POP POP JUMP JUMPDEST PUSH1 0x0 PUSH2 0x72A DUP3 PUSH2 0x6ED JUMP JUMPDEST SWAP2 POP DUP2 SWAP1 POP SWAP2 SWAP1 POP JUMP JUMPDEST PUSH1 0x0 PUSH1 0x20 DUP3 ADD SWAP1 POP PUSH2 0x749 PUSH1 0x0 DUP4 ADD DUP5 PUSH2 0x6BB JUMP JUMPDEST SWAP3 SWAP2 POP POP JUMP JUMPDEST PUSH1 0x0 PUSH1 0x20 DUP3 ADD SWAP1 POP DUP2 DUP2 SUB PUSH1 0x0 DUP4 ADD MSTORE PUSH2 0x768 DUP2 PUSH2 0x6CA JUMP JUMPDEST SWAP1 POP SWAP2 SWAP1 POP JUMP JUMPDEST PUSH1 0x0 PUSH1 0x20 DUP3 ADD SWAP1 POP PUSH2 0x784 PUSH1 0x0 DUP4 ADD DUP5 PUSH2 0x710 JUMP JUMPDEST SWAP3 SWAP2 POP POP JUMP JUMPDEST PUSH1 0x0 DUP2 SWAP1 POP SWAP3 SWAP2 POP POP JUMP JUMPDEST PUSH1 0x0 DUP3 DUP3 MSTORE PUSH1 0x20 DUP3 ADD SWAP1 POP SWAP3 SWAP2 POP POP JUMP JUMPDEST PUSH1 0x0 PUSH2 0x7B1 DUP3 PUSH2 0x984 JUMP JUMPDEST SWAP2 POP PUSH2 0x7BC DUP4 PUSH2 0x984 JUMP JUMPDEST SWAP3 POP DUP3 PUSH2 0x7CC JUMPI PUSH2 0x7CB PUSH2 0xA1C JUMP JUMPDEST JUMPDEST DUP3 DUP3 DIV SWAP1 POP SWAP3 SWAP2 POP POP JUMP JUMPDEST PUSH1 0x0 PUSH2 0x7E2 DUP3 PUSH2 0x95A JUMP JUMPDEST SWAP2 POP PUSH2 0x7ED DUP4 PUSH2 0x95A JUMP JUMPDEST SWAP3 POP DUP3 PUSH32 0x7FFFFFFFFFFFFFFFFFFFFFFFFFFFFFFFFFFFFFFFFFFFFFFFFFFFFFFFFFFFFFFF DIV DUP3 GT PUSH1 0x0 DUP5 SGT PUSH1 0x0 DUP5 SGT AND AND ISZERO PUSH2 0x82C JUMPI PUSH2 0x82B PUSH2 0x9ED JUMP JUMPDEST JUMPDEST DUP2 PUSH32 0x8000000000000000000000000000000000000000000000000000000000000000 SDIV DUP4 SLT PUSH1 0x0 DUP5 SLT PUSH1 0x0 DUP5 SGT AND AND ISZERO PUSH2 0x869 JUMPI PUSH2 0x868 PUSH2 0x9ED JUMP JUMPDEST JUMPDEST DUP3 PUSH32 0x8000000000000000000000000000000000000000000000000000000000000000 SDIV DUP3 SLT PUSH1 0x0 DUP5 SGT PUSH1 0x0 DUP5 SLT AND AND ISZERO PUSH2 0x8A6 JUMPI PUSH2 0x8A5 PUSH2 0x9ED JUMP JUMPDEST JUMPDEST DUP3 PUSH32 0x7FFFFFFFFFFFFFFFFFFFFFFFFFFFFFFFFFFFFFFFFFFFFFFFFFFFFFFFFFFFFFFF SDIV DUP3 SLT PUSH1 0x0 DUP5 SLT PUSH1 0x0 DUP5 SLT AND AND ISZERO PUSH2 0x8E3 JUMPI PUSH2 0x8E2 PUSH2 0x9ED JUMP JUMPDEST JUMPDEST DUP3 DUP3 MUL SWAP1 POP SWAP3 SWAP2 POP POP JUMP JUMPDEST PUSH1 0x0 PUSH2 0x8F9 DUP3 PUSH2 0x984 JUMP JUMPDEST SWAP2 POP PUSH2 0x904 DUP4 PUSH2 0x984 JUMP JUMPDEST SWAP3 POP DUP2 PUSH32 0xFFFFFFFFFFFFFFFFFFFFFFFFFFFFFFFFFFFFFFFFFFFFFFFFFFFFFFFFFFFFFFFF DIV DUP4 GT DUP3 ISZERO ISZERO AND ISZERO PUSH2 0x93D JUMPI PUSH2 0x93C PUSH2 0x9ED JUMP JUMPDEST JUMPDEST DUP3 DUP3 MUL SWAP1 POP SWAP3 SWAP2 POP POP JUMP JUMPDEST PUSH1 0x0 PUSH2 0x953 DUP3 PUSH2 0x964 JUMP JUMPDEST SWAP1 POP SWAP2 SWAP1 POP JUMP JUMPDEST PUSH1 0x0 DUP2 SWAP1 POP SWAP2 SWAP1 POP JUMP JUMPDEST PUSH1 0x0 PUSH20 0xFFFFFFFFFFFFFFFFFFFFFFFFFFFFFFFFFFFFFFFF DUP3 AND SWAP1 POP SWAP2 SWAP1 POP JUMP JUMPDEST PUSH1 0x0 DUP2 SWAP1 POP SWAP2 SWAP1 POP JUMP JUMPDEST PUSH1 0x0 PUSH10 0xFFFFFFFFFFFFFFFFFFFF DUP3 AND SWAP1 POP SWAP2 SWAP1 POP JUMP JUMPDEST PUSH1 0x0 PUSH2 0x9AF DUP3 PUSH2 0x984 JUMP JUMPDEST SWAP2 POP PUSH32 0xFFFFFFFFFFFFFFFFFFFFFFFFFFFFFFFFFFFFFFFFFFFFFFFFFFFFFFFFFFFFFFFF DUP3 EQ ISZERO PUSH2 0x9E2 JUMPI PUSH2 0x9E1 PUSH2 0x9ED JUMP JUMPDEST JUMPDEST PUSH1 0x1 DUP3 ADD SWAP1 POP SWAP2 SWAP1 POP JUMP JUMPDEST PUSH32 0x4E487B7100000000000000000000000000000000000000000000000000000000 PUSH1 0x0 MSTORE PUSH1 0x11 PUSH1 0x4 MSTORE PUSH1 0x24 PUSH1 0x0 REVERT JUMPDEST PUSH32 0x4E487B7100000000000000000000000000000000000000000000000000000000 PUSH1 0x0 MSTORE PUSH1 0x12 PUSH1 0x4 MSTORE PUSH1 0x24 PUSH1 0x0 REVERT JUMPDEST PUSH32 0x4E487B7100000000000000000000000000000000000000000000000000000000 PUSH1 0x0 MSTORE PUSH1 0x32 PUSH1 0x4 MSTORE PUSH1 0x24 PUSH1 0x0 REVERT JUMPDEST PUSH32 0x4E487B7100000000000000000000000000000000000000000000000000000000 PUSH1 0x0 MSTORE PUSH1 0x41 PUSH1 0x4 MSTORE PUSH1 0x24 PUSH1 0x0 REVERT JUMPDEST PUSH1 0x0 DUP1 REVERT JUMPDEST PUSH32 0x4469646E27742073656E6420656E6F7567680000000000000000000000000000 PUSH1 0x0 DUP3 ADD MSTORE POP JUMP JUMPDEST POP JUMP JUMPDEST PUSH2 0xAE3 DUP2 PUSH2 0x948 JUMP JUMPDEST DUP2 EQ PUSH2 0xAEE JUMPI PUSH1 0x0 DUP1 REVERT JUMPDEST POP JUMP JUMPDEST PUSH2 0xAFA DUP2 PUSH2 0x95A JUMP JUMPDEST DUP2 EQ PUSH2 0xB05 JUMPI PUSH1 0x0 DUP1 REVERT JUMPDEST POP JUMP JUMPDEST PUSH2 0xB11 DUP2 PUSH2 0x984 JUMP JUMPDEST DUP2 EQ PUSH2 0xB1C JUMPI PUSH1 0x0 DUP1 REVERT JUMPDEST POP JUMP JUMPDEST PUSH2 0xB28 DUP2 PUSH2 0x98E JUMP JUMPDEST DUP2 EQ PUSH2 0xB33 JUMPI PUSH1 0x0 DUP1 REVERT JUMPDEST POP JUMP INVALID LOG2 PUSH5 0x6970667358 0x22 SLT KECCAK256 0xC0 PUSH3 0x13916E LT SWAP7 0xC 0xEA 0xAA 0xB0 ISZERO SAR DUP5 SWAP6 0x24 0xCB SWAP6 0xAE SWAP12 0xE2 0xB5 MUL RETURN 0x24 0xC2 EXTCODESIZE 0x26 PUSH5 0x5B0AD06473 PUSH16 0x6C634300080700330000000000000000 "
				},
				"gasEstimates": {
					"creation": {
						"codeDepositCost": "584800",
						"executionCost": "22725",
						"totalCost": "607525"
					},
					"external": {
						"fund()": "infinite",
						"funderAndAmountSent(address)": "2814",
						"funders(uint256)": "5022",
						"limitAmount()": "2451",
						"widthdraw()": "infinite"
					}
				},
				"methodIdentifiers": {
					"fund()": "b60d4288",
					"funderAndAmountSent(address)": "6aba2c86",
					"funders(uint256)": "dc0d3dff",
					"limitAmount()": "78abafaf",
					"widthdraw()": "52b50a2a"
				}
			},
			"storageLayout": {
				"storage": [
					{
						"astId": 58,
						"contract": "Contracts/FundMe.sol:FundMe",
						"label": "limitAmount",
						"offset": 0,
						"slot": "0",
						"type": "t_uint256"
					},
					{
						"astId": 61,
						"contract": "Contracts/FundMe.sol:FundMe",
						"label": "funders",
						"offset": 0,
						"slot": "1",
						"type": "t_array(t_address)dyn_storage"
					},
					{
						"astId": 65,
						"contract": "Contracts/FundMe.sol:FundMe",
						"label": "funderAndAmountSent",
						"offset": 0,
						"slot": "2",
						"type": "t_mapping(t_address,t_uint256)"
					}
				],
				"types": {
					"t_address": {
						"encoding": "inplace",
						"label": "address",
						"numberOfBytes": "20"
					},
					"t_array(t_address)dyn_storage": {
						"base": "t_address",
						"encoding": "dynamic_array",
						"label": "address[]",
						"numberOfBytes": "32"
					},
					"t_mapping(t_address,t_uint256)": {
						"encoding": "mapping",
						"key": "t_address",
						"label": "mapping(address => uint256)",
						"numberOfBytes": "32",
						"value": "t_uint256"
					},
					"t_uint256": {
						"encoding": "inplace",
						"label": "uint256",
						"numberOfBytes": "32"
					}
				}
			},
			"userdoc": {
				"kind": "user",
				"methods": {},
				"version": 1
			}
		}
	}
}