{
	"Contracts/FundMe.sol": {
		"FundMe": {
			"abi": [
				{
					"inputs": [],
					"name": "fund",
					"outputs": [],
					"stateMutability": "payable",
					"type": "function"
				},
				{
					"inputs": [
						{
							"internalType": "address",
							"name": "",
							"type": "address"
						}
					],
					"name": "funderAndAmountSent",
					"outputs": [
						{
							"internalType": "uint256",
							"name": "",
							"type": "uint256"
						}
					],
					"stateMutability": "view",
					"type": "function"
				},
				{
					"inputs": [
						{
							"internalType": "uint256",
							"name": "",
							"type": "uint256"
						}
					],
					"name": "funders",
					"outputs": [
						{
							"internalType": "address",
							"name": "",
							"type": "address"
						}
					],
					"stateMutability": "view",
					"type": "function"
				},
				{
					"inputs": [],
					"name": "limitAmount",
					"outputs": [
						{
							"internalType": "uint256",
							"name": "",
							"type": "uint256"
						}
					],
					"stateMutability": "view",
					"type": "function"
				},
				{
					"inputs": [],
					"name": "widthdraw",
					"outputs": [],
					"stateMutability": "nonpayable",
					"type": "function"
				}
			],
			"devdoc": {
				"kind": "dev",
				"methods": {},
				"version": 1
			},
			"evm": {
				"assembly": "    /* \"Contracts/FundMe.sol\":95:709  contract FundMe{\r... */\n  mstore(0x40, 0x80)\n    /* \"Contracts/FundMe.sol\":185:198  50 * 10 ** 18 */\n  0x02b5e3af16b1880000\n    /* \"Contracts/FundMe.sol\":156:198  uint256 public limitAmount = 50 * 10 ** 18 */\n  0x00\n  sstore\n    /* \"Contracts/FundMe.sol\":95:709  contract FundMe{\r... */\n  callvalue\n  dup1\n  iszero\n  tag_1\n  jumpi\n  0x00\n  dup1\n  revert\ntag_1:\n  pop\n  dataSize(sub_0)\n  dup1\n  dataOffset(sub_0)\n  0x00\n  codecopy\n  0x00\n  return\nstop\n\nsub_0: assembly {\n        /* \"Contracts/FundMe.sol\":95:709  contract FundMe{\r... */\n      mstore(0x40, 0x80)\n      jumpi(tag_1, lt(calldatasize, 0x04))\n      shr(0xe0, calldataload(0x00))\n      dup1\n      0x52b50a2a\n      eq\n      tag_2\n      jumpi\n      dup1\n      0x6aba2c86\n      eq\n      tag_3\n      jumpi\n      dup1\n      0x78abafaf\n      eq\n      tag_4\n      jumpi\n      dup1\n      0xb60d4288\n      eq\n      tag_5\n      jumpi\n      dup1\n      0xdc0d3dff\n      eq\n      tag_6\n      jumpi\n    tag_1:\n      0x00\n      dup1\n      revert\n        /* \"Contracts/FundMe.sol\":522:706  function widthdraw() public {\r... */\n    tag_2:\n      callvalue\n      dup1\n      iszero\n      tag_7\n      jumpi\n      0x00\n      dup1\n      revert\n    tag_7:\n      pop\n      tag_8\n      tag_9\n      jump\t// in\n    tag_8:\n      stop\n        /* \"Contracts/FundMe.sol\":236:290  mapping(address => uint256) public funderAndAmountSent */\n    tag_3:\n      callvalue\n      dup1\n      iszero\n      tag_10\n      jumpi\n      0x00\n      dup1\n      revert\n    tag_10:\n      pop\n      tag_11\n      0x04\n      dup1\n      calldatasize\n      sub\n      dup2\n      add\n      swap1\n      tag_12\n      swap2\n      swap1\n      tag_13\n      jump\t// in\n    tag_12:\n      tag_14\n      jump\t// in\n    tag_11:\n      mload(0x40)\n      tag_15\n      swap2\n      swap1\n      tag_16\n      jump\t// in\n    tag_15:\n      mload(0x40)\n      dup1\n      swap2\n      sub\n      swap1\n      return\n        /* \"Contracts/FundMe.sol\":156:198  uint256 public limitAmount = 50 * 10 ** 18 */\n    tag_4:\n      callvalue\n      dup1\n      iszero\n      tag_17\n      jumpi\n      0x00\n      dup1\n      revert\n    tag_17:\n      pop\n      tag_18\n      tag_19\n      jump\t// in\n    tag_18:\n      mload(0x40)\n      tag_20\n      swap2\n      swap1\n      tag_16\n      jump\t// in\n    tag_20:\n      mload(0x40)\n      dup1\n      swap2\n      sub\n      swap1\n      return\n        /* \"Contracts/FundMe.sol\":299:514  function fund() public payable {\r... */\n    tag_5:\n      tag_21\n      tag_22\n      jump\t// in\n    tag_21:\n      stop\n        /* \"Contracts/FundMe.sol\":205:229  address[] public funders */\n    tag_6:\n      callvalue\n      dup1\n      iszero\n      tag_23\n      jumpi\n      0x00\n      dup1\n      revert\n    tag_23:\n      pop\n      tag_24\n      0x04\n      dup1\n      calldatasize\n      sub\n      dup2\n      add\n      swap1\n      tag_25\n      swap2\n      swap1\n      tag_26\n      jump\t// in\n    tag_25:\n      tag_27\n      jump\t// in\n    tag_24:\n      mload(0x40)\n      tag_28\n      swap2\n      swap1\n      tag_29\n      jump\t// in\n    tag_28:\n      mload(0x40)\n      dup1\n      swap2\n      sub\n      swap1\n      return\n        /* \"Contracts/FundMe.sol\":522:706  function widthdraw() public {\r... */\n    tag_9:\n        /* \"Contracts/FundMe.sol\":565:584  uint256 funderIndex */\n      0x00\n        /* \"Contracts/FundMe.sol\":561:699  for(uint256 funderIndex = 0; funderIndex< funders.length; funderIndex++){\r... */\n    tag_31:\n        /* \"Contracts/FundMe.sol\":603:610  funders */\n      0x01\n        /* \"Contracts/FundMe.sol\":603:617  funders.length */\n      dup1\n      sload\n      swap1\n      pop\n        /* \"Contracts/FundMe.sol\":590:601  funderIndex */\n      dup2\n        /* \"Contracts/FundMe.sol\":590:617  funderIndex< funders.length */\n      lt\n        /* \"Contracts/FundMe.sol\":561:699  for(uint256 funderIndex = 0; funderIndex< funders.length; funderIndex++){\r... */\n      iszero\n      tag_32\n      jumpi\n        /* \"Contracts/FundMe.sol\":648:662  address funder */\n      0x00\n        /* \"Contracts/FundMe.sol\":665:672  funders */\n      0x01\n        /* \"Contracts/FundMe.sol\":673:684  funderIndex */\n      dup3\n        /* \"Contracts/FundMe.sol\":665:685  funders[funderIndex] */\n      dup2\n      sload\n      dup2\n      lt\n      tag_34\n      jumpi\n      tag_35\n      tag_36\n      jump\t// in\n    tag_35:\n    tag_34:\n      swap1\n      0x00\n      mstore\n      keccak256(0x00, 0x20)\n      add\n      0x00\n      swap1\n      sload\n      swap1\n      0x0100\n      exp\n      swap1\n      div\n      0xffffffffffffffffffffffffffffffffffffffff\n      and\n        /* \"Contracts/FundMe.sol\":648:685  address funder = funders[funderIndex] */\n      swap1\n      pop\n        /* \"Contracts/FundMe.sol\":633:699  {\r... */\n      pop\n        /* \"Contracts/FundMe.sol\":619:632  funderIndex++ */\n      dup1\n      dup1\n      tag_38\n      swap1\n      tag_39\n      jump\t// in\n    tag_38:\n      swap2\n      pop\n      pop\n        /* \"Contracts/FundMe.sol\":561:699  for(uint256 funderIndex = 0; funderIndex< funders.length; funderIndex++){\r... */\n      jump(tag_31)\n    tag_32:\n      pop\n        /* \"Contracts/FundMe.sol\":522:706  function widthdraw() public {\r... */\n      jump\t// out\n        /* \"Contracts/FundMe.sol\":236:290  mapping(address => uint256) public funderAndAmountSent */\n    tag_14:\n      mstore(0x20, 0x02)\n      dup1\n      0x00\n      mstore\n      keccak256(0x00, 0x40)\n      0x00\n      swap2\n      pop\n      swap1\n      pop\n      sload\n      dup2\n      jump\t// out\n        /* \"Contracts/FundMe.sol\":156:198  uint256 public limitAmount = 50 * 10 ** 18 */\n    tag_19:\n      sload(0x00)\n      dup2\n      jump\t// out\n        /* \"Contracts/FundMe.sol\":299:514  function fund() public payable {\r... */\n    tag_22:\n        /* \"Contracts/FundMe.sol\":382:393  limitAmount */\n      sload(0x00)\n        /* \"Contracts/FundMe.sol\":349:378  msg.value.getConversionRate() */\n      tag_41\n        /* \"Contracts/FundMe.sol\":349:358  msg.value */\n      callvalue\n        /* \"Contracts/FundMe.sol\":349:376  msg.value.getConversionRate */\n      tag_42\n        /* \"Contracts/FundMe.sol\":349:378  msg.value.getConversionRate() */\n      jump\t// in\n    tag_41:\n        /* \"Contracts/FundMe.sol\":349:393  msg.value.getConversionRate() >= limitAmount */\n      lt\n      iszero\n        /* \"Contracts/FundMe.sol\":341:416  require(msg.value.getConversionRate() >= limitAmount, \"Didn't send enough\") */\n      tag_43\n      jumpi\n      mload(0x40)\n      0x08c379a000000000000000000000000000000000000000000000000000000000\n      dup2\n      mstore\n      0x04\n      add\n      tag_44\n      swap1\n      tag_45\n      jump\t// in\n    tag_44:\n      mload(0x40)\n      dup1\n      swap2\n      sub\n      swap1\n      revert\n    tag_43:\n        /* \"Contracts/FundMe.sol\":427:434  funders */\n      0x01\n        /* \"Contracts/FundMe.sol\":440:450  msg.sender */\n      caller\n        /* \"Contracts/FundMe.sol\":427:451  funders.push(msg.sender) */\n      swap1\n      dup1\n      0x01\n      dup2\n      sload\n      add\n      dup1\n      dup3\n      sstore\n      dup1\n      swap2\n      pop\n      pop\n      0x01\n      swap1\n      sub\n      swap1\n      0x00\n      mstore\n      keccak256(0x00, 0x20)\n      add\n      0x00\n      swap1\n      swap2\n      swap1\n      swap2\n      swap1\n      swap2\n      0x0100\n      exp\n      dup2\n      sload\n      dup2\n      0xffffffffffffffffffffffffffffffffffffffff\n      mul\n      not\n      and\n      swap1\n      dup4\n      0xffffffffffffffffffffffffffffffffffffffff\n      and\n      mul\n      or\n      swap1\n      sstore\n      pop\n        /* \"Contracts/FundMe.sol\":495:504  msg.value */\n      callvalue\n        /* \"Contracts/FundMe.sol\":462:481  funderAndAmountSent */\n      0x02\n        /* \"Contracts/FundMe.sol\":462:493  funderAndAmountSent[msg.sender] */\n      0x00\n        /* \"Contracts/FundMe.sol\":482:492  msg.sender */\n      caller\n        /* \"Contracts/FundMe.sol\":462:493  funderAndAmountSent[msg.sender] */\n      0xffffffffffffffffffffffffffffffffffffffff\n      and\n      0xffffffffffffffffffffffffffffffffffffffff\n      and\n      dup2\n      mstore\n      0x20\n      add\n      swap1\n      dup2\n      mstore\n      0x20\n      add\n      0x00\n      keccak256\n        /* \"Contracts/FundMe.sol\":462:504  funderAndAmountSent[msg.sender] =msg.value */\n      dup2\n      swap1\n      sstore\n      pop\n        /* \"Contracts/FundMe.sol\":299:514  function fund() public payable {\r... */\n      jump\t// out\n        /* \"Contracts/FundMe.sol\":205:229  address[] public funders */\n    tag_27:\n      0x01\n      dup2\n      dup2\n      sload\n      dup2\n      lt\n      tag_47\n      jumpi\n      0x00\n      dup1\n      revert\n    tag_47:\n      swap1\n      0x00\n      mstore\n      keccak256(0x00, 0x20)\n      add\n      0x00\n      swap2\n      pop\n      sload\n      swap1\n      0x0100\n      exp\n      swap1\n      div\n      0xffffffffffffffffffffffffffffffffffffffff\n      and\n      dup2\n      jump\t// out\n        /* \"Contracts/PriceConverter.sol\":474:693  function getConversionRate(uint256 ethAmount) internal view returns(uint256){\r... */\n    tag_42:\n        /* \"Contracts/PriceConverter.sol\":542:549  uint256 */\n      0x00\n        /* \"Contracts/PriceConverter.sol\":561:577  uint256 ethPrice */\n      dup1\n        /* \"Contracts/PriceConverter.sol\":580:590  getPrice() */\n      tag_50\n        /* \"Contracts/PriceConverter.sol\":580:588  getPrice */\n      tag_51\n        /* \"Contracts/PriceConverter.sol\":580:590  getPrice() */\n      jump\t// in\n    tag_50:\n        /* \"Contracts/PriceConverter.sol\":561:590  uint256 ethPrice = getPrice() */\n      swap1\n      pop\n        /* \"Contracts/PriceConverter.sol\":601:623  uint256 convertedPrice */\n      0x00\n        /* \"Contracts/PriceConverter.sol\":649:653  1e18 */\n      0x0de0b6b3a7640000\n        /* \"Contracts/PriceConverter.sol\":638:647  ethAmount */\n      dup5\n        /* \"Contracts/PriceConverter.sol\":627:635  ethPrice */\n      dup4\n        /* \"Contracts/PriceConverter.sol\":627:647  ethPrice * ethAmount */\n      tag_52\n      swap2\n      swap1\n      tag_53\n      jump\t// in\n    tag_52:\n        /* \"Contracts/PriceConverter.sol\":626:653  (ethPrice * ethAmount)/1e18 */\n      tag_54\n      swap2\n      swap1\n      tag_55\n      jump\t// in\n    tag_54:\n        /* \"Contracts/PriceConverter.sol\":601:653  uint256 convertedPrice = (ethPrice * ethAmount)/1e18 */\n      swap1\n      pop\n        /* \"Contracts/PriceConverter.sol\":671:685  convertedPrice */\n      dup1\n        /* \"Contracts/PriceConverter.sol\":664:685  return convertedPrice */\n      swap3\n      pop\n      pop\n      pop\n        /* \"Contracts/PriceConverter.sol\":474:693  function getConversionRate(uint256 ethAmount) internal view returns(uint256){\r... */\n      swap2\n      swap1\n      pop\n      jump\t// out\n        /* \"Contracts/PriceConverter.sol\":172:466  function getPrice() internal view returns(uint256) {\r... */\n    tag_51:\n        /* \"Contracts/PriceConverter.sol\":214:221  uint256 */\n      0x00\n        /* \"Contracts/PriceConverter.sol\":234:277  AggregatorV3Interface aggregatorV3Interface */\n      dup1\n        /* \"Contracts/PriceConverter.sol\":302:344  0xD4a33860578De61DBAbDc8BFdb98FD742fA7028e */\n      0xd4a33860578de61dbabdc8bfdb98fd742fa7028e\n        /* \"Contracts/PriceConverter.sol\":234:345  AggregatorV3Interface aggregatorV3Interface = AggregatorV3Interface(0xD4a33860578De61DBAbDc8BFdb98FD742fA7028e) */\n      swap1\n      pop\n        /* \"Contracts/PriceConverter.sol\":361:373  int256 price */\n      0x00\n        /* \"Contracts/PriceConverter.sol\":380:401  aggregatorV3Interface */\n      dup2\n        /* \"Contracts/PriceConverter.sol\":380:417  aggregatorV3Interface.latestRoundData */\n      0xffffffffffffffffffffffffffffffffffffffff\n      and\n      0xfeaf968c\n        /* \"Contracts/PriceConverter.sol\":380:419  aggregatorV3Interface.latestRoundData() */\n      mload(0x40)\n      dup2\n      0xffffffff\n      and\n      0xe0\n      shl\n      dup2\n      mstore\n      0x04\n      add\n      0xa0\n      mload(0x40)\n      dup1\n      dup4\n      sub\n      dup2\n      dup7\n      dup1\n      extcodesize\n      iszero\n      dup1\n      iszero\n      tag_57\n      jumpi\n      0x00\n      dup1\n      revert\n    tag_57:\n      pop\n      gas\n      staticcall\n      iszero\n      dup1\n      iszero\n      tag_59\n      jumpi\n      returndatasize\n      0x00\n      dup1\n      returndatacopy\n      revert(0x00, returndatasize)\n    tag_59:\n      pop\n      pop\n      pop\n      pop\n      mload(0x40)\n      returndatasize\n      not(0x1f)\n      0x1f\n      dup3\n      add\n      and\n      dup3\n      add\n      dup1\n      0x40\n      mstore\n      pop\n      dup2\n      add\n      swap1\n      tag_60\n      swap2\n      swap1\n      tag_61\n      jump\t// in\n    tag_60:\n        /* \"Contracts/PriceConverter.sol\":358:419  (, int256 price,,,) = aggregatorV3Interface.latestRoundData() */\n      pop\n      pop\n      pop\n      swap2\n      pop\n      pop\n        /* \"Contracts/PriceConverter.sol\":453:457  1e10 */\n      0x02540be400\n        /* \"Contracts/PriceConverter.sol\":445:450  price */\n      dup2\n        /* \"Contracts/PriceConverter.sol\":445:457  price * 1e10 */\n      tag_62\n      swap2\n      swap1\n      tag_63\n      jump\t// in\n    tag_62:\n        /* \"Contracts/PriceConverter.sol\":430:458  return uint256(price * 1e10) */\n      swap3\n      pop\n      pop\n      pop\n        /* \"Contracts/PriceConverter.sol\":172:466  function getPrice() internal view returns(uint256) {\r... */\n      swap1\n      jump\t// out\n        /* \"#utility.yul\":7:146   */\n    tag_65:\n        /* \"#utility.yul\":53:58   */\n      0x00\n        /* \"#utility.yul\":91:97   */\n      dup2\n        /* \"#utility.yul\":78:98   */\n      calldataload\n        /* \"#utility.yul\":69:98   */\n      swap1\n      pop\n        /* \"#utility.yul\":107:140   */\n      tag_67\n        /* \"#utility.yul\":134:139   */\n      dup2\n        /* \"#utility.yul\":107:140   */\n      tag_68\n      jump\t// in\n    tag_67:\n        /* \"#utility.yul\":7:146   */\n      swap3\n      swap2\n      pop\n      pop\n      jump\t// out\n        /* \"#utility.yul\":152:293   */\n    tag_69:\n        /* \"#utility.yul\":208:213   */\n      0x00\n        /* \"#utility.yul\":239:245   */\n      dup2\n        /* \"#utility.yul\":233:246   */\n      mload\n        /* \"#utility.yul\":224:246   */\n      swap1\n      pop\n        /* \"#utility.yul\":255:287   */\n      tag_71\n        /* \"#utility.yul\":281:286   */\n      dup2\n        /* \"#utility.yul\":255:287   */\n      tag_72\n      jump\t// in\n    tag_71:\n        /* \"#utility.yul\":152:293   */\n      swap3\n      swap2\n      pop\n      pop\n      jump\t// out\n        /* \"#utility.yul\":299:438   */\n    tag_73:\n        /* \"#utility.yul\":345:350   */\n      0x00\n        /* \"#utility.yul\":383:389   */\n      dup2\n        /* \"#utility.yul\":370:390   */\n      calldataload\n        /* \"#utility.yul\":361:390   */\n      swap1\n      pop\n        /* \"#utility.yul\":399:432   */\n      tag_75\n        /* \"#utility.yul\":426:431   */\n      dup2\n        /* \"#utility.yul\":399:432   */\n      tag_76\n      jump\t// in\n    tag_75:\n        /* \"#utility.yul\":299:438   */\n      swap3\n      swap2\n      pop\n      pop\n      jump\t// out\n        /* \"#utility.yul\":444:587   */\n    tag_77:\n        /* \"#utility.yul\":501:506   */\n      0x00\n        /* \"#utility.yul\":532:538   */\n      dup2\n        /* \"#utility.yul\":526:539   */\n      mload\n        /* \"#utility.yul\":517:539   */\n      swap1\n      pop\n        /* \"#utility.yul\":548:581   */\n      tag_79\n        /* \"#utility.yul\":575:580   */\n      dup2\n        /* \"#utility.yul\":548:581   */\n      tag_76\n      jump\t// in\n    tag_79:\n        /* \"#utility.yul\":444:587   */\n      swap3\n      swap2\n      pop\n      pop\n      jump\t// out\n        /* \"#utility.yul\":593:734   */\n    tag_80:\n        /* \"#utility.yul\":649:654   */\n      0x00\n        /* \"#utility.yul\":680:686   */\n      dup2\n        /* \"#utility.yul\":674:687   */\n      mload\n        /* \"#utility.yul\":665:687   */\n      swap1\n      pop\n        /* \"#utility.yul\":696:728   */\n      tag_82\n        /* \"#utility.yul\":722:727   */\n      dup2\n        /* \"#utility.yul\":696:728   */\n      tag_83\n      jump\t// in\n    tag_82:\n        /* \"#utility.yul\":593:734   */\n      swap3\n      swap2\n      pop\n      pop\n      jump\t// out\n        /* \"#utility.yul\":740:1069   */\n    tag_13:\n        /* \"#utility.yul\":799:805   */\n      0x00\n        /* \"#utility.yul\":848:850   */\n      0x20\n        /* \"#utility.yul\":836:845   */\n      dup3\n        /* \"#utility.yul\":827:834   */\n      dup5\n        /* \"#utility.yul\":823:846   */\n      sub\n        /* \"#utility.yul\":819:851   */\n      slt\n        /* \"#utility.yul\":816:935   */\n      iszero\n      tag_85\n      jumpi\n        /* \"#utility.yul\":854:933   */\n      tag_86\n      tag_87\n      jump\t// in\n    tag_86:\n        /* \"#utility.yul\":816:935   */\n    tag_85:\n        /* \"#utility.yul\":974:975   */\n      0x00\n        /* \"#utility.yul\":999:1052   */\n      tag_88\n        /* \"#utility.yul\":1044:1051   */\n      dup5\n        /* \"#utility.yul\":1035:1041   */\n      dup3\n        /* \"#utility.yul\":1024:1033   */\n      dup6\n        /* \"#utility.yul\":1020:1042   */\n      add\n        /* \"#utility.yul\":999:1052   */\n      tag_65\n      jump\t// in\n    tag_88:\n        /* \"#utility.yul\":989:1052   */\n      swap2\n      pop\n        /* \"#utility.yul\":945:1062   */\n      pop\n        /* \"#utility.yul\":740:1069   */\n      swap3\n      swap2\n      pop\n      pop\n      jump\t// out\n        /* \"#utility.yul\":1075:1404   */\n    tag_26:\n        /* \"#utility.yul\":1134:1140   */\n      0x00\n        /* \"#utility.yul\":1183:1185   */\n      0x20\n        /* \"#utility.yul\":1171:1180   */\n      dup3\n        /* \"#utility.yul\":1162:1169   */\n      dup5\n        /* \"#utility.yul\":1158:1181   */\n      sub\n        /* \"#utility.yul\":1154:1186   */\n      slt\n        /* \"#utility.yul\":1151:1270   */\n      iszero\n      tag_90\n      jumpi\n        /* \"#utility.yul\":1189:1268   */\n      tag_91\n      tag_87\n      jump\t// in\n    tag_91:\n        /* \"#utility.yul\":1151:1270   */\n    tag_90:\n        /* \"#utility.yul\":1309:1310   */\n      0x00\n        /* \"#utility.yul\":1334:1387   */\n      tag_92\n        /* \"#utility.yul\":1379:1386   */\n      dup5\n        /* \"#utility.yul\":1370:1376   */\n      dup3\n        /* \"#utility.yul\":1359:1368   */\n      dup6\n        /* \"#utility.yul\":1355:1377   */\n      add\n        /* \"#utility.yul\":1334:1387   */\n      tag_73\n      jump\t// in\n    tag_92:\n        /* \"#utility.yul\":1324:1387   */\n      swap2\n      pop\n        /* \"#utility.yul\":1280:1397   */\n      pop\n        /* \"#utility.yul\":1075:1404   */\n      swap3\n      swap2\n      pop\n      pop\n      jump\t// out\n        /* \"#utility.yul\":1410:2381   */\n    tag_61:\n        /* \"#utility.yul\":1513:1519   */\n      0x00\n        /* \"#utility.yul\":1521:1527   */\n      dup1\n        /* \"#utility.yul\":1529:1535   */\n      0x00\n        /* \"#utility.yul\":1537:1543   */\n      dup1\n        /* \"#utility.yul\":1545:1551   */\n      0x00\n        /* \"#utility.yul\":1594:1597   */\n      0xa0\n        /* \"#utility.yul\":1582:1591   */\n      dup7\n        /* \"#utility.yul\":1573:1580   */\n      dup9\n        /* \"#utility.yul\":1569:1592   */\n      sub\n        /* \"#utility.yul\":1565:1598   */\n      slt\n        /* \"#utility.yul\":1562:1682   */\n      iszero\n      tag_94\n      jumpi\n        /* \"#utility.yul\":1601:1680   */\n      tag_95\n      tag_87\n      jump\t// in\n    tag_95:\n        /* \"#utility.yul\":1562:1682   */\n    tag_94:\n        /* \"#utility.yul\":1721:1722   */\n      0x00\n        /* \"#utility.yul\":1746:1809   */\n      tag_96\n        /* \"#utility.yul\":1801:1808   */\n      dup9\n        /* \"#utility.yul\":1792:1798   */\n      dup3\n        /* \"#utility.yul\":1781:1790   */\n      dup10\n        /* \"#utility.yul\":1777:1799   */\n      add\n        /* \"#utility.yul\":1746:1809   */\n      tag_80\n      jump\t// in\n    tag_96:\n        /* \"#utility.yul\":1736:1809   */\n      swap6\n      pop\n        /* \"#utility.yul\":1692:1819   */\n      pop\n        /* \"#utility.yul\":1858:1860   */\n      0x20\n        /* \"#utility.yul\":1884:1947   */\n      tag_97\n        /* \"#utility.yul\":1939:1946   */\n      dup9\n        /* \"#utility.yul\":1930:1936   */\n      dup3\n        /* \"#utility.yul\":1919:1928   */\n      dup10\n        /* \"#utility.yul\":1915:1937   */\n      add\n        /* \"#utility.yul\":1884:1947   */\n      tag_69\n      jump\t// in\n    tag_97:\n        /* \"#utility.yul\":1874:1947   */\n      swap5\n      pop\n        /* \"#utility.yul\":1829:1957   */\n      pop\n        /* \"#utility.yul\":1996:1998   */\n      0x40\n        /* \"#utility.yul\":2022:2086   */\n      tag_98\n        /* \"#utility.yul\":2078:2085   */\n      dup9\n        /* \"#utility.yul\":2069:2075   */\n      dup3\n        /* \"#utility.yul\":2058:2067   */\n      dup10\n        /* \"#utility.yul\":2054:2076   */\n      add\n        /* \"#utility.yul\":2022:2086   */\n      tag_77\n      jump\t// in\n    tag_98:\n        /* \"#utility.yul\":2012:2086   */\n      swap4\n      pop\n        /* \"#utility.yul\":1967:2096   */\n      pop\n        /* \"#utility.yul\":2135:2137   */\n      0x60\n        /* \"#utility.yul\":2161:2225   */\n      tag_99\n        /* \"#utility.yul\":2217:2224   */\n      dup9\n        /* \"#utility.yul\":2208:2214   */\n      dup3\n        /* \"#utility.yul\":2197:2206   */\n      dup10\n        /* \"#utility.yul\":2193:2215   */\n      add\n        /* \"#utility.yul\":2161:2225   */\n      tag_77\n      jump\t// in\n    tag_99:\n        /* \"#utility.yul\":2151:2225   */\n      swap3\n      pop\n        /* \"#utility.yul\":2106:2235   */\n      pop\n        /* \"#utility.yul\":2274:2277   */\n      0x80\n        /* \"#utility.yul\":2301:2364   */\n      tag_100\n        /* \"#utility.yul\":2356:2363   */\n      dup9\n        /* \"#utility.yul\":2347:2353   */\n      dup3\n        /* \"#utility.yul\":2336:2345   */\n      dup10\n        /* \"#utility.yul\":2332:2354   */\n      add\n        /* \"#utility.yul\":2301:2364   */\n      tag_80\n      jump\t// in\n    tag_100:\n        /* \"#utility.yul\":2291:2364   */\n      swap2\n      pop\n        /* \"#utility.yul\":2245:2374   */\n      pop\n        /* \"#utility.yul\":1410:2381   */\n      swap3\n      swap6\n      pop\n      swap3\n      swap6\n      swap1\n      swap4\n      pop\n      jump\t// out\n        /* \"#utility.yul\":2387:2505   */\n    tag_101:\n        /* \"#utility.yul\":2474:2498   */\n      tag_103\n        /* \"#utility.yul\":2492:2497   */\n      dup2\n        /* \"#utility.yul\":2474:2498   */\n      tag_104\n      jump\t// in\n    tag_103:\n        /* \"#utility.yul\":2469:2472   */\n      dup3\n        /* \"#utility.yul\":2462:2499   */\n      mstore\n        /* \"#utility.yul\":2387:2505   */\n      pop\n      pop\n      jump\t// out\n        /* \"#utility.yul\":2511:2877   */\n    tag_105:\n        /* \"#utility.yul\":2653:2656   */\n      0x00\n        /* \"#utility.yul\":2674:2741   */\n      tag_107\n        /* \"#utility.yul\":2738:2740   */\n      0x12\n        /* \"#utility.yul\":2733:2736   */\n      dup4\n        /* \"#utility.yul\":2674:2741   */\n      tag_108\n      jump\t// in\n    tag_107:\n        /* \"#utility.yul\":2667:2741   */\n      swap2\n      pop\n        /* \"#utility.yul\":2750:2843   */\n      tag_109\n        /* \"#utility.yul\":2839:2842   */\n      dup3\n        /* \"#utility.yul\":2750:2843   */\n      tag_110\n      jump\t// in\n    tag_109:\n        /* \"#utility.yul\":2868:2870   */\n      0x20\n        /* \"#utility.yul\":2863:2866   */\n      dup3\n        /* \"#utility.yul\":2859:2871   */\n      add\n        /* \"#utility.yul\":2852:2871   */\n      swap1\n      pop\n        /* \"#utility.yul\":2511:2877   */\n      swap2\n      swap1\n      pop\n      jump\t// out\n        /* \"#utility.yul\":2883:3001   */\n    tag_111:\n        /* \"#utility.yul\":2970:2994   */\n      tag_113\n        /* \"#utility.yul\":2988:2993   */\n      dup2\n        /* \"#utility.yul\":2970:2994   */\n      tag_114\n      jump\t// in\n    tag_113:\n        /* \"#utility.yul\":2965:2968   */\n      dup3\n        /* \"#utility.yul\":2958:2995   */\n      mstore\n        /* \"#utility.yul\":2883:3001   */\n      pop\n      pop\n      jump\t// out\n        /* \"#utility.yul\":3007:3229   */\n    tag_29:\n        /* \"#utility.yul\":3100:3104   */\n      0x00\n        /* \"#utility.yul\":3138:3140   */\n      0x20\n        /* \"#utility.yul\":3127:3136   */\n      dup3\n        /* \"#utility.yul\":3123:3141   */\n      add\n        /* \"#utility.yul\":3115:3141   */\n      swap1\n      pop\n        /* \"#utility.yul\":3151:3222   */\n      tag_116\n        /* \"#utility.yul\":3219:3220   */\n      0x00\n        /* \"#utility.yul\":3208:3217   */\n      dup4\n        /* \"#utility.yul\":3204:3221   */\n      add\n        /* \"#utility.yul\":3195:3201   */\n      dup5\n        /* \"#utility.yul\":3151:3222   */\n      tag_101\n      jump\t// in\n    tag_116:\n        /* \"#utility.yul\":3007:3229   */\n      swap3\n      swap2\n      pop\n      pop\n      jump\t// out\n        /* \"#utility.yul\":3235:3654   */\n    tag_45:\n        /* \"#utility.yul\":3401:3405   */\n      0x00\n        /* \"#utility.yul\":3439:3441   */\n      0x20\n        /* \"#utility.yul\":3428:3437   */\n      dup3\n        /* \"#utility.yul\":3424:3442   */\n      add\n        /* \"#utility.yul\":3416:3442   */\n      swap1\n      pop\n        /* \"#utility.yul\":3488:3497   */\n      dup2\n        /* \"#utility.yul\":3482:3486   */\n      dup2\n        /* \"#utility.yul\":3478:3498   */\n      sub\n        /* \"#utility.yul\":3474:3475   */\n      0x00\n        /* \"#utility.yul\":3463:3472   */\n      dup4\n        /* \"#utility.yul\":3459:3476   */\n      add\n        /* \"#utility.yul\":3452:3499   */\n      mstore\n        /* \"#utility.yul\":3516:3647   */\n      tag_118\n        /* \"#utility.yul\":3642:3646   */\n      dup2\n        /* \"#utility.yul\":3516:3647   */\n      tag_105\n      jump\t// in\n    tag_118:\n        /* \"#utility.yul\":3508:3647   */\n      swap1\n      pop\n        /* \"#utility.yul\":3235:3654   */\n      swap2\n      swap1\n      pop\n      jump\t// out\n        /* \"#utility.yul\":3660:3882   */\n    tag_16:\n        /* \"#utility.yul\":3753:3757   */\n      0x00\n        /* \"#utility.yul\":3791:3793   */\n      0x20\n        /* \"#utility.yul\":3780:3789   */\n      dup3\n        /* \"#utility.yul\":3776:3794   */\n      add\n        /* \"#utility.yul\":3768:3794   */\n      swap1\n      pop\n        /* \"#utility.yul\":3804:3875   */\n      tag_120\n        /* \"#utility.yul\":3872:3873   */\n      0x00\n        /* \"#utility.yul\":3861:3870   */\n      dup4\n        /* \"#utility.yul\":3857:3874   */\n      add\n        /* \"#utility.yul\":3848:3854   */\n      dup5\n        /* \"#utility.yul\":3804:3875   */\n      tag_111\n      jump\t// in\n    tag_120:\n        /* \"#utility.yul\":3660:3882   */\n      swap3\n      swap2\n      pop\n      pop\n      jump\t// out\n        /* \"#utility.yul\":3969:4138   */\n    tag_108:\n        /* \"#utility.yul\":4053:4064   */\n      0x00\n        /* \"#utility.yul\":4087:4093   */\n      dup3\n        /* \"#utility.yul\":4082:4085   */\n      dup3\n        /* \"#utility.yul\":4075:4094   */\n      mstore\n        /* \"#utility.yul\":4127:4131   */\n      0x20\n        /* \"#utility.yul\":4122:4125   */\n      dup3\n        /* \"#utility.yul\":4118:4132   */\n      add\n        /* \"#utility.yul\":4103:4132   */\n      swap1\n      pop\n        /* \"#utility.yul\":3969:4138   */\n      swap3\n      swap2\n      pop\n      pop\n      jump\t// out\n        /* \"#utility.yul\":4144:4329   */\n    tag_55:\n        /* \"#utility.yul\":4184:4185   */\n      0x00\n        /* \"#utility.yul\":4201:4221   */\n      tag_125\n        /* \"#utility.yul\":4219:4220   */\n      dup3\n        /* \"#utility.yul\":4201:4221   */\n      tag_114\n      jump\t// in\n    tag_125:\n        /* \"#utility.yul\":4196:4221   */\n      swap2\n      pop\n        /* \"#utility.yul\":4235:4255   */\n      tag_126\n        /* \"#utility.yul\":4253:4254   */\n      dup4\n        /* \"#utility.yul\":4235:4255   */\n      tag_114\n      jump\t// in\n    tag_126:\n        /* \"#utility.yul\":4230:4255   */\n      swap3\n      pop\n        /* \"#utility.yul\":4274:4275   */\n      dup3\n        /* \"#utility.yul\":4264:4299   */\n      tag_127\n      jumpi\n        /* \"#utility.yul\":4279:4297   */\n      tag_128\n      tag_129\n      jump\t// in\n    tag_128:\n        /* \"#utility.yul\":4264:4299   */\n    tag_127:\n        /* \"#utility.yul\":4321:4322   */\n      dup3\n        /* \"#utility.yul\":4318:4319   */\n      dup3\n        /* \"#utility.yul\":4314:4323   */\n      div\n        /* \"#utility.yul\":4309:4323   */\n      swap1\n      pop\n        /* \"#utility.yul\":4144:4329   */\n      swap3\n      swap2\n      pop\n      pop\n      jump\t// out\n        /* \"#utility.yul\":4335:5326   */\n    tag_63:\n        /* \"#utility.yul\":4374:4381   */\n      0x00\n        /* \"#utility.yul\":4397:4416   */\n      tag_131\n        /* \"#utility.yul\":4414:4415   */\n      dup3\n        /* \"#utility.yul\":4397:4416   */\n      tag_132\n      jump\t// in\n    tag_131:\n        /* \"#utility.yul\":4392:4416   */\n      swap2\n      pop\n        /* \"#utility.yul\":4430:4449   */\n      tag_133\n        /* \"#utility.yul\":4447:4448   */\n      dup4\n        /* \"#utility.yul\":4430:4449   */\n      tag_132\n      jump\t// in\n    tag_133:\n        /* \"#utility.yul\":4425:4449   */\n      swap3\n      pop\n        /* \"#utility.yul\":4631:4632   */\n      dup3\n        /* \"#utility.yul\":4563:4629   */\n      0x7fffffffffffffffffffffffffffffffffffffffffffffffffffffffffffffff\n        /* \"#utility.yul\":4559:4633   */\n      div\n        /* \"#utility.yul\":4556:4557   */\n      dup3\n        /* \"#utility.yul\":4553:4634   */\n      gt\n        /* \"#utility.yul\":4548:4549   */\n      0x00\n        /* \"#utility.yul\":4545:4546   */\n      dup5\n        /* \"#utility.yul\":4541:4550   */\n      sgt\n        /* \"#utility.yul\":4537:4538   */\n      0x00\n        /* \"#utility.yul\":4534:4535   */\n      dup5\n        /* \"#utility.yul\":4530:4539   */\n      sgt\n        /* \"#utility.yul\":4526:4551   */\n      and\n        /* \"#utility.yul\":4522:4635   */\n      and\n        /* \"#utility.yul\":4519:4658   */\n      iszero\n      tag_134\n      jumpi\n        /* \"#utility.yul\":4638:4656   */\n      tag_135\n      tag_136\n      jump\t// in\n    tag_135:\n        /* \"#utility.yul\":4519:4658   */\n    tag_134:\n        /* \"#utility.yul\":4842:4843   */\n      dup2\n        /* \"#utility.yul\":4774:4840   */\n      0x8000000000000000000000000000000000000000000000000000000000000000\n        /* \"#utility.yul\":4769:4844   */\n      sdiv\n        /* \"#utility.yul\":4766:4767   */\n      dup4\n        /* \"#utility.yul\":4762:4845   */\n      slt\n        /* \"#utility.yul\":4757:4758   */\n      0x00\n        /* \"#utility.yul\":4754:4755   */\n      dup5\n        /* \"#utility.yul\":4750:4759   */\n      slt\n        /* \"#utility.yul\":4746:4747   */\n      0x00\n        /* \"#utility.yul\":4743:4744   */\n      dup5\n        /* \"#utility.yul\":4739:4748   */\n      sgt\n        /* \"#utility.yul\":4735:4760   */\n      and\n        /* \"#utility.yul\":4731:4846   */\n      and\n        /* \"#utility.yul\":4728:4869   */\n      iszero\n      tag_137\n      jumpi\n        /* \"#utility.yul\":4849:4867   */\n      tag_138\n      tag_136\n      jump\t// in\n    tag_138:\n        /* \"#utility.yul\":4728:4869   */\n    tag_137:\n        /* \"#utility.yul\":5053:5054   */\n      dup3\n        /* \"#utility.yul\":4985:5051   */\n      0x8000000000000000000000000000000000000000000000000000000000000000\n        /* \"#utility.yul\":4980:5055   */\n      sdiv\n        /* \"#utility.yul\":4977:4978   */\n      dup3\n        /* \"#utility.yul\":4973:5056   */\n      slt\n        /* \"#utility.yul\":4968:4969   */\n      0x00\n        /* \"#utility.yul\":4965:4966   */\n      dup5\n        /* \"#utility.yul\":4961:4970   */\n      sgt\n        /* \"#utility.yul\":4957:4958   */\n      0x00\n        /* \"#utility.yul\":4954:4955   */\n      dup5\n        /* \"#utility.yul\":4950:4959   */\n      slt\n        /* \"#utility.yul\":4946:4971   */\n      and\n        /* \"#utility.yul\":4942:5057   */\n      and\n        /* \"#utility.yul\":4939:5080   */\n      iszero\n      tag_139\n      jumpi\n        /* \"#utility.yul\":5060:5078   */\n      tag_140\n      tag_136\n      jump\t// in\n    tag_140:\n        /* \"#utility.yul\":4939:5080   */\n    tag_139:\n        /* \"#utility.yul\":5263:5264   */\n      dup3\n        /* \"#utility.yul\":5195:5261   */\n      0x7fffffffffffffffffffffffffffffffffffffffffffffffffffffffffffffff\n        /* \"#utility.yul\":5190:5265   */\n      sdiv\n        /* \"#utility.yul\":5187:5188   */\n      dup3\n        /* \"#utility.yul\":5183:5266   */\n      slt\n        /* \"#utility.yul\":5178:5179   */\n      0x00\n        /* \"#utility.yul\":5175:5176   */\n      dup5\n        /* \"#utility.yul\":5171:5180   */\n      slt\n        /* \"#utility.yul\":5167:5168   */\n      0x00\n        /* \"#utility.yul\":5164:5165   */\n      dup5\n        /* \"#utility.yul\":5160:5169   */\n      slt\n        /* \"#utility.yul\":5156:5181   */\n      and\n        /* \"#utility.yul\":5152:5267   */\n      and\n        /* \"#utility.yul\":5149:5290   */\n      iszero\n      tag_141\n      jumpi\n        /* \"#utility.yul\":5270:5288   */\n      tag_142\n      tag_136\n      jump\t// in\n    tag_142:\n        /* \"#utility.yul\":5149:5290   */\n    tag_141:\n        /* \"#utility.yul\":5318:5319   */\n      dup3\n        /* \"#utility.yul\":5315:5316   */\n      dup3\n        /* \"#utility.yul\":5311:5320   */\n      mul\n        /* \"#utility.yul\":5300:5320   */\n      swap1\n      pop\n        /* \"#utility.yul\":4335:5326   */\n      swap3\n      swap2\n      pop\n      pop\n      jump\t// out\n        /* \"#utility.yul\":5332:5680   */\n    tag_53:\n        /* \"#utility.yul\":5372:5379   */\n      0x00\n        /* \"#utility.yul\":5395:5415   */\n      tag_144\n        /* \"#utility.yul\":5413:5414   */\n      dup3\n        /* \"#utility.yul\":5395:5415   */\n      tag_114\n      jump\t// in\n    tag_144:\n        /* \"#utility.yul\":5390:5415   */\n      swap2\n      pop\n        /* \"#utility.yul\":5429:5449   */\n      tag_145\n        /* \"#utility.yul\":5447:5448   */\n      dup4\n        /* \"#utility.yul\":5429:5449   */\n      tag_114\n      jump\t// in\n    tag_145:\n        /* \"#utility.yul\":5424:5449   */\n      swap3\n      pop\n        /* \"#utility.yul\":5617:5618   */\n      dup2\n        /* \"#utility.yul\":5549:5615   */\n      0xffffffffffffffffffffffffffffffffffffffffffffffffffffffffffffffff\n        /* \"#utility.yul\":5545:5619   */\n      div\n        /* \"#utility.yul\":5542:5543   */\n      dup4\n        /* \"#utility.yul\":5539:5620   */\n      gt\n        /* \"#utility.yul\":5534:5535   */\n      dup3\n        /* \"#utility.yul\":5527:5536   */\n      iszero\n        /* \"#utility.yul\":5520:5537   */\n      iszero\n        /* \"#utility.yul\":5516:5621   */\n      and\n        /* \"#utility.yul\":5513:5644   */\n      iszero\n      tag_146\n      jumpi\n        /* \"#utility.yul\":5624:5642   */\n      tag_147\n      tag_136\n      jump\t// in\n    tag_147:\n        /* \"#utility.yul\":5513:5644   */\n    tag_146:\n        /* \"#utility.yul\":5672:5673   */\n      dup3\n        /* \"#utility.yul\":5669:5670   */\n      dup3\n        /* \"#utility.yul\":5665:5674   */\n      mul\n        /* \"#utility.yul\":5654:5674   */\n      swap1\n      pop\n        /* \"#utility.yul\":5332:5680   */\n      swap3\n      swap2\n      pop\n      pop\n      jump\t// out\n        /* \"#utility.yul\":5686:5782   */\n    tag_104:\n        /* \"#utility.yul\":5723:5730   */\n      0x00\n        /* \"#utility.yul\":5752:5776   */\n      tag_149\n        /* \"#utility.yul\":5770:5775   */\n      dup3\n        /* \"#utility.yul\":5752:5776   */\n      tag_150\n      jump\t// in\n    tag_149:\n        /* \"#utility.yul\":5741:5776   */\n      swap1\n      pop\n        /* \"#utility.yul\":5686:5782   */\n      swap2\n      swap1\n      pop\n      jump\t// out\n        /* \"#utility.yul\":5788:5864   */\n    tag_132:\n        /* \"#utility.yul\":5824:5831   */\n      0x00\n        /* \"#utility.yul\":5853:5858   */\n      dup2\n        /* \"#utility.yul\":5842:5858   */\n      swap1\n      pop\n        /* \"#utility.yul\":5788:5864   */\n      swap2\n      swap1\n      pop\n      jump\t// out\n        /* \"#utility.yul\":5870:5996   */\n    tag_150:\n        /* \"#utility.yul\":5907:5914   */\n      0x00\n        /* \"#utility.yul\":5947:5989   */\n      0xffffffffffffffffffffffffffffffffffffffff\n        /* \"#utility.yul\":5940:5945   */\n      dup3\n        /* \"#utility.yul\":5936:5990   */\n      and\n        /* \"#utility.yul\":5925:5990   */\n      swap1\n      pop\n        /* \"#utility.yul\":5870:5996   */\n      swap2\n      swap1\n      pop\n      jump\t// out\n        /* \"#utility.yul\":6002:6079   */\n    tag_114:\n        /* \"#utility.yul\":6039:6046   */\n      0x00\n        /* \"#utility.yul\":6068:6073   */\n      dup2\n        /* \"#utility.yul\":6057:6073   */\n      swap1\n      pop\n        /* \"#utility.yul\":6002:6079   */\n      swap2\n      swap1\n      pop\n      jump\t// out\n        /* \"#utility.yul\":6085:6190   */\n    tag_154:\n        /* \"#utility.yul\":6121:6128   */\n      0x00\n        /* \"#utility.yul\":6161:6183   */\n      0xffffffffffffffffffff\n        /* \"#utility.yul\":6154:6159   */\n      dup3\n        /* \"#utility.yul\":6150:6184   */\n      and\n        /* \"#utility.yul\":6139:6184   */\n      swap1\n      pop\n        /* \"#utility.yul\":6085:6190   */\n      swap2\n      swap1\n      pop\n      jump\t// out\n        /* \"#utility.yul\":6196:6429   */\n    tag_39:\n        /* \"#utility.yul\":6235:6238   */\n      0x00\n        /* \"#utility.yul\":6258:6282   */\n      tag_157\n        /* \"#utility.yul\":6276:6281   */\n      dup3\n        /* \"#utility.yul\":6258:6282   */\n      tag_114\n      jump\t// in\n    tag_157:\n        /* \"#utility.yul\":6249:6282   */\n      swap2\n      pop\n        /* \"#utility.yul\":6304:6370   */\n      0xffffffffffffffffffffffffffffffffffffffffffffffffffffffffffffffff\n        /* \"#utility.yul\":6297:6302   */\n      dup3\n        /* \"#utility.yul\":6294:6371   */\n      eq\n        /* \"#utility.yul\":6291:6394   */\n      iszero\n      tag_158\n      jumpi\n        /* \"#utility.yul\":6374:6392   */\n      tag_159\n      tag_136\n      jump\t// in\n    tag_159:\n        /* \"#utility.yul\":6291:6394   */\n    tag_158:\n        /* \"#utility.yul\":6421:6422   */\n      0x01\n        /* \"#utility.yul\":6414:6419   */\n      dup3\n        /* \"#utility.yul\":6410:6423   */\n      add\n        /* \"#utility.yul\":6403:6423   */\n      swap1\n      pop\n        /* \"#utility.yul\":6196:6429   */\n      swap2\n      swap1\n      pop\n      jump\t// out\n        /* \"#utility.yul\":6435:6615   */\n    tag_136:\n        /* \"#utility.yul\":6483:6560   */\n      0x4e487b7100000000000000000000000000000000000000000000000000000000\n        /* \"#utility.yul\":6480:6481   */\n      0x00\n        /* \"#utility.yul\":6473:6561   */\n      mstore\n        /* \"#utility.yul\":6580:6584   */\n      0x11\n        /* \"#utility.yul\":6577:6578   */\n      0x04\n        /* \"#utility.yul\":6570:6585   */\n      mstore\n        /* \"#utility.yul\":6604:6608   */\n      0x24\n        /* \"#utility.yul\":6601:6602   */\n      0x00\n        /* \"#utility.yul\":6594:6609   */\n      revert\n        /* \"#utility.yul\":6621:6801   */\n    tag_129:\n        /* \"#utility.yul\":6669:6746   */\n      0x4e487b7100000000000000000000000000000000000000000000000000000000\n        /* \"#utility.yul\":6666:6667   */\n      0x00\n        /* \"#utility.yul\":6659:6747   */\n      mstore\n        /* \"#utility.yul\":6766:6770   */\n      0x12\n        /* \"#utility.yul\":6763:6764   */\n      0x04\n        /* \"#utility.yul\":6756:6771   */\n      mstore\n        /* \"#utility.yul\":6790:6794   */\n      0x24\n        /* \"#utility.yul\":6787:6788   */\n      0x00\n        /* \"#utility.yul\":6780:6795   */\n      revert\n        /* \"#utility.yul\":6807:6987   */\n    tag_36:\n        /* \"#utility.yul\":6855:6932   */\n      0x4e487b7100000000000000000000000000000000000000000000000000000000\n        /* \"#utility.yul\":6852:6853   */\n      0x00\n        /* \"#utility.yul\":6845:6933   */\n      mstore\n        /* \"#utility.yul\":6952:6956   */\n      0x32\n        /* \"#utility.yul\":6949:6950   */\n      0x04\n        /* \"#utility.yul\":6942:6957   */\n      mstore\n        /* \"#utility.yul\":6976:6980   */\n      0x24\n        /* \"#utility.yul\":6973:6974   */\n      0x00\n        /* \"#utility.yul\":6966:6981   */\n      revert\n        /* \"#utility.yul\":7116:7233   */\n    tag_87:\n        /* \"#utility.yul\":7225:7226   */\n      0x00\n        /* \"#utility.yul\":7222:7223   */\n      dup1\n        /* \"#utility.yul\":7215:7227   */\n      revert\n        /* \"#utility.yul\":7239:7407   */\n    tag_110:\n        /* \"#utility.yul\":7379:7399   */\n      0x4469646e27742073656e6420656e6f7567680000000000000000000000000000\n        /* \"#utility.yul\":7375:7376   */\n      0x00\n        /* \"#utility.yul\":7367:7373   */\n      dup3\n        /* \"#utility.yul\":7363:7377   */\n      add\n        /* \"#utility.yul\":7356:7400   */\n      mstore\n        /* \"#utility.yul\":7239:7407   */\n      pop\n      jump\t// out\n        /* \"#utility.yul\":7413:7535   */\n    tag_68:\n        /* \"#utility.yul\":7486:7510   */\n      tag_168\n        /* \"#utility.yul\":7504:7509   */\n      dup2\n        /* \"#utility.yul\":7486:7510   */\n      tag_104\n      jump\t// in\n    tag_168:\n        /* \"#utility.yul\":7479:7484   */\n      dup2\n        /* \"#utility.yul\":7476:7511   */\n      eq\n        /* \"#utility.yul\":7466:7529   */\n      tag_169\n      jumpi\n        /* \"#utility.yul\":7525:7526   */\n      0x00\n        /* \"#utility.yul\":7522:7523   */\n      dup1\n        /* \"#utility.yul\":7515:7527   */\n      revert\n        /* \"#utility.yul\":7466:7529   */\n    tag_169:\n        /* \"#utility.yul\":7413:7535   */\n      pop\n      jump\t// out\n        /* \"#utility.yul\":7541:7661   */\n    tag_72:\n        /* \"#utility.yul\":7613:7636   */\n      tag_171\n        /* \"#utility.yul\":7630:7635   */\n      dup2\n        /* \"#utility.yul\":7613:7636   */\n      tag_132\n      jump\t// in\n    tag_171:\n        /* \"#utility.yul\":7606:7611   */\n      dup2\n        /* \"#utility.yul\":7603:7637   */\n      eq\n        /* \"#utility.yul\":7593:7655   */\n      tag_172\n      jumpi\n        /* \"#utility.yul\":7651:7652   */\n      0x00\n        /* \"#utility.yul\":7648:7649   */\n      dup1\n        /* \"#utility.yul\":7641:7653   */\n      revert\n        /* \"#utility.yul\":7593:7655   */\n    tag_172:\n        /* \"#utility.yul\":7541:7661   */\n      pop\n      jump\t// out\n        /* \"#utility.yul\":7667:7789   */\n    tag_76:\n        /* \"#utility.yul\":7740:7764   */\n      tag_174\n        /* \"#utility.yul\":7758:7763   */\n      dup2\n        /* \"#utility.yul\":7740:7764   */\n      tag_114\n      jump\t// in\n    tag_174:\n        /* \"#utility.yul\":7733:7738   */\n      dup2\n        /* \"#utility.yul\":7730:7765   */\n      eq\n        /* \"#utility.yul\":7720:7783   */\n      tag_175\n      jumpi\n        /* \"#utility.yul\":7779:7780   */\n      0x00\n        /* \"#utility.yul\":7776:7777   */\n      dup1\n        /* \"#utility.yul\":7769:7781   */\n      revert\n        /* \"#utility.yul\":7720:7783   */\n    tag_175:\n        /* \"#utility.yul\":7667:7789   */\n      pop\n      jump\t// out\n        /* \"#utility.yul\":7795:7915   */\n    tag_83:\n        /* \"#utility.yul\":7867:7890   */\n      tag_177\n        /* \"#utility.yul\":7884:7889   */\n      dup2\n        /* \"#utility.yul\":7867:7890   */\n      tag_154\n      jump\t// in\n    tag_177:\n        /* \"#utility.yul\":7860:7865   */\n      dup2\n        /* \"#utility.yul\":7857:7891   */\n      eq\n        /* \"#utility.yul\":7847:7909   */\n      tag_178\n      jumpi\n        /* \"#utility.yul\":7905:7906   */\n      0x00\n        /* \"#utility.yul\":7902:7903   */\n      dup1\n        /* \"#utility.yul\":7895:7907   */\n      revert\n        /* \"#utility.yul\":7847:7909   */\n    tag_178:\n        /* \"#utility.yul\":7795:7915   */\n      pop\n      jump\t// out\n\n    auxdata: 0xa2646970667358221220a879c795baa02515aff2909414b5f249618e883af63829ff4a00cf06b40f92f864736f6c63430008070033\n}\n",
				"bytecode": {
					"linkReferences": {},
					"object": "60806040526802b5e3af16b188000060005534801561001d57600080fd5b5061093e8061002d6000396000f3fe60806040526004361061004a5760003560e01c806352b50a2a1461004f5780636aba2c861461006657806378abafaf146100a3578063b60d4288146100ce578063dc0d3dff146100d8575b600080fd5b34801561005b57600080fd5b50610064610115565b005b34801561007257600080fd5b5061008d6004803603810190610088919061042d565b61017f565b60405161009a919061057e565b60405180910390f35b3480156100af57600080fd5b506100b8610197565b6040516100c5919061057e565b60405180910390f35b6100d661019d565b005b3480156100e457600080fd5b506100ff60048036038101906100fa919061045a565b610293565b60405161010c9190610543565b60405180910390f35b60005b60018054905081101561017c5760006001828154811061013b5761013a61084f565b5b9060005260206000200160009054906101000a900473ffffffffffffffffffffffffffffffffffffffff169050508080610174906107a8565b915050610118565b50565b60026020528060005260406000206000915090505481565b60005481565b6000546101a9346102d2565b10156101ea576040517f08c379a00000000000000000000000000000000000000000000000000000000081526004016101e19061055e565b60405180910390fd5b6001339080600181540180825580915050600190039060005260206000200160009091909190916101000a81548173ffffffffffffffffffffffffffffffffffffffff021916908373ffffffffffffffffffffffffffffffffffffffff16021790555034600260003373ffffffffffffffffffffffffffffffffffffffff1673ffffffffffffffffffffffffffffffffffffffff16815260200190815260200160002081905550565b600181815481106102a357600080fd5b906000526020600020016000915054906101000a900473ffffffffffffffffffffffffffffffffffffffff1681565b6000806102dd61030c565b90506000670de0b6b3a764000084836102f691906106f2565b61030091906105aa565b90508092505050919050565b60008073d4a33860578de61dbabdc8bfdb98fd742fa7028e905060008173ffffffffffffffffffffffffffffffffffffffff1663feaf968c6040518163ffffffff1660e01b815260040160a06040518083038186803b15801561036e57600080fd5b505afa158015610382573d6000803e3d6000fd5b505050506040513d601f19601f820116820180604052508101906103a69190610487565b5050509150506402540be400816103bd91906105db565b9250505090565b6000813590506103d3816108ac565b92915050565b6000815190506103e8816108c3565b92915050565b6000813590506103fd816108da565b92915050565b600081519050610412816108da565b92915050565b600081519050610427816108f1565b92915050565b6000602082840312156104435761044261087e565b5b6000610451848285016103c4565b91505092915050565b6000602082840312156104705761046f61087e565b5b600061047e848285016103ee565b91505092915050565b600080600080600060a086880312156104a3576104a261087e565b5b60006104b188828901610418565b95505060206104c2888289016103d9565b94505060406104d388828901610403565b93505060606104e488828901610403565b92505060806104f588828901610418565b9150509295509295909350565b61050b8161074c565b82525050565b600061051e601283610599565b915061052982610883565b602082019050919050565b61053d81610788565b82525050565b60006020820190506105586000830184610502565b92915050565b6000602082019050818103600083015261057781610511565b9050919050565b60006020820190506105936000830184610534565b92915050565b600082825260208201905092915050565b60006105b582610788565b91506105c083610788565b9250826105d0576105cf610820565b5b828204905092915050565b60006105e68261075e565b91506105f18361075e565b9250827f7fffffffffffffffffffffffffffffffffffffffffffffffffffffffffffffff04821160008413600084131616156106305761062f6107f1565b5b817f8000000000000000000000000000000000000000000000000000000000000000058312600084126000841316161561066d5761066c6107f1565b5b827f800000000000000000000000000000000000000000000000000000000000000005821260008413600084121616156106aa576106a96107f1565b5b827f7fffffffffffffffffffffffffffffffffffffffffffffffffffffffffffffff05821260008412600084121616156106e7576106e66107f1565b5b828202905092915050565b60006106fd82610788565b915061070883610788565b9250817fffffffffffffffffffffffffffffffffffffffffffffffffffffffffffffffff0483118215151615610741576107406107f1565b5b828202905092915050565b600061075782610768565b9050919050565b6000819050919050565b600073ffffffffffffffffffffffffffffffffffffffff82169050919050565b6000819050919050565b600069ffffffffffffffffffff82169050919050565b60006107b382610788565b91507fffffffffffffffffffffffffffffffffffffffffffffffffffffffffffffffff8214156107e6576107e56107f1565b5b600182019050919050565b7f4e487b7100000000000000000000000000000000000000000000000000000000600052601160045260246000fd5b7f4e487b7100000000000000000000000000000000000000000000000000000000600052601260045260246000fd5b7f4e487b7100000000000000000000000000000000000000000000000000000000600052603260045260246000fd5b600080fd5b7f4469646e27742073656e6420656e6f7567680000000000000000000000000000600082015250565b6108b58161074c565b81146108c057600080fd5b50565b6108cc8161075e565b81146108d757600080fd5b50565b6108e381610788565b81146108ee57600080fd5b50565b6108fa81610792565b811461090557600080fd5b5056fea2646970667358221220a879c795baa02515aff2909414b5f249618e883af63829ff4a00cf06b40f92f864736f6c63430008070033",
					"opcodes": "PUSH1 0x80 PUSH1 0x40 MSTORE PUSH9 0x2B5E3AF16B1880000 PUSH1 0x0 SSTORE CALLVALUE DUP1 ISZERO PUSH2 0x1D JUMPI PUSH1 0x0 DUP1 REVERT JUMPDEST POP PUSH2 0x93E DUP1 PUSH2 0x2D PUSH1 0x0 CODECOPY PUSH1 0x0 RETURN INVALID PUSH1 0x80 PUSH1 0x40 MSTORE PUSH1 0x4 CALLDATASIZE LT PUSH2 0x4A JUMPI PUSH1 0x0 CALLDATALOAD PUSH1 0xE0 SHR DUP1 PUSH4 0x52B50A2A EQ PUSH2 0x4F JUMPI DUP1 PUSH4 0x6ABA2C86 EQ PUSH2 0x66 JUMPI DUP1 PUSH4 0x78ABAFAF EQ PUSH2 0xA3 JUMPI DUP1 PUSH4 0xB60D4288 EQ PUSH2 0xCE JUMPI DUP1 PUSH4 0xDC0D3DFF EQ PUSH2 0xD8 JUMPI JUMPDEST PUSH1 0x0 DUP1 REVERT JUMPDEST CALLVALUE DUP1 ISZERO PUSH2 0x5B JUMPI PUSH1 0x0 DUP1 REVERT JUMPDEST POP PUSH2 0x64 PUSH2 0x115 JUMP JUMPDEST STOP JUMPDEST CALLVALUE DUP1 ISZERO PUSH2 0x72 JUMPI PUSH1 0x0 DUP1 REVERT JUMPDEST POP PUSH2 0x8D PUSH1 0x4 DUP1 CALLDATASIZE SUB DUP2 ADD SWAP1 PUSH2 0x88 SWAP2 SWAP1 PUSH2 0x42D JUMP JUMPDEST PUSH2 0x17F JUMP JUMPDEST PUSH1 0x40 MLOAD PUSH2 0x9A SWAP2 SWAP1 PUSH2 0x57E JUMP JUMPDEST PUSH1 0x40 MLOAD DUP1 SWAP2 SUB SWAP1 RETURN JUMPDEST CALLVALUE DUP1 ISZERO PUSH2 0xAF JUMPI PUSH1 0x0 DUP1 REVERT JUMPDEST POP PUSH2 0xB8 PUSH2 0x197 JUMP JUMPDEST PUSH1 0x40 MLOAD PUSH2 0xC5 SWAP2 SWAP1 PUSH2 0x57E JUMP JUMPDEST PUSH1 0x40 MLOAD DUP1 SWAP2 SUB SWAP1 RETURN JUMPDEST PUSH2 0xD6 PUSH2 0x19D JUMP JUMPDEST STOP JUMPDEST CALLVALUE DUP1 ISZERO PUSH2 0xE4 JUMPI PUSH1 0x0 DUP1 REVERT JUMPDEST POP PUSH2 0xFF PUSH1 0x4 DUP1 CALLDATASIZE SUB DUP2 ADD SWAP1 PUSH2 0xFA SWAP2 SWAP1 PUSH2 0x45A JUMP JUMPDEST PUSH2 0x293 JUMP JUMPDEST PUSH1 0x40 MLOAD PUSH2 0x10C SWAP2 SWAP1 PUSH2 0x543 JUMP JUMPDEST PUSH1 0x40 MLOAD DUP1 SWAP2 SUB SWAP1 RETURN JUMPDEST PUSH1 0x0 JUMPDEST PUSH1 0x1 DUP1 SLOAD SWAP1 POP DUP2 LT ISZERO PUSH2 0x17C JUMPI PUSH1 0x0 PUSH1 0x1 DUP3 DUP2 SLOAD DUP2 LT PUSH2 0x13B JUMPI PUSH2 0x13A PUSH2 0x84F JUMP JUMPDEST JUMPDEST SWAP1 PUSH1 0x0 MSTORE PUSH1 0x20 PUSH1 0x0 KECCAK256 ADD PUSH1 0x0 SWAP1 SLOAD SWAP1 PUSH2 0x100 EXP SWAP1 DIV PUSH20 0xFFFFFFFFFFFFFFFFFFFFFFFFFFFFFFFFFFFFFFFF AND SWAP1 POP POP DUP1 DUP1 PUSH2 0x174 SWAP1 PUSH2 0x7A8 JUMP JUMPDEST SWAP2 POP POP PUSH2 0x118 JUMP JUMPDEST POP JUMP JUMPDEST PUSH1 0x2 PUSH1 0x20 MSTORE DUP1 PUSH1 0x0 MSTORE PUSH1 0x40 PUSH1 0x0 KECCAK256 PUSH1 0x0 SWAP2 POP SWAP1 POP SLOAD DUP2 JUMP JUMPDEST PUSH1 0x0 SLOAD DUP2 JUMP JUMPDEST PUSH1 0x0 SLOAD PUSH2 0x1A9 CALLVALUE PUSH2 0x2D2 JUMP JUMPDEST LT ISZERO PUSH2 0x1EA JUMPI PUSH1 0x40 MLOAD PUSH32 0x8C379A000000000000000000000000000000000000000000000000000000000 DUP2 MSTORE PUSH1 0x4 ADD PUSH2 0x1E1 SWAP1 PUSH2 0x55E JUMP JUMPDEST PUSH1 0x40 MLOAD DUP1 SWAP2 SUB SWAP1 REVERT JUMPDEST PUSH1 0x1 CALLER SWAP1 DUP1 PUSH1 0x1 DUP2 SLOAD ADD DUP1 DUP3 SSTORE DUP1 SWAP2 POP POP PUSH1 0x1 SWAP1 SUB SWAP1 PUSH1 0x0 MSTORE PUSH1 0x20 PUSH1 0x0 KECCAK256 ADD PUSH1 0x0 SWAP1 SWAP2 SWAP1 SWAP2 SWAP1 SWAP2 PUSH2 0x100 EXP DUP2 SLOAD DUP2 PUSH20 0xFFFFFFFFFFFFFFFFFFFFFFFFFFFFFFFFFFFFFFFF MUL NOT AND SWAP1 DUP4 PUSH20 0xFFFFFFFFFFFFFFFFFFFFFFFFFFFFFFFFFFFFFFFF AND MUL OR SWAP1 SSTORE POP CALLVALUE PUSH1 0x2 PUSH1 0x0 CALLER PUSH20 0xFFFFFFFFFFFFFFFFFFFFFFFFFFFFFFFFFFFFFFFF AND PUSH20 0xFFFFFFFFFFFFFFFFFFFFFFFFFFFFFFFFFFFFFFFF AND DUP2 MSTORE PUSH1 0x20 ADD SWAP1 DUP2 MSTORE PUSH1 0x20 ADD PUSH1 0x0 KECCAK256 DUP2 SWAP1 SSTORE POP JUMP JUMPDEST PUSH1 0x1 DUP2 DUP2 SLOAD DUP2 LT PUSH2 0x2A3 JUMPI PUSH1 0x0 DUP1 REVERT JUMPDEST SWAP1 PUSH1 0x0 MSTORE PUSH1 0x20 PUSH1 0x0 KECCAK256 ADD PUSH1 0x0 SWAP2 POP SLOAD SWAP1 PUSH2 0x100 EXP SWAP1 DIV PUSH20 0xFFFFFFFFFFFFFFFFFFFFFFFFFFFFFFFFFFFFFFFF AND DUP2 JUMP JUMPDEST PUSH1 0x0 DUP1 PUSH2 0x2DD PUSH2 0x30C JUMP JUMPDEST SWAP1 POP PUSH1 0x0 PUSH8 0xDE0B6B3A7640000 DUP5 DUP4 PUSH2 0x2F6 SWAP2 SWAP1 PUSH2 0x6F2 JUMP JUMPDEST PUSH2 0x300 SWAP2 SWAP1 PUSH2 0x5AA JUMP JUMPDEST SWAP1 POP DUP1 SWAP3 POP POP POP SWAP2 SWAP1 POP JUMP JUMPDEST PUSH1 0x0 DUP1 PUSH20 0xD4A33860578DE61DBABDC8BFDB98FD742FA7028E SWAP1 POP PUSH1 0x0 DUP2 PUSH20 0xFFFFFFFFFFFFFFFFFFFFFFFFFFFFFFFFFFFFFFFF AND PUSH4 0xFEAF968C PUSH1 0x40 MLOAD DUP2 PUSH4 0xFFFFFFFF AND PUSH1 0xE0 SHL DUP2 MSTORE PUSH1 0x4 ADD PUSH1 0xA0 PUSH1 0x40 MLOAD DUP1 DUP4 SUB DUP2 DUP7 DUP1 EXTCODESIZE ISZERO DUP1 ISZERO PUSH2 0x36E JUMPI PUSH1 0x0 DUP1 REVERT JUMPDEST POP GAS STATICCALL ISZERO DUP1 ISZERO PUSH2 0x382 JUMPI RETURNDATASIZE PUSH1 0x0 DUP1 RETURNDATACOPY RETURNDATASIZE PUSH1 0x0 REVERT JUMPDEST POP POP POP POP PUSH1 0x40 MLOAD RETURNDATASIZE PUSH1 0x1F NOT PUSH1 0x1F DUP3 ADD AND DUP3 ADD DUP1 PUSH1 0x40 MSTORE POP DUP2 ADD SWAP1 PUSH2 0x3A6 SWAP2 SWAP1 PUSH2 0x487 JUMP JUMPDEST POP POP POP SWAP2 POP POP PUSH5 0x2540BE400 DUP2 PUSH2 0x3BD SWAP2 SWAP1 PUSH2 0x5DB JUMP JUMPDEST SWAP3 POP POP POP SWAP1 JUMP JUMPDEST PUSH1 0x0 DUP2 CALLDATALOAD SWAP1 POP PUSH2 0x3D3 DUP2 PUSH2 0x8AC JUMP JUMPDEST SWAP3 SWAP2 POP POP JUMP JUMPDEST PUSH1 0x0 DUP2 MLOAD SWAP1 POP PUSH2 0x3E8 DUP2 PUSH2 0x8C3 JUMP JUMPDEST SWAP3 SWAP2 POP POP JUMP JUMPDEST PUSH1 0x0 DUP2 CALLDATALOAD SWAP1 POP PUSH2 0x3FD DUP2 PUSH2 0x8DA JUMP JUMPDEST SWAP3 SWAP2 POP POP JUMP JUMPDEST PUSH1 0x0 DUP2 MLOAD SWAP1 POP PUSH2 0x412 DUP2 PUSH2 0x8DA JUMP JUMPDEST SWAP3 SWAP2 POP POP JUMP JUMPDEST PUSH1 0x0 DUP2 MLOAD SWAP1 POP PUSH2 0x427 DUP2 PUSH2 0x8F1 JUMP JUMPDEST SWAP3 SWAP2 POP POP JUMP JUMPDEST PUSH1 0x0 PUSH1 0x20 DUP3 DUP5 SUB SLT ISZERO PUSH2 0x443 JUMPI PUSH2 0x442 PUSH2 0x87E JUMP JUMPDEST JUMPDEST PUSH1 0x0 PUSH2 0x451 DUP5 DUP3 DUP6 ADD PUSH2 0x3C4 JUMP JUMPDEST SWAP2 POP POP SWAP3 SWAP2 POP POP JUMP JUMPDEST PUSH1 0x0 PUSH1 0x20 DUP3 DUP5 SUB SLT ISZERO PUSH2 0x470 JUMPI PUSH2 0x46F PUSH2 0x87E JUMP JUMPDEST JUMPDEST PUSH1 0x0 PUSH2 0x47E DUP5 DUP3 DUP6 ADD PUSH2 0x3EE JUMP JUMPDEST SWAP2 POP POP SWAP3 SWAP2 POP POP JUMP JUMPDEST PUSH1 0x0 DUP1 PUSH1 0x0 DUP1 PUSH1 0x0 PUSH1 0xA0 DUP7 DUP9 SUB SLT ISZERO PUSH2 0x4A3 JUMPI PUSH2 0x4A2 PUSH2 0x87E JUMP JUMPDEST JUMPDEST PUSH1 0x0 PUSH2 0x4B1 DUP9 DUP3 DUP10 ADD PUSH2 0x418 JUMP JUMPDEST SWAP6 POP POP PUSH1 0x20 PUSH2 0x4C2 DUP9 DUP3 DUP10 ADD PUSH2 0x3D9 JUMP JUMPDEST SWAP5 POP POP PUSH1 0x40 PUSH2 0x4D3 DUP9 DUP3 DUP10 ADD PUSH2 0x403 JUMP JUMPDEST SWAP4 POP POP PUSH1 0x60 PUSH2 0x4E4 DUP9 DUP3 DUP10 ADD PUSH2 0x403 JUMP JUMPDEST SWAP3 POP POP PUSH1 0x80 PUSH2 0x4F5 DUP9 DUP3 DUP10 ADD PUSH2 0x418 JUMP JUMPDEST SWAP2 POP POP SWAP3 SWAP6 POP SWAP3 SWAP6 SWAP1 SWAP4 POP JUMP JUMPDEST PUSH2 0x50B DUP2 PUSH2 0x74C JUMP JUMPDEST DUP3 MSTORE POP POP JUMP JUMPDEST PUSH1 0x0 PUSH2 0x51E PUSH1 0x12 DUP4 PUSH2 0x599 JUMP JUMPDEST SWAP2 POP PUSH2 0x529 DUP3 PUSH2 0x883 JUMP JUMPDEST PUSH1 0x20 DUP3 ADD SWAP1 POP SWAP2 SWAP1 POP JUMP JUMPDEST PUSH2 0x53D DUP2 PUSH2 0x788 JUMP JUMPDEST DUP3 MSTORE POP POP JUMP JUMPDEST PUSH1 0x0 PUSH1 0x20 DUP3 ADD SWAP1 POP PUSH2 0x558 PUSH1 0x0 DUP4 ADD DUP5 PUSH2 0x502 JUMP JUMPDEST SWAP3 SWAP2 POP POP JUMP JUMPDEST PUSH1 0x0 PUSH1 0x20 DUP3 ADD SWAP1 POP DUP2 DUP2 SUB PUSH1 0x0 DUP4 ADD MSTORE PUSH2 0x577 DUP2 PUSH2 0x511 JUMP JUMPDEST SWAP1 POP SWAP2 SWAP1 POP JUMP JUMPDEST PUSH1 0x0 PUSH1 0x20 DUP3 ADD SWAP1 POP PUSH2 0x593 PUSH1 0x0 DUP4 ADD DUP5 PUSH2 0x534 JUMP JUMPDEST SWAP3 SWAP2 POP POP JUMP JUMPDEST PUSH1 0x0 DUP3 DUP3 MSTORE PUSH1 0x20 DUP3 ADD SWAP1 POP SWAP3 SWAP2 POP POP JUMP JUMPDEST PUSH1 0x0 PUSH2 0x5B5 DUP3 PUSH2 0x788 JUMP JUMPDEST SWAP2 POP PUSH2 0x5C0 DUP4 PUSH2 0x788 JUMP JUMPDEST SWAP3 POP DUP3 PUSH2 0x5D0 JUMPI PUSH2 0x5CF PUSH2 0x820 JUMP JUMPDEST JUMPDEST DUP3 DUP3 DIV SWAP1 POP SWAP3 SWAP2 POP POP JUMP JUMPDEST PUSH1 0x0 PUSH2 0x5E6 DUP3 PUSH2 0x75E JUMP JUMPDEST SWAP2 POP PUSH2 0x5F1 DUP4 PUSH2 0x75E JUMP JUMPDEST SWAP3 POP DUP3 PUSH32 0x7FFFFFFFFFFFFFFFFFFFFFFFFFFFFFFFFFFFFFFFFFFFFFFFFFFFFFFFFFFFFFFF DIV DUP3 GT PUSH1 0x0 DUP5 SGT PUSH1 0x0 DUP5 SGT AND AND ISZERO PUSH2 0x630 JUMPI PUSH2 0x62F PUSH2 0x7F1 JUMP JUMPDEST JUMPDEST DUP2 PUSH32 0x8000000000000000000000000000000000000000000000000000000000000000 SDIV DUP4 SLT PUSH1 0x0 DUP5 SLT PUSH1 0x0 DUP5 SGT AND AND ISZERO PUSH2 0x66D JUMPI PUSH2 0x66C PUSH2 0x7F1 JUMP JUMPDEST JUMPDEST DUP3 PUSH32 0x8000000000000000000000000000000000000000000000000000000000000000 SDIV DUP3 SLT PUSH1 0x0 DUP5 SGT PUSH1 0x0 DUP5 SLT AND AND ISZERO PUSH2 0x6AA JUMPI PUSH2 0x6A9 PUSH2 0x7F1 JUMP JUMPDEST JUMPDEST DUP3 PUSH32 0x7FFFFFFFFFFFFFFFFFFFFFFFFFFFFFFFFFFFFFFFFFFFFFFFFFFFFFFFFFFFFFFF SDIV DUP3 SLT PUSH1 0x0 DUP5 SLT PUSH1 0x0 DUP5 SLT AND AND ISZERO PUSH2 0x6E7 JUMPI PUSH2 0x6E6 PUSH2 0x7F1 JUMP JUMPDEST JUMPDEST DUP3 DUP3 MUL SWAP1 POP SWAP3 SWAP2 POP POP JUMP JUMPDEST PUSH1 0x0 PUSH2 0x6FD DUP3 PUSH2 0x788 JUMP JUMPDEST SWAP2 POP PUSH2 0x708 DUP4 PUSH2 0x788 JUMP JUMPDEST SWAP3 POP DUP2 PUSH32 0xFFFFFFFFFFFFFFFFFFFFFFFFFFFFFFFFFFFFFFFFFFFFFFFFFFFFFFFFFFFFFFFF DIV DUP4 GT DUP3 ISZERO ISZERO AND ISZERO PUSH2 0x741 JUMPI PUSH2 0x740 PUSH2 0x7F1 JUMP JUMPDEST JUMPDEST DUP3 DUP3 MUL SWAP1 POP SWAP3 SWAP2 POP POP JUMP JUMPDEST PUSH1 0x0 PUSH2 0x757 DUP3 PUSH2 0x768 JUMP JUMPDEST SWAP1 POP SWAP2 SWAP1 POP JUMP JUMPDEST PUSH1 0x0 DUP2 SWAP1 POP SWAP2 SWAP1 POP JUMP JUMPDEST PUSH1 0x0 PUSH20 0xFFFFFFFFFFFFFFFFFFFFFFFFFFFFFFFFFFFFFFFF DUP3 AND SWAP1 POP SWAP2 SWAP1 POP JUMP JUMPDEST PUSH1 0x0 DUP2 SWAP1 POP SWAP2 SWAP1 POP JUMP JUMPDEST PUSH1 0x0 PUSH10 0xFFFFFFFFFFFFFFFFFFFF DUP3 AND SWAP1 POP SWAP2 SWAP1 POP JUMP JUMPDEST PUSH1 0x0 PUSH2 0x7B3 DUP3 PUSH2 0x788 JUMP JUMPDEST SWAP2 POP PUSH32 0xFFFFFFFFFFFFFFFFFFFFFFFFFFFFFFFFFFFFFFFFFFFFFFFFFFFFFFFFFFFFFFFF DUP3 EQ ISZERO PUSH2 0x7E6 JUMPI PUSH2 0x7E5 PUSH2 0x7F1 JUMP JUMPDEST JUMPDEST PUSH1 0x1 DUP3 ADD SWAP1 POP SWAP2 SWAP1 POP JUMP JUMPDEST PUSH32 0x4E487B7100000000000000000000000000000000000000000000000000000000 PUSH1 0x0 MSTORE PUSH1 0x11 PUSH1 0x4 MSTORE PUSH1 0x24 PUSH1 0x0 REVERT JUMPDEST PUSH32 0x4E487B7100000000000000000000000000000000000000000000000000000000 PUSH1 0x0 MSTORE PUSH1 0x12 PUSH1 0x4 MSTORE PUSH1 0x24 PUSH1 0x0 REVERT JUMPDEST PUSH32 0x4E487B7100000000000000000000000000000000000000000000000000000000 PUSH1 0x0 MSTORE PUSH1 0x32 PUSH1 0x4 MSTORE PUSH1 0x24 PUSH1 0x0 REVERT JUMPDEST PUSH1 0x0 DUP1 REVERT JUMPDEST PUSH32 0x4469646E27742073656E6420656E6F7567680000000000000000000000000000 PUSH1 0x0 DUP3 ADD MSTORE POP JUMP JUMPDEST PUSH2 0x8B5 DUP2 PUSH2 0x74C JUMP JUMPDEST DUP2 EQ PUSH2 0x8C0 JUMPI PUSH1 0x0 DUP1 REVERT JUMPDEST POP JUMP JUMPDEST PUSH2 0x8CC DUP2 PUSH2 0x75E JUMP JUMPDEST DUP2 EQ PUSH2 0x8D7 JUMPI PUSH1 0x0 DUP1 REVERT JUMPDEST POP JUMP JUMPDEST PUSH2 0x8E3 DUP2 PUSH2 0x788 JUMP JUMPDEST DUP2 EQ PUSH2 0x8EE JUMPI PUSH1 0x0 DUP1 REVERT JUMPDEST POP JUMP JUMPDEST PUSH2 0x8FA DUP2 PUSH2 0x792 JUMP JUMPDEST DUP2 EQ PUSH2 0x905 JUMPI PUSH1 0x0 DUP1 REVERT JUMPDEST POP JUMP INVALID LOG2 PUSH5 0x6970667358 0x22 SLT KECCAK256 0xA8 PUSH26 0xC795BAA02515AFF2909414B5F249618E883AF63829FF4A00CF06 0xB4 0xF SWAP3 0xF8 PUSH5 0x736F6C6343 STOP ADDMOD SMOD STOP CALLER "
				},
				"gasEstimates": {
					"creation": {
						"codeDepositCost": "473200",
						"executionCost": "22611",
						"totalCost": "495811"
					},
					"external": {
						"fund()": "infinite",
						"funderAndAmountSent(address)": "2814",
						"funders(uint256)": "5022",
						"limitAmount()": "2451",
						"widthdraw()": "infinite"
					}
				},
				"methodIdentifiers": {
					"fund()": "b60d4288",
					"funderAndAmountSent(address)": "6aba2c86",
					"funders(uint256)": "dc0d3dff",
					"limitAmount()": "78abafaf",
					"widthdraw()": "52b50a2a"
				}
			},
			"storageLayout": {
				"storage": [
					{
						"astId": 58,
						"contract": "Contracts/FundMe.sol:FundMe",
						"label": "limitAmount",
						"offset": 0,
						"slot": "0",
						"type": "t_uint256"
					},
					{
						"astId": 61,
						"contract": "Contracts/FundMe.sol:FundMe",
						"label": "funders",
						"offset": 0,
						"slot": "1",
						"type": "t_array(t_address)dyn_storage"
					},
					{
						"astId": 65,
						"contract": "Contracts/FundMe.sol:FundMe",
						"label": "funderAndAmountSent",
						"offset": 0,
						"slot": "2",
						"type": "t_mapping(t_address,t_uint256)"
					}
				],
				"types": {
					"t_address": {
						"encoding": "inplace",
						"label": "address",
						"numberOfBytes": "20"
					},
					"t_array(t_address)dyn_storage": {
						"base": "t_address",
						"encoding": "dynamic_array",
						"label": "address[]",
						"numberOfBytes": "32"
					},
					"t_mapping(t_address,t_uint256)": {
						"encoding": "mapping",
						"key": "t_address",
						"label": "mapping(address => uint256)",
						"numberOfBytes": "32",
						"value": "t_uint256"
					},
					"t_uint256": {
						"encoding": "inplace",
						"label": "uint256",
						"numberOfBytes": "32"
					}
				}
			},
			"userdoc": {
				"kind": "user",
				"methods": {},
				"version": 1
			}
		}
	}
}