{
	"Contracts/SimpleStorage.sol": {
		"SimpleStorage": {
			"abi": [
				{
					"inputs": [
						{
							"internalType": "string",
							"name": "_name",
							"type": "string"
						},
						{
							"internalType": "uint256",
							"name": "_rollNo",
							"type": "uint256"
						}
					],
					"name": "addStudent",
					"outputs": [],
					"stateMutability": "nonpayable",
					"type": "function"
				},
				{
					"inputs": [],
					"name": "retrieve",
					"outputs": [
						{
							"internalType": "uint256",
							"name": "",
							"type": "uint256"
						}
					],
					"stateMutability": "view",
					"type": "function"
				},
				{
					"inputs": [
						{
							"internalType": "uint256",
							"name": "_favouriteNumber",
							"type": "uint256"
						}
					],
					"name": "store",
					"outputs": [],
					"stateMutability": "nonpayable",
					"type": "function"
				},
				{
					"inputs": [
						{
							"internalType": "uint256",
							"name": "",
							"type": "uint256"
						}
					],
					"name": "students",
					"outputs": [
						{
							"internalType": "uint256",
							"name": "rollNo",
							"type": "uint256"
						},
						{
							"internalType": "string",
							"name": "name",
							"type": "string"
						}
					],
					"stateMutability": "view",
					"type": "function"
				}
			],
			"devdoc": {
				"kind": "dev",
				"methods": {},
				"version": 1
			},
			"evm": {
				"assembly": "    /* \"Contracts/SimpleStorage.sol\":62:523  contract SimpleStorage{\r... */\n  mstore(0x40, 0x80)\n  callvalue\n  dup1\n  iszero\n  tag_1\n  jumpi\n  0x00\n  dup1\n  revert\ntag_1:\n  pop\n  dataSize(sub_0)\n  dup1\n  dataOffset(sub_0)\n  0x00\n  codecopy\n  0x00\n  return\nstop\n\nsub_0: assembly {\n        /* \"Contracts/SimpleStorage.sol\":62:523  contract SimpleStorage{\r... */\n      mstore(0x40, 0x80)\n      callvalue\n      dup1\n      iszero\n      tag_1\n      jumpi\n      0x00\n      dup1\n      revert\n    tag_1:\n      pop\n      jumpi(tag_2, lt(calldatasize, 0x04))\n      shr(0xe0, calldataload(0x00))\n      dup1\n      0x06ead22e\n      eq\n      tag_3\n      jumpi\n      dup1\n      0x0e5eeef7\n      eq\n      tag_4\n      jumpi\n      dup1\n      0x2e64cec1\n      eq\n      tag_5\n      jumpi\n      dup1\n      0x6057361d\n      eq\n      tag_6\n      jumpi\n    tag_2:\n      0x00\n      dup1\n      revert\n        /* \"Contracts/SimpleStorage.sol\":202:227  Student[] public students */\n    tag_3:\n      tag_7\n      0x04\n      dup1\n      calldatasize\n      sub\n      dup2\n      add\n      swap1\n      tag_8\n      swap2\n      swap1\n      tag_9\n      jump\t// in\n    tag_8:\n      tag_10\n      jump\t// in\n    tag_7:\n      mload(0x40)\n      tag_11\n      swap3\n      swap2\n      swap1\n      tag_12\n      jump\t// in\n    tag_11:\n      mload(0x40)\n      dup1\n      swap2\n      sub\n      swap1\n      return\n        /* \"Contracts/SimpleStorage.sol\":236:312  function addStudent(string calldata _name, uint256 _rollNo) public{\r... */\n    tag_4:\n      tag_13\n      0x04\n      dup1\n      calldatasize\n      sub\n      dup2\n      add\n      swap1\n      tag_14\n      swap2\n      swap1\n      tag_15\n      jump\t// in\n    tag_14:\n      tag_16\n      jump\t// in\n    tag_13:\n      stop\n        /* \"Contracts/SimpleStorage.sol\":429:518  function retrieve() public view returns(uint256){\r... */\n    tag_5:\n      tag_17\n      tag_18\n      jump\t// in\n    tag_17:\n      mload(0x40)\n      tag_19\n      swap2\n      swap1\n      tag_20\n      jump\t// in\n    tag_19:\n      mload(0x40)\n      dup1\n      swap2\n      sub\n      swap1\n      return\n        /* \"Contracts/SimpleStorage.sol\":320:421  function store(uint256 _favouriteNumber) public {\r... */\n    tag_6:\n      tag_21\n      0x04\n      dup1\n      calldatasize\n      sub\n      dup2\n      add\n      swap1\n      tag_22\n      swap2\n      swap1\n      tag_9\n      jump\t// in\n    tag_22:\n      tag_23\n      jump\t// in\n    tag_21:\n      stop\n        /* \"Contracts/SimpleStorage.sol\":202:227  Student[] public students */\n    tag_10:\n      0x01\n      dup2\n      dup2\n      sload\n      dup2\n      lt\n      tag_24\n      jumpi\n      0x00\n      dup1\n      revert\n    tag_24:\n      swap1\n      0x00\n      mstore\n      keccak256(0x00, 0x20)\n      swap1\n      0x02\n      mul\n      add\n      0x00\n      swap2\n      pop\n      swap1\n      pop\n      dup1\n      0x00\n      add\n      sload\n      swap1\n      dup1\n      0x01\n      add\n      dup1\n      sload\n      tag_26\n      swap1\n      tag_27\n      jump\t// in\n    tag_26:\n      dup1\n      0x1f\n      add\n      0x20\n      dup1\n      swap2\n      div\n      mul\n      0x20\n      add\n      mload(0x40)\n      swap1\n      dup2\n      add\n      0x40\n      mstore\n      dup1\n      swap3\n      swap2\n      swap1\n      dup2\n      dup2\n      mstore\n      0x20\n      add\n      dup3\n      dup1\n      sload\n      tag_28\n      swap1\n      tag_27\n      jump\t// in\n    tag_28:\n      dup1\n      iszero\n      tag_29\n      jumpi\n      dup1\n      0x1f\n      lt\n      tag_30\n      jumpi\n      0x0100\n      dup1\n      dup4\n      sload\n      div\n      mul\n      dup4\n      mstore\n      swap2\n      0x20\n      add\n      swap2\n      jump(tag_29)\n    tag_30:\n      dup3\n      add\n      swap2\n      swap1\n      0x00\n      mstore\n      keccak256(0x00, 0x20)\n      swap1\n    tag_31:\n      dup2\n      sload\n      dup2\n      mstore\n      swap1\n      0x01\n      add\n      swap1\n      0x20\n      add\n      dup1\n      dup4\n      gt\n      tag_31\n      jumpi\n      dup3\n      swap1\n      sub\n      0x1f\n      and\n      dup3\n      add\n      swap2\n    tag_29:\n      pop\n      pop\n      pop\n      pop\n      pop\n      swap1\n      pop\n      dup3\n      jump\t// out\n        /* \"Contracts/SimpleStorage.sol\":236:312  function addStudent(string calldata _name, uint256 _rollNo) public{\r... */\n    tag_16:\n      pop\n      pop\n      pop\n      jump\t// out\n        /* \"Contracts/SimpleStorage.sol\":429:518  function retrieve() public view returns(uint256){\r... */\n    tag_18:\n        /* \"Contracts/SimpleStorage.sol\":469:476  uint256 */\n      0x00\n        /* \"Contracts/SimpleStorage.sol\":495:510  favouriteNumber */\n      dup1\n      sload\n        /* \"Contracts/SimpleStorage.sol\":488:510  return favouriteNumber */\n      swap1\n      pop\n        /* \"Contracts/SimpleStorage.sol\":429:518  function retrieve() public view returns(uint256){\r... */\n      swap1\n      jump\t// out\n        /* \"Contracts/SimpleStorage.sol\":320:421  function store(uint256 _favouriteNumber) public {\r... */\n    tag_23:\n        /* \"Contracts/SimpleStorage.sol\":397:413  _favouriteNumber */\n      dup1\n        /* \"Contracts/SimpleStorage.sol\":379:394  favouriteNumber */\n      0x00\n        /* \"Contracts/SimpleStorage.sol\":379:413  favouriteNumber = _favouriteNumber */\n      dup2\n      swap1\n      sstore\n      pop\n        /* \"Contracts/SimpleStorage.sol\":320:421  function store(uint256 _favouriteNumber) public {\r... */\n      pop\n      jump\t// out\n        /* \"#utility.yul\":21:574   */\n    tag_36:\n        /* \"#utility.yul\":79:87   */\n      0x00\n        /* \"#utility.yul\":89:95   */\n      dup1\n        /* \"#utility.yul\":139:142   */\n      dup4\n        /* \"#utility.yul\":132:136   */\n      0x1f\n        /* \"#utility.yul\":124:130   */\n      dup5\n        /* \"#utility.yul\":120:137   */\n      add\n        /* \"#utility.yul\":116:143   */\n      slt\n        /* \"#utility.yul\":106:228   */\n      tag_38\n      jumpi\n        /* \"#utility.yul\":147:226   */\n      tag_39\n      tag_40\n      jump\t// in\n    tag_39:\n        /* \"#utility.yul\":106:228   */\n    tag_38:\n        /* \"#utility.yul\":260:266   */\n      dup3\n        /* \"#utility.yul\":247:267   */\n      calldataload\n        /* \"#utility.yul\":237:267   */\n      swap1\n      pop\n        /* \"#utility.yul\":290:308   */\n      0xffffffffffffffff\n        /* \"#utility.yul\":282:288   */\n      dup2\n        /* \"#utility.yul\":279:309   */\n      gt\n        /* \"#utility.yul\":276:393   */\n      iszero\n      tag_41\n      jumpi\n        /* \"#utility.yul\":312:391   */\n      tag_42\n      tag_43\n      jump\t// in\n    tag_42:\n        /* \"#utility.yul\":276:393   */\n    tag_41:\n        /* \"#utility.yul\":426:430   */\n      0x20\n        /* \"#utility.yul\":418:424   */\n      dup4\n        /* \"#utility.yul\":414:431   */\n      add\n        /* \"#utility.yul\":402:431   */\n      swap2\n      pop\n        /* \"#utility.yul\":480:483   */\n      dup4\n        /* \"#utility.yul\":472:476   */\n      0x01\n        /* \"#utility.yul\":464:470   */\n      dup3\n        /* \"#utility.yul\":460:477   */\n      mul\n        /* \"#utility.yul\":450:458   */\n      dup4\n        /* \"#utility.yul\":446:478   */\n      add\n        /* \"#utility.yul\":443:484   */\n      gt\n        /* \"#utility.yul\":440:568   */\n      iszero\n      tag_44\n      jumpi\n        /* \"#utility.yul\":487:566   */\n      tag_45\n      tag_46\n      jump\t// in\n    tag_45:\n        /* \"#utility.yul\":440:568   */\n    tag_44:\n        /* \"#utility.yul\":21:574   */\n      swap3\n      pop\n      swap3\n      swap1\n      pop\n      jump\t// out\n        /* \"#utility.yul\":580:719   */\n    tag_47:\n        /* \"#utility.yul\":626:631   */\n      0x00\n        /* \"#utility.yul\":664:670   */\n      dup2\n        /* \"#utility.yul\":651:671   */\n      calldataload\n        /* \"#utility.yul\":642:671   */\n      swap1\n      pop\n        /* \"#utility.yul\":680:713   */\n      tag_49\n        /* \"#utility.yul\":707:712   */\n      dup2\n        /* \"#utility.yul\":680:713   */\n      tag_50\n      jump\t// in\n    tag_49:\n        /* \"#utility.yul\":580:719   */\n      swap3\n      swap2\n      pop\n      pop\n      jump\t// out\n        /* \"#utility.yul\":725:1399   */\n    tag_15:\n        /* \"#utility.yul\":805:811   */\n      0x00\n        /* \"#utility.yul\":813:819   */\n      dup1\n        /* \"#utility.yul\":821:827   */\n      0x00\n        /* \"#utility.yul\":870:872   */\n      0x40\n        /* \"#utility.yul\":858:867   */\n      dup5\n        /* \"#utility.yul\":849:856   */\n      dup7\n        /* \"#utility.yul\":845:868   */\n      sub\n        /* \"#utility.yul\":841:873   */\n      slt\n        /* \"#utility.yul\":838:957   */\n      iszero\n      tag_52\n      jumpi\n        /* \"#utility.yul\":876:955   */\n      tag_53\n      tag_54\n      jump\t// in\n    tag_53:\n        /* \"#utility.yul\":838:957   */\n    tag_52:\n        /* \"#utility.yul\":1024:1025   */\n      0x00\n        /* \"#utility.yul\":1013:1022   */\n      dup5\n        /* \"#utility.yul\":1009:1026   */\n      add\n        /* \"#utility.yul\":996:1027   */\n      calldataload\n        /* \"#utility.yul\":1054:1072   */\n      0xffffffffffffffff\n        /* \"#utility.yul\":1046:1052   */\n      dup2\n        /* \"#utility.yul\":1043:1073   */\n      gt\n        /* \"#utility.yul\":1040:1157   */\n      iszero\n      tag_55\n      jumpi\n        /* \"#utility.yul\":1076:1155   */\n      tag_56\n      tag_57\n      jump\t// in\n    tag_56:\n        /* \"#utility.yul\":1040:1157   */\n    tag_55:\n        /* \"#utility.yul\":1189:1254   */\n      tag_58\n        /* \"#utility.yul\":1246:1253   */\n      dup7\n        /* \"#utility.yul\":1237:1243   */\n      dup3\n        /* \"#utility.yul\":1226:1235   */\n      dup8\n        /* \"#utility.yul\":1222:1244   */\n      add\n        /* \"#utility.yul\":1189:1254   */\n      tag_36\n      jump\t// in\n    tag_58:\n        /* \"#utility.yul\":1171:1254   */\n      swap4\n      pop\n      swap4\n      pop\n        /* \"#utility.yul\":967:1264   */\n      pop\n        /* \"#utility.yul\":1303:1305   */\n      0x20\n        /* \"#utility.yul\":1329:1382   */\n      tag_59\n        /* \"#utility.yul\":1374:1381   */\n      dup7\n        /* \"#utility.yul\":1365:1371   */\n      dup3\n        /* \"#utility.yul\":1354:1363   */\n      dup8\n        /* \"#utility.yul\":1350:1372   */\n      add\n        /* \"#utility.yul\":1329:1382   */\n      tag_47\n      jump\t// in\n    tag_59:\n        /* \"#utility.yul\":1319:1382   */\n      swap2\n      pop\n        /* \"#utility.yul\":1274:1392   */\n      pop\n        /* \"#utility.yul\":725:1399   */\n      swap3\n      pop\n      swap3\n      pop\n      swap3\n      jump\t// out\n        /* \"#utility.yul\":1405:1734   */\n    tag_9:\n        /* \"#utility.yul\":1464:1470   */\n      0x00\n        /* \"#utility.yul\":1513:1515   */\n      0x20\n        /* \"#utility.yul\":1501:1510   */\n      dup3\n        /* \"#utility.yul\":1492:1499   */\n      dup5\n        /* \"#utility.yul\":1488:1511   */\n      sub\n        /* \"#utility.yul\":1484:1516   */\n      slt\n        /* \"#utility.yul\":1481:1600   */\n      iszero\n      tag_61\n      jumpi\n        /* \"#utility.yul\":1519:1598   */\n      tag_62\n      tag_54\n      jump\t// in\n    tag_62:\n        /* \"#utility.yul\":1481:1600   */\n    tag_61:\n        /* \"#utility.yul\":1639:1640   */\n      0x00\n        /* \"#utility.yul\":1664:1717   */\n      tag_63\n        /* \"#utility.yul\":1709:1716   */\n      dup5\n        /* \"#utility.yul\":1700:1706   */\n      dup3\n        /* \"#utility.yul\":1689:1698   */\n      dup6\n        /* \"#utility.yul\":1685:1707   */\n      add\n        /* \"#utility.yul\":1664:1717   */\n      tag_47\n      jump\t// in\n    tag_63:\n        /* \"#utility.yul\":1654:1717   */\n      swap2\n      pop\n        /* \"#utility.yul\":1610:1727   */\n      pop\n        /* \"#utility.yul\":1405:1734   */\n      swap3\n      swap2\n      pop\n      pop\n      jump\t// out\n        /* \"#utility.yul\":1740:2104   */\n    tag_64:\n        /* \"#utility.yul\":1828:1831   */\n      0x00\n        /* \"#utility.yul\":1856:1895   */\n      tag_66\n        /* \"#utility.yul\":1889:1894   */\n      dup3\n        /* \"#utility.yul\":1856:1895   */\n      tag_67\n      jump\t// in\n    tag_66:\n        /* \"#utility.yul\":1911:1982   */\n      tag_68\n        /* \"#utility.yul\":1975:1981   */\n      dup2\n        /* \"#utility.yul\":1970:1973   */\n      dup6\n        /* \"#utility.yul\":1911:1982   */\n      tag_69\n      jump\t// in\n    tag_68:\n        /* \"#utility.yul\":1904:1982   */\n      swap4\n      pop\n        /* \"#utility.yul\":1991:2043   */\n      tag_70\n        /* \"#utility.yul\":2036:2042   */\n      dup2\n        /* \"#utility.yul\":2031:2034   */\n      dup6\n        /* \"#utility.yul\":2024:2028   */\n      0x20\n        /* \"#utility.yul\":2017:2022   */\n      dup7\n        /* \"#utility.yul\":2013:2029   */\n      add\n        /* \"#utility.yul\":1991:2043   */\n      tag_71\n      jump\t// in\n    tag_70:\n        /* \"#utility.yul\":2068:2097   */\n      tag_72\n        /* \"#utility.yul\":2090:2096   */\n      dup2\n        /* \"#utility.yul\":2068:2097   */\n      tag_73\n      jump\t// in\n    tag_72:\n        /* \"#utility.yul\":2063:2066   */\n      dup5\n        /* \"#utility.yul\":2059:2098   */\n      add\n        /* \"#utility.yul\":2052:2098   */\n      swap2\n      pop\n        /* \"#utility.yul\":1832:2104   */\n      pop\n        /* \"#utility.yul\":1740:2104   */\n      swap3\n      swap2\n      pop\n      pop\n      jump\t// out\n        /* \"#utility.yul\":2110:2228   */\n    tag_74:\n        /* \"#utility.yul\":2197:2221   */\n      tag_76\n        /* \"#utility.yul\":2215:2220   */\n      dup2\n        /* \"#utility.yul\":2197:2221   */\n      tag_77\n      jump\t// in\n    tag_76:\n        /* \"#utility.yul\":2192:2195   */\n      dup3\n        /* \"#utility.yul\":2185:2222   */\n      mstore\n        /* \"#utility.yul\":2110:2228   */\n      pop\n      pop\n      jump\t// out\n        /* \"#utility.yul\":2234:2456   */\n    tag_20:\n        /* \"#utility.yul\":2327:2331   */\n      0x00\n        /* \"#utility.yul\":2365:2367   */\n      0x20\n        /* \"#utility.yul\":2354:2363   */\n      dup3\n        /* \"#utility.yul\":2350:2368   */\n      add\n        /* \"#utility.yul\":2342:2368   */\n      swap1\n      pop\n        /* \"#utility.yul\":2378:2449   */\n      tag_79\n        /* \"#utility.yul\":2446:2447   */\n      0x00\n        /* \"#utility.yul\":2435:2444   */\n      dup4\n        /* \"#utility.yul\":2431:2448   */\n      add\n        /* \"#utility.yul\":2422:2428   */\n      dup5\n        /* \"#utility.yul\":2378:2449   */\n      tag_74\n      jump\t// in\n    tag_79:\n        /* \"#utility.yul\":2234:2456   */\n      swap3\n      swap2\n      pop\n      pop\n      jump\t// out\n        /* \"#utility.yul\":2462:2885   */\n    tag_12:\n        /* \"#utility.yul\":2603:2607   */\n      0x00\n        /* \"#utility.yul\":2641:2643   */\n      0x40\n        /* \"#utility.yul\":2630:2639   */\n      dup3\n        /* \"#utility.yul\":2626:2644   */\n      add\n        /* \"#utility.yul\":2618:2644   */\n      swap1\n      pop\n        /* \"#utility.yul\":2654:2725   */\n      tag_81\n        /* \"#utility.yul\":2722:2723   */\n      0x00\n        /* \"#utility.yul\":2711:2720   */\n      dup4\n        /* \"#utility.yul\":2707:2724   */\n      add\n        /* \"#utility.yul\":2698:2704   */\n      dup6\n        /* \"#utility.yul\":2654:2725   */\n      tag_74\n      jump\t// in\n    tag_81:\n        /* \"#utility.yul\":2772:2781   */\n      dup2\n        /* \"#utility.yul\":2766:2770   */\n      dup2\n        /* \"#utility.yul\":2762:2782   */\n      sub\n        /* \"#utility.yul\":2757:2759   */\n      0x20\n        /* \"#utility.yul\":2746:2755   */\n      dup4\n        /* \"#utility.yul\":2742:2760   */\n      add\n        /* \"#utility.yul\":2735:2783   */\n      mstore\n        /* \"#utility.yul\":2800:2878   */\n      tag_82\n        /* \"#utility.yul\":2873:2877   */\n      dup2\n        /* \"#utility.yul\":2864:2870   */\n      dup5\n        /* \"#utility.yul\":2800:2878   */\n      tag_64\n      jump\t// in\n    tag_82:\n        /* \"#utility.yul\":2792:2878   */\n      swap1\n      pop\n        /* \"#utility.yul\":2462:2885   */\n      swap4\n      swap3\n      pop\n      pop\n      pop\n      jump\t// out\n        /* \"#utility.yul\":2972:3071   */\n    tag_67:\n        /* \"#utility.yul\":3024:3030   */\n      0x00\n        /* \"#utility.yul\":3058:3063   */\n      dup2\n        /* \"#utility.yul\":3052:3064   */\n      mload\n        /* \"#utility.yul\":3042:3064   */\n      swap1\n      pop\n        /* \"#utility.yul\":2972:3071   */\n      swap2\n      swap1\n      pop\n      jump\t// out\n        /* \"#utility.yul\":3077:3246   */\n    tag_69:\n        /* \"#utility.yul\":3161:3172   */\n      0x00\n        /* \"#utility.yul\":3195:3201   */\n      dup3\n        /* \"#utility.yul\":3190:3193   */\n      dup3\n        /* \"#utility.yul\":3183:3202   */\n      mstore\n        /* \"#utility.yul\":3235:3239   */\n      0x20\n        /* \"#utility.yul\":3230:3233   */\n      dup3\n        /* \"#utility.yul\":3226:3240   */\n      add\n        /* \"#utility.yul\":3211:3240   */\n      swap1\n      pop\n        /* \"#utility.yul\":3077:3246   */\n      swap3\n      swap2\n      pop\n      pop\n      jump\t// out\n        /* \"#utility.yul\":3252:3329   */\n    tag_77:\n        /* \"#utility.yul\":3289:3296   */\n      0x00\n        /* \"#utility.yul\":3318:3323   */\n      dup2\n        /* \"#utility.yul\":3307:3323   */\n      swap1\n      pop\n        /* \"#utility.yul\":3252:3329   */\n      swap2\n      swap1\n      pop\n      jump\t// out\n        /* \"#utility.yul\":3335:3642   */\n    tag_71:\n        /* \"#utility.yul\":3403:3404   */\n      0x00\n        /* \"#utility.yul\":3413:3526   */\n    tag_89:\n        /* \"#utility.yul\":3427:3433   */\n      dup4\n        /* \"#utility.yul\":3424:3425   */\n      dup2\n        /* \"#utility.yul\":3421:3434   */\n      lt\n        /* \"#utility.yul\":3413:3526   */\n      iszero\n      tag_91\n      jumpi\n        /* \"#utility.yul\":3512:3513   */\n      dup1\n        /* \"#utility.yul\":3507:3510   */\n      dup3\n        /* \"#utility.yul\":3503:3514   */\n      add\n        /* \"#utility.yul\":3497:3515   */\n      mload\n        /* \"#utility.yul\":3493:3494   */\n      dup2\n        /* \"#utility.yul\":3488:3491   */\n      dup5\n        /* \"#utility.yul\":3484:3495   */\n      add\n        /* \"#utility.yul\":3477:3516   */\n      mstore\n        /* \"#utility.yul\":3449:3451   */\n      0x20\n        /* \"#utility.yul\":3446:3447   */\n      dup2\n        /* \"#utility.yul\":3442:3452   */\n      add\n        /* \"#utility.yul\":3437:3452   */\n      swap1\n      pop\n        /* \"#utility.yul\":3413:3526   */\n      jump(tag_89)\n    tag_91:\n        /* \"#utility.yul\":3544:3550   */\n      dup4\n        /* \"#utility.yul\":3541:3542   */\n      dup2\n        /* \"#utility.yul\":3538:3551   */\n      gt\n        /* \"#utility.yul\":3535:3636   */\n      iszero\n      tag_92\n      jumpi\n        /* \"#utility.yul\":3624:3625   */\n      0x00\n        /* \"#utility.yul\":3615:3621   */\n      dup5\n        /* \"#utility.yul\":3610:3613   */\n      dup5\n        /* \"#utility.yul\":3606:3622   */\n      add\n        /* \"#utility.yul\":3599:3626   */\n      mstore\n        /* \"#utility.yul\":3535:3636   */\n    tag_92:\n        /* \"#utility.yul\":3384:3642   */\n      pop\n        /* \"#utility.yul\":3335:3642   */\n      pop\n      pop\n      pop\n      jump\t// out\n        /* \"#utility.yul\":3648:3968   */\n    tag_27:\n        /* \"#utility.yul\":3692:3698   */\n      0x00\n        /* \"#utility.yul\":3729:3730   */\n      0x02\n        /* \"#utility.yul\":3723:3727   */\n      dup3\n        /* \"#utility.yul\":3719:3731   */\n      div\n        /* \"#utility.yul\":3709:3731   */\n      swap1\n      pop\n        /* \"#utility.yul\":3776:3777   */\n      0x01\n        /* \"#utility.yul\":3770:3774   */\n      dup3\n        /* \"#utility.yul\":3766:3778   */\n      and\n        /* \"#utility.yul\":3797:3815   */\n      dup1\n        /* \"#utility.yul\":3787:3868   */\n      tag_94\n      jumpi\n        /* \"#utility.yul\":3853:3857   */\n      0x7f\n        /* \"#utility.yul\":3845:3851   */\n      dup3\n        /* \"#utility.yul\":3841:3858   */\n      and\n        /* \"#utility.yul\":3831:3858   */\n      swap2\n      pop\n        /* \"#utility.yul\":3787:3868   */\n    tag_94:\n        /* \"#utility.yul\":3915:3917   */\n      0x20\n        /* \"#utility.yul\":3907:3913   */\n      dup3\n        /* \"#utility.yul\":3904:3918   */\n      lt\n        /* \"#utility.yul\":3884:3902   */\n      dup2\n        /* \"#utility.yul\":3881:3919   */\n      eq\n        /* \"#utility.yul\":3878:3962   */\n      iszero\n      tag_95\n      jumpi\n        /* \"#utility.yul\":3934:3952   */\n      tag_96\n      tag_97\n      jump\t// in\n    tag_96:\n        /* \"#utility.yul\":3878:3962   */\n    tag_95:\n        /* \"#utility.yul\":3699:3968   */\n      pop\n        /* \"#utility.yul\":3648:3968   */\n      swap2\n      swap1\n      pop\n      jump\t// out\n        /* \"#utility.yul\":3974:4154   */\n    tag_97:\n        /* \"#utility.yul\":4022:4099   */\n      0x4e487b7100000000000000000000000000000000000000000000000000000000\n        /* \"#utility.yul\":4019:4020   */\n      0x00\n        /* \"#utility.yul\":4012:4100   */\n      mstore\n        /* \"#utility.yul\":4119:4123   */\n      0x22\n        /* \"#utility.yul\":4116:4117   */\n      0x04\n        /* \"#utility.yul\":4109:4124   */\n      mstore\n        /* \"#utility.yul\":4143:4147   */\n      0x24\n        /* \"#utility.yul\":4140:4141   */\n      0x00\n        /* \"#utility.yul\":4133:4148   */\n      revert\n        /* \"#utility.yul\":4160:4277   */\n    tag_43:\n        /* \"#utility.yul\":4269:4270   */\n      0x00\n        /* \"#utility.yul\":4266:4267   */\n      dup1\n        /* \"#utility.yul\":4259:4271   */\n      revert\n        /* \"#utility.yul\":4283:4400   */\n    tag_40:\n        /* \"#utility.yul\":4392:4393   */\n      0x00\n        /* \"#utility.yul\":4389:4390   */\n      dup1\n        /* \"#utility.yul\":4382:4394   */\n      revert\n        /* \"#utility.yul\":4406:4523   */\n    tag_46:\n        /* \"#utility.yul\":4515:4516   */\n      0x00\n        /* \"#utility.yul\":4512:4513   */\n      dup1\n        /* \"#utility.yul\":4505:4517   */\n      revert\n        /* \"#utility.yul\":4529:4646   */\n    tag_57:\n        /* \"#utility.yul\":4638:4639   */\n      0x00\n        /* \"#utility.yul\":4635:4636   */\n      dup1\n        /* \"#utility.yul\":4628:4640   */\n      revert\n        /* \"#utility.yul\":4652:4769   */\n    tag_54:\n        /* \"#utility.yul\":4761:4762   */\n      0x00\n        /* \"#utility.yul\":4758:4759   */\n      dup1\n        /* \"#utility.yul\":4751:4763   */\n      revert\n        /* \"#utility.yul\":4775:4877   */\n    tag_73:\n        /* \"#utility.yul\":4816:4822   */\n      0x00\n        /* \"#utility.yul\":4867:4869   */\n      0x1f\n        /* \"#utility.yul\":4863:4870   */\n      not\n        /* \"#utility.yul\":4858:4860   */\n      0x1f\n        /* \"#utility.yul\":4851:4856   */\n      dup4\n        /* \"#utility.yul\":4847:4861   */\n      add\n        /* \"#utility.yul\":4843:4871   */\n      and\n        /* \"#utility.yul\":4833:4871   */\n      swap1\n      pop\n        /* \"#utility.yul\":4775:4877   */\n      swap2\n      swap1\n      pop\n      jump\t// out\n        /* \"#utility.yul\":4883:5005   */\n    tag_50:\n        /* \"#utility.yul\":4956:4980   */\n      tag_106\n        /* \"#utility.yul\":4974:4979   */\n      dup2\n        /* \"#utility.yul\":4956:4980   */\n      tag_77\n      jump\t// in\n    tag_106:\n        /* \"#utility.yul\":4949:4954   */\n      dup2\n        /* \"#utility.yul\":4946:4981   */\n      eq\n        /* \"#utility.yul\":4936:4999   */\n      tag_107\n      jumpi\n        /* \"#utility.yul\":4995:4996   */\n      0x00\n        /* \"#utility.yul\":4992:4993   */\n      dup1\n        /* \"#utility.yul\":4985:4997   */\n      revert\n        /* \"#utility.yul\":4936:4999   */\n    tag_107:\n        /* \"#utility.yul\":4883:5005   */\n      pop\n      jump\t// out\n\n    auxdata: 0xa2646970667358221220fd022688bde7d5515d937748b4ea06e30735cafe5f5bc01576248b867f633d9d64736f6c63430008070033\n}\n",
				"bytecode": {
					"linkReferences": {},
					"object": "608060405234801561001057600080fd5b50610468806100206000396000f3fe608060405234801561001057600080fd5b506004361061004c5760003560e01c806306ead22e146100515780630e5eeef7146100825780632e64cec11461009e5780636057361d146100bc575b600080fd5b61006b60048036038101906100669190610277565b6100d8565b604051610079929190610307565b60405180910390f35b61009c60048036038101906100979190610217565b610194565b005b6100a6610199565b6040516100b391906102ec565b60405180910390f35b6100d660048036038101906100d19190610277565b6101a2565b005b600181815481106100e857600080fd5b906000526020600020906002020160009150905080600001549080600101805461011190610390565b80601f016020809104026020016040519081016040528092919081815260200182805461013d90610390565b801561018a5780601f1061015f5761010080835404028352916020019161018a565b820191906000526020600020905b81548152906001019060200180831161016d57829003601f168201915b5050505050905082565b505050565b60008054905090565b8060008190555050565b60008083601f8401126101c2576101c16103f6565b5b8235905067ffffffffffffffff8111156101df576101de6103f1565b5b6020830191508360018202830111156101fb576101fa6103fb565b5b9250929050565b6000813590506102118161041b565b92915050565b6000806000604084860312156102305761022f610405565b5b600084013567ffffffffffffffff81111561024e5761024d610400565b5b61025a868287016101ac565b9350935050602061026d86828701610202565b9150509250925092565b60006020828403121561028d5761028c610405565b5b600061029b84828501610202565b91505092915050565b60006102af82610337565b6102b98185610342565b93506102c981856020860161035d565b6102d28161040a565b840191505092915050565b6102e681610353565b82525050565b600060208201905061030160008301846102dd565b92915050565b600060408201905061031c60008301856102dd565b818103602083015261032e81846102a4565b90509392505050565b600081519050919050565b600082825260208201905092915050565b6000819050919050565b60005b8381101561037b578082015181840152602081019050610360565b8381111561038a576000848401525b50505050565b600060028204905060018216806103a857607f821691505b602082108114156103bc576103bb6103c2565b5b50919050565b7f4e487b7100000000000000000000000000000000000000000000000000000000600052602260045260246000fd5b600080fd5b600080fd5b600080fd5b600080fd5b600080fd5b6000601f19601f8301169050919050565b61042481610353565b811461042f57600080fd5b5056fea2646970667358221220fd022688bde7d5515d937748b4ea06e30735cafe5f5bc01576248b867f633d9d64736f6c63430008070033",
					"opcodes": "PUSH1 0x80 PUSH1 0x40 MSTORE CALLVALUE DUP1 ISZERO PUSH2 0x10 JUMPI PUSH1 0x0 DUP1 REVERT JUMPDEST POP PUSH2 0x468 DUP1 PUSH2 0x20 PUSH1 0x0 CODECOPY PUSH1 0x0 RETURN INVALID PUSH1 0x80 PUSH1 0x40 MSTORE CALLVALUE DUP1 ISZERO PUSH2 0x10 JUMPI PUSH1 0x0 DUP1 REVERT JUMPDEST POP PUSH1 0x4 CALLDATASIZE LT PUSH2 0x4C JUMPI PUSH1 0x0 CALLDATALOAD PUSH1 0xE0 SHR DUP1 PUSH4 0x6EAD22E EQ PUSH2 0x51 JUMPI DUP1 PUSH4 0xE5EEEF7 EQ PUSH2 0x82 JUMPI DUP1 PUSH4 0x2E64CEC1 EQ PUSH2 0x9E JUMPI DUP1 PUSH4 0x6057361D EQ PUSH2 0xBC JUMPI JUMPDEST PUSH1 0x0 DUP1 REVERT JUMPDEST PUSH2 0x6B PUSH1 0x4 DUP1 CALLDATASIZE SUB DUP2 ADD SWAP1 PUSH2 0x66 SWAP2 SWAP1 PUSH2 0x277 JUMP JUMPDEST PUSH2 0xD8 JUMP JUMPDEST PUSH1 0x40 MLOAD PUSH2 0x79 SWAP3 SWAP2 SWAP1 PUSH2 0x307 JUMP JUMPDEST PUSH1 0x40 MLOAD DUP1 SWAP2 SUB SWAP1 RETURN JUMPDEST PUSH2 0x9C PUSH1 0x4 DUP1 CALLDATASIZE SUB DUP2 ADD SWAP1 PUSH2 0x97 SWAP2 SWAP1 PUSH2 0x217 JUMP JUMPDEST PUSH2 0x194 JUMP JUMPDEST STOP JUMPDEST PUSH2 0xA6 PUSH2 0x199 JUMP JUMPDEST PUSH1 0x40 MLOAD PUSH2 0xB3 SWAP2 SWAP1 PUSH2 0x2EC JUMP JUMPDEST PUSH1 0x40 MLOAD DUP1 SWAP2 SUB SWAP1 RETURN JUMPDEST PUSH2 0xD6 PUSH1 0x4 DUP1 CALLDATASIZE SUB DUP2 ADD SWAP1 PUSH2 0xD1 SWAP2 SWAP1 PUSH2 0x277 JUMP JUMPDEST PUSH2 0x1A2 JUMP JUMPDEST STOP JUMPDEST PUSH1 0x1 DUP2 DUP2 SLOAD DUP2 LT PUSH2 0xE8 JUMPI PUSH1 0x0 DUP1 REVERT JUMPDEST SWAP1 PUSH1 0x0 MSTORE PUSH1 0x20 PUSH1 0x0 KECCAK256 SWAP1 PUSH1 0x2 MUL ADD PUSH1 0x0 SWAP2 POP SWAP1 POP DUP1 PUSH1 0x0 ADD SLOAD SWAP1 DUP1 PUSH1 0x1 ADD DUP1 SLOAD PUSH2 0x111 SWAP1 PUSH2 0x390 JUMP JUMPDEST DUP1 PUSH1 0x1F ADD PUSH1 0x20 DUP1 SWAP2 DIV MUL PUSH1 0x20 ADD PUSH1 0x40 MLOAD SWAP1 DUP2 ADD PUSH1 0x40 MSTORE DUP1 SWAP3 SWAP2 SWAP1 DUP2 DUP2 MSTORE PUSH1 0x20 ADD DUP3 DUP1 SLOAD PUSH2 0x13D SWAP1 PUSH2 0x390 JUMP JUMPDEST DUP1 ISZERO PUSH2 0x18A JUMPI DUP1 PUSH1 0x1F LT PUSH2 0x15F JUMPI PUSH2 0x100 DUP1 DUP4 SLOAD DIV MUL DUP4 MSTORE SWAP2 PUSH1 0x20 ADD SWAP2 PUSH2 0x18A JUMP JUMPDEST DUP3 ADD SWAP2 SWAP1 PUSH1 0x0 MSTORE PUSH1 0x20 PUSH1 0x0 KECCAK256 SWAP1 JUMPDEST DUP2 SLOAD DUP2 MSTORE SWAP1 PUSH1 0x1 ADD SWAP1 PUSH1 0x20 ADD DUP1 DUP4 GT PUSH2 0x16D JUMPI DUP3 SWAP1 SUB PUSH1 0x1F AND DUP3 ADD SWAP2 JUMPDEST POP POP POP POP POP SWAP1 POP DUP3 JUMP JUMPDEST POP POP POP JUMP JUMPDEST PUSH1 0x0 DUP1 SLOAD SWAP1 POP SWAP1 JUMP JUMPDEST DUP1 PUSH1 0x0 DUP2 SWAP1 SSTORE POP POP JUMP JUMPDEST PUSH1 0x0 DUP1 DUP4 PUSH1 0x1F DUP5 ADD SLT PUSH2 0x1C2 JUMPI PUSH2 0x1C1 PUSH2 0x3F6 JUMP JUMPDEST JUMPDEST DUP3 CALLDATALOAD SWAP1 POP PUSH8 0xFFFFFFFFFFFFFFFF DUP2 GT ISZERO PUSH2 0x1DF JUMPI PUSH2 0x1DE PUSH2 0x3F1 JUMP JUMPDEST JUMPDEST PUSH1 0x20 DUP4 ADD SWAP2 POP DUP4 PUSH1 0x1 DUP3 MUL DUP4 ADD GT ISZERO PUSH2 0x1FB JUMPI PUSH2 0x1FA PUSH2 0x3FB JUMP JUMPDEST JUMPDEST SWAP3 POP SWAP3 SWAP1 POP JUMP JUMPDEST PUSH1 0x0 DUP2 CALLDATALOAD SWAP1 POP PUSH2 0x211 DUP2 PUSH2 0x41B JUMP JUMPDEST SWAP3 SWAP2 POP POP JUMP JUMPDEST PUSH1 0x0 DUP1 PUSH1 0x0 PUSH1 0x40 DUP5 DUP7 SUB SLT ISZERO PUSH2 0x230 JUMPI PUSH2 0x22F PUSH2 0x405 JUMP JUMPDEST JUMPDEST PUSH1 0x0 DUP5 ADD CALLDATALOAD PUSH8 0xFFFFFFFFFFFFFFFF DUP2 GT ISZERO PUSH2 0x24E JUMPI PUSH2 0x24D PUSH2 0x400 JUMP JUMPDEST JUMPDEST PUSH2 0x25A DUP7 DUP3 DUP8 ADD PUSH2 0x1AC JUMP JUMPDEST SWAP4 POP SWAP4 POP POP PUSH1 0x20 PUSH2 0x26D DUP7 DUP3 DUP8 ADD PUSH2 0x202 JUMP JUMPDEST SWAP2 POP POP SWAP3 POP SWAP3 POP SWAP3 JUMP JUMPDEST PUSH1 0x0 PUSH1 0x20 DUP3 DUP5 SUB SLT ISZERO PUSH2 0x28D JUMPI PUSH2 0x28C PUSH2 0x405 JUMP JUMPDEST JUMPDEST PUSH1 0x0 PUSH2 0x29B DUP5 DUP3 DUP6 ADD PUSH2 0x202 JUMP JUMPDEST SWAP2 POP POP SWAP3 SWAP2 POP POP JUMP JUMPDEST PUSH1 0x0 PUSH2 0x2AF DUP3 PUSH2 0x337 JUMP JUMPDEST PUSH2 0x2B9 DUP2 DUP6 PUSH2 0x342 JUMP JUMPDEST SWAP4 POP PUSH2 0x2C9 DUP2 DUP6 PUSH1 0x20 DUP7 ADD PUSH2 0x35D JUMP JUMPDEST PUSH2 0x2D2 DUP2 PUSH2 0x40A JUMP JUMPDEST DUP5 ADD SWAP2 POP POP SWAP3 SWAP2 POP POP JUMP JUMPDEST PUSH2 0x2E6 DUP2 PUSH2 0x353 JUMP JUMPDEST DUP3 MSTORE POP POP JUMP JUMPDEST PUSH1 0x0 PUSH1 0x20 DUP3 ADD SWAP1 POP PUSH2 0x301 PUSH1 0x0 DUP4 ADD DUP5 PUSH2 0x2DD JUMP JUMPDEST SWAP3 SWAP2 POP POP JUMP JUMPDEST PUSH1 0x0 PUSH1 0x40 DUP3 ADD SWAP1 POP PUSH2 0x31C PUSH1 0x0 DUP4 ADD DUP6 PUSH2 0x2DD JUMP JUMPDEST DUP2 DUP2 SUB PUSH1 0x20 DUP4 ADD MSTORE PUSH2 0x32E DUP2 DUP5 PUSH2 0x2A4 JUMP JUMPDEST SWAP1 POP SWAP4 SWAP3 POP POP POP JUMP JUMPDEST PUSH1 0x0 DUP2 MLOAD SWAP1 POP SWAP2 SWAP1 POP JUMP JUMPDEST PUSH1 0x0 DUP3 DUP3 MSTORE PUSH1 0x20 DUP3 ADD SWAP1 POP SWAP3 SWAP2 POP POP JUMP JUMPDEST PUSH1 0x0 DUP2 SWAP1 POP SWAP2 SWAP1 POP JUMP JUMPDEST PUSH1 0x0 JUMPDEST DUP4 DUP2 LT ISZERO PUSH2 0x37B JUMPI DUP1 DUP3 ADD MLOAD DUP2 DUP5 ADD MSTORE PUSH1 0x20 DUP2 ADD SWAP1 POP PUSH2 0x360 JUMP JUMPDEST DUP4 DUP2 GT ISZERO PUSH2 0x38A JUMPI PUSH1 0x0 DUP5 DUP5 ADD MSTORE JUMPDEST POP POP POP POP JUMP JUMPDEST PUSH1 0x0 PUSH1 0x2 DUP3 DIV SWAP1 POP PUSH1 0x1 DUP3 AND DUP1 PUSH2 0x3A8 JUMPI PUSH1 0x7F DUP3 AND SWAP2 POP JUMPDEST PUSH1 0x20 DUP3 LT DUP2 EQ ISZERO PUSH2 0x3BC JUMPI PUSH2 0x3BB PUSH2 0x3C2 JUMP JUMPDEST JUMPDEST POP SWAP2 SWAP1 POP JUMP JUMPDEST PUSH32 0x4E487B7100000000000000000000000000000000000000000000000000000000 PUSH1 0x0 MSTORE PUSH1 0x22 PUSH1 0x4 MSTORE PUSH1 0x24 PUSH1 0x0 REVERT JUMPDEST PUSH1 0x0 DUP1 REVERT JUMPDEST PUSH1 0x0 DUP1 REVERT JUMPDEST PUSH1 0x0 DUP1 REVERT JUMPDEST PUSH1 0x0 DUP1 REVERT JUMPDEST PUSH1 0x0 DUP1 REVERT JUMPDEST PUSH1 0x0 PUSH1 0x1F NOT PUSH1 0x1F DUP4 ADD AND SWAP1 POP SWAP2 SWAP1 POP JUMP JUMPDEST PUSH2 0x424 DUP2 PUSH2 0x353 JUMP JUMPDEST DUP2 EQ PUSH2 0x42F JUMPI PUSH1 0x0 DUP1 REVERT JUMPDEST POP JUMP INVALID LOG2 PUSH5 0x6970667358 0x22 SLT KECCAK256 REVERT MUL 0x26 DUP9 0xBD 0xE7 0xD5 MLOAD 0x5D SWAP4 PUSH24 0x48B4EA06E30735CAFE5F5BC01576248B867F633D9D64736F PUSH13 0x63430008070033000000000000 "
				},
				"gasEstimates": {
					"creation": {
						"codeDepositCost": "225600",
						"executionCost": "269",
						"totalCost": "225869"
					},
					"external": {
						"addStudent(string,uint256)": "644",
						"retrieve()": "2459",
						"store(uint256)": "22564",
						"students(uint256)": "infinite"
					}
				},
				"methodIdentifiers": {
					"addStudent(string,uint256)": "0e5eeef7",
					"retrieve()": "2e64cec1",
					"store(uint256)": "6057361d",
					"students(uint256)": "06ead22e"
				}
			},
			"storageLayout": {
				"storage": [
					{
						"astId": 3,
						"contract": "Contracts/SimpleStorage.sol:SimpleStorage",
						"label": "favouriteNumber",
						"offset": 0,
						"slot": "0",
						"type": "t_uint256"
					},
					{
						"astId": 12,
						"contract": "Contracts/SimpleStorage.sol:SimpleStorage",
						"label": "students",
						"offset": 0,
						"slot": "1",
						"type": "t_array(t_struct(Student)8_storage)dyn_storage"
					}
				],
				"types": {
					"t_array(t_struct(Student)8_storage)dyn_storage": {
						"base": "t_struct(Student)8_storage",
						"encoding": "dynamic_array",
						"label": "struct SimpleStorage.Student[]",
						"numberOfBytes": "32"
					},
					"t_string_storage": {
						"encoding": "bytes",
						"label": "string",
						"numberOfBytes": "32"
					},
					"t_struct(Student)8_storage": {
						"encoding": "inplace",
						"label": "struct SimpleStorage.Student",
						"members": [
							{
								"astId": 5,
								"contract": "Contracts/SimpleStorage.sol:SimpleStorage",
								"label": "rollNo",
								"offset": 0,
								"slot": "0",
								"type": "t_uint256"
							},
							{
								"astId": 7,
								"contract": "Contracts/SimpleStorage.sol:SimpleStorage",
								"label": "name",
								"offset": 0,
								"slot": "1",
								"type": "t_string_storage"
							}
						],
						"numberOfBytes": "64"
					},
					"t_uint256": {
						"encoding": "inplace",
						"label": "uint256",
						"numberOfBytes": "32"
					}
				}
			},
			"userdoc": {
				"kind": "user",
				"methods": {},
				"version": 1
			}
		}
	}
}