{
	"Contracts/StorageFactory.sol": {
		"StorageFactory": {
			"abi": [
				{
					"inputs": [],
					"name": "createSimpleStorage",
					"outputs": [],
					"stateMutability": "nonpayable",
					"type": "function"
				},
				{
					"inputs": [
						{
							"internalType": "uint256",
							"name": "_rollNo",
							"type": "uint256"
						},
						{
							"internalType": "string",
							"name": "_name",
							"type": "string"
						}
					],
					"name": "sfAddStudent",
					"outputs": [],
					"stateMutability": "nonpayable",
					"type": "function"
				},
				{
					"inputs": [
						{
							"internalType": "uint256",
							"name": "_index",
							"type": "uint256"
						}
					],
					"name": "sfGetFavouriteNo",
					"outputs": [
						{
							"internalType": "uint256",
							"name": "",
							"type": "uint256"
						}
					],
					"stateMutability": "view",
					"type": "function"
				},
				{
					"inputs": [
						{
							"internalType": "uint256",
							"name": "_index",
							"type": "uint256"
						},
						{
							"internalType": "uint256",
							"name": "_rollNo",
							"type": "uint256"
						}
					],
					"name": "sfGetStudent",
					"outputs": [
						{
							"internalType": "string",
							"name": "",
							"type": "string"
						},
						{
							"internalType": "uint256",
							"name": "",
							"type": "uint256"
						}
					],
					"stateMutability": "view",
					"type": "function"
				},
				{
					"inputs": [
						{
							"internalType": "uint256",
							"name": "_favouriteNumber",
							"type": "uint256"
						}
					],
					"name": "sfStore",
					"outputs": [],
					"stateMutability": "nonpayable",
					"type": "function"
				},
				{
					"inputs": [
						{
							"internalType": "uint256",
							"name": "",
							"type": "uint256"
						}
					],
					"name": "simpleStorageArray",
					"outputs": [
						{
							"internalType": "contract SimpleStorage",
							"name": "",
							"type": "address"
						}
					],
					"stateMutability": "view",
					"type": "function"
				}
			],
			"devdoc": {
				"kind": "dev",
				"methods": {},
				"version": 1
			},
			"evm": {
				"assembly": "    /* \"Contracts/StorageFactory.sol\":99:924  contract StorageFactory{\r... */\n  mstore(0x40, 0x80)\n  callvalue\n  dup1\n  iszero\n  tag_1\n  jumpi\n  0x00\n  dup1\n  revert\ntag_1:\n  pop\n  dataSize(sub_0)\n  dup1\n  dataOffset(sub_0)\n  0x00\n  codecopy\n  0x00\n  return\nstop\n\nsub_0: assembly {\n        /* \"Contracts/StorageFactory.sol\":99:924  contract StorageFactory{\r... */\n      mstore(0x40, 0x80)\n      callvalue\n      dup1\n      iszero\n      tag_1\n      jumpi\n      0x00\n      dup1\n      revert\n    tag_1:\n      pop\n      jumpi(tag_2, lt(calldatasize, 0x04))\n      shr(0xe0, calldataload(0x00))\n      dup1\n      0x40d66b3b\n      eq\n      tag_3\n      jumpi\n      dup1\n      0x4bffb6be\n      eq\n      tag_4\n      jumpi\n      dup1\n      0x64591bf1\n      eq\n      tag_5\n      jumpi\n      dup1\n      0x7574ede8\n      eq\n      tag_6\n      jumpi\n      dup1\n      0x83eab6a2\n      eq\n      tag_7\n      jumpi\n      dup1\n      0xdeae2adc\n      eq\n      tag_8\n      jumpi\n    tag_2:\n      0x00\n      dup1\n      revert\n        /* \"Contracts/StorageFactory.sol\":213:354  function createSimpleStorage() public {\r... */\n    tag_3:\n      tag_9\n      tag_10\n      jump\t// in\n    tag_9:\n      stop\n        /* \"Contracts/StorageFactory.sol\":787:921  function sfGetFavouriteNo(uint256 _index) public view returns(uint256) {\r... */\n    tag_4:\n      tag_11\n      0x04\n      dup1\n      calldatasize\n      sub\n      dup2\n      add\n      swap1\n      tag_12\n      swap2\n      swap1\n      tag_13\n      jump\t// in\n    tag_12:\n      tag_14\n      jump\t// in\n    tag_11:\n      mload(0x40)\n      tag_15\n      swap2\n      swap1\n      tag_16\n      jump\t// in\n    tag_15:\n      mload(0x40)\n      dup1\n      swap2\n      sub\n      swap1\n      return\n        /* \"Contracts/StorageFactory.sol\":163:204  SimpleStorage[] public simpleStorageArray */\n    tag_5:\n      tag_17\n      0x04\n      dup1\n      calldatasize\n      sub\n      dup2\n      add\n      swap1\n      tag_18\n      swap2\n      swap1\n      tag_13\n      jump\t// in\n    tag_18:\n      tag_19\n      jump\t// in\n    tag_17:\n      mload(0x40)\n      tag_20\n      swap2\n      swap1\n      tag_21\n      jump\t// in\n    tag_20:\n      mload(0x40)\n      dup1\n      swap2\n      sub\n      swap1\n      return\n        /* \"Contracts/StorageFactory.sol\":362:487  function sfAddStudent(uint256 _rollNo, string memory _name) public{\r... */\n    tag_6:\n      tag_22\n      0x04\n      dup1\n      calldatasize\n      sub\n      dup2\n      add\n      swap1\n      tag_23\n      swap2\n      swap1\n      tag_24\n      jump\t// in\n    tag_23:\n      tag_25\n      jump\t// in\n    tag_22:\n      stop\n        /* \"Contracts/StorageFactory.sol\":673:779  function sfStore(uint256 _favouriteNumber) public {\r... */\n    tag_7:\n      tag_26\n      0x04\n      dup1\n      calldatasize\n      sub\n      dup2\n      add\n      swap1\n      tag_27\n      swap2\n      swap1\n      tag_13\n      jump\t// in\n    tag_27:\n      tag_28\n      jump\t// in\n    tag_26:\n      stop\n        /* \"Contracts/StorageFactory.sol\":493:665  function sfGetStudent(uint256 _index, uint256 _rollNo) public view returns(string memory, uint256){\r... */\n    tag_8:\n      tag_29\n      0x04\n      dup1\n      calldatasize\n      sub\n      dup2\n      add\n      swap1\n      tag_30\n      swap2\n      swap1\n      tag_31\n      jump\t// in\n    tag_30:\n      tag_32\n      jump\t// in\n    tag_29:\n      mload(0x40)\n      tag_33\n      swap3\n      swap2\n      swap1\n      tag_34\n      jump\t// in\n    tag_33:\n      mload(0x40)\n      dup1\n      swap2\n      sub\n      swap1\n      return\n        /* \"Contracts/StorageFactory.sol\":213:354  function createSimpleStorage() public {\r... */\n    tag_10:\n        /* \"Contracts/StorageFactory.sol\":278:297  new SimpleStorage() */\n      mload(0x40)\n      tag_36\n      swap1\n      tag_37\n      jump\t// in\n    tag_36:\n      mload(0x40)\n      dup1\n      swap2\n      sub\n      swap1\n      0x00\n      create\n      dup1\n      iszero\n      dup1\n      iszero\n      tag_38\n      jumpi\n      returndatasize\n      0x00\n      dup1\n      returndatacopy\n      revert(0x00, returndatasize)\n    tag_38:\n      pop\n        /* \"Contracts/StorageFactory.sol\":262:275  simpleStorage */\n      0x00\n      dup1\n        /* \"Contracts/StorageFactory.sol\":262:297  simpleStorage = new SimpleStorage() */\n      0x0100\n      exp\n      dup2\n      sload\n      dup2\n      0xffffffffffffffffffffffffffffffffffffffff\n      mul\n      not\n      and\n      swap1\n      dup4\n      0xffffffffffffffffffffffffffffffffffffffff\n      and\n      mul\n      or\n      swap1\n      sstore\n      pop\n        /* \"Contracts/StorageFactory.sol\":308:326  simpleStorageArray */\n      0x01\n        /* \"Contracts/StorageFactory.sol\":332:345  simpleStorage */\n      0x00\n      dup1\n      sload\n      swap1\n      0x0100\n      exp\n      swap1\n      div\n      0xffffffffffffffffffffffffffffffffffffffff\n      and\n        /* \"Contracts/StorageFactory.sol\":308:346  simpleStorageArray.push(simpleStorage) */\n      swap1\n      dup1\n      0x01\n      dup2\n      sload\n      add\n      dup1\n      dup3\n      sstore\n      dup1\n      swap2\n      pop\n      pop\n      0x01\n      swap1\n      sub\n      swap1\n      0x00\n      mstore\n      keccak256(0x00, 0x20)\n      add\n      0x00\n      swap1\n      swap2\n      swap1\n      swap2\n      swap1\n      swap2\n      0x0100\n      exp\n      dup2\n      sload\n      dup2\n      0xffffffffffffffffffffffffffffffffffffffff\n      mul\n      not\n      and\n      swap1\n      dup4\n      0xffffffffffffffffffffffffffffffffffffffff\n      and\n      mul\n      or\n      swap1\n      sstore\n      pop\n        /* \"Contracts/StorageFactory.sol\":213:354  function createSimpleStorage() public {\r... */\n      jump\t// out\n        /* \"Contracts/StorageFactory.sol\":787:921  function sfGetFavouriteNo(uint256 _index) public view returns(uint256) {\r... */\n    tag_14:\n        /* \"Contracts/StorageFactory.sol\":849:856  uint256 */\n      0x00\n        /* \"Contracts/StorageFactory.sol\":876:894  simpleStorageArray */\n      0x01\n        /* \"Contracts/StorageFactory.sol\":895:901  _index */\n      dup3\n        /* \"Contracts/StorageFactory.sol\":876:902  simpleStorageArray[_index] */\n      dup2\n      sload\n      dup2\n      lt\n      tag_41\n      jumpi\n      tag_42\n      tag_43\n      jump\t// in\n    tag_42:\n    tag_41:\n      swap1\n      0x00\n      mstore\n      keccak256(0x00, 0x20)\n      add\n      0x00\n      swap1\n      sload\n      swap1\n      0x0100\n      exp\n      swap1\n      div\n      0xffffffffffffffffffffffffffffffffffffffff\n      and\n        /* \"Contracts/StorageFactory.sol\":876:911  simpleStorageArray[_index].retrieve */\n      0xffffffffffffffffffffffffffffffffffffffff\n      and\n      0x2e64cec1\n        /* \"Contracts/StorageFactory.sol\":876:913  simpleStorageArray[_index].retrieve() */\n      mload(0x40)\n      dup2\n      0xffffffff\n      and\n      0xe0\n      shl\n      dup2\n      mstore\n      0x04\n      add\n      0x20\n      mload(0x40)\n      dup1\n      dup4\n      sub\n      dup2\n      dup7\n      dup1\n      extcodesize\n      iszero\n      dup1\n      iszero\n      tag_45\n      jumpi\n      0x00\n      dup1\n      revert\n    tag_45:\n      pop\n      gas\n      staticcall\n      iszero\n      dup1\n      iszero\n      tag_47\n      jumpi\n      returndatasize\n      0x00\n      dup1\n      returndatacopy\n      revert(0x00, returndatasize)\n    tag_47:\n      pop\n      pop\n      pop\n      pop\n      mload(0x40)\n      returndatasize\n      not(0x1f)\n      0x1f\n      dup3\n      add\n      and\n      dup3\n      add\n      dup1\n      0x40\n      mstore\n      pop\n      dup2\n      add\n      swap1\n      tag_48\n      swap2\n      swap1\n      tag_49\n      jump\t// in\n    tag_48:\n        /* \"Contracts/StorageFactory.sol\":869:913  return simpleStorageArray[_index].retrieve() */\n      swap1\n      pop\n        /* \"Contracts/StorageFactory.sol\":787:921  function sfGetFavouriteNo(uint256 _index) public view returns(uint256) {\r... */\n      swap2\n      swap1\n      pop\n      jump\t// out\n        /* \"Contracts/StorageFactory.sol\":163:204  SimpleStorage[] public simpleStorageArray */\n    tag_19:\n      0x01\n      dup2\n      dup2\n      sload\n      dup2\n      lt\n      tag_50\n      jumpi\n      0x00\n      dup1\n      revert\n    tag_50:\n      swap1\n      0x00\n      mstore\n      keccak256(0x00, 0x20)\n      add\n      0x00\n      swap2\n      pop\n      sload\n      swap1\n      0x0100\n      exp\n      swap1\n      div\n      0xffffffffffffffffffffffffffffffffffffffff\n      and\n      dup2\n      jump\t// out\n        /* \"Contracts/StorageFactory.sol\":362:487  function sfAddStudent(uint256 _rollNo, string memory _name) public{\r... */\n    tag_25:\n        /* \"Contracts/StorageFactory.sol\":439:452  simpleStorage */\n      0x00\n      dup1\n      sload\n      swap1\n      0x0100\n      exp\n      swap1\n      div\n      0xffffffffffffffffffffffffffffffffffffffff\n      and\n        /* \"Contracts/StorageFactory.sol\":439:463  simpleStorage.addStudent */\n      0xffffffffffffffffffffffffffffffffffffffff\n      and\n      0x0e5eeef7\n        /* \"Contracts/StorageFactory.sol\":464:469  _name */\n      dup3\n        /* \"Contracts/StorageFactory.sol\":471:478  _rollNo */\n      dup5\n        /* \"Contracts/StorageFactory.sol\":439:479  simpleStorage.addStudent(_name, _rollNo) */\n      mload(0x40)\n      dup4\n      0xffffffff\n      and\n      0xe0\n      shl\n      dup2\n      mstore\n      0x04\n      add\n      tag_53\n      swap3\n      swap2\n      swap1\n      tag_34\n      jump\t// in\n    tag_53:\n      0x00\n      mload(0x40)\n      dup1\n      dup4\n      sub\n      dup2\n      0x00\n      dup8\n      dup1\n      extcodesize\n      iszero\n      dup1\n      iszero\n      tag_54\n      jumpi\n      0x00\n      dup1\n      revert\n    tag_54:\n      pop\n      gas\n      call\n      iszero\n      dup1\n      iszero\n      tag_56\n      jumpi\n      returndatasize\n      0x00\n      dup1\n      returndatacopy\n      revert(0x00, returndatasize)\n    tag_56:\n      pop\n      pop\n      pop\n      pop\n        /* \"Contracts/StorageFactory.sol\":362:487  function sfAddStudent(uint256 _rollNo, string memory _name) public{\r... */\n      pop\n      pop\n      jump\t// out\n        /* \"Contracts/StorageFactory.sol\":673:779  function sfStore(uint256 _favouriteNumber) public {\r... */\n    tag_28:\n        /* \"Contracts/StorageFactory.sol\":734:747  simpleStorage */\n      0x00\n      dup1\n      sload\n      swap1\n      0x0100\n      exp\n      swap1\n      div\n      0xffffffffffffffffffffffffffffffffffffffff\n      and\n        /* \"Contracts/StorageFactory.sol\":734:753  simpleStorage.store */\n      0xffffffffffffffffffffffffffffffffffffffff\n      and\n      0x6057361d\n        /* \"Contracts/StorageFactory.sol\":754:770  _favouriteNumber */\n      dup3\n        /* \"Contracts/StorageFactory.sol\":734:771  simpleStorage.store(_favouriteNumber) */\n      mload(0x40)\n      dup3\n      0xffffffff\n      and\n      0xe0\n      shl\n      dup2\n      mstore\n      0x04\n      add\n      tag_58\n      swap2\n      swap1\n      tag_16\n      jump\t// in\n    tag_58:\n      0x00\n      mload(0x40)\n      dup1\n      dup4\n      sub\n      dup2\n      0x00\n      dup8\n      dup1\n      extcodesize\n      iszero\n      dup1\n      iszero\n      tag_59\n      jumpi\n      0x00\n      dup1\n      revert\n    tag_59:\n      pop\n      gas\n      call\n      iszero\n      dup1\n      iszero\n      tag_61\n      jumpi\n      returndatasize\n      0x00\n      dup1\n      returndatacopy\n      revert(0x00, returndatasize)\n    tag_61:\n      pop\n      pop\n      pop\n      pop\n        /* \"Contracts/StorageFactory.sol\":673:779  function sfStore(uint256 _favouriteNumber) public {\r... */\n      pop\n      jump\t// out\n        /* \"Contracts/StorageFactory.sol\":493:665  function sfGetStudent(uint256 _index, uint256 _rollNo) public view returns(string memory, uint256){\r... */\n    tag_32:\n        /* \"Contracts/StorageFactory.sol\":568:581  string memory */\n      0x60\n        /* \"Contracts/StorageFactory.sol\":583:590  uint256 */\n      0x00\n        /* \"Contracts/StorageFactory.sol\":610:628  simpleStorageArray */\n      0x01\n        /* \"Contracts/StorageFactory.sol\":629:635  _index */\n      dup5\n        /* \"Contracts/StorageFactory.sol\":610:636  simpleStorageArray[_index] */\n      dup2\n      sload\n      dup2\n      lt\n      tag_63\n      jumpi\n      tag_64\n      tag_43\n      jump\t// in\n    tag_64:\n    tag_63:\n      swap1\n      0x00\n      mstore\n      keccak256(0x00, 0x20)\n      add\n      0x00\n      swap1\n      sload\n      swap1\n      0x0100\n      exp\n      swap1\n      div\n      0xffffffffffffffffffffffffffffffffffffffff\n      and\n        /* \"Contracts/StorageFactory.sol\":610:647  simpleStorageArray[_index].getStudent */\n      0xffffffffffffffffffffffffffffffffffffffff\n      and\n      0x642f9163\n        /* \"Contracts/StorageFactory.sol\":648:655  _rollNo */\n      dup5\n        /* \"Contracts/StorageFactory.sol\":610:656  simpleStorageArray[_index].getStudent(_rollNo) */\n      mload(0x40)\n      dup3\n      0xffffffff\n      and\n      0xe0\n      shl\n      dup2\n      mstore\n      0x04\n      add\n      tag_66\n      swap2\n      swap1\n      tag_16\n      jump\t// in\n    tag_66:\n      0x00\n      mload(0x40)\n      dup1\n      dup4\n      sub\n      dup2\n      dup7\n      dup1\n      extcodesize\n      iszero\n      dup1\n      iszero\n      tag_67\n      jumpi\n      0x00\n      dup1\n      revert\n    tag_67:\n      pop\n      gas\n      staticcall\n      iszero\n      dup1\n      iszero\n      tag_69\n      jumpi\n      returndatasize\n      0x00\n      dup1\n      returndatacopy\n      revert(0x00, returndatasize)\n    tag_69:\n      pop\n      pop\n      pop\n      pop\n      mload(0x40)\n      returndatasize\n      0x00\n      dup3\n      returndatacopy\n      returndatasize\n      not(0x1f)\n      0x1f\n      dup3\n      add\n      and\n      dup3\n      add\n      dup1\n      0x40\n      mstore\n      pop\n      dup2\n      add\n      swap1\n      tag_70\n      swap2\n      swap1\n      tag_71\n      jump\t// in\n    tag_70:\n        /* \"Contracts/StorageFactory.sol\":602:657  return (simpleStorageArray[_index].getStudent(_rollNo)) */\n      swap2\n      pop\n      swap2\n      pop\n        /* \"Contracts/StorageFactory.sol\":493:665  function sfGetStudent(uint256 _index, uint256 _rollNo) public view returns(string memory, uint256){\r... */\n      swap3\n      pop\n      swap3\n      swap1\n      pop\n      jump\t// out\n    tag_37:\n      dataSize(sub_0)\n      dup1\n      dataOffset(sub_0)\n      dup4\n      codecopy\n      add\n      swap1\n      jump\t// out\n        /* \"#utility.yul\":7:419   */\n    tag_73:\n        /* \"#utility.yul\":85:90   */\n      0x00\n        /* \"#utility.yul\":110:176   */\n      tag_75\n        /* \"#utility.yul\":126:175   */\n      tag_76\n        /* \"#utility.yul\":168:174   */\n      dup5\n        /* \"#utility.yul\":126:175   */\n      tag_77\n      jump\t// in\n    tag_76:\n        /* \"#utility.yul\":110:176   */\n      tag_78\n      jump\t// in\n    tag_75:\n        /* \"#utility.yul\":101:176   */\n      swap1\n      pop\n        /* \"#utility.yul\":199:205   */\n      dup3\n        /* \"#utility.yul\":192:197   */\n      dup2\n        /* \"#utility.yul\":185:206   */\n      mstore\n        /* \"#utility.yul\":237:241   */\n      0x20\n        /* \"#utility.yul\":230:235   */\n      dup2\n        /* \"#utility.yul\":226:242   */\n      add\n        /* \"#utility.yul\":275:278   */\n      dup5\n        /* \"#utility.yul\":266:272   */\n      dup5\n        /* \"#utility.yul\":261:264   */\n      dup5\n        /* \"#utility.yul\":257:273   */\n      add\n        /* \"#utility.yul\":254:279   */\n      gt\n        /* \"#utility.yul\":251:363   */\n      iszero\n      tag_79\n      jumpi\n        /* \"#utility.yul\":282:361   */\n      tag_80\n      tag_81\n      jump\t// in\n    tag_80:\n        /* \"#utility.yul\":251:363   */\n    tag_79:\n        /* \"#utility.yul\":372:413   */\n      tag_82\n        /* \"#utility.yul\":406:412   */\n      dup5\n        /* \"#utility.yul\":401:404   */\n      dup3\n        /* \"#utility.yul\":396:399   */\n      dup6\n        /* \"#utility.yul\":372:413   */\n      tag_83\n      jump\t// in\n    tag_82:\n        /* \"#utility.yul\":91:419   */\n      pop\n        /* \"#utility.yul\":7:419   */\n      swap4\n      swap3\n      pop\n      pop\n      pop\n      jump\t// out\n        /* \"#utility.yul\":425:846   */\n    tag_84:\n        /* \"#utility.yul\":514:519   */\n      0x00\n        /* \"#utility.yul\":539:605   */\n      tag_86\n        /* \"#utility.yul\":555:604   */\n      tag_87\n        /* \"#utility.yul\":597:603   */\n      dup5\n        /* \"#utility.yul\":555:604   */\n      tag_77\n      jump\t// in\n    tag_87:\n        /* \"#utility.yul\":539:605   */\n      tag_78\n      jump\t// in\n    tag_86:\n        /* \"#utility.yul\":530:605   */\n      swap1\n      pop\n        /* \"#utility.yul\":628:634   */\n      dup3\n        /* \"#utility.yul\":621:626   */\n      dup2\n        /* \"#utility.yul\":614:635   */\n      mstore\n        /* \"#utility.yul\":666:670   */\n      0x20\n        /* \"#utility.yul\":659:664   */\n      dup2\n        /* \"#utility.yul\":655:671   */\n      add\n        /* \"#utility.yul\":704:707   */\n      dup5\n        /* \"#utility.yul\":695:701   */\n      dup5\n        /* \"#utility.yul\":690:693   */\n      dup5\n        /* \"#utility.yul\":686:702   */\n      add\n        /* \"#utility.yul\":683:708   */\n      gt\n        /* \"#utility.yul\":680:792   */\n      iszero\n      tag_88\n      jumpi\n        /* \"#utility.yul\":711:790   */\n      tag_89\n      tag_81\n      jump\t// in\n    tag_89:\n        /* \"#utility.yul\":680:792   */\n    tag_88:\n        /* \"#utility.yul\":801:840   */\n      tag_90\n        /* \"#utility.yul\":833:839   */\n      dup5\n        /* \"#utility.yul\":828:831   */\n      dup3\n        /* \"#utility.yul\":823:826   */\n      dup6\n        /* \"#utility.yul\":801:840   */\n      tag_91\n      jump\t// in\n    tag_90:\n        /* \"#utility.yul\":520:846   */\n      pop\n        /* \"#utility.yul\":425:846   */\n      swap4\n      swap3\n      pop\n      pop\n      pop\n      jump\t// out\n        /* \"#utility.yul\":866:1206   */\n    tag_92:\n        /* \"#utility.yul\":922:927   */\n      0x00\n        /* \"#utility.yul\":971:974   */\n      dup3\n        /* \"#utility.yul\":964:968   */\n      0x1f\n        /* \"#utility.yul\":956:962   */\n      dup4\n        /* \"#utility.yul\":952:969   */\n      add\n        /* \"#utility.yul\":948:975   */\n      slt\n        /* \"#utility.yul\":938:1060   */\n      tag_94\n      jumpi\n        /* \"#utility.yul\":979:1058   */\n      tag_95\n      tag_96\n      jump\t// in\n    tag_95:\n        /* \"#utility.yul\":938:1060   */\n    tag_94:\n        /* \"#utility.yul\":1096:1102   */\n      dup2\n        /* \"#utility.yul\":1083:1103   */\n      calldataload\n        /* \"#utility.yul\":1121:1200   */\n      tag_97\n        /* \"#utility.yul\":1196:1199   */\n      dup5\n        /* \"#utility.yul\":1188:1194   */\n      dup3\n        /* \"#utility.yul\":1181:1185   */\n      0x20\n        /* \"#utility.yul\":1173:1179   */\n      dup7\n        /* \"#utility.yul\":1169:1186   */\n      add\n        /* \"#utility.yul\":1121:1200   */\n      tag_73\n      jump\t// in\n    tag_97:\n        /* \"#utility.yul\":1112:1200   */\n      swap2\n      pop\n        /* \"#utility.yul\":928:1206   */\n      pop\n        /* \"#utility.yul\":866:1206   */\n      swap3\n      swap2\n      pop\n      pop\n      jump\t// out\n        /* \"#utility.yul\":1226:1581   */\n    tag_98:\n        /* \"#utility.yul\":1293:1298   */\n      0x00\n        /* \"#utility.yul\":1342:1345   */\n      dup3\n        /* \"#utility.yul\":1335:1339   */\n      0x1f\n        /* \"#utility.yul\":1327:1333   */\n      dup4\n        /* \"#utility.yul\":1323:1340   */\n      add\n        /* \"#utility.yul\":1319:1346   */\n      slt\n        /* \"#utility.yul\":1309:1431   */\n      tag_100\n      jumpi\n        /* \"#utility.yul\":1350:1429   */\n      tag_101\n      tag_96\n      jump\t// in\n    tag_101:\n        /* \"#utility.yul\":1309:1431   */\n    tag_100:\n        /* \"#utility.yul\":1460:1466   */\n      dup2\n        /* \"#utility.yul\":1454:1467   */\n      mload\n        /* \"#utility.yul\":1485:1575   */\n      tag_102\n        /* \"#utility.yul\":1571:1574   */\n      dup5\n        /* \"#utility.yul\":1563:1569   */\n      dup3\n        /* \"#utility.yul\":1556:1560   */\n      0x20\n        /* \"#utility.yul\":1548:1554   */\n      dup7\n        /* \"#utility.yul\":1544:1561   */\n      add\n        /* \"#utility.yul\":1485:1575   */\n      tag_84\n      jump\t// in\n    tag_102:\n        /* \"#utility.yul\":1476:1575   */\n      swap2\n      pop\n        /* \"#utility.yul\":1299:1581   */\n      pop\n        /* \"#utility.yul\":1226:1581   */\n      swap3\n      swap2\n      pop\n      pop\n      jump\t// out\n        /* \"#utility.yul\":1587:1726   */\n    tag_103:\n        /* \"#utility.yul\":1633:1638   */\n      0x00\n        /* \"#utility.yul\":1671:1677   */\n      dup2\n        /* \"#utility.yul\":1658:1678   */\n      calldataload\n        /* \"#utility.yul\":1649:1678   */\n      swap1\n      pop\n        /* \"#utility.yul\":1687:1720   */\n      tag_105\n        /* \"#utility.yul\":1714:1719   */\n      dup2\n        /* \"#utility.yul\":1687:1720   */\n      tag_106\n      jump\t// in\n    tag_105:\n        /* \"#utility.yul\":1587:1726   */\n      swap3\n      swap2\n      pop\n      pop\n      jump\t// out\n        /* \"#utility.yul\":1732:1875   */\n    tag_107:\n        /* \"#utility.yul\":1789:1794   */\n      0x00\n        /* \"#utility.yul\":1820:1826   */\n      dup2\n        /* \"#utility.yul\":1814:1827   */\n      mload\n        /* \"#utility.yul\":1805:1827   */\n      swap1\n      pop\n        /* \"#utility.yul\":1836:1869   */\n      tag_109\n        /* \"#utility.yul\":1863:1868   */\n      dup2\n        /* \"#utility.yul\":1836:1869   */\n      tag_106\n      jump\t// in\n    tag_109:\n        /* \"#utility.yul\":1732:1875   */\n      swap3\n      swap2\n      pop\n      pop\n      jump\t// out\n        /* \"#utility.yul\":1881:2561   */\n    tag_71:\n        /* \"#utility.yul\":1970:1976   */\n      0x00\n        /* \"#utility.yul\":1978:1984   */\n      dup1\n        /* \"#utility.yul\":2027:2029   */\n      0x40\n        /* \"#utility.yul\":2015:2024   */\n      dup4\n        /* \"#utility.yul\":2006:2013   */\n      dup6\n        /* \"#utility.yul\":2002:2025   */\n      sub\n        /* \"#utility.yul\":1998:2030   */\n      slt\n        /* \"#utility.yul\":1995:2114   */\n      iszero\n      tag_111\n      jumpi\n        /* \"#utility.yul\":2033:2112   */\n      tag_112\n      tag_113\n      jump\t// in\n    tag_112:\n        /* \"#utility.yul\":1995:2114   */\n    tag_111:\n        /* \"#utility.yul\":2174:2175   */\n      0x00\n        /* \"#utility.yul\":2163:2172   */\n      dup4\n        /* \"#utility.yul\":2159:2176   */\n      add\n        /* \"#utility.yul\":2153:2177   */\n      mload\n        /* \"#utility.yul\":2204:2222   */\n      0xffffffffffffffff\n        /* \"#utility.yul\":2196:2202   */\n      dup2\n        /* \"#utility.yul\":2193:2223   */\n      gt\n        /* \"#utility.yul\":2190:2307   */\n      iszero\n      tag_114\n      jumpi\n        /* \"#utility.yul\":2226:2305   */\n      tag_115\n      tag_116\n      jump\t// in\n    tag_115:\n        /* \"#utility.yul\":2190:2307   */\n    tag_114:\n        /* \"#utility.yul\":2331:2405   */\n      tag_117\n        /* \"#utility.yul\":2397:2404   */\n      dup6\n        /* \"#utility.yul\":2388:2394   */\n      dup3\n        /* \"#utility.yul\":2377:2386   */\n      dup7\n        /* \"#utility.yul\":2373:2395   */\n      add\n        /* \"#utility.yul\":2331:2405   */\n      tag_98\n      jump\t// in\n    tag_117:\n        /* \"#utility.yul\":2321:2405   */\n      swap3\n      pop\n        /* \"#utility.yul\":2124:2415   */\n      pop\n        /* \"#utility.yul\":2454:2456   */\n      0x20\n        /* \"#utility.yul\":2480:2544   */\n      tag_118\n        /* \"#utility.yul\":2536:2543   */\n      dup6\n        /* \"#utility.yul\":2527:2533   */\n      dup3\n        /* \"#utility.yul\":2516:2525   */\n      dup7\n        /* \"#utility.yul\":2512:2534   */\n      add\n        /* \"#utility.yul\":2480:2544   */\n      tag_107\n      jump\t// in\n    tag_118:\n        /* \"#utility.yul\":2470:2544   */\n      swap2\n      pop\n        /* \"#utility.yul\":2425:2554   */\n      pop\n        /* \"#utility.yul\":1881:2561   */\n      swap3\n      pop\n      swap3\n      swap1\n      pop\n      jump\t// out\n        /* \"#utility.yul\":2567:2896   */\n    tag_13:\n        /* \"#utility.yul\":2626:2632   */\n      0x00\n        /* \"#utility.yul\":2675:2677   */\n      0x20\n        /* \"#utility.yul\":2663:2672   */\n      dup3\n        /* \"#utility.yul\":2654:2661   */\n      dup5\n        /* \"#utility.yul\":2650:2673   */\n      sub\n        /* \"#utility.yul\":2646:2678   */\n      slt\n        /* \"#utility.yul\":2643:2762   */\n      iszero\n      tag_120\n      jumpi\n        /* \"#utility.yul\":2681:2760   */\n      tag_121\n      tag_113\n      jump\t// in\n    tag_121:\n        /* \"#utility.yul\":2643:2762   */\n    tag_120:\n        /* \"#utility.yul\":2801:2802   */\n      0x00\n        /* \"#utility.yul\":2826:2879   */\n      tag_122\n        /* \"#utility.yul\":2871:2878   */\n      dup5\n        /* \"#utility.yul\":2862:2868   */\n      dup3\n        /* \"#utility.yul\":2851:2860   */\n      dup6\n        /* \"#utility.yul\":2847:2869   */\n      add\n        /* \"#utility.yul\":2826:2879   */\n      tag_103\n      jump\t// in\n    tag_122:\n        /* \"#utility.yul\":2816:2879   */\n      swap2\n      pop\n        /* \"#utility.yul\":2772:2889   */\n      pop\n        /* \"#utility.yul\":2567:2896   */\n      swap3\n      swap2\n      pop\n      pop\n      jump\t// out\n        /* \"#utility.yul\":2902:3253   */\n    tag_49:\n        /* \"#utility.yul\":2972:2978   */\n      0x00\n        /* \"#utility.yul\":3021:3023   */\n      0x20\n        /* \"#utility.yul\":3009:3018   */\n      dup3\n        /* \"#utility.yul\":3000:3007   */\n      dup5\n        /* \"#utility.yul\":2996:3019   */\n      sub\n        /* \"#utility.yul\":2992:3024   */\n      slt\n        /* \"#utility.yul\":2989:3108   */\n      iszero\n      tag_124\n      jumpi\n        /* \"#utility.yul\":3027:3106   */\n      tag_125\n      tag_113\n      jump\t// in\n    tag_125:\n        /* \"#utility.yul\":2989:3108   */\n    tag_124:\n        /* \"#utility.yul\":3147:3148   */\n      0x00\n        /* \"#utility.yul\":3172:3236   */\n      tag_126\n        /* \"#utility.yul\":3228:3235   */\n      dup5\n        /* \"#utility.yul\":3219:3225   */\n      dup3\n        /* \"#utility.yul\":3208:3217   */\n      dup6\n        /* \"#utility.yul\":3204:3226   */\n      add\n        /* \"#utility.yul\":3172:3236   */\n      tag_107\n      jump\t// in\n    tag_126:\n        /* \"#utility.yul\":3162:3236   */\n      swap2\n      pop\n        /* \"#utility.yul\":3118:3246   */\n      pop\n        /* \"#utility.yul\":2902:3253   */\n      swap3\n      swap2\n      pop\n      pop\n      jump\t// out\n        /* \"#utility.yul\":3259:3913   */\n    tag_24:\n        /* \"#utility.yul\":3337:3343   */\n      0x00\n        /* \"#utility.yul\":3345:3351   */\n      dup1\n        /* \"#utility.yul\":3394:3396   */\n      0x40\n        /* \"#utility.yul\":3382:3391   */\n      dup4\n        /* \"#utility.yul\":3373:3380   */\n      dup6\n        /* \"#utility.yul\":3369:3392   */\n      sub\n        /* \"#utility.yul\":3365:3397   */\n      slt\n        /* \"#utility.yul\":3362:3481   */\n      iszero\n      tag_128\n      jumpi\n        /* \"#utility.yul\":3400:3479   */\n      tag_129\n      tag_113\n      jump\t// in\n    tag_129:\n        /* \"#utility.yul\":3362:3481   */\n    tag_128:\n        /* \"#utility.yul\":3520:3521   */\n      0x00\n        /* \"#utility.yul\":3545:3598   */\n      tag_130\n        /* \"#utility.yul\":3590:3597   */\n      dup6\n        /* \"#utility.yul\":3581:3587   */\n      dup3\n        /* \"#utility.yul\":3570:3579   */\n      dup7\n        /* \"#utility.yul\":3566:3588   */\n      add\n        /* \"#utility.yul\":3545:3598   */\n      tag_103\n      jump\t// in\n    tag_130:\n        /* \"#utility.yul\":3535:3598   */\n      swap3\n      pop\n        /* \"#utility.yul\":3491:3608   */\n      pop\n        /* \"#utility.yul\":3675:3677   */\n      0x20\n        /* \"#utility.yul\":3664:3673   */\n      dup4\n        /* \"#utility.yul\":3660:3678   */\n      add\n        /* \"#utility.yul\":3647:3679   */\n      calldataload\n        /* \"#utility.yul\":3706:3724   */\n      0xffffffffffffffff\n        /* \"#utility.yul\":3698:3704   */\n      dup2\n        /* \"#utility.yul\":3695:3725   */\n      gt\n        /* \"#utility.yul\":3692:3809   */\n      iszero\n      tag_131\n      jumpi\n        /* \"#utility.yul\":3728:3807   */\n      tag_132\n      tag_116\n      jump\t// in\n    tag_132:\n        /* \"#utility.yul\":3692:3809   */\n    tag_131:\n        /* \"#utility.yul\":3833:3896   */\n      tag_133\n        /* \"#utility.yul\":3888:3895   */\n      dup6\n        /* \"#utility.yul\":3879:3885   */\n      dup3\n        /* \"#utility.yul\":3868:3877   */\n      dup7\n        /* \"#utility.yul\":3864:3886   */\n      add\n        /* \"#utility.yul\":3833:3896   */\n      tag_92\n      jump\t// in\n    tag_133:\n        /* \"#utility.yul\":3823:3896   */\n      swap2\n      pop\n        /* \"#utility.yul\":3618:3906   */\n      pop\n        /* \"#utility.yul\":3259:3913   */\n      swap3\n      pop\n      swap3\n      swap1\n      pop\n      jump\t// out\n        /* \"#utility.yul\":3919:4393   */\n    tag_31:\n        /* \"#utility.yul\":3987:3993   */\n      0x00\n        /* \"#utility.yul\":3995:4001   */\n      dup1\n        /* \"#utility.yul\":4044:4046   */\n      0x40\n        /* \"#utility.yul\":4032:4041   */\n      dup4\n        /* \"#utility.yul\":4023:4030   */\n      dup6\n        /* \"#utility.yul\":4019:4042   */\n      sub\n        /* \"#utility.yul\":4015:4047   */\n      slt\n        /* \"#utility.yul\":4012:4131   */\n      iszero\n      tag_135\n      jumpi\n        /* \"#utility.yul\":4050:4129   */\n      tag_136\n      tag_113\n      jump\t// in\n    tag_136:\n        /* \"#utility.yul\":4012:4131   */\n    tag_135:\n        /* \"#utility.yul\":4170:4171   */\n      0x00\n        /* \"#utility.yul\":4195:4248   */\n      tag_137\n        /* \"#utility.yul\":4240:4247   */\n      dup6\n        /* \"#utility.yul\":4231:4237   */\n      dup3\n        /* \"#utility.yul\":4220:4229   */\n      dup7\n        /* \"#utility.yul\":4216:4238   */\n      add\n        /* \"#utility.yul\":4195:4248   */\n      tag_103\n      jump\t// in\n    tag_137:\n        /* \"#utility.yul\":4185:4248   */\n      swap3\n      pop\n        /* \"#utility.yul\":4141:4258   */\n      pop\n        /* \"#utility.yul\":4297:4299   */\n      0x20\n        /* \"#utility.yul\":4323:4376   */\n      tag_138\n        /* \"#utility.yul\":4368:4375   */\n      dup6\n        /* \"#utility.yul\":4359:4365   */\n      dup3\n        /* \"#utility.yul\":4348:4357   */\n      dup7\n        /* \"#utility.yul\":4344:4366   */\n      add\n        /* \"#utility.yul\":4323:4376   */\n      tag_103\n      jump\t// in\n    tag_138:\n        /* \"#utility.yul\":4313:4376   */\n      swap2\n      pop\n        /* \"#utility.yul\":4268:4386   */\n      pop\n        /* \"#utility.yul\":3919:4393   */\n      swap3\n      pop\n      swap3\n      swap1\n      pop\n      jump\t// out\n        /* \"#utility.yul\":4399:4570   */\n    tag_139:\n        /* \"#utility.yul\":4506:4563   */\n      tag_141\n        /* \"#utility.yul\":4557:4562   */\n      dup2\n        /* \"#utility.yul\":4506:4563   */\n      tag_142\n      jump\t// in\n    tag_141:\n        /* \"#utility.yul\":4501:4504   */\n      dup3\n        /* \"#utility.yul\":4494:4564   */\n      mstore\n        /* \"#utility.yul\":4399:4570   */\n      pop\n      pop\n      jump\t// out\n        /* \"#utility.yul\":4576:4940   */\n    tag_143:\n        /* \"#utility.yul\":4664:4667   */\n      0x00\n        /* \"#utility.yul\":4692:4731   */\n      tag_145\n        /* \"#utility.yul\":4725:4730   */\n      dup3\n        /* \"#utility.yul\":4692:4731   */\n      tag_146\n      jump\t// in\n    tag_145:\n        /* \"#utility.yul\":4747:4818   */\n      tag_147\n        /* \"#utility.yul\":4811:4817   */\n      dup2\n        /* \"#utility.yul\":4806:4809   */\n      dup6\n        /* \"#utility.yul\":4747:4818   */\n      tag_148\n      jump\t// in\n    tag_147:\n        /* \"#utility.yul\":4740:4818   */\n      swap4\n      pop\n        /* \"#utility.yul\":4827:4879   */\n      tag_149\n        /* \"#utility.yul\":4872:4878   */\n      dup2\n        /* \"#utility.yul\":4867:4870   */\n      dup6\n        /* \"#utility.yul\":4860:4864   */\n      0x20\n        /* \"#utility.yul\":4853:4858   */\n      dup7\n        /* \"#utility.yul\":4849:4865   */\n      add\n        /* \"#utility.yul\":4827:4879   */\n      tag_91\n      jump\t// in\n    tag_149:\n        /* \"#utility.yul\":4904:4933   */\n      tag_150\n        /* \"#utility.yul\":4926:4932   */\n      dup2\n        /* \"#utility.yul\":4904:4933   */\n      tag_151\n      jump\t// in\n    tag_150:\n        /* \"#utility.yul\":4899:4902   */\n      dup5\n        /* \"#utility.yul\":4895:4934   */\n      add\n        /* \"#utility.yul\":4888:4934   */\n      swap2\n      pop\n        /* \"#utility.yul\":4668:4940   */\n      pop\n        /* \"#utility.yul\":4576:4940   */\n      swap3\n      swap2\n      pop\n      pop\n      jump\t// out\n        /* \"#utility.yul\":4946:5064   */\n    tag_152:\n        /* \"#utility.yul\":5033:5057   */\n      tag_154\n        /* \"#utility.yul\":5051:5056   */\n      dup2\n        /* \"#utility.yul\":5033:5057   */\n      tag_155\n      jump\t// in\n    tag_154:\n        /* \"#utility.yul\":5028:5031   */\n      dup3\n        /* \"#utility.yul\":5021:5058   */\n      mstore\n        /* \"#utility.yul\":4946:5064   */\n      pop\n      pop\n      jump\t// out\n        /* \"#utility.yul\":5070:5332   */\n    tag_21:\n        /* \"#utility.yul\":5183:5187   */\n      0x00\n        /* \"#utility.yul\":5221:5223   */\n      0x20\n        /* \"#utility.yul\":5210:5219   */\n      dup3\n        /* \"#utility.yul\":5206:5224   */\n      add\n        /* \"#utility.yul\":5198:5224   */\n      swap1\n      pop\n        /* \"#utility.yul\":5234:5325   */\n      tag_157\n        /* \"#utility.yul\":5322:5323   */\n      0x00\n        /* \"#utility.yul\":5311:5320   */\n      dup4\n        /* \"#utility.yul\":5307:5324   */\n      add\n        /* \"#utility.yul\":5298:5304   */\n      dup5\n        /* \"#utility.yul\":5234:5325   */\n      tag_139\n      jump\t// in\n    tag_157:\n        /* \"#utility.yul\":5070:5332   */\n      swap3\n      swap2\n      pop\n      pop\n      jump\t// out\n        /* \"#utility.yul\":5338:5761   */\n    tag_34:\n        /* \"#utility.yul\":5479:5483   */\n      0x00\n        /* \"#utility.yul\":5517:5519   */\n      0x40\n        /* \"#utility.yul\":5506:5515   */\n      dup3\n        /* \"#utility.yul\":5502:5520   */\n      add\n        /* \"#utility.yul\":5494:5520   */\n      swap1\n      pop\n        /* \"#utility.yul\":5566:5575   */\n      dup2\n        /* \"#utility.yul\":5560:5564   */\n      dup2\n        /* \"#utility.yul\":5556:5576   */\n      sub\n        /* \"#utility.yul\":5552:5553   */\n      0x00\n        /* \"#utility.yul\":5541:5550   */\n      dup4\n        /* \"#utility.yul\":5537:5554   */\n      add\n        /* \"#utility.yul\":5530:5577   */\n      mstore\n        /* \"#utility.yul\":5594:5672   */\n      tag_159\n        /* \"#utility.yul\":5667:5671   */\n      dup2\n        /* \"#utility.yul\":5658:5664   */\n      dup6\n        /* \"#utility.yul\":5594:5672   */\n      tag_143\n      jump\t// in\n    tag_159:\n        /* \"#utility.yul\":5586:5672   */\n      swap1\n      pop\n        /* \"#utility.yul\":5682:5754   */\n      tag_160\n        /* \"#utility.yul\":5750:5752   */\n      0x20\n        /* \"#utility.yul\":5739:5748   */\n      dup4\n        /* \"#utility.yul\":5735:5753   */\n      add\n        /* \"#utility.yul\":5726:5732   */\n      dup5\n        /* \"#utility.yul\":5682:5754   */\n      tag_152\n      jump\t// in\n    tag_160:\n        /* \"#utility.yul\":5338:5761   */\n      swap4\n      swap3\n      pop\n      pop\n      pop\n      jump\t// out\n        /* \"#utility.yul\":5767:5989   */\n    tag_16:\n        /* \"#utility.yul\":5860:5864   */\n      0x00\n        /* \"#utility.yul\":5898:5900   */\n      0x20\n        /* \"#utility.yul\":5887:5896   */\n      dup3\n        /* \"#utility.yul\":5883:5901   */\n      add\n        /* \"#utility.yul\":5875:5901   */\n      swap1\n      pop\n        /* \"#utility.yul\":5911:5982   */\n      tag_162\n        /* \"#utility.yul\":5979:5980   */\n      0x00\n        /* \"#utility.yul\":5968:5977   */\n      dup4\n        /* \"#utility.yul\":5964:5981   */\n      add\n        /* \"#utility.yul\":5955:5961   */\n      dup5\n        /* \"#utility.yul\":5911:5982   */\n      tag_152\n      jump\t// in\n    tag_162:\n        /* \"#utility.yul\":5767:5989   */\n      swap3\n      swap2\n      pop\n      pop\n      jump\t// out\n        /* \"#utility.yul\":5995:6124   */\n    tag_78:\n        /* \"#utility.yul\":6029:6035   */\n      0x00\n        /* \"#utility.yul\":6056:6076   */\n      tag_164\n      tag_165\n      jump\t// in\n    tag_164:\n        /* \"#utility.yul\":6046:6076   */\n      swap1\n      pop\n        /* \"#utility.yul\":6085:6118   */\n      tag_166\n        /* \"#utility.yul\":6113:6117   */\n      dup3\n        /* \"#utility.yul\":6105:6111   */\n      dup3\n        /* \"#utility.yul\":6085:6118   */\n      tag_167\n      jump\t// in\n    tag_166:\n        /* \"#utility.yul\":5995:6124   */\n      swap2\n      swap1\n      pop\n      jump\t// out\n        /* \"#utility.yul\":6130:6205   */\n    tag_165:\n        /* \"#utility.yul\":6163:6169   */\n      0x00\n        /* \"#utility.yul\":6196:6198   */\n      0x40\n        /* \"#utility.yul\":6190:6199   */\n      mload\n        /* \"#utility.yul\":6180:6199   */\n      swap1\n      pop\n        /* \"#utility.yul\":6130:6205   */\n      swap1\n      jump\t// out\n        /* \"#utility.yul\":6211:6519   */\n    tag_77:\n        /* \"#utility.yul\":6273:6277   */\n      0x00\n        /* \"#utility.yul\":6363:6381   */\n      0xffffffffffffffff\n        /* \"#utility.yul\":6355:6361   */\n      dup3\n        /* \"#utility.yul\":6352:6382   */\n      gt\n        /* \"#utility.yul\":6349:6405   */\n      iszero\n      tag_170\n      jumpi\n        /* \"#utility.yul\":6385:6403   */\n      tag_171\n      tag_172\n      jump\t// in\n    tag_171:\n        /* \"#utility.yul\":6349:6405   */\n    tag_170:\n        /* \"#utility.yul\":6423:6452   */\n      tag_173\n        /* \"#utility.yul\":6445:6451   */\n      dup3\n        /* \"#utility.yul\":6423:6452   */\n      tag_151\n      jump\t// in\n    tag_173:\n        /* \"#utility.yul\":6415:6452   */\n      swap1\n      pop\n        /* \"#utility.yul\":6507:6511   */\n      0x20\n        /* \"#utility.yul\":6501:6505   */\n      dup2\n        /* \"#utility.yul\":6497:6512   */\n      add\n        /* \"#utility.yul\":6489:6512   */\n      swap1\n      pop\n        /* \"#utility.yul\":6211:6519   */\n      swap2\n      swap1\n      pop\n      jump\t// out\n        /* \"#utility.yul\":6525:6624   */\n    tag_146:\n        /* \"#utility.yul\":6577:6583   */\n      0x00\n        /* \"#utility.yul\":6611:6616   */\n      dup2\n        /* \"#utility.yul\":6605:6617   */\n      mload\n        /* \"#utility.yul\":6595:6617   */\n      swap1\n      pop\n        /* \"#utility.yul\":6525:6624   */\n      swap2\n      swap1\n      pop\n      jump\t// out\n        /* \"#utility.yul\":6630:6799   */\n    tag_148:\n        /* \"#utility.yul\":6714:6725   */\n      0x00\n        /* \"#utility.yul\":6748:6754   */\n      dup3\n        /* \"#utility.yul\":6743:6746   */\n      dup3\n        /* \"#utility.yul\":6736:6755   */\n      mstore\n        /* \"#utility.yul\":6788:6792   */\n      0x20\n        /* \"#utility.yul\":6783:6786   */\n      dup3\n        /* \"#utility.yul\":6779:6793   */\n      add\n        /* \"#utility.yul\":6764:6793   */\n      swap1\n      pop\n        /* \"#utility.yul\":6630:6799   */\n      swap3\n      swap2\n      pop\n      pop\n      jump\t// out\n        /* \"#utility.yul\":6805:6931   */\n    tag_176:\n        /* \"#utility.yul\":6842:6849   */\n      0x00\n        /* \"#utility.yul\":6882:6924   */\n      0xffffffffffffffffffffffffffffffffffffffff\n        /* \"#utility.yul\":6875:6880   */\n      dup3\n        /* \"#utility.yul\":6871:6925   */\n      and\n        /* \"#utility.yul\":6860:6925   */\n      swap1\n      pop\n        /* \"#utility.yul\":6805:6931   */\n      swap2\n      swap1\n      pop\n      jump\t// out\n        /* \"#utility.yul\":6937:7014   */\n    tag_155:\n        /* \"#utility.yul\":6974:6981   */\n      0x00\n        /* \"#utility.yul\":7003:7008   */\n      dup2\n        /* \"#utility.yul\":6992:7008   */\n      swap1\n      pop\n        /* \"#utility.yul\":6937:7014   */\n      swap2\n      swap1\n      pop\n      jump\t// out\n        /* \"#utility.yul\":7020:7166   */\n    tag_142:\n        /* \"#utility.yul\":7090:7099   */\n      0x00\n        /* \"#utility.yul\":7123:7160   */\n      tag_180\n        /* \"#utility.yul\":7154:7159   */\n      dup3\n        /* \"#utility.yul\":7123:7160   */\n      tag_181\n      jump\t// in\n    tag_180:\n        /* \"#utility.yul\":7110:7160   */\n      swap1\n      pop\n        /* \"#utility.yul\":7020:7166   */\n      swap2\n      swap1\n      pop\n      jump\t// out\n        /* \"#utility.yul\":7172:7298   */\n    tag_181:\n        /* \"#utility.yul\":7222:7231   */\n      0x00\n        /* \"#utility.yul\":7255:7292   */\n      tag_183\n        /* \"#utility.yul\":7286:7291   */\n      dup3\n        /* \"#utility.yul\":7255:7292   */\n      tag_184\n      jump\t// in\n    tag_183:\n        /* \"#utility.yul\":7242:7292   */\n      swap1\n      pop\n        /* \"#utility.yul\":7172:7298   */\n      swap2\n      swap1\n      pop\n      jump\t// out\n        /* \"#utility.yul\":7304:7417   */\n    tag_184:\n        /* \"#utility.yul\":7354:7363   */\n      0x00\n        /* \"#utility.yul\":7387:7411   */\n      tag_186\n        /* \"#utility.yul\":7405:7410   */\n      dup3\n        /* \"#utility.yul\":7387:7411   */\n      tag_176\n      jump\t// in\n    tag_186:\n        /* \"#utility.yul\":7374:7411   */\n      swap1\n      pop\n        /* \"#utility.yul\":7304:7417   */\n      swap2\n      swap1\n      pop\n      jump\t// out\n        /* \"#utility.yul\":7423:7577   */\n    tag_83:\n        /* \"#utility.yul\":7507:7513   */\n      dup3\n        /* \"#utility.yul\":7502:7505   */\n      dup2\n        /* \"#utility.yul\":7497:7500   */\n      dup4\n        /* \"#utility.yul\":7484:7514   */\n      calldatacopy\n        /* \"#utility.yul\":7569:7570   */\n      0x00\n        /* \"#utility.yul\":7560:7566   */\n      dup4\n        /* \"#utility.yul\":7555:7558   */\n      dup4\n        /* \"#utility.yul\":7551:7567   */\n      add\n        /* \"#utility.yul\":7544:7571   */\n      mstore\n        /* \"#utility.yul\":7423:7577   */\n      pop\n      pop\n      pop\n      jump\t// out\n        /* \"#utility.yul\":7583:7890   */\n    tag_91:\n        /* \"#utility.yul\":7651:7652   */\n      0x00\n        /* \"#utility.yul\":7661:7774   */\n    tag_189:\n        /* \"#utility.yul\":7675:7681   */\n      dup4\n        /* \"#utility.yul\":7672:7673   */\n      dup2\n        /* \"#utility.yul\":7669:7682   */\n      lt\n        /* \"#utility.yul\":7661:7774   */\n      iszero\n      tag_191\n      jumpi\n        /* \"#utility.yul\":7760:7761   */\n      dup1\n        /* \"#utility.yul\":7755:7758   */\n      dup3\n        /* \"#utility.yul\":7751:7762   */\n      add\n        /* \"#utility.yul\":7745:7763   */\n      mload\n        /* \"#utility.yul\":7741:7742   */\n      dup2\n        /* \"#utility.yul\":7736:7739   */\n      dup5\n        /* \"#utility.yul\":7732:7743   */\n      add\n        /* \"#utility.yul\":7725:7764   */\n      mstore\n        /* \"#utility.yul\":7697:7699   */\n      0x20\n        /* \"#utility.yul\":7694:7695   */\n      dup2\n        /* \"#utility.yul\":7690:7700   */\n      add\n        /* \"#utility.yul\":7685:7700   */\n      swap1\n      pop\n        /* \"#utility.yul\":7661:7774   */\n      jump(tag_189)\n    tag_191:\n        /* \"#utility.yul\":7792:7798   */\n      dup4\n        /* \"#utility.yul\":7789:7790   */\n      dup2\n        /* \"#utility.yul\":7786:7799   */\n      gt\n        /* \"#utility.yul\":7783:7884   */\n      iszero\n      tag_192\n      jumpi\n        /* \"#utility.yul\":7872:7873   */\n      0x00\n        /* \"#utility.yul\":7863:7869   */\n      dup5\n        /* \"#utility.yul\":7858:7861   */\n      dup5\n        /* \"#utility.yul\":7854:7870   */\n      add\n        /* \"#utility.yul\":7847:7874   */\n      mstore\n        /* \"#utility.yul\":7783:7884   */\n    tag_192:\n        /* \"#utility.yul\":7632:7890   */\n      pop\n        /* \"#utility.yul\":7583:7890   */\n      pop\n      pop\n      pop\n      jump\t// out\n        /* \"#utility.yul\":7896:8177   */\n    tag_167:\n        /* \"#utility.yul\":7979:8006   */\n      tag_194\n        /* \"#utility.yul\":8001:8005   */\n      dup3\n        /* \"#utility.yul\":7979:8006   */\n      tag_151\n      jump\t// in\n    tag_194:\n        /* \"#utility.yul\":7971:7977   */\n      dup2\n        /* \"#utility.yul\":7967:8007   */\n      add\n        /* \"#utility.yul\":8109:8115   */\n      dup2\n        /* \"#utility.yul\":8097:8107   */\n      dup2\n        /* \"#utility.yul\":8094:8116   */\n      lt\n        /* \"#utility.yul\":8073:8091   */\n      0xffffffffffffffff\n        /* \"#utility.yul\":8061:8071   */\n      dup3\n        /* \"#utility.yul\":8058:8092   */\n      gt\n        /* \"#utility.yul\":8055:8117   */\n      or\n        /* \"#utility.yul\":8052:8140   */\n      iszero\n      tag_195\n      jumpi\n        /* \"#utility.yul\":8120:8138   */\n      tag_196\n      tag_172\n      jump\t// in\n    tag_196:\n        /* \"#utility.yul\":8052:8140   */\n    tag_195:\n        /* \"#utility.yul\":8160:8170   */\n      dup1\n        /* \"#utility.yul\":8156:8158   */\n      0x40\n        /* \"#utility.yul\":8149:8171   */\n      mstore\n        /* \"#utility.yul\":7939:8177   */\n      pop\n        /* \"#utility.yul\":7896:8177   */\n      pop\n      pop\n      jump\t// out\n        /* \"#utility.yul\":8183:8363   */\n    tag_43:\n        /* \"#utility.yul\":8231:8308   */\n      0x4e487b7100000000000000000000000000000000000000000000000000000000\n        /* \"#utility.yul\":8228:8229   */\n      0x00\n        /* \"#utility.yul\":8221:8309   */\n      mstore\n        /* \"#utility.yul\":8328:8332   */\n      0x32\n        /* \"#utility.yul\":8325:8326   */\n      0x04\n        /* \"#utility.yul\":8318:8333   */\n      mstore\n        /* \"#utility.yul\":8352:8356   */\n      0x24\n        /* \"#utility.yul\":8349:8350   */\n      0x00\n        /* \"#utility.yul\":8342:8357   */\n      revert\n        /* \"#utility.yul\":8369:8549   */\n    tag_172:\n        /* \"#utility.yul\":8417:8494   */\n      0x4e487b7100000000000000000000000000000000000000000000000000000000\n        /* \"#utility.yul\":8414:8415   */\n      0x00\n        /* \"#utility.yul\":8407:8495   */\n      mstore\n        /* \"#utility.yul\":8514:8518   */\n      0x41\n        /* \"#utility.yul\":8511:8512   */\n      0x04\n        /* \"#utility.yul\":8504:8519   */\n      mstore\n        /* \"#utility.yul\":8538:8542   */\n      0x24\n        /* \"#utility.yul\":8535:8536   */\n      0x00\n        /* \"#utility.yul\":8528:8543   */\n      revert\n        /* \"#utility.yul\":8555:8672   */\n    tag_96:\n        /* \"#utility.yul\":8664:8665   */\n      0x00\n        /* \"#utility.yul\":8661:8662   */\n      dup1\n        /* \"#utility.yul\":8654:8666   */\n      revert\n        /* \"#utility.yul\":8678:8795   */\n    tag_81:\n        /* \"#utility.yul\":8787:8788   */\n      0x00\n        /* \"#utility.yul\":8784:8785   */\n      dup1\n        /* \"#utility.yul\":8777:8789   */\n      revert\n        /* \"#utility.yul\":8801:8918   */\n    tag_116:\n        /* \"#utility.yul\":8910:8911   */\n      0x00\n        /* \"#utility.yul\":8907:8908   */\n      dup1\n        /* \"#utility.yul\":8900:8912   */\n      revert\n        /* \"#utility.yul\":8924:9041   */\n    tag_113:\n        /* \"#utility.yul\":9033:9034   */\n      0x00\n        /* \"#utility.yul\":9030:9031   */\n      dup1\n        /* \"#utility.yul\":9023:9035   */\n      revert\n        /* \"#utility.yul\":9047:9149   */\n    tag_151:\n        /* \"#utility.yul\":9088:9094   */\n      0x00\n        /* \"#utility.yul\":9139:9141   */\n      0x1f\n        /* \"#utility.yul\":9135:9142   */\n      not\n        /* \"#utility.yul\":9130:9132   */\n      0x1f\n        /* \"#utility.yul\":9123:9128   */\n      dup4\n        /* \"#utility.yul\":9119:9133   */\n      add\n        /* \"#utility.yul\":9115:9143   */\n      and\n        /* \"#utility.yul\":9105:9143   */\n      swap1\n      pop\n        /* \"#utility.yul\":9047:9149   */\n      swap2\n      swap1\n      pop\n      jump\t// out\n        /* \"#utility.yul\":9155:9277   */\n    tag_106:\n        /* \"#utility.yul\":9228:9252   */\n      tag_205\n        /* \"#utility.yul\":9246:9251   */\n      dup2\n        /* \"#utility.yul\":9228:9252   */\n      tag_155\n      jump\t// in\n    tag_205:\n        /* \"#utility.yul\":9221:9226   */\n      dup2\n        /* \"#utility.yul\":9218:9253   */\n      eq\n        /* \"#utility.yul\":9208:9271   */\n      tag_206\n      jumpi\n        /* \"#utility.yul\":9267:9268   */\n      0x00\n        /* \"#utility.yul\":9264:9265   */\n      dup1\n        /* \"#utility.yul\":9257:9269   */\n      revert\n        /* \"#utility.yul\":9208:9271   */\n    tag_206:\n        /* \"#utility.yul\":9155:9277   */\n      pop\n      jump\t// out\n    stop\n\n    sub_0: assembly {\n            /* \"Contracts/SimpleStorage.sol\":62:817  contract SimpleStorage{\r... */\n          mstore(0x40, 0x80)\n          callvalue\n          dup1\n          iszero\n          tag_1\n          jumpi\n          0x00\n          dup1\n          revert\n        tag_1:\n          pop\n          dataSize(sub_0)\n          dup1\n          dataOffset(sub_0)\n          0x00\n          codecopy\n          0x00\n          return\n        stop\n\n        sub_0: assembly {\n                /* \"Contracts/SimpleStorage.sol\":62:817  contract SimpleStorage{\r... */\n              mstore(0x40, 0x80)\n              callvalue\n              dup1\n              iszero\n              tag_1\n              jumpi\n              0x00\n              dup1\n              revert\n            tag_1:\n              pop\n              jumpi(tag_2, lt(calldatasize, 0x04))\n              shr(0xe0, calldataload(0x00))\n              dup1\n              0x0e5eeef7\n              eq\n              tag_3\n              jumpi\n              dup1\n              0x2e64cec1\n              eq\n              tag_4\n              jumpi\n              dup1\n              0x5457b83f\n              eq\n              tag_5\n              jumpi\n              dup1\n              0x6057361d\n              eq\n              tag_6\n              jumpi\n              dup1\n              0x642f9163\n              eq\n              tag_7\n              jumpi\n            tag_2:\n              0x00\n              dup1\n              revert\n                /* \"Contracts/SimpleStorage.sol\":285:449  function addStudent(string memory _name, uint256 _rollNo) public{\r... */\n            tag_3:\n              tag_8\n              0x04\n              dup1\n              calldatasize\n              sub\n              dup2\n              add\n              swap1\n              tag_9\n              swap2\n              swap1\n              tag_10\n              jump\t// in\n            tag_9:\n              tag_11\n              jump\t// in\n            tag_8:\n              stop\n                /* \"Contracts/SimpleStorage.sol\":574:663  function retrieve() public view returns(uint256){\r... */\n            tag_4:\n              tag_12\n              tag_13\n              jump\t// in\n            tag_12:\n              mload(0x40)\n              tag_14\n              swap2\n              swap1\n              tag_15\n              jump\t// in\n            tag_14:\n              mload(0x40)\n              dup1\n              swap2\n              sub\n              swap1\n              return\n                /* \"Contracts/SimpleStorage.sol\":227:276  mapping(uint256 => string) public rollNoToNameMap */\n            tag_5:\n              tag_16\n              0x04\n              dup1\n              calldatasize\n              sub\n              dup2\n              add\n              swap1\n              tag_17\n              swap2\n              swap1\n              tag_18\n              jump\t// in\n            tag_17:\n              tag_19\n              jump\t// in\n            tag_16:\n              mload(0x40)\n              tag_20\n              swap2\n              swap1\n              tag_21\n              jump\t// in\n            tag_20:\n              mload(0x40)\n              dup1\n              swap2\n              sub\n              swap1\n              return\n                /* \"Contracts/SimpleStorage.sol\":457:566  function store(uint256 _favouriteNumber) public virtual {\r... */\n            tag_6:\n              tag_22\n              0x04\n              dup1\n              calldatasize\n              sub\n              dup2\n              add\n              swap1\n              tag_23\n              swap2\n              swap1\n              tag_18\n              jump\t// in\n            tag_23:\n              tag_24\n              jump\t// in\n            tag_22:\n              stop\n                /* \"Contracts/SimpleStorage.sol\":671:812  function getStudent(uint256 _rollNo) public view returns(string memory, uint256){\r... */\n            tag_7:\n              tag_25\n              0x04\n              dup1\n              calldatasize\n              sub\n              dup2\n              add\n              swap1\n              tag_26\n              swap2\n              swap1\n              tag_18\n              jump\t// in\n            tag_26:\n              tag_27\n              jump\t// in\n            tag_25:\n              mload(0x40)\n              tag_28\n              swap3\n              swap2\n              swap1\n              tag_29\n              jump\t// in\n            tag_28:\n              mload(0x40)\n              dup1\n              swap2\n              sub\n              swap1\n              return\n                /* \"Contracts/SimpleStorage.sol\":285:449  function addStudent(string memory _name, uint256 _rollNo) public{\r... */\n            tag_11:\n                /* \"Contracts/SimpleStorage.sol\":360:368  students */\n              0x01\n                /* \"Contracts/SimpleStorage.sol\":374:397  Student(_rollNo, _name) */\n              mload(0x40)\n              dup1\n              0x40\n              add\n              0x40\n              mstore\n              dup1\n                /* \"Contracts/SimpleStorage.sol\":382:389  _rollNo */\n              dup4\n                /* \"Contracts/SimpleStorage.sol\":374:397  Student(_rollNo, _name) */\n              dup2\n              mstore\n              0x20\n              add\n                /* \"Contracts/SimpleStorage.sol\":391:396  _name */\n              dup5\n                /* \"Contracts/SimpleStorage.sol\":374:397  Student(_rollNo, _name) */\n              dup2\n              mstore\n              pop\n                /* \"Contracts/SimpleStorage.sol\":360:398  students.push(Student(_rollNo, _name)) */\n              swap1\n              dup1\n              0x01\n              dup2\n              sload\n              add\n              dup1\n              dup3\n              sstore\n              dup1\n              swap2\n              pop\n              pop\n              0x01\n              swap1\n              sub\n              swap1\n              0x00\n              mstore\n              keccak256(0x00, 0x20)\n              swap1\n              0x02\n              mul\n              add\n              0x00\n              swap1\n              swap2\n              swap1\n              swap2\n              swap1\n              swap2\n              pop\n              0x00\n              dup3\n              add\n              mload\n              dup2\n              0x00\n              add\n              sstore\n              0x20\n              dup3\n              add\n              mload\n              dup2\n              0x01\n              add\n              swap1\n              dup1\n              mload\n              swap1\n              0x20\n              add\n              swap1\n              tag_32\n              swap3\n              swap2\n              swap1\n              tag_33\n              jump\t// in\n            tag_32:\n              pop\n              pop\n              pop\n                /* \"Contracts/SimpleStorage.sol\":436:441  _name */\n              dup2\n                /* \"Contracts/SimpleStorage.sol\":409:424  rollNoToNameMap */\n              0x02\n                /* \"Contracts/SimpleStorage.sol\":409:433  rollNoToNameMap[_rollNo] */\n              0x00\n                /* \"Contracts/SimpleStorage.sol\":425:432  _rollNo */\n              dup4\n                /* \"Contracts/SimpleStorage.sol\":409:433  rollNoToNameMap[_rollNo] */\n              dup2\n              mstore\n              0x20\n              add\n              swap1\n              dup2\n              mstore\n              0x20\n              add\n              0x00\n              keccak256\n                /* \"Contracts/SimpleStorage.sol\":409:441  rollNoToNameMap[_rollNo] = _name */\n              swap1\n              dup1\n              mload\n              swap1\n              0x20\n              add\n              swap1\n              tag_34\n              swap3\n              swap2\n              swap1\n              tag_33\n              jump\t// in\n            tag_34:\n              pop\n                /* \"Contracts/SimpleStorage.sol\":285:449  function addStudent(string memory _name, uint256 _rollNo) public{\r... */\n              pop\n              pop\n              jump\t// out\n                /* \"Contracts/SimpleStorage.sol\":574:663  function retrieve() public view returns(uint256){\r... */\n            tag_13:\n                /* \"Contracts/SimpleStorage.sol\":614:621  uint256 */\n              0x00\n                /* \"Contracts/SimpleStorage.sol\":640:655  favouriteNumber */\n              dup1\n              sload\n                /* \"Contracts/SimpleStorage.sol\":633:655  return favouriteNumber */\n              swap1\n              pop\n                /* \"Contracts/SimpleStorage.sol\":574:663  function retrieve() public view returns(uint256){\r... */\n              swap1\n              jump\t// out\n                /* \"Contracts/SimpleStorage.sol\":227:276  mapping(uint256 => string) public rollNoToNameMap */\n            tag_19:\n              mstore(0x20, 0x02)\n              dup1\n              0x00\n              mstore\n              keccak256(0x00, 0x40)\n              0x00\n              swap2\n              pop\n              swap1\n              pop\n              dup1\n              sload\n              tag_36\n              swap1\n              tag_37\n              jump\t// in\n            tag_36:\n              dup1\n              0x1f\n              add\n              0x20\n              dup1\n              swap2\n              div\n              mul\n              0x20\n              add\n              mload(0x40)\n              swap1\n              dup2\n              add\n              0x40\n              mstore\n              dup1\n              swap3\n              swap2\n              swap1\n              dup2\n              dup2\n              mstore\n              0x20\n              add\n              dup3\n              dup1\n              sload\n              tag_38\n              swap1\n              tag_37\n              jump\t// in\n            tag_38:\n              dup1\n              iszero\n              tag_39\n              jumpi\n              dup1\n              0x1f\n              lt\n              tag_40\n              jumpi\n              0x0100\n              dup1\n              dup4\n              sload\n              div\n              mul\n              dup4\n              mstore\n              swap2\n              0x20\n              add\n              swap2\n              jump(tag_39)\n            tag_40:\n              dup3\n              add\n              swap2\n              swap1\n              0x00\n              mstore\n              keccak256(0x00, 0x20)\n              swap1\n            tag_41:\n              dup2\n              sload\n              dup2\n              mstore\n              swap1\n              0x01\n              add\n              swap1\n              0x20\n              add\n              dup1\n              dup4\n              gt\n              tag_41\n              jumpi\n              dup3\n              swap1\n              sub\n              0x1f\n              and\n              dup3\n              add\n              swap2\n            tag_39:\n              pop\n              pop\n              pop\n              pop\n              pop\n              dup2\n              jump\t// out\n                /* \"Contracts/SimpleStorage.sol\":457:566  function store(uint256 _favouriteNumber) public virtual {\r... */\n            tag_24:\n                /* \"Contracts/SimpleStorage.sol\":542:558  _favouriteNumber */\n              dup1\n                /* \"Contracts/SimpleStorage.sol\":524:539  favouriteNumber */\n              0x00\n                /* \"Contracts/SimpleStorage.sol\":524:558  favouriteNumber = _favouriteNumber */\n              dup2\n              swap1\n              sstore\n              pop\n                /* \"Contracts/SimpleStorage.sol\":457:566  function store(uint256 _favouriteNumber) public virtual {\r... */\n              pop\n              jump\t// out\n                /* \"Contracts/SimpleStorage.sol\":671:812  function getStudent(uint256 _rollNo) public view returns(string memory, uint256){\r... */\n            tag_27:\n                /* \"Contracts/SimpleStorage.sol\":728:741  string memory */\n              0x60\n                /* \"Contracts/SimpleStorage.sol\":743:750  uint256 */\n              0x00\n                /* \"Contracts/SimpleStorage.sol\":770:785  rollNoToNameMap */\n              0x02\n                /* \"Contracts/SimpleStorage.sol\":770:794  rollNoToNameMap[_rollNo] */\n              0x00\n                /* \"Contracts/SimpleStorage.sol\":786:793  _rollNo */\n              dup5\n                /* \"Contracts/SimpleStorage.sol\":770:794  rollNoToNameMap[_rollNo] */\n              dup2\n              mstore\n              0x20\n              add\n              swap1\n              dup2\n              mstore\n              0x20\n              add\n              0x00\n              keccak256\n                /* \"Contracts/SimpleStorage.sol\":796:803  _rollNo */\n              dup4\n                /* \"Contracts/SimpleStorage.sol\":762:804  return (rollNoToNameMap[_rollNo], _rollNo) */\n              dup2\n              dup1\n              sload\n              tag_44\n              swap1\n              tag_37\n              jump\t// in\n            tag_44:\n              dup1\n              0x1f\n              add\n              0x20\n              dup1\n              swap2\n              div\n              mul\n              0x20\n              add\n              mload(0x40)\n              swap1\n              dup2\n              add\n              0x40\n              mstore\n              dup1\n              swap3\n              swap2\n              swap1\n              dup2\n              dup2\n              mstore\n              0x20\n              add\n              dup3\n              dup1\n              sload\n              tag_45\n              swap1\n              tag_37\n              jump\t// in\n            tag_45:\n              dup1\n              iszero\n              tag_46\n              jumpi\n              dup1\n              0x1f\n              lt\n              tag_47\n              jumpi\n              0x0100\n              dup1\n              dup4\n              sload\n              div\n              mul\n              dup4\n              mstore\n              swap2\n              0x20\n              add\n              swap2\n              jump(tag_46)\n            tag_47:\n              dup3\n              add\n              swap2\n              swap1\n              0x00\n              mstore\n              keccak256(0x00, 0x20)\n              swap1\n            tag_48:\n              dup2\n              sload\n              dup2\n              mstore\n              swap1\n              0x01\n              add\n              swap1\n              0x20\n              add\n              dup1\n              dup4\n              gt\n              tag_48\n              jumpi\n              dup3\n              swap1\n              sub\n              0x1f\n              and\n              dup3\n              add\n              swap2\n            tag_46:\n              pop\n              pop\n              pop\n              pop\n              pop\n              swap2\n              pop\n              swap2\n              pop\n              swap2\n              pop\n                /* \"Contracts/SimpleStorage.sol\":671:812  function getStudent(uint256 _rollNo) public view returns(string memory, uint256){\r... */\n              swap2\n              pop\n              swap2\n              jump\t// out\n            tag_33:\n              dup3\n              dup1\n              sload\n              tag_49\n              swap1\n              tag_37\n              jump\t// in\n            tag_49:\n              swap1\n              0x00\n              mstore\n              keccak256(0x00, 0x20)\n              swap1\n              0x1f\n              add\n              0x20\n              swap1\n              div\n              dup2\n              add\n              swap3\n              dup3\n              tag_51\n              jumpi\n              0x00\n              dup6\n              sstore\n              jump(tag_50)\n            tag_51:\n              dup3\n              0x1f\n              lt\n              tag_52\n              jumpi\n              dup1\n              mload\n              not(0xff)\n              and\n              dup4\n              dup1\n              add\n              or\n              dup6\n              sstore\n              jump(tag_50)\n            tag_52:\n              dup3\n              dup1\n              add\n              0x01\n              add\n              dup6\n              sstore\n              dup3\n              iszero\n              tag_50\n              jumpi\n              swap2\n              dup3\n              add\n            tag_53:\n              dup3\n              dup2\n              gt\n              iszero\n              tag_54\n              jumpi\n              dup3\n              mload\n              dup3\n              sstore\n              swap2\n              0x20\n              add\n              swap2\n              swap1\n              0x01\n              add\n              swap1\n              jump(tag_53)\n            tag_54:\n            tag_50:\n              pop\n              swap1\n              pop\n              tag_55\n              swap2\n              swap1\n              tag_56\n              jump\t// in\n            tag_55:\n              pop\n              swap1\n              jump\t// out\n            tag_56:\n            tag_57:\n              dup1\n              dup3\n              gt\n              iszero\n              tag_58\n              jumpi\n              0x00\n              dup2\n              0x00\n              swap1\n              sstore\n              pop\n              0x01\n              add\n              jump(tag_57)\n            tag_58:\n              pop\n              swap1\n              jump\t// out\n                /* \"#utility.yul\":7:419   */\n            tag_60:\n                /* \"#utility.yul\":85:90   */\n              0x00\n                /* \"#utility.yul\":110:176   */\n              tag_62\n                /* \"#utility.yul\":126:175   */\n              tag_63\n                /* \"#utility.yul\":168:174   */\n              dup5\n                /* \"#utility.yul\":126:175   */\n              tag_64\n              jump\t// in\n            tag_63:\n                /* \"#utility.yul\":110:176   */\n              tag_65\n              jump\t// in\n            tag_62:\n                /* \"#utility.yul\":101:176   */\n              swap1\n              pop\n                /* \"#utility.yul\":199:205   */\n              dup3\n                /* \"#utility.yul\":192:197   */\n              dup2\n                /* \"#utility.yul\":185:206   */\n              mstore\n                /* \"#utility.yul\":237:241   */\n              0x20\n                /* \"#utility.yul\":230:235   */\n              dup2\n                /* \"#utility.yul\":226:242   */\n              add\n                /* \"#utility.yul\":275:278   */\n              dup5\n                /* \"#utility.yul\":266:272   */\n              dup5\n                /* \"#utility.yul\":261:264   */\n              dup5\n                /* \"#utility.yul\":257:273   */\n              add\n                /* \"#utility.yul\":254:279   */\n              gt\n                /* \"#utility.yul\":251:363   */\n              iszero\n              tag_66\n              jumpi\n                /* \"#utility.yul\":282:361   */\n              tag_67\n              tag_68\n              jump\t// in\n            tag_67:\n                /* \"#utility.yul\":251:363   */\n            tag_66:\n                /* \"#utility.yul\":372:413   */\n              tag_69\n                /* \"#utility.yul\":406:412   */\n              dup5\n                /* \"#utility.yul\":401:404   */\n              dup3\n                /* \"#utility.yul\":396:399   */\n              dup6\n                /* \"#utility.yul\":372:413   */\n              tag_70\n              jump\t// in\n            tag_69:\n                /* \"#utility.yul\":91:419   */\n              pop\n                /* \"#utility.yul\":7:419   */\n              swap4\n              swap3\n              pop\n              pop\n              pop\n              jump\t// out\n                /* \"#utility.yul\":439:779   */\n            tag_71:\n                /* \"#utility.yul\":495:500   */\n              0x00\n                /* \"#utility.yul\":544:547   */\n              dup3\n                /* \"#utility.yul\":537:541   */\n              0x1f\n                /* \"#utility.yul\":529:535   */\n              dup4\n                /* \"#utility.yul\":525:542   */\n              add\n                /* \"#utility.yul\":521:548   */\n              slt\n                /* \"#utility.yul\":511:633   */\n              tag_73\n              jumpi\n                /* \"#utility.yul\":552:631   */\n              tag_74\n              tag_75\n              jump\t// in\n            tag_74:\n                /* \"#utility.yul\":511:633   */\n            tag_73:\n                /* \"#utility.yul\":669:675   */\n              dup2\n                /* \"#utility.yul\":656:676   */\n              calldataload\n                /* \"#utility.yul\":694:773   */\n              tag_76\n                /* \"#utility.yul\":769:772   */\n              dup5\n                /* \"#utility.yul\":761:767   */\n              dup3\n                /* \"#utility.yul\":754:758   */\n              0x20\n                /* \"#utility.yul\":746:752   */\n              dup7\n                /* \"#utility.yul\":742:759   */\n              add\n                /* \"#utility.yul\":694:773   */\n              tag_60\n              jump\t// in\n            tag_76:\n                /* \"#utility.yul\":685:773   */\n              swap2\n              pop\n                /* \"#utility.yul\":501:779   */\n              pop\n                /* \"#utility.yul\":439:779   */\n              swap3\n              swap2\n              pop\n              pop\n              jump\t// out\n                /* \"#utility.yul\":785:924   */\n            tag_77:\n                /* \"#utility.yul\":831:836   */\n              0x00\n                /* \"#utility.yul\":869:875   */\n              dup2\n                /* \"#utility.yul\":856:876   */\n              calldataload\n                /* \"#utility.yul\":847:876   */\n              swap1\n              pop\n                /* \"#utility.yul\":885:918   */\n              tag_79\n                /* \"#utility.yul\":912:917   */\n              dup2\n                /* \"#utility.yul\":885:918   */\n              tag_80\n              jump\t// in\n            tag_79:\n                /* \"#utility.yul\":785:924   */\n              swap3\n              swap2\n              pop\n              pop\n              jump\t// out\n                /* \"#utility.yul\":930:1584   */\n            tag_10:\n                /* \"#utility.yul\":1008:1014   */\n              0x00\n                /* \"#utility.yul\":1016:1022   */\n              dup1\n                /* \"#utility.yul\":1065:1067   */\n              0x40\n                /* \"#utility.yul\":1053:1062   */\n              dup4\n                /* \"#utility.yul\":1044:1051   */\n              dup6\n                /* \"#utility.yul\":1040:1063   */\n              sub\n                /* \"#utility.yul\":1036:1068   */\n              slt\n                /* \"#utility.yul\":1033:1152   */\n              iszero\n              tag_82\n              jumpi\n                /* \"#utility.yul\":1071:1150   */\n              tag_83\n              tag_84\n              jump\t// in\n            tag_83:\n                /* \"#utility.yul\":1033:1152   */\n            tag_82:\n                /* \"#utility.yul\":1219:1220   */\n              0x00\n                /* \"#utility.yul\":1208:1217   */\n              dup4\n                /* \"#utility.yul\":1204:1221   */\n              add\n                /* \"#utility.yul\":1191:1222   */\n              calldataload\n                /* \"#utility.yul\":1249:1267   */\n              0xffffffffffffffff\n                /* \"#utility.yul\":1241:1247   */\n              dup2\n                /* \"#utility.yul\":1238:1268   */\n              gt\n                /* \"#utility.yul\":1235:1352   */\n              iszero\n              tag_85\n              jumpi\n                /* \"#utility.yul\":1271:1350   */\n              tag_86\n              tag_87\n              jump\t// in\n            tag_86:\n                /* \"#utility.yul\":1235:1352   */\n            tag_85:\n                /* \"#utility.yul\":1376:1439   */\n              tag_88\n                /* \"#utility.yul\":1431:1438   */\n              dup6\n                /* \"#utility.yul\":1422:1428   */\n              dup3\n                /* \"#utility.yul\":1411:1420   */\n              dup7\n                /* \"#utility.yul\":1407:1429   */\n              add\n                /* \"#utility.yul\":1376:1439   */\n              tag_71\n              jump\t// in\n            tag_88:\n                /* \"#utility.yul\":1366:1439   */\n              swap3\n              pop\n                /* \"#utility.yul\":1162:1449   */\n              pop\n                /* \"#utility.yul\":1488:1490   */\n              0x20\n                /* \"#utility.yul\":1514:1567   */\n              tag_89\n                /* \"#utility.yul\":1559:1566   */\n              dup6\n                /* \"#utility.yul\":1550:1556   */\n              dup3\n                /* \"#utility.yul\":1539:1548   */\n              dup7\n                /* \"#utility.yul\":1535:1557   */\n              add\n                /* \"#utility.yul\":1514:1567   */\n              tag_77\n              jump\t// in\n            tag_89:\n                /* \"#utility.yul\":1504:1567   */\n              swap2\n              pop\n                /* \"#utility.yul\":1459:1577   */\n              pop\n                /* \"#utility.yul\":930:1584   */\n              swap3\n              pop\n              swap3\n              swap1\n              pop\n              jump\t// out\n                /* \"#utility.yul\":1590:1919   */\n            tag_18:\n                /* \"#utility.yul\":1649:1655   */\n              0x00\n                /* \"#utility.yul\":1698:1700   */\n              0x20\n                /* \"#utility.yul\":1686:1695   */\n              dup3\n                /* \"#utility.yul\":1677:1684   */\n              dup5\n                /* \"#utility.yul\":1673:1696   */\n              sub\n                /* \"#utility.yul\":1669:1701   */\n              slt\n                /* \"#utility.yul\":1666:1785   */\n              iszero\n              tag_91\n              jumpi\n                /* \"#utility.yul\":1704:1783   */\n              tag_92\n              tag_84\n              jump\t// in\n            tag_92:\n                /* \"#utility.yul\":1666:1785   */\n            tag_91:\n                /* \"#utility.yul\":1824:1825   */\n              0x00\n                /* \"#utility.yul\":1849:1902   */\n              tag_93\n                /* \"#utility.yul\":1894:1901   */\n              dup5\n                /* \"#utility.yul\":1885:1891   */\n              dup3\n                /* \"#utility.yul\":1874:1883   */\n              dup6\n                /* \"#utility.yul\":1870:1892   */\n              add\n                /* \"#utility.yul\":1849:1902   */\n              tag_77\n              jump\t// in\n            tag_93:\n                /* \"#utility.yul\":1839:1902   */\n              swap2\n              pop\n                /* \"#utility.yul\":1795:1912   */\n              pop\n                /* \"#utility.yul\":1590:1919   */\n              swap3\n              swap2\n              pop\n              pop\n              jump\t// out\n                /* \"#utility.yul\":1925:2289   */\n            tag_94:\n                /* \"#utility.yul\":2013:2016   */\n              0x00\n                /* \"#utility.yul\":2041:2080   */\n              tag_96\n                /* \"#utility.yul\":2074:2079   */\n              dup3\n                /* \"#utility.yul\":2041:2080   */\n              tag_97\n              jump\t// in\n            tag_96:\n                /* \"#utility.yul\":2096:2167   */\n              tag_98\n                /* \"#utility.yul\":2160:2166   */\n              dup2\n                /* \"#utility.yul\":2155:2158   */\n              dup6\n                /* \"#utility.yul\":2096:2167   */\n              tag_99\n              jump\t// in\n            tag_98:\n                /* \"#utility.yul\":2089:2167   */\n              swap4\n              pop\n                /* \"#utility.yul\":2176:2228   */\n              tag_100\n                /* \"#utility.yul\":2221:2227   */\n              dup2\n                /* \"#utility.yul\":2216:2219   */\n              dup6\n                /* \"#utility.yul\":2209:2213   */\n              0x20\n                /* \"#utility.yul\":2202:2207   */\n              dup7\n                /* \"#utility.yul\":2198:2214   */\n              add\n                /* \"#utility.yul\":2176:2228   */\n              tag_101\n              jump\t// in\n            tag_100:\n                /* \"#utility.yul\":2253:2282   */\n              tag_102\n                /* \"#utility.yul\":2275:2281   */\n              dup2\n                /* \"#utility.yul\":2253:2282   */\n              tag_103\n              jump\t// in\n            tag_102:\n                /* \"#utility.yul\":2248:2251   */\n              dup5\n                /* \"#utility.yul\":2244:2283   */\n              add\n                /* \"#utility.yul\":2237:2283   */\n              swap2\n              pop\n                /* \"#utility.yul\":2017:2289   */\n              pop\n                /* \"#utility.yul\":1925:2289   */\n              swap3\n              swap2\n              pop\n              pop\n              jump\t// out\n                /* \"#utility.yul\":2295:2413   */\n            tag_104:\n                /* \"#utility.yul\":2382:2406   */\n              tag_106\n                /* \"#utility.yul\":2400:2405   */\n              dup2\n                /* \"#utility.yul\":2382:2406   */\n              tag_107\n              jump\t// in\n            tag_106:\n                /* \"#utility.yul\":2377:2380   */\n              dup3\n                /* \"#utility.yul\":2370:2407   */\n              mstore\n                /* \"#utility.yul\":2295:2413   */\n              pop\n              pop\n              jump\t// out\n                /* \"#utility.yul\":2419:2732   */\n            tag_21:\n                /* \"#utility.yul\":2532:2536   */\n              0x00\n                /* \"#utility.yul\":2570:2572   */\n              0x20\n                /* \"#utility.yul\":2559:2568   */\n              dup3\n                /* \"#utility.yul\":2555:2573   */\n              add\n                /* \"#utility.yul\":2547:2573   */\n              swap1\n              pop\n                /* \"#utility.yul\":2619:2628   */\n              dup2\n                /* \"#utility.yul\":2613:2617   */\n              dup2\n                /* \"#utility.yul\":2609:2629   */\n              sub\n                /* \"#utility.yul\":2605:2606   */\n              0x00\n                /* \"#utility.yul\":2594:2603   */\n              dup4\n                /* \"#utility.yul\":2590:2607   */\n              add\n                /* \"#utility.yul\":2583:2630   */\n              mstore\n                /* \"#utility.yul\":2647:2725   */\n              tag_109\n                /* \"#utility.yul\":2720:2724   */\n              dup2\n                /* \"#utility.yul\":2711:2717   */\n              dup5\n                /* \"#utility.yul\":2647:2725   */\n              tag_94\n              jump\t// in\n            tag_109:\n                /* \"#utility.yul\":2639:2725   */\n              swap1\n              pop\n                /* \"#utility.yul\":2419:2732   */\n              swap3\n              swap2\n              pop\n              pop\n              jump\t// out\n                /* \"#utility.yul\":2738:3161   */\n            tag_29:\n                /* \"#utility.yul\":2879:2883   */\n              0x00\n                /* \"#utility.yul\":2917:2919   */\n              0x40\n                /* \"#utility.yul\":2906:2915   */\n              dup3\n                /* \"#utility.yul\":2902:2920   */\n              add\n                /* \"#utility.yul\":2894:2920   */\n              swap1\n              pop\n                /* \"#utility.yul\":2966:2975   */\n              dup2\n                /* \"#utility.yul\":2960:2964   */\n              dup2\n                /* \"#utility.yul\":2956:2976   */\n              sub\n                /* \"#utility.yul\":2952:2953   */\n              0x00\n                /* \"#utility.yul\":2941:2950   */\n              dup4\n                /* \"#utility.yul\":2937:2954   */\n              add\n                /* \"#utility.yul\":2930:2977   */\n              mstore\n                /* \"#utility.yul\":2994:3072   */\n              tag_111\n                /* \"#utility.yul\":3067:3071   */\n              dup2\n                /* \"#utility.yul\":3058:3064   */\n              dup6\n                /* \"#utility.yul\":2994:3072   */\n              tag_94\n              jump\t// in\n            tag_111:\n                /* \"#utility.yul\":2986:3072   */\n              swap1\n              pop\n                /* \"#utility.yul\":3082:3154   */\n              tag_112\n                /* \"#utility.yul\":3150:3152   */\n              0x20\n                /* \"#utility.yul\":3139:3148   */\n              dup4\n                /* \"#utility.yul\":3135:3153   */\n              add\n                /* \"#utility.yul\":3126:3132   */\n              dup5\n                /* \"#utility.yul\":3082:3154   */\n              tag_104\n              jump\t// in\n            tag_112:\n                /* \"#utility.yul\":2738:3161   */\n              swap4\n              swap3\n              pop\n              pop\n              pop\n              jump\t// out\n                /* \"#utility.yul\":3167:3389   */\n            tag_15:\n                /* \"#utility.yul\":3260:3264   */\n              0x00\n                /* \"#utility.yul\":3298:3300   */\n              0x20\n                /* \"#utility.yul\":3287:3296   */\n              dup3\n                /* \"#utility.yul\":3283:3301   */\n              add\n                /* \"#utility.yul\":3275:3301   */\n              swap1\n              pop\n                /* \"#utility.yul\":3311:3382   */\n              tag_114\n                /* \"#utility.yul\":3379:3380   */\n              0x00\n                /* \"#utility.yul\":3368:3377   */\n              dup4\n                /* \"#utility.yul\":3364:3381   */\n              add\n                /* \"#utility.yul\":3355:3361   */\n              dup5\n                /* \"#utility.yul\":3311:3382   */\n              tag_104\n              jump\t// in\n            tag_114:\n                /* \"#utility.yul\":3167:3389   */\n              swap3\n              swap2\n              pop\n              pop\n              jump\t// out\n                /* \"#utility.yul\":3395:3524   */\n            tag_65:\n                /* \"#utility.yul\":3429:3435   */\n              0x00\n                /* \"#utility.yul\":3456:3476   */\n              tag_116\n              tag_117\n              jump\t// in\n            tag_116:\n                /* \"#utility.yul\":3446:3476   */\n              swap1\n              pop\n                /* \"#utility.yul\":3485:3518   */\n              tag_118\n                /* \"#utility.yul\":3513:3517   */\n              dup3\n                /* \"#utility.yul\":3505:3511   */\n              dup3\n                /* \"#utility.yul\":3485:3518   */\n              tag_119\n              jump\t// in\n            tag_118:\n                /* \"#utility.yul\":3395:3524   */\n              swap2\n              swap1\n              pop\n              jump\t// out\n                /* \"#utility.yul\":3530:3605   */\n            tag_117:\n                /* \"#utility.yul\":3563:3569   */\n              0x00\n                /* \"#utility.yul\":3596:3598   */\n              0x40\n                /* \"#utility.yul\":3590:3599   */\n              mload\n                /* \"#utility.yul\":3580:3599   */\n              swap1\n              pop\n                /* \"#utility.yul\":3530:3605   */\n              swap1\n              jump\t// out\n                /* \"#utility.yul\":3611:3919   */\n            tag_64:\n                /* \"#utility.yul\":3673:3677   */\n              0x00\n                /* \"#utility.yul\":3763:3781   */\n              0xffffffffffffffff\n                /* \"#utility.yul\":3755:3761   */\n              dup3\n                /* \"#utility.yul\":3752:3782   */\n              gt\n                /* \"#utility.yul\":3749:3805   */\n              iszero\n              tag_122\n              jumpi\n                /* \"#utility.yul\":3785:3803   */\n              tag_123\n              tag_124\n              jump\t// in\n            tag_123:\n                /* \"#utility.yul\":3749:3805   */\n            tag_122:\n                /* \"#utility.yul\":3823:3852   */\n              tag_125\n                /* \"#utility.yul\":3845:3851   */\n              dup3\n                /* \"#utility.yul\":3823:3852   */\n              tag_103\n              jump\t// in\n            tag_125:\n                /* \"#utility.yul\":3815:3852   */\n              swap1\n              pop\n                /* \"#utility.yul\":3907:3911   */\n              0x20\n                /* \"#utility.yul\":3901:3905   */\n              dup2\n                /* \"#utility.yul\":3897:3912   */\n              add\n                /* \"#utility.yul\":3889:3912   */\n              swap1\n              pop\n                /* \"#utility.yul\":3611:3919   */\n              swap2\n              swap1\n              pop\n              jump\t// out\n                /* \"#utility.yul\":3925:4024   */\n            tag_97:\n                /* \"#utility.yul\":3977:3983   */\n              0x00\n                /* \"#utility.yul\":4011:4016   */\n              dup2\n                /* \"#utility.yul\":4005:4017   */\n              mload\n                /* \"#utility.yul\":3995:4017   */\n              swap1\n              pop\n                /* \"#utility.yul\":3925:4024   */\n              swap2\n              swap1\n              pop\n              jump\t// out\n                /* \"#utility.yul\":4030:4199   */\n            tag_99:\n                /* \"#utility.yul\":4114:4125   */\n              0x00\n                /* \"#utility.yul\":4148:4154   */\n              dup3\n                /* \"#utility.yul\":4143:4146   */\n              dup3\n                /* \"#utility.yul\":4136:4155   */\n              mstore\n                /* \"#utility.yul\":4188:4192   */\n              0x20\n                /* \"#utility.yul\":4183:4186   */\n              dup3\n                /* \"#utility.yul\":4179:4193   */\n              add\n                /* \"#utility.yul\":4164:4193   */\n              swap1\n              pop\n                /* \"#utility.yul\":4030:4199   */\n              swap3\n              swap2\n              pop\n              pop\n              jump\t// out\n                /* \"#utility.yul\":4205:4282   */\n            tag_107:\n                /* \"#utility.yul\":4242:4249   */\n              0x00\n                /* \"#utility.yul\":4271:4276   */\n              dup2\n                /* \"#utility.yul\":4260:4276   */\n              swap1\n              pop\n                /* \"#utility.yul\":4205:4282   */\n              swap2\n              swap1\n              pop\n              jump\t// out\n                /* \"#utility.yul\":4288:4442   */\n            tag_70:\n                /* \"#utility.yul\":4372:4378   */\n              dup3\n                /* \"#utility.yul\":4367:4370   */\n              dup2\n                /* \"#utility.yul\":4362:4365   */\n              dup4\n                /* \"#utility.yul\":4349:4379   */\n              calldatacopy\n                /* \"#utility.yul\":4434:4435   */\n              0x00\n                /* \"#utility.yul\":4425:4431   */\n              dup4\n                /* \"#utility.yul\":4420:4423   */\n              dup4\n                /* \"#utility.yul\":4416:4432   */\n              add\n                /* \"#utility.yul\":4409:4436   */\n              mstore\n                /* \"#utility.yul\":4288:4442   */\n              pop\n              pop\n              pop\n              jump\t// out\n                /* \"#utility.yul\":4448:4755   */\n            tag_101:\n                /* \"#utility.yul\":4516:4517   */\n              0x00\n                /* \"#utility.yul\":4526:4639   */\n            tag_131:\n                /* \"#utility.yul\":4540:4546   */\n              dup4\n                /* \"#utility.yul\":4537:4538   */\n              dup2\n                /* \"#utility.yul\":4534:4547   */\n              lt\n                /* \"#utility.yul\":4526:4639   */\n              iszero\n              tag_133\n              jumpi\n                /* \"#utility.yul\":4625:4626   */\n              dup1\n                /* \"#utility.yul\":4620:4623   */\n              dup3\n                /* \"#utility.yul\":4616:4627   */\n              add\n                /* \"#utility.yul\":4610:4628   */\n              mload\n                /* \"#utility.yul\":4606:4607   */\n              dup2\n                /* \"#utility.yul\":4601:4604   */\n              dup5\n                /* \"#utility.yul\":4597:4608   */\n              add\n                /* \"#utility.yul\":4590:4629   */\n              mstore\n                /* \"#utility.yul\":4562:4564   */\n              0x20\n                /* \"#utility.yul\":4559:4560   */\n              dup2\n                /* \"#utility.yul\":4555:4565   */\n              add\n                /* \"#utility.yul\":4550:4565   */\n              swap1\n              pop\n                /* \"#utility.yul\":4526:4639   */\n              jump(tag_131)\n            tag_133:\n                /* \"#utility.yul\":4657:4663   */\n              dup4\n                /* \"#utility.yul\":4654:4655   */\n              dup2\n                /* \"#utility.yul\":4651:4664   */\n              gt\n                /* \"#utility.yul\":4648:4749   */\n              iszero\n              tag_134\n              jumpi\n                /* \"#utility.yul\":4737:4738   */\n              0x00\n                /* \"#utility.yul\":4728:4734   */\n              dup5\n                /* \"#utility.yul\":4723:4726   */\n              dup5\n                /* \"#utility.yul\":4719:4735   */\n              add\n                /* \"#utility.yul\":4712:4739   */\n              mstore\n                /* \"#utility.yul\":4648:4749   */\n            tag_134:\n                /* \"#utility.yul\":4497:4755   */\n              pop\n                /* \"#utility.yul\":4448:4755   */\n              pop\n              pop\n              pop\n              jump\t// out\n                /* \"#utility.yul\":4761:5081   */\n            tag_37:\n                /* \"#utility.yul\":4805:4811   */\n              0x00\n                /* \"#utility.yul\":4842:4843   */\n              0x02\n                /* \"#utility.yul\":4836:4840   */\n              dup3\n                /* \"#utility.yul\":4832:4844   */\n              div\n                /* \"#utility.yul\":4822:4844   */\n              swap1\n              pop\n                /* \"#utility.yul\":4889:4890   */\n              0x01\n                /* \"#utility.yul\":4883:4887   */\n              dup3\n                /* \"#utility.yul\":4879:4891   */\n              and\n                /* \"#utility.yul\":4910:4928   */\n              dup1\n                /* \"#utility.yul\":4900:4981   */\n              tag_136\n              jumpi\n                /* \"#utility.yul\":4966:4970   */\n              0x7f\n                /* \"#utility.yul\":4958:4964   */\n              dup3\n                /* \"#utility.yul\":4954:4971   */\n              and\n                /* \"#utility.yul\":4944:4971   */\n              swap2\n              pop\n                /* \"#utility.yul\":4900:4981   */\n            tag_136:\n                /* \"#utility.yul\":5028:5030   */\n              0x20\n                /* \"#utility.yul\":5020:5026   */\n              dup3\n                /* \"#utility.yul\":5017:5031   */\n              lt\n                /* \"#utility.yul\":4997:5015   */\n              dup2\n                /* \"#utility.yul\":4994:5032   */\n              eq\n                /* \"#utility.yul\":4991:5075   */\n              iszero\n              tag_137\n              jumpi\n                /* \"#utility.yul\":5047:5065   */\n              tag_138\n              tag_139\n              jump\t// in\n            tag_138:\n                /* \"#utility.yul\":4991:5075   */\n            tag_137:\n                /* \"#utility.yul\":4812:5081   */\n              pop\n                /* \"#utility.yul\":4761:5081   */\n              swap2\n              swap1\n              pop\n              jump\t// out\n                /* \"#utility.yul\":5087:5368   */\n            tag_119:\n                /* \"#utility.yul\":5170:5197   */\n              tag_141\n                /* \"#utility.yul\":5192:5196   */\n              dup3\n                /* \"#utility.yul\":5170:5197   */\n              tag_103\n              jump\t// in\n            tag_141:\n                /* \"#utility.yul\":5162:5168   */\n              dup2\n                /* \"#utility.yul\":5158:5198   */\n              add\n                /* \"#utility.yul\":5300:5306   */\n              dup2\n                /* \"#utility.yul\":5288:5298   */\n              dup2\n                /* \"#utility.yul\":5285:5307   */\n              lt\n                /* \"#utility.yul\":5264:5282   */\n              0xffffffffffffffff\n                /* \"#utility.yul\":5252:5262   */\n              dup3\n                /* \"#utility.yul\":5249:5283   */\n              gt\n                /* \"#utility.yul\":5246:5308   */\n              or\n                /* \"#utility.yul\":5243:5331   */\n              iszero\n              tag_142\n              jumpi\n                /* \"#utility.yul\":5311:5329   */\n              tag_143\n              tag_124\n              jump\t// in\n            tag_143:\n                /* \"#utility.yul\":5243:5331   */\n            tag_142:\n                /* \"#utility.yul\":5351:5361   */\n              dup1\n                /* \"#utility.yul\":5347:5349   */\n              0x40\n                /* \"#utility.yul\":5340:5362   */\n              mstore\n                /* \"#utility.yul\":5130:5368   */\n              pop\n                /* \"#utility.yul\":5087:5368   */\n              pop\n              pop\n              jump\t// out\n                /* \"#utility.yul\":5374:5554   */\n            tag_139:\n                /* \"#utility.yul\":5422:5499   */\n              0x4e487b7100000000000000000000000000000000000000000000000000000000\n                /* \"#utility.yul\":5419:5420   */\n              0x00\n                /* \"#utility.yul\":5412:5500   */\n              mstore\n                /* \"#utility.yul\":5519:5523   */\n              0x22\n                /* \"#utility.yul\":5516:5517   */\n              0x04\n                /* \"#utility.yul\":5509:5524   */\n              mstore\n                /* \"#utility.yul\":5543:5547   */\n              0x24\n                /* \"#utility.yul\":5540:5541   */\n              0x00\n                /* \"#utility.yul\":5533:5548   */\n              revert\n                /* \"#utility.yul\":5560:5740   */\n            tag_124:\n                /* \"#utility.yul\":5608:5685   */\n              0x4e487b7100000000000000000000000000000000000000000000000000000000\n                /* \"#utility.yul\":5605:5606   */\n              0x00\n                /* \"#utility.yul\":5598:5686   */\n              mstore\n                /* \"#utility.yul\":5705:5709   */\n              0x41\n                /* \"#utility.yul\":5702:5703   */\n              0x04\n                /* \"#utility.yul\":5695:5710   */\n              mstore\n                /* \"#utility.yul\":5729:5733   */\n              0x24\n                /* \"#utility.yul\":5726:5727   */\n              0x00\n                /* \"#utility.yul\":5719:5734   */\n              revert\n                /* \"#utility.yul\":5746:5863   */\n            tag_75:\n                /* \"#utility.yul\":5855:5856   */\n              0x00\n                /* \"#utility.yul\":5852:5853   */\n              dup1\n                /* \"#utility.yul\":5845:5857   */\n              revert\n                /* \"#utility.yul\":5869:5986   */\n            tag_68:\n                /* \"#utility.yul\":5978:5979   */\n              0x00\n                /* \"#utility.yul\":5975:5976   */\n              dup1\n                /* \"#utility.yul\":5968:5980   */\n              revert\n                /* \"#utility.yul\":5992:6109   */\n            tag_87:\n                /* \"#utility.yul\":6101:6102   */\n              0x00\n                /* \"#utility.yul\":6098:6099   */\n              dup1\n                /* \"#utility.yul\":6091:6103   */\n              revert\n                /* \"#utility.yul\":6115:6232   */\n            tag_84:\n                /* \"#utility.yul\":6224:6225   */\n              0x00\n                /* \"#utility.yul\":6221:6222   */\n              dup1\n                /* \"#utility.yul\":6214:6226   */\n              revert\n                /* \"#utility.yul\":6238:6340   */\n            tag_103:\n                /* \"#utility.yul\":6279:6285   */\n              0x00\n                /* \"#utility.yul\":6330:6332   */\n              0x1f\n                /* \"#utility.yul\":6326:6333   */\n              not\n                /* \"#utility.yul\":6321:6323   */\n              0x1f\n                /* \"#utility.yul\":6314:6319   */\n              dup4\n                /* \"#utility.yul\":6310:6324   */\n              add\n                /* \"#utility.yul\":6306:6334   */\n              and\n                /* \"#utility.yul\":6296:6334   */\n              swap1\n              pop\n                /* \"#utility.yul\":6238:6340   */\n              swap2\n              swap1\n              pop\n              jump\t// out\n                /* \"#utility.yul\":6346:6468   */\n            tag_80:\n                /* \"#utility.yul\":6419:6443   */\n              tag_152\n                /* \"#utility.yul\":6437:6442   */\n              dup2\n                /* \"#utility.yul\":6419:6443   */\n              tag_107\n              jump\t// in\n            tag_152:\n                /* \"#utility.yul\":6412:6417   */\n              dup2\n                /* \"#utility.yul\":6409:6444   */\n              eq\n                /* \"#utility.yul\":6399:6462   */\n              tag_153\n              jumpi\n                /* \"#utility.yul\":6458:6459   */\n              0x00\n                /* \"#utility.yul\":6455:6456   */\n              dup1\n                /* \"#utility.yul\":6448:6460   */\n              revert\n                /* \"#utility.yul\":6399:6462   */\n            tag_153:\n                /* \"#utility.yul\":6346:6468   */\n              pop\n              jump\t// out\n\n            auxdata: 0xa2646970667358221220ac740752a4cbfdd98b76aa62b0720cb5acbf3ba99f13a082618c9991e1b52e0864736f6c63430008070033\n        }\n    }\n\n    auxdata: 0xa26469706673582212209c8f5672691d212a6c44c12ab1f956094ec81df12c9cae177c246cdd43b1861864736f6c63430008070033\n}\n",
				"bytecode": {
					"linkReferences": {},
					"object": "608060405234801561001057600080fd5b506111df806100206000396000f3fe608060405234801561001057600080fd5b50600436106100625760003560e01c806340d66b3b146100675780634bffb6be1461007157806364591bf1146100a15780637574ede8146100d157806383eab6a2146100ed578063deae2adc14610109575b600080fd5b61006f61013a565b005b61008b60048036038101906100869190610698565b610227565b6040516100989190610830565b60405180910390f35b6100bb60048036038101906100b69190610698565b6102ec565b6040516100c891906107e5565b60405180910390f35b6100eb60048036038101906100e691906106f2565b61032b565b005b61010760048036038101906101029190610698565b6103bc565b005b610123600480360381019061011e919061074e565b61044a565b604051610131929190610800565b60405180910390f35b60405161014690610525565b604051809103906000f080158015610162573d6000803e3d6000fd5b506000806101000a81548173ffffffffffffffffffffffffffffffffffffffff021916908373ffffffffffffffffffffffffffffffffffffffff160217905550600160008054906101000a900473ffffffffffffffffffffffffffffffffffffffff169080600181540180825580915050600190039060005260206000200160009091909190916101000a81548173ffffffffffffffffffffffffffffffffffffffff021916908373ffffffffffffffffffffffffffffffffffffffff160217905550565b60006001828154811061023d5761023c610990565b5b9060005260206000200160009054906101000a900473ffffffffffffffffffffffffffffffffffffffff1673ffffffffffffffffffffffffffffffffffffffff16632e64cec16040518163ffffffff1660e01b815260040160206040518083038186803b1580156102ad57600080fd5b505afa1580156102c1573d6000803e3d6000fd5b505050506040513d601f19601f820116820180604052508101906102e591906106c5565b9050919050565b600181815481106102fc57600080fd5b906000526020600020016000915054906101000a900473ffffffffffffffffffffffffffffffffffffffff1681565b60008054906101000a900473ffffffffffffffffffffffffffffffffffffffff1673ffffffffffffffffffffffffffffffffffffffff16630e5eeef782846040518363ffffffff1660e01b8152600401610386929190610800565b600060405180830381600087803b1580156103a057600080fd5b505af11580156103b4573d6000803e3d6000fd5b505050505050565b60008054906101000a900473ffffffffffffffffffffffffffffffffffffffff1673ffffffffffffffffffffffffffffffffffffffff16636057361d826040518263ffffffff1660e01b81526004016104159190610830565b600060405180830381600087803b15801561042f57600080fd5b505af1158015610443573d6000803e3d6000fd5b5050505050565b606060006001848154811061046257610461610990565b5b9060005260206000200160009054906101000a900473ffffffffffffffffffffffffffffffffffffffff1673ffffffffffffffffffffffffffffffffffffffff1663642f9163846040518263ffffffff1660e01b81526004016104c59190610830565b60006040518083038186803b1580156104dd57600080fd5b505afa1580156104f1573d6000803e3d6000fd5b505050506040513d6000823e3d601f19601f8201168201806040525081019061051a919061063c565b915091509250929050565b61077f80610a2b83390190565b600061054561054084610870565b61084b565b905082815260208101848484011115610561576105606109f3565b5b61056c84828561091d565b509392505050565b600061058761058284610870565b61084b565b9050828152602081018484840111156105a3576105a26109f3565b5b6105ae84828561092c565b509392505050565b600082601f8301126105cb576105ca6109ee565b5b81356105db848260208601610532565b91505092915050565b600082601f8301126105f9576105f86109ee565b5b8151610609848260208601610574565b91505092915050565b60008135905061062181610a13565b92915050565b60008151905061063681610a13565b92915050565b60008060408385031215610653576106526109fd565b5b600083015167ffffffffffffffff811115610671576106706109f8565b5b61067d858286016105e4565b925050602061068e85828601610627565b9150509250929050565b6000602082840312156106ae576106ad6109fd565b5b60006106bc84828501610612565b91505092915050565b6000602082840312156106db576106da6109fd565b5b60006106e984828501610627565b91505092915050565b60008060408385031215610709576107086109fd565b5b600061071785828601610612565b925050602083013567ffffffffffffffff811115610738576107376109f8565b5b610744858286016105b6565b9150509250929050565b60008060408385031215610765576107646109fd565b5b600061077385828601610612565b925050602061078485828601610612565b9150509250929050565b610797816108e7565b82525050565b60006107a8826108a1565b6107b281856108ac565b93506107c281856020860161092c565b6107cb81610a02565b840191505092915050565b6107df816108dd565b82525050565b60006020820190506107fa600083018461078e565b92915050565b6000604082019050818103600083015261081a818561079d565b905061082960208301846107d6565b9392505050565b600060208201905061084560008301846107d6565b92915050565b6000610855610866565b9050610861828261095f565b919050565b6000604051905090565b600067ffffffffffffffff82111561088b5761088a6109bf565b5b61089482610a02565b9050602081019050919050565b600081519050919050565b600082825260208201905092915050565b600073ffffffffffffffffffffffffffffffffffffffff82169050919050565b6000819050919050565b60006108f2826108f9565b9050919050565b60006109048261090b565b9050919050565b6000610916826108bd565b9050919050565b82818337600083830152505050565b60005b8381101561094a57808201518184015260208101905061092f565b83811115610959576000848401525b50505050565b61096882610a02565b810181811067ffffffffffffffff82111715610987576109866109bf565b5b80604052505050565b7f4e487b7100000000000000000000000000000000000000000000000000000000600052603260045260246000fd5b7f4e487b7100000000000000000000000000000000000000000000000000000000600052604160045260246000fd5b600080fd5b600080fd5b600080fd5b600080fd5b6000601f19601f8301169050919050565b610a1c816108dd565b8114610a2757600080fd5b5056fe608060405234801561001057600080fd5b5061075f806100206000396000f3fe608060405234801561001057600080fd5b50600436106100575760003560e01c80630e5eeef71461005c5780632e64cec1146100785780635457b83f146100965780636057361d146100c6578063642f9163146100e2575b600080fd5b61007660048036038101906100719190610430565b610113565b005b6100806101a8565b60405161008d9190610553565b60405180910390f35b6100b060048036038101906100ab919061048c565b6101b1565b6040516100bd9190610501565b60405180910390f35b6100e060048036038101906100db919061048c565b610251565b005b6100fc60048036038101906100f7919061048c565b61025b565b60405161010a929190610523565b60405180910390f35b60016040518060400160405280838152602001848152509080600181540180825580915050600190039060005260206000209060020201600090919091909150600082015181600001556020820151816001019080519060200190610179929190610308565b505050816002600083815260200190815260200160002090805190602001906101a3929190610308565b505050565b60008054905090565b600260205280600052604060002060009150905080546101d09061062c565b80601f01602080910402602001604051908101604052809291908181526020018280546101fc9061062c565b80156102495780601f1061021e57610100808354040283529160200191610249565b820191906000526020600020905b81548152906001019060200180831161022c57829003601f168201915b505050505081565b8060008190555050565b60606000600260008481526020019081526020016000208381805461027f9061062c565b80601f01602080910402602001604051908101604052809291908181526020018280546102ab9061062c565b80156102f85780601f106102cd576101008083540402835291602001916102f8565b820191906000526020600020905b8154815290600101906020018083116102db57829003601f168201915b5050505050915091509150915091565b8280546103149061062c565b90600052602060002090601f016020900481019282610336576000855561037d565b82601f1061034f57805160ff191683800117855561037d565b8280016001018555821561037d579182015b8281111561037c578251825591602001919060010190610361565b5b50905061038a919061038e565b5090565b5b808211156103a757600081600090555060010161038f565b5090565b60006103be6103b984610593565b61056e565b9050828152602081018484840111156103da576103d96106f2565b5b6103e58482856105ea565b509392505050565b600082601f830112610402576104016106ed565b5b81356104128482602086016103ab565b91505092915050565b60008135905061042a81610712565b92915050565b60008060408385031215610447576104466106fc565b5b600083013567ffffffffffffffff811115610465576104646106f7565b5b610471858286016103ed565b92505060206104828582860161041b565b9150509250929050565b6000602082840312156104a2576104a16106fc565b5b60006104b08482850161041b565b91505092915050565b60006104c4826105c4565b6104ce81856105cf565b93506104de8185602086016105f9565b6104e781610701565b840191505092915050565b6104fb816105e0565b82525050565b6000602082019050818103600083015261051b81846104b9565b905092915050565b6000604082019050818103600083015261053d81856104b9565b905061054c60208301846104f2565b9392505050565b600060208201905061056860008301846104f2565b92915050565b6000610578610589565b9050610584828261065e565b919050565b6000604051905090565b600067ffffffffffffffff8211156105ae576105ad6106be565b5b6105b782610701565b9050602081019050919050565b600081519050919050565b600082825260208201905092915050565b6000819050919050565b82818337600083830152505050565b60005b838110156106175780820151818401526020810190506105fc565b83811115610626576000848401525b50505050565b6000600282049050600182168061064457607f821691505b602082108114156106585761065761068f565b5b50919050565b61066782610701565b810181811067ffffffffffffffff82111715610686576106856106be565b5b80604052505050565b7f4e487b7100000000000000000000000000000000000000000000000000000000600052602260045260246000fd5b7f4e487b7100000000000000000000000000000000000000000000000000000000600052604160045260246000fd5b600080fd5b600080fd5b600080fd5b600080fd5b6000601f19601f8301169050919050565b61071b816105e0565b811461072657600080fd5b5056fea2646970667358221220ac740752a4cbfdd98b76aa62b0720cb5acbf3ba99f13a082618c9991e1b52e0864736f6c63430008070033a26469706673582212209c8f5672691d212a6c44c12ab1f956094ec81df12c9cae177c246cdd43b1861864736f6c63430008070033",
					"opcodes": "PUSH1 0x80 PUSH1 0x40 MSTORE CALLVALUE DUP1 ISZERO PUSH2 0x10 JUMPI PUSH1 0x0 DUP1 REVERT JUMPDEST POP PUSH2 0x11DF DUP1 PUSH2 0x20 PUSH1 0x0 CODECOPY PUSH1 0x0 RETURN INVALID PUSH1 0x80 PUSH1 0x40 MSTORE CALLVALUE DUP1 ISZERO PUSH2 0x10 JUMPI PUSH1 0x0 DUP1 REVERT JUMPDEST POP PUSH1 0x4 CALLDATASIZE LT PUSH2 0x62 JUMPI PUSH1 0x0 CALLDATALOAD PUSH1 0xE0 SHR DUP1 PUSH4 0x40D66B3B EQ PUSH2 0x67 JUMPI DUP1 PUSH4 0x4BFFB6BE EQ PUSH2 0x71 JUMPI DUP1 PUSH4 0x64591BF1 EQ PUSH2 0xA1 JUMPI DUP1 PUSH4 0x7574EDE8 EQ PUSH2 0xD1 JUMPI DUP1 PUSH4 0x83EAB6A2 EQ PUSH2 0xED JUMPI DUP1 PUSH4 0xDEAE2ADC EQ PUSH2 0x109 JUMPI JUMPDEST PUSH1 0x0 DUP1 REVERT JUMPDEST PUSH2 0x6F PUSH2 0x13A JUMP JUMPDEST STOP JUMPDEST PUSH2 0x8B PUSH1 0x4 DUP1 CALLDATASIZE SUB DUP2 ADD SWAP1 PUSH2 0x86 SWAP2 SWAP1 PUSH2 0x698 JUMP JUMPDEST PUSH2 0x227 JUMP JUMPDEST PUSH1 0x40 MLOAD PUSH2 0x98 SWAP2 SWAP1 PUSH2 0x830 JUMP JUMPDEST PUSH1 0x40 MLOAD DUP1 SWAP2 SUB SWAP1 RETURN JUMPDEST PUSH2 0xBB PUSH1 0x4 DUP1 CALLDATASIZE SUB DUP2 ADD SWAP1 PUSH2 0xB6 SWAP2 SWAP1 PUSH2 0x698 JUMP JUMPDEST PUSH2 0x2EC JUMP JUMPDEST PUSH1 0x40 MLOAD PUSH2 0xC8 SWAP2 SWAP1 PUSH2 0x7E5 JUMP JUMPDEST PUSH1 0x40 MLOAD DUP1 SWAP2 SUB SWAP1 RETURN JUMPDEST PUSH2 0xEB PUSH1 0x4 DUP1 CALLDATASIZE SUB DUP2 ADD SWAP1 PUSH2 0xE6 SWAP2 SWAP1 PUSH2 0x6F2 JUMP JUMPDEST PUSH2 0x32B JUMP JUMPDEST STOP JUMPDEST PUSH2 0x107 PUSH1 0x4 DUP1 CALLDATASIZE SUB DUP2 ADD SWAP1 PUSH2 0x102 SWAP2 SWAP1 PUSH2 0x698 JUMP JUMPDEST PUSH2 0x3BC JUMP JUMPDEST STOP JUMPDEST PUSH2 0x123 PUSH1 0x4 DUP1 CALLDATASIZE SUB DUP2 ADD SWAP1 PUSH2 0x11E SWAP2 SWAP1 PUSH2 0x74E JUMP JUMPDEST PUSH2 0x44A JUMP JUMPDEST PUSH1 0x40 MLOAD PUSH2 0x131 SWAP3 SWAP2 SWAP1 PUSH2 0x800 JUMP JUMPDEST PUSH1 0x40 MLOAD DUP1 SWAP2 SUB SWAP1 RETURN JUMPDEST PUSH1 0x40 MLOAD PUSH2 0x146 SWAP1 PUSH2 0x525 JUMP JUMPDEST PUSH1 0x40 MLOAD DUP1 SWAP2 SUB SWAP1 PUSH1 0x0 CREATE DUP1 ISZERO DUP1 ISZERO PUSH2 0x162 JUMPI RETURNDATASIZE PUSH1 0x0 DUP1 RETURNDATACOPY RETURNDATASIZE PUSH1 0x0 REVERT JUMPDEST POP PUSH1 0x0 DUP1 PUSH2 0x100 EXP DUP2 SLOAD DUP2 PUSH20 0xFFFFFFFFFFFFFFFFFFFFFFFFFFFFFFFFFFFFFFFF MUL NOT AND SWAP1 DUP4 PUSH20 0xFFFFFFFFFFFFFFFFFFFFFFFFFFFFFFFFFFFFFFFF AND MUL OR SWAP1 SSTORE POP PUSH1 0x1 PUSH1 0x0 DUP1 SLOAD SWAP1 PUSH2 0x100 EXP SWAP1 DIV PUSH20 0xFFFFFFFFFFFFFFFFFFFFFFFFFFFFFFFFFFFFFFFF AND SWAP1 DUP1 PUSH1 0x1 DUP2 SLOAD ADD DUP1 DUP3 SSTORE DUP1 SWAP2 POP POP PUSH1 0x1 SWAP1 SUB SWAP1 PUSH1 0x0 MSTORE PUSH1 0x20 PUSH1 0x0 KECCAK256 ADD PUSH1 0x0 SWAP1 SWAP2 SWAP1 SWAP2 SWAP1 SWAP2 PUSH2 0x100 EXP DUP2 SLOAD DUP2 PUSH20 0xFFFFFFFFFFFFFFFFFFFFFFFFFFFFFFFFFFFFFFFF MUL NOT AND SWAP1 DUP4 PUSH20 0xFFFFFFFFFFFFFFFFFFFFFFFFFFFFFFFFFFFFFFFF AND MUL OR SWAP1 SSTORE POP JUMP JUMPDEST PUSH1 0x0 PUSH1 0x1 DUP3 DUP2 SLOAD DUP2 LT PUSH2 0x23D JUMPI PUSH2 0x23C PUSH2 0x990 JUMP JUMPDEST JUMPDEST SWAP1 PUSH1 0x0 MSTORE PUSH1 0x20 PUSH1 0x0 KECCAK256 ADD PUSH1 0x0 SWAP1 SLOAD SWAP1 PUSH2 0x100 EXP SWAP1 DIV PUSH20 0xFFFFFFFFFFFFFFFFFFFFFFFFFFFFFFFFFFFFFFFF AND PUSH20 0xFFFFFFFFFFFFFFFFFFFFFFFFFFFFFFFFFFFFFFFF AND PUSH4 0x2E64CEC1 PUSH1 0x40 MLOAD DUP2 PUSH4 0xFFFFFFFF AND PUSH1 0xE0 SHL DUP2 MSTORE PUSH1 0x4 ADD PUSH1 0x20 PUSH1 0x40 MLOAD DUP1 DUP4 SUB DUP2 DUP7 DUP1 EXTCODESIZE ISZERO DUP1 ISZERO PUSH2 0x2AD JUMPI PUSH1 0x0 DUP1 REVERT JUMPDEST POP GAS STATICCALL ISZERO DUP1 ISZERO PUSH2 0x2C1 JUMPI RETURNDATASIZE PUSH1 0x0 DUP1 RETURNDATACOPY RETURNDATASIZE PUSH1 0x0 REVERT JUMPDEST POP POP POP POP PUSH1 0x40 MLOAD RETURNDATASIZE PUSH1 0x1F NOT PUSH1 0x1F DUP3 ADD AND DUP3 ADD DUP1 PUSH1 0x40 MSTORE POP DUP2 ADD SWAP1 PUSH2 0x2E5 SWAP2 SWAP1 PUSH2 0x6C5 JUMP JUMPDEST SWAP1 POP SWAP2 SWAP1 POP JUMP JUMPDEST PUSH1 0x1 DUP2 DUP2 SLOAD DUP2 LT PUSH2 0x2FC JUMPI PUSH1 0x0 DUP1 REVERT JUMPDEST SWAP1 PUSH1 0x0 MSTORE PUSH1 0x20 PUSH1 0x0 KECCAK256 ADD PUSH1 0x0 SWAP2 POP SLOAD SWAP1 PUSH2 0x100 EXP SWAP1 DIV PUSH20 0xFFFFFFFFFFFFFFFFFFFFFFFFFFFFFFFFFFFFFFFF AND DUP2 JUMP JUMPDEST PUSH1 0x0 DUP1 SLOAD SWAP1 PUSH2 0x100 EXP SWAP1 DIV PUSH20 0xFFFFFFFFFFFFFFFFFFFFFFFFFFFFFFFFFFFFFFFF AND PUSH20 0xFFFFFFFFFFFFFFFFFFFFFFFFFFFFFFFFFFFFFFFF AND PUSH4 0xE5EEEF7 DUP3 DUP5 PUSH1 0x40 MLOAD DUP4 PUSH4 0xFFFFFFFF AND PUSH1 0xE0 SHL DUP2 MSTORE PUSH1 0x4 ADD PUSH2 0x386 SWAP3 SWAP2 SWAP1 PUSH2 0x800 JUMP JUMPDEST PUSH1 0x0 PUSH1 0x40 MLOAD DUP1 DUP4 SUB DUP2 PUSH1 0x0 DUP8 DUP1 EXTCODESIZE ISZERO DUP1 ISZERO PUSH2 0x3A0 JUMPI PUSH1 0x0 DUP1 REVERT JUMPDEST POP GAS CALL ISZERO DUP1 ISZERO PUSH2 0x3B4 JUMPI RETURNDATASIZE PUSH1 0x0 DUP1 RETURNDATACOPY RETURNDATASIZE PUSH1 0x0 REVERT JUMPDEST POP POP POP POP POP POP JUMP JUMPDEST PUSH1 0x0 DUP1 SLOAD SWAP1 PUSH2 0x100 EXP SWAP1 DIV PUSH20 0xFFFFFFFFFFFFFFFFFFFFFFFFFFFFFFFFFFFFFFFF AND PUSH20 0xFFFFFFFFFFFFFFFFFFFFFFFFFFFFFFFFFFFFFFFF AND PUSH4 0x6057361D DUP3 PUSH1 0x40 MLOAD DUP3 PUSH4 0xFFFFFFFF AND PUSH1 0xE0 SHL DUP2 MSTORE PUSH1 0x4 ADD PUSH2 0x415 SWAP2 SWAP1 PUSH2 0x830 JUMP JUMPDEST PUSH1 0x0 PUSH1 0x40 MLOAD DUP1 DUP4 SUB DUP2 PUSH1 0x0 DUP8 DUP1 EXTCODESIZE ISZERO DUP1 ISZERO PUSH2 0x42F JUMPI PUSH1 0x0 DUP1 REVERT JUMPDEST POP GAS CALL ISZERO DUP1 ISZERO PUSH2 0x443 JUMPI RETURNDATASIZE PUSH1 0x0 DUP1 RETURNDATACOPY RETURNDATASIZE PUSH1 0x0 REVERT JUMPDEST POP POP POP POP POP JUMP JUMPDEST PUSH1 0x60 PUSH1 0x0 PUSH1 0x1 DUP5 DUP2 SLOAD DUP2 LT PUSH2 0x462 JUMPI PUSH2 0x461 PUSH2 0x990 JUMP JUMPDEST JUMPDEST SWAP1 PUSH1 0x0 MSTORE PUSH1 0x20 PUSH1 0x0 KECCAK256 ADD PUSH1 0x0 SWAP1 SLOAD SWAP1 PUSH2 0x100 EXP SWAP1 DIV PUSH20 0xFFFFFFFFFFFFFFFFFFFFFFFFFFFFFFFFFFFFFFFF AND PUSH20 0xFFFFFFFFFFFFFFFFFFFFFFFFFFFFFFFFFFFFFFFF AND PUSH4 0x642F9163 DUP5 PUSH1 0x40 MLOAD DUP3 PUSH4 0xFFFFFFFF AND PUSH1 0xE0 SHL DUP2 MSTORE PUSH1 0x4 ADD PUSH2 0x4C5 SWAP2 SWAP1 PUSH2 0x830 JUMP JUMPDEST PUSH1 0x0 PUSH1 0x40 MLOAD DUP1 DUP4 SUB DUP2 DUP7 DUP1 EXTCODESIZE ISZERO DUP1 ISZERO PUSH2 0x4DD JUMPI PUSH1 0x0 DUP1 REVERT JUMPDEST POP GAS STATICCALL ISZERO DUP1 ISZERO PUSH2 0x4F1 JUMPI RETURNDATASIZE PUSH1 0x0 DUP1 RETURNDATACOPY RETURNDATASIZE PUSH1 0x0 REVERT JUMPDEST POP POP POP POP PUSH1 0x40 MLOAD RETURNDATASIZE PUSH1 0x0 DUP3 RETURNDATACOPY RETURNDATASIZE PUSH1 0x1F NOT PUSH1 0x1F DUP3 ADD AND DUP3 ADD DUP1 PUSH1 0x40 MSTORE POP DUP2 ADD SWAP1 PUSH2 0x51A SWAP2 SWAP1 PUSH2 0x63C JUMP JUMPDEST SWAP2 POP SWAP2 POP SWAP3 POP SWAP3 SWAP1 POP JUMP JUMPDEST PUSH2 0x77F DUP1 PUSH2 0xA2B DUP4 CODECOPY ADD SWAP1 JUMP JUMPDEST PUSH1 0x0 PUSH2 0x545 PUSH2 0x540 DUP5 PUSH2 0x870 JUMP JUMPDEST PUSH2 0x84B JUMP JUMPDEST SWAP1 POP DUP3 DUP2 MSTORE PUSH1 0x20 DUP2 ADD DUP5 DUP5 DUP5 ADD GT ISZERO PUSH2 0x561 JUMPI PUSH2 0x560 PUSH2 0x9F3 JUMP JUMPDEST JUMPDEST PUSH2 0x56C DUP5 DUP3 DUP6 PUSH2 0x91D JUMP JUMPDEST POP SWAP4 SWAP3 POP POP POP JUMP JUMPDEST PUSH1 0x0 PUSH2 0x587 PUSH2 0x582 DUP5 PUSH2 0x870 JUMP JUMPDEST PUSH2 0x84B JUMP JUMPDEST SWAP1 POP DUP3 DUP2 MSTORE PUSH1 0x20 DUP2 ADD DUP5 DUP5 DUP5 ADD GT ISZERO PUSH2 0x5A3 JUMPI PUSH2 0x5A2 PUSH2 0x9F3 JUMP JUMPDEST JUMPDEST PUSH2 0x5AE DUP5 DUP3 DUP6 PUSH2 0x92C JUMP JUMPDEST POP SWAP4 SWAP3 POP POP POP JUMP JUMPDEST PUSH1 0x0 DUP3 PUSH1 0x1F DUP4 ADD SLT PUSH2 0x5CB JUMPI PUSH2 0x5CA PUSH2 0x9EE JUMP JUMPDEST JUMPDEST DUP2 CALLDATALOAD PUSH2 0x5DB DUP5 DUP3 PUSH1 0x20 DUP7 ADD PUSH2 0x532 JUMP JUMPDEST SWAP2 POP POP SWAP3 SWAP2 POP POP JUMP JUMPDEST PUSH1 0x0 DUP3 PUSH1 0x1F DUP4 ADD SLT PUSH2 0x5F9 JUMPI PUSH2 0x5F8 PUSH2 0x9EE JUMP JUMPDEST JUMPDEST DUP2 MLOAD PUSH2 0x609 DUP5 DUP3 PUSH1 0x20 DUP7 ADD PUSH2 0x574 JUMP JUMPDEST SWAP2 POP POP SWAP3 SWAP2 POP POP JUMP JUMPDEST PUSH1 0x0 DUP2 CALLDATALOAD SWAP1 POP PUSH2 0x621 DUP2 PUSH2 0xA13 JUMP JUMPDEST SWAP3 SWAP2 POP POP JUMP JUMPDEST PUSH1 0x0 DUP2 MLOAD SWAP1 POP PUSH2 0x636 DUP2 PUSH2 0xA13 JUMP JUMPDEST SWAP3 SWAP2 POP POP JUMP JUMPDEST PUSH1 0x0 DUP1 PUSH1 0x40 DUP4 DUP6 SUB SLT ISZERO PUSH2 0x653 JUMPI PUSH2 0x652 PUSH2 0x9FD JUMP JUMPDEST JUMPDEST PUSH1 0x0 DUP4 ADD MLOAD PUSH8 0xFFFFFFFFFFFFFFFF DUP2 GT ISZERO PUSH2 0x671 JUMPI PUSH2 0x670 PUSH2 0x9F8 JUMP JUMPDEST JUMPDEST PUSH2 0x67D DUP6 DUP3 DUP7 ADD PUSH2 0x5E4 JUMP JUMPDEST SWAP3 POP POP PUSH1 0x20 PUSH2 0x68E DUP6 DUP3 DUP7 ADD PUSH2 0x627 JUMP JUMPDEST SWAP2 POP POP SWAP3 POP SWAP3 SWAP1 POP JUMP JUMPDEST PUSH1 0x0 PUSH1 0x20 DUP3 DUP5 SUB SLT ISZERO PUSH2 0x6AE JUMPI PUSH2 0x6AD PUSH2 0x9FD JUMP JUMPDEST JUMPDEST PUSH1 0x0 PUSH2 0x6BC DUP5 DUP3 DUP6 ADD PUSH2 0x612 JUMP JUMPDEST SWAP2 POP POP SWAP3 SWAP2 POP POP JUMP JUMPDEST PUSH1 0x0 PUSH1 0x20 DUP3 DUP5 SUB SLT ISZERO PUSH2 0x6DB JUMPI PUSH2 0x6DA PUSH2 0x9FD JUMP JUMPDEST JUMPDEST PUSH1 0x0 PUSH2 0x6E9 DUP5 DUP3 DUP6 ADD PUSH2 0x627 JUMP JUMPDEST SWAP2 POP POP SWAP3 SWAP2 POP POP JUMP JUMPDEST PUSH1 0x0 DUP1 PUSH1 0x40 DUP4 DUP6 SUB SLT ISZERO PUSH2 0x709 JUMPI PUSH2 0x708 PUSH2 0x9FD JUMP JUMPDEST JUMPDEST PUSH1 0x0 PUSH2 0x717 DUP6 DUP3 DUP7 ADD PUSH2 0x612 JUMP JUMPDEST SWAP3 POP POP PUSH1 0x20 DUP4 ADD CALLDATALOAD PUSH8 0xFFFFFFFFFFFFFFFF DUP2 GT ISZERO PUSH2 0x738 JUMPI PUSH2 0x737 PUSH2 0x9F8 JUMP JUMPDEST JUMPDEST PUSH2 0x744 DUP6 DUP3 DUP7 ADD PUSH2 0x5B6 JUMP JUMPDEST SWAP2 POP POP SWAP3 POP SWAP3 SWAP1 POP JUMP JUMPDEST PUSH1 0x0 DUP1 PUSH1 0x40 DUP4 DUP6 SUB SLT ISZERO PUSH2 0x765 JUMPI PUSH2 0x764 PUSH2 0x9FD JUMP JUMPDEST JUMPDEST PUSH1 0x0 PUSH2 0x773 DUP6 DUP3 DUP7 ADD PUSH2 0x612 JUMP JUMPDEST SWAP3 POP POP PUSH1 0x20 PUSH2 0x784 DUP6 DUP3 DUP7 ADD PUSH2 0x612 JUMP JUMPDEST SWAP2 POP POP SWAP3 POP SWAP3 SWAP1 POP JUMP JUMPDEST PUSH2 0x797 DUP2 PUSH2 0x8E7 JUMP JUMPDEST DUP3 MSTORE POP POP JUMP JUMPDEST PUSH1 0x0 PUSH2 0x7A8 DUP3 PUSH2 0x8A1 JUMP JUMPDEST PUSH2 0x7B2 DUP2 DUP6 PUSH2 0x8AC JUMP JUMPDEST SWAP4 POP PUSH2 0x7C2 DUP2 DUP6 PUSH1 0x20 DUP7 ADD PUSH2 0x92C JUMP JUMPDEST PUSH2 0x7CB DUP2 PUSH2 0xA02 JUMP JUMPDEST DUP5 ADD SWAP2 POP POP SWAP3 SWAP2 POP POP JUMP JUMPDEST PUSH2 0x7DF DUP2 PUSH2 0x8DD JUMP JUMPDEST DUP3 MSTORE POP POP JUMP JUMPDEST PUSH1 0x0 PUSH1 0x20 DUP3 ADD SWAP1 POP PUSH2 0x7FA PUSH1 0x0 DUP4 ADD DUP5 PUSH2 0x78E JUMP JUMPDEST SWAP3 SWAP2 POP POP JUMP JUMPDEST PUSH1 0x0 PUSH1 0x40 DUP3 ADD SWAP1 POP DUP2 DUP2 SUB PUSH1 0x0 DUP4 ADD MSTORE PUSH2 0x81A DUP2 DUP6 PUSH2 0x79D JUMP JUMPDEST SWAP1 POP PUSH2 0x829 PUSH1 0x20 DUP4 ADD DUP5 PUSH2 0x7D6 JUMP JUMPDEST SWAP4 SWAP3 POP POP POP JUMP JUMPDEST PUSH1 0x0 PUSH1 0x20 DUP3 ADD SWAP1 POP PUSH2 0x845 PUSH1 0x0 DUP4 ADD DUP5 PUSH2 0x7D6 JUMP JUMPDEST SWAP3 SWAP2 POP POP JUMP JUMPDEST PUSH1 0x0 PUSH2 0x855 PUSH2 0x866 JUMP JUMPDEST SWAP1 POP PUSH2 0x861 DUP3 DUP3 PUSH2 0x95F JUMP JUMPDEST SWAP2 SWAP1 POP JUMP JUMPDEST PUSH1 0x0 PUSH1 0x40 MLOAD SWAP1 POP SWAP1 JUMP JUMPDEST PUSH1 0x0 PUSH8 0xFFFFFFFFFFFFFFFF DUP3 GT ISZERO PUSH2 0x88B JUMPI PUSH2 0x88A PUSH2 0x9BF JUMP JUMPDEST JUMPDEST PUSH2 0x894 DUP3 PUSH2 0xA02 JUMP JUMPDEST SWAP1 POP PUSH1 0x20 DUP2 ADD SWAP1 POP SWAP2 SWAP1 POP JUMP JUMPDEST PUSH1 0x0 DUP2 MLOAD SWAP1 POP SWAP2 SWAP1 POP JUMP JUMPDEST PUSH1 0x0 DUP3 DUP3 MSTORE PUSH1 0x20 DUP3 ADD SWAP1 POP SWAP3 SWAP2 POP POP JUMP JUMPDEST PUSH1 0x0 PUSH20 0xFFFFFFFFFFFFFFFFFFFFFFFFFFFFFFFFFFFFFFFF DUP3 AND SWAP1 POP SWAP2 SWAP1 POP JUMP JUMPDEST PUSH1 0x0 DUP2 SWAP1 POP SWAP2 SWAP1 POP JUMP JUMPDEST PUSH1 0x0 PUSH2 0x8F2 DUP3 PUSH2 0x8F9 JUMP JUMPDEST SWAP1 POP SWAP2 SWAP1 POP JUMP JUMPDEST PUSH1 0x0 PUSH2 0x904 DUP3 PUSH2 0x90B JUMP JUMPDEST SWAP1 POP SWAP2 SWAP1 POP JUMP JUMPDEST PUSH1 0x0 PUSH2 0x916 DUP3 PUSH2 0x8BD JUMP JUMPDEST SWAP1 POP SWAP2 SWAP1 POP JUMP JUMPDEST DUP3 DUP2 DUP4 CALLDATACOPY PUSH1 0x0 DUP4 DUP4 ADD MSTORE POP POP POP JUMP JUMPDEST PUSH1 0x0 JUMPDEST DUP4 DUP2 LT ISZERO PUSH2 0x94A JUMPI DUP1 DUP3 ADD MLOAD DUP2 DUP5 ADD MSTORE PUSH1 0x20 DUP2 ADD SWAP1 POP PUSH2 0x92F JUMP JUMPDEST DUP4 DUP2 GT ISZERO PUSH2 0x959 JUMPI PUSH1 0x0 DUP5 DUP5 ADD MSTORE JUMPDEST POP POP POP POP JUMP JUMPDEST PUSH2 0x968 DUP3 PUSH2 0xA02 JUMP JUMPDEST DUP2 ADD DUP2 DUP2 LT PUSH8 0xFFFFFFFFFFFFFFFF DUP3 GT OR ISZERO PUSH2 0x987 JUMPI PUSH2 0x986 PUSH2 0x9BF JUMP JUMPDEST JUMPDEST DUP1 PUSH1 0x40 MSTORE POP POP POP JUMP JUMPDEST PUSH32 0x4E487B7100000000000000000000000000000000000000000000000000000000 PUSH1 0x0 MSTORE PUSH1 0x32 PUSH1 0x4 MSTORE PUSH1 0x24 PUSH1 0x0 REVERT JUMPDEST PUSH32 0x4E487B7100000000000000000000000000000000000000000000000000000000 PUSH1 0x0 MSTORE PUSH1 0x41 PUSH1 0x4 MSTORE PUSH1 0x24 PUSH1 0x0 REVERT JUMPDEST PUSH1 0x0 DUP1 REVERT JUMPDEST PUSH1 0x0 DUP1 REVERT JUMPDEST PUSH1 0x0 DUP1 REVERT JUMPDEST PUSH1 0x0 DUP1 REVERT JUMPDEST PUSH1 0x0 PUSH1 0x1F NOT PUSH1 0x1F DUP4 ADD AND SWAP1 POP SWAP2 SWAP1 POP JUMP JUMPDEST PUSH2 0xA1C DUP2 PUSH2 0x8DD JUMP JUMPDEST DUP2 EQ PUSH2 0xA27 JUMPI PUSH1 0x0 DUP1 REVERT JUMPDEST POP JUMP INVALID PUSH1 0x80 PUSH1 0x40 MSTORE CALLVALUE DUP1 ISZERO PUSH2 0x10 JUMPI PUSH1 0x0 DUP1 REVERT JUMPDEST POP PUSH2 0x75F DUP1 PUSH2 0x20 PUSH1 0x0 CODECOPY PUSH1 0x0 RETURN INVALID PUSH1 0x80 PUSH1 0x40 MSTORE CALLVALUE DUP1 ISZERO PUSH2 0x10 JUMPI PUSH1 0x0 DUP1 REVERT JUMPDEST POP PUSH1 0x4 CALLDATASIZE LT PUSH2 0x57 JUMPI PUSH1 0x0 CALLDATALOAD PUSH1 0xE0 SHR DUP1 PUSH4 0xE5EEEF7 EQ PUSH2 0x5C JUMPI DUP1 PUSH4 0x2E64CEC1 EQ PUSH2 0x78 JUMPI DUP1 PUSH4 0x5457B83F EQ PUSH2 0x96 JUMPI DUP1 PUSH4 0x6057361D EQ PUSH2 0xC6 JUMPI DUP1 PUSH4 0x642F9163 EQ PUSH2 0xE2 JUMPI JUMPDEST PUSH1 0x0 DUP1 REVERT JUMPDEST PUSH2 0x76 PUSH1 0x4 DUP1 CALLDATASIZE SUB DUP2 ADD SWAP1 PUSH2 0x71 SWAP2 SWAP1 PUSH2 0x430 JUMP JUMPDEST PUSH2 0x113 JUMP JUMPDEST STOP JUMPDEST PUSH2 0x80 PUSH2 0x1A8 JUMP JUMPDEST PUSH1 0x40 MLOAD PUSH2 0x8D SWAP2 SWAP1 PUSH2 0x553 JUMP JUMPDEST PUSH1 0x40 MLOAD DUP1 SWAP2 SUB SWAP1 RETURN JUMPDEST PUSH2 0xB0 PUSH1 0x4 DUP1 CALLDATASIZE SUB DUP2 ADD SWAP1 PUSH2 0xAB SWAP2 SWAP1 PUSH2 0x48C JUMP JUMPDEST PUSH2 0x1B1 JUMP JUMPDEST PUSH1 0x40 MLOAD PUSH2 0xBD SWAP2 SWAP1 PUSH2 0x501 JUMP JUMPDEST PUSH1 0x40 MLOAD DUP1 SWAP2 SUB SWAP1 RETURN JUMPDEST PUSH2 0xE0 PUSH1 0x4 DUP1 CALLDATASIZE SUB DUP2 ADD SWAP1 PUSH2 0xDB SWAP2 SWAP1 PUSH2 0x48C JUMP JUMPDEST PUSH2 0x251 JUMP JUMPDEST STOP JUMPDEST PUSH2 0xFC PUSH1 0x4 DUP1 CALLDATASIZE SUB DUP2 ADD SWAP1 PUSH2 0xF7 SWAP2 SWAP1 PUSH2 0x48C JUMP JUMPDEST PUSH2 0x25B JUMP JUMPDEST PUSH1 0x40 MLOAD PUSH2 0x10A SWAP3 SWAP2 SWAP1 PUSH2 0x523 JUMP JUMPDEST PUSH1 0x40 MLOAD DUP1 SWAP2 SUB SWAP1 RETURN JUMPDEST PUSH1 0x1 PUSH1 0x40 MLOAD DUP1 PUSH1 0x40 ADD PUSH1 0x40 MSTORE DUP1 DUP4 DUP2 MSTORE PUSH1 0x20 ADD DUP5 DUP2 MSTORE POP SWAP1 DUP1 PUSH1 0x1 DUP2 SLOAD ADD DUP1 DUP3 SSTORE DUP1 SWAP2 POP POP PUSH1 0x1 SWAP1 SUB SWAP1 PUSH1 0x0 MSTORE PUSH1 0x20 PUSH1 0x0 KECCAK256 SWAP1 PUSH1 0x2 MUL ADD PUSH1 0x0 SWAP1 SWAP2 SWAP1 SWAP2 SWAP1 SWAP2 POP PUSH1 0x0 DUP3 ADD MLOAD DUP2 PUSH1 0x0 ADD SSTORE PUSH1 0x20 DUP3 ADD MLOAD DUP2 PUSH1 0x1 ADD SWAP1 DUP1 MLOAD SWAP1 PUSH1 0x20 ADD SWAP1 PUSH2 0x179 SWAP3 SWAP2 SWAP1 PUSH2 0x308 JUMP JUMPDEST POP POP POP DUP2 PUSH1 0x2 PUSH1 0x0 DUP4 DUP2 MSTORE PUSH1 0x20 ADD SWAP1 DUP2 MSTORE PUSH1 0x20 ADD PUSH1 0x0 KECCAK256 SWAP1 DUP1 MLOAD SWAP1 PUSH1 0x20 ADD SWAP1 PUSH2 0x1A3 SWAP3 SWAP2 SWAP1 PUSH2 0x308 JUMP JUMPDEST POP POP POP JUMP JUMPDEST PUSH1 0x0 DUP1 SLOAD SWAP1 POP SWAP1 JUMP JUMPDEST PUSH1 0x2 PUSH1 0x20 MSTORE DUP1 PUSH1 0x0 MSTORE PUSH1 0x40 PUSH1 0x0 KECCAK256 PUSH1 0x0 SWAP2 POP SWAP1 POP DUP1 SLOAD PUSH2 0x1D0 SWAP1 PUSH2 0x62C JUMP JUMPDEST DUP1 PUSH1 0x1F ADD PUSH1 0x20 DUP1 SWAP2 DIV MUL PUSH1 0x20 ADD PUSH1 0x40 MLOAD SWAP1 DUP2 ADD PUSH1 0x40 MSTORE DUP1 SWAP3 SWAP2 SWAP1 DUP2 DUP2 MSTORE PUSH1 0x20 ADD DUP3 DUP1 SLOAD PUSH2 0x1FC SWAP1 PUSH2 0x62C JUMP JUMPDEST DUP1 ISZERO PUSH2 0x249 JUMPI DUP1 PUSH1 0x1F LT PUSH2 0x21E JUMPI PUSH2 0x100 DUP1 DUP4 SLOAD DIV MUL DUP4 MSTORE SWAP2 PUSH1 0x20 ADD SWAP2 PUSH2 0x249 JUMP JUMPDEST DUP3 ADD SWAP2 SWAP1 PUSH1 0x0 MSTORE PUSH1 0x20 PUSH1 0x0 KECCAK256 SWAP1 JUMPDEST DUP2 SLOAD DUP2 MSTORE SWAP1 PUSH1 0x1 ADD SWAP1 PUSH1 0x20 ADD DUP1 DUP4 GT PUSH2 0x22C JUMPI DUP3 SWAP1 SUB PUSH1 0x1F AND DUP3 ADD SWAP2 JUMPDEST POP POP POP POP POP DUP2 JUMP JUMPDEST DUP1 PUSH1 0x0 DUP2 SWAP1 SSTORE POP POP JUMP JUMPDEST PUSH1 0x60 PUSH1 0x0 PUSH1 0x2 PUSH1 0x0 DUP5 DUP2 MSTORE PUSH1 0x20 ADD SWAP1 DUP2 MSTORE PUSH1 0x20 ADD PUSH1 0x0 KECCAK256 DUP4 DUP2 DUP1 SLOAD PUSH2 0x27F SWAP1 PUSH2 0x62C JUMP JUMPDEST DUP1 PUSH1 0x1F ADD PUSH1 0x20 DUP1 SWAP2 DIV MUL PUSH1 0x20 ADD PUSH1 0x40 MLOAD SWAP1 DUP2 ADD PUSH1 0x40 MSTORE DUP1 SWAP3 SWAP2 SWAP1 DUP2 DUP2 MSTORE PUSH1 0x20 ADD DUP3 DUP1 SLOAD PUSH2 0x2AB SWAP1 PUSH2 0x62C JUMP JUMPDEST DUP1 ISZERO PUSH2 0x2F8 JUMPI DUP1 PUSH1 0x1F LT PUSH2 0x2CD JUMPI PUSH2 0x100 DUP1 DUP4 SLOAD DIV MUL DUP4 MSTORE SWAP2 PUSH1 0x20 ADD SWAP2 PUSH2 0x2F8 JUMP JUMPDEST DUP3 ADD SWAP2 SWAP1 PUSH1 0x0 MSTORE PUSH1 0x20 PUSH1 0x0 KECCAK256 SWAP1 JUMPDEST DUP2 SLOAD DUP2 MSTORE SWAP1 PUSH1 0x1 ADD SWAP1 PUSH1 0x20 ADD DUP1 DUP4 GT PUSH2 0x2DB JUMPI DUP3 SWAP1 SUB PUSH1 0x1F AND DUP3 ADD SWAP2 JUMPDEST POP POP POP POP POP SWAP2 POP SWAP2 POP SWAP2 POP SWAP2 POP SWAP2 JUMP JUMPDEST DUP3 DUP1 SLOAD PUSH2 0x314 SWAP1 PUSH2 0x62C JUMP JUMPDEST SWAP1 PUSH1 0x0 MSTORE PUSH1 0x20 PUSH1 0x0 KECCAK256 SWAP1 PUSH1 0x1F ADD PUSH1 0x20 SWAP1 DIV DUP2 ADD SWAP3 DUP3 PUSH2 0x336 JUMPI PUSH1 0x0 DUP6 SSTORE PUSH2 0x37D JUMP JUMPDEST DUP3 PUSH1 0x1F LT PUSH2 0x34F JUMPI DUP1 MLOAD PUSH1 0xFF NOT AND DUP4 DUP1 ADD OR DUP6 SSTORE PUSH2 0x37D JUMP JUMPDEST DUP3 DUP1 ADD PUSH1 0x1 ADD DUP6 SSTORE DUP3 ISZERO PUSH2 0x37D JUMPI SWAP2 DUP3 ADD JUMPDEST DUP3 DUP2 GT ISZERO PUSH2 0x37C JUMPI DUP3 MLOAD DUP3 SSTORE SWAP2 PUSH1 0x20 ADD SWAP2 SWAP1 PUSH1 0x1 ADD SWAP1 PUSH2 0x361 JUMP JUMPDEST JUMPDEST POP SWAP1 POP PUSH2 0x38A SWAP2 SWAP1 PUSH2 0x38E JUMP JUMPDEST POP SWAP1 JUMP JUMPDEST JUMPDEST DUP1 DUP3 GT ISZERO PUSH2 0x3A7 JUMPI PUSH1 0x0 DUP2 PUSH1 0x0 SWAP1 SSTORE POP PUSH1 0x1 ADD PUSH2 0x38F JUMP JUMPDEST POP SWAP1 JUMP JUMPDEST PUSH1 0x0 PUSH2 0x3BE PUSH2 0x3B9 DUP5 PUSH2 0x593 JUMP JUMPDEST PUSH2 0x56E JUMP JUMPDEST SWAP1 POP DUP3 DUP2 MSTORE PUSH1 0x20 DUP2 ADD DUP5 DUP5 DUP5 ADD GT ISZERO PUSH2 0x3DA JUMPI PUSH2 0x3D9 PUSH2 0x6F2 JUMP JUMPDEST JUMPDEST PUSH2 0x3E5 DUP5 DUP3 DUP6 PUSH2 0x5EA JUMP JUMPDEST POP SWAP4 SWAP3 POP POP POP JUMP JUMPDEST PUSH1 0x0 DUP3 PUSH1 0x1F DUP4 ADD SLT PUSH2 0x402 JUMPI PUSH2 0x401 PUSH2 0x6ED JUMP JUMPDEST JUMPDEST DUP2 CALLDATALOAD PUSH2 0x412 DUP5 DUP3 PUSH1 0x20 DUP7 ADD PUSH2 0x3AB JUMP JUMPDEST SWAP2 POP POP SWAP3 SWAP2 POP POP JUMP JUMPDEST PUSH1 0x0 DUP2 CALLDATALOAD SWAP1 POP PUSH2 0x42A DUP2 PUSH2 0x712 JUMP JUMPDEST SWAP3 SWAP2 POP POP JUMP JUMPDEST PUSH1 0x0 DUP1 PUSH1 0x40 DUP4 DUP6 SUB SLT ISZERO PUSH2 0x447 JUMPI PUSH2 0x446 PUSH2 0x6FC JUMP JUMPDEST JUMPDEST PUSH1 0x0 DUP4 ADD CALLDATALOAD PUSH8 0xFFFFFFFFFFFFFFFF DUP2 GT ISZERO PUSH2 0x465 JUMPI PUSH2 0x464 PUSH2 0x6F7 JUMP JUMPDEST JUMPDEST PUSH2 0x471 DUP6 DUP3 DUP7 ADD PUSH2 0x3ED JUMP JUMPDEST SWAP3 POP POP PUSH1 0x20 PUSH2 0x482 DUP6 DUP3 DUP7 ADD PUSH2 0x41B JUMP JUMPDEST SWAP2 POP POP SWAP3 POP SWAP3 SWAP1 POP JUMP JUMPDEST PUSH1 0x0 PUSH1 0x20 DUP3 DUP5 SUB SLT ISZERO PUSH2 0x4A2 JUMPI PUSH2 0x4A1 PUSH2 0x6FC JUMP JUMPDEST JUMPDEST PUSH1 0x0 PUSH2 0x4B0 DUP5 DUP3 DUP6 ADD PUSH2 0x41B JUMP JUMPDEST SWAP2 POP POP SWAP3 SWAP2 POP POP JUMP JUMPDEST PUSH1 0x0 PUSH2 0x4C4 DUP3 PUSH2 0x5C4 JUMP JUMPDEST PUSH2 0x4CE DUP2 DUP6 PUSH2 0x5CF JUMP JUMPDEST SWAP4 POP PUSH2 0x4DE DUP2 DUP6 PUSH1 0x20 DUP7 ADD PUSH2 0x5F9 JUMP JUMPDEST PUSH2 0x4E7 DUP2 PUSH2 0x701 JUMP JUMPDEST DUP5 ADD SWAP2 POP POP SWAP3 SWAP2 POP POP JUMP JUMPDEST PUSH2 0x4FB DUP2 PUSH2 0x5E0 JUMP JUMPDEST DUP3 MSTORE POP POP JUMP JUMPDEST PUSH1 0x0 PUSH1 0x20 DUP3 ADD SWAP1 POP DUP2 DUP2 SUB PUSH1 0x0 DUP4 ADD MSTORE PUSH2 0x51B DUP2 DUP5 PUSH2 0x4B9 JUMP JUMPDEST SWAP1 POP SWAP3 SWAP2 POP POP JUMP JUMPDEST PUSH1 0x0 PUSH1 0x40 DUP3 ADD SWAP1 POP DUP2 DUP2 SUB PUSH1 0x0 DUP4 ADD MSTORE PUSH2 0x53D DUP2 DUP6 PUSH2 0x4B9 JUMP JUMPDEST SWAP1 POP PUSH2 0x54C PUSH1 0x20 DUP4 ADD DUP5 PUSH2 0x4F2 JUMP JUMPDEST SWAP4 SWAP3 POP POP POP JUMP JUMPDEST PUSH1 0x0 PUSH1 0x20 DUP3 ADD SWAP1 POP PUSH2 0x568 PUSH1 0x0 DUP4 ADD DUP5 PUSH2 0x4F2 JUMP JUMPDEST SWAP3 SWAP2 POP POP JUMP JUMPDEST PUSH1 0x0 PUSH2 0x578 PUSH2 0x589 JUMP JUMPDEST SWAP1 POP PUSH2 0x584 DUP3 DUP3 PUSH2 0x65E JUMP JUMPDEST SWAP2 SWAP1 POP JUMP JUMPDEST PUSH1 0x0 PUSH1 0x40 MLOAD SWAP1 POP SWAP1 JUMP JUMPDEST PUSH1 0x0 PUSH8 0xFFFFFFFFFFFFFFFF DUP3 GT ISZERO PUSH2 0x5AE JUMPI PUSH2 0x5AD PUSH2 0x6BE JUMP JUMPDEST JUMPDEST PUSH2 0x5B7 DUP3 PUSH2 0x701 JUMP JUMPDEST SWAP1 POP PUSH1 0x20 DUP2 ADD SWAP1 POP SWAP2 SWAP1 POP JUMP JUMPDEST PUSH1 0x0 DUP2 MLOAD SWAP1 POP SWAP2 SWAP1 POP JUMP JUMPDEST PUSH1 0x0 DUP3 DUP3 MSTORE PUSH1 0x20 DUP3 ADD SWAP1 POP SWAP3 SWAP2 POP POP JUMP JUMPDEST PUSH1 0x0 DUP2 SWAP1 POP SWAP2 SWAP1 POP JUMP JUMPDEST DUP3 DUP2 DUP4 CALLDATACOPY PUSH1 0x0 DUP4 DUP4 ADD MSTORE POP POP POP JUMP JUMPDEST PUSH1 0x0 JUMPDEST DUP4 DUP2 LT ISZERO PUSH2 0x617 JUMPI DUP1 DUP3 ADD MLOAD DUP2 DUP5 ADD MSTORE PUSH1 0x20 DUP2 ADD SWAP1 POP PUSH2 0x5FC JUMP JUMPDEST DUP4 DUP2 GT ISZERO PUSH2 0x626 JUMPI PUSH1 0x0 DUP5 DUP5 ADD MSTORE JUMPDEST POP POP POP POP JUMP JUMPDEST PUSH1 0x0 PUSH1 0x2 DUP3 DIV SWAP1 POP PUSH1 0x1 DUP3 AND DUP1 PUSH2 0x644 JUMPI PUSH1 0x7F DUP3 AND SWAP2 POP JUMPDEST PUSH1 0x20 DUP3 LT DUP2 EQ ISZERO PUSH2 0x658 JUMPI PUSH2 0x657 PUSH2 0x68F JUMP JUMPDEST JUMPDEST POP SWAP2 SWAP1 POP JUMP JUMPDEST PUSH2 0x667 DUP3 PUSH2 0x701 JUMP JUMPDEST DUP2 ADD DUP2 DUP2 LT PUSH8 0xFFFFFFFFFFFFFFFF DUP3 GT OR ISZERO PUSH2 0x686 JUMPI PUSH2 0x685 PUSH2 0x6BE JUMP JUMPDEST JUMPDEST DUP1 PUSH1 0x40 MSTORE POP POP POP JUMP JUMPDEST PUSH32 0x4E487B7100000000000000000000000000000000000000000000000000000000 PUSH1 0x0 MSTORE PUSH1 0x22 PUSH1 0x4 MSTORE PUSH1 0x24 PUSH1 0x0 REVERT JUMPDEST PUSH32 0x4E487B7100000000000000000000000000000000000000000000000000000000 PUSH1 0x0 MSTORE PUSH1 0x41 PUSH1 0x4 MSTORE PUSH1 0x24 PUSH1 0x0 REVERT JUMPDEST PUSH1 0x0 DUP1 REVERT JUMPDEST PUSH1 0x0 DUP1 REVERT JUMPDEST PUSH1 0x0 DUP1 REVERT JUMPDEST PUSH1 0x0 DUP1 REVERT JUMPDEST PUSH1 0x0 PUSH1 0x1F NOT PUSH1 0x1F DUP4 ADD AND SWAP1 POP SWAP2 SWAP1 POP JUMP JUMPDEST PUSH2 0x71B DUP2 PUSH2 0x5E0 JUMP JUMPDEST DUP2 EQ PUSH2 0x726 JUMPI PUSH1 0x0 DUP1 REVERT JUMPDEST POP JUMP INVALID LOG2 PUSH5 0x6970667358 0x22 SLT KECCAK256 0xAC PUSH21 0x752A4CBFDD98B76AA62B0720CB5ACBF3BA99F13A0 DUP3 PUSH2 0x8C99 SWAP2 0xE1 0xB5 0x2E ADDMOD PUSH5 0x736F6C6343 STOP ADDMOD SMOD STOP CALLER LOG2 PUSH5 0x6970667358 0x22 SLT KECCAK256 SWAP13 DUP16 JUMP PUSH19 0x691D212A6C44C12AB1F956094EC81DF12C9CAE OR PUSH29 0x246CDD43B1861864736F6C634300080700330000000000000000000000 "
				},
				"gasEstimates": {
					"creation": {
						"codeDepositCost": "915000",
						"executionCost": "948",
						"totalCost": "915948"
					},
					"external": {
						"createSimpleStorage()": "infinite",
						"sfAddStudent(uint256,string)": "infinite",
						"sfGetFavouriteNo(uint256)": "infinite",
						"sfGetStudent(uint256,uint256)": "infinite",
						"sfStore(uint256)": "infinite",
						"simpleStorageArray(uint256)": "5064"
					}
				},
				"methodIdentifiers": {
					"createSimpleStorage()": "40d66b3b",
					"sfAddStudent(uint256,string)": "7574ede8",
					"sfGetFavouriteNo(uint256)": "4bffb6be",
					"sfGetStudent(uint256,uint256)": "deae2adc",
					"sfStore(uint256)": "83eab6a2",
					"simpleStorageArray(uint256)": "64591bf1"
				}
			},
			"storageLayout": {
				"storage": [
					{
						"astId": 80,
						"contract": "Contracts/StorageFactory.sol:StorageFactory",
						"label": "simpleStorage",
						"offset": 0,
						"slot": "0",
						"type": "t_contract(SimpleStorage)74"
					},
					{
						"astId": 84,
						"contract": "Contracts/StorageFactory.sol:StorageFactory",
						"label": "simpleStorageArray",
						"offset": 0,
						"slot": "1",
						"type": "t_array(t_contract(SimpleStorage)74)dyn_storage"
					}
				],
				"types": {
					"t_array(t_contract(SimpleStorage)74)dyn_storage": {
						"base": "t_contract(SimpleStorage)74",
						"encoding": "dynamic_array",
						"label": "contract SimpleStorage[]",
						"numberOfBytes": "32"
					},
					"t_contract(SimpleStorage)74": {
						"encoding": "inplace",
						"label": "contract SimpleStorage",
						"numberOfBytes": "20"
					}
				}
			},
			"userdoc": {
				"kind": "user",
				"methods": {},
				"version": 1
			}
		}
	}
}