{
	"Contracts/FundMe.sol": {
		"FundMe": {
			"abi": [
				{
					"inputs": [],
					"name": "fund",
					"outputs": [],
					"stateMutability": "payable",
					"type": "function"
				},
				{
					"inputs": [],
					"name": "getPrice",
					"outputs": [
						{
							"internalType": "int256",
							"name": "",
							"type": "int256"
						}
					],
					"stateMutability": "view",
					"type": "function"
				}
			],
			"devdoc": {
				"kind": "dev",
				"methods": {},
				"version": 1
			},
			"evm": {
				"assembly": "    /* \"Contracts/FundMe.sol\":143:591  contract FundMe{\r... */\n  mstore(0x40, 0x80)\n    /* \"Contracts/FundMe.sol\":233:275  0xD4a33860578De61DBAbDc8BFdb98FD742fA7028e */\n  0xd4a33860578de61dbabdc8bfdb98fd742fa7028e\n    /* \"Contracts/FundMe.sol\":165:276  AggregatorV3Interface aggregatorV3Interface = AggregatorV3Interface(0xD4a33860578De61DBAbDc8BFdb98FD742fA7028e) */\n  0x00\n  dup1\n  0x0100\n  exp\n  dup2\n  sload\n  dup2\n  0xffffffffffffffffffffffffffffffffffffffff\n  mul\n  not\n  and\n  swap1\n  dup4\n  0xffffffffffffffffffffffffffffffffffffffff\n  and\n  mul\n  or\n  swap1\n  sstore\n  pop\n    /* \"Contracts/FundMe.sol\":143:591  contract FundMe{\r... */\n  callvalue\n  dup1\n  iszero\n  tag_1\n  jumpi\n  0x00\n  dup1\n  revert\ntag_1:\n  pop\n  dataSize(sub_0)\n  dup1\n  dataOffset(sub_0)\n  0x00\n  codecopy\n  0x00\n  return\nstop\n\nsub_0: assembly {\n        /* \"Contracts/FundMe.sol\":143:591  contract FundMe{\r... */\n      mstore(0x40, 0x80)\n      jumpi(tag_1, lt(calldatasize, 0x04))\n      shr(0xe0, calldataload(0x00))\n      dup1\n      0x98d5fdca\n      eq\n      tag_2\n      jumpi\n      dup1\n      0xb60d4288\n      eq\n      tag_3\n      jumpi\n    tag_1:\n      0x00\n      dup1\n      revert\n        /* \"Contracts/FundMe.sol\":391:536  function getPrice() public view returns(int) {\r... */\n    tag_2:\n      callvalue\n      dup1\n      iszero\n      tag_4\n      jumpi\n      0x00\n      dup1\n      revert\n    tag_4:\n      pop\n      tag_5\n      tag_6\n      jump\t// in\n    tag_5:\n      mload(0x40)\n      tag_7\n      swap2\n      swap1\n      tag_8\n      jump\t// in\n    tag_7:\n      mload(0x40)\n      dup1\n      swap2\n      sub\n      swap1\n      return\n        /* \"Contracts/FundMe.sol\":285:383  function fund() public payable {\r... */\n    tag_3:\n      tag_9\n      tag_10\n      jump\t// in\n    tag_9:\n      stop\n        /* \"Contracts/FundMe.sol\":391:536  function getPrice() public view returns(int) {\r... */\n    tag_6:\n        /* \"Contracts/FundMe.sol\":431:434  int */\n      0x00\n        /* \"Contracts/FundMe.sol\":450:459  int price */\n      dup1\n        /* \"Contracts/FundMe.sol\":466:487  aggregatorV3Interface */\n      0x00\n      dup1\n      sload\n      swap1\n      0x0100\n      exp\n      swap1\n      div\n      0xffffffffffffffffffffffffffffffffffffffff\n      and\n        /* \"Contracts/FundMe.sol\":466:503  aggregatorV3Interface.latestRoundData */\n      0xffffffffffffffffffffffffffffffffffffffff\n      and\n      0xfeaf968c\n        /* \"Contracts/FundMe.sol\":466:505  aggregatorV3Interface.latestRoundData() */\n      mload(0x40)\n      dup2\n      0xffffffff\n      and\n      0xe0\n      shl\n      dup2\n      mstore\n      0x04\n      add\n      0xa0\n      mload(0x40)\n      dup1\n      dup4\n      sub\n      dup2\n      dup7\n      dup1\n      extcodesize\n      iszero\n      dup1\n      iszero\n      tag_12\n      jumpi\n      0x00\n      dup1\n      revert\n    tag_12:\n      pop\n      gas\n      staticcall\n      iszero\n      dup1\n      iszero\n      tag_14\n      jumpi\n      returndatasize\n      0x00\n      dup1\n      returndatacopy\n      revert(0x00, returndatasize)\n    tag_14:\n      pop\n      pop\n      pop\n      pop\n      mload(0x40)\n      returndatasize\n      not(0x1f)\n      0x1f\n      dup3\n      add\n      and\n      dup3\n      add\n      dup1\n      0x40\n      mstore\n      pop\n      dup2\n      add\n      swap1\n      tag_15\n      swap2\n      swap1\n      tag_16\n      jump\t// in\n    tag_15:\n        /* \"Contracts/FundMe.sol\":447:505  (, int price,,,) = aggregatorV3Interface.latestRoundData() */\n      pop\n      pop\n      pop\n      swap2\n      pop\n      pop\n        /* \"Contracts/FundMe.sol\":523:528  price */\n      dup1\n        /* \"Contracts/FundMe.sol\":516:528  return price */\n      swap2\n      pop\n      pop\n        /* \"Contracts/FundMe.sol\":391:536  function getPrice() public view returns(int) {\r... */\n      swap1\n      jump\t// out\n        /* \"Contracts/FundMe.sol\":285:383  function fund() public payable {\r... */\n    tag_10:\n        /* \"Contracts/FundMe.sol\":348:352  1e18 */\n      0x0de0b6b3a7640000\n        /* \"Contracts/FundMe.sol\":335:344  msg.value */\n      callvalue\n        /* \"Contracts/FundMe.sol\":335:352  msg.value >= 1e18 */\n      lt\n      iszero\n        /* \"Contracts/FundMe.sol\":327:375  require(msg.value >= 1e18, \"Didn't send enough\") */\n      tag_18\n      jumpi\n      mload(0x40)\n      0x08c379a000000000000000000000000000000000000000000000000000000000\n      dup2\n      mstore\n      0x04\n      add\n      tag_19\n      swap1\n      tag_20\n      jump\t// in\n    tag_19:\n      mload(0x40)\n      dup1\n      swap2\n      sub\n      swap1\n      revert\n    tag_18:\n        /* \"Contracts/FundMe.sol\":285:383  function fund() public payable {\r... */\n      jump\t// out\n        /* \"#utility.yul\":7:148   */\n    tag_22:\n        /* \"#utility.yul\":63:68   */\n      0x00\n        /* \"#utility.yul\":94:100   */\n      dup2\n        /* \"#utility.yul\":88:101   */\n      mload\n        /* \"#utility.yul\":79:101   */\n      swap1\n      pop\n        /* \"#utility.yul\":110:142   */\n      tag_24\n        /* \"#utility.yul\":136:141   */\n      dup2\n        /* \"#utility.yul\":110:142   */\n      tag_25\n      jump\t// in\n    tag_24:\n        /* \"#utility.yul\":7:148   */\n      swap3\n      swap2\n      pop\n      pop\n      jump\t// out\n        /* \"#utility.yul\":154:297   */\n    tag_26:\n        /* \"#utility.yul\":211:216   */\n      0x00\n        /* \"#utility.yul\":242:248   */\n      dup2\n        /* \"#utility.yul\":236:249   */\n      mload\n        /* \"#utility.yul\":227:249   */\n      swap1\n      pop\n        /* \"#utility.yul\":258:291   */\n      tag_28\n        /* \"#utility.yul\":285:290   */\n      dup2\n        /* \"#utility.yul\":258:291   */\n      tag_29\n      jump\t// in\n    tag_28:\n        /* \"#utility.yul\":154:297   */\n      swap3\n      swap2\n      pop\n      pop\n      jump\t// out\n        /* \"#utility.yul\":303:444   */\n    tag_30:\n        /* \"#utility.yul\":359:364   */\n      0x00\n        /* \"#utility.yul\":390:396   */\n      dup2\n        /* \"#utility.yul\":384:397   */\n      mload\n        /* \"#utility.yul\":375:397   */\n      swap1\n      pop\n        /* \"#utility.yul\":406:438   */\n      tag_32\n        /* \"#utility.yul\":432:437   */\n      dup2\n        /* \"#utility.yul\":406:438   */\n      tag_33\n      jump\t// in\n    tag_32:\n        /* \"#utility.yul\":303:444   */\n      swap3\n      swap2\n      pop\n      pop\n      jump\t// out\n        /* \"#utility.yul\":450:1421   */\n    tag_16:\n        /* \"#utility.yul\":553:559   */\n      0x00\n        /* \"#utility.yul\":561:567   */\n      dup1\n        /* \"#utility.yul\":569:575   */\n      0x00\n        /* \"#utility.yul\":577:583   */\n      dup1\n        /* \"#utility.yul\":585:591   */\n      0x00\n        /* \"#utility.yul\":634:637   */\n      0xa0\n        /* \"#utility.yul\":622:631   */\n      dup7\n        /* \"#utility.yul\":613:620   */\n      dup9\n        /* \"#utility.yul\":609:632   */\n      sub\n        /* \"#utility.yul\":605:638   */\n      slt\n        /* \"#utility.yul\":602:722   */\n      iszero\n      tag_35\n      jumpi\n        /* \"#utility.yul\":641:720   */\n      tag_36\n      tag_37\n      jump\t// in\n    tag_36:\n        /* \"#utility.yul\":602:722   */\n    tag_35:\n        /* \"#utility.yul\":761:762   */\n      0x00\n        /* \"#utility.yul\":786:849   */\n      tag_38\n        /* \"#utility.yul\":841:848   */\n      dup9\n        /* \"#utility.yul\":832:838   */\n      dup3\n        /* \"#utility.yul\":821:830   */\n      dup10\n        /* \"#utility.yul\":817:839   */\n      add\n        /* \"#utility.yul\":786:849   */\n      tag_30\n      jump\t// in\n    tag_38:\n        /* \"#utility.yul\":776:849   */\n      swap6\n      pop\n        /* \"#utility.yul\":732:859   */\n      pop\n        /* \"#utility.yul\":898:900   */\n      0x20\n        /* \"#utility.yul\":924:987   */\n      tag_39\n        /* \"#utility.yul\":979:986   */\n      dup9\n        /* \"#utility.yul\":970:976   */\n      dup3\n        /* \"#utility.yul\":959:968   */\n      dup10\n        /* \"#utility.yul\":955:977   */\n      add\n        /* \"#utility.yul\":924:987   */\n      tag_22\n      jump\t// in\n    tag_39:\n        /* \"#utility.yul\":914:987   */\n      swap5\n      pop\n        /* \"#utility.yul\":869:997   */\n      pop\n        /* \"#utility.yul\":1036:1038   */\n      0x40\n        /* \"#utility.yul\":1062:1126   */\n      tag_40\n        /* \"#utility.yul\":1118:1125   */\n      dup9\n        /* \"#utility.yul\":1109:1115   */\n      dup3\n        /* \"#utility.yul\":1098:1107   */\n      dup10\n        /* \"#utility.yul\":1094:1116   */\n      add\n        /* \"#utility.yul\":1062:1126   */\n      tag_26\n      jump\t// in\n    tag_40:\n        /* \"#utility.yul\":1052:1126   */\n      swap4\n      pop\n        /* \"#utility.yul\":1007:1136   */\n      pop\n        /* \"#utility.yul\":1175:1177   */\n      0x60\n        /* \"#utility.yul\":1201:1265   */\n      tag_41\n        /* \"#utility.yul\":1257:1264   */\n      dup9\n        /* \"#utility.yul\":1248:1254   */\n      dup3\n        /* \"#utility.yul\":1237:1246   */\n      dup10\n        /* \"#utility.yul\":1233:1255   */\n      add\n        /* \"#utility.yul\":1201:1265   */\n      tag_26\n      jump\t// in\n    tag_41:\n        /* \"#utility.yul\":1191:1265   */\n      swap3\n      pop\n        /* \"#utility.yul\":1146:1275   */\n      pop\n        /* \"#utility.yul\":1314:1317   */\n      0x80\n        /* \"#utility.yul\":1341:1404   */\n      tag_42\n        /* \"#utility.yul\":1396:1403   */\n      dup9\n        /* \"#utility.yul\":1387:1393   */\n      dup3\n        /* \"#utility.yul\":1376:1385   */\n      dup10\n        /* \"#utility.yul\":1372:1394   */\n      add\n        /* \"#utility.yul\":1341:1404   */\n      tag_30\n      jump\t// in\n    tag_42:\n        /* \"#utility.yul\":1331:1404   */\n      swap2\n      pop\n        /* \"#utility.yul\":1285:1414   */\n      pop\n        /* \"#utility.yul\":450:1421   */\n      swap3\n      swap6\n      pop\n      swap3\n      swap6\n      swap1\n      swap4\n      pop\n      jump\t// out\n        /* \"#utility.yul\":1427:1542   */\n    tag_43:\n        /* \"#utility.yul\":1512:1535   */\n      tag_45\n        /* \"#utility.yul\":1529:1534   */\n      dup2\n        /* \"#utility.yul\":1512:1535   */\n      tag_46\n      jump\t// in\n    tag_45:\n        /* \"#utility.yul\":1507:1510   */\n      dup3\n        /* \"#utility.yul\":1500:1536   */\n      mstore\n        /* \"#utility.yul\":1427:1542   */\n      pop\n      pop\n      jump\t// out\n        /* \"#utility.yul\":1548:1914   */\n    tag_47:\n        /* \"#utility.yul\":1690:1693   */\n      0x00\n        /* \"#utility.yul\":1711:1778   */\n      tag_49\n        /* \"#utility.yul\":1775:1777   */\n      0x12\n        /* \"#utility.yul\":1770:1773   */\n      dup4\n        /* \"#utility.yul\":1711:1778   */\n      tag_50\n      jump\t// in\n    tag_49:\n        /* \"#utility.yul\":1704:1778   */\n      swap2\n      pop\n        /* \"#utility.yul\":1787:1880   */\n      tag_51\n        /* \"#utility.yul\":1876:1879   */\n      dup3\n        /* \"#utility.yul\":1787:1880   */\n      tag_52\n      jump\t// in\n    tag_51:\n        /* \"#utility.yul\":1905:1907   */\n      0x20\n        /* \"#utility.yul\":1900:1903   */\n      dup3\n        /* \"#utility.yul\":1896:1908   */\n      add\n        /* \"#utility.yul\":1889:1908   */\n      swap1\n      pop\n        /* \"#utility.yul\":1548:1914   */\n      swap2\n      swap1\n      pop\n      jump\t// out\n        /* \"#utility.yul\":1920:2138   */\n    tag_8:\n        /* \"#utility.yul\":2011:2015   */\n      0x00\n        /* \"#utility.yul\":2049:2051   */\n      0x20\n        /* \"#utility.yul\":2038:2047   */\n      dup3\n        /* \"#utility.yul\":2034:2052   */\n      add\n        /* \"#utility.yul\":2026:2052   */\n      swap1\n      pop\n        /* \"#utility.yul\":2062:2131   */\n      tag_54\n        /* \"#utility.yul\":2128:2129   */\n      0x00\n        /* \"#utility.yul\":2117:2126   */\n      dup4\n        /* \"#utility.yul\":2113:2130   */\n      add\n        /* \"#utility.yul\":2104:2110   */\n      dup5\n        /* \"#utility.yul\":2062:2131   */\n      tag_43\n      jump\t// in\n    tag_54:\n        /* \"#utility.yul\":1920:2138   */\n      swap3\n      swap2\n      pop\n      pop\n      jump\t// out\n        /* \"#utility.yul\":2144:2563   */\n    tag_20:\n        /* \"#utility.yul\":2310:2314   */\n      0x00\n        /* \"#utility.yul\":2348:2350   */\n      0x20\n        /* \"#utility.yul\":2337:2346   */\n      dup3\n        /* \"#utility.yul\":2333:2351   */\n      add\n        /* \"#utility.yul\":2325:2351   */\n      swap1\n      pop\n        /* \"#utility.yul\":2397:2406   */\n      dup2\n        /* \"#utility.yul\":2391:2395   */\n      dup2\n        /* \"#utility.yul\":2387:2407   */\n      sub\n        /* \"#utility.yul\":2383:2384   */\n      0x00\n        /* \"#utility.yul\":2372:2381   */\n      dup4\n        /* \"#utility.yul\":2368:2385   */\n      add\n        /* \"#utility.yul\":2361:2408   */\n      mstore\n        /* \"#utility.yul\":2425:2556   */\n      tag_56\n        /* \"#utility.yul\":2551:2555   */\n      dup2\n        /* \"#utility.yul\":2425:2556   */\n      tag_47\n      jump\t// in\n    tag_56:\n        /* \"#utility.yul\":2417:2556   */\n      swap1\n      pop\n        /* \"#utility.yul\":2144:2563   */\n      swap2\n      swap1\n      pop\n      jump\t// out\n        /* \"#utility.yul\":2650:2819   */\n    tag_50:\n        /* \"#utility.yul\":2734:2745   */\n      0x00\n        /* \"#utility.yul\":2768:2774   */\n      dup3\n        /* \"#utility.yul\":2763:2766   */\n      dup3\n        /* \"#utility.yul\":2756:2775   */\n      mstore\n        /* \"#utility.yul\":2808:2812   */\n      0x20\n        /* \"#utility.yul\":2803:2806   */\n      dup3\n        /* \"#utility.yul\":2799:2813   */\n      add\n        /* \"#utility.yul\":2784:2813   */\n      swap1\n      pop\n        /* \"#utility.yul\":2650:2819   */\n      swap3\n      swap2\n      pop\n      pop\n      jump\t// out\n        /* \"#utility.yul\":2825:2901   */\n    tag_46:\n        /* \"#utility.yul\":2861:2868   */\n      0x00\n        /* \"#utility.yul\":2890:2895   */\n      dup2\n        /* \"#utility.yul\":2879:2895   */\n      swap1\n      pop\n        /* \"#utility.yul\":2825:2901   */\n      swap2\n      swap1\n      pop\n      jump\t// out\n        /* \"#utility.yul\":2907:2984   */\n    tag_61:\n        /* \"#utility.yul\":2944:2951   */\n      0x00\n        /* \"#utility.yul\":2973:2978   */\n      dup2\n        /* \"#utility.yul\":2962:2978   */\n      swap1\n      pop\n        /* \"#utility.yul\":2907:2984   */\n      swap2\n      swap1\n      pop\n      jump\t// out\n        /* \"#utility.yul\":2990:3095   */\n    tag_63:\n        /* \"#utility.yul\":3026:3033   */\n      0x00\n        /* \"#utility.yul\":3066:3088   */\n      0xffffffffffffffffffff\n        /* \"#utility.yul\":3059:3064   */\n      dup3\n        /* \"#utility.yul\":3055:3089   */\n      and\n        /* \"#utility.yul\":3044:3089   */\n      swap1\n      pop\n        /* \"#utility.yul\":2990:3095   */\n      swap2\n      swap1\n      pop\n      jump\t// out\n        /* \"#utility.yul\":3224:3341   */\n    tag_37:\n        /* \"#utility.yul\":3333:3334   */\n      0x00\n        /* \"#utility.yul\":3330:3331   */\n      dup1\n        /* \"#utility.yul\":3323:3335   */\n      revert\n        /* \"#utility.yul\":3347:3515   */\n    tag_52:\n        /* \"#utility.yul\":3487:3507   */\n      0x4469646e27742073656e6420656e6f7567680000000000000000000000000000\n        /* \"#utility.yul\":3483:3484   */\n      0x00\n        /* \"#utility.yul\":3475:3481   */\n      dup3\n        /* \"#utility.yul\":3471:3485   */\n      add\n        /* \"#utility.yul\":3464:3508   */\n      mstore\n        /* \"#utility.yul\":3347:3515   */\n      pop\n      jump\t// out\n        /* \"#utility.yul\":3521:3641   */\n    tag_25:\n        /* \"#utility.yul\":3593:3616   */\n      tag_70\n        /* \"#utility.yul\":3610:3615   */\n      dup2\n        /* \"#utility.yul\":3593:3616   */\n      tag_46\n      jump\t// in\n    tag_70:\n        /* \"#utility.yul\":3586:3591   */\n      dup2\n        /* \"#utility.yul\":3583:3617   */\n      eq\n        /* \"#utility.yul\":3573:3635   */\n      tag_71\n      jumpi\n        /* \"#utility.yul\":3631:3632   */\n      0x00\n        /* \"#utility.yul\":3628:3629   */\n      dup1\n        /* \"#utility.yul\":3621:3633   */\n      revert\n        /* \"#utility.yul\":3573:3635   */\n    tag_71:\n        /* \"#utility.yul\":3521:3641   */\n      pop\n      jump\t// out\n        /* \"#utility.yul\":3647:3769   */\n    tag_29:\n        /* \"#utility.yul\":3720:3744   */\n      tag_73\n        /* \"#utility.yul\":3738:3743   */\n      dup2\n        /* \"#utility.yul\":3720:3744   */\n      tag_61\n      jump\t// in\n    tag_73:\n        /* \"#utility.yul\":3713:3718   */\n      dup2\n        /* \"#utility.yul\":3710:3745   */\n      eq\n        /* \"#utility.yul\":3700:3763   */\n      tag_74\n      jumpi\n        /* \"#utility.yul\":3759:3760   */\n      0x00\n        /* \"#utility.yul\":3756:3757   */\n      dup1\n        /* \"#utility.yul\":3749:3761   */\n      revert\n        /* \"#utility.yul\":3700:3763   */\n    tag_74:\n        /* \"#utility.yul\":3647:3769   */\n      pop\n      jump\t// out\n        /* \"#utility.yul\":3775:3895   */\n    tag_33:\n        /* \"#utility.yul\":3847:3870   */\n      tag_76\n        /* \"#utility.yul\":3864:3869   */\n      dup2\n        /* \"#utility.yul\":3847:3870   */\n      tag_63\n      jump\t// in\n    tag_76:\n        /* \"#utility.yul\":3840:3845   */\n      dup2\n        /* \"#utility.yul\":3837:3871   */\n      eq\n        /* \"#utility.yul\":3827:3889   */\n      tag_77\n      jumpi\n        /* \"#utility.yul\":3885:3886   */\n      0x00\n        /* \"#utility.yul\":3882:3883   */\n      dup1\n        /* \"#utility.yul\":3875:3887   */\n      revert\n        /* \"#utility.yul\":3827:3889   */\n    tag_77:\n        /* \"#utility.yul\":3775:3895   */\n      pop\n      jump\t// out\n\n    auxdata: 0xa26469706673582212202962c6c81a6379404c40cd182198c2b0cecbfd8ccd6875c5ea96dfa9689c6a0064736f6c63430008070033\n}\n",
				"bytecode": {
					"linkReferences": {},
					"object": "608060405273d4a33860578de61dbabdc8bfdb98fd742fa7028e6000806101000a81548173ffffffffffffffffffffffffffffffffffffffff021916908373ffffffffffffffffffffffffffffffffffffffff16021790555034801561006457600080fd5b50610369806100746000396000f3fe6080604052600436106100295760003560e01c806398d5fdca1461002e578063b60d428814610059575b600080fd5b34801561003a57600080fd5b50610043610063565b604051610050919061024a565b60405180910390f35b610061610111565b005b60008060008054906101000a900473ffffffffffffffffffffffffffffffffffffffff1673ffffffffffffffffffffffffffffffffffffffff1663feaf968c6040518163ffffffff1660e01b815260040160a06040518083038186803b1580156100cc57600080fd5b505afa1580156100e0573d6000803e3d6000fd5b505050506040513d601f19601f82011682018060405250810190610104919061019d565b5050509150508091505090565b670de0b6b3a764000034101561015c576040517f08c379a000000000000000000000000000000000000000000000000000000000815260040161015390610265565b60405180910390fd5b565b60008151905061016d816102ee565b92915050565b60008151905061018281610305565b92915050565b6000815190506101978161031c565b92915050565b600080600080600060a086880312156101b9576101b86102c0565b5b60006101c788828901610188565b95505060206101d88882890161015e565b94505060406101e988828901610173565b93505060606101fa88828901610173565b925050608061020b88828901610188565b9150509295509295909350565b61022181610296565b82525050565b6000610234601283610285565b915061023f826102c5565b602082019050919050565b600060208201905061025f6000830184610218565b92915050565b6000602082019050818103600083015261027e81610227565b9050919050565b600082825260208201905092915050565b6000819050919050565b6000819050919050565b600069ffffffffffffffffffff82169050919050565b600080fd5b7f4469646e27742073656e6420656e6f7567680000000000000000000000000000600082015250565b6102f781610296565b811461030257600080fd5b50565b61030e816102a0565b811461031957600080fd5b50565b610325816102aa565b811461033057600080fd5b5056fea26469706673582212202962c6c81a6379404c40cd182198c2b0cecbfd8ccd6875c5ea96dfa9689c6a0064736f6c63430008070033",
					"opcodes": "PUSH1 0x80 PUSH1 0x40 MSTORE PUSH20 0xD4A33860578DE61DBABDC8BFDB98FD742FA7028E PUSH1 0x0 DUP1 PUSH2 0x100 EXP DUP2 SLOAD DUP2 PUSH20 0xFFFFFFFFFFFFFFFFFFFFFFFFFFFFFFFFFFFFFFFF MUL NOT AND SWAP1 DUP4 PUSH20 0xFFFFFFFFFFFFFFFFFFFFFFFFFFFFFFFFFFFFFFFF AND MUL OR SWAP1 SSTORE POP CALLVALUE DUP1 ISZERO PUSH2 0x64 JUMPI PUSH1 0x0 DUP1 REVERT JUMPDEST POP PUSH2 0x369 DUP1 PUSH2 0x74 PUSH1 0x0 CODECOPY PUSH1 0x0 RETURN INVALID PUSH1 0x80 PUSH1 0x40 MSTORE PUSH1 0x4 CALLDATASIZE LT PUSH2 0x29 JUMPI PUSH1 0x0 CALLDATALOAD PUSH1 0xE0 SHR DUP1 PUSH4 0x98D5FDCA EQ PUSH2 0x2E JUMPI DUP1 PUSH4 0xB60D4288 EQ PUSH2 0x59 JUMPI JUMPDEST PUSH1 0x0 DUP1 REVERT JUMPDEST CALLVALUE DUP1 ISZERO PUSH2 0x3A JUMPI PUSH1 0x0 DUP1 REVERT JUMPDEST POP PUSH2 0x43 PUSH2 0x63 JUMP JUMPDEST PUSH1 0x40 MLOAD PUSH2 0x50 SWAP2 SWAP1 PUSH2 0x24A JUMP JUMPDEST PUSH1 0x40 MLOAD DUP1 SWAP2 SUB SWAP1 RETURN JUMPDEST PUSH2 0x61 PUSH2 0x111 JUMP JUMPDEST STOP JUMPDEST PUSH1 0x0 DUP1 PUSH1 0x0 DUP1 SLOAD SWAP1 PUSH2 0x100 EXP SWAP1 DIV PUSH20 0xFFFFFFFFFFFFFFFFFFFFFFFFFFFFFFFFFFFFFFFF AND PUSH20 0xFFFFFFFFFFFFFFFFFFFFFFFFFFFFFFFFFFFFFFFF AND PUSH4 0xFEAF968C PUSH1 0x40 MLOAD DUP2 PUSH4 0xFFFFFFFF AND PUSH1 0xE0 SHL DUP2 MSTORE PUSH1 0x4 ADD PUSH1 0xA0 PUSH1 0x40 MLOAD DUP1 DUP4 SUB DUP2 DUP7 DUP1 EXTCODESIZE ISZERO DUP1 ISZERO PUSH2 0xCC JUMPI PUSH1 0x0 DUP1 REVERT JUMPDEST POP GAS STATICCALL ISZERO DUP1 ISZERO PUSH2 0xE0 JUMPI RETURNDATASIZE PUSH1 0x0 DUP1 RETURNDATACOPY RETURNDATASIZE PUSH1 0x0 REVERT JUMPDEST POP POP POP POP PUSH1 0x40 MLOAD RETURNDATASIZE PUSH1 0x1F NOT PUSH1 0x1F DUP3 ADD AND DUP3 ADD DUP1 PUSH1 0x40 MSTORE POP DUP2 ADD SWAP1 PUSH2 0x104 SWAP2 SWAP1 PUSH2 0x19D JUMP JUMPDEST POP POP POP SWAP2 POP POP DUP1 SWAP2 POP POP SWAP1 JUMP JUMPDEST PUSH8 0xDE0B6B3A7640000 CALLVALUE LT ISZERO PUSH2 0x15C JUMPI PUSH1 0x40 MLOAD PUSH32 0x8C379A000000000000000000000000000000000000000000000000000000000 DUP2 MSTORE PUSH1 0x4 ADD PUSH2 0x153 SWAP1 PUSH2 0x265 JUMP JUMPDEST PUSH1 0x40 MLOAD DUP1 SWAP2 SUB SWAP1 REVERT JUMPDEST JUMP JUMPDEST PUSH1 0x0 DUP2 MLOAD SWAP1 POP PUSH2 0x16D DUP2 PUSH2 0x2EE JUMP JUMPDEST SWAP3 SWAP2 POP POP JUMP JUMPDEST PUSH1 0x0 DUP2 MLOAD SWAP1 POP PUSH2 0x182 DUP2 PUSH2 0x305 JUMP JUMPDEST SWAP3 SWAP2 POP POP JUMP JUMPDEST PUSH1 0x0 DUP2 MLOAD SWAP1 POP PUSH2 0x197 DUP2 PUSH2 0x31C JUMP JUMPDEST SWAP3 SWAP2 POP POP JUMP JUMPDEST PUSH1 0x0 DUP1 PUSH1 0x0 DUP1 PUSH1 0x0 PUSH1 0xA0 DUP7 DUP9 SUB SLT ISZERO PUSH2 0x1B9 JUMPI PUSH2 0x1B8 PUSH2 0x2C0 JUMP JUMPDEST JUMPDEST PUSH1 0x0 PUSH2 0x1C7 DUP9 DUP3 DUP10 ADD PUSH2 0x188 JUMP JUMPDEST SWAP6 POP POP PUSH1 0x20 PUSH2 0x1D8 DUP9 DUP3 DUP10 ADD PUSH2 0x15E JUMP JUMPDEST SWAP5 POP POP PUSH1 0x40 PUSH2 0x1E9 DUP9 DUP3 DUP10 ADD PUSH2 0x173 JUMP JUMPDEST SWAP4 POP POP PUSH1 0x60 PUSH2 0x1FA DUP9 DUP3 DUP10 ADD PUSH2 0x173 JUMP JUMPDEST SWAP3 POP POP PUSH1 0x80 PUSH2 0x20B DUP9 DUP3 DUP10 ADD PUSH2 0x188 JUMP JUMPDEST SWAP2 POP POP SWAP3 SWAP6 POP SWAP3 SWAP6 SWAP1 SWAP4 POP JUMP JUMPDEST PUSH2 0x221 DUP2 PUSH2 0x296 JUMP JUMPDEST DUP3 MSTORE POP POP JUMP JUMPDEST PUSH1 0x0 PUSH2 0x234 PUSH1 0x12 DUP4 PUSH2 0x285 JUMP JUMPDEST SWAP2 POP PUSH2 0x23F DUP3 PUSH2 0x2C5 JUMP JUMPDEST PUSH1 0x20 DUP3 ADD SWAP1 POP SWAP2 SWAP1 POP JUMP JUMPDEST PUSH1 0x0 PUSH1 0x20 DUP3 ADD SWAP1 POP PUSH2 0x25F PUSH1 0x0 DUP4 ADD DUP5 PUSH2 0x218 JUMP JUMPDEST SWAP3 SWAP2 POP POP JUMP JUMPDEST PUSH1 0x0 PUSH1 0x20 DUP3 ADD SWAP1 POP DUP2 DUP2 SUB PUSH1 0x0 DUP4 ADD MSTORE PUSH2 0x27E DUP2 PUSH2 0x227 JUMP JUMPDEST SWAP1 POP SWAP2 SWAP1 POP JUMP JUMPDEST PUSH1 0x0 DUP3 DUP3 MSTORE PUSH1 0x20 DUP3 ADD SWAP1 POP SWAP3 SWAP2 POP POP JUMP JUMPDEST PUSH1 0x0 DUP2 SWAP1 POP SWAP2 SWAP1 POP JUMP JUMPDEST PUSH1 0x0 DUP2 SWAP1 POP SWAP2 SWAP1 POP JUMP JUMPDEST PUSH1 0x0 PUSH10 0xFFFFFFFFFFFFFFFFFFFF DUP3 AND SWAP1 POP SWAP2 SWAP1 POP JUMP JUMPDEST PUSH1 0x0 DUP1 REVERT JUMPDEST PUSH32 0x4469646E27742073656E6420656E6F7567680000000000000000000000000000 PUSH1 0x0 DUP3 ADD MSTORE POP JUMP JUMPDEST PUSH2 0x2F7 DUP2 PUSH2 0x296 JUMP JUMPDEST DUP2 EQ PUSH2 0x302 JUMPI PUSH1 0x0 DUP1 REVERT JUMPDEST POP JUMP JUMPDEST PUSH2 0x30E DUP2 PUSH2 0x2A0 JUMP JUMPDEST DUP2 EQ PUSH2 0x319 JUMPI PUSH1 0x0 DUP1 REVERT JUMPDEST POP JUMP JUMPDEST PUSH2 0x325 DUP2 PUSH2 0x2AA JUMP JUMPDEST DUP2 EQ PUSH2 0x330 JUMPI PUSH1 0x0 DUP1 REVERT JUMPDEST POP JUMP INVALID LOG2 PUSH5 0x6970667358 0x22 SLT KECCAK256 0x29 PUSH3 0xC6C81A PUSH4 0x79404C40 0xCD XOR 0x21 SWAP9 0xC2 0xB0 0xCE 0xCB REVERT DUP13 0xCD PUSH9 0x75C5EA96DFA9689C6A STOP PUSH5 0x736F6C6343 STOP ADDMOD SMOD STOP CALLER "
				},
				"gasEstimates": {
					"creation": {
						"codeDepositCost": "174600",
						"executionCost": "24487",
						"totalCost": "199087"
					},
					"external": {
						"fund()": "434",
						"getPrice()": "infinite"
					}
				},
				"methodIdentifiers": {
					"fund()": "b60d4288",
					"getPrice()": "98d5fdca"
				}
			},
			"storageLayout": {
				"storage": [
					{
						"astId": 54,
						"contract": "Contracts/FundMe.sol:FundMe",
						"label": "aggregatorV3Interface",
						"offset": 0,
						"slot": "0",
						"type": "t_contract(AggregatorV3Interface)45"
					}
				],
				"types": {
					"t_contract(AggregatorV3Interface)45": {
						"encoding": "inplace",
						"label": "contract AggregatorV3Interface",
						"numberOfBytes": "20"
					}
				}
			},
			"userdoc": {
				"kind": "user",
				"methods": {},
				"version": 1
			}
		}
	}
}