{
	"Contracts/FundMe.sol": {
		"FundMe": {
			"abi": [
				{
					"inputs": [],
					"stateMutability": "nonpayable",
					"type": "constructor"
				},
				{
					"stateMutability": "nonpayable",
					"type": "fallback"
				},
				{
					"inputs": [],
					"name": "fund",
					"outputs": [],
					"stateMutability": "payable",
					"type": "function"
				},
				{
					"inputs": [
						{
							"internalType": "address",
							"name": "",
							"type": "address"
						}
					],
					"name": "funderAndAmountSent",
					"outputs": [
						{
							"internalType": "uint256",
							"name": "",
							"type": "uint256"
						}
					],
					"stateMutability": "view",
					"type": "function"
				},
				{
					"inputs": [
						{
							"internalType": "uint256",
							"name": "",
							"type": "uint256"
						}
					],
					"name": "funders",
					"outputs": [
						{
							"internalType": "address",
							"name": "",
							"type": "address"
						}
					],
					"stateMutability": "view",
					"type": "function"
				},
				{
					"inputs": [],
					"name": "limitAmount",
					"outputs": [
						{
							"internalType": "uint256",
							"name": "",
							"type": "uint256"
						}
					],
					"stateMutability": "view",
					"type": "function"
				},
				{
					"inputs": [],
					"name": "owner",
					"outputs": [
						{
							"internalType": "address",
							"name": "",
							"type": "address"
						}
					],
					"stateMutability": "view",
					"type": "function"
				},
				{
					"inputs": [],
					"name": "test",
					"outputs": [
						{
							"internalType": "uint256",
							"name": "",
							"type": "uint256"
						}
					],
					"stateMutability": "view",
					"type": "function"
				},
				{
					"inputs": [],
					"name": "widthdraw",
					"outputs": [],
					"stateMutability": "nonpayable",
					"type": "function"
				},
				{
					"stateMutability": "payable",
					"type": "receive"
				}
			],
			"devdoc": {
				"kind": "dev",
				"methods": {},
				"version": 1
			},
			"evm": {
				"assembly": "    /* \"Contracts/FundMe.sol\":95:1280  contract FundMe{\r... */\n  mstore(0x40, 0x80)\n    /* \"Contracts/FundMe.sol\":185:198  50 * 10 ** 18 */\n  0x02b5e3af16b1880000\n    /* \"Contracts/FundMe.sol\":156:198  uint256 public limitAmount = 50 * 10 ** 18 */\n  0x00\n  sstore\n    /* \"Contracts/FundMe.sol\":1172:1173  0 */\n  0x00\n    /* \"Contracts/FundMe.sol\":1150:1173  uint256 public test = 0 */\n  0x04\n  sstore\n    /* \"Contracts/FundMe.sol\":324:374  constructor(){\r... */\n  callvalue\n  dup1\n  iszero\n  tag_1\n  jumpi\n  0x00\n  dup1\n  revert\ntag_1:\n  pop\n    /* \"Contracts/FundMe.sol\":356:366  msg.sender */\n  caller\n    /* \"Contracts/FundMe.sol\":348:353  owner */\n  0x03\n  0x00\n    /* \"Contracts/FundMe.sol\":348:366  owner = msg.sender */\n  0x0100\n  exp\n  dup2\n  sload\n  dup2\n  0xffffffffffffffffffffffffffffffffffffffff\n  mul\n  not\n  and\n  swap1\n  dup4\n  0xffffffffffffffffffffffffffffffffffffffff\n  and\n  mul\n  or\n  swap1\n  sstore\n  pop\n    /* \"Contracts/FundMe.sol\":95:1280  contract FundMe{\r... */\n  dataSize(sub_0)\n  dup1\n  dataOffset(sub_0)\n  0x00\n  codecopy\n  0x00\n  return\nstop\n\nsub_0: assembly {\n        /* \"Contracts/FundMe.sol\":95:1280  contract FundMe{\r... */\n      mstore(0x40, 0x80)\n      jumpi(tag_1, lt(calldatasize, 0x04))\n      shr(0xe0, calldataload(0x00))\n      dup1\n      0x8da5cb5b\n      gt\n      tag_10\n      jumpi\n      dup1\n      0x8da5cb5b\n      eq\n      tag_6\n      jumpi\n      dup1\n      0xb60d4288\n      eq\n      tag_7\n      jumpi\n      dup1\n      0xdc0d3dff\n      eq\n      tag_8\n      jumpi\n      dup1\n      0xf8a8fd6d\n      eq\n      tag_9\n      jumpi\n      jump(tag_2)\n    tag_10:\n      dup1\n      0x52b50a2a\n      eq\n      tag_3\n      jumpi\n      dup1\n      0x6aba2c86\n      eq\n      tag_4\n      jumpi\n      dup1\n      0x78abafaf\n      eq\n      tag_5\n      jumpi\n      jump(tag_2)\n    tag_1:\n      jumpi(tag_2, calldatasize)\n        /* \"Contracts/FundMe.sol\":1222:1223  1 */\n      0x01\n        /* \"Contracts/FundMe.sol\":1217:1221  test */\n      0x04\n        /* \"Contracts/FundMe.sol\":1217:1223  test=1 */\n      dup2\n      swap1\n      sstore\n      pop\n        /* \"Contracts/FundMe.sol\":95:1280  contract FundMe{\r... */\n      stop\n    tag_2:\n      callvalue\n      dup1\n      iszero\n      tag_13\n      jumpi\n      0x00\n      dup1\n      revert\n    tag_13:\n      pop\n      stop\n        /* \"Contracts/FundMe.sol\":605:1017  function widthdraw() public {\r... */\n    tag_3:\n      callvalue\n      dup1\n      iszero\n      tag_16\n      jumpi\n      0x00\n      dup1\n      revert\n    tag_16:\n      pop\n      tag_17\n      tag_18\n      jump\t// in\n    tag_17:\n      stop\n        /* \"Contracts/FundMe.sol\":236:290  mapping(address => uint256) public funderAndAmountSent */\n    tag_4:\n      callvalue\n      dup1\n      iszero\n      tag_19\n      jumpi\n      0x00\n      dup1\n      revert\n    tag_19:\n      pop\n      tag_20\n      0x04\n      dup1\n      calldatasize\n      sub\n      dup2\n      add\n      swap1\n      tag_21\n      swap2\n      swap1\n      tag_22\n      jump\t// in\n    tag_21:\n      tag_23\n      jump\t// in\n    tag_20:\n      mload(0x40)\n      tag_24\n      swap2\n      swap1\n      tag_25\n      jump\t// in\n    tag_24:\n      mload(0x40)\n      dup1\n      swap2\n      sub\n      swap1\n      return\n        /* \"Contracts/FundMe.sol\":156:198  uint256 public limitAmount = 50 * 10 ** 18 */\n    tag_5:\n      callvalue\n      dup1\n      iszero\n      tag_26\n      jumpi\n      0x00\n      dup1\n      revert\n    tag_26:\n      pop\n      tag_27\n      tag_28\n      jump\t// in\n    tag_27:\n      mload(0x40)\n      tag_29\n      swap2\n      swap1\n      tag_25\n      jump\t// in\n    tag_29:\n      mload(0x40)\n      dup1\n      swap2\n      sub\n      swap1\n      return\n        /* \"Contracts/FundMe.sol\":297:317  address public owner */\n    tag_6:\n      callvalue\n      dup1\n      iszero\n      tag_30\n      jumpi\n      0x00\n      dup1\n      revert\n    tag_30:\n      pop\n      tag_31\n      tag_32\n      jump\t// in\n    tag_31:\n      mload(0x40)\n      tag_33\n      swap2\n      swap1\n      tag_34\n      jump\t// in\n    tag_33:\n      mload(0x40)\n      dup1\n      swap2\n      sub\n      swap1\n      return\n        /* \"Contracts/FundMe.sol\":382:597  function fund() public payable {\r... */\n    tag_7:\n      tag_35\n      tag_36\n      jump\t// in\n    tag_35:\n      stop\n        /* \"Contracts/FundMe.sol\":205:229  address[] public funders */\n    tag_8:\n      callvalue\n      dup1\n      iszero\n      tag_37\n      jumpi\n      0x00\n      dup1\n      revert\n    tag_37:\n      pop\n      tag_38\n      0x04\n      dup1\n      calldatasize\n      sub\n      dup2\n      add\n      swap1\n      tag_39\n      swap2\n      swap1\n      tag_40\n      jump\t// in\n    tag_39:\n      tag_41\n      jump\t// in\n    tag_38:\n      mload(0x40)\n      tag_42\n      swap2\n      swap1\n      tag_34\n      jump\t// in\n    tag_42:\n      mload(0x40)\n      dup1\n      swap2\n      sub\n      swap1\n      return\n        /* \"Contracts/FundMe.sol\":1150:1173  uint256 public test = 0 */\n    tag_9:\n      callvalue\n      dup1\n      iszero\n      tag_43\n      jumpi\n      0x00\n      dup1\n      revert\n    tag_43:\n      pop\n      tag_44\n      tag_45\n      jump\t// in\n    tag_44:\n      mload(0x40)\n      tag_46\n      swap2\n      swap1\n      tag_25\n      jump\t// in\n    tag_46:\n      mload(0x40)\n      dup1\n      swap2\n      sub\n      swap1\n      return\n        /* \"Contracts/FundMe.sol\":605:1017  function widthdraw() public {\r... */\n    tag_18:\n        /* \"Contracts/FundMe.sol\":648:667  uint256 funderIndex */\n      0x00\n        /* \"Contracts/FundMe.sol\":644:826  for(uint256 funderIndex = 0; funderIndex< funders.length; funderIndex++){\r... */\n    tag_48:\n        /* \"Contracts/FundMe.sol\":686:693  funders */\n      0x01\n        /* \"Contracts/FundMe.sol\":686:700  funders.length */\n      dup1\n      sload\n      swap1\n      pop\n        /* \"Contracts/FundMe.sol\":673:684  funderIndex */\n      dup2\n        /* \"Contracts/FundMe.sol\":673:700  funderIndex< funders.length */\n      lt\n        /* \"Contracts/FundMe.sol\":644:826  for(uint256 funderIndex = 0; funderIndex< funders.length; funderIndex++){\r... */\n      iszero\n      tag_49\n      jumpi\n        /* \"Contracts/FundMe.sol\":731:745  address funder */\n      0x00\n        /* \"Contracts/FundMe.sol\":748:755  funders */\n      0x01\n        /* \"Contracts/FundMe.sol\":756:767  funderIndex */\n      dup3\n        /* \"Contracts/FundMe.sol\":748:768  funders[funderIndex] */\n      dup2\n      sload\n      dup2\n      lt\n      tag_51\n      jumpi\n      tag_52\n      tag_53\n      jump\t// in\n    tag_52:\n    tag_51:\n      swap1\n      0x00\n      mstore\n      keccak256(0x00, 0x20)\n      add\n      0x00\n      swap1\n      sload\n      swap1\n      0x0100\n      exp\n      swap1\n      div\n      0xffffffffffffffffffffffffffffffffffffffff\n      and\n        /* \"Contracts/FundMe.sol\":731:768  address funder = funders[funderIndex] */\n      swap1\n      pop\n        /* \"Contracts/FundMe.sol\":813:814  0 */\n      0x00\n        /* \"Contracts/FundMe.sol\":783:802  funderAndAmountSent */\n      0x02\n        /* \"Contracts/FundMe.sol\":783:810  funderAndAmountSent[funder] */\n      0x00\n        /* \"Contracts/FundMe.sol\":803:809  funder */\n      dup4\n        /* \"Contracts/FundMe.sol\":783:810  funderAndAmountSent[funder] */\n      0xffffffffffffffffffffffffffffffffffffffff\n      and\n      0xffffffffffffffffffffffffffffffffffffffff\n      and\n      dup2\n      mstore\n      0x20\n      add\n      swap1\n      dup2\n      mstore\n      0x20\n      add\n      0x00\n      keccak256\n        /* \"Contracts/FundMe.sol\":783:814  funderAndAmountSent[funder] = 0 */\n      dup2\n      swap1\n      sstore\n      pop\n        /* \"Contracts/FundMe.sol\":716:826  {\r... */\n      pop\n        /* \"Contracts/FundMe.sol\":702:715  funderIndex++ */\n      dup1\n      dup1\n      tag_55\n      swap1\n      tag_56\n      jump\t// in\n    tag_55:\n      swap2\n      pop\n      pop\n        /* \"Contracts/FundMe.sol\":644:826  for(uint256 funderIndex = 0; funderIndex< funders.length; funderIndex++){\r... */\n      jump(tag_48)\n    tag_49:\n      pop\n        /* \"Contracts/FundMe.sol\":862:863  0 */\n      0x00\n        /* \"Contracts/FundMe.sol\":848:864  new address[](0) */\n      0xffffffffffffffff\n      dup2\n      gt\n      iszero\n      tag_57\n      jumpi\n      tag_58\n      tag_59\n      jump\t// in\n    tag_58:\n    tag_57:\n      mload(0x40)\n      swap1\n      dup1\n      dup3\n      mstore\n      dup1\n      0x20\n      mul\n      0x20\n      add\n      dup3\n      add\n      0x40\n      mstore\n      dup1\n      iszero\n      tag_60\n      jumpi\n      dup2\n      0x20\n      add\n      0x20\n      dup3\n      mul\n      dup1\n      calldatasize\n      dup4\n      calldatacopy\n      dup1\n      dup3\n      add\n      swap2\n      pop\n      pop\n      swap1\n      pop\n    tag_60:\n      pop\n        /* \"Contracts/FundMe.sol\":838:845  funders */\n      0x01\n        /* \"Contracts/FundMe.sol\":838:864  funders = new address[](0) */\n      swap1\n      dup1\n      mload\n      swap1\n      0x20\n      add\n      swap1\n      tag_61\n      swap3\n      swap2\n      swap1\n      tag_62\n      jump\t// in\n    tag_61:\n      pop\n        /* \"Contracts/FundMe.sol\":876:892  bool callSuccess */\n      0x00\n        /* \"Contracts/FundMe.sol\":905:915  msg.sender */\n      caller\n        /* \"Contracts/FundMe.sol\":897:921  payable(msg.sender).call */\n      0xffffffffffffffffffffffffffffffffffffffff\n      and\n        /* \"Contracts/FundMe.sol\":929:950  address(this).balance */\n      selfbalance\n        /* \"Contracts/FundMe.sol\":897:955  payable(msg.sender).call{value: address(this).balance}(\"\") */\n      mload(0x40)\n      tag_63\n      swap1\n      tag_64\n      jump\t// in\n    tag_63:\n      0x00\n      mload(0x40)\n      dup1\n      dup4\n      sub\n      dup2\n      dup6\n      dup8\n      gas\n      call\n      swap3\n      pop\n      pop\n      pop\n      returndatasize\n      dup1\n      0x00\n      dup2\n      eq\n      tag_67\n      jumpi\n      mload(0x40)\n      swap2\n      pop\n      and(add(returndatasize, 0x3f), not(0x1f))\n      dup3\n      add\n      0x40\n      mstore\n      returndatasize\n      dup3\n      mstore\n      returndatasize\n      0x00\n      0x20\n      dup5\n      add\n      returndatacopy\n      jump(tag_66)\n    tag_67:\n      0x60\n      swap2\n      pop\n    tag_66:\n      pop\n        /* \"Contracts/FundMe.sol\":875:955  (bool callSuccess,) = payable(msg.sender).call{value: address(this).balance}(\"\") */\n      pop\n      swap1\n      pop\n        /* \"Contracts/FundMe.sol\":989:993  true */\n      0x01\n        /* \"Contracts/FundMe.sol\":974:993  callSuccess == true */\n      iszero\n      iszero\n        /* \"Contracts/FundMe.sol\":974:985  callSuccess */\n      dup2\n        /* \"Contracts/FundMe.sol\":974:993  callSuccess == true */\n      iszero\n      iszero\n      eq\n        /* \"Contracts/FundMe.sol\":966:1009  require(callSuccess == true, \"Call Failed\") */\n      tag_68\n      jumpi\n      mload(0x40)\n      0x08c379a000000000000000000000000000000000000000000000000000000000\n      dup2\n      mstore\n      0x04\n      add\n      tag_69\n      swap1\n      tag_70\n      jump\t// in\n    tag_69:\n      mload(0x40)\n      dup1\n      swap2\n      sub\n      swap1\n      revert\n    tag_68:\n        /* \"Contracts/FundMe.sol\":633:1017  {\r... */\n      pop\n        /* \"Contracts/FundMe.sol\":605:1017  function widthdraw() public {\r... */\n      jump\t// out\n        /* \"Contracts/FundMe.sol\":236:290  mapping(address => uint256) public funderAndAmountSent */\n    tag_23:\n      mstore(0x20, 0x02)\n      dup1\n      0x00\n      mstore\n      keccak256(0x00, 0x40)\n      0x00\n      swap2\n      pop\n      swap1\n      pop\n      sload\n      dup2\n      jump\t// out\n        /* \"Contracts/FundMe.sol\":156:198  uint256 public limitAmount = 50 * 10 ** 18 */\n    tag_28:\n      sload(0x00)\n      dup2\n      jump\t// out\n        /* \"Contracts/FundMe.sol\":297:317  address public owner */\n    tag_32:\n      0x03\n      0x00\n      swap1\n      sload\n      swap1\n      0x0100\n      exp\n      swap1\n      div\n      0xffffffffffffffffffffffffffffffffffffffff\n      and\n      dup2\n      jump\t// out\n        /* \"Contracts/FundMe.sol\":382:597  function fund() public payable {\r... */\n    tag_36:\n        /* \"Contracts/FundMe.sol\":465:476  limitAmount */\n      sload(0x00)\n        /* \"Contracts/FundMe.sol\":432:461  msg.value.getConversionRate() */\n      tag_72\n        /* \"Contracts/FundMe.sol\":432:441  msg.value */\n      callvalue\n        /* \"Contracts/FundMe.sol\":432:459  msg.value.getConversionRate */\n      tag_73\n        /* \"Contracts/FundMe.sol\":432:461  msg.value.getConversionRate() */\n      jump\t// in\n    tag_72:\n        /* \"Contracts/FundMe.sol\":432:476  msg.value.getConversionRate() >= limitAmount */\n      lt\n      iszero\n        /* \"Contracts/FundMe.sol\":424:499  require(msg.value.getConversionRate() >= limitAmount, \"Didn't send enough\") */\n      tag_74\n      jumpi\n      mload(0x40)\n      0x08c379a000000000000000000000000000000000000000000000000000000000\n      dup2\n      mstore\n      0x04\n      add\n      tag_75\n      swap1\n      tag_76\n      jump\t// in\n    tag_75:\n      mload(0x40)\n      dup1\n      swap2\n      sub\n      swap1\n      revert\n    tag_74:\n        /* \"Contracts/FundMe.sol\":510:517  funders */\n      0x01\n        /* \"Contracts/FundMe.sol\":523:533  msg.sender */\n      caller\n        /* \"Contracts/FundMe.sol\":510:534  funders.push(msg.sender) */\n      swap1\n      dup1\n      0x01\n      dup2\n      sload\n      add\n      dup1\n      dup3\n      sstore\n      dup1\n      swap2\n      pop\n      pop\n      0x01\n      swap1\n      sub\n      swap1\n      0x00\n      mstore\n      keccak256(0x00, 0x20)\n      add\n      0x00\n      swap1\n      swap2\n      swap1\n      swap2\n      swap1\n      swap2\n      0x0100\n      exp\n      dup2\n      sload\n      dup2\n      0xffffffffffffffffffffffffffffffffffffffff\n      mul\n      not\n      and\n      swap1\n      dup4\n      0xffffffffffffffffffffffffffffffffffffffff\n      and\n      mul\n      or\n      swap1\n      sstore\n      pop\n        /* \"Contracts/FundMe.sol\":578:587  msg.value */\n      callvalue\n        /* \"Contracts/FundMe.sol\":545:564  funderAndAmountSent */\n      0x02\n        /* \"Contracts/FundMe.sol\":545:576  funderAndAmountSent[msg.sender] */\n      0x00\n        /* \"Contracts/FundMe.sol\":565:575  msg.sender */\n      caller\n        /* \"Contracts/FundMe.sol\":545:576  funderAndAmountSent[msg.sender] */\n      0xffffffffffffffffffffffffffffffffffffffff\n      and\n      0xffffffffffffffffffffffffffffffffffffffff\n      and\n      dup2\n      mstore\n      0x20\n      add\n      swap1\n      dup2\n      mstore\n      0x20\n      add\n      0x00\n      keccak256\n        /* \"Contracts/FundMe.sol\":545:587  funderAndAmountSent[msg.sender] =msg.value */\n      dup2\n      swap1\n      sstore\n      pop\n        /* \"Contracts/FundMe.sol\":382:597  function fund() public payable {\r... */\n      jump\t// out\n        /* \"Contracts/FundMe.sol\":205:229  address[] public funders */\n    tag_41:\n      0x01\n      dup2\n      dup2\n      sload\n      dup2\n      lt\n      tag_78\n      jumpi\n      0x00\n      dup1\n      revert\n    tag_78:\n      swap1\n      0x00\n      mstore\n      keccak256(0x00, 0x20)\n      add\n      0x00\n      swap2\n      pop\n      sload\n      swap1\n      0x0100\n      exp\n      swap1\n      div\n      0xffffffffffffffffffffffffffffffffffffffff\n      and\n      dup2\n      jump\t// out\n        /* \"Contracts/FundMe.sol\":1150:1173  uint256 public test = 0 */\n    tag_45:\n      sload(0x04)\n      dup2\n      jump\t// out\n        /* \"Contracts/PriceConverter.sol\":474:693  function getConversionRate(uint256 ethAmount) internal view returns(uint256){\r... */\n    tag_73:\n        /* \"Contracts/PriceConverter.sol\":542:549  uint256 */\n      0x00\n        /* \"Contracts/PriceConverter.sol\":561:577  uint256 ethPrice */\n      dup1\n        /* \"Contracts/PriceConverter.sol\":580:590  getPrice() */\n      tag_81\n        /* \"Contracts/PriceConverter.sol\":580:588  getPrice */\n      tag_82\n        /* \"Contracts/PriceConverter.sol\":580:590  getPrice() */\n      jump\t// in\n    tag_81:\n        /* \"Contracts/PriceConverter.sol\":561:590  uint256 ethPrice = getPrice() */\n      swap1\n      pop\n        /* \"Contracts/PriceConverter.sol\":601:623  uint256 convertedPrice */\n      0x00\n        /* \"Contracts/PriceConverter.sol\":649:653  1e18 */\n      0x0de0b6b3a7640000\n        /* \"Contracts/PriceConverter.sol\":638:647  ethAmount */\n      dup5\n        /* \"Contracts/PriceConverter.sol\":627:635  ethPrice */\n      dup4\n        /* \"Contracts/PriceConverter.sol\":627:647  ethPrice * ethAmount */\n      tag_83\n      swap2\n      swap1\n      tag_84\n      jump\t// in\n    tag_83:\n        /* \"Contracts/PriceConverter.sol\":626:653  (ethPrice * ethAmount)/1e18 */\n      tag_85\n      swap2\n      swap1\n      tag_86\n      jump\t// in\n    tag_85:\n        /* \"Contracts/PriceConverter.sol\":601:653  uint256 convertedPrice = (ethPrice * ethAmount)/1e18 */\n      swap1\n      pop\n        /* \"Contracts/PriceConverter.sol\":671:685  convertedPrice */\n      dup1\n        /* \"Contracts/PriceConverter.sol\":664:685  return convertedPrice */\n      swap3\n      pop\n      pop\n      pop\n        /* \"Contracts/PriceConverter.sol\":474:693  function getConversionRate(uint256 ethAmount) internal view returns(uint256){\r... */\n      swap2\n      swap1\n      pop\n      jump\t// out\n        /* \"Contracts/PriceConverter.sol\":172:466  function getPrice() internal view returns(uint256) {\r... */\n    tag_82:\n        /* \"Contracts/PriceConverter.sol\":214:221  uint256 */\n      0x00\n        /* \"Contracts/PriceConverter.sol\":234:277  AggregatorV3Interface aggregatorV3Interface */\n      dup1\n        /* \"Contracts/PriceConverter.sol\":302:344  0xD4a33860578De61DBAbDc8BFdb98FD742fA7028e */\n      0xd4a33860578de61dbabdc8bfdb98fd742fa7028e\n        /* \"Contracts/PriceConverter.sol\":234:345  AggregatorV3Interface aggregatorV3Interface = AggregatorV3Interface(0xD4a33860578De61DBAbDc8BFdb98FD742fA7028e) */\n      swap1\n      pop\n        /* \"Contracts/PriceConverter.sol\":361:373  int256 price */\n      0x00\n        /* \"Contracts/PriceConverter.sol\":380:401  aggregatorV3Interface */\n      dup2\n        /* \"Contracts/PriceConverter.sol\":380:417  aggregatorV3Interface.latestRoundData */\n      0xffffffffffffffffffffffffffffffffffffffff\n      and\n      0xfeaf968c\n        /* \"Contracts/PriceConverter.sol\":380:419  aggregatorV3Interface.latestRoundData() */\n      mload(0x40)\n      dup2\n      0xffffffff\n      and\n      0xe0\n      shl\n      dup2\n      mstore\n      0x04\n      add\n      0xa0\n      mload(0x40)\n      dup1\n      dup4\n      sub\n      dup2\n      dup7\n      dup1\n      extcodesize\n      iszero\n      dup1\n      iszero\n      tag_88\n      jumpi\n      0x00\n      dup1\n      revert\n    tag_88:\n      pop\n      gas\n      staticcall\n      iszero\n      dup1\n      iszero\n      tag_90\n      jumpi\n      returndatasize\n      0x00\n      dup1\n      returndatacopy\n      revert(0x00, returndatasize)\n    tag_90:\n      pop\n      pop\n      pop\n      pop\n      mload(0x40)\n      returndatasize\n      not(0x1f)\n      0x1f\n      dup3\n      add\n      and\n      dup3\n      add\n      dup1\n      0x40\n      mstore\n      pop\n      dup2\n      add\n      swap1\n      tag_91\n      swap2\n      swap1\n      tag_92\n      jump\t// in\n    tag_91:\n        /* \"Contracts/PriceConverter.sol\":358:419  (, int256 price,,,) = aggregatorV3Interface.latestRoundData() */\n      pop\n      pop\n      pop\n      swap2\n      pop\n      pop\n        /* \"Contracts/PriceConverter.sol\":453:457  1e10 */\n      0x02540be400\n        /* \"Contracts/PriceConverter.sol\":445:450  price */\n      dup2\n        /* \"Contracts/PriceConverter.sol\":445:457  price * 1e10 */\n      tag_93\n      swap2\n      swap1\n      tag_94\n      jump\t// in\n    tag_93:\n        /* \"Contracts/PriceConverter.sol\":430:458  return uint256(price * 1e10) */\n      swap3\n      pop\n      pop\n      pop\n        /* \"Contracts/PriceConverter.sol\":172:466  function getPrice() internal view returns(uint256) {\r... */\n      swap1\n      jump\t// out\n    tag_62:\n      dup3\n      dup1\n      sload\n      dup3\n      dup3\n      sstore\n      swap1\n      0x00\n      mstore\n      keccak256(0x00, 0x20)\n      swap1\n      dup2\n      add\n      swap3\n      dup3\n      iszero\n      tag_95\n      jumpi\n      swap2\n      0x20\n      mul\n      dup3\n      add\n    tag_96:\n      dup3\n      dup2\n      gt\n      iszero\n      tag_97\n      jumpi\n      dup3\n      mload\n      dup3\n      exp(0x0100, 0x00)\n      dup2\n      sload\n      dup2\n      0xffffffffffffffffffffffffffffffffffffffff\n      mul\n      not\n      and\n      swap1\n      dup4\n      0xffffffffffffffffffffffffffffffffffffffff\n      and\n      mul\n      or\n      swap1\n      sstore\n      pop\n      swap2\n      0x20\n      add\n      swap2\n      swap1\n      0x01\n      add\n      swap1\n      jump(tag_96)\n    tag_97:\n    tag_95:\n      pop\n      swap1\n      pop\n      tag_98\n      swap2\n      swap1\n      tag_99\n      jump\t// in\n    tag_98:\n      pop\n      swap1\n      jump\t// out\n    tag_99:\n    tag_100:\n      dup1\n      dup3\n      gt\n      iszero\n      tag_101\n      jumpi\n      0x00\n      dup2\n      0x00\n      swap1\n      sstore\n      pop\n      0x01\n      add\n      jump(tag_100)\n    tag_101:\n      pop\n      swap1\n      jump\t// out\n        /* \"#utility.yul\":7:146   */\n    tag_103:\n        /* \"#utility.yul\":53:58   */\n      0x00\n        /* \"#utility.yul\":91:97   */\n      dup2\n        /* \"#utility.yul\":78:98   */\n      calldataload\n        /* \"#utility.yul\":69:98   */\n      swap1\n      pop\n        /* \"#utility.yul\":107:140   */\n      tag_105\n        /* \"#utility.yul\":134:139   */\n      dup2\n        /* \"#utility.yul\":107:140   */\n      tag_106\n      jump\t// in\n    tag_105:\n        /* \"#utility.yul\":7:146   */\n      swap3\n      swap2\n      pop\n      pop\n      jump\t// out\n        /* \"#utility.yul\":152:293   */\n    tag_107:\n        /* \"#utility.yul\":208:213   */\n      0x00\n        /* \"#utility.yul\":239:245   */\n      dup2\n        /* \"#utility.yul\":233:246   */\n      mload\n        /* \"#utility.yul\":224:246   */\n      swap1\n      pop\n        /* \"#utility.yul\":255:287   */\n      tag_109\n        /* \"#utility.yul\":281:286   */\n      dup2\n        /* \"#utility.yul\":255:287   */\n      tag_110\n      jump\t// in\n    tag_109:\n        /* \"#utility.yul\":152:293   */\n      swap3\n      swap2\n      pop\n      pop\n      jump\t// out\n        /* \"#utility.yul\":299:438   */\n    tag_111:\n        /* \"#utility.yul\":345:350   */\n      0x00\n        /* \"#utility.yul\":383:389   */\n      dup2\n        /* \"#utility.yul\":370:390   */\n      calldataload\n        /* \"#utility.yul\":361:390   */\n      swap1\n      pop\n        /* \"#utility.yul\":399:432   */\n      tag_113\n        /* \"#utility.yul\":426:431   */\n      dup2\n        /* \"#utility.yul\":399:432   */\n      tag_114\n      jump\t// in\n    tag_113:\n        /* \"#utility.yul\":299:438   */\n      swap3\n      swap2\n      pop\n      pop\n      jump\t// out\n        /* \"#utility.yul\":444:587   */\n    tag_115:\n        /* \"#utility.yul\":501:506   */\n      0x00\n        /* \"#utility.yul\":532:538   */\n      dup2\n        /* \"#utility.yul\":526:539   */\n      mload\n        /* \"#utility.yul\":517:539   */\n      swap1\n      pop\n        /* \"#utility.yul\":548:581   */\n      tag_117\n        /* \"#utility.yul\":575:580   */\n      dup2\n        /* \"#utility.yul\":548:581   */\n      tag_114\n      jump\t// in\n    tag_117:\n        /* \"#utility.yul\":444:587   */\n      swap3\n      swap2\n      pop\n      pop\n      jump\t// out\n        /* \"#utility.yul\":593:734   */\n    tag_118:\n        /* \"#utility.yul\":649:654   */\n      0x00\n        /* \"#utility.yul\":680:686   */\n      dup2\n        /* \"#utility.yul\":674:687   */\n      mload\n        /* \"#utility.yul\":665:687   */\n      swap1\n      pop\n        /* \"#utility.yul\":696:728   */\n      tag_120\n        /* \"#utility.yul\":722:727   */\n      dup2\n        /* \"#utility.yul\":696:728   */\n      tag_121\n      jump\t// in\n    tag_120:\n        /* \"#utility.yul\":593:734   */\n      swap3\n      swap2\n      pop\n      pop\n      jump\t// out\n        /* \"#utility.yul\":740:1069   */\n    tag_22:\n        /* \"#utility.yul\":799:805   */\n      0x00\n        /* \"#utility.yul\":848:850   */\n      0x20\n        /* \"#utility.yul\":836:845   */\n      dup3\n        /* \"#utility.yul\":827:834   */\n      dup5\n        /* \"#utility.yul\":823:846   */\n      sub\n        /* \"#utility.yul\":819:851   */\n      slt\n        /* \"#utility.yul\":816:935   */\n      iszero\n      tag_123\n      jumpi\n        /* \"#utility.yul\":854:933   */\n      tag_124\n      tag_125\n      jump\t// in\n    tag_124:\n        /* \"#utility.yul\":816:935   */\n    tag_123:\n        /* \"#utility.yul\":974:975   */\n      0x00\n        /* \"#utility.yul\":999:1052   */\n      tag_126\n        /* \"#utility.yul\":1044:1051   */\n      dup5\n        /* \"#utility.yul\":1035:1041   */\n      dup3\n        /* \"#utility.yul\":1024:1033   */\n      dup6\n        /* \"#utility.yul\":1020:1042   */\n      add\n        /* \"#utility.yul\":999:1052   */\n      tag_103\n      jump\t// in\n    tag_126:\n        /* \"#utility.yul\":989:1052   */\n      swap2\n      pop\n        /* \"#utility.yul\":945:1062   */\n      pop\n        /* \"#utility.yul\":740:1069   */\n      swap3\n      swap2\n      pop\n      pop\n      jump\t// out\n        /* \"#utility.yul\":1075:1404   */\n    tag_40:\n        /* \"#utility.yul\":1134:1140   */\n      0x00\n        /* \"#utility.yul\":1183:1185   */\n      0x20\n        /* \"#utility.yul\":1171:1180   */\n      dup3\n        /* \"#utility.yul\":1162:1169   */\n      dup5\n        /* \"#utility.yul\":1158:1181   */\n      sub\n        /* \"#utility.yul\":1154:1186   */\n      slt\n        /* \"#utility.yul\":1151:1270   */\n      iszero\n      tag_128\n      jumpi\n        /* \"#utility.yul\":1189:1268   */\n      tag_129\n      tag_125\n      jump\t// in\n    tag_129:\n        /* \"#utility.yul\":1151:1270   */\n    tag_128:\n        /* \"#utility.yul\":1309:1310   */\n      0x00\n        /* \"#utility.yul\":1334:1387   */\n      tag_130\n        /* \"#utility.yul\":1379:1386   */\n      dup5\n        /* \"#utility.yul\":1370:1376   */\n      dup3\n        /* \"#utility.yul\":1359:1368   */\n      dup6\n        /* \"#utility.yul\":1355:1377   */\n      add\n        /* \"#utility.yul\":1334:1387   */\n      tag_111\n      jump\t// in\n    tag_130:\n        /* \"#utility.yul\":1324:1387   */\n      swap2\n      pop\n        /* \"#utility.yul\":1280:1397   */\n      pop\n        /* \"#utility.yul\":1075:1404   */\n      swap3\n      swap2\n      pop\n      pop\n      jump\t// out\n        /* \"#utility.yul\":1410:2381   */\n    tag_92:\n        /* \"#utility.yul\":1513:1519   */\n      0x00\n        /* \"#utility.yul\":1521:1527   */\n      dup1\n        /* \"#utility.yul\":1529:1535   */\n      0x00\n        /* \"#utility.yul\":1537:1543   */\n      dup1\n        /* \"#utility.yul\":1545:1551   */\n      0x00\n        /* \"#utility.yul\":1594:1597   */\n      0xa0\n        /* \"#utility.yul\":1582:1591   */\n      dup7\n        /* \"#utility.yul\":1573:1580   */\n      dup9\n        /* \"#utility.yul\":1569:1592   */\n      sub\n        /* \"#utility.yul\":1565:1598   */\n      slt\n        /* \"#utility.yul\":1562:1682   */\n      iszero\n      tag_132\n      jumpi\n        /* \"#utility.yul\":1601:1680   */\n      tag_133\n      tag_125\n      jump\t// in\n    tag_133:\n        /* \"#utility.yul\":1562:1682   */\n    tag_132:\n        /* \"#utility.yul\":1721:1722   */\n      0x00\n        /* \"#utility.yul\":1746:1809   */\n      tag_134\n        /* \"#utility.yul\":1801:1808   */\n      dup9\n        /* \"#utility.yul\":1792:1798   */\n      dup3\n        /* \"#utility.yul\":1781:1790   */\n      dup10\n        /* \"#utility.yul\":1777:1799   */\n      add\n        /* \"#utility.yul\":1746:1809   */\n      tag_118\n      jump\t// in\n    tag_134:\n        /* \"#utility.yul\":1736:1809   */\n      swap6\n      pop\n        /* \"#utility.yul\":1692:1819   */\n      pop\n        /* \"#utility.yul\":1858:1860   */\n      0x20\n        /* \"#utility.yul\":1884:1947   */\n      tag_135\n        /* \"#utility.yul\":1939:1946   */\n      dup9\n        /* \"#utility.yul\":1930:1936   */\n      dup3\n        /* \"#utility.yul\":1919:1928   */\n      dup10\n        /* \"#utility.yul\":1915:1937   */\n      add\n        /* \"#utility.yul\":1884:1947   */\n      tag_107\n      jump\t// in\n    tag_135:\n        /* \"#utility.yul\":1874:1947   */\n      swap5\n      pop\n        /* \"#utility.yul\":1829:1957   */\n      pop\n        /* \"#utility.yul\":1996:1998   */\n      0x40\n        /* \"#utility.yul\":2022:2086   */\n      tag_136\n        /* \"#utility.yul\":2078:2085   */\n      dup9\n        /* \"#utility.yul\":2069:2075   */\n      dup3\n        /* \"#utility.yul\":2058:2067   */\n      dup10\n        /* \"#utility.yul\":2054:2076   */\n      add\n        /* \"#utility.yul\":2022:2086   */\n      tag_115\n      jump\t// in\n    tag_136:\n        /* \"#utility.yul\":2012:2086   */\n      swap4\n      pop\n        /* \"#utility.yul\":1967:2096   */\n      pop\n        /* \"#utility.yul\":2135:2137   */\n      0x60\n        /* \"#utility.yul\":2161:2225   */\n      tag_137\n        /* \"#utility.yul\":2217:2224   */\n      dup9\n        /* \"#utility.yul\":2208:2214   */\n      dup3\n        /* \"#utility.yul\":2197:2206   */\n      dup10\n        /* \"#utility.yul\":2193:2215   */\n      add\n        /* \"#utility.yul\":2161:2225   */\n      tag_115\n      jump\t// in\n    tag_137:\n        /* \"#utility.yul\":2151:2225   */\n      swap3\n      pop\n        /* \"#utility.yul\":2106:2235   */\n      pop\n        /* \"#utility.yul\":2274:2277   */\n      0x80\n        /* \"#utility.yul\":2301:2364   */\n      tag_138\n        /* \"#utility.yul\":2356:2363   */\n      dup9\n        /* \"#utility.yul\":2347:2353   */\n      dup3\n        /* \"#utility.yul\":2336:2345   */\n      dup10\n        /* \"#utility.yul\":2332:2354   */\n      add\n        /* \"#utility.yul\":2301:2364   */\n      tag_118\n      jump\t// in\n    tag_138:\n        /* \"#utility.yul\":2291:2364   */\n      swap2\n      pop\n        /* \"#utility.yul\":2245:2374   */\n      pop\n        /* \"#utility.yul\":1410:2381   */\n      swap3\n      swap6\n      pop\n      swap3\n      swap6\n      swap1\n      swap4\n      pop\n      jump\t// out\n        /* \"#utility.yul\":2387:2505   */\n    tag_139:\n        /* \"#utility.yul\":2474:2498   */\n      tag_141\n        /* \"#utility.yul\":2492:2497   */\n      dup2\n        /* \"#utility.yul\":2474:2498   */\n      tag_142\n      jump\t// in\n    tag_141:\n        /* \"#utility.yul\":2469:2472   */\n      dup3\n        /* \"#utility.yul\":2462:2499   */\n      mstore\n        /* \"#utility.yul\":2387:2505   */\n      pop\n      pop\n      jump\t// out\n        /* \"#utility.yul\":2511:2877   */\n    tag_143:\n        /* \"#utility.yul\":2653:2656   */\n      0x00\n        /* \"#utility.yul\":2674:2741   */\n      tag_145\n        /* \"#utility.yul\":2738:2740   */\n      0x12\n        /* \"#utility.yul\":2733:2736   */\n      dup4\n        /* \"#utility.yul\":2674:2741   */\n      tag_146\n      jump\t// in\n    tag_145:\n        /* \"#utility.yul\":2667:2741   */\n      swap2\n      pop\n        /* \"#utility.yul\":2750:2843   */\n      tag_147\n        /* \"#utility.yul\":2839:2842   */\n      dup3\n        /* \"#utility.yul\":2750:2843   */\n      tag_148\n      jump\t// in\n    tag_147:\n        /* \"#utility.yul\":2868:2870   */\n      0x20\n        /* \"#utility.yul\":2863:2866   */\n      dup3\n        /* \"#utility.yul\":2859:2871   */\n      add\n        /* \"#utility.yul\":2852:2871   */\n      swap1\n      pop\n        /* \"#utility.yul\":2511:2877   */\n      swap2\n      swap1\n      pop\n      jump\t// out\n        /* \"#utility.yul\":2883:3281   */\n    tag_149:\n        /* \"#utility.yul\":3042:3045   */\n      0x00\n        /* \"#utility.yul\":3063:3146   */\n      tag_151\n        /* \"#utility.yul\":3144:3145   */\n      0x00\n        /* \"#utility.yul\":3139:3142   */\n      dup4\n        /* \"#utility.yul\":3063:3146   */\n      tag_152\n      jump\t// in\n    tag_151:\n        /* \"#utility.yul\":3056:3146   */\n      swap2\n      pop\n        /* \"#utility.yul\":3155:3248   */\n      tag_153\n        /* \"#utility.yul\":3244:3247   */\n      dup3\n        /* \"#utility.yul\":3155:3248   */\n      tag_154\n      jump\t// in\n    tag_153:\n        /* \"#utility.yul\":3273:3274   */\n      0x00\n        /* \"#utility.yul\":3268:3271   */\n      dup3\n        /* \"#utility.yul\":3264:3275   */\n      add\n        /* \"#utility.yul\":3257:3275   */\n      swap1\n      pop\n        /* \"#utility.yul\":2883:3281   */\n      swap2\n      swap1\n      pop\n      jump\t// out\n        /* \"#utility.yul\":3287:3653   */\n    tag_155:\n        /* \"#utility.yul\":3429:3432   */\n      0x00\n        /* \"#utility.yul\":3450:3517   */\n      tag_157\n        /* \"#utility.yul\":3514:3516   */\n      0x0b\n        /* \"#utility.yul\":3509:3512   */\n      dup4\n        /* \"#utility.yul\":3450:3517   */\n      tag_146\n      jump\t// in\n    tag_157:\n        /* \"#utility.yul\":3443:3517   */\n      swap2\n      pop\n        /* \"#utility.yul\":3526:3619   */\n      tag_158\n        /* \"#utility.yul\":3615:3618   */\n      dup3\n        /* \"#utility.yul\":3526:3619   */\n      tag_159\n      jump\t// in\n    tag_158:\n        /* \"#utility.yul\":3644:3646   */\n      0x20\n        /* \"#utility.yul\":3639:3642   */\n      dup3\n        /* \"#utility.yul\":3635:3647   */\n      add\n        /* \"#utility.yul\":3628:3647   */\n      swap1\n      pop\n        /* \"#utility.yul\":3287:3653   */\n      swap2\n      swap1\n      pop\n      jump\t// out\n        /* \"#utility.yul\":3659:3777   */\n    tag_160:\n        /* \"#utility.yul\":3746:3770   */\n      tag_162\n        /* \"#utility.yul\":3764:3769   */\n      dup2\n        /* \"#utility.yul\":3746:3770   */\n      tag_163\n      jump\t// in\n    tag_162:\n        /* \"#utility.yul\":3741:3744   */\n      dup3\n        /* \"#utility.yul\":3734:3771   */\n      mstore\n        /* \"#utility.yul\":3659:3777   */\n      pop\n      pop\n      jump\t// out\n        /* \"#utility.yul\":3783:4162   */\n    tag_64:\n        /* \"#utility.yul\":3967:3970   */\n      0x00\n        /* \"#utility.yul\":3989:4136   */\n      tag_165\n        /* \"#utility.yul\":4132:4135   */\n      dup3\n        /* \"#utility.yul\":3989:4136   */\n      tag_149\n      jump\t// in\n    tag_165:\n        /* \"#utility.yul\":3982:4136   */\n      swap2\n      pop\n        /* \"#utility.yul\":4153:4156   */\n      dup2\n        /* \"#utility.yul\":4146:4156   */\n      swap1\n      pop\n        /* \"#utility.yul\":3783:4162   */\n      swap2\n      swap1\n      pop\n      jump\t// out\n        /* \"#utility.yul\":4168:4390   */\n    tag_34:\n        /* \"#utility.yul\":4261:4265   */\n      0x00\n        /* \"#utility.yul\":4299:4301   */\n      0x20\n        /* \"#utility.yul\":4288:4297   */\n      dup3\n        /* \"#utility.yul\":4284:4302   */\n      add\n        /* \"#utility.yul\":4276:4302   */\n      swap1\n      pop\n        /* \"#utility.yul\":4312:4383   */\n      tag_167\n        /* \"#utility.yul\":4380:4381   */\n      0x00\n        /* \"#utility.yul\":4369:4378   */\n      dup4\n        /* \"#utility.yul\":4365:4382   */\n      add\n        /* \"#utility.yul\":4356:4362   */\n      dup5\n        /* \"#utility.yul\":4312:4383   */\n      tag_139\n      jump\t// in\n    tag_167:\n        /* \"#utility.yul\":4168:4390   */\n      swap3\n      swap2\n      pop\n      pop\n      jump\t// out\n        /* \"#utility.yul\":4396:4815   */\n    tag_76:\n        /* \"#utility.yul\":4562:4566   */\n      0x00\n        /* \"#utility.yul\":4600:4602   */\n      0x20\n        /* \"#utility.yul\":4589:4598   */\n      dup3\n        /* \"#utility.yul\":4585:4603   */\n      add\n        /* \"#utility.yul\":4577:4603   */\n      swap1\n      pop\n        /* \"#utility.yul\":4649:4658   */\n      dup2\n        /* \"#utility.yul\":4643:4647   */\n      dup2\n        /* \"#utility.yul\":4639:4659   */\n      sub\n        /* \"#utility.yul\":4635:4636   */\n      0x00\n        /* \"#utility.yul\":4624:4633   */\n      dup4\n        /* \"#utility.yul\":4620:4637   */\n      add\n        /* \"#utility.yul\":4613:4660   */\n      mstore\n        /* \"#utility.yul\":4677:4808   */\n      tag_169\n        /* \"#utility.yul\":4803:4807   */\n      dup2\n        /* \"#utility.yul\":4677:4808   */\n      tag_143\n      jump\t// in\n    tag_169:\n        /* \"#utility.yul\":4669:4808   */\n      swap1\n      pop\n        /* \"#utility.yul\":4396:4815   */\n      swap2\n      swap1\n      pop\n      jump\t// out\n        /* \"#utility.yul\":4821:5240   */\n    tag_70:\n        /* \"#utility.yul\":4987:4991   */\n      0x00\n        /* \"#utility.yul\":5025:5027   */\n      0x20\n        /* \"#utility.yul\":5014:5023   */\n      dup3\n        /* \"#utility.yul\":5010:5028   */\n      add\n        /* \"#utility.yul\":5002:5028   */\n      swap1\n      pop\n        /* \"#utility.yul\":5074:5083   */\n      dup2\n        /* \"#utility.yul\":5068:5072   */\n      dup2\n        /* \"#utility.yul\":5064:5084   */\n      sub\n        /* \"#utility.yul\":5060:5061   */\n      0x00\n        /* \"#utility.yul\":5049:5058   */\n      dup4\n        /* \"#utility.yul\":5045:5062   */\n      add\n        /* \"#utility.yul\":5038:5085   */\n      mstore\n        /* \"#utility.yul\":5102:5233   */\n      tag_171\n        /* \"#utility.yul\":5228:5232   */\n      dup2\n        /* \"#utility.yul\":5102:5233   */\n      tag_155\n      jump\t// in\n    tag_171:\n        /* \"#utility.yul\":5094:5233   */\n      swap1\n      pop\n        /* \"#utility.yul\":4821:5240   */\n      swap2\n      swap1\n      pop\n      jump\t// out\n        /* \"#utility.yul\":5246:5468   */\n    tag_25:\n        /* \"#utility.yul\":5339:5343   */\n      0x00\n        /* \"#utility.yul\":5377:5379   */\n      0x20\n        /* \"#utility.yul\":5366:5375   */\n      dup3\n        /* \"#utility.yul\":5362:5380   */\n      add\n        /* \"#utility.yul\":5354:5380   */\n      swap1\n      pop\n        /* \"#utility.yul\":5390:5461   */\n      tag_173\n        /* \"#utility.yul\":5458:5459   */\n      0x00\n        /* \"#utility.yul\":5447:5456   */\n      dup4\n        /* \"#utility.yul\":5443:5460   */\n      add\n        /* \"#utility.yul\":5434:5440   */\n      dup5\n        /* \"#utility.yul\":5390:5461   */\n      tag_160\n      jump\t// in\n    tag_173:\n        /* \"#utility.yul\":5246:5468   */\n      swap3\n      swap2\n      pop\n      pop\n      jump\t// out\n        /* \"#utility.yul\":5555:5702   */\n    tag_152:\n        /* \"#utility.yul\":5656:5667   */\n      0x00\n        /* \"#utility.yul\":5693:5696   */\n      dup2\n        /* \"#utility.yul\":5678:5696   */\n      swap1\n      pop\n        /* \"#utility.yul\":5555:5702   */\n      swap3\n      swap2\n      pop\n      pop\n      jump\t// out\n        /* \"#utility.yul\":5708:5877   */\n    tag_146:\n        /* \"#utility.yul\":5792:5803   */\n      0x00\n        /* \"#utility.yul\":5826:5832   */\n      dup3\n        /* \"#utility.yul\":5821:5824   */\n      dup3\n        /* \"#utility.yul\":5814:5833   */\n      mstore\n        /* \"#utility.yul\":5866:5870   */\n      0x20\n        /* \"#utility.yul\":5861:5864   */\n      dup3\n        /* \"#utility.yul\":5857:5871   */\n      add\n        /* \"#utility.yul\":5842:5871   */\n      swap1\n      pop\n        /* \"#utility.yul\":5708:5877   */\n      swap3\n      swap2\n      pop\n      pop\n      jump\t// out\n        /* \"#utility.yul\":5883:6068   */\n    tag_86:\n        /* \"#utility.yul\":5923:5924   */\n      0x00\n        /* \"#utility.yul\":5940:5960   */\n      tag_179\n        /* \"#utility.yul\":5958:5959   */\n      dup3\n        /* \"#utility.yul\":5940:5960   */\n      tag_163\n      jump\t// in\n    tag_179:\n        /* \"#utility.yul\":5935:5960   */\n      swap2\n      pop\n        /* \"#utility.yul\":5974:5994   */\n      tag_180\n        /* \"#utility.yul\":5992:5993   */\n      dup4\n        /* \"#utility.yul\":5974:5994   */\n      tag_163\n      jump\t// in\n    tag_180:\n        /* \"#utility.yul\":5969:5994   */\n      swap3\n      pop\n        /* \"#utility.yul\":6013:6014   */\n      dup3\n        /* \"#utility.yul\":6003:6038   */\n      tag_181\n      jumpi\n        /* \"#utility.yul\":6018:6036   */\n      tag_182\n      tag_183\n      jump\t// in\n    tag_182:\n        /* \"#utility.yul\":6003:6038   */\n    tag_181:\n        /* \"#utility.yul\":6060:6061   */\n      dup3\n        /* \"#utility.yul\":6057:6058   */\n      dup3\n        /* \"#utility.yul\":6053:6062   */\n      div\n        /* \"#utility.yul\":6048:6062   */\n      swap1\n      pop\n        /* \"#utility.yul\":5883:6068   */\n      swap3\n      swap2\n      pop\n      pop\n      jump\t// out\n        /* \"#utility.yul\":6074:7065   */\n    tag_94:\n        /* \"#utility.yul\":6113:6120   */\n      0x00\n        /* \"#utility.yul\":6136:6155   */\n      tag_185\n        /* \"#utility.yul\":6153:6154   */\n      dup3\n        /* \"#utility.yul\":6136:6155   */\n      tag_186\n      jump\t// in\n    tag_185:\n        /* \"#utility.yul\":6131:6155   */\n      swap2\n      pop\n        /* \"#utility.yul\":6169:6188   */\n      tag_187\n        /* \"#utility.yul\":6186:6187   */\n      dup4\n        /* \"#utility.yul\":6169:6188   */\n      tag_186\n      jump\t// in\n    tag_187:\n        /* \"#utility.yul\":6164:6188   */\n      swap3\n      pop\n        /* \"#utility.yul\":6370:6371   */\n      dup3\n        /* \"#utility.yul\":6302:6368   */\n      0x7fffffffffffffffffffffffffffffffffffffffffffffffffffffffffffffff\n        /* \"#utility.yul\":6298:6372   */\n      div\n        /* \"#utility.yul\":6295:6296   */\n      dup3\n        /* \"#utility.yul\":6292:6373   */\n      gt\n        /* \"#utility.yul\":6287:6288   */\n      0x00\n        /* \"#utility.yul\":6284:6285   */\n      dup5\n        /* \"#utility.yul\":6280:6289   */\n      sgt\n        /* \"#utility.yul\":6276:6277   */\n      0x00\n        /* \"#utility.yul\":6273:6274   */\n      dup5\n        /* \"#utility.yul\":6269:6278   */\n      sgt\n        /* \"#utility.yul\":6265:6290   */\n      and\n        /* \"#utility.yul\":6261:6374   */\n      and\n        /* \"#utility.yul\":6258:6397   */\n      iszero\n      tag_188\n      jumpi\n        /* \"#utility.yul\":6377:6395   */\n      tag_189\n      tag_190\n      jump\t// in\n    tag_189:\n        /* \"#utility.yul\":6258:6397   */\n    tag_188:\n        /* \"#utility.yul\":6581:6582   */\n      dup2\n        /* \"#utility.yul\":6513:6579   */\n      0x8000000000000000000000000000000000000000000000000000000000000000\n        /* \"#utility.yul\":6508:6583   */\n      sdiv\n        /* \"#utility.yul\":6505:6506   */\n      dup4\n        /* \"#utility.yul\":6501:6584   */\n      slt\n        /* \"#utility.yul\":6496:6497   */\n      0x00\n        /* \"#utility.yul\":6493:6494   */\n      dup5\n        /* \"#utility.yul\":6489:6498   */\n      slt\n        /* \"#utility.yul\":6485:6486   */\n      0x00\n        /* \"#utility.yul\":6482:6483   */\n      dup5\n        /* \"#utility.yul\":6478:6487   */\n      sgt\n        /* \"#utility.yul\":6474:6499   */\n      and\n        /* \"#utility.yul\":6470:6585   */\n      and\n        /* \"#utility.yul\":6467:6608   */\n      iszero\n      tag_191\n      jumpi\n        /* \"#utility.yul\":6588:6606   */\n      tag_192\n      tag_190\n      jump\t// in\n    tag_192:\n        /* \"#utility.yul\":6467:6608   */\n    tag_191:\n        /* \"#utility.yul\":6792:6793   */\n      dup3\n        /* \"#utility.yul\":6724:6790   */\n      0x8000000000000000000000000000000000000000000000000000000000000000\n        /* \"#utility.yul\":6719:6794   */\n      sdiv\n        /* \"#utility.yul\":6716:6717   */\n      dup3\n        /* \"#utility.yul\":6712:6795   */\n      slt\n        /* \"#utility.yul\":6707:6708   */\n      0x00\n        /* \"#utility.yul\":6704:6705   */\n      dup5\n        /* \"#utility.yul\":6700:6709   */\n      sgt\n        /* \"#utility.yul\":6696:6697   */\n      0x00\n        /* \"#utility.yul\":6693:6694   */\n      dup5\n        /* \"#utility.yul\":6689:6698   */\n      slt\n        /* \"#utility.yul\":6685:6710   */\n      and\n        /* \"#utility.yul\":6681:6796   */\n      and\n        /* \"#utility.yul\":6678:6819   */\n      iszero\n      tag_193\n      jumpi\n        /* \"#utility.yul\":6799:6817   */\n      tag_194\n      tag_190\n      jump\t// in\n    tag_194:\n        /* \"#utility.yul\":6678:6819   */\n    tag_193:\n        /* \"#utility.yul\":7002:7003   */\n      dup3\n        /* \"#utility.yul\":6934:7000   */\n      0x7fffffffffffffffffffffffffffffffffffffffffffffffffffffffffffffff\n        /* \"#utility.yul\":6929:7004   */\n      sdiv\n        /* \"#utility.yul\":6926:6927   */\n      dup3\n        /* \"#utility.yul\":6922:7005   */\n      slt\n        /* \"#utility.yul\":6917:6918   */\n      0x00\n        /* \"#utility.yul\":6914:6915   */\n      dup5\n        /* \"#utility.yul\":6910:6919   */\n      slt\n        /* \"#utility.yul\":6906:6907   */\n      0x00\n        /* \"#utility.yul\":6903:6904   */\n      dup5\n        /* \"#utility.yul\":6899:6908   */\n      slt\n        /* \"#utility.yul\":6895:6920   */\n      and\n        /* \"#utility.yul\":6891:7006   */\n      and\n        /* \"#utility.yul\":6888:7029   */\n      iszero\n      tag_195\n      jumpi\n        /* \"#utility.yul\":7009:7027   */\n      tag_196\n      tag_190\n      jump\t// in\n    tag_196:\n        /* \"#utility.yul\":6888:7029   */\n    tag_195:\n        /* \"#utility.yul\":7057:7058   */\n      dup3\n        /* \"#utility.yul\":7054:7055   */\n      dup3\n        /* \"#utility.yul\":7050:7059   */\n      mul\n        /* \"#utility.yul\":7039:7059   */\n      swap1\n      pop\n        /* \"#utility.yul\":6074:7065   */\n      swap3\n      swap2\n      pop\n      pop\n      jump\t// out\n        /* \"#utility.yul\":7071:7419   */\n    tag_84:\n        /* \"#utility.yul\":7111:7118   */\n      0x00\n        /* \"#utility.yul\":7134:7154   */\n      tag_198\n        /* \"#utility.yul\":7152:7153   */\n      dup3\n        /* \"#utility.yul\":7134:7154   */\n      tag_163\n      jump\t// in\n    tag_198:\n        /* \"#utility.yul\":7129:7154   */\n      swap2\n      pop\n        /* \"#utility.yul\":7168:7188   */\n      tag_199\n        /* \"#utility.yul\":7186:7187   */\n      dup4\n        /* \"#utility.yul\":7168:7188   */\n      tag_163\n      jump\t// in\n    tag_199:\n        /* \"#utility.yul\":7163:7188   */\n      swap3\n      pop\n        /* \"#utility.yul\":7356:7357   */\n      dup2\n        /* \"#utility.yul\":7288:7354   */\n      0xffffffffffffffffffffffffffffffffffffffffffffffffffffffffffffffff\n        /* \"#utility.yul\":7284:7358   */\n      div\n        /* \"#utility.yul\":7281:7282   */\n      dup4\n        /* \"#utility.yul\":7278:7359   */\n      gt\n        /* \"#utility.yul\":7273:7274   */\n      dup3\n        /* \"#utility.yul\":7266:7275   */\n      iszero\n        /* \"#utility.yul\":7259:7276   */\n      iszero\n        /* \"#utility.yul\":7255:7360   */\n      and\n        /* \"#utility.yul\":7252:7383   */\n      iszero\n      tag_200\n      jumpi\n        /* \"#utility.yul\":7363:7381   */\n      tag_201\n      tag_190\n      jump\t// in\n    tag_201:\n        /* \"#utility.yul\":7252:7383   */\n    tag_200:\n        /* \"#utility.yul\":7411:7412   */\n      dup3\n        /* \"#utility.yul\":7408:7409   */\n      dup3\n        /* \"#utility.yul\":7404:7413   */\n      mul\n        /* \"#utility.yul\":7393:7413   */\n      swap1\n      pop\n        /* \"#utility.yul\":7071:7419   */\n      swap3\n      swap2\n      pop\n      pop\n      jump\t// out\n        /* \"#utility.yul\":7425:7521   */\n    tag_142:\n        /* \"#utility.yul\":7462:7469   */\n      0x00\n        /* \"#utility.yul\":7491:7515   */\n      tag_203\n        /* \"#utility.yul\":7509:7514   */\n      dup3\n        /* \"#utility.yul\":7491:7515   */\n      tag_204\n      jump\t// in\n    tag_203:\n        /* \"#utility.yul\":7480:7515   */\n      swap1\n      pop\n        /* \"#utility.yul\":7425:7521   */\n      swap2\n      swap1\n      pop\n      jump\t// out\n        /* \"#utility.yul\":7527:7603   */\n    tag_186:\n        /* \"#utility.yul\":7563:7570   */\n      0x00\n        /* \"#utility.yul\":7592:7597   */\n      dup2\n        /* \"#utility.yul\":7581:7597   */\n      swap1\n      pop\n        /* \"#utility.yul\":7527:7603   */\n      swap2\n      swap1\n      pop\n      jump\t// out\n        /* \"#utility.yul\":7609:7735   */\n    tag_204:\n        /* \"#utility.yul\":7646:7653   */\n      0x00\n        /* \"#utility.yul\":7686:7728   */\n      0xffffffffffffffffffffffffffffffffffffffff\n        /* \"#utility.yul\":7679:7684   */\n      dup3\n        /* \"#utility.yul\":7675:7729   */\n      and\n        /* \"#utility.yul\":7664:7729   */\n      swap1\n      pop\n        /* \"#utility.yul\":7609:7735   */\n      swap2\n      swap1\n      pop\n      jump\t// out\n        /* \"#utility.yul\":7741:7818   */\n    tag_163:\n        /* \"#utility.yul\":7778:7785   */\n      0x00\n        /* \"#utility.yul\":7807:7812   */\n      dup2\n        /* \"#utility.yul\":7796:7812   */\n      swap1\n      pop\n        /* \"#utility.yul\":7741:7818   */\n      swap2\n      swap1\n      pop\n      jump\t// out\n        /* \"#utility.yul\":7824:7929   */\n    tag_208:\n        /* \"#utility.yul\":7860:7867   */\n      0x00\n        /* \"#utility.yul\":7900:7922   */\n      0xffffffffffffffffffff\n        /* \"#utility.yul\":7893:7898   */\n      dup3\n        /* \"#utility.yul\":7889:7923   */\n      and\n        /* \"#utility.yul\":7878:7923   */\n      swap1\n      pop\n        /* \"#utility.yul\":7824:7929   */\n      swap2\n      swap1\n      pop\n      jump\t// out\n        /* \"#utility.yul\":7935:8168   */\n    tag_56:\n        /* \"#utility.yul\":7974:7977   */\n      0x00\n        /* \"#utility.yul\":7997:8021   */\n      tag_211\n        /* \"#utility.yul\":8015:8020   */\n      dup3\n        /* \"#utility.yul\":7997:8021   */\n      tag_163\n      jump\t// in\n    tag_211:\n        /* \"#utility.yul\":7988:8021   */\n      swap2\n      pop\n        /* \"#utility.yul\":8043:8109   */\n      0xffffffffffffffffffffffffffffffffffffffffffffffffffffffffffffffff\n        /* \"#utility.yul\":8036:8041   */\n      dup3\n        /* \"#utility.yul\":8033:8110   */\n      eq\n        /* \"#utility.yul\":8030:8133   */\n      iszero\n      tag_212\n      jumpi\n        /* \"#utility.yul\":8113:8131   */\n      tag_213\n      tag_190\n      jump\t// in\n    tag_213:\n        /* \"#utility.yul\":8030:8133   */\n    tag_212:\n        /* \"#utility.yul\":8160:8161   */\n      0x01\n        /* \"#utility.yul\":8153:8158   */\n      dup3\n        /* \"#utility.yul\":8149:8162   */\n      add\n        /* \"#utility.yul\":8142:8162   */\n      swap1\n      pop\n        /* \"#utility.yul\":7935:8168   */\n      swap2\n      swap1\n      pop\n      jump\t// out\n        /* \"#utility.yul\":8174:8354   */\n    tag_190:\n        /* \"#utility.yul\":8222:8299   */\n      0x4e487b7100000000000000000000000000000000000000000000000000000000\n        /* \"#utility.yul\":8219:8220   */\n      0x00\n        /* \"#utility.yul\":8212:8300   */\n      mstore\n        /* \"#utility.yul\":8319:8323   */\n      0x11\n        /* \"#utility.yul\":8316:8317   */\n      0x04\n        /* \"#utility.yul\":8309:8324   */\n      mstore\n        /* \"#utility.yul\":8343:8347   */\n      0x24\n        /* \"#utility.yul\":8340:8341   */\n      0x00\n        /* \"#utility.yul\":8333:8348   */\n      revert\n        /* \"#utility.yul\":8360:8540   */\n    tag_183:\n        /* \"#utility.yul\":8408:8485   */\n      0x4e487b7100000000000000000000000000000000000000000000000000000000\n        /* \"#utility.yul\":8405:8406   */\n      0x00\n        /* \"#utility.yul\":8398:8486   */\n      mstore\n        /* \"#utility.yul\":8505:8509   */\n      0x12\n        /* \"#utility.yul\":8502:8503   */\n      0x04\n        /* \"#utility.yul\":8495:8510   */\n      mstore\n        /* \"#utility.yul\":8529:8533   */\n      0x24\n        /* \"#utility.yul\":8526:8527   */\n      0x00\n        /* \"#utility.yul\":8519:8534   */\n      revert\n        /* \"#utility.yul\":8546:8726   */\n    tag_53:\n        /* \"#utility.yul\":8594:8671   */\n      0x4e487b7100000000000000000000000000000000000000000000000000000000\n        /* \"#utility.yul\":8591:8592   */\n      0x00\n        /* \"#utility.yul\":8584:8672   */\n      mstore\n        /* \"#utility.yul\":8691:8695   */\n      0x32\n        /* \"#utility.yul\":8688:8689   */\n      0x04\n        /* \"#utility.yul\":8681:8696   */\n      mstore\n        /* \"#utility.yul\":8715:8719   */\n      0x24\n        /* \"#utility.yul\":8712:8713   */\n      0x00\n        /* \"#utility.yul\":8705:8720   */\n      revert\n        /* \"#utility.yul\":8732:8912   */\n    tag_59:\n        /* \"#utility.yul\":8780:8857   */\n      0x4e487b7100000000000000000000000000000000000000000000000000000000\n        /* \"#utility.yul\":8777:8778   */\n      0x00\n        /* \"#utility.yul\":8770:8858   */\n      mstore\n        /* \"#utility.yul\":8877:8881   */\n      0x41\n        /* \"#utility.yul\":8874:8875   */\n      0x04\n        /* \"#utility.yul\":8867:8882   */\n      mstore\n        /* \"#utility.yul\":8901:8905   */\n      0x24\n        /* \"#utility.yul\":8898:8899   */\n      0x00\n        /* \"#utility.yul\":8891:8906   */\n      revert\n        /* \"#utility.yul\":9041:9158   */\n    tag_125:\n        /* \"#utility.yul\":9150:9151   */\n      0x00\n        /* \"#utility.yul\":9147:9148   */\n      dup1\n        /* \"#utility.yul\":9140:9152   */\n      revert\n        /* \"#utility.yul\":9164:9332   */\n    tag_148:\n        /* \"#utility.yul\":9304:9324   */\n      0x4469646e27742073656e6420656e6f7567680000000000000000000000000000\n        /* \"#utility.yul\":9300:9301   */\n      0x00\n        /* \"#utility.yul\":9292:9298   */\n      dup3\n        /* \"#utility.yul\":9288:9302   */\n      add\n        /* \"#utility.yul\":9281:9325   */\n      mstore\n        /* \"#utility.yul\":9164:9332   */\n      pop\n      jump\t// out\n        /* \"#utility.yul\":9338:9452   */\n    tag_154:\n      pop\n      jump\t// out\n        /* \"#utility.yul\":9458:9619   */\n    tag_159:\n        /* \"#utility.yul\":9598:9611   */\n      0x43616c6c204661696c6564000000000000000000000000000000000000000000\n        /* \"#utility.yul\":9594:9595   */\n      0x00\n        /* \"#utility.yul\":9586:9592   */\n      dup3\n        /* \"#utility.yul\":9582:9596   */\n      add\n        /* \"#utility.yul\":9575:9612   */\n      mstore\n        /* \"#utility.yul\":9458:9619   */\n      pop\n      jump\t// out\n        /* \"#utility.yul\":9625:9747   */\n    tag_106:\n        /* \"#utility.yul\":9698:9722   */\n      tag_225\n        /* \"#utility.yul\":9716:9721   */\n      dup2\n        /* \"#utility.yul\":9698:9722   */\n      tag_142\n      jump\t// in\n    tag_225:\n        /* \"#utility.yul\":9691:9696   */\n      dup2\n        /* \"#utility.yul\":9688:9723   */\n      eq\n        /* \"#utility.yul\":9678:9741   */\n      tag_226\n      jumpi\n        /* \"#utility.yul\":9737:9738   */\n      0x00\n        /* \"#utility.yul\":9734:9735   */\n      dup1\n        /* \"#utility.yul\":9727:9739   */\n      revert\n        /* \"#utility.yul\":9678:9741   */\n    tag_226:\n        /* \"#utility.yul\":9625:9747   */\n      pop\n      jump\t// out\n        /* \"#utility.yul\":9753:9873   */\n    tag_110:\n        /* \"#utility.yul\":9825:9848   */\n      tag_228\n        /* \"#utility.yul\":9842:9847   */\n      dup2\n        /* \"#utility.yul\":9825:9848   */\n      tag_186\n      jump\t// in\n    tag_228:\n        /* \"#utility.yul\":9818:9823   */\n      dup2\n        /* \"#utility.yul\":9815:9849   */\n      eq\n        /* \"#utility.yul\":9805:9867   */\n      tag_229\n      jumpi\n        /* \"#utility.yul\":9863:9864   */\n      0x00\n        /* \"#utility.yul\":9860:9861   */\n      dup1\n        /* \"#utility.yul\":9853:9865   */\n      revert\n        /* \"#utility.yul\":9805:9867   */\n    tag_229:\n        /* \"#utility.yul\":9753:9873   */\n      pop\n      jump\t// out\n        /* \"#utility.yul\":9879:10001   */\n    tag_114:\n        /* \"#utility.yul\":9952:9976   */\n      tag_231\n        /* \"#utility.yul\":9970:9975   */\n      dup2\n        /* \"#utility.yul\":9952:9976   */\n      tag_163\n      jump\t// in\n    tag_231:\n        /* \"#utility.yul\":9945:9950   */\n      dup2\n        /* \"#utility.yul\":9942:9977   */\n      eq\n        /* \"#utility.yul\":9932:9995   */\n      tag_232\n      jumpi\n        /* \"#utility.yul\":9991:9992   */\n      0x00\n        /* \"#utility.yul\":9988:9989   */\n      dup1\n        /* \"#utility.yul\":9981:9993   */\n      revert\n        /* \"#utility.yul\":9932:9995   */\n    tag_232:\n        /* \"#utility.yul\":9879:10001   */\n      pop\n      jump\t// out\n        /* \"#utility.yul\":10007:10127   */\n    tag_121:\n        /* \"#utility.yul\":10079:10102   */\n      tag_234\n        /* \"#utility.yul\":10096:10101   */\n      dup2\n        /* \"#utility.yul\":10079:10102   */\n      tag_208\n      jump\t// in\n    tag_234:\n        /* \"#utility.yul\":10072:10077   */\n      dup2\n        /* \"#utility.yul\":10069:10103   */\n      eq\n        /* \"#utility.yul\":10059:10121   */\n      tag_235\n      jumpi\n        /* \"#utility.yul\":10117:10118   */\n      0x00\n        /* \"#utility.yul\":10114:10115   */\n      dup1\n        /* \"#utility.yul\":10107:10119   */\n      revert\n        /* \"#utility.yul\":10059:10121   */\n    tag_235:\n        /* \"#utility.yul\":10007:10127   */\n      pop\n      jump\t// out\n\n    auxdata: 0xa2646970667358221220b5b0602fcc1350fa5461d314c26e80dc22227d1d4872e1e49a2125a0e6669b8364736f6c63430008070033\n}\n",
				"bytecode": {
					"linkReferences": {},
					"object": "60806040526802b5e3af16b1880000600055600060045534801561002257600080fd5b5033600360006101000a81548173ffffffffffffffffffffffffffffffffffffffff021916908373ffffffffffffffffffffffffffffffffffffffff160217905550610ce4806100736000396000f3fe6080604052600436106100745760003560e01c80638da5cb5b1161004e5780638da5cb5b14610111578063b60d42881461013c578063dc0d3dff14610146578063f8a8fd6d1461018357610083565b806352b50a2a146100925780636aba2c86146100a957806378abafaf146100e657610083565b36610083576001600481905550005b34801561008f57600080fd5b50005b34801561009e57600080fd5b506100a76101ae565b005b3480156100b557600080fd5b506100d060048036038101906100cb91906106f2565b610371565b6040516100dd91906108be565b60405180910390f35b3480156100f257600080fd5b506100fb610389565b60405161010891906108be565b60405180910390f35b34801561011d57600080fd5b5061012661038f565b6040516101339190610863565b60405180910390f35b6101446103b5565b005b34801561015257600080fd5b5061016d6004803603810190610168919061071f565b6104ab565b60405161017a9190610863565b60405180910390f35b34801561018f57600080fd5b506101986104ea565b6040516101a591906108be565b60405180910390f35b60005b60018054905081101561025a576000600182815481106101d4576101d3610b9a565b5b9060005260206000200160009054906101000a900473ffffffffffffffffffffffffffffffffffffffff1690506000600260008373ffffffffffffffffffffffffffffffffffffffff1673ffffffffffffffffffffffffffffffffffffffff1681526020019081526020016000208190555050808061025290610af3565b9150506101b1565b50600067ffffffffffffffff81111561027657610275610bc9565b5b6040519080825280602002602001820160405280156102a45781602001602082028036833780820191505090505b50600190805190602001906102ba9291906105e2565b5060003373ffffffffffffffffffffffffffffffffffffffff16476040516102e19061084e565b60006040518083038185875af1925050503d806000811461031e576040519150601f19603f3d011682016040523d82523d6000602084013e610323565b606091505b50509050600115158115151461036e576040517f08c379a00000000000000000000000000000000000000000000000000000000081526004016103659061089e565b60405180910390fd5b50565b60026020528060005260406000206000915090505481565b60005481565b600360009054906101000a900473ffffffffffffffffffffffffffffffffffffffff1681565b6000546103c1346104f0565b1015610402576040517f08c379a00000000000000000000000000000000000000000000000000000000081526004016103f99061087e565b60405180910390fd5b6001339080600181540180825580915050600190039060005260206000200160009091909190916101000a81548173ffffffffffffffffffffffffffffffffffffffff021916908373ffffffffffffffffffffffffffffffffffffffff16021790555034600260003373ffffffffffffffffffffffffffffffffffffffff1673ffffffffffffffffffffffffffffffffffffffff16815260200190815260200160002081905550565b600181815481106104bb57600080fd5b906000526020600020016000915054906101000a900473ffffffffffffffffffffffffffffffffffffffff1681565b60045481565b6000806104fb61052a565b90506000670de0b6b3a764000084836105149190610a3d565b61051e91906108f5565b90508092505050919050565b60008073d4a33860578de61dbabdc8bfdb98fd742fa7028e905060008173ffffffffffffffffffffffffffffffffffffffff1663feaf968c6040518163ffffffff1660e01b815260040160a06040518083038186803b15801561058c57600080fd5b505afa1580156105a0573d6000803e3d6000fd5b505050506040513d601f19601f820116820180604052508101906105c4919061074c565b5050509150506402540be400816105db9190610926565b9250505090565b82805482825590600052602060002090810192821561065b579160200282015b8281111561065a5782518260006101000a81548173ffffffffffffffffffffffffffffffffffffffff021916908373ffffffffffffffffffffffffffffffffffffffff16021790555091602001919060010190610602565b5b509050610668919061066c565b5090565b5b8082111561068557600081600090555060010161066d565b5090565b60008135905061069881610c52565b92915050565b6000815190506106ad81610c69565b92915050565b6000813590506106c281610c80565b92915050565b6000815190506106d781610c80565b92915050565b6000815190506106ec81610c97565b92915050565b60006020828403121561070857610707610bf8565b5b600061071684828501610689565b91505092915050565b60006020828403121561073557610734610bf8565b5b6000610743848285016106b3565b91505092915050565b600080600080600060a0868803121561076857610767610bf8565b5b6000610776888289016106dd565b95505060206107878882890161069e565b9450506040610798888289016106c8565b93505060606107a9888289016106c8565b92505060806107ba888289016106dd565b9150509295509295909350565b6107d081610a97565b82525050565b60006107e36012836108e4565b91506107ee82610bfd565b602082019050919050565b60006108066000836108d9565b915061081182610c26565b600082019050919050565b6000610829600b836108e4565b915061083482610c29565b602082019050919050565b61084881610ad3565b82525050565b6000610859826107f9565b9150819050919050565b600060208201905061087860008301846107c7565b92915050565b60006020820190508181036000830152610897816107d6565b9050919050565b600060208201905081810360008301526108b78161081c565b9050919050565b60006020820190506108d3600083018461083f565b92915050565b600081905092915050565b600082825260208201905092915050565b600061090082610ad3565b915061090b83610ad3565b92508261091b5761091a610b6b565b5b828204905092915050565b600061093182610aa9565b915061093c83610aa9565b9250827f7fffffffffffffffffffffffffffffffffffffffffffffffffffffffffffffff048211600084136000841316161561097b5761097a610b3c565b5b817f800000000000000000000000000000000000000000000000000000000000000005831260008412600084131616156109b8576109b7610b3c565b5b827f800000000000000000000000000000000000000000000000000000000000000005821260008413600084121616156109f5576109f4610b3c565b5b827f7fffffffffffffffffffffffffffffffffffffffffffffffffffffffffffffff0582126000841260008412161615610a3257610a31610b3c565b5b828202905092915050565b6000610a4882610ad3565b9150610a5383610ad3565b9250817fffffffffffffffffffffffffffffffffffffffffffffffffffffffffffffffff0483118215151615610a8c57610a8b610b3c565b5b828202905092915050565b6000610aa282610ab3565b9050919050565b6000819050919050565b600073ffffffffffffffffffffffffffffffffffffffff82169050919050565b6000819050919050565b600069ffffffffffffffffffff82169050919050565b6000610afe82610ad3565b91507fffffffffffffffffffffffffffffffffffffffffffffffffffffffffffffffff821415610b3157610b30610b3c565b5b600182019050919050565b7f4e487b7100000000000000000000000000000000000000000000000000000000600052601160045260246000fd5b7f4e487b7100000000000000000000000000000000000000000000000000000000600052601260045260246000fd5b7f4e487b7100000000000000000000000000000000000000000000000000000000600052603260045260246000fd5b7f4e487b7100000000000000000000000000000000000000000000000000000000600052604160045260246000fd5b600080fd5b7f4469646e27742073656e6420656e6f7567680000000000000000000000000000600082015250565b50565b7f43616c6c204661696c6564000000000000000000000000000000000000000000600082015250565b610c5b81610a97565b8114610c6657600080fd5b50565b610c7281610aa9565b8114610c7d57600080fd5b50565b610c8981610ad3565b8114610c9457600080fd5b50565b610ca081610add565b8114610cab57600080fd5b5056fea2646970667358221220b5b0602fcc1350fa5461d314c26e80dc22227d1d4872e1e49a2125a0e6669b8364736f6c63430008070033",
					"opcodes": "PUSH1 0x80 PUSH1 0x40 MSTORE PUSH9 0x2B5E3AF16B1880000 PUSH1 0x0 SSTORE PUSH1 0x0 PUSH1 0x4 SSTORE CALLVALUE DUP1 ISZERO PUSH2 0x22 JUMPI PUSH1 0x0 DUP1 REVERT JUMPDEST POP CALLER PUSH1 0x3 PUSH1 0x0 PUSH2 0x100 EXP DUP2 SLOAD DUP2 PUSH20 0xFFFFFFFFFFFFFFFFFFFFFFFFFFFFFFFFFFFFFFFF MUL NOT AND SWAP1 DUP4 PUSH20 0xFFFFFFFFFFFFFFFFFFFFFFFFFFFFFFFFFFFFFFFF AND MUL OR SWAP1 SSTORE POP PUSH2 0xCE4 DUP1 PUSH2 0x73 PUSH1 0x0 CODECOPY PUSH1 0x0 RETURN INVALID PUSH1 0x80 PUSH1 0x40 MSTORE PUSH1 0x4 CALLDATASIZE LT PUSH2 0x74 JUMPI PUSH1 0x0 CALLDATALOAD PUSH1 0xE0 SHR DUP1 PUSH4 0x8DA5CB5B GT PUSH2 0x4E JUMPI DUP1 PUSH4 0x8DA5CB5B EQ PUSH2 0x111 JUMPI DUP1 PUSH4 0xB60D4288 EQ PUSH2 0x13C JUMPI DUP1 PUSH4 0xDC0D3DFF EQ PUSH2 0x146 JUMPI DUP1 PUSH4 0xF8A8FD6D EQ PUSH2 0x183 JUMPI PUSH2 0x83 JUMP JUMPDEST DUP1 PUSH4 0x52B50A2A EQ PUSH2 0x92 JUMPI DUP1 PUSH4 0x6ABA2C86 EQ PUSH2 0xA9 JUMPI DUP1 PUSH4 0x78ABAFAF EQ PUSH2 0xE6 JUMPI PUSH2 0x83 JUMP JUMPDEST CALLDATASIZE PUSH2 0x83 JUMPI PUSH1 0x1 PUSH1 0x4 DUP2 SWAP1 SSTORE POP STOP JUMPDEST CALLVALUE DUP1 ISZERO PUSH2 0x8F JUMPI PUSH1 0x0 DUP1 REVERT JUMPDEST POP STOP JUMPDEST CALLVALUE DUP1 ISZERO PUSH2 0x9E JUMPI PUSH1 0x0 DUP1 REVERT JUMPDEST POP PUSH2 0xA7 PUSH2 0x1AE JUMP JUMPDEST STOP JUMPDEST CALLVALUE DUP1 ISZERO PUSH2 0xB5 JUMPI PUSH1 0x0 DUP1 REVERT JUMPDEST POP PUSH2 0xD0 PUSH1 0x4 DUP1 CALLDATASIZE SUB DUP2 ADD SWAP1 PUSH2 0xCB SWAP2 SWAP1 PUSH2 0x6F2 JUMP JUMPDEST PUSH2 0x371 JUMP JUMPDEST PUSH1 0x40 MLOAD PUSH2 0xDD SWAP2 SWAP1 PUSH2 0x8BE JUMP JUMPDEST PUSH1 0x40 MLOAD DUP1 SWAP2 SUB SWAP1 RETURN JUMPDEST CALLVALUE DUP1 ISZERO PUSH2 0xF2 JUMPI PUSH1 0x0 DUP1 REVERT JUMPDEST POP PUSH2 0xFB PUSH2 0x389 JUMP JUMPDEST PUSH1 0x40 MLOAD PUSH2 0x108 SWAP2 SWAP1 PUSH2 0x8BE JUMP JUMPDEST PUSH1 0x40 MLOAD DUP1 SWAP2 SUB SWAP1 RETURN JUMPDEST CALLVALUE DUP1 ISZERO PUSH2 0x11D JUMPI PUSH1 0x0 DUP1 REVERT JUMPDEST POP PUSH2 0x126 PUSH2 0x38F JUMP JUMPDEST PUSH1 0x40 MLOAD PUSH2 0x133 SWAP2 SWAP1 PUSH2 0x863 JUMP JUMPDEST PUSH1 0x40 MLOAD DUP1 SWAP2 SUB SWAP1 RETURN JUMPDEST PUSH2 0x144 PUSH2 0x3B5 JUMP JUMPDEST STOP JUMPDEST CALLVALUE DUP1 ISZERO PUSH2 0x152 JUMPI PUSH1 0x0 DUP1 REVERT JUMPDEST POP PUSH2 0x16D PUSH1 0x4 DUP1 CALLDATASIZE SUB DUP2 ADD SWAP1 PUSH2 0x168 SWAP2 SWAP1 PUSH2 0x71F JUMP JUMPDEST PUSH2 0x4AB JUMP JUMPDEST PUSH1 0x40 MLOAD PUSH2 0x17A SWAP2 SWAP1 PUSH2 0x863 JUMP JUMPDEST PUSH1 0x40 MLOAD DUP1 SWAP2 SUB SWAP1 RETURN JUMPDEST CALLVALUE DUP1 ISZERO PUSH2 0x18F JUMPI PUSH1 0x0 DUP1 REVERT JUMPDEST POP PUSH2 0x198 PUSH2 0x4EA JUMP JUMPDEST PUSH1 0x40 MLOAD PUSH2 0x1A5 SWAP2 SWAP1 PUSH2 0x8BE JUMP JUMPDEST PUSH1 0x40 MLOAD DUP1 SWAP2 SUB SWAP1 RETURN JUMPDEST PUSH1 0x0 JUMPDEST PUSH1 0x1 DUP1 SLOAD SWAP1 POP DUP2 LT ISZERO PUSH2 0x25A JUMPI PUSH1 0x0 PUSH1 0x1 DUP3 DUP2 SLOAD DUP2 LT PUSH2 0x1D4 JUMPI PUSH2 0x1D3 PUSH2 0xB9A JUMP JUMPDEST JUMPDEST SWAP1 PUSH1 0x0 MSTORE PUSH1 0x20 PUSH1 0x0 KECCAK256 ADD PUSH1 0x0 SWAP1 SLOAD SWAP1 PUSH2 0x100 EXP SWAP1 DIV PUSH20 0xFFFFFFFFFFFFFFFFFFFFFFFFFFFFFFFFFFFFFFFF AND SWAP1 POP PUSH1 0x0 PUSH1 0x2 PUSH1 0x0 DUP4 PUSH20 0xFFFFFFFFFFFFFFFFFFFFFFFFFFFFFFFFFFFFFFFF AND PUSH20 0xFFFFFFFFFFFFFFFFFFFFFFFFFFFFFFFFFFFFFFFF AND DUP2 MSTORE PUSH1 0x20 ADD SWAP1 DUP2 MSTORE PUSH1 0x20 ADD PUSH1 0x0 KECCAK256 DUP2 SWAP1 SSTORE POP POP DUP1 DUP1 PUSH2 0x252 SWAP1 PUSH2 0xAF3 JUMP JUMPDEST SWAP2 POP POP PUSH2 0x1B1 JUMP JUMPDEST POP PUSH1 0x0 PUSH8 0xFFFFFFFFFFFFFFFF DUP2 GT ISZERO PUSH2 0x276 JUMPI PUSH2 0x275 PUSH2 0xBC9 JUMP JUMPDEST JUMPDEST PUSH1 0x40 MLOAD SWAP1 DUP1 DUP3 MSTORE DUP1 PUSH1 0x20 MUL PUSH1 0x20 ADD DUP3 ADD PUSH1 0x40 MSTORE DUP1 ISZERO PUSH2 0x2A4 JUMPI DUP2 PUSH1 0x20 ADD PUSH1 0x20 DUP3 MUL DUP1 CALLDATASIZE DUP4 CALLDATACOPY DUP1 DUP3 ADD SWAP2 POP POP SWAP1 POP JUMPDEST POP PUSH1 0x1 SWAP1 DUP1 MLOAD SWAP1 PUSH1 0x20 ADD SWAP1 PUSH2 0x2BA SWAP3 SWAP2 SWAP1 PUSH2 0x5E2 JUMP JUMPDEST POP PUSH1 0x0 CALLER PUSH20 0xFFFFFFFFFFFFFFFFFFFFFFFFFFFFFFFFFFFFFFFF AND SELFBALANCE PUSH1 0x40 MLOAD PUSH2 0x2E1 SWAP1 PUSH2 0x84E JUMP JUMPDEST PUSH1 0x0 PUSH1 0x40 MLOAD DUP1 DUP4 SUB DUP2 DUP6 DUP8 GAS CALL SWAP3 POP POP POP RETURNDATASIZE DUP1 PUSH1 0x0 DUP2 EQ PUSH2 0x31E JUMPI PUSH1 0x40 MLOAD SWAP2 POP PUSH1 0x1F NOT PUSH1 0x3F RETURNDATASIZE ADD AND DUP3 ADD PUSH1 0x40 MSTORE RETURNDATASIZE DUP3 MSTORE RETURNDATASIZE PUSH1 0x0 PUSH1 0x20 DUP5 ADD RETURNDATACOPY PUSH2 0x323 JUMP JUMPDEST PUSH1 0x60 SWAP2 POP JUMPDEST POP POP SWAP1 POP PUSH1 0x1 ISZERO ISZERO DUP2 ISZERO ISZERO EQ PUSH2 0x36E JUMPI PUSH1 0x40 MLOAD PUSH32 0x8C379A000000000000000000000000000000000000000000000000000000000 DUP2 MSTORE PUSH1 0x4 ADD PUSH2 0x365 SWAP1 PUSH2 0x89E JUMP JUMPDEST PUSH1 0x40 MLOAD DUP1 SWAP2 SUB SWAP1 REVERT JUMPDEST POP JUMP JUMPDEST PUSH1 0x2 PUSH1 0x20 MSTORE DUP1 PUSH1 0x0 MSTORE PUSH1 0x40 PUSH1 0x0 KECCAK256 PUSH1 0x0 SWAP2 POP SWAP1 POP SLOAD DUP2 JUMP JUMPDEST PUSH1 0x0 SLOAD DUP2 JUMP JUMPDEST PUSH1 0x3 PUSH1 0x0 SWAP1 SLOAD SWAP1 PUSH2 0x100 EXP SWAP1 DIV PUSH20 0xFFFFFFFFFFFFFFFFFFFFFFFFFFFFFFFFFFFFFFFF AND DUP2 JUMP JUMPDEST PUSH1 0x0 SLOAD PUSH2 0x3C1 CALLVALUE PUSH2 0x4F0 JUMP JUMPDEST LT ISZERO PUSH2 0x402 JUMPI PUSH1 0x40 MLOAD PUSH32 0x8C379A000000000000000000000000000000000000000000000000000000000 DUP2 MSTORE PUSH1 0x4 ADD PUSH2 0x3F9 SWAP1 PUSH2 0x87E JUMP JUMPDEST PUSH1 0x40 MLOAD DUP1 SWAP2 SUB SWAP1 REVERT JUMPDEST PUSH1 0x1 CALLER SWAP1 DUP1 PUSH1 0x1 DUP2 SLOAD ADD DUP1 DUP3 SSTORE DUP1 SWAP2 POP POP PUSH1 0x1 SWAP1 SUB SWAP1 PUSH1 0x0 MSTORE PUSH1 0x20 PUSH1 0x0 KECCAK256 ADD PUSH1 0x0 SWAP1 SWAP2 SWAP1 SWAP2 SWAP1 SWAP2 PUSH2 0x100 EXP DUP2 SLOAD DUP2 PUSH20 0xFFFFFFFFFFFFFFFFFFFFFFFFFFFFFFFFFFFFFFFF MUL NOT AND SWAP1 DUP4 PUSH20 0xFFFFFFFFFFFFFFFFFFFFFFFFFFFFFFFFFFFFFFFF AND MUL OR SWAP1 SSTORE POP CALLVALUE PUSH1 0x2 PUSH1 0x0 CALLER PUSH20 0xFFFFFFFFFFFFFFFFFFFFFFFFFFFFFFFFFFFFFFFF AND PUSH20 0xFFFFFFFFFFFFFFFFFFFFFFFFFFFFFFFFFFFFFFFF AND DUP2 MSTORE PUSH1 0x20 ADD SWAP1 DUP2 MSTORE PUSH1 0x20 ADD PUSH1 0x0 KECCAK256 DUP2 SWAP1 SSTORE POP JUMP JUMPDEST PUSH1 0x1 DUP2 DUP2 SLOAD DUP2 LT PUSH2 0x4BB JUMPI PUSH1 0x0 DUP1 REVERT JUMPDEST SWAP1 PUSH1 0x0 MSTORE PUSH1 0x20 PUSH1 0x0 KECCAK256 ADD PUSH1 0x0 SWAP2 POP SLOAD SWAP1 PUSH2 0x100 EXP SWAP1 DIV PUSH20 0xFFFFFFFFFFFFFFFFFFFFFFFFFFFFFFFFFFFFFFFF AND DUP2 JUMP JUMPDEST PUSH1 0x4 SLOAD DUP2 JUMP JUMPDEST PUSH1 0x0 DUP1 PUSH2 0x4FB PUSH2 0x52A JUMP JUMPDEST SWAP1 POP PUSH1 0x0 PUSH8 0xDE0B6B3A7640000 DUP5 DUP4 PUSH2 0x514 SWAP2 SWAP1 PUSH2 0xA3D JUMP JUMPDEST PUSH2 0x51E SWAP2 SWAP1 PUSH2 0x8F5 JUMP JUMPDEST SWAP1 POP DUP1 SWAP3 POP POP POP SWAP2 SWAP1 POP JUMP JUMPDEST PUSH1 0x0 DUP1 PUSH20 0xD4A33860578DE61DBABDC8BFDB98FD742FA7028E SWAP1 POP PUSH1 0x0 DUP2 PUSH20 0xFFFFFFFFFFFFFFFFFFFFFFFFFFFFFFFFFFFFFFFF AND PUSH4 0xFEAF968C PUSH1 0x40 MLOAD DUP2 PUSH4 0xFFFFFFFF AND PUSH1 0xE0 SHL DUP2 MSTORE PUSH1 0x4 ADD PUSH1 0xA0 PUSH1 0x40 MLOAD DUP1 DUP4 SUB DUP2 DUP7 DUP1 EXTCODESIZE ISZERO DUP1 ISZERO PUSH2 0x58C JUMPI PUSH1 0x0 DUP1 REVERT JUMPDEST POP GAS STATICCALL ISZERO DUP1 ISZERO PUSH2 0x5A0 JUMPI RETURNDATASIZE PUSH1 0x0 DUP1 RETURNDATACOPY RETURNDATASIZE PUSH1 0x0 REVERT JUMPDEST POP POP POP POP PUSH1 0x40 MLOAD RETURNDATASIZE PUSH1 0x1F NOT PUSH1 0x1F DUP3 ADD AND DUP3 ADD DUP1 PUSH1 0x40 MSTORE POP DUP2 ADD SWAP1 PUSH2 0x5C4 SWAP2 SWAP1 PUSH2 0x74C JUMP JUMPDEST POP POP POP SWAP2 POP POP PUSH5 0x2540BE400 DUP2 PUSH2 0x5DB SWAP2 SWAP1 PUSH2 0x926 JUMP JUMPDEST SWAP3 POP POP POP SWAP1 JUMP JUMPDEST DUP3 DUP1 SLOAD DUP3 DUP3 SSTORE SWAP1 PUSH1 0x0 MSTORE PUSH1 0x20 PUSH1 0x0 KECCAK256 SWAP1 DUP2 ADD SWAP3 DUP3 ISZERO PUSH2 0x65B JUMPI SWAP2 PUSH1 0x20 MUL DUP3 ADD JUMPDEST DUP3 DUP2 GT ISZERO PUSH2 0x65A JUMPI DUP3 MLOAD DUP3 PUSH1 0x0 PUSH2 0x100 EXP DUP2 SLOAD DUP2 PUSH20 0xFFFFFFFFFFFFFFFFFFFFFFFFFFFFFFFFFFFFFFFF MUL NOT AND SWAP1 DUP4 PUSH20 0xFFFFFFFFFFFFFFFFFFFFFFFFFFFFFFFFFFFFFFFF AND MUL OR SWAP1 SSTORE POP SWAP2 PUSH1 0x20 ADD SWAP2 SWAP1 PUSH1 0x1 ADD SWAP1 PUSH2 0x602 JUMP JUMPDEST JUMPDEST POP SWAP1 POP PUSH2 0x668 SWAP2 SWAP1 PUSH2 0x66C JUMP JUMPDEST POP SWAP1 JUMP JUMPDEST JUMPDEST DUP1 DUP3 GT ISZERO PUSH2 0x685 JUMPI PUSH1 0x0 DUP2 PUSH1 0x0 SWAP1 SSTORE POP PUSH1 0x1 ADD PUSH2 0x66D JUMP JUMPDEST POP SWAP1 JUMP JUMPDEST PUSH1 0x0 DUP2 CALLDATALOAD SWAP1 POP PUSH2 0x698 DUP2 PUSH2 0xC52 JUMP JUMPDEST SWAP3 SWAP2 POP POP JUMP JUMPDEST PUSH1 0x0 DUP2 MLOAD SWAP1 POP PUSH2 0x6AD DUP2 PUSH2 0xC69 JUMP JUMPDEST SWAP3 SWAP2 POP POP JUMP JUMPDEST PUSH1 0x0 DUP2 CALLDATALOAD SWAP1 POP PUSH2 0x6C2 DUP2 PUSH2 0xC80 JUMP JUMPDEST SWAP3 SWAP2 POP POP JUMP JUMPDEST PUSH1 0x0 DUP2 MLOAD SWAP1 POP PUSH2 0x6D7 DUP2 PUSH2 0xC80 JUMP JUMPDEST SWAP3 SWAP2 POP POP JUMP JUMPDEST PUSH1 0x0 DUP2 MLOAD SWAP1 POP PUSH2 0x6EC DUP2 PUSH2 0xC97 JUMP JUMPDEST SWAP3 SWAP2 POP POP JUMP JUMPDEST PUSH1 0x0 PUSH1 0x20 DUP3 DUP5 SUB SLT ISZERO PUSH2 0x708 JUMPI PUSH2 0x707 PUSH2 0xBF8 JUMP JUMPDEST JUMPDEST PUSH1 0x0 PUSH2 0x716 DUP5 DUP3 DUP6 ADD PUSH2 0x689 JUMP JUMPDEST SWAP2 POP POP SWAP3 SWAP2 POP POP JUMP JUMPDEST PUSH1 0x0 PUSH1 0x20 DUP3 DUP5 SUB SLT ISZERO PUSH2 0x735 JUMPI PUSH2 0x734 PUSH2 0xBF8 JUMP JUMPDEST JUMPDEST PUSH1 0x0 PUSH2 0x743 DUP5 DUP3 DUP6 ADD PUSH2 0x6B3 JUMP JUMPDEST SWAP2 POP POP SWAP3 SWAP2 POP POP JUMP JUMPDEST PUSH1 0x0 DUP1 PUSH1 0x0 DUP1 PUSH1 0x0 PUSH1 0xA0 DUP7 DUP9 SUB SLT ISZERO PUSH2 0x768 JUMPI PUSH2 0x767 PUSH2 0xBF8 JUMP JUMPDEST JUMPDEST PUSH1 0x0 PUSH2 0x776 DUP9 DUP3 DUP10 ADD PUSH2 0x6DD JUMP JUMPDEST SWAP6 POP POP PUSH1 0x20 PUSH2 0x787 DUP9 DUP3 DUP10 ADD PUSH2 0x69E JUMP JUMPDEST SWAP5 POP POP PUSH1 0x40 PUSH2 0x798 DUP9 DUP3 DUP10 ADD PUSH2 0x6C8 JUMP JUMPDEST SWAP4 POP POP PUSH1 0x60 PUSH2 0x7A9 DUP9 DUP3 DUP10 ADD PUSH2 0x6C8 JUMP JUMPDEST SWAP3 POP POP PUSH1 0x80 PUSH2 0x7BA DUP9 DUP3 DUP10 ADD PUSH2 0x6DD JUMP JUMPDEST SWAP2 POP POP SWAP3 SWAP6 POP SWAP3 SWAP6 SWAP1 SWAP4 POP JUMP JUMPDEST PUSH2 0x7D0 DUP2 PUSH2 0xA97 JUMP JUMPDEST DUP3 MSTORE POP POP JUMP JUMPDEST PUSH1 0x0 PUSH2 0x7E3 PUSH1 0x12 DUP4 PUSH2 0x8E4 JUMP JUMPDEST SWAP2 POP PUSH2 0x7EE DUP3 PUSH2 0xBFD JUMP JUMPDEST PUSH1 0x20 DUP3 ADD SWAP1 POP SWAP2 SWAP1 POP JUMP JUMPDEST PUSH1 0x0 PUSH2 0x806 PUSH1 0x0 DUP4 PUSH2 0x8D9 JUMP JUMPDEST SWAP2 POP PUSH2 0x811 DUP3 PUSH2 0xC26 JUMP JUMPDEST PUSH1 0x0 DUP3 ADD SWAP1 POP SWAP2 SWAP1 POP JUMP JUMPDEST PUSH1 0x0 PUSH2 0x829 PUSH1 0xB DUP4 PUSH2 0x8E4 JUMP JUMPDEST SWAP2 POP PUSH2 0x834 DUP3 PUSH2 0xC29 JUMP JUMPDEST PUSH1 0x20 DUP3 ADD SWAP1 POP SWAP2 SWAP1 POP JUMP JUMPDEST PUSH2 0x848 DUP2 PUSH2 0xAD3 JUMP JUMPDEST DUP3 MSTORE POP POP JUMP JUMPDEST PUSH1 0x0 PUSH2 0x859 DUP3 PUSH2 0x7F9 JUMP JUMPDEST SWAP2 POP DUP2 SWAP1 POP SWAP2 SWAP1 POP JUMP JUMPDEST PUSH1 0x0 PUSH1 0x20 DUP3 ADD SWAP1 POP PUSH2 0x878 PUSH1 0x0 DUP4 ADD DUP5 PUSH2 0x7C7 JUMP JUMPDEST SWAP3 SWAP2 POP POP JUMP JUMPDEST PUSH1 0x0 PUSH1 0x20 DUP3 ADD SWAP1 POP DUP2 DUP2 SUB PUSH1 0x0 DUP4 ADD MSTORE PUSH2 0x897 DUP2 PUSH2 0x7D6 JUMP JUMPDEST SWAP1 POP SWAP2 SWAP1 POP JUMP JUMPDEST PUSH1 0x0 PUSH1 0x20 DUP3 ADD SWAP1 POP DUP2 DUP2 SUB PUSH1 0x0 DUP4 ADD MSTORE PUSH2 0x8B7 DUP2 PUSH2 0x81C JUMP JUMPDEST SWAP1 POP SWAP2 SWAP1 POP JUMP JUMPDEST PUSH1 0x0 PUSH1 0x20 DUP3 ADD SWAP1 POP PUSH2 0x8D3 PUSH1 0x0 DUP4 ADD DUP5 PUSH2 0x83F JUMP JUMPDEST SWAP3 SWAP2 POP POP JUMP JUMPDEST PUSH1 0x0 DUP2 SWAP1 POP SWAP3 SWAP2 POP POP JUMP JUMPDEST PUSH1 0x0 DUP3 DUP3 MSTORE PUSH1 0x20 DUP3 ADD SWAP1 POP SWAP3 SWAP2 POP POP JUMP JUMPDEST PUSH1 0x0 PUSH2 0x900 DUP3 PUSH2 0xAD3 JUMP JUMPDEST SWAP2 POP PUSH2 0x90B DUP4 PUSH2 0xAD3 JUMP JUMPDEST SWAP3 POP DUP3 PUSH2 0x91B JUMPI PUSH2 0x91A PUSH2 0xB6B JUMP JUMPDEST JUMPDEST DUP3 DUP3 DIV SWAP1 POP SWAP3 SWAP2 POP POP JUMP JUMPDEST PUSH1 0x0 PUSH2 0x931 DUP3 PUSH2 0xAA9 JUMP JUMPDEST SWAP2 POP PUSH2 0x93C DUP4 PUSH2 0xAA9 JUMP JUMPDEST SWAP3 POP DUP3 PUSH32 0x7FFFFFFFFFFFFFFFFFFFFFFFFFFFFFFFFFFFFFFFFFFFFFFFFFFFFFFFFFFFFFFF DIV DUP3 GT PUSH1 0x0 DUP5 SGT PUSH1 0x0 DUP5 SGT AND AND ISZERO PUSH2 0x97B JUMPI PUSH2 0x97A PUSH2 0xB3C JUMP JUMPDEST JUMPDEST DUP2 PUSH32 0x8000000000000000000000000000000000000000000000000000000000000000 SDIV DUP4 SLT PUSH1 0x0 DUP5 SLT PUSH1 0x0 DUP5 SGT AND AND ISZERO PUSH2 0x9B8 JUMPI PUSH2 0x9B7 PUSH2 0xB3C JUMP JUMPDEST JUMPDEST DUP3 PUSH32 0x8000000000000000000000000000000000000000000000000000000000000000 SDIV DUP3 SLT PUSH1 0x0 DUP5 SGT PUSH1 0x0 DUP5 SLT AND AND ISZERO PUSH2 0x9F5 JUMPI PUSH2 0x9F4 PUSH2 0xB3C JUMP JUMPDEST JUMPDEST DUP3 PUSH32 0x7FFFFFFFFFFFFFFFFFFFFFFFFFFFFFFFFFFFFFFFFFFFFFFFFFFFFFFFFFFFFFFF SDIV DUP3 SLT PUSH1 0x0 DUP5 SLT PUSH1 0x0 DUP5 SLT AND AND ISZERO PUSH2 0xA32 JUMPI PUSH2 0xA31 PUSH2 0xB3C JUMP JUMPDEST JUMPDEST DUP3 DUP3 MUL SWAP1 POP SWAP3 SWAP2 POP POP JUMP JUMPDEST PUSH1 0x0 PUSH2 0xA48 DUP3 PUSH2 0xAD3 JUMP JUMPDEST SWAP2 POP PUSH2 0xA53 DUP4 PUSH2 0xAD3 JUMP JUMPDEST SWAP3 POP DUP2 PUSH32 0xFFFFFFFFFFFFFFFFFFFFFFFFFFFFFFFFFFFFFFFFFFFFFFFFFFFFFFFFFFFFFFFF DIV DUP4 GT DUP3 ISZERO ISZERO AND ISZERO PUSH2 0xA8C JUMPI PUSH2 0xA8B PUSH2 0xB3C JUMP JUMPDEST JUMPDEST DUP3 DUP3 MUL SWAP1 POP SWAP3 SWAP2 POP POP JUMP JUMPDEST PUSH1 0x0 PUSH2 0xAA2 DUP3 PUSH2 0xAB3 JUMP JUMPDEST SWAP1 POP SWAP2 SWAP1 POP JUMP JUMPDEST PUSH1 0x0 DUP2 SWAP1 POP SWAP2 SWAP1 POP JUMP JUMPDEST PUSH1 0x0 PUSH20 0xFFFFFFFFFFFFFFFFFFFFFFFFFFFFFFFFFFFFFFFF DUP3 AND SWAP1 POP SWAP2 SWAP1 POP JUMP JUMPDEST PUSH1 0x0 DUP2 SWAP1 POP SWAP2 SWAP1 POP JUMP JUMPDEST PUSH1 0x0 PUSH10 0xFFFFFFFFFFFFFFFFFFFF DUP3 AND SWAP1 POP SWAP2 SWAP1 POP JUMP JUMPDEST PUSH1 0x0 PUSH2 0xAFE DUP3 PUSH2 0xAD3 JUMP JUMPDEST SWAP2 POP PUSH32 0xFFFFFFFFFFFFFFFFFFFFFFFFFFFFFFFFFFFFFFFFFFFFFFFFFFFFFFFFFFFFFFFF DUP3 EQ ISZERO PUSH2 0xB31 JUMPI PUSH2 0xB30 PUSH2 0xB3C JUMP JUMPDEST JUMPDEST PUSH1 0x1 DUP3 ADD SWAP1 POP SWAP2 SWAP1 POP JUMP JUMPDEST PUSH32 0x4E487B7100000000000000000000000000000000000000000000000000000000 PUSH1 0x0 MSTORE PUSH1 0x11 PUSH1 0x4 MSTORE PUSH1 0x24 PUSH1 0x0 REVERT JUMPDEST PUSH32 0x4E487B7100000000000000000000000000000000000000000000000000000000 PUSH1 0x0 MSTORE PUSH1 0x12 PUSH1 0x4 MSTORE PUSH1 0x24 PUSH1 0x0 REVERT JUMPDEST PUSH32 0x4E487B7100000000000000000000000000000000000000000000000000000000 PUSH1 0x0 MSTORE PUSH1 0x32 PUSH1 0x4 MSTORE PUSH1 0x24 PUSH1 0x0 REVERT JUMPDEST PUSH32 0x4E487B7100000000000000000000000000000000000000000000000000000000 PUSH1 0x0 MSTORE PUSH1 0x41 PUSH1 0x4 MSTORE PUSH1 0x24 PUSH1 0x0 REVERT JUMPDEST PUSH1 0x0 DUP1 REVERT JUMPDEST PUSH32 0x4469646E27742073656E6420656E6F7567680000000000000000000000000000 PUSH1 0x0 DUP3 ADD MSTORE POP JUMP JUMPDEST POP JUMP JUMPDEST PUSH32 0x43616C6C204661696C6564000000000000000000000000000000000000000000 PUSH1 0x0 DUP3 ADD MSTORE POP JUMP JUMPDEST PUSH2 0xC5B DUP2 PUSH2 0xA97 JUMP JUMPDEST DUP2 EQ PUSH2 0xC66 JUMPI PUSH1 0x0 DUP1 REVERT JUMPDEST POP JUMP JUMPDEST PUSH2 0xC72 DUP2 PUSH2 0xAA9 JUMP JUMPDEST DUP2 EQ PUSH2 0xC7D JUMPI PUSH1 0x0 DUP1 REVERT JUMPDEST POP JUMP JUMPDEST PUSH2 0xC89 DUP2 PUSH2 0xAD3 JUMP JUMPDEST DUP2 EQ PUSH2 0xC94 JUMPI PUSH1 0x0 DUP1 REVERT JUMPDEST POP JUMP JUMPDEST PUSH2 0xCA0 DUP2 PUSH2 0xADD JUMP JUMPDEST DUP2 EQ PUSH2 0xCAB JUMPI PUSH1 0x0 DUP1 REVERT JUMPDEST POP JUMP INVALID LOG2 PUSH5 0x6970667358 0x22 SLT KECCAK256 0xB5 0xB0 PUSH1 0x2F 0xCC SGT POP STATICCALL SLOAD PUSH2 0xD314 0xC2 PUSH15 0x80DC22227D1D4872E1E49A2125A0E6 PUSH7 0x9B8364736F6C63 NUMBER STOP ADDMOD SMOD STOP CALLER "
				},
				"gasEstimates": {
					"creation": {
						"codeDepositCost": "660000",
						"executionCost": "52074",
						"totalCost": "712074"
					},
					"external": {
						"": "179",
						"fund()": "infinite",
						"funderAndAmountSent(address)": "2837",
						"funders(uint256)": "5000",
						"limitAmount()": "2474",
						"owner()": "2514",
						"test()": "2495",
						"widthdraw()": "infinite"
					}
				},
				"methodIdentifiers": {
					"fund()": "b60d4288",
					"funderAndAmountSent(address)": "6aba2c86",
					"funders(uint256)": "dc0d3dff",
					"limitAmount()": "78abafaf",
					"owner()": "8da5cb5b",
					"test()": "f8a8fd6d",
					"widthdraw()": "52b50a2a"
				}
			},
			"storageLayout": {
				"storage": [
					{
						"astId": 58,
						"contract": "Contracts/FundMe.sol:FundMe",
						"label": "limitAmount",
						"offset": 0,
						"slot": "0",
						"type": "t_uint256"
					},
					{
						"astId": 61,
						"contract": "Contracts/FundMe.sol:FundMe",
						"label": "funders",
						"offset": 0,
						"slot": "1",
						"type": "t_array(t_address)dyn_storage"
					},
					{
						"astId": 65,
						"contract": "Contracts/FundMe.sol:FundMe",
						"label": "funderAndAmountSent",
						"offset": 0,
						"slot": "2",
						"type": "t_mapping(t_address,t_uint256)"
					},
					{
						"astId": 67,
						"contract": "Contracts/FundMe.sol:FundMe",
						"label": "owner",
						"offset": 0,
						"slot": "3",
						"type": "t_address"
					},
					{
						"astId": 181,
						"contract": "Contracts/FundMe.sol:FundMe",
						"label": "test",
						"offset": 0,
						"slot": "4",
						"type": "t_uint256"
					}
				],
				"types": {
					"t_address": {
						"encoding": "inplace",
						"label": "address",
						"numberOfBytes": "20"
					},
					"t_array(t_address)dyn_storage": {
						"base": "t_address",
						"encoding": "dynamic_array",
						"label": "address[]",
						"numberOfBytes": "32"
					},
					"t_mapping(t_address,t_uint256)": {
						"encoding": "mapping",
						"key": "t_address",
						"label": "mapping(address => uint256)",
						"numberOfBytes": "32",
						"value": "t_uint256"
					},
					"t_uint256": {
						"encoding": "inplace",
						"label": "uint256",
						"numberOfBytes": "32"
					}
				}
			},
			"userdoc": {
				"kind": "user",
				"methods": {},
				"version": 1
			}
		}
	}
}