{
	"data": {
		"bytecode": {
			"linkReferences": {},
			"object": "60806040526201518080146000806101000a81548160ff02191690831515021790555034801561002e57600080fd5b506101278061003e6000396000f3fe6080604052348015600f57600080fd5b5060043610603c5760003560e01c8063195e7892146041578063340488c6146049578063405eae91146051575b600080fd5b6047606b565b005b604f608e565b005b605760ae565b6040516062919060d8565b60405180910390f35b62015f9062015180146000806101000a81548160ff021916908315150217905550565b62093a8080146000806101000a81548160ff021916908315150217905550565b60008054906101000a900460ff1681565b60008115159050919050565b60d28160bf565b82525050565b600060208201905060eb600083018460cb565b9291505056fea26469706673582212209aa2f70eb47511efff330e35dff132fe10741af952872cf8100b24f99925e77764736f6c63430008110033",
			"opcodes": "PUSH1 0x80 PUSH1 0x40 MSTORE PUSH3 0x15180 DUP1 EQ PUSH1 0x0 DUP1 PUSH2 0x100 EXP DUP2 SLOAD DUP2 PUSH1 0xFF MUL NOT AND SWAP1 DUP4 ISZERO ISZERO MUL OR SWAP1 SSTORE POP CALLVALUE DUP1 ISZERO PUSH2 0x2E JUMPI PUSH1 0x0 DUP1 REVERT JUMPDEST POP PUSH2 0x127 DUP1 PUSH2 0x3E PUSH1 0x0 CODECOPY PUSH1 0x0 RETURN INVALID PUSH1 0x80 PUSH1 0x40 MSTORE CALLVALUE DUP1 ISZERO PUSH1 0xF JUMPI PUSH1 0x0 DUP1 REVERT JUMPDEST POP PUSH1 0x4 CALLDATASIZE LT PUSH1 0x3C JUMPI PUSH1 0x0 CALLDATALOAD PUSH1 0xE0 SHR DUP1 PUSH4 0x195E7892 EQ PUSH1 0x41 JUMPI DUP1 PUSH4 0x340488C6 EQ PUSH1 0x49 JUMPI DUP1 PUSH4 0x405EAE91 EQ PUSH1 0x51 JUMPI JUMPDEST PUSH1 0x0 DUP1 REVERT JUMPDEST PUSH1 0x47 PUSH1 0x6B JUMP JUMPDEST STOP JUMPDEST PUSH1 0x4F PUSH1 0x8E JUMP JUMPDEST STOP JUMPDEST PUSH1 0x57 PUSH1 0xAE JUMP JUMPDEST PUSH1 0x40 MLOAD PUSH1 0x62 SWAP2 SWAP1 PUSH1 0xD8 JUMP JUMPDEST PUSH1 0x40 MLOAD DUP1 SWAP2 SUB SWAP1 RETURN JUMPDEST PUSH3 0x15F90 PUSH3 0x15180 EQ PUSH1 0x0 DUP1 PUSH2 0x100 EXP DUP2 SLOAD DUP2 PUSH1 0xFF MUL NOT AND SWAP1 DUP4 ISZERO ISZERO MUL OR SWAP1 SSTORE POP JUMP JUMPDEST PUSH3 0x93A80 DUP1 EQ PUSH1 0x0 DUP1 PUSH2 0x100 EXP DUP2 SLOAD DUP2 PUSH1 0xFF MUL NOT AND SWAP1 DUP4 ISZERO ISZERO MUL OR SWAP1 SSTORE POP JUMP JUMPDEST PUSH1 0x0 DUP1 SLOAD SWAP1 PUSH2 0x100 EXP SWAP1 DIV PUSH1 0xFF AND DUP2 JUMP JUMPDEST PUSH1 0x0 DUP2 ISZERO ISZERO SWAP1 POP SWAP2 SWAP1 POP JUMP JUMPDEST PUSH1 0xD2 DUP2 PUSH1 0xBF JUMP JUMPDEST DUP3 MSTORE POP POP JUMP JUMPDEST PUSH1 0x0 PUSH1 0x20 DUP3 ADD SWAP1 POP PUSH1 0xEB PUSH1 0x0 DUP4 ADD DUP5 PUSH1 0xCB JUMP JUMPDEST SWAP3 SWAP2 POP POP JUMP INVALID LOG2 PUSH5 0x6970667358 0x22 SLT KECCAK256 SWAP11 LOG2 0xF7 0xE 0xB4 PUSH22 0x11EFFF330E35DFF132FE10741AF952872CF8100B24F9 SWAP10 0x25 0xE7 PUSH24 0x64736F6C6343000811003300000000000000000000000000 "
		},
		"gasEstimates": {
			"creation": {
				"codeDepositCost": "59000",
				"executionCost": "24384",
				"totalCost": "83384"
			},
			"external": {
				"isTime()": "2490",
				"makeTrue()": "24417",
				"makefalse()": "24395"
			}
		},
		"methodIdentifiers": {
			"isTime()": "405eae91",
			"makeTrue()": "340488c6",
			"makefalse()": "195e7892"
		}
	},
	"abi": [
		{
			"inputs": [],
			"name": "isTime",
			"outputs": [
				{
					"internalType": "bool",
					"name": "",
					"type": "bool"
				}
			],
			"stateMutability": "view",
			"type": "function"
		},
		{
			"inputs": [],
			"name": "makeTrue",
			"outputs": [],
			"stateMutability": "nonpayable",
			"type": "function"
		},
		{
			"inputs": [],
			"name": "makefalse",
			"outputs": [],
			"stateMutability": "nonpayable",
			"type": "function"
		}
	]
}